{
  "_format": "hh-sol-artifact-1",
  "contractName": "Auction",
  "sourceName": "contracts/Auction.sol",
  "abi": [
    {
      "inputs": [
        {
          "internalType": "address",
          "name": "wfhenix",
          "type": "address"
        },
        {
          "internalType": "uint256",
          "name": "biddingTime",
          "type": "uint256"
        }
      ],
      "stateMutability": "payable",
      "type": "constructor"
    },
    {
      "inputs": [],
      "name": "ECDSAInvalidSignature",
      "type": "error"
    },
    {
      "inputs": [
        {
          "internalType": "uint256",
          "name": "length",
          "type": "uint256"
        }
      ],
      "name": "ECDSAInvalidSignatureLength",
      "type": "error"
    },
    {
      "inputs": [
        {
          "internalType": "bytes32",
          "name": "s",
          "type": "bytes32"
        }
      ],
      "name": "ECDSAInvalidSignatureS",
      "type": "error"
    },
    {
      "inputs": [],
      "name": "InvalidShortString",
      "type": "error"
    },
    {
      "inputs": [],
      "name": "SignerNotMessageSender",
      "type": "error"
    },
    {
      "inputs": [],
      "name": "SignerNotOwner",
      "type": "error"
    },
    {
      "inputs": [
        {
          "internalType": "string",
          "name": "str",
          "type": "string"
        }
      ],
      "name": "StringTooLong",
      "type": "error"
    },
    {
      "anonymous": false,
      "inputs": [
        {
          "indexed": false,
          "internalType": "address",
          "name": "winner",
          "type": "address"
        },
        {
          "indexed": false,
          "internalType": "uint32",
          "name": "bid",
          "type": "uint32"
        }
      ],
      "name": "AuctionEnded",
      "type": "event"
    },
    {
      "anonymous": false,
      "inputs": [],
      "name": "EIP712DomainChanged",
      "type": "event"
    },
    {
      "inputs": [],
      "name": "auctionEndTime",
      "outputs": [
        {
          "internalType": "uint256",
          "name": "",
          "type": "uint256"
        }
      ],
      "stateMutability": "view",
      "type": "function"
    },
    {
      "inputs": [],
      "name": "auctioneer",
      "outputs": [
        {
          "internalType": "address payable",
          "name": "",
          "type": "address"
        }
      ],
      "stateMutability": "view",
      "type": "function"
    },
    {
      "inputs": [
        {
          "components": [
            {
              "internalType": "bytes",
              "name": "data",
              "type": "bytes"
            }
          ],
          "internalType": "struct inEuint32",
          "name": "amount",
          "type": "tuple"
        }
      ],
      "name": "bid",
      "outputs": [],
      "stateMutability": "nonpayable",
      "type": "function"
    },
    {
      "inputs": [],
      "name": "debugEndAuction",
      "outputs": [],
      "stateMutability": "nonpayable",
      "type": "function"
    },
    {
      "inputs": [],
      "name": "eip712Domain",
      "outputs": [
        {
          "internalType": "bytes1",
          "name": "fields",
          "type": "bytes1"
        },
        {
          "internalType": "string",
          "name": "name",
          "type": "string"
        },
        {
          "internalType": "string",
          "name": "version",
          "type": "string"
        },
        {
          "internalType": "uint256",
          "name": "chainId",
          "type": "uint256"
        },
        {
          "internalType": "address",
          "name": "verifyingContract",
          "type": "address"
        },
        {
          "internalType": "bytes32",
          "name": "salt",
          "type": "bytes32"
        },
        {
          "internalType": "uint256[]",
          "name": "extensions",
          "type": "uint256[]"
        }
      ],
      "stateMutability": "view",
      "type": "function"
    },
    {
      "inputs": [],
      "name": "endAuction",
      "outputs": [],
      "stateMutability": "nonpayable",
      "type": "function"
    },
    {
      "inputs": [
        {
          "internalType": "address",
          "name": "account",
          "type": "address"
        },
        {
          "components": [
            {
              "internalType": "bytes32",
              "name": "publicKey",
              "type": "bytes32"
            },
            {
              "internalType": "bytes",
              "name": "signature",
              "type": "bytes"
            }
          ],
          "internalType": "struct Permission",
          "name": "auth",
          "type": "tuple"
        }
      ],
      "name": "getMyBid",
      "outputs": [
        {
          "internalType": "uint256",
          "name": "",
          "type": "uint256"
        }
      ],
      "stateMutability": "view",
      "type": "function"
    },
    {
      "inputs": [
        {
          "internalType": "address",
          "name": "account",
          "type": "address"
        }
      ],
      "name": "getMyBidDebug",
      "outputs": [
        {
          "internalType": "uint256",
          "name": "",
          "type": "uint256"
        }
      ],
      "stateMutability": "view",
      "type": "function"
    },
    {
      "inputs": [],
      "name": "getWinner",
      "outputs": [
        {
          "internalType": "address",
          "name": "",
          "type": "address"
        }
      ],
      "stateMutability": "view",
      "type": "function"
    },
    {
      "inputs": [],
      "name": "getWinningBid",
      "outputs": [
        {
          "internalType": "uint256",
          "name": "",
          "type": "uint256"
        }
      ],
      "stateMutability": "view",
      "type": "function"
    },
    {
      "inputs": [],
      "name": "redeemFunds",
      "outputs": [],
      "stateMutability": "nonpayable",
      "type": "function"
    },
    {
      "inputs": [],
      "name": "winnerAddress",
      "outputs": [
        {
          "internalType": "address",
          "name": "",
          "type": "address"
        }
      ],
      "stateMutability": "view",
      "type": "function"
    }
  ],
  "bytecode": "0x610160604052604051620042673803806200426783398181016040528101906200002a9190620005aa565b6040518060400160405280601181526020017f4668656e6978205065726d697373696f6e0000000000000000000000000000008152506040518060400160405280600381526020017f312e300000000000000000000000000000000000000000000000000000000000815250620000ac6000836200028860201b90919060201c565b6101208181525050620000ca6001826200028860201b90919060201c565b6101408181525050818051906020012060e08181525050808051906020012061010081815250504660a0818152505062000109620002e060201b60201c565b608081815250503073ffffffffffffffffffffffffffffffffffffffff1660c08173ffffffffffffffffffffffffffffffffffffffff1681525050505081601260006101000a81548173ffffffffffffffffffffffffffffffffffffffff021916908373ffffffffffffffffffffffffffffffffffffffff16021790555033600260006101000a81548173ffffffffffffffffffffffffffffffffffffffff021916908373ffffffffffffffffffffffffffffffffffffffff1602179055508042620001d6919062000620565b601181905550620001ee60006200033d60201b60201c565b60048190555060045460058190555060005b60058110156200026457600454600660000182600581106200022757620002266200065b565b5b0181905550600454600b60000182600581106200024957620002486200065b565b5b018190555080806200025b906200068a565b91505062000200565b506200027a63ffffffff6200033d60201b60201c565b601081905550505062000e25565b6000602083511015620002ae57620002a6836200035960201b60201c565b9050620002da565b82620002c083620003c660201b60201c565b6000019081620002d1919062000947565b5060ff60001b90505b92915050565b60007f8b73c3c69bb8fe3d512ecc4cf759cc79239f7b179b0ffacaa9a75d522b39400f60e0516101005146306040516020016200032295949392919062000a6b565b60405160208183030381529060405280519060200120905090565b600062000352826002620003d060201b60201c565b9050919050565b600080829050601f81511115620003a957826040517f305a27a9000000000000000000000000000000000000000000000000000000008152600401620003a0919062000b57565b60405180910390fd5b805181620003b79062000bad565b60001c1760001b915050919050565b6000819050919050565b60006060608073ffffffffffffffffffffffffffffffffffffffff166319e1c5c462000402866200048760201b60201c565b856040518363ffffffff1660e01b81526004016200042292919062000c8d565b600060405180830381865afa15801562000440573d6000803e3d6000fd5b505050506040513d6000823e3d601f19601f820116820180604052508101906200046b919062000dd4565b90506200047e81620004e860201b60201c565b91505092915050565b6060602067ffffffffffffffff811115620004a757620004a6620006e2565b5b6040519080825280601f01601f191660200182016040528015620004da5781602001600182028036833780820191505090505b509050816020820152919050565b600060208201519050919050565b6000604051905090565b600080fd5b600080fd5b600073ffffffffffffffffffffffffffffffffffffffff82169050919050565b600062000537826200050a565b9050919050565b62000549816200052a565b81146200055557600080fd5b50565b60008151905062000569816200053e565b92915050565b6000819050919050565b62000584816200056f565b81146200059057600080fd5b50565b600081519050620005a48162000579565b92915050565b60008060408385031215620005c457620005c362000500565b5b6000620005d48582860162000558565b9250506020620005e78582860162000593565b9150509250929050565b7f4e487b7100000000000000000000000000000000000000000000000000000000600052601160045260246000fd5b60006200062d826200056f565b91506200063a836200056f565b9250828201905080821115620006555762000654620005f1565b5b92915050565b7f4e487b7100000000000000000000000000000000000000000000000000000000600052603260045260246000fd5b600062000697826200056f565b91507fffffffffffffffffffffffffffffffffffffffffffffffffffffffffffffffff8203620006cc57620006cb620005f1565b5b600182019050919050565b600081519050919050565b7f4e487b7100000000000000000000000000000000000000000000000000000000600052604160045260246000fd5b7f4e487b7100000000000000000000000000000000000000000000000000000000600052602260045260246000fd5b600060028204905060018216806200075957607f821691505b6020821081036200076f576200076e62000711565b5b50919050565b60008190508160005260206000209050919050565b60006020601f8301049050919050565b600082821b905092915050565b600060088302620007d97fffffffffffffffffffffffffffffffffffffffffffffffffffffffffffffffff826200079a565b620007e586836200079a565b95508019841693508086168417925050509392505050565b6000819050919050565b600062000828620008226200081c846200056f565b620007fd565b6200056f565b9050919050565b6000819050919050565b620008448362000807565b6200085c62000853826200082f565b848454620007a7565b825550505050565b600090565b6200087362000864565b6200088081848462000839565b505050565b5b81811015620008a8576200089c60008262000869565b60018101905062000886565b5050565b601f821115620008f757620008c18162000775565b620008cc846200078a565b81016020851015620008dc578190505b620008f4620008eb856200078a565b83018262000885565b50505b505050565b600082821c905092915050565b60006200091c60001984600802620008fc565b1980831691505092915050565b600062000937838362000909565b9150826002028217905092915050565b6200095282620006d7565b67ffffffffffffffff8111156200096e576200096d620006e2565b5b6200097a825462000740565b62000987828285620008ac565b600060209050601f831160018114620009bf5760008415620009aa578287015190505b620009b6858262000929565b86555062000a26565b601f198416620009cf8662000775565b60005b82811015620009f957848901518255600182019150602085019450602081019050620009d2565b8683101562000a19578489015162000a15601f89168262000909565b8355505b6001600288020188555050505b505050505050565b6000819050919050565b62000a438162000a2e565b82525050565b62000a54816200056f565b82525050565b62000a65816200052a565b82525050565b600060a08201905062000a82600083018862000a38565b62000a91602083018762000a38565b62000aa0604083018662000a38565b62000aaf606083018562000a49565b62000abe608083018462000a5a565b9695505050505050565b600082825260208201905092915050565b60005b8381101562000af957808201518184015260208101905062000adc565b60008484015250505050565b6000601f19601f8301169050919050565b600062000b2382620006d7565b62000b2f818562000ac8565b935062000b4181856020860162000ad9565b62000b4c8162000b05565b840191505092915050565b6000602082019050818103600083015262000b73818462000b16565b905092915050565b600081519050919050565b6000819050602082019050919050565b600062000ba4825162000a2e565b80915050919050565b600062000bba8262000b7b565b8262000bc68462000b86565b905062000bd38162000b96565b9250602082101562000c165762000c117fffffffffffffffffffffffffffffffffffffffffffffffffffffffffffffffff836020036008026200079a565b831692505b5050919050565b600082825260208201905092915050565b600062000c3b8262000b7b565b62000c47818562000c1d565b935062000c5981856020860162000ad9565b62000c648162000b05565b840191505092915050565b600060ff82169050919050565b62000c878162000c6f565b82525050565b6000604082019050818103600083015262000ca9818562000c2e565b905062000cba602083018462000c7c565b9392505050565b600080fd5b600080fd5b62000cd68262000b05565b810181811067ffffffffffffffff8211171562000cf85762000cf7620006e2565b5b80604052505050565b600062000d0d620004f6565b905062000d1b828262000ccb565b919050565b600067ffffffffffffffff82111562000d3e5762000d3d620006e2565b5b62000d498262000b05565b9050602081019050919050565b600062000d6d62000d678462000d20565b62000d01565b90508281526020810184848401111562000d8c5762000d8b62000cc6565b5b62000d9984828562000ad9565b509392505050565b600082601f83011262000db95762000db862000cc1565b5b815162000dcb84826020860162000d56565b91505092915050565b60006020828403121562000ded5762000dec62000500565b5b600082015167ffffffffffffffff81111562000e0e5762000e0d62000505565b5b62000e1c8482850162000da1565b91505092915050565b60805160a05160c05160e0516101005161012051610140516133e762000e8060003960006110c60152600061108b01526000611d2d01526000611d0c015260006116be015260006117140152600061173d01526133e76000f3fe608060405234801561001057600080fd5b50600436106100b45760003560e01c80639242e202116100715780639242e2021461017157806394ce0e201461018d578063cdc7f6b114610197578063e6cd064b146101c7578063ed7a4e0b146101e5578063fe67a54b14610203576100b4565b8063216355ec146100b95780632b9ca88b146100c35780634b449cba146100f35780635ec2c7bf1461011157806384b0196e1461012f5780638e7ea5b214610153575b600080fd5b6100c161020d565b005b6100dd60048036038101906100d8919061254e565b610504565b6040516100ea91906125c3565b60405180910390f35b6100fb610635565b60405161010891906125c3565b60405180910390f35b61011961063b565b60405161012691906125ff565b60405180910390f35b610137610661565b60405161014a97969594939291906127b0565b60405180910390f35b61015b61070b565b6040516101689190612834565b60405180910390f35b61018b60048036038101906101869190612873565b6107c5565b005b6101956109c8565b005b6101b160048036038101906101ac91906128bc565b610bea565b6040516101be91906125c3565b60405180910390f35b6101cf610c44565b6040516101dc91906125c3565b60405180910390f35b6101ed610cec565b6040516101fa9190612834565b60405180910390f35b61020b610d12565b005b601360009054906101000a900473ffffffffffffffffffffffffffffffffffffffff1673ffffffffffffffffffffffffffffffffffffffff163373ffffffffffffffffffffffffffffffffffffffff160361029d576040517f08c379a00000000000000000000000000000000000000000000000000000000081526004016102949061295b565b60405180910390fd5b600073ffffffffffffffffffffffffffffffffffffffff16601360009054906101000a900473ffffffffffffffffffffffffffffffffffffffff1673ffffffffffffffffffffffffffffffffffffffff160361032e576040517f08c379a0000000000000000000000000000000000000000000000000000000008152600401610325906129c7565b60405180910390fd5b600360003373ffffffffffffffffffffffffffffffffffffffff1673ffffffffffffffffffffffffffffffffffffffff16815260200190815260200160002060010160009054906101000a900460ff16156103be576040517f08c379a00000000000000000000000000000000000000000000000000000000081526004016103b590612a33565b60405180910390fd5b6000600360003373ffffffffffffffffffffffffffffffffffffffff1673ffffffffffffffffffffffffffffffffffffffff1681526020019081526020016000206000015490506001600360003373ffffffffffffffffffffffffffffffffffffffff1673ffffffffffffffffffffffffffffffffffffffff16815260200190815260200160002060010160006101000a81548160ff021916908315150217905550601260009054906101000a900473ffffffffffffffffffffffffffffffffffffffff1673ffffffffffffffffffffffffffffffffffffffff1663c4224c1933836040518363ffffffff1660e01b81526004016104bd929190612a8e565b6020604051808303816000875af11580156104dc573d6000803e3d6000fd5b505050506040513d601f19601f820116820180604052508101906105009190612ae3565b5050565b60008183600061055f7f6bdaeb2d29561f159c7ef98b16b27015fb2aeb87209c7ee656226d912f59927d8460000151604051602001610544929190612b10565b60405160208183030381529060405280519060200120610f79565b90506000610571828560200151610f93565b90508273ffffffffffffffffffffffffffffffffffffffff168173ffffffffffffffffffffffffffffffffffffffff16146105d8576040517f51c65eae00000000000000000000000000000000000000000000000000000000815260040160405180910390fd5b610623600360008973ffffffffffffffffffffffffffffffffffffffff1673ffffffffffffffffffffffffffffffffffffffff16815260200190815260200160002060000154610fbf565b63ffffffff1694505050505092915050565b60115481565b600260009054906101000a900473ffffffffffffffffffffffffffffffffffffffff1681565b600060608060008060006060610675611082565b61067d6110bd565b46306000801b600067ffffffffffffffff81111561069e5761069d612372565b5b6040519080825280602002602001820160405280156106cc5781602001602082028036833780820191505090505b507f0f00000000000000000000000000000000000000000000000000000000000000959493929190965096509650965096509650965090919293949596565b60008073ffffffffffffffffffffffffffffffffffffffff16601360009054906101000a900473ffffffffffffffffffffffffffffffffffffffff1673ffffffffffffffffffffffffffffffffffffffff160361079d576040517f08c379a0000000000000000000000000000000000000000000000000000000008152600401610794906129c7565b60405180910390fd5b601360009054906101000a900473ffffffffffffffffffffffffffffffffffffffff16905090565b600073ffffffffffffffffffffffffffffffffffffffff16601360009054906101000a900473ffffffffffffffffffffffffffffffffffffffff1673ffffffffffffffffffffffffffffffffffffffff1614610856576040517f08c379a000000000000000000000000000000000000000000000000000000000815260040161084d906129c7565b60405180910390fd5b6000601260009054906101000a900473ffffffffffffffffffffffffffffffffffffffff1673ffffffffffffffffffffffffffffffffffffffff16638624a3493330856040518463ffffffff1660e01b81526004016108b793929190612c1d565b6020604051808303816000875af11580156108d6573d6000803e3d6000fd5b505050506040513d601f19601f820116820180604052508101906108fa9190612ae3565b9050600061090833836110f8565b9050600061091882600554611379565b90506000610925336113f2565b9050600061093e6005548461150490919063ffffffff16565b905061099c81600b6040518060200160405290816000820160058060200260405190810160405280929190826005801561098d576020028201915b815481526020019060010190808311610979575b50505050508152505084611518565b600b6000820151816000019060056109b5929190612236565b5090505082600581905550505050505050565b600260009054906101000a900473ffffffffffffffffffffffffffffffffffffffff1673ffffffffffffffffffffffffffffffffffffffff163373ffffffffffffffffffffffffffffffffffffffff1614610a58576040517f08c379a0000000000000000000000000000000000000000000000000000000008152600401610a4f90612ccd565b60405180910390fd5b600073ffffffffffffffffffffffffffffffffffffffff16601360009054906101000a900473ffffffffffffffffffffffffffffffffffffffff1673ffffffffffffffffffffffffffffffffffffffff1614610ae9576040517f08c379a0000000000000000000000000000000000000000000000000000000008152600401610ae0906129c7565b60405180910390fd5b610b43600b60405180602001604052908160008201600580602002604051908101604052809291908260058015610b35576020028201915b815481526020019060010190808311610b21575b5050505050815250506115ab565b601360006101000a81548173ffffffffffffffffffffffffffffffffffffffff021916908373ffffffffffffffffffffffffffffffffffffffff1602179055507f1c73b0ec6aabb0e49a3005f5ff668188d68c7c2c5fabe4686ec117562b518281601360009054906101000a900473ffffffffffffffffffffffffffffffffffffffff16610bd2600554610fbf565b604051610be0929190612d0c565b60405180910390a1565b6000610c37600360008473ffffffffffffffffffffffffffffffffffffffff1673ffffffffffffffffffffffffffffffffffffffff16815260200190815260200160002060000154610fbf565b63ffffffff169050919050565b60008073ffffffffffffffffffffffffffffffffffffffff16601360009054906101000a900473ffffffffffffffffffffffffffffffffffffffff1673ffffffffffffffffffffffffffffffffffffffff1603610cd6576040517f08c379a0000000000000000000000000000000000000000000000000000000008152600401610ccd906129c7565b60405180910390fd5b610ce1600554610fbf565b63ffffffff16905090565b601360009054906101000a900473ffffffffffffffffffffffffffffffffffffffff1681565b600260009054906101000a900473ffffffffffffffffffffffffffffffffffffffff1673ffffffffffffffffffffffffffffffffffffffff163373ffffffffffffffffffffffffffffffffffffffff1614610da2576040517f08c379a0000000000000000000000000000000000000000000000000000000008152600401610d9990612ccd565b60405180910390fd5b601154421015610de7576040517f08c379a0000000000000000000000000000000000000000000000000000000008152600401610dde90612d81565b60405180910390fd5b600073ffffffffffffffffffffffffffffffffffffffff16601360009054906101000a900473ffffffffffffffffffffffffffffffffffffffff1673ffffffffffffffffffffffffffffffffffffffff1614610e78576040517f08c379a0000000000000000000000000000000000000000000000000000000008152600401610e6f906129c7565b60405180910390fd5b610ed2600b60405180602001604052908160008201600580602002604051908101604052809291908260058015610ec4576020028201915b815481526020019060010190808311610eb0575b5050505050815250506115ab565b601360006101000a81548173ffffffffffffffffffffffffffffffffffffffff021916908373ffffffffffffffffffffffffffffffffffffffff1602179055507f1c73b0ec6aabb0e49a3005f5ff668188d68c7c2c5fabe4686ec117562b518281601360009054906101000a900473ffffffffffffffffffffffffffffffffffffffff16610f61600554610fbf565b604051610f6f929190612d0c565b60405180910390a1565b6000610f8c610f866116ba565b83611771565b9050919050565b600080600080610fa386866117b2565b925092509250610fb3828261180e565b82935050505092915050565b6000610fca82611972565b610fdb57610fd8600061197f565b91505b60008290506000610feb82611993565b90506000608073ffffffffffffffffffffffffffffffffffffffff166373cc01546002846040518363ffffffff1660e01b815260040161102c929190612e12565b602060405180830381865afa158015611049573d6000803e3d6000fd5b505050506040513d601f19601f8201168201806040525081019061106d9190612e6e565b9050611078816119f0565b9350505050919050565b60606110b860007f00000000000000000000000000000000000000000000000000000000000000006119fa90919063ffffffff16565b905090565b60606110f360017f00000000000000000000000000000000000000000000000000000000000000006119fa90919063ffffffff16565b905090565b6000611145600360008573ffffffffffffffffffffffffffffffffffffffff1673ffffffffffffffffffffffffffffffffffffffff16815260200190815260200160002060000154611972565b61122457611151612276565b82816000018181525050600081602001901515908115158152505080600360008673ffffffffffffffffffffffffffffffffffffffff1673ffffffffffffffffffffffffffffffffffffffff1681526020019081526020016000206000820151816000015560208201518160010160006101000a81548160ff021916908315150217905550905050600360008573ffffffffffffffffffffffffffffffffffffffff1673ffffffffffffffffffffffffffffffffffffffff16815260200190815260200160002060000154915050611373565b6000611286600360008673ffffffffffffffffffffffffffffffffffffffff1673ffffffffffffffffffffffffffffffffffffffff1681526020019081526020016000206000015461127860105486611aaa565b611abe90919063ffffffff16565b905060006112978260045486611ad2565b90506112e5600360008773ffffffffffffffffffffffffffffffffffffffff1673ffffffffffffffffffffffffffffffffffffffff1681526020019081526020016000206000015482611b50565b600360008773ffffffffffffffffffffffffffffffffffffffff1673ffffffffffffffffffffffffffffffffffffffff16815260200190815260200160002060000181905550600360008673ffffffffffffffffffffffffffffffffffffffff1673ffffffffffffffffffffffffffffffffffffffff16815260200190815260200160002060000154925050505b92915050565b600061138483611972565b61139557611392600061197f565b92505b61139e82611972565b6113af576113ac600061197f565b91505b6000839050600083905060006113e460028484608073ffffffffffffffffffffffffffffffffffffffff16630b80518e611b64565b905080935050505092915050565b6113fa612292565b6000829050600073ffffffff000000000000000000000000000000009050611420612292565b60005b60058110156114f857600060208261143b9190612eca565b905060008173ffffffffffffffffffffffffffffffffffffffff168573ffffffffffffffffffffffffffffffffffffffff16901c905060008260806114809190612f0c565b73ffffffffffffffffffffffffffffffffffffffff1682881673ffffffffffffffffffffffffffffffffffffffff16901c90506114c28163ffffffff1661197f565b856000015185600581106114d9576114d8612f54565b5b60200201818152505050505080806114f090612f83565b915050611423565b50809350505050919050565b60006115108383611bf8565b905092915050565b611520612292565b60005b60058110156115a05761156d858460000151836005811061154757611546612f54565b5b60200201518660000151846005811061156357611562612f54565b5b6020020151611ad2565b8460000151826005811061158457611583612f54565b5b602002018181525050808061159890612f83565b915050611523565b508290509392505050565b60008060005b600581101561164d57600060208260046115cb9190612fcb565b6115d59190612eca565b905060006115fd866000015184600581106115f3576115f2612f54565b5b6020020151610fbf565b905060008263ffffffff168263ffffffff1673ffffffffffffffffffffffffffffffffffffffff16901b905080856116359190612fff565b9450505050808061164590612f83565b9150506115b1565b506000602067ffffffffffffffff81111561166b5761166a612372565b5b6040519080825280601f01601f19166020018201604052801561169d5781602001600182028036833780820191505090505b5090508160208201526116b181600c611c71565b92505050919050565b60007f000000000000000000000000000000000000000000000000000000000000000073ffffffffffffffffffffffffffffffffffffffff163073ffffffffffffffffffffffffffffffffffffffff1614801561173657507f000000000000000000000000000000000000000000000000000000000000000046145b15611763577f0000000000000000000000000000000000000000000000000000000000000000905061176e565b61176b611ce7565b90505b90565b60006040517f190100000000000000000000000000000000000000000000000000000000000081528360028201528260228201526042812091505092915050565b600080600060418451036117f75760008060006020870151925060408701519150606087015160001a90506117e988828585611d7d565b955095509550505050611807565b60006002855160001b9250925092505b9250925092565b6000600381111561182257611821613047565b5b82600381111561183557611834613047565b5b031561196e576001600381111561184f5761184e613047565b5b82600381111561186257611861613047565b5b03611899576040517ff645eedf00000000000000000000000000000000000000000000000000000000815260040160405180910390fd5b600260038111156118ad576118ac613047565b5b8260038111156118c0576118bf613047565b5b03611905578060001c6040517ffce698f70000000000000000000000000000000000000000000000000000000081526004016118fc91906125c3565b60405180910390fd5b60038081111561191857611917613047565b5b82600381111561192b5761192a613047565b5b0361196d57806040517fd78bce0c0000000000000000000000000000000000000000000000000000000081526004016119649190613076565b60405180910390fd5b5b5050565b6000808214159050919050565b600061198c826002611e71565b9050919050565b6060602067ffffffffffffffff8111156119b0576119af612372565b5b6040519080825280601f01601f1916602001820160405280156119e25781602001600182028036833780820191505090505b509050816020820152919050565b6000819050919050565b606060ff60001b8314611a1757611a1083611f13565b9050611aa4565b818054611a23906130c0565b80601f0160208091040260200160405190810160405280929190818152602001828054611a4f906130c0565b8015611a9c5780601f10611a7157610100808354040283529160200191611a9c565b820191906000526020600020905b815481529060010190602001808311611a7f57829003601f168201915b505050505090505b92915050565b6000611ab68383611f87565b905092915050565b6000611aca8383612000565b905092915050565b6000611add84612079565b611aee57611aeb6000612086565b93505b611af783611972565b611b0857611b05600061197f565b92505b611b1182611972565b611b2257611b1f600061197f565b91505b6000849050600084905060008490506000611b40600285858561209a565b9050809450505050509392505050565b6000611b5c8383612152565b905092915050565b60006060838388611b7489611993565b611b7d89611993565b6040518463ffffffff1660e01b8152600401611b9b939291906130f1565b600060405180830381865afa158015611bb8573d6000803e3d6000fd5b505050506040513d6000823e3d601f19601f82011682018060405250810190611be191906131a6565b9050611bec816121ca565b91505095945050505050565b6000611c0383611972565b611c1457611c11600061197f565b92505b611c1d82611972565b611c2e57611c2b600061197f565b91505b600083905060008390506000611c6360028484608073ffffffffffffffffffffffffffffffffffffffff1663874b1c10611b64565b905080935050505092915050565b6000601482611c8091906131ef565b83511015611cc3576040517f08c379a0000000000000000000000000000000000000000000000000000000008152600401611cba9061326f565b60405180910390fd5b60006c01000000000000000000000000836020860101510490508091505092915050565b60007f8b73c3c69bb8fe3d512ecc4cf759cc79239f7b179b0ffacaa9a75d522b39400f7f00000000000000000000000000000000000000000000000000000000000000007f00000000000000000000000000000000000000000000000000000000000000004630604051602001611d6295949392919061328f565b60405160208183030381529060405280519060200120905090565b60008060007f7fffffffffffffffffffffffffffffff5d576e7357a4501ddfe92f46681b20a08460001c1115611dbd576000600385925092509250611e67565b600060018888888860405160008152602001604052604051611de294939291906132e2565b6020604051602081039080840390855afa158015611e04573d6000803e3d6000fd5b505050602060405103519050600073ffffffffffffffffffffffffffffffffffffffff168173ffffffffffffffffffffffffffffffffffffffff1603611e5857600060016000801b93509350935050611e67565b8060008060001b935093509350505b9450945094915050565b60006060608073ffffffffffffffffffffffffffffffffffffffff166319e1c5c4611e9b86611993565b856040518363ffffffff1660e01b8152600401611eb9929190613327565b600060405180830381865afa158015611ed6573d6000803e3d6000fd5b505050506040513d6000823e3d601f19601f82011682018060405250810190611eff91906131a6565b9050611f0a816121d8565b91505092915050565b60606000611f20836121e6565b90506000602067ffffffffffffffff811115611f3f57611f3e612372565b5b6040519080825280601f01601f191660200182016040528015611f715781602001600182028036833780820191505090505b5090508181528360208201528092505050919050565b6000611f9283611972565b611fa357611fa0600061197f565b92505b611fac82611972565b611fbd57611fba600061197f565b91505b600083905060008390506000611ff260028484608073ffffffffffffffffffffffffffffffffffffffff1663cc2cbeff611b64565b905080935050505092915050565b600061200b83611972565b61201c57612019600061197f565b92505b61202582611972565b61203657612033600061197f565b91505b60008390506000839050600061206b60028484608073ffffffffffffffffffffffffffffffffffffffff1663b9c7a54b611b64565b905080935050505092915050565b6000808214159050919050565b6000612093826000611e71565b9050919050565b60006060608073ffffffffffffffffffffffffffffffffffffffff1663c2d96952876120c588611993565b6120ce88611993565b6120d788611993565b6040518563ffffffff1660e01b81526004016120f69493929190613357565b600060405180830381865afa158015612113573d6000803e3d6000fd5b505050506040513d6000823e3d601f19601f8201168201806040525081019061213c91906131a6565b9050612147816121d8565b915050949350505050565b600061215d83611972565b61216e5761216b600061197f565b92505b61217782611972565b61218857612185600061197f565b91505b6000839050600083905060006121bc60028484608073ffffffffffffffffffffffffffffffffffffffff16622df619611b64565b905080935050505092915050565b600060208201519050919050565b600060208201519050919050565b60008060ff8360001c169050601f81111561222d576040517fb3512b0c00000000000000000000000000000000000000000000000000000000815260040160405180910390fd5b80915050919050565b8260058101928215612265579160200282015b82811115612264578251825591602001919060010190612249565b5b50905061227291906122ab565b5090565b6040518060400160405280600081526020016000151581525090565b60405180602001604052806122a56122c8565b81525090565b5b808211156122c45760008160009055506001016122ac565b5090565b6040518060a00160405280600590602082028036833780820191505090505090565b6000604051905090565b600080fd5b600080fd5b600073ffffffffffffffffffffffffffffffffffffffff82169050919050565b6000612329826122fe565b9050919050565b6123398161231e565b811461234457600080fd5b50565b60008135905061235681612330565b92915050565b600080fd5b6000601f19601f8301169050919050565b7f4e487b7100000000000000000000000000000000000000000000000000000000600052604160045260246000fd5b6123aa82612361565b810181811067ffffffffffffffff821117156123c9576123c8612372565b5b80604052505050565b60006123dc6122ea565b90506123e882826123a1565b919050565b600080fd5b6000819050919050565b612405816123f2565b811461241057600080fd5b50565b600081359050612422816123fc565b92915050565b600080fd5b600080fd5b600067ffffffffffffffff82111561244d5761244c612372565b5b61245682612361565b9050602081019050919050565b82818337600083830152505050565b600061248561248084612432565b6123d2565b9050828152602081018484840111156124a1576124a061242d565b5b6124ac848285612463565b509392505050565b600082601f8301126124c9576124c8612428565b5b81356124d9848260208601612472565b91505092915050565b6000604082840312156124f8576124f761235c565b5b61250260406123d2565b9050600061251284828501612413565b600083015250602082013567ffffffffffffffff811115612536576125356123ed565b5b612542848285016124b4565b60208301525092915050565b60008060408385031215612565576125646122f4565b5b600061257385828601612347565b925050602083013567ffffffffffffffff811115612594576125936122f9565b5b6125a0858286016124e2565b9150509250929050565b6000819050919050565b6125bd816125aa565b82525050565b60006020820190506125d860008301846125b4565b92915050565b60006125e9826122fe565b9050919050565b6125f9816125de565b82525050565b600060208201905061261460008301846125f0565b92915050565b60007fff0000000000000000000000000000000000000000000000000000000000000082169050919050565b61264f8161261a565b82525050565b600081519050919050565b600082825260208201905092915050565b60005b8381101561268f578082015181840152602081019050612674565b60008484015250505050565b60006126a682612655565b6126b08185612660565b93506126c0818560208601612671565b6126c981612361565b840191505092915050565b6126dd8161231e565b82525050565b6126ec816123f2565b82525050565b600081519050919050565b600082825260208201905092915050565b6000819050602082019050919050565b612727816125aa565b82525050565b6000612739838361271e565b60208301905092915050565b6000602082019050919050565b600061275d826126f2565b61276781856126fd565b93506127728361270e565b8060005b838110156127a357815161278a888261272d565b975061279583612745565b925050600181019050612776565b5085935050505092915050565b600060e0820190506127c5600083018a612646565b81810360208301526127d7818961269b565b905081810360408301526127eb818861269b565b90506127fa60608301876125b4565b61280760808301866126d4565b61281460a08301856126e3565b81810360c08301526128268184612752565b905098975050505050505050565b600060208201905061284960008301846126d4565b92915050565b600080fd5b60006020828403121561286a5761286961284f565b5b81905092915050565b600060208284031215612889576128886122f4565b5b600082013567ffffffffffffffff8111156128a7576128a66122f9565b5b6128b384828501612854565b91505092915050565b6000602082840312156128d2576128d16122f4565b5b60006128e084828501612347565b91505092915050565b7f57696e6e65722063616e6e6f7420706572666f726d207468697320616374696f60008201527f6e00000000000000000000000000000000000000000000000000000000000000602082015250565b6000612945602183612660565b9150612950826128e9565b604082019050919050565b6000602082019050818103600083015261297481612938565b9050919050565b7f41756374696f6e20616c726561647920656e6465640000000000000000000000600082015250565b60006129b1601583612660565b91506129bc8261297b565b602082019050919050565b600060208201905081810360008301526129e0816129a4565b9050919050565b7f416c726561647920726566756e64656400000000000000000000000000000000600082015250565b6000612a1d601083612660565b9150612a28826129e7565b602082019050919050565b60006020820190508181036000830152612a4c81612a10565b9050919050565b6000819050919050565b6000612a78612a73612a6e846125aa565b612a53565b6125aa565b9050919050565b612a8881612a5d565b82525050565b6000604082019050612aa360008301856126d4565b612ab06020830184612a7f565b9392505050565b612ac0816125aa565b8114612acb57600080fd5b50565b600081519050612add81612ab7565b92915050565b600060208284031215612af957612af86122f4565b5b6000612b0784828501612ace565b91505092915050565b6000604082019050612b2560008301856126e3565b612b3260208301846126e3565b9392505050565b600080fd5b600080fd5b600080fd5b60008083356001602003843603038112612b6557612b64612b43565b5b83810192508235915060208301925067ffffffffffffffff821115612b8d57612b8c612b39565b5b600182023603831315612ba357612ba2612b3e565b5b509250929050565b600082825260208201905092915050565b6000612bc88385612bab565b9350612bd5838584612463565b612bde83612361565b840190509392505050565b600060208301612bfc6000840184612b48565b8583036000870152612c0f838284612bbc565b925050508091505092915050565b6000606082019050612c3260008301866126d4565b612c3f60208301856126d4565b8181036040830152612c518184612be9565b9050949350505050565b7f4f6e6c792061756374696f6e6565722063616e20706572666f726d207468697360008201527f20616374696f6e00000000000000000000000000000000000000000000000000602082015250565b6000612cb7602783612660565b9150612cc282612c5b565b604082019050919050565b60006020820190508181036000830152612ce681612caa565b9050919050565b600063ffffffff82169050919050565b612d0681612ced565b82525050565b6000604082019050612d2160008301856126d4565b612d2e6020830184612cfd565b9392505050565b7f41756374696f6e206f6e676f696e670000000000000000000000000000000000600082015250565b6000612d6b600f83612660565b9150612d7682612d35565b602082019050919050565b60006020820190508181036000830152612d9a81612d5e565b9050919050565b600060ff82169050919050565b612db781612da1565b82525050565b600081519050919050565b600082825260208201905092915050565b6000612de482612dbd565b612dee8185612dc8565b9350612dfe818560208601612671565b612e0781612361565b840191505092915050565b6000604082019050612e276000830185612dae565b8181036020830152612e398184612dd9565b90509392505050565b612e4b816125aa565b8114612e5657600080fd5b50565b600081519050612e6881612e42565b92915050565b600060208284031215612e8457612e836122f4565b5b6000612e9284828501612e59565b91505092915050565b7f4e487b7100000000000000000000000000000000000000000000000000000000600052601160045260246000fd5b6000612ed5826125aa565b9150612ee0836125aa565b9250828202612eee816125aa565b91508282048414831517612f0557612f04612e9b565b5b5092915050565b6000612f17826122fe565b9150612f22836122fe565b9250828203905073ffffffffffffffffffffffffffffffffffffffff811115612f4e57612f4d612e9b565b5b92915050565b7f4e487b7100000000000000000000000000000000000000000000000000000000600052603260045260246000fd5b6000612f8e826125aa565b91507fffffffffffffffffffffffffffffffffffffffffffffffffffffffffffffffff8203612fc057612fbf612e9b565b5b600182019050919050565b6000612fd6826125aa565b9150612fe1836125aa565b9250828203905081811115612ff957612ff8612e9b565b5b92915050565b600061300a826122fe565b9150613015836122fe565b9250828201905073ffffffffffffffffffffffffffffffffffffffff81111561304157613040612e9b565b5b92915050565b7f4e487b7100000000000000000000000000000000000000000000000000000000600052602160045260246000fd5b600060208201905061308b60008301846126e3565b92915050565b7f4e487b7100000000000000000000000000000000000000000000000000000000600052602260045260246000fd5b600060028204905060018216806130d857607f821691505b6020821081036130eb576130ea613091565b5b50919050565b60006060820190506131066000830186612dae565b81810360208301526131188185612dd9565b9050818103604083015261312c8184612dd9565b9050949350505050565b600061314961314484612432565b6123d2565b9050828152602081018484840111156131655761316461242d565b5b613170848285612671565b509392505050565b600082601f83011261318d5761318c612428565b5b815161319d848260208601613136565b91505092915050565b6000602082840312156131bc576131bb6122f4565b5b600082015167ffffffffffffffff8111156131da576131d96122f9565b5b6131e684828501613178565b91505092915050565b60006131fa826125aa565b9150613205836125aa565b925082820190508082111561321d5761321c612e9b565b5b92915050565b7f746f416464726573735f6f75744f66426f756e64730000000000000000000000600082015250565b6000613259601583612660565b915061326482613223565b602082019050919050565b600060208201905081810360008301526132888161324c565b9050919050565b600060a0820190506132a460008301886126e3565b6132b160208301876126e3565b6132be60408301866126e3565b6132cb60608301856125b4565b6132d860808301846126d4565b9695505050505050565b60006080820190506132f760008301876126e3565b6133046020830186612dae565b61331160408301856126e3565b61331e60608301846126e3565b95945050505050565b600060408201905081810360008301526133418185612dd9565b90506133506020830184612dae565b9392505050565b600060808201905061336c6000830187612dae565b818103602083015261337e8186612dd9565b905081810360408301526133928185612dd9565b905081810360608301526133a68184612dd9565b90509594505050505056fea2646970667358221220a371c08b1f982c78b61e0985c6e878e8fef21191bdc59bbff8e4f3d507f0569b64736f6c63430008140033",
  "linkReferences": {},
  "deployedLinkReferences": {}
}