{
  "_format": "hh-sol-artifact-1",
  "contractName": "Auction",
  "sourceName": "contracts/Auction.sol",
  "abi": [
    {
      "inputs": [
        {
          "internalType": "address",
          "name": "wfhenix",
          "type": "address"
        },
        {
          "internalType": "uint256",
          "name": "biddingTime",
          "type": "uint256"
        }
      ],
      "stateMutability": "payable",
      "type": "constructor"
    },
    {
      "inputs": [],
      "name": "ECDSAInvalidSignature",
      "type": "error"
    },
    {
      "inputs": [
        {
          "internalType": "uint256",
          "name": "length",
          "type": "uint256"
        }
      ],
      "name": "ECDSAInvalidSignatureLength",
      "type": "error"
    },
    {
      "inputs": [
        {
          "internalType": "bytes32",
          "name": "s",
          "type": "bytes32"
        }
      ],
      "name": "ECDSAInvalidSignatureS",
      "type": "error"
    },
    {
      "inputs": [],
      "name": "InvalidShortString",
      "type": "error"
    },
    {
      "inputs": [],
      "name": "SignerNotMessageSender",
      "type": "error"
    },
    {
      "inputs": [],
      "name": "SignerNotOwner",
      "type": "error"
    },
    {
      "inputs": [
        {
          "internalType": "string",
          "name": "str",
          "type": "string"
        }
      ],
      "name": "StringTooLong",
      "type": "error"
    },
    {
      "anonymous": false,
      "inputs": [
        {
          "indexed": false,
          "internalType": "address",
          "name": "winner",
          "type": "address"
        },
        {
          "indexed": false,
          "internalType": "uint32",
          "name": "bid",
          "type": "uint32"
        }
      ],
      "name": "AuctionEnded",
      "type": "event"
    },
    {
      "anonymous": false,
      "inputs": [],
      "name": "EIP712DomainChanged",
      "type": "event"
    },
    {
      "inputs": [],
      "name": "auctionEndTime",
      "outputs": [
        {
          "internalType": "uint256",
          "name": "",
          "type": "uint256"
        }
      ],
      "stateMutability": "view",
      "type": "function"
    },
    {
      "inputs": [],
      "name": "auctioneer",
      "outputs": [
        {
          "internalType": "address payable",
          "name": "",
          "type": "address"
        }
      ],
      "stateMutability": "view",
      "type": "function"
    },
    {
      "inputs": [
        {
          "components": [
            {
              "internalType": "bytes",
              "name": "data",
              "type": "bytes"
            }
          ],
          "internalType": "struct inEuint32",
          "name": "amount",
          "type": "tuple"
        }
      ],
      "name": "bid",
      "outputs": [],
      "stateMutability": "nonpayable",
      "type": "function"
    },
    {
      "inputs": [],
      "name": "debugEndAuction",
      "outputs": [],
      "stateMutability": "nonpayable",
      "type": "function"
    },
    {
      "inputs": [],
      "name": "eip712Domain",
      "outputs": [
        {
          "internalType": "bytes1",
          "name": "fields",
          "type": "bytes1"
        },
        {
          "internalType": "string",
          "name": "name",
          "type": "string"
        },
        {
          "internalType": "string",
          "name": "version",
          "type": "string"
        },
        {
          "internalType": "uint256",
          "name": "chainId",
          "type": "uint256"
        },
        {
          "internalType": "address",
          "name": "verifyingContract",
          "type": "address"
        },
        {
          "internalType": "bytes32",
          "name": "salt",
          "type": "bytes32"
        },
        {
          "internalType": "uint256[]",
          "name": "extensions",
          "type": "uint256[]"
        }
      ],
      "stateMutability": "view",
      "type": "function"
    },
    {
      "inputs": [],
      "name": "endAuction",
      "outputs": [],
      "stateMutability": "nonpayable",
      "type": "function"
    },
    {
      "inputs": [
        {
          "internalType": "address",
          "name": "account",
          "type": "address"
        },
        {
          "components": [
            {
              "internalType": "bytes32",
              "name": "publicKey",
              "type": "bytes32"
            },
            {
              "internalType": "bytes",
              "name": "signature",
              "type": "bytes"
            }
          ],
          "internalType": "struct Permission",
          "name": "auth",
          "type": "tuple"
        }
      ],
      "name": "getMyBid",
      "outputs": [
        {
          "internalType": "uint256",
          "name": "",
          "type": "uint256"
        }
      ],
      "stateMutability": "view",
      "type": "function"
    },
    {
      "inputs": [
        {
          "internalType": "address",
          "name": "account",
          "type": "address"
        }
      ],
      "name": "getMyBidDebug",
      "outputs": [
        {
          "internalType": "uint256",
          "name": "",
          "type": "uint256"
        }
      ],
      "stateMutability": "view",
      "type": "function"
    },
    {
      "inputs": [],
      "name": "getWinner",
      "outputs": [
        {
          "internalType": "address",
          "name": "",
          "type": "address"
        }
      ],
      "stateMutability": "view",
      "type": "function"
    },
    {
      "inputs": [],
      "name": "getWinningBid",
      "outputs": [
        {
          "internalType": "uint256",
          "name": "",
          "type": "uint256"
        },
        {
          "internalType": "address",
          "name": "",
          "type": "address"
        }
      ],
      "stateMutability": "view",
      "type": "function"
    },
    {
      "inputs": [],
      "name": "redeemFunds",
      "outputs": [],
      "stateMutability": "nonpayable",
      "type": "function"
    },
    {
      "inputs": [],
      "name": "winnerAddress",
      "outputs": [
        {
          "internalType": "address",
          "name": "",
          "type": "address"
        }
      ],
      "stateMutability": "view",
      "type": "function"
    }
  ],
  "bytecode": "0x610160604052604051620044f1380380620044f183398181016040528101906200002a9190620005ff565b6040518060400160405280601181526020017f4668656e6978205065726d697373696f6e0000000000000000000000000000008152506040518060400160405280600381526020017f312e300000000000000000000000000000000000000000000000000000000000815250620000ac600083620002dd60201b90919060201c565b6101208181525050620000ca600182620002dd60201b90919060201c565b6101408181525050818051906020012060e08181525050808051906020012061010081815250504660a08181525050620001096200033560201b60201c565b608081815250503073ffffffffffffffffffffffffffffffffffffffff1660c08173ffffffffffffffffffffffffffffffffffffffff1681525050505081601260006101000a81548173ffffffffffffffffffffffffffffffffffffffff021916908373ffffffffffffffffffffffffffffffffffffffff16021790555033600260006101000a81548173ffffffffffffffffffffffffffffffffffffffff021916908373ffffffffffffffffffffffffffffffffffffffff1602179055508042620001d6919062000675565b601181905550620001ee60006200039260201b60201c565b60048190555060045460058190555073ffffffffffffffffffffffffffffffffffffffff601360006101000a81548173ffffffffffffffffffffffffffffffffffffffff021916908373ffffffffffffffffffffffffffffffffffffffff16021790555060005b6005811015620002b957600454600660000182600581106200027c576200027b620006b0565b5b0181905550600454600b60000182600581106200029e576200029d620006b0565b5b01819055508080620002b090620006df565b91505062000255565b50620002cf63ffffffff6200039260201b60201c565b601081905550505062000e7a565b60006020835110156200030357620002fb83620003ae60201b60201c565b90506200032f565b8262000315836200041b60201b60201c565b60000190816200032691906200099c565b5060ff60001b90505b92915050565b60007f8b73c3c69bb8fe3d512ecc4cf759cc79239f7b179b0ffacaa9a75d522b39400f60e0516101005146306040516020016200037795949392919062000ac0565b60405160208183030381529060405280519060200120905090565b6000620003a78260026200042560201b60201c565b9050919050565b600080829050601f81511115620003fe57826040517f305a27a9000000000000000000000000000000000000000000000000000000008152600401620003f5919062000bac565b60405180910390fd5b8051816200040c9062000c02565b60001c1760001b915050919050565b6000819050919050565b60006060608073ffffffffffffffffffffffffffffffffffffffff166319e1c5c46200045786620004dc60201b60201c565b856040518363ffffffff1660e01b81526004016200047792919062000ce2565b600060405180830381865afa15801562000495573d6000803e3d6000fd5b505050506040513d6000823e3d601f19601f82011682018060405250810190620004c0919062000e29565b9050620004d3816200053d60201b60201c565b91505092915050565b6060602067ffffffffffffffff811115620004fc57620004fb62000737565b5b6040519080825280601f01601f1916602001820160405280156200052f5781602001600182028036833780820191505090505b509050816020820152919050565b600060208201519050919050565b6000604051905090565b600080fd5b600080fd5b600073ffffffffffffffffffffffffffffffffffffffff82169050919050565b60006200058c826200055f565b9050919050565b6200059e816200057f565b8114620005aa57600080fd5b50565b600081519050620005be8162000593565b92915050565b6000819050919050565b620005d981620005c4565b8114620005e557600080fd5b50565b600081519050620005f981620005ce565b92915050565b6000806040838503121562000619576200061862000555565b5b60006200062985828601620005ad565b92505060206200063c85828601620005e8565b9150509250929050565b7f4e487b7100000000000000000000000000000000000000000000000000000000600052601160045260246000fd5b60006200068282620005c4565b91506200068f83620005c4565b9250828201905080821115620006aa57620006a962000646565b5b92915050565b7f4e487b7100000000000000000000000000000000000000000000000000000000600052603260045260246000fd5b6000620006ec82620005c4565b91507fffffffffffffffffffffffffffffffffffffffffffffffffffffffffffffffff820362000721576200072062000646565b5b600182019050919050565b600081519050919050565b7f4e487b7100000000000000000000000000000000000000000000000000000000600052604160045260246000fd5b7f4e487b7100000000000000000000000000000000000000000000000000000000600052602260045260246000fd5b60006002820490506001821680620007ae57607f821691505b602082108103620007c457620007c362000766565b5b50919050565b60008190508160005260206000209050919050565b60006020601f8301049050919050565b600082821b905092915050565b6000600883026200082e7fffffffffffffffffffffffffffffffffffffffffffffffffffffffffffffffff82620007ef565b6200083a8683620007ef565b95508019841693508086168417925050509392505050565b6000819050919050565b60006200087d620008776200087184620005c4565b62000852565b620005c4565b9050919050565b6000819050919050565b62000899836200085c565b620008b1620008a88262000884565b848454620007fc565b825550505050565b600090565b620008c8620008b9565b620008d58184846200088e565b505050565b5b81811015620008fd57620008f1600082620008be565b600181019050620008db565b5050565b601f8211156200094c576200091681620007ca565b6200092184620007df565b8101602085101562000931578190505b620009496200094085620007df565b830182620008da565b50505b505050565b600082821c905092915050565b6000620009716000198460080262000951565b1980831691505092915050565b60006200098c83836200095e565b9150826002028217905092915050565b620009a7826200072c565b67ffffffffffffffff811115620009c357620009c262000737565b5b620009cf825462000795565b620009dc82828562000901565b600060209050601f83116001811462000a145760008415620009ff578287015190505b62000a0b85826200097e565b86555062000a7b565b601f19841662000a2486620007ca565b60005b8281101562000a4e5784890151825560018201915060208501945060208101905062000a27565b8683101562000a6e578489015162000a6a601f8916826200095e565b8355505b6001600288020188555050505b505050505050565b6000819050919050565b62000a988162000a83565b82525050565b62000aa981620005c4565b82525050565b62000aba816200057f565b82525050565b600060a08201905062000ad7600083018862000a8d565b62000ae6602083018762000a8d565b62000af5604083018662000a8d565b62000b04606083018562000a9e565b62000b13608083018462000aaf565b9695505050505050565b600082825260208201905092915050565b60005b8381101562000b4e57808201518184015260208101905062000b31565b60008484015250505050565b6000601f19601f8301169050919050565b600062000b78826200072c565b62000b84818562000b1d565b935062000b9681856020860162000b2e565b62000ba18162000b5a565b840191505092915050565b6000602082019050818103600083015262000bc8818462000b6b565b905092915050565b600081519050919050565b6000819050602082019050919050565b600062000bf9825162000a83565b80915050919050565b600062000c0f8262000bd0565b8262000c1b8462000bdb565b905062000c288162000beb565b9250602082101562000c6b5762000c667fffffffffffffffffffffffffffffffffffffffffffffffffffffffffffffffff83602003600802620007ef565b831692505b5050919050565b600082825260208201905092915050565b600062000c908262000bd0565b62000c9c818562000c72565b935062000cae81856020860162000b2e565b62000cb98162000b5a565b840191505092915050565b600060ff82169050919050565b62000cdc8162000cc4565b82525050565b6000604082019050818103600083015262000cfe818562000c83565b905062000d0f602083018462000cd1565b9392505050565b600080fd5b600080fd5b62000d2b8262000b5a565b810181811067ffffffffffffffff8211171562000d4d5762000d4c62000737565b5b80604052505050565b600062000d626200054b565b905062000d70828262000d20565b919050565b600067ffffffffffffffff82111562000d935762000d9262000737565b5b62000d9e8262000b5a565b9050602081019050919050565b600062000dc262000dbc8462000d75565b62000d56565b90508281526020810184848401111562000de15762000de062000d1b565b5b62000dee84828562000b2e565b509392505050565b600082601f83011262000e0e5762000e0d62000d16565b5b815162000e2084826020860162000dab565b91505092915050565b60006020828403121562000e425762000e4162000555565b5b600082015167ffffffffffffffff81111562000e635762000e626200055a565b5b62000e718482850162000df6565b91505092915050565b60805160a05160c05160e05161010051610120516101405161361c62000ed560003960006112660152600061122b01526000611ecd01526000611eac0152600061185e015260006118b4015260006118dd015261361c6000f3fe608060405234801561001057600080fd5b50600436106100b45760003560e01c80639242e202116100715780639242e2021461017157806394ce0e201461018d578063cdc7f6b114610197578063e6cd064b146101c7578063ed7a4e0b146101e6578063fe67a54b14610204576100b4565b8063216355ec146100b95780632b9ca88b146100c35780634b449cba146100f35780635ec2c7bf1461011157806384b0196e1461012f5780638e7ea5b214610153575b600080fd5b6100c161020e565b005b6100dd60048036038101906100d891906126ee565b610505565b6040516100ea9190612763565b60405180910390f35b6100fb610636565b6040516101089190612763565b60405180910390f35b61011961063c565b604051610126919061279f565b60405180910390f35b610137610662565b60405161014a9796959493929190612950565b60405180910390f35b61015b61070c565b60405161016891906129d4565b60405180910390f35b61018b60048036038101906101869190612a13565b6107c6565b005b6101956109c9565b005b6101b160048036038101906101ac9190612a5c565b610ca5565b6040516101be9190612763565b60405180910390f35b6101cf610cff565b6040516101dd929190612a89565b60405180910390f35b6101ee610dd2565b6040516101fb91906129d4565b60405180910390f35b61020c610df8565b005b601460009054906101000a900473ffffffffffffffffffffffffffffffffffffffff1673ffffffffffffffffffffffffffffffffffffffff163373ffffffffffffffffffffffffffffffffffffffff160361029e576040517f08c379a000000000000000000000000000000000000000000000000000000000815260040161029590612b24565b60405180910390fd5b600073ffffffffffffffffffffffffffffffffffffffff16601460009054906101000a900473ffffffffffffffffffffffffffffffffffffffff1673ffffffffffffffffffffffffffffffffffffffff160361032f576040517f08c379a000000000000000000000000000000000000000000000000000000000815260040161032690612b90565b60405180910390fd5b600360003373ffffffffffffffffffffffffffffffffffffffff1673ffffffffffffffffffffffffffffffffffffffff16815260200190815260200160002060010160009054906101000a900460ff16156103bf576040517f08c379a00000000000000000000000000000000000000000000000000000000081526004016103b690612bfc565b60405180910390fd5b6000600360003373ffffffffffffffffffffffffffffffffffffffff1673ffffffffffffffffffffffffffffffffffffffff1681526020019081526020016000206000015490506001600360003373ffffffffffffffffffffffffffffffffffffffff1673ffffffffffffffffffffffffffffffffffffffff16815260200190815260200160002060010160006101000a81548160ff021916908315150217905550601260009054906101000a900473ffffffffffffffffffffffffffffffffffffffff1673ffffffffffffffffffffffffffffffffffffffff1663c4224c1933836040518363ffffffff1660e01b81526004016104be929190612c57565b6020604051808303816000875af11580156104dd573d6000803e3d6000fd5b505050506040513d601f19601f820116820180604052508101906105019190612cac565b5050565b6000818360006105607f6bdaeb2d29561f159c7ef98b16b27015fb2aeb87209c7ee656226d912f59927d8460000151604051602001610545929190612cd9565b60405160208183030381529060405280519060200120611119565b90506000610572828560200151611133565b90508273ffffffffffffffffffffffffffffffffffffffff168173ffffffffffffffffffffffffffffffffffffffff16146105d9576040517f51c65eae00000000000000000000000000000000000000000000000000000000815260040160405180910390fd5b610624600360008973ffffffffffffffffffffffffffffffffffffffff1673ffffffffffffffffffffffffffffffffffffffff1681526020019081526020016000206000015461115f565b63ffffffff1694505050505092915050565b60115481565b600260009054906101000a900473ffffffffffffffffffffffffffffffffffffffff1681565b600060608060008060006060610676611222565b61067e61125d565b46306000801b600067ffffffffffffffff81111561069f5761069e612512565b5b6040519080825280602002602001820160405280156106cd5781602001602082028036833780820191505090505b507f0f00000000000000000000000000000000000000000000000000000000000000959493929190965096509650965096509650965090919293949596565b60008073ffffffffffffffffffffffffffffffffffffffff16601460009054906101000a900473ffffffffffffffffffffffffffffffffffffffff1673ffffffffffffffffffffffffffffffffffffffff160361079e576040517f08c379a000000000000000000000000000000000000000000000000000000000815260040161079590612b90565b60405180910390fd5b601460009054906101000a900473ffffffffffffffffffffffffffffffffffffffff16905090565b600073ffffffffffffffffffffffffffffffffffffffff16601460009054906101000a900473ffffffffffffffffffffffffffffffffffffffff1673ffffffffffffffffffffffffffffffffffffffff1614610857576040517f08c379a000000000000000000000000000000000000000000000000000000000815260040161084e90612d4e565b60405180910390fd5b6000601260009054906101000a900473ffffffffffffffffffffffffffffffffffffffff1673ffffffffffffffffffffffffffffffffffffffff16638624a3493330856040518463ffffffff1660e01b81526004016108b893929190612e52565b6020604051808303816000875af11580156108d7573d6000803e3d6000fd5b505050506040513d601f19601f820116820180604052508101906108fb9190612cac565b905060006109093383611298565b9050600061091982600554611519565b9050600061092633611592565b9050600061093f600554846116a490919063ffffffff16565b905061099d81600b6040518060200160405290816000820160058060200260405190810160405280929190826005801561098e576020028201915b81548152602001906001019080831161097a575b505050505081525050846116b8565b600b6000820151816000019060056109b69291906123d6565b5090505082600581905550505050505050565b600260009054906101000a900473ffffffffffffffffffffffffffffffffffffffff1673ffffffffffffffffffffffffffffffffffffffff163373ffffffffffffffffffffffffffffffffffffffff1614610a59576040517f08c379a0000000000000000000000000000000000000000000000000000000008152600401610a5090612f02565b60405180910390fd5b600073ffffffffffffffffffffffffffffffffffffffff16601460009054906101000a900473ffffffffffffffffffffffffffffffffffffffff1673ffffffffffffffffffffffffffffffffffffffff1614610aea576040517f08c379a0000000000000000000000000000000000000000000000000000000008152600401610ae190612d4e565b60405180910390fd5b610b44600b60405180602001604052908160008201600580602002604051908101604052809291908260058015610b36576020028201915b815481526020019060010190808311610b22575b50505050508152505061174b565b601460006101000a81548173ffffffffffffffffffffffffffffffffffffffff021916908373ffffffffffffffffffffffffffffffffffffffff160217905550600073ffffffffffffffffffffffffffffffffffffffff16601460009054906101000a900473ffffffffffffffffffffffffffffffffffffffff1673ffffffffffffffffffffffffffffffffffffffff1603610c3e57601360009054906101000a900473ffffffffffffffffffffffffffffffffffffffff16601460006101000a81548173ffffffffffffffffffffffffffffffffffffffff021916908373ffffffffffffffffffffffffffffffffffffffff1602179055505b7f1c73b0ec6aabb0e49a3005f5ff668188d68c7c2c5fabe4686ec117562b518281601460009054906101000a900473ffffffffffffffffffffffffffffffffffffffff16610c8d60055461115f565b604051610c9b929190612f41565b60405180910390a1565b6000610cf2600360008473ffffffffffffffffffffffffffffffffffffffff1673ffffffffffffffffffffffffffffffffffffffff1681526020019081526020016000206000015461115f565b63ffffffff169050919050565b600080600073ffffffffffffffffffffffffffffffffffffffff16601460009054906101000a900473ffffffffffffffffffffffffffffffffffffffff1673ffffffffffffffffffffffffffffffffffffffff1603610d93576040517f08c379a0000000000000000000000000000000000000000000000000000000008152600401610d8a90612b90565b60405180910390fd5b610d9e60055461115f565b601460009054906101000a900473ffffffffffffffffffffffffffffffffffffffff168163ffffffff169150915091509091565b601460009054906101000a900473ffffffffffffffffffffffffffffffffffffffff1681565b600260009054906101000a900473ffffffffffffffffffffffffffffffffffffffff1673ffffffffffffffffffffffffffffffffffffffff163373ffffffffffffffffffffffffffffffffffffffff1614610e88576040517f08c379a0000000000000000000000000000000000000000000000000000000008152600401610e7f90612f02565b60405180910390fd5b601154421015610ecd576040517f08c379a0000000000000000000000000000000000000000000000000000000008152600401610ec490612fb6565b60405180910390fd5b600073ffffffffffffffffffffffffffffffffffffffff16601460009054906101000a900473ffffffffffffffffffffffffffffffffffffffff1673ffffffffffffffffffffffffffffffffffffffff1614610f5e576040517f08c379a0000000000000000000000000000000000000000000000000000000008152600401610f5590612d4e565b60405180910390fd5b610fb8600b60405180602001604052908160008201600580602002604051908101604052809291908260058015610faa576020028201915b815481526020019060010190808311610f96575b50505050508152505061174b565b601460006101000a81548173ffffffffffffffffffffffffffffffffffffffff021916908373ffffffffffffffffffffffffffffffffffffffff160217905550600073ffffffffffffffffffffffffffffffffffffffff16601460009054906101000a900473ffffffffffffffffffffffffffffffffffffffff1673ffffffffffffffffffffffffffffffffffffffff16036110b257601360009054906101000a900473ffffffffffffffffffffffffffffffffffffffff16601460006101000a81548173ffffffffffffffffffffffffffffffffffffffff021916908373ffffffffffffffffffffffffffffffffffffffff1602179055505b7f1c73b0ec6aabb0e49a3005f5ff668188d68c7c2c5fabe4686ec117562b518281601460009054906101000a900473ffffffffffffffffffffffffffffffffffffffff1661110160055461115f565b60405161110f929190612f41565b60405180910390a1565b600061112c61112661185a565b83611911565b9050919050565b6000806000806111438686611952565b92509250925061115382826119ae565b82935050505092915050565b600061116a82611b12565b61117b576111786000611b1f565b91505b6000829050600061118b82611b33565b90506000608073ffffffffffffffffffffffffffffffffffffffff166373cc01546002846040518363ffffffff1660e01b81526004016111cc929190613047565b602060405180830381865afa1580156111e9573d6000803e3d6000fd5b505050506040513d601f19601f8201168201806040525081019061120d91906130a3565b905061121881611b90565b9350505050919050565b606061125860007f0000000000000000000000000000000000000000000000000000000000000000611b9a90919063ffffffff16565b905090565b606061129360017f0000000000000000000000000000000000000000000000000000000000000000611b9a90919063ffffffff16565b905090565b60006112e5600360008573ffffffffffffffffffffffffffffffffffffffff1673ffffffffffffffffffffffffffffffffffffffff16815260200190815260200160002060000154611b12565b6113c4576112f1612416565b82816000018181525050600081602001901515908115158152505080600360008673ffffffffffffffffffffffffffffffffffffffff1673ffffffffffffffffffffffffffffffffffffffff1681526020019081526020016000206000820151816000015560208201518160010160006101000a81548160ff021916908315150217905550905050600360008573ffffffffffffffffffffffffffffffffffffffff1673ffffffffffffffffffffffffffffffffffffffff16815260200190815260200160002060000154915050611513565b6000611426600360008673ffffffffffffffffffffffffffffffffffffffff1673ffffffffffffffffffffffffffffffffffffffff1681526020019081526020016000206000015461141860105486611c4a565b611c5e90919063ffffffff16565b905060006114378260045486611c72565b9050611485600360008773ffffffffffffffffffffffffffffffffffffffff1673ffffffffffffffffffffffffffffffffffffffff1681526020019081526020016000206000015482611cf0565b600360008773ffffffffffffffffffffffffffffffffffffffff1673ffffffffffffffffffffffffffffffffffffffff16815260200190815260200160002060000181905550600360008673ffffffffffffffffffffffffffffffffffffffff1673ffffffffffffffffffffffffffffffffffffffff16815260200190815260200160002060000154925050505b92915050565b600061152483611b12565b611535576115326000611b1f565b92505b61153e82611b12565b61154f5761154c6000611b1f565b91505b60008390506000839050600061158460028484608073ffffffffffffffffffffffffffffffffffffffff16630b80518e611d04565b905080935050505092915050565b61159a612432565b6000829050600073ffffffff0000000000000000000000000000000090506115c0612432565b60005b60058110156116985760006020826115db91906130ff565b905060008173ffffffffffffffffffffffffffffffffffffffff168573ffffffffffffffffffffffffffffffffffffffff16901c905060008260806116209190613141565b73ffffffffffffffffffffffffffffffffffffffff1682881673ffffffffffffffffffffffffffffffffffffffff16901c90506116628163ffffffff16611b1f565b8560000151856005811061167957611678613189565b5b6020020181815250505050508080611690906131b8565b9150506115c3565b50809350505050919050565b60006116b08383611d98565b905092915050565b6116c0612432565b60005b60058110156117405761170d85846000015183600581106116e7576116e6613189565b5b60200201518660000151846005811061170357611702613189565b5b6020020151611c72565b8460000151826005811061172457611723613189565b5b6020020181815250508080611738906131b8565b9150506116c3565b508290509392505050565b60008060005b60058110156117ed576000602082600461176b9190613200565b61177591906130ff565b9050600061179d8660000151846005811061179357611792613189565b5b602002015161115f565b905060008263ffffffff168263ffffffff1673ffffffffffffffffffffffffffffffffffffffff16901b905080856117d59190613234565b945050505080806117e5906131b8565b915050611751565b506000602067ffffffffffffffff81111561180b5761180a612512565b5b6040519080825280601f01601f19166020018201604052801561183d5781602001600182028036833780820191505090505b50905081602082015261185181600c611e11565b92505050919050565b60007f000000000000000000000000000000000000000000000000000000000000000073ffffffffffffffffffffffffffffffffffffffff163073ffffffffffffffffffffffffffffffffffffffff161480156118d657507f000000000000000000000000000000000000000000000000000000000000000046145b15611903577f0000000000000000000000000000000000000000000000000000000000000000905061190e565b61190b611e87565b90505b90565b60006040517f190100000000000000000000000000000000000000000000000000000000000081528360028201528260228201526042812091505092915050565b600080600060418451036119975760008060006020870151925060408701519150606087015160001a905061198988828585611f1d565b9550955095505050506119a7565b60006002855160001b9250925092505b9250925092565b600060038111156119c2576119c161327c565b5b8260038111156119d5576119d461327c565b5b0315611b0e57600160038111156119ef576119ee61327c565b5b826003811115611a0257611a0161327c565b5b03611a39576040517ff645eedf00000000000000000000000000000000000000000000000000000000815260040160405180910390fd5b60026003811115611a4d57611a4c61327c565b5b826003811115611a6057611a5f61327c565b5b03611aa5578060001c6040517ffce698f7000000000000000000000000000000000000000000000000000000008152600401611a9c9190612763565b60405180910390fd5b600380811115611ab857611ab761327c565b5b826003811115611acb57611aca61327c565b5b03611b0d57806040517fd78bce0c000000000000000000000000000000000000000000000000000000008152600401611b0491906132ab565b60405180910390fd5b5b5050565b6000808214159050919050565b6000611b2c826002612011565b9050919050565b6060602067ffffffffffffffff811115611b5057611b4f612512565b5b6040519080825280601f01601f191660200182016040528015611b825781602001600182028036833780820191505090505b509050816020820152919050565b6000819050919050565b606060ff60001b8314611bb757611bb0836120b3565b9050611c44565b818054611bc3906132f5565b80601f0160208091040260200160405190810160405280929190818152602001828054611bef906132f5565b8015611c3c5780601f10611c1157610100808354040283529160200191611c3c565b820191906000526020600020905b815481529060010190602001808311611c1f57829003601f168201915b505050505090505b92915050565b6000611c568383612127565b905092915050565b6000611c6a83836121a0565b905092915050565b6000611c7d84612219565b611c8e57611c8b6000612226565b93505b611c9783611b12565b611ca857611ca56000611b1f565b92505b611cb182611b12565b611cc257611cbf6000611b1f565b91505b6000849050600084905060008490506000611ce0600285858561223a565b9050809450505050509392505050565b6000611cfc83836122f2565b905092915050565b60006060838388611d1489611b33565b611d1d89611b33565b6040518463ffffffff1660e01b8152600401611d3b93929190613326565b600060405180830381865afa158015611d58573d6000803e3d6000fd5b505050506040513d6000823e3d601f19601f82011682018060405250810190611d8191906133db565b9050611d8c8161236a565b91505095945050505050565b6000611da383611b12565b611db457611db16000611b1f565b92505b611dbd82611b12565b611dce57611dcb6000611b1f565b91505b600083905060008390506000611e0360028484608073ffffffffffffffffffffffffffffffffffffffff1663874b1c10611d04565b905080935050505092915050565b6000601482611e209190613424565b83511015611e63576040517f08c379a0000000000000000000000000000000000000000000000000000000008152600401611e5a906134a4565b60405180910390fd5b60006c01000000000000000000000000836020860101510490508091505092915050565b60007f8b73c3c69bb8fe3d512ecc4cf759cc79239f7b179b0ffacaa9a75d522b39400f7f00000000000000000000000000000000000000000000000000000000000000007f00000000000000000000000000000000000000000000000000000000000000004630604051602001611f029594939291906134c4565b60405160208183030381529060405280519060200120905090565b60008060007f7fffffffffffffffffffffffffffffff5d576e7357a4501ddfe92f46681b20a08460001c1115611f5d576000600385925092509250612007565b600060018888888860405160008152602001604052604051611f829493929190613517565b6020604051602081039080840390855afa158015611fa4573d6000803e3d6000fd5b505050602060405103519050600073ffffffffffffffffffffffffffffffffffffffff168173ffffffffffffffffffffffffffffffffffffffff1603611ff857600060016000801b93509350935050612007565b8060008060001b935093509350505b9450945094915050565b60006060608073ffffffffffffffffffffffffffffffffffffffff166319e1c5c461203b86611b33565b856040518363ffffffff1660e01b815260040161205992919061355c565b600060405180830381865afa158015612076573d6000803e3d6000fd5b505050506040513d6000823e3d601f19601f8201168201806040525081019061209f91906133db565b90506120aa81612378565b91505092915050565b606060006120c083612386565b90506000602067ffffffffffffffff8111156120df576120de612512565b5b6040519080825280601f01601f1916602001820160405280156121115781602001600182028036833780820191505090505b5090508181528360208201528092505050919050565b600061213283611b12565b612143576121406000611b1f565b92505b61214c82611b12565b61215d5761215a6000611b1f565b91505b60008390506000839050600061219260028484608073ffffffffffffffffffffffffffffffffffffffff1663cc2cbeff611d04565b905080935050505092915050565b60006121ab83611b12565b6121bc576121b96000611b1f565b92505b6121c582611b12565b6121d6576121d36000611b1f565b91505b60008390506000839050600061220b60028484608073ffffffffffffffffffffffffffffffffffffffff1663b9c7a54b611d04565b905080935050505092915050565b6000808214159050919050565b600061223382600d612011565b9050919050565b60006060608073ffffffffffffffffffffffffffffffffffffffff1663c2d969528761226588611b33565b61226e88611b33565b61227788611b33565b6040518563ffffffff1660e01b8152600401612296949392919061358c565b600060405180830381865afa1580156122b3573d6000803e3d6000fd5b505050506040513d6000823e3d601f19601f820116820180604052508101906122dc91906133db565b90506122e781612378565b915050949350505050565b60006122fd83611b12565b61230e5761230b6000611b1f565b92505b61231782611b12565b612328576123256000611b1f565b91505b60008390506000839050600061235c60028484608073ffffffffffffffffffffffffffffffffffffffff16622df619611d04565b905080935050505092915050565b600060208201519050919050565b600060208201519050919050565b60008060ff8360001c169050601f8111156123cd576040517fb3512b0c00000000000000000000000000000000000000000000000000000000815260040160405180910390fd5b80915050919050565b8260058101928215612405579160200282015b828111156124045782518255916020019190600101906123e9565b5b509050612412919061244b565b5090565b6040518060400160405280600081526020016000151581525090565b6040518060200160405280612445612468565b81525090565b5b8082111561246457600081600090555060010161244c565b5090565b6040518060a00160405280600590602082028036833780820191505090505090565b6000604051905090565b600080fd5b600080fd5b600073ffffffffffffffffffffffffffffffffffffffff82169050919050565b60006124c98261249e565b9050919050565b6124d9816124be565b81146124e457600080fd5b50565b6000813590506124f6816124d0565b92915050565b600080fd5b6000601f19601f8301169050919050565b7f4e487b7100000000000000000000000000000000000000000000000000000000600052604160045260246000fd5b61254a82612501565b810181811067ffffffffffffffff8211171561256957612568612512565b5b80604052505050565b600061257c61248a565b90506125888282612541565b919050565b600080fd5b6000819050919050565b6125a581612592565b81146125b057600080fd5b50565b6000813590506125c28161259c565b92915050565b600080fd5b600080fd5b600067ffffffffffffffff8211156125ed576125ec612512565b5b6125f682612501565b9050602081019050919050565b82818337600083830152505050565b6000612625612620846125d2565b612572565b905082815260208101848484011115612641576126406125cd565b5b61264c848285612603565b509392505050565b600082601f830112612669576126686125c8565b5b8135612679848260208601612612565b91505092915050565b600060408284031215612698576126976124fc565b5b6126a26040612572565b905060006126b2848285016125b3565b600083015250602082013567ffffffffffffffff8111156126d6576126d561258d565b5b6126e284828501612654565b60208301525092915050565b6000806040838503121561270557612704612494565b5b6000612713858286016124e7565b925050602083013567ffffffffffffffff81111561273457612733612499565b5b61274085828601612682565b9150509250929050565b6000819050919050565b61275d8161274a565b82525050565b60006020820190506127786000830184612754565b92915050565b60006127898261249e565b9050919050565b6127998161277e565b82525050565b60006020820190506127b46000830184612790565b92915050565b60007fff0000000000000000000000000000000000000000000000000000000000000082169050919050565b6127ef816127ba565b82525050565b600081519050919050565b600082825260208201905092915050565b60005b8381101561282f578082015181840152602081019050612814565b60008484015250505050565b6000612846826127f5565b6128508185612800565b9350612860818560208601612811565b61286981612501565b840191505092915050565b61287d816124be565b82525050565b61288c81612592565b82525050565b600081519050919050565b600082825260208201905092915050565b6000819050602082019050919050565b6128c78161274a565b82525050565b60006128d983836128be565b60208301905092915050565b6000602082019050919050565b60006128fd82612892565b612907818561289d565b9350612912836128ae565b8060005b8381101561294357815161292a88826128cd565b9750612935836128e5565b925050600181019050612916565b5085935050505092915050565b600060e082019050612965600083018a6127e6565b8181036020830152612977818961283b565b9050818103604083015261298b818861283b565b905061299a6060830187612754565b6129a76080830186612874565b6129b460a0830185612883565b81810360c08301526129c681846128f2565b905098975050505050505050565b60006020820190506129e96000830184612874565b92915050565b600080fd5b600060208284031215612a0a57612a096129ef565b5b81905092915050565b600060208284031215612a2957612a28612494565b5b600082013567ffffffffffffffff811115612a4757612a46612499565b5b612a53848285016129f4565b91505092915050565b600060208284031215612a7257612a71612494565b5b6000612a80848285016124e7565b91505092915050565b6000604082019050612a9e6000830185612754565b612aab6020830184612874565b9392505050565b7f57696e6e65722063616e6e6f7420706572666f726d207468697320616374696f60008201527f6e00000000000000000000000000000000000000000000000000000000000000602082015250565b6000612b0e602183612800565b9150612b1982612ab2565b604082019050919050565b60006020820190508181036000830152612b3d81612b01565b9050919050565b7f41756374696f6e20616c726561647920656e6465640000000000000000000000600082015250565b6000612b7a601583612800565b9150612b8582612b44565b602082019050919050565b60006020820190508181036000830152612ba981612b6d565b9050919050565b7f416c726561647920726566756e64656400000000000000000000000000000000600082015250565b6000612be6601083612800565b9150612bf182612bb0565b602082019050919050565b60006020820190508181036000830152612c1581612bd9565b9050919050565b6000819050919050565b6000612c41612c3c612c378461274a565b612c1c565b61274a565b9050919050565b612c5181612c26565b82525050565b6000604082019050612c6c6000830185612874565b612c796020830184612c48565b9392505050565b612c898161274a565b8114612c9457600080fd5b50565b600081519050612ca681612c80565b92915050565b600060208284031215612cc257612cc1612494565b5b6000612cd084828501612c97565b91505092915050565b6000604082019050612cee6000830185612883565b612cfb6020830184612883565b9392505050565b7f41756374696f6e206e6f7420656e646564000000000000000000000000000000600082015250565b6000612d38601183612800565b9150612d4382612d02565b602082019050919050565b60006020820190508181036000830152612d6781612d2b565b9050919050565b600080fd5b600080fd5b600080fd5b60008083356001602003843603038112612d9a57612d99612d78565b5b83810192508235915060208301925067ffffffffffffffff821115612dc257612dc1612d6e565b5b600182023603831315612dd857612dd7612d73565b5b509250929050565b600082825260208201905092915050565b6000612dfd8385612de0565b9350612e0a838584612603565b612e1383612501565b840190509392505050565b600060208301612e316000840184612d7d565b8583036000870152612e44838284612df1565b925050508091505092915050565b6000606082019050612e676000830186612874565b612e746020830185612874565b8181036040830152612e868184612e1e565b9050949350505050565b7f4f6e6c792061756374696f6e6565722063616e20706572666f726d207468697360008201527f20616374696f6e00000000000000000000000000000000000000000000000000602082015250565b6000612eec602783612800565b9150612ef782612e90565b604082019050919050565b60006020820190508181036000830152612f1b81612edf565b9050919050565b600063ffffffff82169050919050565b612f3b81612f22565b82525050565b6000604082019050612f566000830185612874565b612f636020830184612f32565b9392505050565b7f41756374696f6e206f6e676f696e670000000000000000000000000000000000600082015250565b6000612fa0600f83612800565b9150612fab82612f6a565b602082019050919050565b60006020820190508181036000830152612fcf81612f93565b9050919050565b600060ff82169050919050565b612fec81612fd6565b82525050565b600081519050919050565b600082825260208201905092915050565b600061301982612ff2565b6130238185612ffd565b9350613033818560208601612811565b61303c81612501565b840191505092915050565b600060408201905061305c6000830185612fe3565b818103602083015261306e818461300e565b90509392505050565b6130808161274a565b811461308b57600080fd5b50565b60008151905061309d81613077565b92915050565b6000602082840312156130b9576130b8612494565b5b60006130c78482850161308e565b91505092915050565b7f4e487b7100000000000000000000000000000000000000000000000000000000600052601160045260246000fd5b600061310a8261274a565b91506131158361274a565b92508282026131238161274a565b9150828204841483151761313a576131396130d0565b5b5092915050565b600061314c8261249e565b91506131578361249e565b9250828203905073ffffffffffffffffffffffffffffffffffffffff811115613183576131826130d0565b5b92915050565b7f4e487b7100000000000000000000000000000000000000000000000000000000600052603260045260246000fd5b60006131c38261274a565b91507fffffffffffffffffffffffffffffffffffffffffffffffffffffffffffffffff82036131f5576131f46130d0565b5b600182019050919050565b600061320b8261274a565b91506132168361274a565b925082820390508181111561322e5761322d6130d0565b5b92915050565b600061323f8261249e565b915061324a8361249e565b9250828201905073ffffffffffffffffffffffffffffffffffffffff811115613276576132756130d0565b5b92915050565b7f4e487b7100000000000000000000000000000000000000000000000000000000600052602160045260246000fd5b60006020820190506132c06000830184612883565b92915050565b7f4e487b7100000000000000000000000000000000000000000000000000000000600052602260045260246000fd5b6000600282049050600182168061330d57607f821691505b6020821081036133205761331f6132c6565b5b50919050565b600060608201905061333b6000830186612fe3565b818103602083015261334d818561300e565b90508181036040830152613361818461300e565b9050949350505050565b600061337e613379846125d2565b612572565b90508281526020810184848401111561339a576133996125cd565b5b6133a5848285612811565b509392505050565b600082601f8301126133c2576133c16125c8565b5b81516133d284826020860161336b565b91505092915050565b6000602082840312156133f1576133f0612494565b5b600082015167ffffffffffffffff81111561340f5761340e612499565b5b61341b848285016133ad565b91505092915050565b600061342f8261274a565b915061343a8361274a565b9250828201905080821115613452576134516130d0565b5b92915050565b7f746f416464726573735f6f75744f66426f756e64730000000000000000000000600082015250565b600061348e601583612800565b915061349982613458565b602082019050919050565b600060208201905081810360008301526134bd81613481565b9050919050565b600060a0820190506134d96000830188612883565b6134e66020830187612883565b6134f36040830186612883565b6135006060830185612754565b61350d6080830184612874565b9695505050505050565b600060808201905061352c6000830187612883565b6135396020830186612fe3565b6135466040830185612883565b6135536060830184612883565b95945050505050565b60006040820190508181036000830152613576818561300e565b90506135856020830184612fe3565b9392505050565b60006080820190506135a16000830187612fe3565b81810360208301526135b3818661300e565b905081810360408301526135c7818561300e565b905081810360608301526135db818461300e565b90509594505050505056fea2646970667358221220663929e53ae4a4187f7dd1a79896452b7a26d59645d220138ea39717735a652164736f6c63430008140033",
  "linkReferences": {},
  "deployedLinkReferences": {}
}