{
  "_format": "hh-sol-artifact-1",
  "contractName": "Auction",
  "sourceName": "contracts/Auction.sol",
  "abi": [
    {
      "inputs": [
        {
          "internalType": "address",
          "name": "wfhenix",
          "type": "address"
        },
        {
          "internalType": "uint256",
          "name": "biddingTime",
          "type": "uint256"
        }
      ],
      "stateMutability": "payable",
      "type": "constructor"
    },
    {
      "anonymous": false,
      "inputs": [
        {
          "indexed": false,
          "internalType": "address",
          "name": "winner",
          "type": "address"
        },
        {
          "indexed": false,
          "internalType": "uint32",
          "name": "bid",
          "type": "uint32"
        }
      ],
      "name": "AuctionEnded",
      "type": "event"
    },
    {
      "inputs": [],
      "name": "auctionEndTime",
      "outputs": [
        {
          "internalType": "uint256",
          "name": "",
          "type": "uint256"
        }
      ],
      "stateMutability": "view",
      "type": "function"
    },
    {
      "inputs": [],
      "name": "auctioneer",
      "outputs": [
        {
          "internalType": "address payable",
          "name": "",
          "type": "address"
        }
      ],
      "stateMutability": "view",
      "type": "function"
    },
    {
      "inputs": [
        {
          "components": [
            {
              "internalType": "bytes",
              "name": "data",
              "type": "bytes"
            }
          ],
          "internalType": "struct inEuint32",
          "name": "amount",
          "type": "tuple"
        }
      ],
      "name": "bid",
      "outputs": [],
      "stateMutability": "nonpayable",
      "type": "function"
    },
    {
      "inputs": [],
      "name": "debugEndAuction",
      "outputs": [],
      "stateMutability": "nonpayable",
      "type": "function"
    },
    {
      "inputs": [],
      "name": "endAuction",
      "outputs": [],
      "stateMutability": "nonpayable",
      "type": "function"
    },
    {
      "inputs": [],
      "name": "getWinner",
      "outputs": [
        {
          "internalType": "address",
          "name": "",
          "type": "address"
        }
      ],
      "stateMutability": "view",
      "type": "function"
    },
    {
      "inputs": [],
      "name": "getWinningBid",
      "outputs": [
        {
          "internalType": "uint256",
          "name": "",
          "type": "uint256"
        }
      ],
      "stateMutability": "view",
      "type": "function"
    },
    {
      "inputs": [],
      "name": "redeemFunds",
      "outputs": [],
      "stateMutability": "nonpayable",
      "type": "function"
    },
    {
      "inputs": [],
      "name": "winnerAddress",
      "outputs": [
        {
          "internalType": "address",
          "name": "",
          "type": "address"
        }
      ],
      "stateMutability": "view",
      "type": "function"
    }
  ],
  "bytecode": "0x608060405260405162002ca438038062002ca4833981810160405281019062000029919062000360565b81601060006101000a81548173ffffffffffffffffffffffffffffffffffffffff021916908373ffffffffffffffffffffffffffffffffffffffff160217905550336000806101000a81548173ffffffffffffffffffffffffffffffffffffffff021916908373ffffffffffffffffffffffffffffffffffffffff1602179055508042620000b89190620003d6565b600f81905550620000d060006200016a60201b60201c565b60028190555060025460038190555060005b600581101562000146576002546004600001826005811062000109576200010862000411565b5b0181905550600254600960000182600581106200012b576200012a62000411565b5b018190555080806200013d9062000440565b915050620000e2565b506200015c63ffffffff6200016a60201b60201c565b600e8190555050506200070c565b60006200017f8260026200018660201b60201c565b9050919050565b60006060608073ffffffffffffffffffffffffffffffffffffffff166319e1c5c4620001b8866200023d60201b60201c565b856040518363ffffffff1660e01b8152600401620001d892919062000545565b600060405180830381865afa158015620001f6573d6000803e3d6000fd5b505050506040513d6000823e3d601f19601f82011682018060405250810190620002219190620006bb565b905062000234816200029e60201b60201c565b91505092915050565b6060602067ffffffffffffffff8111156200025d576200025c62000583565b5b6040519080825280601f01601f191660200182016040528015620002905781602001600182028036833780820191505090505b509050816020820152919050565b600060208201519050919050565b6000604051905090565b600080fd5b600080fd5b600073ffffffffffffffffffffffffffffffffffffffff82169050919050565b6000620002ed82620002c0565b9050919050565b620002ff81620002e0565b81146200030b57600080fd5b50565b6000815190506200031f81620002f4565b92915050565b6000819050919050565b6200033a8162000325565b81146200034657600080fd5b50565b6000815190506200035a816200032f565b92915050565b600080604083850312156200037a5762000379620002b6565b5b60006200038a858286016200030e565b92505060206200039d8582860162000349565b9150509250929050565b7f4e487b7100000000000000000000000000000000000000000000000000000000600052601160045260246000fd5b6000620003e38262000325565b9150620003f08362000325565b92508282019050808211156200040b576200040a620003a7565b5b92915050565b7f4e487b7100000000000000000000000000000000000000000000000000000000600052603260045260246000fd5b60006200044d8262000325565b91507fffffffffffffffffffffffffffffffffffffffffffffffffffffffffffffffff8203620004825762000481620003a7565b5b600182019050919050565b600081519050919050565b600082825260208201905092915050565b60005b83811015620004c9578082015181840152602081019050620004ac565b60008484015250505050565b6000601f19601f8301169050919050565b6000620004f3826200048d565b620004ff818562000498565b935062000511818560208601620004a9565b6200051c81620004d5565b840191505092915050565b600060ff82169050919050565b6200053f8162000527565b82525050565b60006040820190508181036000830152620005618185620004e6565b905062000572602083018462000534565b9392505050565b600080fd5b600080fd5b7f4e487b7100000000000000000000000000000000000000000000000000000000600052604160045260246000fd5b620005bd82620004d5565b810181811067ffffffffffffffff82111715620005df57620005de62000583565b5b80604052505050565b6000620005f4620002ac565b9050620006028282620005b2565b919050565b600067ffffffffffffffff82111562000625576200062462000583565b5b6200063082620004d5565b9050602081019050919050565b6000620006546200064e8462000607565b620005e8565b9050828152602081018484840111156200067357620006726200057e565b5b62000680848285620004a9565b509392505050565b600082601f830112620006a0576200069f62000579565b5b8151620006b28482602086016200063d565b91505092915050565b600060208284031215620006d457620006d3620002b6565b5b600082015167ffffffffffffffff811115620006f557620006f4620002bb565b5b620007038482850162000688565b91505092915050565b612588806200071c6000396000f3fe608060405234801561001057600080fd5b50600436106100935760003560e01c80639242e202116100665780639242e202146100fc57806394ce0e2014610118578063e6cd064b14610122578063ed7a4e0b14610140578063fe67a54b1461015e57610093565b8063216355ec146100985780634b449cba146100a25780635ec2c7bf146100c05780638e7ea5b2146100de575b600080fd5b6100a0610168565b005b6100aa61045e565b6040516100b791906119b0565b60405180910390f35b6100c8610464565b6040516100d59190611a0c565b60405180910390f35b6100e6610488565b6040516100f39190611a48565b60405180910390f35b61011660048036038101906101119190611a9b565b610542565b005b610120610745565b005b61012a610965565b60405161013791906119b0565b60405180910390f35b610148610a0d565b6040516101559190611a48565b60405180910390f35b610166610a33565b005b601160009054906101000a900473ffffffffffffffffffffffffffffffffffffffff1673ffffffffffffffffffffffffffffffffffffffff163373ffffffffffffffffffffffffffffffffffffffff16036101f8576040517f08c379a00000000000000000000000000000000000000000000000000000000081526004016101ef90611b67565b60405180910390fd5b600073ffffffffffffffffffffffffffffffffffffffff16601160009054906101000a900473ffffffffffffffffffffffffffffffffffffffff1673ffffffffffffffffffffffffffffffffffffffff1603610289576040517f08c379a000000000000000000000000000000000000000000000000000000000815260040161028090611bd3565b60405180910390fd5b600160003373ffffffffffffffffffffffffffffffffffffffff1673ffffffffffffffffffffffffffffffffffffffff16815260200190815260200160002060010160009054906101000a900460ff1615610319576040517f08c379a000000000000000000000000000000000000000000000000000000000815260040161031090611c3f565b60405180910390fd5b6000600160003373ffffffffffffffffffffffffffffffffffffffff1673ffffffffffffffffffffffffffffffffffffffff16815260200190815260200160002060000154905060018060003373ffffffffffffffffffffffffffffffffffffffff1673ffffffffffffffffffffffffffffffffffffffff16815260200190815260200160002060010160006101000a81548160ff021916908315150217905550601060009054906101000a900473ffffffffffffffffffffffffffffffffffffffff1673ffffffffffffffffffffffffffffffffffffffff1663c4224c1933836040518363ffffffff1660e01b8152600401610417929190611c9a565b6020604051808303816000875af1158015610436573d6000803e3d6000fd5b505050506040513d601f19601f8201168201806040525081019061045a9190611cef565b5050565b600f5481565b60008054906101000a900473ffffffffffffffffffffffffffffffffffffffff1681565b60008073ffffffffffffffffffffffffffffffffffffffff16601160009054906101000a900473ffffffffffffffffffffffffffffffffffffffff1673ffffffffffffffffffffffffffffffffffffffff160361051a576040517f08c379a000000000000000000000000000000000000000000000000000000000815260040161051190611bd3565b60405180910390fd5b601160009054906101000a900473ffffffffffffffffffffffffffffffffffffffff16905090565b600073ffffffffffffffffffffffffffffffffffffffff16601160009054906101000a900473ffffffffffffffffffffffffffffffffffffffff1673ffffffffffffffffffffffffffffffffffffffff16146105d3576040517f08c379a00000000000000000000000000000000000000000000000000000000081526004016105ca90611bd3565b60405180910390fd5b6000601060009054906101000a900473ffffffffffffffffffffffffffffffffffffffff1673ffffffffffffffffffffffffffffffffffffffff16638624a3493330856040518463ffffffff1660e01b815260040161063493929190611e20565b6020604051808303816000875af1158015610653573d6000803e3d6000fd5b505050506040513d601f19601f820116820180604052508101906106779190611cef565b905060006106853383610c98565b9050600061069582600354610f19565b905060006106a233610f92565b905060006106bb600354846110a490919063ffffffff16565b90506107198160096040518060200160405290816000820160058060200260405190810160405280929190826005801561070a576020028201915b8154815260200190600101908083116106f6575b505050505081525050846110b8565b60096000820151816000019060056107329291906118e3565b5090505082600381905550505050505050565b60008054906101000a900473ffffffffffffffffffffffffffffffffffffffff1673ffffffffffffffffffffffffffffffffffffffff163373ffffffffffffffffffffffffffffffffffffffff16146107d3576040517f08c379a00000000000000000000000000000000000000000000000000000000081526004016107ca90611ed0565b60405180910390fd5b600073ffffffffffffffffffffffffffffffffffffffff16601160009054906101000a900473ffffffffffffffffffffffffffffffffffffffff1673ffffffffffffffffffffffffffffffffffffffff1614610864576040517f08c379a000000000000000000000000000000000000000000000000000000000815260040161085b90611bd3565b60405180910390fd5b6108be6009604051806020016040529081600082016005806020026040519081016040528092919082600580156108b0576020028201915b81548152602001906001019080831161089c575b50505050508152505061114b565b601160006101000a81548173ffffffffffffffffffffffffffffffffffffffff021916908373ffffffffffffffffffffffffffffffffffffffff1602179055507f1c73b0ec6aabb0e49a3005f5ff668188d68c7c2c5fabe4686ec117562b518281601160009054906101000a900473ffffffffffffffffffffffffffffffffffffffff1661094d60035461125a565b60405161095b929190611f0f565b60405180910390a1565b60008073ffffffffffffffffffffffffffffffffffffffff16601160009054906101000a900473ffffffffffffffffffffffffffffffffffffffff1673ffffffffffffffffffffffffffffffffffffffff16036109f7576040517f08c379a00000000000000000000000000000000000000000000000000000000081526004016109ee90611bd3565b60405180910390fd5b610a0260035461125a565b63ffffffff16905090565b601160009054906101000a900473ffffffffffffffffffffffffffffffffffffffff1681565b60008054906101000a900473ffffffffffffffffffffffffffffffffffffffff1673ffffffffffffffffffffffffffffffffffffffff163373ffffffffffffffffffffffffffffffffffffffff1614610ac1576040517f08c379a0000000000000000000000000000000000000000000000000000000008152600401610ab890611ed0565b60405180910390fd5b600f54421015610b06576040517f08c379a0000000000000000000000000000000000000000000000000000000008152600401610afd90611f84565b60405180910390fd5b600073ffffffffffffffffffffffffffffffffffffffff16601160009054906101000a900473ffffffffffffffffffffffffffffffffffffffff1673ffffffffffffffffffffffffffffffffffffffff1614610b97576040517f08c379a0000000000000000000000000000000000000000000000000000000008152600401610b8e90611bd3565b60405180910390fd5b610bf1600960405180602001604052908160008201600580602002604051908101604052809291908260058015610be3576020028201915b815481526020019060010190808311610bcf575b50505050508152505061114b565b601160006101000a81548173ffffffffffffffffffffffffffffffffffffffff021916908373ffffffffffffffffffffffffffffffffffffffff1602179055507f1c73b0ec6aabb0e49a3005f5ff668188d68c7c2c5fabe4686ec117562b518281601160009054906101000a900473ffffffffffffffffffffffffffffffffffffffff16610c8060035461125a565b604051610c8e929190611f0f565b60405180910390a1565b6000610ce5600160008573ffffffffffffffffffffffffffffffffffffffff1673ffffffffffffffffffffffffffffffffffffffff1681526020019081526020016000206000015461131d565b610dc457610cf1611923565b82816000018181525050600081602001901515908115158152505080600160008673ffffffffffffffffffffffffffffffffffffffff1673ffffffffffffffffffffffffffffffffffffffff1681526020019081526020016000206000820151816000015560208201518160010160006101000a81548160ff021916908315150217905550905050600160008573ffffffffffffffffffffffffffffffffffffffff1673ffffffffffffffffffffffffffffffffffffffff16815260200190815260200160002060000154915050610f13565b6000610e26600160008673ffffffffffffffffffffffffffffffffffffffff1673ffffffffffffffffffffffffffffffffffffffff16815260200190815260200160002060000154610e18600e548661132a565b61133e90919063ffffffff16565b90506000610e378260025486611352565b9050610e85600160008773ffffffffffffffffffffffffffffffffffffffff1673ffffffffffffffffffffffffffffffffffffffff16815260200190815260200160002060000154826113d0565b600160008773ffffffffffffffffffffffffffffffffffffffff1673ffffffffffffffffffffffffffffffffffffffff16815260200190815260200160002060000181905550600160008673ffffffffffffffffffffffffffffffffffffffff1673ffffffffffffffffffffffffffffffffffffffff16815260200190815260200160002060000154925050505b92915050565b6000610f248361131d565b610f3557610f3260006113e4565b92505b610f3e8261131d565b610f4f57610f4c60006113e4565b91505b600083905060008390506000610f8460028484608073ffffffffffffffffffffffffffffffffffffffff16630b80518e6113f8565b905080935050505092915050565b610f9a61193f565b6000829050600073ffffffff000000000000000000000000000000009050610fc061193f565b60005b6005811015611098576000602082610fdb9190611fd3565b905060008173ffffffffffffffffffffffffffffffffffffffff168573ffffffffffffffffffffffffffffffffffffffff16901c905060008260806110209190612015565b73ffffffffffffffffffffffffffffffffffffffff1682881673ffffffffffffffffffffffffffffffffffffffff16901c90506110628163ffffffff166113e4565b856000015185600581106110795761107861205d565b5b60200201818152505050505080806110909061208c565b915050610fc3565b50809350505050919050565b60006110b0838361148c565b905092915050565b6110c061193f565b60005b60058110156111405761110d85846000015183600581106110e7576110e661205d565b5b6020020151866000015184600581106111035761110261205d565b5b6020020151611352565b846000015182600581106111245761112361205d565b5b60200201818152505080806111389061208c565b9150506110c3565b508290509392505050565b60008060005b60058110156111ed576000602082600461116b91906120d4565b6111759190611fd3565b9050600061119d866000015184600581106111935761119261205d565b5b602002015161125a565b905060008263ffffffff168263ffffffff1673ffffffffffffffffffffffffffffffffffffffff16901b905080856111d59190612108565b945050505080806111e59061208c565b915050611151565b506000602067ffffffffffffffff81111561120b5761120a612150565b5b6040519080825280601f01601f19166020018201604052801561123d5781602001600182028036833780820191505090505b50905081602082015261125181600c611505565b92505050919050565b60006112658261131d565b6112765761127360006113e4565b91505b600082905060006112868261157b565b90506000608073ffffffffffffffffffffffffffffffffffffffff166373cc01546002846040518363ffffffff1660e01b81526004016112c792919061221a565b602060405180830381865afa1580156112e4573d6000803e3d6000fd5b505050506040513d601f19601f820116820180604052508101906113089190612276565b9050611313816115d8565b9350505050919050565b6000808214159050919050565b600061133683836115e2565b905092915050565b600061134a838361165b565b905092915050565b600061135d846116d4565b61136e5761136b60006116e1565b93505b6113778361131d565b6113885761138560006113e4565b92505b6113918261131d565b6113a25761139f60006113e4565b91505b60008490506000849050600084905060006113c060028585856116f5565b9050809450505050509392505050565b60006113dc83836117ad565b905092915050565b60006113f1826002611825565b9050919050565b600060608383886114088961157b565b6114118961157b565b6040518463ffffffff1660e01b815260040161142f939291906122a3565b600060405180830381865afa15801561144c573d6000803e3d6000fd5b505050506040513d6000823e3d601f19601f8201168201806040525081019061147591906123df565b9050611480816118c7565b91505095945050505050565b60006114978361131d565b6114a8576114a560006113e4565b92505b6114b18261131d565b6114c2576114bf60006113e4565b91505b6000839050600083905060006114f760028484608073ffffffffffffffffffffffffffffffffffffffff1663874b1c106113f8565b905080935050505092915050565b60006014826115149190612428565b83511015611557576040517f08c379a000000000000000000000000000000000000000000000000000000000815260040161154e906124a8565b60405180910390fd5b60006c01000000000000000000000000836020860101510490508091505092915050565b6060602067ffffffffffffffff81111561159857611597612150565b5b6040519080825280601f01601f1916602001820160405280156115ca5781602001600182028036833780820191505090505b509050816020820152919050565b6000819050919050565b60006115ed8361131d565b6115fe576115fb60006113e4565b92505b6116078261131d565b6116185761161560006113e4565b91505b60008390506000839050600061164d60028484608073ffffffffffffffffffffffffffffffffffffffff1663cc2cbeff6113f8565b905080935050505092915050565b60006116668361131d565b6116775761167460006113e4565b92505b6116808261131d565b6116915761168e60006113e4565b91505b6000839050600083905060006116c660028484608073ffffffffffffffffffffffffffffffffffffffff1663b9c7a54b6113f8565b905080935050505092915050565b6000808214159050919050565b60006116ee826000611825565b9050919050565b60006060608073ffffffffffffffffffffffffffffffffffffffff1663c2d96952876117208861157b565b6117298861157b565b6117328861157b565b6040518563ffffffff1660e01b815260040161175194939291906124c8565b600060405180830381865afa15801561176e573d6000803e3d6000fd5b505050506040513d6000823e3d601f19601f8201168201806040525081019061179791906123df565b90506117a2816118d5565b915050949350505050565b60006117b88361131d565b6117c9576117c660006113e4565b92505b6117d28261131d565b6117e3576117e060006113e4565b91505b60008390506000839050600061181760028484608073ffffffffffffffffffffffffffffffffffffffff16622df6196113f8565b905080935050505092915050565b60006060608073ffffffffffffffffffffffffffffffffffffffff166319e1c5c461184f8661157b565b856040518363ffffffff1660e01b815260040161186d929190612522565b600060405180830381865afa15801561188a573d6000803e3d6000fd5b505050506040513d6000823e3d601f19601f820116820180604052508101906118b391906123df565b90506118be816118d5565b91505092915050565b600060208201519050919050565b600060208201519050919050565b8260058101928215611912579160200282015b828111156119115782518255916020019190600101906118f6565b5b50905061191f9190611958565b5090565b6040518060400160405280600081526020016000151581525090565b6040518060200160405280611952611975565b81525090565b5b80821115611971576000816000905550600101611959565b5090565b6040518060a00160405280600590602082028036833780820191505090505090565b6000819050919050565b6119aa81611997565b82525050565b60006020820190506119c560008301846119a1565b92915050565b600073ffffffffffffffffffffffffffffffffffffffff82169050919050565b60006119f6826119cb565b9050919050565b611a06816119eb565b82525050565b6000602082019050611a2160008301846119fd565b92915050565b6000611a32826119cb565b9050919050565b611a4281611a27565b82525050565b6000602082019050611a5d6000830184611a39565b92915050565b6000604051905090565b600080fd5b600080fd5b600080fd5b600060208284031215611a9257611a91611a77565b5b81905092915050565b600060208284031215611ab157611ab0611a6d565b5b600082013567ffffffffffffffff811115611acf57611ace611a72565b5b611adb84828501611a7c565b91505092915050565b600082825260208201905092915050565b7f57696e6e65722063616e6e6f7420706572666f726d207468697320616374696f60008201527f6e00000000000000000000000000000000000000000000000000000000000000602082015250565b6000611b51602183611ae4565b9150611b5c82611af5565b604082019050919050565b60006020820190508181036000830152611b8081611b44565b9050919050565b7f41756374696f6e20616c726561647920656e6465640000000000000000000000600082015250565b6000611bbd601583611ae4565b9150611bc882611b87565b602082019050919050565b60006020820190508181036000830152611bec81611bb0565b9050919050565b7f416c726561647920726566756e64656400000000000000000000000000000000600082015250565b6000611c29601083611ae4565b9150611c3482611bf3565b602082019050919050565b60006020820190508181036000830152611c5881611c1c565b9050919050565b6000819050919050565b6000611c84611c7f611c7a84611997565b611c5f565b611997565b9050919050565b611c9481611c69565b82525050565b6000604082019050611caf6000830185611a39565b611cbc6020830184611c8b565b9392505050565b611ccc81611997565b8114611cd757600080fd5b50565b600081519050611ce981611cc3565b92915050565b600060208284031215611d0557611d04611a6d565b5b6000611d1384828501611cda565b91505092915050565b600080fd5b600080fd5b600080fd5b60008083356001602003843603038112611d4857611d47611d26565b5b83810192508235915060208301925067ffffffffffffffff821115611d7057611d6f611d1c565b5b600182023603831315611d8657611d85611d21565b5b509250929050565b600082825260208201905092915050565b82818337600083830152505050565b6000601f19601f8301169050919050565b6000611dcb8385611d8e565b9350611dd8838584611d9f565b611de183611dae565b840190509392505050565b600060208301611dff6000840184611d2b565b8583036000870152611e12838284611dbf565b925050508091505092915050565b6000606082019050611e356000830186611a39565b611e426020830185611a39565b8181036040830152611e548184611dec565b9050949350505050565b7f4f6e6c792061756374696f6e6565722063616e20706572666f726d207468697360008201527f20616374696f6e00000000000000000000000000000000000000000000000000602082015250565b6000611eba602783611ae4565b9150611ec582611e5e565b604082019050919050565b60006020820190508181036000830152611ee981611ead565b9050919050565b600063ffffffff82169050919050565b611f0981611ef0565b82525050565b6000604082019050611f246000830185611a39565b611f316020830184611f00565b9392505050565b7f41756374696f6e206f6e676f696e670000000000000000000000000000000000600082015250565b6000611f6e600f83611ae4565b9150611f7982611f38565b602082019050919050565b60006020820190508181036000830152611f9d81611f61565b9050919050565b7f4e487b7100000000000000000000000000000000000000000000000000000000600052601160045260246000fd5b6000611fde82611997565b9150611fe983611997565b9250828202611ff781611997565b9150828204841483151761200e5761200d611fa4565b5b5092915050565b6000612020826119cb565b915061202b836119cb565b9250828203905073ffffffffffffffffffffffffffffffffffffffff81111561205757612056611fa4565b5b92915050565b7f4e487b7100000000000000000000000000000000000000000000000000000000600052603260045260246000fd5b600061209782611997565b91507fffffffffffffffffffffffffffffffffffffffffffffffffffffffffffffffff82036120c9576120c8611fa4565b5b600182019050919050565b60006120df82611997565b91506120ea83611997565b925082820390508181111561210257612101611fa4565b5b92915050565b6000612113826119cb565b915061211e836119cb565b9250828201905073ffffffffffffffffffffffffffffffffffffffff81111561214a57612149611fa4565b5b92915050565b7f4e487b7100000000000000000000000000000000000000000000000000000000600052604160045260246000fd5b600060ff82169050919050565b6121958161217f565b82525050565b600081519050919050565b600082825260208201905092915050565b60005b838110156121d55780820151818401526020810190506121ba565b60008484015250505050565b60006121ec8261219b565b6121f681856121a6565b93506122068185602086016121b7565b61220f81611dae565b840191505092915050565b600060408201905061222f600083018561218c565b818103602083015261224181846121e1565b90509392505050565b61225381611997565b811461225e57600080fd5b50565b6000815190506122708161224a565b92915050565b60006020828403121561228c5761228b611a6d565b5b600061229a84828501612261565b91505092915050565b60006060820190506122b8600083018661218c565b81810360208301526122ca81856121e1565b905081810360408301526122de81846121e1565b9050949350505050565b600080fd5b600080fd5b6122fb82611dae565b810181811067ffffffffffffffff8211171561231a57612319612150565b5b80604052505050565b600061232d611a63565b905061233982826122f2565b919050565b600067ffffffffffffffff82111561235957612358612150565b5b61236282611dae565b9050602081019050919050565b600061238261237d8461233e565b612323565b90508281526020810184848401111561239e5761239d6122ed565b5b6123a98482856121b7565b509392505050565b600082601f8301126123c6576123c56122e8565b5b81516123d684826020860161236f565b91505092915050565b6000602082840312156123f5576123f4611a6d565b5b600082015167ffffffffffffffff81111561241357612412611a72565b5b61241f848285016123b1565b91505092915050565b600061243382611997565b915061243e83611997565b925082820190508082111561245657612455611fa4565b5b92915050565b7f746f416464726573735f6f75744f66426f756e64730000000000000000000000600082015250565b6000612492601583611ae4565b915061249d8261245c565b602082019050919050565b600060208201905081810360008301526124c181612485565b9050919050565b60006080820190506124dd600083018761218c565b81810360208301526124ef81866121e1565b9050818103604083015261250381856121e1565b9050818103606083015261251781846121e1565b905095945050505050565b6000604082019050818103600083015261253c81856121e1565b905061254b602083018461218c565b939250505056fea26469706673582212205cca4cd06362875fd064d129d06dfe18918572eca07def2c58c1509ec8d0d89964736f6c63430008140033",
  "linkReferences": {},
  "deployedLinkReferences": {}
}