{
  "_format": "hh-sol-artifact-1",
  "contractName": "ExampleToken",
  "sourceName": "contracts/ExampleToken.sol",
  "abi": [
    {
      "inputs": [
        {
          "internalType": "string",
          "name": "name",
          "type": "string"
        },
        {
          "internalType": "string",
          "name": "symbol",
          "type": "string"
        },
        {
          "internalType": "uint256",
          "name": "initialBalance",
          "type": "uint256"
        },
        {
          "components": [
            {
              "internalType": "bytes",
              "name": "data",
              "type": "bytes"
            }
          ],
          "internalType": "struct inEuint32",
          "name": "encryptedBalance",
          "type": "tuple"
        }
      ],
      "stateMutability": "nonpayable",
      "type": "constructor"
    },
    {
      "inputs": [],
      "name": "AccessControlBadConfirmation",
      "type": "error"
    },
    {
      "inputs": [
        {
          "internalType": "address",
          "name": "account",
          "type": "address"
        },
        {
          "internalType": "bytes32",
          "name": "neededRole",
          "type": "bytes32"
        }
      ],
      "name": "AccessControlUnauthorizedAccount",
      "type": "error"
    },
    {
      "inputs": [],
      "name": "ECDSAInvalidSignature",
      "type": "error"
    },
    {
      "inputs": [
        {
          "internalType": "uint256",
          "name": "length",
          "type": "uint256"
        }
      ],
      "name": "ECDSAInvalidSignatureLength",
      "type": "error"
    },
    {
      "inputs": [
        {
          "internalType": "bytes32",
          "name": "s",
          "type": "bytes32"
        }
      ],
      "name": "ECDSAInvalidSignatureS",
      "type": "error"
    },
    {
      "inputs": [
        {
          "internalType": "address",
          "name": "spender",
          "type": "address"
        },
        {
          "internalType": "uint256",
          "name": "allowance",
          "type": "uint256"
        },
        {
          "internalType": "uint256",
          "name": "needed",
          "type": "uint256"
        }
      ],
      "name": "ERC20InsufficientAllowance",
      "type": "error"
    },
    {
      "inputs": [
        {
          "internalType": "address",
          "name": "sender",
          "type": "address"
        },
        {
          "internalType": "uint256",
          "name": "balance",
          "type": "uint256"
        },
        {
          "internalType": "uint256",
          "name": "needed",
          "type": "uint256"
        }
      ],
      "name": "ERC20InsufficientBalance",
      "type": "error"
    },
    {
      "inputs": [
        {
          "internalType": "address",
          "name": "approver",
          "type": "address"
        }
      ],
      "name": "ERC20InvalidApprover",
      "type": "error"
    },
    {
      "inputs": [
        {
          "internalType": "address",
          "name": "receiver",
          "type": "address"
        }
      ],
      "name": "ERC20InvalidReceiver",
      "type": "error"
    },
    {
      "inputs": [
        {
          "internalType": "address",
          "name": "sender",
          "type": "address"
        }
      ],
      "name": "ERC20InvalidSender",
      "type": "error"
    },
    {
      "inputs": [
        {
          "internalType": "address",
          "name": "spender",
          "type": "address"
        }
      ],
      "name": "ERC20InvalidSpender",
      "type": "error"
    },
    {
      "inputs": [],
      "name": "ErrorInsufficientFunds",
      "type": "error"
    },
    {
      "inputs": [],
      "name": "InvalidShortString",
      "type": "error"
    },
    {
      "inputs": [],
      "name": "SignerNotMessageSender",
      "type": "error"
    },
    {
      "inputs": [],
      "name": "SignerNotOwner",
      "type": "error"
    },
    {
      "inputs": [
        {
          "internalType": "string",
          "name": "str",
          "type": "string"
        }
      ],
      "name": "StringTooLong",
      "type": "error"
    },
    {
      "anonymous": false,
      "inputs": [
        {
          "indexed": true,
          "internalType": "address",
          "name": "owner",
          "type": "address"
        },
        {
          "indexed": true,
          "internalType": "address",
          "name": "spender",
          "type": "address"
        },
        {
          "indexed": false,
          "internalType": "uint256",
          "name": "value",
          "type": "uint256"
        }
      ],
      "name": "Approval",
      "type": "event"
    },
    {
      "anonymous": false,
      "inputs": [
        {
          "indexed": true,
          "internalType": "address",
          "name": "owner",
          "type": "address"
        },
        {
          "indexed": true,
          "internalType": "address",
          "name": "spender",
          "type": "address"
        }
      ],
      "name": "ApprovalEncrypted",
      "type": "event"
    },
    {
      "anonymous": false,
      "inputs": [],
      "name": "EIP712DomainChanged",
      "type": "event"
    },
    {
      "anonymous": false,
      "inputs": [
        {
          "indexed": true,
          "internalType": "bytes32",
          "name": "role",
          "type": "bytes32"
        },
        {
          "indexed": true,
          "internalType": "bytes32",
          "name": "previousAdminRole",
          "type": "bytes32"
        },
        {
          "indexed": true,
          "internalType": "bytes32",
          "name": "newAdminRole",
          "type": "bytes32"
        }
      ],
      "name": "RoleAdminChanged",
      "type": "event"
    },
    {
      "anonymous": false,
      "inputs": [
        {
          "indexed": true,
          "internalType": "bytes32",
          "name": "role",
          "type": "bytes32"
        },
        {
          "indexed": true,
          "internalType": "address",
          "name": "account",
          "type": "address"
        },
        {
          "indexed": true,
          "internalType": "address",
          "name": "sender",
          "type": "address"
        }
      ],
      "name": "RoleGranted",
      "type": "event"
    },
    {
      "anonymous": false,
      "inputs": [
        {
          "indexed": true,
          "internalType": "bytes32",
          "name": "role",
          "type": "bytes32"
        },
        {
          "indexed": true,
          "internalType": "address",
          "name": "account",
          "type": "address"
        },
        {
          "indexed": true,
          "internalType": "address",
          "name": "sender",
          "type": "address"
        }
      ],
      "name": "RoleRevoked",
      "type": "event"
    },
    {
      "anonymous": false,
      "inputs": [
        {
          "indexed": true,
          "internalType": "address",
          "name": "from",
          "type": "address"
        },
        {
          "indexed": true,
          "internalType": "address",
          "name": "to",
          "type": "address"
        },
        {
          "indexed": false,
          "internalType": "uint256",
          "name": "value",
          "type": "uint256"
        }
      ],
      "name": "Transfer",
      "type": "event"
    },
    {
      "anonymous": false,
      "inputs": [
        {
          "indexed": true,
          "internalType": "address",
          "name": "from",
          "type": "address"
        },
        {
          "indexed": true,
          "internalType": "address",
          "name": "to",
          "type": "address"
        }
      ],
      "name": "TransferEncrypted",
      "type": "event"
    },
    {
      "inputs": [],
      "name": "DEFAULT_ADMIN_ROLE",
      "outputs": [
        {
          "internalType": "bytes32",
          "name": "",
          "type": "bytes32"
        }
      ],
      "stateMutability": "view",
      "type": "function"
    },
    {
      "inputs": [],
      "name": "MINTER_ROLE",
      "outputs": [
        {
          "internalType": "bytes32",
          "name": "",
          "type": "bytes32"
        }
      ],
      "stateMutability": "view",
      "type": "function"
    },
    {
      "inputs": [
        {
          "internalType": "address",
          "name": "owner",
          "type": "address"
        },
        {
          "internalType": "address",
          "name": "spender",
          "type": "address"
        }
      ],
      "name": "_allowanceEncrypted",
      "outputs": [
        {
          "internalType": "euint32",
          "name": "",
          "type": "uint256"
        }
      ],
      "stateMutability": "view",
      "type": "function"
    },
    {
      "inputs": [
        {
          "internalType": "address",
          "name": "owner",
          "type": "address"
        },
        {
          "internalType": "address",
          "name": "spender",
          "type": "address"
        }
      ],
      "name": "allowance",
      "outputs": [
        {
          "internalType": "uint256",
          "name": "",
          "type": "uint256"
        }
      ],
      "stateMutability": "view",
      "type": "function"
    },
    {
      "inputs": [
        {
          "internalType": "address",
          "name": "spender",
          "type": "address"
        },
        {
          "components": [
            {
              "internalType": "bytes32",
              "name": "publicKey",
              "type": "bytes32"
            },
            {
              "internalType": "bytes",
              "name": "signature",
              "type": "bytes"
            }
          ],
          "internalType": "struct Permission",
          "name": "permission",
          "type": "tuple"
        }
      ],
      "name": "allowanceEncrypted",
      "outputs": [
        {
          "internalType": "bytes",
          "name": "",
          "type": "bytes"
        }
      ],
      "stateMutability": "view",
      "type": "function"
    },
    {
      "inputs": [
        {
          "internalType": "address",
          "name": "spender",
          "type": "address"
        },
        {
          "internalType": "uint256",
          "name": "value",
          "type": "uint256"
        }
      ],
      "name": "approve",
      "outputs": [
        {
          "internalType": "bool",
          "name": "",
          "type": "bool"
        }
      ],
      "stateMutability": "nonpayable",
      "type": "function"
    },
    {
      "inputs": [
        {
          "internalType": "address",
          "name": "spender",
          "type": "address"
        },
        {
          "components": [
            {
              "internalType": "bytes",
              "name": "data",
              "type": "bytes"
            }
          ],
          "internalType": "struct inEuint32",
          "name": "value",
          "type": "tuple"
        }
      ],
      "name": "approveEncrypted",
      "outputs": [
        {
          "internalType": "bool",
          "name": "",
          "type": "bool"
        }
      ],
      "stateMutability": "nonpayable",
      "type": "function"
    },
    {
      "inputs": [
        {
          "internalType": "address",
          "name": "account",
          "type": "address"
        }
      ],
      "name": "balanceOf",
      "outputs": [
        {
          "internalType": "uint256",
          "name": "",
          "type": "uint256"
        }
      ],
      "stateMutability": "view",
      "type": "function"
    },
    {
      "inputs": [
        {
          "internalType": "address",
          "name": "account",
          "type": "address"
        },
        {
          "components": [
            {
              "internalType": "bytes32",
              "name": "publicKey",
              "type": "bytes32"
            },
            {
              "internalType": "bytes",
              "name": "signature",
              "type": "bytes"
            }
          ],
          "internalType": "struct Permission",
          "name": "auth",
          "type": "tuple"
        }
      ],
      "name": "balanceOfEncrypted",
      "outputs": [
        {
          "internalType": "bytes",
          "name": "",
          "type": "bytes"
        }
      ],
      "stateMutability": "view",
      "type": "function"
    },
    {
      "inputs": [],
      "name": "contractOwner",
      "outputs": [
        {
          "internalType": "address",
          "name": "",
          "type": "address"
        }
      ],
      "stateMutability": "view",
      "type": "function"
    },
    {
      "inputs": [],
      "name": "decimals",
      "outputs": [
        {
          "internalType": "uint8",
          "name": "",
          "type": "uint8"
        }
      ],
      "stateMutability": "view",
      "type": "function"
    },
    {
      "inputs": [],
      "name": "diableAutoWrapping",
      "outputs": [],
      "stateMutability": "nonpayable",
      "type": "function"
    },
    {
      "inputs": [],
      "name": "eip712Domain",
      "outputs": [
        {
          "internalType": "bytes1",
          "name": "fields",
          "type": "bytes1"
        },
        {
          "internalType": "string",
          "name": "name",
          "type": "string"
        },
        {
          "internalType": "string",
          "name": "version",
          "type": "string"
        },
        {
          "internalType": "uint256",
          "name": "chainId",
          "type": "uint256"
        },
        {
          "internalType": "address",
          "name": "verifyingContract",
          "type": "address"
        },
        {
          "internalType": "bytes32",
          "name": "salt",
          "type": "bytes32"
        },
        {
          "internalType": "uint256[]",
          "name": "extensions",
          "type": "uint256[]"
        }
      ],
      "stateMutability": "view",
      "type": "function"
    },
    {
      "inputs": [],
      "name": "enableAutoWrapping",
      "outputs": [],
      "stateMutability": "nonpayable",
      "type": "function"
    },
    {
      "inputs": [
        {
          "internalType": "bytes32",
          "name": "role",
          "type": "bytes32"
        }
      ],
      "name": "getRoleAdmin",
      "outputs": [
        {
          "internalType": "bytes32",
          "name": "",
          "type": "bytes32"
        }
      ],
      "stateMutability": "view",
      "type": "function"
    },
    {
      "inputs": [
        {
          "internalType": "bytes32",
          "name": "role",
          "type": "bytes32"
        },
        {
          "internalType": "address",
          "name": "account",
          "type": "address"
        }
      ],
      "name": "grantRole",
      "outputs": [],
      "stateMutability": "nonpayable",
      "type": "function"
    },
    {
      "inputs": [
        {
          "internalType": "bytes32",
          "name": "role",
          "type": "bytes32"
        },
        {
          "internalType": "address",
          "name": "account",
          "type": "address"
        }
      ],
      "name": "hasRole",
      "outputs": [
        {
          "internalType": "bool",
          "name": "",
          "type": "bool"
        }
      ],
      "stateMutability": "view",
      "type": "function"
    },
    {
      "inputs": [
        {
          "internalType": "address",
          "name": "recipient",
          "type": "address"
        },
        {
          "components": [
            {
              "internalType": "bytes",
              "name": "data",
              "type": "bytes"
            }
          ],
          "internalType": "struct inEuint32",
          "name": "amount",
          "type": "tuple"
        }
      ],
      "name": "mintEncrypted",
      "outputs": [],
      "stateMutability": "nonpayable",
      "type": "function"
    },
    {
      "inputs": [
        {
          "components": [
            {
              "internalType": "bytes",
              "name": "data",
              "type": "bytes"
            }
          ],
          "internalType": "struct inEuint32",
          "name": "amount",
          "type": "tuple"
        }
      ],
      "name": "mintEncryptedDebug",
      "outputs": [],
      "stateMutability": "nonpayable",
      "type": "function"
    },
    {
      "inputs": [],
      "name": "name",
      "outputs": [
        {
          "internalType": "string",
          "name": "",
          "type": "string"
        }
      ],
      "stateMutability": "view",
      "type": "function"
    },
    {
      "inputs": [
        {
          "internalType": "bytes32",
          "name": "role",
          "type": "bytes32"
        },
        {
          "internalType": "address",
          "name": "callerConfirmation",
          "type": "address"
        }
      ],
      "name": "renounceRole",
      "outputs": [],
      "stateMutability": "nonpayable",
      "type": "function"
    },
    {
      "inputs": [
        {
          "internalType": "bytes32",
          "name": "role",
          "type": "bytes32"
        },
        {
          "internalType": "address",
          "name": "account",
          "type": "address"
        }
      ],
      "name": "revokeRole",
      "outputs": [],
      "stateMutability": "nonpayable",
      "type": "function"
    },
    {
      "inputs": [
        {
          "internalType": "bytes4",
          "name": "interfaceId",
          "type": "bytes4"
        }
      ],
      "name": "supportsInterface",
      "outputs": [
        {
          "internalType": "bool",
          "name": "",
          "type": "bool"
        }
      ],
      "stateMutability": "view",
      "type": "function"
    },
    {
      "inputs": [],
      "name": "symbol",
      "outputs": [
        {
          "internalType": "string",
          "name": "",
          "type": "string"
        }
      ],
      "stateMutability": "view",
      "type": "function"
    },
    {
      "inputs": [],
      "name": "totalSupply",
      "outputs": [
        {
          "internalType": "uint256",
          "name": "",
          "type": "uint256"
        }
      ],
      "stateMutability": "view",
      "type": "function"
    },
    {
      "inputs": [
        {
          "internalType": "address",
          "name": "to",
          "type": "address"
        },
        {
          "internalType": "uint256",
          "name": "value",
          "type": "uint256"
        }
      ],
      "name": "transfer",
      "outputs": [
        {
          "internalType": "bool",
          "name": "",
          "type": "bool"
        }
      ],
      "stateMutability": "nonpayable",
      "type": "function"
    },
    {
      "inputs": [
        {
          "internalType": "address",
          "name": "to",
          "type": "address"
        },
        {
          "components": [
            {
              "internalType": "bytes",
              "name": "data",
              "type": "bytes"
            }
          ],
          "internalType": "struct inEuint32",
          "name": "encryptedAmount",
          "type": "tuple"
        }
      ],
      "name": "transferEncrypted",
      "outputs": [
        {
          "internalType": "euint32",
          "name": "",
          "type": "uint256"
        }
      ],
      "stateMutability": "nonpayable",
      "type": "function"
    },
    {
      "inputs": [
        {
          "internalType": "address",
          "name": "to",
          "type": "address"
        },
        {
          "internalType": "euint32",
          "name": "amount",
          "type": "uint256"
        }
      ],
      "name": "transferEncrypted",
      "outputs": [
        {
          "internalType": "euint32",
          "name": "",
          "type": "uint256"
        }
      ],
      "stateMutability": "nonpayable",
      "type": "function"
    },
    {
      "inputs": [
        {
          "internalType": "address",
          "name": "from",
          "type": "address"
        },
        {
          "internalType": "address",
          "name": "to",
          "type": "address"
        },
        {
          "internalType": "uint256",
          "name": "value",
          "type": "uint256"
        }
      ],
      "name": "transferFrom",
      "outputs": [
        {
          "internalType": "bool",
          "name": "",
          "type": "bool"
        }
      ],
      "stateMutability": "nonpayable",
      "type": "function"
    },
    {
      "inputs": [
        {
          "internalType": "address",
          "name": "from",
          "type": "address"
        },
        {
          "internalType": "address",
          "name": "to",
          "type": "address"
        },
        {
          "components": [
            {
              "internalType": "bytes",
              "name": "data",
              "type": "bytes"
            }
          ],
          "internalType": "struct inEuint32",
          "name": "value",
          "type": "tuple"
        }
      ],
      "name": "transferFromEncrypted",
      "outputs": [
        {
          "internalType": "euint32",
          "name": "",
          "type": "uint256"
        }
      ],
      "stateMutability": "nonpayable",
      "type": "function"
    },
    {
      "inputs": [
        {
          "internalType": "address",
          "name": "from",
          "type": "address"
        },
        {
          "internalType": "address",
          "name": "to",
          "type": "address"
        },
        {
          "internalType": "euint32",
          "name": "value",
          "type": "uint256"
        }
      ],
      "name": "transferFromEncrypted",
      "outputs": [
        {
          "internalType": "euint32",
          "name": "",
          "type": "uint256"
        }
      ],
      "stateMutability": "nonpayable",
      "type": "function"
    },
    {
      "inputs": [
        {
          "internalType": "uint32",
          "name": "amount",
          "type": "uint32"
        }
      ],
      "name": "unwrap",
      "outputs": [],
      "stateMutability": "nonpayable",
      "type": "function"
    },
    {
      "inputs": [
        {
          "internalType": "uint32",
          "name": "tokenAmount",
          "type": "uint32"
        }
      ],
      "name": "withdraw",
      "outputs": [],
      "stateMutability": "nonpayable",
      "type": "function"
    },
    {
      "inputs": [
        {
          "internalType": "uint32",
          "name": "amount",
          "type": "uint32"
        }
      ],
      "name": "wrap",
      "outputs": [],
      "stateMutability": "nonpayable",
      "type": "function"
    },
    {
      "stateMutability": "payable",
      "type": "receive"
    }
  ],
  "bytecode": "0x6101606040526200001760006200025b60201b60201c565b6009556001600a60006101000a81548160ff02191690831515021790555064e8d4a51000600b553480156200004b57600080fd5b5060405162005c5e38038062005c5e833981810160405281019062000071919062000f12565b83836040518060400160405280601181526020017f4668656e6978205065726d697373696f6e0000000000000000000000000000008152506040518060400160405280600381526020017f312e30000000000000000000000000000000000000000000000000000000000081525083838160039081620000f2919062001222565b50806004908162000104919062001222565b5050506200011d6005836200027760201b90919060201c565b61012081815250506200013b6006826200027760201b90919060201c565b6101408181525050818051906020012060e08181525050808051906020012061010081815250504660a081815250506200017a620002cf60201b60201c565b608081815250503073ffffffffffffffffffffffffffffffffffffffff1660c08173ffffffffffffffffffffffffffffffffffffffff1681525050505033600a60016101000a81548173ffffffffffffffffffffffffffffffffffffffff021916908373ffffffffffffffffffffffffffffffffffffffff16021790555050506200020c33836200032c60201b60201c565b6200021e3382620003b960201b60201c565b620002507f9f2df0fed2c77648de5860a4cc508cd0818c85b8b8a1ab4ceeef8d981c8956a6336200047560201b60201c565b505050505062001744565b6000620002708260026200057960201b60201c565b9050919050565b60006020835110156200029d5762000295836200063060201b60201c565b9050620002c9565b82620002af836200069d60201b60201c565b6000019081620002c0919062001222565b5060ff60001b90505b92915050565b60007f8b73c3c69bb8fe3d512ecc4cf759cc79239f7b179b0ffacaa9a75d522b39400f60e051610100514630604051602001620003119594939291906200137a565b60405160208183030381529060405280519060200120905090565b600073ffffffffffffffffffffffffffffffffffffffff168273ffffffffffffffffffffffffffffffffffffffff1603620003a15760006040517fec442f05000000000000000000000000000000000000000000000000000000008152600401620003989190620013d7565b60405180910390fd5b620003b560008383620006a760201b60201c565b5050565b6000620003cc82620008d760201b60201c565b905062000419600760008573ffffffffffffffffffffffffffffffffffffffff1673ffffffffffffffffffffffffffffffffffffffff1681526020019081526020016000205482620008f5565b600760008573ffffffffffffffffffffffffffffffffffffffff1673ffffffffffffffffffffffffffffffffffffffff168152602001908152602001600020819055506200046a60095482620008f5565b600981905550505050565b60006200048983836200091160201b60201c565b6200056e576001600c600085815260200190815260200160002060000160008473ffffffffffffffffffffffffffffffffffffffff1673ffffffffffffffffffffffffffffffffffffffff16815260200190815260200160002060006101000a81548160ff0219169083151502179055506200050a6200097c60201b60201c565b73ffffffffffffffffffffffffffffffffffffffff168273ffffffffffffffffffffffffffffffffffffffff16847f2f8788117e7eff1d82e926ec794901d17c78024a50270940304540a733656f0d60405160405180910390a46001905062000573565b600090505b92915050565b60006060608073ffffffffffffffffffffffffffffffffffffffff166319e1c5c4620005ab866200098460201b60201c565b856040518363ffffffff1660e01b8152600401620005cb9291906200146f565b600060405180830381865afa158015620005e9573d6000803e3d6000fd5b505050506040513d6000823e3d601f19601f82011682018060405250810190620006149190620014a3565b90506200062781620009e560201b60201c565b91505092915050565b600080829050601f815111156200068057826040517f305a27a900000000000000000000000000000000000000000000000000000000815260040162000677919062001546565b60405180910390fd5b8051816200068e9062001591565b60001c1760001b915050919050565b6000819050919050565b600073ffffffffffffffffffffffffffffffffffffffff168373ffffffffffffffffffffffffffffffffffffffff1603620006fd578060026000828254620006f0919062001630565b92505081905550620007d3565b60008060008573ffffffffffffffffffffffffffffffffffffffff1673ffffffffffffffffffffffffffffffffffffffff168152602001908152602001600020549050818110156200078c578381836040517fe450d38c00000000000000000000000000000000000000000000000000000000815260040162000783939291906200166b565b60405180910390fd5b8181036000808673ffffffffffffffffffffffffffffffffffffffff1673ffffffffffffffffffffffffffffffffffffffff16815260200190815260200160002081905550505b600073ffffffffffffffffffffffffffffffffffffffff168273ffffffffffffffffffffffffffffffffffffffff16036200081e57806002600082825403925050819055506200086b565b806000808473ffffffffffffffffffffffffffffffffffffffff1673ffffffffffffffffffffffffffffffffffffffff168152602001908152602001600020600082825401925050819055505b8173ffffffffffffffffffffffffffffffffffffffff168373ffffffffffffffffffffffffffffffffffffffff167fddf252ad1be2c89b69c2b068fc378daa952ba7f163c4a11628f55a4df523b3ef83604051620008ca9190620016a8565b60405180910390a3505050565b6000620008ee8260000151620009f360201b60201c565b9050919050565b600062000909838362000a0f60201b60201c565b905092915050565b6000600c600084815260200190815260200160002060000160008373ffffffffffffffffffffffffffffffffffffffff1673ffffffffffffffffffffffffffffffffffffffff16815260200190815260200160002060009054906101000a900460ff16905092915050565b600033905090565b6060602067ffffffffffffffff811115620009a457620009a362000c53565b5b6040519080825280601f01601f191660200182016040528015620009d75781602001600182028036833780820191505090505b509050816020820152919050565b600060208201519050919050565b600062000a0882600262000ab160201b60201c565b9050919050565b600062000a228362000b5860201b60201c565b62000a3c5762000a3960006200025b60201b60201c565b92505b62000a4d8262000b5860201b60201c565b62000a675762000a6460006200025b60201b60201c565b91505b60008390506000839050600062000aa360028484608073ffffffffffffffffffffffffffffffffffffffff16622df61962000b6560201b60201c565b905080935050505092915050565b60006060608073ffffffffffffffffffffffffffffffffffffffff16635fa55ca784866040518363ffffffff1660e01b815260040162000af3929190620016c5565b600060405180830381865afa15801562000b11573d6000803e3d6000fd5b505050506040513d6000823e3d601f19601f8201168201806040525081019062000b3c9190620014a3565b905062000b4f81620009e560201b60201c565b91505092915050565b6000808214159050919050565b6000606083838862000b7d896200098460201b60201c565b62000b8e896200098460201b60201c565b6040518463ffffffff1660e01b815260040162000bae93929190620016f9565b600060405180830381865afa15801562000bcc573d6000803e3d6000fd5b505050506040513d6000823e3d601f19601f8201168201806040525081019062000bf79190620014a3565b905062000c0a8162000c1660201b60201c565b91505095945050505050565b600060208201519050919050565b6000604051905090565b600080fd5b600080fd5b600080fd5b600080fd5b6000601f19601f8301169050919050565b7f4e487b7100000000000000000000000000000000000000000000000000000000600052604160045260246000fd5b62000c8d8262000c42565b810181811067ffffffffffffffff8211171562000caf5762000cae62000c53565b5b80604052505050565b600062000cc462000c24565b905062000cd2828262000c82565b919050565b600067ffffffffffffffff82111562000cf55762000cf462000c53565b5b62000d008262000c42565b9050602081019050919050565b60005b8381101562000d2d57808201518184015260208101905062000d10565b60008484015250505050565b600062000d5062000d4a8462000cd7565b62000cb8565b90508281526020810184848401111562000d6f5762000d6e62000c3d565b5b62000d7c84828562000d0d565b509392505050565b600082601f83011262000d9c5762000d9b62000c38565b5b815162000dae84826020860162000d39565b91505092915050565b6000819050919050565b62000dcc8162000db7565b811462000dd857600080fd5b50565b60008151905062000dec8162000dc1565b92915050565b600080fd5b600080fd5b600067ffffffffffffffff82111562000e1a5762000e1962000c53565b5b62000e258262000c42565b9050602081019050919050565b600062000e4962000e438462000dfc565b62000cb8565b90508281526020810184848401111562000e685762000e6762000c3d565b5b62000e7584828562000d0d565b509392505050565b600082601f83011262000e955762000e9462000c38565b5b815162000ea784826020860162000e32565b91505092915050565b60006020828403121562000ec95762000ec862000df2565b5b62000ed5602062000cb8565b9050600082015167ffffffffffffffff81111562000ef85762000ef762000df7565b5b62000f068482850162000e7d565b60008301525092915050565b6000806000806080858703121562000f2f5762000f2e62000c2e565b5b600085015167ffffffffffffffff81111562000f505762000f4f62000c33565b5b62000f5e8782880162000d84565b945050602085015167ffffffffffffffff81111562000f825762000f8162000c33565b5b62000f908782880162000d84565b935050604062000fa38782880162000ddb565b925050606085015167ffffffffffffffff81111562000fc75762000fc662000c33565b5b62000fd58782880162000eb0565b91505092959194509250565b600081519050919050565b7f4e487b7100000000000000000000000000000000000000000000000000000000600052602260045260246000fd5b600060028204905060018216806200103457607f821691505b6020821081036200104a576200104962000fec565b5b50919050565b60008190508160005260206000209050919050565b60006020601f8301049050919050565b600082821b905092915050565b600060088302620010b47fffffffffffffffffffffffffffffffffffffffffffffffffffffffffffffffff8262001075565b620010c0868362001075565b95508019841693508086168417925050509392505050565b6000819050919050565b600062001103620010fd620010f78462000db7565b620010d8565b62000db7565b9050919050565b6000819050919050565b6200111f83620010e2565b620011376200112e826200110a565b84845462001082565b825550505050565b600090565b6200114e6200113f565b6200115b81848462001114565b505050565b5b8181101562001183576200117760008262001144565b60018101905062001161565b5050565b601f821115620011d2576200119c8162001050565b620011a78462001065565b81016020851015620011b7578190505b620011cf620011c68562001065565b83018262001160565b50505b505050565b600082821c905092915050565b6000620011f760001984600802620011d7565b1980831691505092915050565b6000620012128383620011e4565b9150826002028217905092915050565b6200122d8262000fe1565b67ffffffffffffffff81111562001249576200124862000c53565b5b6200125582546200101b565b6200126282828562001187565b600060209050601f8311600181146200129a576000841562001285578287015190505b62001291858262001204565b86555062001301565b601f198416620012aa8662001050565b60005b82811015620012d457848901518255600182019150602085019450602081019050620012ad565b86831015620012f45784890151620012f0601f891682620011e4565b8355505b6001600288020188555050505b505050505050565b6000819050919050565b6200131e8162001309565b82525050565b6200132f8162000db7565b82525050565b600073ffffffffffffffffffffffffffffffffffffffff82169050919050565b6000620013628262001335565b9050919050565b620013748162001355565b82525050565b600060a08201905062001391600083018862001313565b620013a0602083018762001313565b620013af604083018662001313565b620013be606083018562001324565b620013cd608083018462001369565b9695505050505050565b6000602082019050620013ee600083018462001369565b92915050565b600081519050919050565b600082825260208201905092915050565b60006200141d82620013f4565b620014298185620013ff565b93506200143b81856020860162000d0d565b620014468162000c42565b840191505092915050565b600060ff82169050919050565b620014698162001451565b82525050565b600060408201905081810360008301526200148b818562001410565b90506200149c60208301846200145e565b9392505050565b600060208284031215620014bc57620014bb62000c2e565b5b600082015167ffffffffffffffff811115620014dd57620014dc62000c33565b5b620014eb8482850162000e7d565b91505092915050565b600082825260208201905092915050565b6000620015128262000fe1565b6200151e8185620014f4565b93506200153081856020860162000d0d565b6200153b8162000c42565b840191505092915050565b6000602082019050818103600083015262001562818462001505565b905092915050565b6000819050602082019050919050565b600062001588825162001309565b80915050919050565b60006200159e82620013f4565b82620015aa846200156a565b9050620015b7816200157a565b92506020821015620015fa57620015f57fffffffffffffffffffffffffffffffffffffffffffffffffffffffffffffffff8360200360080262001075565b831692505b5050919050565b7f4e487b7100000000000000000000000000000000000000000000000000000000600052601160045260246000fd5b60006200163d8262000db7565b91506200164a8362000db7565b925082820190508082111562001665576200166462001601565b5b92915050565b600060608201905062001682600083018662001369565b62001691602083018562001324565b620016a0604083018462001324565b949350505050565b6000602082019050620016bf600083018462001324565b92915050565b6000604082019050620016dc60008301856200145e565b8181036020830152620016f0818462001410565b90509392505050565b60006060820190506200171060008301866200145e565b818103602083015262001724818562001410565b905081810360408301526200173a818462001410565b9050949350505050565b60805160a05160c05160e0516101005161012051610140516144bf6200179f600039600061210d015260006120d20152600061301401526000612ff3015260006127cd015260006128230152600061284c01526144bf6000f3fe6080604052600436106101fd5760003560e01c806370a082311161010d578063a9059cbb116100a0578063ce606ee01161006f578063ce606ee014610862578063d53913931461088d578063d547741f146108b8578063d918156e146108e1578063dd62ed3e1461091e576102b2565b8063a9059cbb14610782578063aa9224cd146107bf578063af575a00146107e8578063c4224c1914610825576102b2565b806395d89b41116100dc57806395d89b41146106ec578063982ca5bf146107175780639f284be71461072e578063a217fddf14610757576102b2565b806370a082311461060457806384b0196e146106415780638624a3491461067257806391d14854146106af576102b2565b8063248a9ca31161019057806339c217f71161015f57806339c217f7146104fb5780634e6db477146105385780635356c42914610561578063602772041461059e5780636e0505e1146105db576102b2565b8063248a9ca3146104415780632f2ff15d1461047e578063313ce567146104a757806336568abe146104d2576102b2565b80631656cef3116101cc5780631656cef31461037357806318160ddd1461039c57806323b872dd146103c757806323db935414610404576102b2565b806301ffc9a7146102b757806306fdde03146102f45780630801dc261461031f578063095ea7b314610336576102b2565b366102b2576000341161020e61095b565b60405160200161021e9190613333565b6040516020818303038152906040529061026e576040517f08c379a000000000000000000000000000000000000000000000000000000000815260040161026591906133bb565b60405180910390fd5b506000600b543461027f9190613445565b9050610291338263ffffffff166109ed565b600a60009054906101000a900460ff16156102b0576102af81610a6f565b5b005b600080fd5b3480156102c357600080fd5b506102de60048036038101906102d991906134e2565b610c16565b6040516102eb919061352a565b60405180910390f35b34801561030057600080fd5b50610309610c90565b60405161031691906133bb565b60405180910390f35b34801561032b57600080fd5b50610334610d22565b005b34801561034257600080fd5b5061035d600480360381019061035891906135cf565b610d99565b60405161036a919061352a565b60405180910390f35b34801561037f57600080fd5b5061039a600480360381019061039591906137a6565b610dbc565b005b3480156103a857600080fd5b506103b1610dc9565b6040516103be91906137fe565b60405180910390f35b3480156103d357600080fd5b506103ee60048036038101906103e99190613819565b610dd3565b6040516103fb919061352a565b60405180910390f35b34801561041057600080fd5b5061042b6004803603810190610426919061386c565b610e02565b60405161043891906138e7565b60405180910390f35b34801561044d57600080fd5b5061046860048036038101906104639190613938565b610e89565b6040516104759190613974565b60405180910390f35b34801561048a57600080fd5b506104a560048036038101906104a0919061398f565b610ea9565b005b3480156104b357600080fd5b506104bc610ecb565b6040516104c991906139eb565b60405180910390f35b3480156104de57600080fd5b506104f960048036038101906104f4919061398f565b610ed4565b005b34801561050757600080fd5b50610522600480360381019061051d9190613a2a565b610f4f565b60405161052f91906138e7565b60405180910390f35b34801561054457600080fd5b5061055f600480360381019061055a9190613a86565b610f74565b005b34801561056d57600080fd5b5061058860048036038101906105839190613b01565b610fb2565b6040516105959190613bb2565b60405180910390f35b3480156105aa57600080fd5b506105c560048036038101906105c09190613c40565b6110b0565b6040516105d29190613bb2565b60405180910390f35b3480156105e757600080fd5b5061060260048036038101906105fd9190613cd8565b6111e6565b005b34801561061057600080fd5b5061062b60048036038101906106269190613d05565b61131d565b60405161063891906137fe565b60405180910390f35b34801561064d57600080fd5b50610656611365565b6040516106699796959493929190613e3a565b60405180910390f35b34801561067e57600080fd5b5061069960048036038101906106949190613ebe565b61140f565b6040516106a691906138e7565b60405180910390f35b3480156106bb57600080fd5b506106d660048036038101906106d1919061398f565b61144d565b6040516106e3919061352a565b60405180910390f35b3480156106f857600080fd5b5061070161095b565b60405161070e91906133bb565b60405180910390f35b34801561072357600080fd5b5061072c6114b8565b005b34801561073a57600080fd5b5061075560048036038101906107509190613cd8565b610a6f565b005b34801561076357600080fd5b5061076c61152f565b6040516107799190613974565b60405180910390f35b34801561078e57600080fd5b506107a960048036038101906107a491906135cf565b611536565b6040516107b6919061352a565b60405180910390f35b3480156107cb57600080fd5b506107e660048036038101906107e19190613cd8565b611559565b005b3480156107f457600080fd5b5061080f600480360381019061080a9190613f59565b6115cc565b60405161081c91906138e7565b60405180910390f35b34801561083157600080fd5b5061084c60048036038101906108479190613fac565b6115f9565b60405161085991906138e7565b60405180910390f35b34801561086e57600080fd5b5061087761160e565b6040516108849190613fec565b60405180910390f35b34801561089957600080fd5b506108a2611634565b6040516108af9190613974565b60405180910390f35b3480156108c457600080fd5b506108df60048036038101906108da919061398f565b611658565b005b3480156108ed57600080fd5b5061090860048036038101906109039190613a2a565b61167a565b604051610915919061352a565b60405180910390f35b34801561092a57600080fd5b506109456004803603810190610940919061386c565b6116a2565b60405161095291906137fe565b60405180910390f35b60606004805461096a90614036565b80601f016020809104026020016040519081016040528092919081815260200182805461099690614036565b80156109e35780601f106109b8576101008083540402835291602001916109e3565b820191906000526020600020905b8154815290600101906020018083116109c657829003601f168201915b5050505050905090565b600073ffffffffffffffffffffffffffffffffffffffff168273ffffffffffffffffffffffffffffffffffffffff1603610a5f5760006040517fec442f05000000000000000000000000000000000000000000000000000000008152600401610a569190613fec565b60405180910390fd5b610a6b60008383611729565b5050565b8063ffffffff16610a7f3361131d565b1015610ab7576040517ffda7bbda00000000000000000000000000000000000000000000000000000000815260040160405180910390fd5b610ac7338263ffffffff1661194e565b6000610ad88263ffffffff166119d0565b9050610b22600760003373ffffffffffffffffffffffffffffffffffffffff1673ffffffffffffffffffffffffffffffffffffffff168152602001908152602001600020546119e4565b610b7457610b3060006119d0565b600760003373ffffffffffffffffffffffffffffffffffffffff1673ffffffffffffffffffffffffffffffffffffffff168152602001908152602001600020819055505b610bbd600760003373ffffffffffffffffffffffffffffffffffffffff1673ffffffffffffffffffffffffffffffffffffffff16815260200190815260200160002054826119f1565b600760003373ffffffffffffffffffffffffffffffffffffffff1673ffffffffffffffffffffffffffffffffffffffff16815260200190815260200160002081905550610c0c600954826119f1565b6009819055505050565b60007f7965db0b000000000000000000000000000000000000000000000000000000007bffffffffffffffffffffffffffffffffffffffffffffffffffffffff1916827bffffffffffffffffffffffffffffffffffffffffffffffffffffffff19161480610c895750610c8882611a05565b5b9050919050565b606060038054610c9f90614036565b80601f0160208091040260200160405190810160405280929190818152602001828054610ccb90614036565b8015610d185780601f10610ced57610100808354040283529160200191610d18565b820191906000526020600020905b815481529060010190602001808311610cfb57829003601f168201915b5050505050905090565b600a60019054906101000a900473ffffffffffffffffffffffffffffffffffffffff1673ffffffffffffffffffffffffffffffffffffffff163373ffffffffffffffffffffffffffffffffffffffff1614610d7c57600080fd5b6001600a60006101000a81548160ff021916908315150217905550565b600080610da4611a6f565b9050610db1818585611a77565b600191505092915050565b610dc63382611a89565b50565b6000600254905090565b600080610dde611a6f565b9050610deb858285611b39565b610df6858585611bcd565b60019150509392505050565b6000600860008473ffffffffffffffffffffffffffffffffffffffff1673ffffffffffffffffffffffffffffffffffffffff16815260200190815260200160002060008373ffffffffffffffffffffffffffffffffffffffff1673ffffffffffffffffffffffffffffffffffffffff16815260200190815260200160002054905092915050565b6000600c6000838152602001908152602001600020600101549050919050565b610eb282610e89565b610ebb81611cc1565b610ec58383611cd5565b50505050565b60006012905090565b610edc611a6f565b73ffffffffffffffffffffffffffffffffffffffff168173ffffffffffffffffffffffffffffffffffffffff1614610f40576040517f6697b23200000000000000000000000000000000000000000000000000000000815260040160405180910390fd5b610f4a8282611dc7565b505050565b6000610f6c83610f6784610f6290614067565b611eba565b6115f9565b905092915050565b610f9e7f9f2df0fed2c77648de5860a4cc508cd0818c85b8b8a1ab4ceeef8d981c8956a63361144d565b15610fae57610fad8282611a89565b5b5050565b606081610fbe9061407a565b60006110157f6bdaeb2d29561f159c7ef98b16b27015fb2aeb87209c7ee656226d912f59927d8360000151604051602001610ffa92919061408d565b60405160208183030381529060405280519060200120611ed0565b90506000611027828460200151611eea565b90503373ffffffffffffffffffffffffffffffffffffffff168173ffffffffffffffffffffffffffffffffffffffff161461108e576040517f3093a27700000000000000000000000000000000000000000000000000000000815260040160405180910390fd5b6110a561109b3388610e02565b8660000135611f16565b935050505092915050565b60608183600061110b7f6bdaeb2d29561f159c7ef98b16b27015fb2aeb87209c7ee656226d912f59927d84600001516040516020016110f092919061408d565b60405160208183030381529060405280519060200120611ed0565b9050600061111d828560200151611eea565b90508273ffffffffffffffffffffffffffffffffffffffff168173ffffffffffffffffffffffffffffffffffffffff1614611184576040517f51c65eae00000000000000000000000000000000000000000000000000000000815260040160405180910390fd5b6111da8660000151600760008a73ffffffffffffffffffffffffffffffffffffffff1673ffffffffffffffffffffffffffffffffffffffff16815260200190815260200160002054611f4c90919063ffffffff16565b94505050505092915050565b60006111f78263ffffffff166119d0565b9050600061126061125083600760003373ffffffffffffffffffffffffffffffffffffffff1673ffffffffffffffffffffffffffffffffffffffff16815260200190815260200160002054611f6090919063ffffffff16565b61125a60006119d0565b84611f74565b90506112ab600760003373ffffffffffffffffffffffffffffffffffffffff1673ffffffffffffffffffffffffffffffffffffffff1681526020019081526020016000205482611ff2565b600760003373ffffffffffffffffffffffffffffffffffffffff1673ffffffffffffffffffffffffffffffffffffffff168152602001908152602001600020819055506112fa60095482611ff2565b6009819055506113183361130d83612006565b63ffffffff166109ed565b505050565b60008060008373ffffffffffffffffffffffffffffffffffffffff1673ffffffffffffffffffffffffffffffffffffffff168152602001908152602001600020549050919050565b6000606080600080600060606113796120c9565b611381612104565b46306000801b600067ffffffffffffffff8111156113a2576113a1613614565b5b6040519080825280602002602001820160405280156113d05781602001602082028036833780820191505090505b507f0f00000000000000000000000000000000000000000000000000000000000000959493929190965096509650965096509650965090919293949596565b6000806114248361141f90614067565b611eba565b9050600061143386338461213f565b905061144086868361217c565b5080925050509392505050565b6000600c600084815260200190815260200160002060000160008373ffffffffffffffffffffffffffffffffffffffff1673ffffffffffffffffffffffffffffffffffffffff16815260200190815260200160002060009054906101000a900460ff16905092915050565b600a60019054906101000a900473ffffffffffffffffffffffffffffffffffffffff1673ffffffffffffffffffffffffffffffffffffffff163373ffffffffffffffffffffffffffffffffffffffff161461151257600080fd5b6000600a60006101000a81548160ff021916908315150217905550565b6000801b81565b600080611541611a6f565b905061154e818585611bcd565b600191505092915050565b611569338263ffffffff1661194e565b6000600b548263ffffffff1661157f91906140b6565b90503373ffffffffffffffffffffffffffffffffffffffff166108fc829081150290604051600060405180830381858888f193505050501580156115c7573d6000803e3d6000fd5b505050565b60008082905060006115df86338461213f565b90506115ec86868361217c565b5080925050509392505050565b600061160633848461217c565b905092915050565b600a60019054906101000a900473ffffffffffffffffffffffffffffffffffffffff1681565b7f9f2df0fed2c77648de5860a4cc508cd0818c85b8b8a1ab4ceeef8d981c8956a681565b61166182610e89565b61166a81611cc1565b6116748383611dc7565b50505050565b600061169833846116938561168e90614067565b611eba565b612309565b6001905092915050565b6000600160008473ffffffffffffffffffffffffffffffffffffffff1673ffffffffffffffffffffffffffffffffffffffff16815260200190815260200160002060008373ffffffffffffffffffffffffffffffffffffffff1673ffffffffffffffffffffffffffffffffffffffff16815260200190815260200160002054905092915050565b600073ffffffffffffffffffffffffffffffffffffffff168373ffffffffffffffffffffffffffffffffffffffff160361177b57806002600082825461176f91906140f8565b9250508190555061184e565b60008060008573ffffffffffffffffffffffffffffffffffffffff1673ffffffffffffffffffffffffffffffffffffffff16815260200190815260200160002054905081811015611807578381836040517fe450d38c0000000000000000000000000000000000000000000000000000000081526004016117fe9392919061412c565b60405180910390fd5b8181036000808673ffffffffffffffffffffffffffffffffffffffff1673ffffffffffffffffffffffffffffffffffffffff16815260200190815260200160002081905550505b600073ffffffffffffffffffffffffffffffffffffffff168273ffffffffffffffffffffffffffffffffffffffff160361189757806002600082825403925050819055506118e4565b806000808473ffffffffffffffffffffffffffffffffffffffff1673ffffffffffffffffffffffffffffffffffffffff168152602001908152602001600020600082825401925050819055505b8173ffffffffffffffffffffffffffffffffffffffff168373ffffffffffffffffffffffffffffffffffffffff167fddf252ad1be2c89b69c2b068fc378daa952ba7f163c4a11628f55a4df523b3ef8360405161194191906137fe565b60405180910390a3505050565b600073ffffffffffffffffffffffffffffffffffffffff168273ffffffffffffffffffffffffffffffffffffffff16036119c05760006040517f96c6fd1e0000000000000000000000000000000000000000000000000000000081526004016119b79190613fec565b60405180910390fd5b6119cc82600083611729565b5050565b60006119dd826002612473565b9050919050565b6000808214159050919050565b60006119fd8383612515565b905092915050565b60007f01ffc9a7000000000000000000000000000000000000000000000000000000007bffffffffffffffffffffffffffffffffffffffffffffffffffffffff1916827bffffffffffffffffffffffffffffffffffffffffffffffffffffffff1916149050919050565b600033905090565b611a84838383600161258d565b505050565b6000611a9482611eba565b9050611adf600760008573ffffffffffffffffffffffffffffffffffffffff1673ffffffffffffffffffffffffffffffffffffffff16815260200190815260200160002054826119f1565b600760008573ffffffffffffffffffffffffffffffffffffffff1673ffffffffffffffffffffffffffffffffffffffff16815260200190815260200160002081905550611b2e600954826119f1565b600981905550505050565b6000611b4584846116a2565b90507fffffffffffffffffffffffffffffffffffffffffffffffffffffffffffffffff8114611bc75781811015611bb7578281836040517ffb8f41b2000000000000000000000000000000000000000000000000000000008152600401611bae9392919061412c565b60405180910390fd5b611bc68484848403600061258d565b5b50505050565b600073ffffffffffffffffffffffffffffffffffffffff168373ffffffffffffffffffffffffffffffffffffffff1603611c3f5760006040517f96c6fd1e000000000000000000000000000000000000000000000000000000008152600401611c369190613fec565b60405180910390fd5b600073ffffffffffffffffffffffffffffffffffffffff168273ffffffffffffffffffffffffffffffffffffffff1603611cb15760006040517fec442f05000000000000000000000000000000000000000000000000000000008152600401611ca89190613fec565b60405180910390fd5b611cbc838383611729565b505050565b611cd281611ccd611a6f565b612764565b50565b6000611ce1838361144d565b611dbc576001600c600085815260200190815260200160002060000160008473ffffffffffffffffffffffffffffffffffffffff1673ffffffffffffffffffffffffffffffffffffffff16815260200190815260200160002060006101000a81548160ff021916908315150217905550611d59611a6f565b73ffffffffffffffffffffffffffffffffffffffff168273ffffffffffffffffffffffffffffffffffffffff16847f2f8788117e7eff1d82e926ec794901d17c78024a50270940304540a733656f0d60405160405180910390a460019050611dc1565b600090505b92915050565b6000611dd3838361144d565b15611eaf576000600c600085815260200190815260200160002060000160008473ffffffffffffffffffffffffffffffffffffffff1673ffffffffffffffffffffffffffffffffffffffff16815260200190815260200160002060006101000a81548160ff021916908315150217905550611e4c611a6f565b73ffffffffffffffffffffffffffffffffffffffff168273ffffffffffffffffffffffffffffffffffffffff16847ff6391f5c32d9c69d2a47ea670b442974b53935d1edc7fd64eb21e047a839171b60405160405180910390a460019050611eb4565b600090505b92915050565b6000611ec982600001516127b5565b9050919050565b6000611ee3611edd6127c9565b83612880565b9050919050565b600080600080611efa86866128c1565b925092509250611f0a828261291d565b82935050505092915050565b6060611f21836119e4565b611f3257611f2f60006119d0565b92505b6000839050611f4360028285612a81565b91505092915050565b6060611f588383611f16565b905092915050565b6000611f6c8383612b37565b905092915050565b6000611f7f84612bb0565b611f9057611f8d6000612bbd565b93505b611f99836119e4565b611faa57611fa760006119d0565b92505b611fb3826119e4565b611fc457611fc160006119d0565b91505b6000849050600084905060008490506000611fe26002858585612bd1565b9050809450505050509392505050565b6000611ffe8383612c89565b905092915050565b6000612011826119e4565b6120225761201f60006119d0565b91505b6000829050600061203282612d02565b90506000608073ffffffffffffffffffffffffffffffffffffffff166373cc01546002846040518363ffffffff1660e01b8152600401612073929190614163565b602060405180830381865afa158015612090573d6000803e3d6000fd5b505050506040513d601f19601f820116820180604052508101906120b491906141a8565b90506120bf81612d5f565b9350505050919050565b60606120ff60057f0000000000000000000000000000000000000000000000000000000000000000612d6990919063ffffffff16565b905090565b606061213a60067f0000000000000000000000000000000000000000000000000000000000000000612d6990919063ffffffff16565b905090565b60008061214c8585610e02565b9050600061215a8285612e19565b9050612170868661216b8585611ff2565b612309565b80925050509392505050565b6000806121e46121d4600760008873ffffffffffffffffffffffffffffffffffffffff1673ffffffffffffffffffffffffffffffffffffffff1681526020019081526020016000205485611f6090919063ffffffff16565b846121df60006119d0565b611f74565b905061222f600760008673ffffffffffffffffffffffffffffffffffffffff1673ffffffffffffffffffffffffffffffffffffffff16815260200190815260200160002054826119f1565b600760008673ffffffffffffffffffffffffffffffffffffffff1673ffffffffffffffffffffffffffffffffffffffff168152602001908152602001600020819055506122bb600760008773ffffffffffffffffffffffffffffffffffffffff1673ffffffffffffffffffffffffffffffffffffffff1681526020019081526020016000205482611ff2565b600760008773ffffffffffffffffffffffffffffffffffffffff1673ffffffffffffffffffffffffffffffffffffffff16815260200190815260200160002081905550809150509392505050565b600073ffffffffffffffffffffffffffffffffffffffff168373ffffffffffffffffffffffffffffffffffffffff160361237b5760006040517fe602df050000000000000000000000000000000000000000000000000000000081526004016123729190613fec565b60405180910390fd5b600073ffffffffffffffffffffffffffffffffffffffff168273ffffffffffffffffffffffffffffffffffffffff16036123ed5760006040517f94280d620000000000000000000000000000000000000000000000000000000081526004016123e49190613fec565b60405180910390fd5b80600860008573ffffffffffffffffffffffffffffffffffffffff1673ffffffffffffffffffffffffffffffffffffffff16815260200190815260200160002060008473ffffffffffffffffffffffffffffffffffffffff1673ffffffffffffffffffffffffffffffffffffffff16815260200190815260200160002081905550505050565b60006060608073ffffffffffffffffffffffffffffffffffffffff166319e1c5c461249d86612d02565b856040518363ffffffff1660e01b81526004016124bb9291906141d5565b600060405180830381865afa1580156124d8573d6000803e3d6000fd5b505050506040513d6000823e3d601f19601f820116820180604052508101906125019190614275565b905061250c81612e92565b91505092915050565b6000612520836119e4565b6125315761252e60006119d0565b92505b61253a826119e4565b61254b5761254860006119d0565b91505b60008390506000839050600061257f60028484608073ffffffffffffffffffffffffffffffffffffffff16622df619612ea0565b905080935050505092915050565b600073ffffffffffffffffffffffffffffffffffffffff168473ffffffffffffffffffffffffffffffffffffffff16036125ff5760006040517fe602df050000000000000000000000000000000000000000000000000000000081526004016125f69190613fec565b60405180910390fd5b600073ffffffffffffffffffffffffffffffffffffffff168373ffffffffffffffffffffffffffffffffffffffff16036126715760006040517f94280d620000000000000000000000000000000000000000000000000000000081526004016126689190613fec565b60405180910390fd5b81600160008673ffffffffffffffffffffffffffffffffffffffff1673ffffffffffffffffffffffffffffffffffffffff16815260200190815260200160002060008573ffffffffffffffffffffffffffffffffffffffff1673ffffffffffffffffffffffffffffffffffffffff16815260200190815260200160002081905550801561275e578273ffffffffffffffffffffffffffffffffffffffff168473ffffffffffffffffffffffffffffffffffffffff167f8c5be1e5ebec7d5bd14f71427d1e84f3dd0314c0f7b2291e5b200ac8c7c3b9258460405161275591906137fe565b60405180910390a35b50505050565b61276e828261144d565b6127b15780826040517fe2517d3f0000000000000000000000000000000000000000000000000000000081526004016127a89291906142be565b60405180910390fd5b5050565b60006127c2826002612f34565b9050919050565b60007f000000000000000000000000000000000000000000000000000000000000000073ffffffffffffffffffffffffffffffffffffffff163073ffffffffffffffffffffffffffffffffffffffff1614801561284557507f000000000000000000000000000000000000000000000000000000000000000046145b15612872577f0000000000000000000000000000000000000000000000000000000000000000905061287d565b61287a612fce565b90505b90565b60006040517f190100000000000000000000000000000000000000000000000000000000000081528360028201528260228201526042812091505092915050565b600080600060418451036129065760008060006020870151925060408701519150606087015160001a90506128f888828585613064565b955095509550505050612916565b60006002855160001b9250925092505b9250925092565b60006003811115612931576129306142e7565b5b826003811115612944576129436142e7565b5b0315612a7d576001600381111561295e5761295d6142e7565b5b826003811115612971576129706142e7565b5b036129a8576040517ff645eedf00000000000000000000000000000000000000000000000000000000815260040160405180910390fd5b600260038111156129bc576129bb6142e7565b5b8260038111156129cf576129ce6142e7565b5b03612a14578060001c6040517ffce698f7000000000000000000000000000000000000000000000000000000008152600401612a0b91906137fe565b60405180910390fd5b600380811115612a2757612a266142e7565b5b826003811115612a3a57612a396142e7565b5b03612a7c57806040517fd78bce0c000000000000000000000000000000000000000000000000000000008152600401612a739190613974565b60405180910390fd5b5b5050565b6060608073ffffffffffffffffffffffffffffffffffffffff1663a1848ff385612aaa86612d02565b85604051602001612abb9190614337565b6040516020818303038152906040526040518463ffffffff1660e01b8152600401612ae893929190614352565b600060405180830381865afa158015612b05573d6000803e3d6000fd5b505050506040513d6000823e3d601f19601f82011682018060405250810190612b2e9190614275565b90509392505050565b6000612b42836119e4565b612b5357612b5060006119d0565b92505b612b5c826119e4565b612b6d57612b6a60006119d0565b91505b600083905060008390506000612ba260028484608073ffffffffffffffffffffffffffffffffffffffff1663b9c7a54b612ea0565b905080935050505092915050565b6000808214159050919050565b6000612bca826000612473565b9050919050565b60006060608073ffffffffffffffffffffffffffffffffffffffff1663c2d9695287612bfc88612d02565b612c0588612d02565b612c0e88612d02565b6040518563ffffffff1660e01b8152600401612c2d9493929190614397565b600060405180830381865afa158015612c4a573d6000803e3d6000fd5b505050506040513d6000823e3d601f19601f82011682018060405250810190612c739190614275565b9050612c7e81612e92565b915050949350505050565b6000612c94836119e4565b612ca557612ca260006119d0565b92505b612cae826119e4565b612cbf57612cbc60006119d0565b91505b600083905060008390506000612cf460028484608073ffffffffffffffffffffffffffffffffffffffff1663cc2cbeff612ea0565b905080935050505092915050565b6060602067ffffffffffffffff811115612d1f57612d1e613614565b5b6040519080825280601f01601f191660200182016040528015612d515781602001600182028036833780820191505090505b509050816020820152919050565b6000819050919050565b606060ff60001b8314612d8657612d7f83613158565b9050612e13565b818054612d9290614036565b80601f0160208091040260200160405190810160405280929190818152602001828054612dbe90614036565b8015612e0b5780601f10612de057610100808354040283529160200191612e0b565b820191906000526020600020905b815481529060010190602001808311612dee57829003601f168201915b505050505090505b92915050565b6000612e24836119e4565b612e3557612e3260006119d0565b92505b612e3e826119e4565b612e4f57612e4c60006119d0565b91505b600083905060008390506000612e8460028484608073ffffffffffffffffffffffffffffffffffffffff16635211c679612ea0565b905080935050505092915050565b600060208201519050919050565b60006060838388612eb089612d02565b612eb989612d02565b6040518463ffffffff1660e01b8152600401612ed793929190614352565b600060405180830381865afa158015612ef4573d6000803e3d6000fd5b505050506040513d6000823e3d601f19601f82011682018060405250810190612f1d9190614275565b9050612f28816131cc565b91505095945050505050565b60006060608073ffffffffffffffffffffffffffffffffffffffff16635fa55ca784866040518363ffffffff1660e01b8152600401612f74929190614163565b600060405180830381865afa158015612f91573d6000803e3d6000fd5b505050506040513d6000823e3d601f19601f82011682018060405250810190612fba9190614275565b9050612fc581612e92565b91505092915050565b60007f8b73c3c69bb8fe3d512ecc4cf759cc79239f7b179b0ffacaa9a75d522b39400f7f00000000000000000000000000000000000000000000000000000000000000007f000000000000000000000000000000000000000000000000000000000000000046306040516020016130499594939291906143f1565b60405160208183030381529060405280519060200120905090565b60008060007f7fffffffffffffffffffffffffffffff5d576e7357a4501ddfe92f46681b20a08460001c11156130a457600060038592509250925061314e565b6000600188888888604051600081526020016040526040516130c99493929190614444565b6020604051602081039080840390855afa1580156130eb573d6000803e3d6000fd5b505050602060405103519050600073ffffffffffffffffffffffffffffffffffffffff168173ffffffffffffffffffffffffffffffffffffffff160361313f57600060016000801b9350935093505061314e565b8060008060001b935093509350505b9450945094915050565b60606000613165836131da565b90506000602067ffffffffffffffff81111561318457613183613614565b5b6040519080825280601f01601f1916602001820160405280156131b65781602001600182028036833780820191505090505b5090508181528360208201528092505050919050565b600060208201519050919050565b60008060ff8360001c169050601f811115613221576040517fb3512b0c00000000000000000000000000000000000000000000000000000000815260040160405180910390fd5b80915050919050565b600081905092915050565b7f53656e6420000000000000000000000000000000000000000000000000000000600082015250565b600061326b60058361322a565b915061327682613235565b600582019050919050565b600081519050919050565b60005b838110156132aa57808201518184015260208101905061328f565b60008484015250505050565b60006132c182613281565b6132cb818561322a565b93506132db81856020860161328c565b80840191505092915050565b7f20746f2062757920746f6b656e73000000000000000000000000000000000000600082015250565b600061331d600e8361322a565b9150613328826132e7565b600e82019050919050565b600061333e8261325e565b915061334a82846132b6565b915061335582613310565b915081905092915050565b600082825260208201905092915050565b6000601f19601f8301169050919050565b600061338d82613281565b6133978185613360565b93506133a781856020860161328c565b6133b081613371565b840191505092915050565b600060208201905081810360008301526133d58184613382565b905092915050565b6000819050919050565b7f4e487b7100000000000000000000000000000000000000000000000000000000600052601260045260246000fd5b7f4e487b7100000000000000000000000000000000000000000000000000000000600052601160045260246000fd5b6000613450826133dd565b915061345b836133dd565b92508261346b5761346a6133e7565b5b828204905092915050565b6000604051905090565b600080fd5b600080fd5b60007fffffffff0000000000000000000000000000000000000000000000000000000082169050919050565b6134bf8161348a565b81146134ca57600080fd5b50565b6000813590506134dc816134b6565b92915050565b6000602082840312156134f8576134f7613480565b5b6000613506848285016134cd565b91505092915050565b60008115159050919050565b6135248161350f565b82525050565b600060208201905061353f600083018461351b565b92915050565b600073ffffffffffffffffffffffffffffffffffffffff82169050919050565b600061357082613545565b9050919050565b61358081613565565b811461358b57600080fd5b50565b60008135905061359d81613577565b92915050565b6135ac816133dd565b81146135b757600080fd5b50565b6000813590506135c9816135a3565b92915050565b600080604083850312156135e6576135e5613480565b5b60006135f48582860161358e565b9250506020613605858286016135ba565b9150509250929050565b600080fd5b7f4e487b7100000000000000000000000000000000000000000000000000000000600052604160045260246000fd5b61364c82613371565b810181811067ffffffffffffffff8211171561366b5761366a613614565b5b80604052505050565b600061367e613476565b905061368a8282613643565b919050565b600080fd5b600080fd5b600080fd5b600067ffffffffffffffff8211156136b9576136b8613614565b5b6136c282613371565b9050602081019050919050565b82818337600083830152505050565b60006136f16136ec8461369e565b613674565b90508281526020810184848401111561370d5761370c613699565b5b6137188482856136cf565b509392505050565b600082601f83011261373557613734613694565b5b81356137458482602086016136de565b91505092915050565b6000602082840312156137645761376361360f565b5b61376e6020613674565b9050600082013567ffffffffffffffff81111561378e5761378d61368f565b5b61379a84828501613720565b60008301525092915050565b6000602082840312156137bc576137bb613480565b5b600082013567ffffffffffffffff8111156137da576137d9613485565b5b6137e68482850161374e565b91505092915050565b6137f8816133dd565b82525050565b600060208201905061381360008301846137ef565b92915050565b60008060006060848603121561383257613831613480565b5b60006138408682870161358e565b93505060206138518682870161358e565b9250506040613862868287016135ba565b9150509250925092565b6000806040838503121561388357613882613480565b5b60006138918582860161358e565b92505060206138a28582860161358e565b9150509250929050565b6000819050919050565b60006138d16138cc6138c7846133dd565b6138ac565b6133dd565b9050919050565b6138e1816138b6565b82525050565b60006020820190506138fc60008301846138d8565b92915050565b6000819050919050565b61391581613902565b811461392057600080fd5b50565b6000813590506139328161390c565b92915050565b60006020828403121561394e5761394d613480565b5b600061395c84828501613923565b91505092915050565b61396e81613902565b82525050565b60006020820190506139896000830184613965565b92915050565b600080604083850312156139a6576139a5613480565b5b60006139b485828601613923565b92505060206139c58582860161358e565b9150509250929050565b600060ff82169050919050565b6139e5816139cf565b82525050565b6000602082019050613a0060008301846139dc565b92915050565b600080fd5b600060208284031215613a2157613a20613a06565b5b81905092915050565b60008060408385031215613a4157613a40613480565b5b6000613a4f8582860161358e565b925050602083013567ffffffffffffffff811115613a7057613a6f613485565b5b613a7c85828601613a0b565b9150509250929050565b60008060408385031215613a9d57613a9c613480565b5b6000613aab8582860161358e565b925050602083013567ffffffffffffffff811115613acc57613acb613485565b5b613ad88582860161374e565b9150509250929050565b600060408284031215613af857613af7613a06565b5b81905092915050565b60008060408385031215613b1857613b17613480565b5b6000613b268582860161358e565b925050602083013567ffffffffffffffff811115613b4757613b46613485565b5b613b5385828601613ae2565b9150509250929050565b600081519050919050565b600082825260208201905092915050565b6000613b8482613b5d565b613b8e8185613b68565b9350613b9e81856020860161328c565b613ba781613371565b840191505092915050565b60006020820190508181036000830152613bcc8184613b79565b905092915050565b600060408284031215613bea57613be961360f565b5b613bf46040613674565b90506000613c0484828501613923565b600083015250602082013567ffffffffffffffff811115613c2857613c2761368f565b5b613c3484828501613720565b60208301525092915050565b60008060408385031215613c5757613c56613480565b5b6000613c658582860161358e565b925050602083013567ffffffffffffffff811115613c8657613c85613485565b5b613c9285828601613bd4565b9150509250929050565b600063ffffffff82169050919050565b613cb581613c9c565b8114613cc057600080fd5b50565b600081359050613cd281613cac565b92915050565b600060208284031215613cee57613ced613480565b5b6000613cfc84828501613cc3565b91505092915050565b600060208284031215613d1b57613d1a613480565b5b6000613d298482850161358e565b91505092915050565b60007fff0000000000000000000000000000000000000000000000000000000000000082169050919050565b613d6781613d32565b82525050565b613d7681613565565b82525050565b600081519050919050565b600082825260208201905092915050565b6000819050602082019050919050565b613db1816133dd565b82525050565b6000613dc38383613da8565b60208301905092915050565b6000602082019050919050565b6000613de782613d7c565b613df18185613d87565b9350613dfc83613d98565b8060005b83811015613e2d578151613e148882613db7565b9750613e1f83613dcf565b925050600181019050613e00565b5085935050505092915050565b600060e082019050613e4f600083018a613d5e565b8181036020830152613e618189613382565b90508181036040830152613e758188613382565b9050613e8460608301876137ef565b613e916080830186613d6d565b613e9e60a0830185613965565b81810360c0830152613eb08184613ddc565b905098975050505050505050565b600080600060608486031215613ed757613ed6613480565b5b6000613ee58682870161358e565b9350506020613ef68682870161358e565b925050604084013567ffffffffffffffff811115613f1757613f16613485565b5b613f2386828701613a0b565b9150509250925092565b613f36816133dd565b8114613f4157600080fd5b50565b600081359050613f5381613f2d565b92915050565b600080600060608486031215613f7257613f71613480565b5b6000613f808682870161358e565b9350506020613f918682870161358e565b9250506040613fa286828701613f44565b9150509250925092565b60008060408385031215613fc357613fc2613480565b5b6000613fd18582860161358e565b9250506020613fe285828601613f44565b9150509250929050565b60006020820190506140016000830184613d6d565b92915050565b7f4e487b7100000000000000000000000000000000000000000000000000000000600052602260045260246000fd5b6000600282049050600182168061404e57607f821691505b60208210810361406157614060614007565b5b50919050565b6000614073368361374e565b9050919050565b60006140863683613bd4565b9050919050565b60006040820190506140a26000830185613965565b6140af6020830184613965565b9392505050565b60006140c1826133dd565b91506140cc836133dd565b92508282026140da816133dd565b915082820484148315176140f1576140f0613416565b5b5092915050565b6000614103826133dd565b915061410e836133dd565b925082820190508082111561412657614125613416565b5b92915050565b60006060820190506141416000830186613d6d565b61414e60208301856137ef565b61415b60408301846137ef565b949350505050565b600060408201905061417860008301856139dc565b818103602083015261418a8184613b79565b90509392505050565b6000815190506141a2816135a3565b92915050565b6000602082840312156141be576141bd613480565b5b60006141cc84828501614193565b91505092915050565b600060408201905081810360008301526141ef8185613b79565b90506141fe60208301846139dc565b9392505050565b60006142186142138461369e565b613674565b90508281526020810184848401111561423457614233613699565b5b61423f84828561328c565b509392505050565b600082601f83011261425c5761425b613694565b5b815161426c848260208601614205565b91505092915050565b60006020828403121561428b5761428a613480565b5b600082015167ffffffffffffffff8111156142a9576142a8613485565b5b6142b584828501614247565b91505092915050565b60006040820190506142d36000830185613d6d565b6142e06020830184613965565b9392505050565b7f4e487b7100000000000000000000000000000000000000000000000000000000600052602160045260246000fd5b6000819050919050565b61433161432c82613902565b614316565b82525050565b60006143438284614320565b60208201915081905092915050565b600060608201905061436760008301866139dc565b81810360208301526143798185613b79565b9050818103604083015261438d8184613b79565b9050949350505050565b60006080820190506143ac60008301876139dc565b81810360208301526143be8186613b79565b905081810360408301526143d28185613b79565b905081810360608301526143e68184613b79565b905095945050505050565b600060a0820190506144066000830188613965565b6144136020830187613965565b6144206040830186613965565b61442d60608301856137ef565b61443a6080830184613d6d565b9695505050505050565b60006080820190506144596000830187613965565b61446660208301866139dc565b6144736040830185613965565b6144806060830184613965565b9594505050505056fea2646970667358221220e7a9eed1e542e0804ca29d656b7dfa0cb5ef05baf0d16f854dc9036102e1ce7964736f6c63430008140033",
  "linkReferences": {},
  "deployedLinkReferences": {}
}