{
  "address": "0x36Ac5e2521aB88d417aFF6C6c6d8F82b0E2Ec6e6",
  "abi": [
    {
      "inputs": [
        {
          "internalType": "string",
          "name": "name",
          "type": "string"
        },
        {
          "internalType": "string",
          "name": "symbol",
          "type": "string"
        },
        {
          "internalType": "uint256",
          "name": "initialBalance",
          "type": "uint256"
        },
        {
          "components": [
            {
              "internalType": "bytes",
              "name": "data",
              "type": "bytes"
            }
          ],
          "internalType": "struct inEuint32",
          "name": "encryptedBalance",
          "type": "tuple"
        }
      ],
      "stateMutability": "nonpayable",
      "type": "constructor"
    },
    {
      "inputs": [],
      "name": "AccessControlBadConfirmation",
      "type": "error"
    },
    {
      "inputs": [
        {
          "internalType": "address",
          "name": "account",
          "type": "address"
        },
        {
          "internalType": "bytes32",
          "name": "neededRole",
          "type": "bytes32"
        }
      ],
      "name": "AccessControlUnauthorizedAccount",
      "type": "error"
    },
    {
      "inputs": [],
      "name": "ECDSAInvalidSignature",
      "type": "error"
    },
    {
      "inputs": [
        {
          "internalType": "uint256",
          "name": "length",
          "type": "uint256"
        }
      ],
      "name": "ECDSAInvalidSignatureLength",
      "type": "error"
    },
    {
      "inputs": [
        {
          "internalType": "bytes32",
          "name": "s",
          "type": "bytes32"
        }
      ],
      "name": "ECDSAInvalidSignatureS",
      "type": "error"
    },
    {
      "inputs": [
        {
          "internalType": "address",
          "name": "spender",
          "type": "address"
        },
        {
          "internalType": "uint256",
          "name": "allowance",
          "type": "uint256"
        },
        {
          "internalType": "uint256",
          "name": "needed",
          "type": "uint256"
        }
      ],
      "name": "ERC20InsufficientAllowance",
      "type": "error"
    },
    {
      "inputs": [
        {
          "internalType": "address",
          "name": "sender",
          "type": "address"
        },
        {
          "internalType": "uint256",
          "name": "balance",
          "type": "uint256"
        },
        {
          "internalType": "uint256",
          "name": "needed",
          "type": "uint256"
        }
      ],
      "name": "ERC20InsufficientBalance",
      "type": "error"
    },
    {
      "inputs": [
        {
          "internalType": "address",
          "name": "approver",
          "type": "address"
        }
      ],
      "name": "ERC20InvalidApprover",
      "type": "error"
    },
    {
      "inputs": [
        {
          "internalType": "address",
          "name": "receiver",
          "type": "address"
        }
      ],
      "name": "ERC20InvalidReceiver",
      "type": "error"
    },
    {
      "inputs": [
        {
          "internalType": "address",
          "name": "sender",
          "type": "address"
        }
      ],
      "name": "ERC20InvalidSender",
      "type": "error"
    },
    {
      "inputs": [
        {
          "internalType": "address",
          "name": "spender",
          "type": "address"
        }
      ],
      "name": "ERC20InvalidSpender",
      "type": "error"
    },
    {
      "inputs": [],
      "name": "ErrorInsufficientFunds",
      "type": "error"
    },
    {
      "inputs": [],
      "name": "InvalidShortString",
      "type": "error"
    },
    {
      "inputs": [],
      "name": "SignerNotMessageSender",
      "type": "error"
    },
    {
      "inputs": [],
      "name": "SignerNotOwner",
      "type": "error"
    },
    {
      "inputs": [
        {
          "internalType": "string",
          "name": "str",
          "type": "string"
        }
      ],
      "name": "StringTooLong",
      "type": "error"
    },
    {
      "anonymous": false,
      "inputs": [
        {
          "indexed": true,
          "internalType": "address",
          "name": "owner",
          "type": "address"
        },
        {
          "indexed": true,
          "internalType": "address",
          "name": "spender",
          "type": "address"
        },
        {
          "indexed": false,
          "internalType": "uint256",
          "name": "value",
          "type": "uint256"
        }
      ],
      "name": "Approval",
      "type": "event"
    },
    {
      "anonymous": false,
      "inputs": [
        {
          "indexed": true,
          "internalType": "address",
          "name": "owner",
          "type": "address"
        },
        {
          "indexed": true,
          "internalType": "address",
          "name": "spender",
          "type": "address"
        }
      ],
      "name": "ApprovalEncrypted",
      "type": "event"
    },
    {
      "anonymous": false,
      "inputs": [],
      "name": "EIP712DomainChanged",
      "type": "event"
    },
    {
      "anonymous": false,
      "inputs": [
        {
          "indexed": true,
          "internalType": "bytes32",
          "name": "role",
          "type": "bytes32"
        },
        {
          "indexed": true,
          "internalType": "bytes32",
          "name": "previousAdminRole",
          "type": "bytes32"
        },
        {
          "indexed": true,
          "internalType": "bytes32",
          "name": "newAdminRole",
          "type": "bytes32"
        }
      ],
      "name": "RoleAdminChanged",
      "type": "event"
    },
    {
      "anonymous": false,
      "inputs": [
        {
          "indexed": true,
          "internalType": "bytes32",
          "name": "role",
          "type": "bytes32"
        },
        {
          "indexed": true,
          "internalType": "address",
          "name": "account",
          "type": "address"
        },
        {
          "indexed": true,
          "internalType": "address",
          "name": "sender",
          "type": "address"
        }
      ],
      "name": "RoleGranted",
      "type": "event"
    },
    {
      "anonymous": false,
      "inputs": [
        {
          "indexed": true,
          "internalType": "bytes32",
          "name": "role",
          "type": "bytes32"
        },
        {
          "indexed": true,
          "internalType": "address",
          "name": "account",
          "type": "address"
        },
        {
          "indexed": true,
          "internalType": "address",
          "name": "sender",
          "type": "address"
        }
      ],
      "name": "RoleRevoked",
      "type": "event"
    },
    {
      "anonymous": false,
      "inputs": [
        {
          "indexed": true,
          "internalType": "address",
          "name": "from",
          "type": "address"
        },
        {
          "indexed": true,
          "internalType": "address",
          "name": "to",
          "type": "address"
        },
        {
          "indexed": false,
          "internalType": "uint256",
          "name": "value",
          "type": "uint256"
        }
      ],
      "name": "Transfer",
      "type": "event"
    },
    {
      "anonymous": false,
      "inputs": [
        {
          "indexed": true,
          "internalType": "address",
          "name": "from",
          "type": "address"
        },
        {
          "indexed": true,
          "internalType": "address",
          "name": "to",
          "type": "address"
        }
      ],
      "name": "TransferEncrypted",
      "type": "event"
    },
    {
      "inputs": [],
      "name": "DEFAULT_ADMIN_ROLE",
      "outputs": [
        {
          "internalType": "bytes32",
          "name": "",
          "type": "bytes32"
        }
      ],
      "stateMutability": "view",
      "type": "function"
    },
    {
      "inputs": [],
      "name": "MINTER_ROLE",
      "outputs": [
        {
          "internalType": "bytes32",
          "name": "",
          "type": "bytes32"
        }
      ],
      "stateMutability": "view",
      "type": "function"
    },
    {
      "inputs": [
        {
          "internalType": "address",
          "name": "owner",
          "type": "address"
        },
        {
          "internalType": "address",
          "name": "spender",
          "type": "address"
        }
      ],
      "name": "_allowanceEncrypted",
      "outputs": [
        {
          "internalType": "euint32",
          "name": "",
          "type": "uint256"
        }
      ],
      "stateMutability": "view",
      "type": "function"
    },
    {
      "inputs": [
        {
          "internalType": "address",
          "name": "owner",
          "type": "address"
        },
        {
          "internalType": "address",
          "name": "spender",
          "type": "address"
        }
      ],
      "name": "allowance",
      "outputs": [
        {
          "internalType": "uint256",
          "name": "",
          "type": "uint256"
        }
      ],
      "stateMutability": "view",
      "type": "function"
    },
    {
      "inputs": [
        {
          "internalType": "address",
          "name": "spender",
          "type": "address"
        },
        {
          "components": [
            {
              "internalType": "bytes32",
              "name": "publicKey",
              "type": "bytes32"
            },
            {
              "internalType": "bytes",
              "name": "signature",
              "type": "bytes"
            }
          ],
          "internalType": "struct Permission",
          "name": "permission",
          "type": "tuple"
        }
      ],
      "name": "allowanceEncrypted",
      "outputs": [
        {
          "internalType": "bytes",
          "name": "",
          "type": "bytes"
        }
      ],
      "stateMutability": "view",
      "type": "function"
    },
    {
      "inputs": [
        {
          "internalType": "address",
          "name": "spender",
          "type": "address"
        },
        {
          "internalType": "uint256",
          "name": "value",
          "type": "uint256"
        }
      ],
      "name": "approve",
      "outputs": [
        {
          "internalType": "bool",
          "name": "",
          "type": "bool"
        }
      ],
      "stateMutability": "nonpayable",
      "type": "function"
    },
    {
      "inputs": [
        {
          "internalType": "address",
          "name": "spender",
          "type": "address"
        },
        {
          "components": [
            {
              "internalType": "bytes",
              "name": "data",
              "type": "bytes"
            }
          ],
          "internalType": "struct inEuint32",
          "name": "value",
          "type": "tuple"
        }
      ],
      "name": "approveEncrypted",
      "outputs": [
        {
          "internalType": "bool",
          "name": "",
          "type": "bool"
        }
      ],
      "stateMutability": "nonpayable",
      "type": "function"
    },
    {
      "inputs": [
        {
          "internalType": "address",
          "name": "account",
          "type": "address"
        }
      ],
      "name": "balanceOf",
      "outputs": [
        {
          "internalType": "uint256",
          "name": "",
          "type": "uint256"
        }
      ],
      "stateMutability": "view",
      "type": "function"
    },
    {
      "inputs": [
        {
          "internalType": "address",
          "name": "account",
          "type": "address"
        },
        {
          "components": [
            {
              "internalType": "bytes32",
              "name": "publicKey",
              "type": "bytes32"
            },
            {
              "internalType": "bytes",
              "name": "signature",
              "type": "bytes"
            }
          ],
          "internalType": "struct Permission",
          "name": "auth",
          "type": "tuple"
        }
      ],
      "name": "balanceOfEncrypted",
      "outputs": [
        {
          "internalType": "bytes",
          "name": "",
          "type": "bytes"
        }
      ],
      "stateMutability": "view",
      "type": "function"
    },
    {
      "inputs": [],
      "name": "decimals",
      "outputs": [
        {
          "internalType": "uint8",
          "name": "",
          "type": "uint8"
        }
      ],
      "stateMutability": "view",
      "type": "function"
    },
    {
      "inputs": [],
      "name": "eip712Domain",
      "outputs": [
        {
          "internalType": "bytes1",
          "name": "fields",
          "type": "bytes1"
        },
        {
          "internalType": "string",
          "name": "name",
          "type": "string"
        },
        {
          "internalType": "string",
          "name": "version",
          "type": "string"
        },
        {
          "internalType": "uint256",
          "name": "chainId",
          "type": "uint256"
        },
        {
          "internalType": "address",
          "name": "verifyingContract",
          "type": "address"
        },
        {
          "internalType": "bytes32",
          "name": "salt",
          "type": "bytes32"
        },
        {
          "internalType": "uint256[]",
          "name": "extensions",
          "type": "uint256[]"
        }
      ],
      "stateMutability": "view",
      "type": "function"
    },
    {
      "inputs": [
        {
          "internalType": "bytes32",
          "name": "role",
          "type": "bytes32"
        }
      ],
      "name": "getRoleAdmin",
      "outputs": [
        {
          "internalType": "bytes32",
          "name": "",
          "type": "bytes32"
        }
      ],
      "stateMutability": "view",
      "type": "function"
    },
    {
      "inputs": [
        {
          "internalType": "bytes32",
          "name": "role",
          "type": "bytes32"
        },
        {
          "internalType": "address",
          "name": "account",
          "type": "address"
        }
      ],
      "name": "grantRole",
      "outputs": [],
      "stateMutability": "nonpayable",
      "type": "function"
    },
    {
      "inputs": [
        {
          "internalType": "bytes32",
          "name": "role",
          "type": "bytes32"
        },
        {
          "internalType": "address",
          "name": "account",
          "type": "address"
        }
      ],
      "name": "hasRole",
      "outputs": [
        {
          "internalType": "bool",
          "name": "",
          "type": "bool"
        }
      ],
      "stateMutability": "view",
      "type": "function"
    },
    {
      "inputs": [
        {
          "internalType": "address",
          "name": "recipient",
          "type": "address"
        },
        {
          "components": [
            {
              "internalType": "bytes",
              "name": "data",
              "type": "bytes"
            }
          ],
          "internalType": "struct inEuint32",
          "name": "amount",
          "type": "tuple"
        }
      ],
      "name": "mintEncrypted",
      "outputs": [],
      "stateMutability": "nonpayable",
      "type": "function"
    },
    {
      "inputs": [],
      "name": "name",
      "outputs": [
        {
          "internalType": "string",
          "name": "",
          "type": "string"
        }
      ],
      "stateMutability": "view",
      "type": "function"
    },
    {
      "inputs": [
        {
          "internalType": "bytes32",
          "name": "role",
          "type": "bytes32"
        },
        {
          "internalType": "address",
          "name": "callerConfirmation",
          "type": "address"
        }
      ],
      "name": "renounceRole",
      "outputs": [],
      "stateMutability": "nonpayable",
      "type": "function"
    },
    {
      "inputs": [
        {
          "internalType": "bytes32",
          "name": "role",
          "type": "bytes32"
        },
        {
          "internalType": "address",
          "name": "account",
          "type": "address"
        }
      ],
      "name": "revokeRole",
      "outputs": [],
      "stateMutability": "nonpayable",
      "type": "function"
    },
    {
      "inputs": [
        {
          "internalType": "bytes4",
          "name": "interfaceId",
          "type": "bytes4"
        }
      ],
      "name": "supportsInterface",
      "outputs": [
        {
          "internalType": "bool",
          "name": "",
          "type": "bool"
        }
      ],
      "stateMutability": "view",
      "type": "function"
    },
    {
      "inputs": [],
      "name": "symbol",
      "outputs": [
        {
          "internalType": "string",
          "name": "",
          "type": "string"
        }
      ],
      "stateMutability": "view",
      "type": "function"
    },
    {
      "inputs": [],
      "name": "totalSupply",
      "outputs": [
        {
          "internalType": "uint256",
          "name": "",
          "type": "uint256"
        }
      ],
      "stateMutability": "view",
      "type": "function"
    },
    {
      "inputs": [
        {
          "internalType": "address",
          "name": "to",
          "type": "address"
        },
        {
          "internalType": "uint256",
          "name": "value",
          "type": "uint256"
        }
      ],
      "name": "transfer",
      "outputs": [
        {
          "internalType": "bool",
          "name": "",
          "type": "bool"
        }
      ],
      "stateMutability": "nonpayable",
      "type": "function"
    },
    {
      "inputs": [
        {
          "internalType": "address",
          "name": "to",
          "type": "address"
        },
        {
          "components": [
            {
              "internalType": "bytes",
              "name": "data",
              "type": "bytes"
            }
          ],
          "internalType": "struct inEuint32",
          "name": "encryptedAmount",
          "type": "tuple"
        }
      ],
      "name": "transferEncrypted",
      "outputs": [
        {
          "internalType": "euint32",
          "name": "",
          "type": "uint256"
        }
      ],
      "stateMutability": "nonpayable",
      "type": "function"
    },
    {
      "inputs": [
        {
          "internalType": "address",
          "name": "to",
          "type": "address"
        },
        {
          "internalType": "euint32",
          "name": "amount",
          "type": "uint256"
        }
      ],
      "name": "transferEncrypted",
      "outputs": [
        {
          "internalType": "euint32",
          "name": "",
          "type": "uint256"
        }
      ],
      "stateMutability": "nonpayable",
      "type": "function"
    },
    {
      "inputs": [
        {
          "internalType": "address",
          "name": "from",
          "type": "address"
        },
        {
          "internalType": "address",
          "name": "to",
          "type": "address"
        },
        {
          "internalType": "uint256",
          "name": "value",
          "type": "uint256"
        }
      ],
      "name": "transferFrom",
      "outputs": [
        {
          "internalType": "bool",
          "name": "",
          "type": "bool"
        }
      ],
      "stateMutability": "nonpayable",
      "type": "function"
    },
    {
      "inputs": [
        {
          "internalType": "address",
          "name": "from",
          "type": "address"
        },
        {
          "internalType": "address",
          "name": "to",
          "type": "address"
        },
        {
          "components": [
            {
              "internalType": "bytes",
              "name": "data",
              "type": "bytes"
            }
          ],
          "internalType": "struct inEuint32",
          "name": "value",
          "type": "tuple"
        }
      ],
      "name": "transferFromEncrypted",
      "outputs": [
        {
          "internalType": "euint32",
          "name": "",
          "type": "uint256"
        }
      ],
      "stateMutability": "nonpayable",
      "type": "function"
    },
    {
      "inputs": [
        {
          "internalType": "address",
          "name": "from",
          "type": "address"
        },
        {
          "internalType": "address",
          "name": "to",
          "type": "address"
        },
        {
          "internalType": "euint32",
          "name": "value",
          "type": "uint256"
        }
      ],
      "name": "transferFromEncrypted",
      "outputs": [
        {
          "internalType": "euint32",
          "name": "",
          "type": "uint256"
        }
      ],
      "stateMutability": "nonpayable",
      "type": "function"
    },
    {
      "inputs": [
        {
          "internalType": "uint32",
          "name": "amount",
          "type": "uint32"
        }
      ],
      "name": "unwrap",
      "outputs": [],
      "stateMutability": "nonpayable",
      "type": "function"
    },
    {
      "inputs": [
        {
          "internalType": "uint32",
          "name": "amount",
          "type": "uint32"
        }
      ],
      "name": "wrap",
      "outputs": [],
      "stateMutability": "nonpayable",
      "type": "function"
    }
  ],
  "transactionHash": "0x38db0361f39b82e2916a360c2a8cbb309c7a69ecbe5a0e3c8b11b41e24fc3780",
  "args": [
    "token",
    "FHE",
    10000000,
    {
      "data": {
        "0": 4,
        "1": 8,
        "2": 0,
        "3": 0,
        "4": 0,
        "5": 0,
        "6": 0,
        "7": 0,
        "8": 6,
        "9": 190,
        "10": 75,
        "11": 185,
        "12": 11,
        "13": 208,
        "14": 235,
        "15": 107,
        "16": 135,
        "17": 39,
        "18": 216,
        "19": 37,
        "20": 163,
        "21": 86,
        "22": 6,
        "23": 129,
        "24": 108,
        "25": 25,
        "26": 64,
        "27": 35,
        "28": 22,
        "29": 234,
        "30": 222,
        "31": 201,
        "32": 217,
        "33": 116,
        "34": 156,
        "35": 33,
        "36": 104,
        "37": 200,
        "38": 127,
        "39": 60,
        "40": 34,
        "41": 118,
        "42": 47,
        "43": 207,
        "44": 48,
        "45": 231,
        "46": 213,
        "47": 233,
        "48": 195,
        "49": 165,
        "50": 89,
        "51": 242,
        "52": 26,
        "53": 60,
        "54": 216,
        "55": 102,
        "56": 90,
        "57": 188,
        "58": 84,
        "59": 15,
        "60": 255,
        "61": 27,
        "62": 104,
        "63": 94,
        "64": 67,
        "65": 161,
        "66": 177,
        "67": 147,
        "68": 181,
        "69": 154,
        "70": 154,
        "71": 141,
        "72": 137,
        "73": 78,
        "74": 130,
        "75": 13,
        "76": 2,
        "77": 90,
        "78": 37,
        "79": 15,
        "80": 89,
        "81": 38,
        "82": 45,
        "83": 234,
        "84": 224,
        "85": 84,
        "86": 176,
        "87": 42,
        "88": 35,
        "89": 205,
        "90": 62,
        "91": 137,
        "92": 237,
        "93": 249,
        "94": 152,
        "95": 229,
        "96": 154,
        "97": 41,
        "98": 183,
        "99": 197,
        "100": 237,
        "101": 181,
        "102": 213,
        "103": 152,
        "104": 250,
        "105": 93,
        "106": 145,
        "107": 7,
        "108": 112,
        "109": 78,
        "110": 34,
        "111": 217,
        "112": 250,
        "113": 66,
        "114": 174,
        "115": 83,
        "116": 128,
        "117": 86,
        "118": 39,
        "119": 214,
        "120": 15,
        "121": 98,
        "122": 142,
        "123": 191,
        "124": 4,
        "125": 145,
        "126": 110,
        "127": 137,
        "128": 255,
        "129": 133,
        "130": 221,
        "131": 207,
        "132": 31,
        "133": 139,
        "134": 128,
        "135": 124,
        "136": 212,
        "137": 64,
        "138": 88,
        "139": 187,
        "140": 58,
        "141": 234,
        "142": 150,
        "143": 246,
        "144": 30,
        "145": 4,
        "146": 120,
        "147": 197,
        "148": 229,
        "149": 189,
        "150": 222,
        "151": 132,
        "152": 136,
        "153": 172,
        "154": 179,
        "155": 227,
        "156": 171,
        "157": 230,
        "158": 120,
        "159": 245,
        "160": 58,
        "161": 150,
        "162": 67,
        "163": 130,
        "164": 63,
        "165": 232,
        "166": 101,
        "167": 123,
        "168": 241,
        "169": 150,
        "170": 250,
        "171": 80,
        "172": 112,
        "173": 139,
        "174": 126,
        "175": 52,
        "176": 235,
        "177": 216,
        "178": 92,
        "179": 111,
        "180": 111,
        "181": 198,
        "182": 188,
        "183": 91,
        "184": 195,
        "185": 170,
        "186": 250,
        "187": 30,
        "188": 54,
        "189": 180,
        "190": 76,
        "191": 133,
        "192": 188,
        "193": 198,
        "194": 119,
        "195": 28,
        "196": 51,
        "197": 63,
        "198": 51,
        "199": 5,
        "200": 97,
        "201": 24,
        "202": 30,
        "203": 111,
        "204": 122,
        "205": 10,
        "206": 204,
        "207": 36,
        "208": 97,
        "209": 2,
        "210": 55,
        "211": 46,
        "212": 113,
        "213": 74,
        "214": 17,
        "215": 176,
        "216": 242,
        "217": 70,
        "218": 233,
        "219": 50,
        "220": 252,
        "221": 137,
        "222": 170,
        "223": 176,
        "224": 84,
        "225": 177,
        "226": 163,
        "227": 197,
        "228": 141,
        "229": 103,
        "230": 233,
        "231": 51,
        "232": 189,
        "233": 182,
        "234": 248,
        "235": 86,
        "236": 13,
        "237": 5,
        "238": 180,
        "239": 161,
        "240": 164,
        "241": 174,
        "242": 243,
        "243": 82,
        "244": 146,
        "245": 197,
        "246": 81,
        "247": 18,
        "248": 236,
        "249": 66,
        "250": 90,
        "251": 173,
        "252": 29,
        "253": 106,
        "254": 205,
        "255": 239,
        "256": 75,
        "257": 103,
        "258": 19,
        "259": 3,
        "260": 150,
        "261": 23,
        "262": 154,
        "263": 139,
        "264": 15,
        "265": 176,
        "266": 154,
        "267": 201,
        "268": 74,
        "269": 41,
        "270": 143,
        "271": 190,
        "272": 219,
        "273": 137,
        "274": 29,
        "275": 146,
        "276": 143,
        "277": 9,
        "278": 70,
        "279": 160,
        "280": 61,
        "281": 59,
        "282": 131,
        "283": 216,
        "284": 183,
        "285": 37,
        "286": 189,
        "287": 205,
        "288": 210,
        "289": 139,
        "290": 141,
        "291": 226,
        "292": 204,
        "293": 110,
        "294": 46,
        "295": 102,
        "296": 48,
        "297": 36,
        "298": 222,
        "299": 144,
        "300": 115,
        "301": 132,
        "302": 167,
        "303": 2,
        "304": 189,
        "305": 234,
        "306": 130,
        "307": 240,
        "308": 22,
        "309": 140,
        "310": 177,
        "311": 130,
        "312": 104,
        "313": 216,
        "314": 232,
        "315": 146,
        "316": 87,
        "317": 20,
        "318": 216,
        "319": 243,
        "320": 95,
        "321": 130,
        "322": 155,
        "323": 253,
        "324": 129,
        "325": 101,
        "326": 211,
        "327": 232,
        "328": 158,
        "329": 126,
        "330": 187,
        "331": 11,
        "332": 216,
        "333": 113,
        "334": 200,
        "335": 145,
        "336": 88,
        "337": 52,
        "338": 232,
        "339": 129,
        "340": 192,
        "341": 93,
        "342": 186,
        "343": 235,
        "344": 146,
        "345": 161,
        "346": 203,
        "347": 80,
        "348": 165,
        "349": 172,
        "350": 49,
        "351": 79,
        "352": 30,
        "353": 81,
        "354": 98,
        "355": 55,
        "356": 156,
        "357": 21,
        "358": 139,
        "359": 154,
        "360": 220,
        "361": 35,
        "362": 40,
        "363": 255,
        "364": 81,
        "365": 145,
        "366": 46,
        "367": 115,
        "368": 31,
        "369": 202,
        "370": 214,
        "371": 241,
        "372": 238,
        "373": 66,
        "374": 118,
        "375": 138,
        "376": 227,
        "377": 32,
        "378": 254,
        "379": 179,
        "380": 173,
        "381": 152,
        "382": 33,
        "383": 219,
        "384": 163,
        "385": 122,
        "386": 17,
        "387": 144,
        "388": 152,
        "389": 11,
        "390": 217,
        "391": 196,
        "392": 248,
        "393": 183,
        "394": 75,
        "395": 67,
        "396": 178,
        "397": 85,
        "398": 95,
        "399": 52,
        "400": 13,
        "401": 107,
        "402": 17,
        "403": 8,
        "404": 128,
        "405": 184,
        "406": 33,
        "407": 168,
        "408": 251,
        "409": 115,
        "410": 227,
        "411": 157,
        "412": 115,
        "413": 5,
        "414": 181,
        "415": 141,
        "416": 31,
        "417": 149,
        "418": 244,
        "419": 47,
        "420": 195,
        "421": 217,
        "422": 110,
        "423": 41,
        "424": 57,
        "425": 213,
        "426": 24,
        "427": 148,
        "428": 139,
        "429": 203,
        "430": 77,
        "431": 198,
        "432": 130,
        "433": 249,
        "434": 162,
        "435": 34,
        "436": 181,
        "437": 52,
        "438": 200,
        "439": 229,
        "440": 45,
        "441": 238,
        "442": 100,
        "443": 113,
        "444": 229,
        "445": 28,
        "446": 115,
        "447": 119,
        "448": 247,
        "449": 150,
        "450": 135,
        "451": 75,
        "452": 139,
        "453": 142,
        "454": 109,
        "455": 223,
        "456": 94,
        "457": 208,
        "458": 205,
        "459": 117,
        "460": 153,
        "461": 200,
        "462": 70,
        "463": 123,
        "464": 23,
        "465": 6,
        "466": 175,
        "467": 158,
        "468": 148,
        "469": 251,
        "470": 65,
        "471": 16,
        "472": 118,
        "473": 246,
        "474": 191,
        "475": 168,
        "476": 249,
        "477": 244,
        "478": 142,
        "479": 147,
        "480": 100,
        "481": 141,
        "482": 201,
        "483": 28,
        "484": 233,
        "485": 0,
        "486": 213,
        "487": 191,
        "488": 59,
        "489": 8,
        "490": 207,
        "491": 86,
        "492": 105,
        "493": 204,
        "494": 183,
        "495": 80,
        "496": 158,
        "497": 25,
        "498": 34,
        "499": 210,
        "500": 225,
        "501": 178,
        "502": 165,
        "503": 241,
        "504": 43,
        "505": 147,
        "506": 15,
        "507": 70,
        "508": 130,
        "509": 5,
        "510": 223,
        "511": 214,
        "512": 50,
        "513": 246,
        "514": 107,
        "515": 195,
        "516": 202,
        "517": 94,
        "518": 107,
        "519": 227,
        "520": 240,
        "521": 118,
        "522": 154,
        "523": 189,
        "524": 90,
        "525": 86,
        "526": 15,
        "527": 228,
        "528": 134,
        "529": 56,
        "530": 241,
        "531": 192,
        "532": 253,
        "533": 121,
        "534": 226,
        "535": 108,
        "536": 246,
        "537": 87,
        "538": 224,
        "539": 127,
        "540": 248,
        "541": 22,
        "542": 236,
        "543": 141,
        "544": 231,
        "545": 6,
        "546": 16,
        "547": 170,
        "548": 197,
        "549": 136,
        "550": 88,
        "551": 76,
        "552": 140,
        "553": 0,
        "554": 150,
        "555": 54,
        "556": 36,
        "557": 170,
        "558": 27,
        "559": 144,
        "560": 209,
        "561": 110,
        "562": 195,
        "563": 4,
        "564": 248,
        "565": 203,
        "566": 111,
        "567": 255,
        "568": 75,
        "569": 179,
        "570": 21,
        "571": 63,
        "572": 85,
        "573": 199,
        "574": 204,
        "575": 245,
        "576": 255,
        "577": 38,
        "578": 251,
        "579": 208,
        "580": 57,
        "581": 34,
        "582": 49,
        "583": 165,
        "584": 83,
        "585": 78,
        "586": 58,
        "587": 8,
        "588": 145,
        "589": 214,
        "590": 130,
        "591": 187,
        "592": 59,
        "593": 30,
        "594": 137,
        "595": 198,
        "596": 225,
        "597": 250,
        "598": 1,
        "599": 85,
        "600": 96,
        "601": 28,
        "602": 179,
        "603": 204,
        "604": 145,
        "605": 230,
        "606": 95,
        "607": 220,
        "608": 243,
        "609": 69,
        "610": 6,
        "611": 254,
        "612": 27,
        "613": 175,
        "614": 12,
        "615": 244,
        "616": 61,
        "617": 53,
        "618": 25,
        "619": 238,
        "620": 136,
        "621": 46,
        "622": 32,
        "623": 172,
        "624": 101,
        "625": 252,
        "626": 25,
        "627": 242,
        "628": 110,
        "629": 79,
        "630": 141,
        "631": 135,
        "632": 170,
        "633": 201,
        "634": 235,
        "635": 34,
        "636": 83,
        "637": 211,
        "638": 94,
        "639": 113,
        "640": 232,
        "641": 42,
        "642": 138,
        "643": 13,
        "644": 2,
        "645": 152,
        "646": 30,
        "647": 34,
        "648": 127,
        "649": 255,
        "650": 103,
        "651": 122,
        "652": 51,
        "653": 106,
        "654": 70,
        "655": 113,
        "656": 32,
        "657": 115,
        "658": 253,
        "659": 49,
        "660": 197,
        "661": 228,
        "662": 134,
        "663": 145,
        "664": 180,
        "665": 28,
        "666": 68,
        "667": 34,
        "668": 206,
        "669": 109,
        "670": 16,
        "671": 165,
        "672": 140,
        "673": 64,
        "674": 62,
        "675": 113,
        "676": 221,
        "677": 75,
        "678": 192,
        "679": 64,
        "680": 220,
        "681": 92,
        "682": 115,
        "683": 114,
        "684": 248,
        "685": 237,
        "686": 58,
        "687": 189,
        "688": 149,
        "689": 161,
        "690": 92,
        "691": 166,
        "692": 232,
        "693": 134,
        "694": 202,
        "695": 17,
        "696": 198,
        "697": 128,
        "698": 241,
        "699": 211,
        "700": 203,
        "701": 26,
        "702": 13,
        "703": 230,
        "704": 70,
        "705": 17,
        "706": 2,
        "707": 103,
        "708": 143,
        "709": 58,
        "710": 159,
        "711": 200,
        "712": 147,
        "713": 11,
        "714": 155,
        "715": 71,
        "716": 54,
        "717": 108,
        "718": 32,
        "719": 118,
        "720": 7,
        "721": 178,
        "722": 67,
        "723": 17,
        "724": 101,
        "725": 127,
        "726": 248,
        "727": 150,
        "728": 238,
        "729": 181,
        "730": 255,
        "731": 22,
        "732": 133,
        "733": 160,
        "734": 179,
        "735": 182,
        "736": 74,
        "737": 9,
        "738": 140,
        "739": 254,
        "740": 13,
        "741": 40,
        "742": 173,
        "743": 75,
        "744": 66,
        "745": 60,
        "746": 164,
        "747": 237,
        "748": 125,
        "749": 61,
        "750": 147,
        "751": 195,
        "752": 78,
        "753": 208,
        "754": 156,
        "755": 90,
        "756": 101,
        "757": 174,
        "758": 143,
        "759": 233,
        "760": 128,
        "761": 141,
        "762": 183,
        "763": 149,
        "764": 83,
        "765": 146,
        "766": 53,
        "767": 233,
        "768": 78,
        "769": 157,
        "770": 15,
        "771": 193,
        "772": 39,
        "773": 211,
        "774": 104,
        "775": 238,
        "776": 128,
        "777": 31,
        "778": 138,
        "779": 226,
        "780": 107,
        "781": 39,
        "782": 70,
        "783": 183,
        "784": 123,
        "785": 76,
        "786": 249,
        "787": 55,
        "788": 248,
        "789": 4,
        "790": 22,
        "791": 113,
        "792": 26,
        "793": 174,
        "794": 162,
        "795": 223,
        "796": 157,
        "797": 133,
        "798": 40,
        "799": 174,
        "800": 126,
        "801": 99,
        "802": 137,
        "803": 124,
        "804": 38,
        "805": 193,
        "806": 183,
        "807": 209,
        "808": 212,
        "809": 64,
        "810": 3,
        "811": 70,
        "812": 46,
        "813": 97,
        "814": 14,
        "815": 226,
        "816": 208,
        "817": 255,
        "818": 73,
        "819": 137,
        "820": 186,
        "821": 185,
        "822": 106,
        "823": 168,
        "824": 189,
        "825": 236,
        "826": 178,
        "827": 91,
        "828": 9,
        "829": 166,
        "830": 114,
        "831": 17,
        "832": 55,
        "833": 99,
        "834": 254,
        "835": 31,
        "836": 92,
        "837": 116,
        "838": 249,
        "839": 185,
        "840": 253,
        "841": 203,
        "842": 57,
        "843": 199,
        "844": 134,
        "845": 38,
        "846": 59,
        "847": 201,
        "848": 123,
        "849": 246,
        "850": 137,
        "851": 160,
        "852": 221,
        "853": 182,
        "854": 33,
        "855": 167,
        "856": 39,
        "857": 201,
        "858": 165,
        "859": 185,
        "860": 252,
        "861": 42,
        "862": 0,
        "863": 196,
        "864": 72,
        "865": 2,
        "866": 179,
        "867": 135,
        "868": 244,
        "869": 138,
        "870": 253,
        "871": 163,
        "872": 84,
        "873": 134,
        "874": 14,
        "875": 29,
        "876": 255,
        "877": 64,
        "878": 43,
        "879": 33,
        "880": 180,
        "881": 235,
        "882": 194,
        "883": 121,
        "884": 188,
        "885": 102,
        "886": 162,
        "887": 164,
        "888": 230,
        "889": 10,
        "890": 221,
        "891": 27,
        "892": 34,
        "893": 17,
        "894": 12,
        "895": 180,
        "896": 41,
        "897": 244,
        "898": 118,
        "899": 104,
        "900": 48,
        "901": 124,
        "902": 120,
        "903": 3,
        "904": 111,
        "905": 227,
        "906": 31,
        "907": 250,
        "908": 195,
        "909": 225,
        "910": 84,
        "911": 75,
        "912": 216,
        "913": 9,
        "914": 47,
        "915": 91,
        "916": 159,
        "917": 24,
        "918": 249,
        "919": 246,
        "920": 254,
        "921": 96,
        "922": 148,
        "923": 89,
        "924": 135,
        "925": 39,
        "926": 67,
        "927": 47,
        "928": 68,
        "929": 229,
        "930": 182,
        "931": 53,
        "932": 30,
        "933": 228,
        "934": 89,
        "935": 206,
        "936": 199,
        "937": 231,
        "938": 218,
        "939": 161,
        "940": 77,
        "941": 18,
        "942": 34,
        "943": 155,
        "944": 255,
        "945": 168,
        "946": 38,
        "947": 214,
        "948": 214,
        "949": 119,
        "950": 68,
        "951": 86,
        "952": 159,
        "953": 251,
        "954": 19,
        "955": 226,
        "956": 146,
        "957": 110,
        "958": 76,
        "959": 93,
        "960": 76,
        "961": 168,
        "962": 230,
        "963": 186,
        "964": 220,
        "965": 21,
        "966": 160,
        "967": 223,
        "968": 222,
        "969": 81,
        "970": 190,
        "971": 56,
        "972": 197,
        "973": 104,
        "974": 43,
        "975": 74,
        "976": 173,
        "977": 188,
        "978": 140,
        "979": 221,
        "980": 219,
        "981": 122,
        "982": 161,
        "983": 68,
        "984": 81,
        "985": 212,
        "986": 148,
        "987": 225,
        "988": 179,
        "989": 24,
        "990": 33,
        "991": 69,
        "992": 225,
        "993": 52,
        "994": 205,
        "995": 40,
        "996": 206,
        "997": 201,
        "998": 120,
        "999": 22,
        "1000": 27,
        "1001": 99,
        "1002": 79,
        "1003": 231,
        "1004": 246,
        "1005": 109,
        "1006": 110,
        "1007": 77,
        "1008": 39,
        "1009": 199,
        "1010": 227,
        "1011": 255,
        "1012": 119,
        "1013": 144,
        "1014": 158,
        "1015": 153,
        "1016": 166,
        "1017": 35,
        "1018": 5,
        "1019": 98,
        "1020": 158,
        "1021": 141,
        "1022": 169,
        "1023": 252,
        "1024": 224,
        "1025": 122,
        "1026": 142,
        "1027": 101,
        "1028": 174,
        "1029": 114,
        "1030": 62,
        "1031": 79,
        "1032": 201,
        "1033": 240,
        "1034": 42,
        "1035": 8,
        "1036": 21,
        "1037": 236,
        "1038": 36,
        "1039": 64,
        "1040": 172,
        "1041": 122,
        "1042": 42,
        "1043": 183,
        "1044": 13,
        "1045": 5,
        "1046": 239,
        "1047": 253,
        "1048": 91,
        "1049": 234,
        "1050": 132,
        "1051": 33,
        "1052": 12,
        "1053": 181,
        "1054": 197,
        "1055": 68,
        "1056": 174,
        "1057": 35,
        "1058": 119,
        "1059": 254,
        "1060": 22,
        "1061": 215,
        "1062": 239,
        "1063": 111,
        "1064": 167,
        "1065": 66,
        "1066": 24,
        "1067": 246,
        "1068": 9,
        "1069": 27,
        "1070": 16,
        "1071": 246,
        "1072": 181,
        "1073": 154,
        "1074": 144,
        "1075": 14,
        "1076": 173,
        "1077": 38,
        "1078": 188,
        "1079": 190,
        "1080": 219,
        "1081": 217,
        "1082": 250,
        "1083": 66,
        "1084": 187,
        "1085": 205,
        "1086": 71,
        "1087": 222,
        "1088": 99,
        "1089": 97,
        "1090": 49,
        "1091": 67,
        "1092": 76,
        "1093": 185,
        "1094": 77,
        "1095": 158,
        "1096": 183,
        "1097": 91,
        "1098": 73,
        "1099": 212,
        "1100": 86,
        "1101": 202,
        "1102": 68,
        "1103": 187,
        "1104": 229,
        "1105": 165,
        "1106": 103,
        "1107": 237,
        "1108": 64,
        "1109": 191,
        "1110": 207,
        "1111": 18,
        "1112": 28,
        "1113": 170,
        "1114": 61,
        "1115": 94,
        "1116": 56,
        "1117": 64,
        "1118": 75,
        "1119": 170,
        "1120": 193,
        "1121": 79,
        "1122": 193,
        "1123": 26,
        "1124": 153,
        "1125": 195,
        "1126": 170,
        "1127": 57,
        "1128": 93,
        "1129": 155,
        "1130": 187,
        "1131": 133,
        "1132": 68,
        "1133": 99,
        "1134": 90,
        "1135": 63,
        "1136": 153,
        "1137": 56,
        "1138": 159,
        "1139": 151,
        "1140": 72,
        "1141": 39,
        "1142": 239,
        "1143": 106,
        "1144": 77,
        "1145": 148,
        "1146": 39,
        "1147": 185,
        "1148": 229,
        "1149": 163,
        "1150": 220,
        "1151": 175,
        "1152": 221,
        "1153": 249,
        "1154": 43,
        "1155": 245,
        "1156": 60,
        "1157": 226,
        "1158": 7,
        "1159": 193,
        "1160": 253,
        "1161": 27,
        "1162": 125,
        "1163": 210,
        "1164": 38,
        "1165": 119,
        "1166": 112,
        "1167": 81,
        "1168": 247,
        "1169": 34,
        "1170": 194,
        "1171": 245,
        "1172": 204,
        "1173": 9,
        "1174": 193,
        "1175": 206,
        "1176": 192,
        "1177": 67,
        "1178": 34,
        "1179": 227,
        "1180": 227,
        "1181": 199,
        "1182": 233,
        "1183": 16,
        "1184": 193,
        "1185": 56,
        "1186": 111,
        "1187": 119,
        "1188": 157,
        "1189": 109,
        "1190": 189,
        "1191": 20,
        "1192": 72,
        "1193": 156,
        "1194": 121,
        "1195": 38,
        "1196": 244,
        "1197": 93,
        "1198": 209,
        "1199": 142,
        "1200": 8,
        "1201": 201,
        "1202": 209,
        "1203": 189,
        "1204": 28,
        "1205": 194,
        "1206": 166,
        "1207": 20,
        "1208": 169,
        "1209": 176,
        "1210": 44,
        "1211": 233,
        "1212": 67,
        "1213": 177,
        "1214": 213,
        "1215": 204,
        "1216": 27,
        "1217": 151,
        "1218": 99,
        "1219": 78,
        "1220": 99,
        "1221": 166,
        "1222": 253,
        "1223": 93,
        "1224": 243,
        "1225": 253,
        "1226": 35,
        "1227": 70,
        "1228": 197,
        "1229": 2,
        "1230": 221,
        "1231": 149,
        "1232": 53,
        "1233": 183,
        "1234": 120,
        "1235": 200,
        "1236": 121,
        "1237": 88,
        "1238": 147,
        "1239": 13,
        "1240": 112,
        "1241": 6,
        "1242": 112,
        "1243": 234,
        "1244": 228,
        "1245": 146,
        "1246": 168,
        "1247": 126,
        "1248": 216,
        "1249": 118,
        "1250": 17,
        "1251": 211,
        "1252": 169,
        "1253": 63,
        "1254": 236,
        "1255": 123,
        "1256": 217,
        "1257": 180,
        "1258": 205,
        "1259": 203,
        "1260": 207,
        "1261": 161,
        "1262": 221,
        "1263": 68,
        "1264": 178,
        "1265": 75,
        "1266": 222,
        "1267": 2,
        "1268": 55,
        "1269": 65,
        "1270": 128,
        "1271": 120,
        "1272": 42,
        "1273": 253,
        "1274": 50,
        "1275": 52,
        "1276": 210,
        "1277": 63,
        "1278": 59,
        "1279": 113,
        "1280": 28,
        "1281": 93,
        "1282": 146,
        "1283": 203,
        "1284": 254,
        "1285": 191,
        "1286": 191,
        "1287": 153,
        "1288": 37,
        "1289": 133,
        "1290": 32,
        "1291": 191,
        "1292": 122,
        "1293": 139,
        "1294": 117,
        "1295": 73,
        "1296": 77,
        "1297": 155,
        "1298": 101,
        "1299": 10,
        "1300": 107,
        "1301": 16,
        "1302": 31,
        "1303": 101,
        "1304": 85,
        "1305": 28,
        "1306": 163,
        "1307": 148,
        "1308": 66,
        "1309": 148,
        "1310": 238,
        "1311": 137,
        "1312": 108,
        "1313": 179,
        "1314": 71,
        "1315": 24,
        "1316": 76,
        "1317": 97,
        "1318": 225,
        "1319": 240,
        "1320": 157,
        "1321": 117,
        "1322": 212,
        "1323": 179,
        "1324": 137,
        "1325": 0,
        "1326": 4,
        "1327": 140,
        "1328": 227,
        "1329": 189,
        "1330": 124,
        "1331": 128,
        "1332": 139,
        "1333": 141,
        "1334": 157,
        "1335": 22,
        "1336": 100,
        "1337": 248,
        "1338": 73,
        "1339": 30,
        "1340": 52,
        "1341": 220,
        "1342": 115,
        "1343": 127,
        "1344": 107,
        "1345": 131,
        "1346": 50,
        "1347": 254,
        "1348": 186,
        "1349": 41,
        "1350": 138,
        "1351": 0,
        "1352": 109,
        "1353": 88,
        "1354": 71,
        "1355": 106,
        "1356": 211,
        "1357": 239,
        "1358": 2,
        "1359": 22,
        "1360": 160,
        "1361": 214,
        "1362": 205,
        "1363": 20,
        "1364": 22,
        "1365": 224,
        "1366": 101,
        "1367": 28,
        "1368": 48,
        "1369": 177,
        "1370": 76,
        "1371": 83,
        "1372": 29,
        "1373": 13,
        "1374": 87,
        "1375": 234,
        "1376": 84,
        "1377": 198,
        "1378": 139,
        "1379": 29,
        "1380": 116,
        "1381": 245,
        "1382": 19,
        "1383": 170,
        "1384": 77,
        "1385": 248,
        "1386": 246,
        "1387": 199,
        "1388": 167,
        "1389": 197,
        "1390": 20,
        "1391": 10,
        "1392": 198,
        "1393": 79,
        "1394": 84,
        "1395": 208,
        "1396": 119,
        "1397": 160,
        "1398": 75,
        "1399": 162,
        "1400": 87,
        "1401": 129,
        "1402": 241,
        "1403": 112,
        "1404": 145,
        "1405": 159,
        "1406": 101,
        "1407": 65,
        "1408": 127,
        "1409": 36,
        "1410": 228,
        "1411": 120,
        "1412": 117,
        "1413": 19,
        "1414": 95,
        "1415": 97,
        "1416": 226,
        "1417": 159,
        "1418": 170,
        "1419": 34,
        "1420": 246,
        "1421": 149,
        "1422": 127,
        "1423": 30,
        "1424": 115,
        "1425": 178,
        "1426": 79,
        "1427": 116,
        "1428": 11,
        "1429": 214,
        "1430": 13,
        "1431": 54,
        "1432": 138,
        "1433": 126,
        "1434": 174,
        "1435": 10,
        "1436": 86,
        "1437": 179,
        "1438": 2,
        "1439": 136,
        "1440": 24,
        "1441": 58,
        "1442": 220,
        "1443": 237,
        "1444": 166,
        "1445": 18,
        "1446": 66,
        "1447": 96,
        "1448": 208,
        "1449": 177,
        "1450": 27,
        "1451": 241,
        "1452": 215,
        "1453": 132,
        "1454": 0,
        "1455": 242,
        "1456": 44,
        "1457": 225,
        "1458": 176,
        "1459": 176,
        "1460": 87,
        "1461": 166,
        "1462": 194,
        "1463": 100,
        "1464": 80,
        "1465": 226,
        "1466": 1,
        "1467": 174,
        "1468": 128,
        "1469": 232,
        "1470": 30,
        "1471": 175,
        "1472": 154,
        "1473": 58,
        "1474": 123,
        "1475": 167,
        "1476": 34,
        "1477": 178,
        "1478": 187,
        "1479": 99,
        "1480": 243,
        "1481": 106,
        "1482": 251,
        "1483": 45,
        "1484": 64,
        "1485": 50,
        "1486": 162,
        "1487": 160,
        "1488": 190,
        "1489": 172,
        "1490": 216,
        "1491": 230,
        "1492": 7,
        "1493": 51,
        "1494": 30,
        "1495": 112,
        "1496": 155,
        "1497": 211,
        "1498": 7,
        "1499": 19,
        "1500": 137,
        "1501": 98,
        "1502": 88,
        "1503": 77,
        "1504": 66,
        "1505": 109,
        "1506": 207,
        "1507": 109,
        "1508": 241,
        "1509": 182,
        "1510": 74,
        "1511": 202,
        "1512": 123,
        "1513": 45,
        "1514": 204,
        "1515": 71,
        "1516": 88,
        "1517": 95,
        "1518": 169,
        "1519": 253,
        "1520": 144,
        "1521": 221,
        "1522": 125,
        "1523": 161,
        "1524": 39,
        "1525": 195,
        "1526": 55,
        "1527": 218,
        "1528": 211,
        "1529": 216,
        "1530": 204,
        "1531": 119,
        "1532": 223,
        "1533": 34,
        "1534": 74,
        "1535": 42,
        "1536": 123,
        "1537": 52,
        "1538": 56,
        "1539": 81,
        "1540": 112,
        "1541": 154,
        "1542": 24,
        "1543": 244,
        "1544": 140,
        "1545": 21,
        "1546": 241,
        "1547": 222,
        "1548": 188,
        "1549": 78,
        "1550": 236,
        "1551": 60,
        "1552": 137,
        "1553": 156,
        "1554": 42,
        "1555": 183,
        "1556": 215,
        "1557": 7,
        "1558": 193,
        "1559": 157,
        "1560": 109,
        "1561": 215,
        "1562": 77,
        "1563": 51,
        "1564": 224,
        "1565": 202,
        "1566": 94,
        "1567": 223,
        "1568": 231,
        "1569": 228,
        "1570": 160,
        "1571": 120,
        "1572": 234,
        "1573": 142,
        "1574": 223,
        "1575": 79,
        "1576": 139,
        "1577": 51,
        "1578": 139,
        "1579": 198,
        "1580": 177,
        "1581": 15,
        "1582": 31,
        "1583": 102,
        "1584": 156,
        "1585": 1,
        "1586": 79,
        "1587": 52,
        "1588": 82,
        "1589": 189,
        "1590": 81,
        "1591": 149,
        "1592": 125,
        "1593": 141,
        "1594": 94,
        "1595": 221,
        "1596": 72,
        "1597": 44,
        "1598": 255,
        "1599": 33,
        "1600": 38,
        "1601": 208,
        "1602": 43,
        "1603": 163,
        "1604": 21,
        "1605": 235,
        "1606": 127,
        "1607": 74,
        "1608": 55,
        "1609": 13,
        "1610": 196,
        "1611": 235,
        "1612": 31,
        "1613": 49,
        "1614": 214,
        "1615": 77,
        "1616": 132,
        "1617": 80,
        "1618": 41,
        "1619": 176,
        "1620": 160,
        "1621": 65,
        "1622": 184,
        "1623": 135,
        "1624": 140,
        "1625": 195,
        "1626": 10,
        "1627": 25,
        "1628": 214,
        "1629": 48,
        "1630": 148,
        "1631": 223,
        "1632": 142,
        "1633": 250,
        "1634": 116,
        "1635": 168,
        "1636": 11,
        "1637": 26,
        "1638": 94,
        "1639": 26,
        "1640": 122,
        "1641": 239,
        "1642": 112,
        "1643": 38,
        "1644": 188,
        "1645": 90,
        "1646": 239,
        "1647": 92,
        "1648": 84,
        "1649": 131,
        "1650": 157,
        "1651": 43,
        "1652": 126,
        "1653": 186,
        "1654": 54,
        "1655": 136,
        "1656": 60,
        "1657": 143,
        "1658": 65,
        "1659": 34,
        "1660": 220,
        "1661": 161,
        "1662": 188,
        "1663": 172,
        "1664": 3,
        "1665": 3,
        "1666": 223,
        "1667": 59,
        "1668": 112,
        "1669": 234,
        "1670": 128,
        "1671": 43,
        "1672": 189,
        "1673": 233,
        "1674": 239,
        "1675": 219,
        "1676": 57,
        "1677": 80,
        "1678": 95,
        "1679": 61,
        "1680": 205,
        "1681": 220,
        "1682": 213,
        "1683": 92,
        "1684": 249,
        "1685": 118,
        "1686": 223,
        "1687": 136,
        "1688": 77,
        "1689": 58,
        "1690": 121,
        "1691": 175,
        "1692": 136,
        "1693": 163,
        "1694": 72,
        "1695": 36,
        "1696": 207,
        "1697": 193,
        "1698": 47,
        "1699": 87,
        "1700": 144,
        "1701": 177,
        "1702": 132,
        "1703": 129,
        "1704": 159,
        "1705": 90,
        "1706": 58,
        "1707": 179,
        "1708": 151,
        "1709": 221,
        "1710": 222,
        "1711": 205,
        "1712": 31,
        "1713": 71,
        "1714": 45,
        "1715": 213,
        "1716": 12,
        "1717": 209,
        "1718": 69,
        "1719": 70,
        "1720": 151,
        "1721": 96,
        "1722": 147,
        "1723": 8,
        "1724": 6,
        "1725": 139,
        "1726": 88,
        "1727": 141,
        "1728": 222,
        "1729": 165,
        "1730": 28,
        "1731": 55,
        "1732": 185,
        "1733": 87,
        "1734": 118,
        "1735": 82,
        "1736": 44,
        "1737": 178,
        "1738": 88,
        "1739": 15,
        "1740": 178,
        "1741": 169,
        "1742": 121,
        "1743": 132,
        "1744": 26,
        "1745": 124,
        "1746": 174,
        "1747": 18,
        "1748": 60,
        "1749": 227,
        "1750": 245,
        "1751": 211,
        "1752": 104,
        "1753": 25,
        "1754": 90,
        "1755": 40,
        "1756": 169,
        "1757": 136,
        "1758": 135,
        "1759": 205,
        "1760": 190,
        "1761": 255,
        "1762": 239,
        "1763": 229,
        "1764": 237,
        "1765": 233,
        "1766": 154,
        "1767": 179,
        "1768": 11,
        "1769": 244,
        "1770": 129,
        "1771": 88,
        "1772": 182,
        "1773": 227,
        "1774": 245,
        "1775": 88,
        "1776": 162,
        "1777": 182,
        "1778": 145,
        "1779": 97,
        "1780": 78,
        "1781": 26,
        "1782": 87,
        "1783": 204,
        "1784": 225,
        "1785": 100,
        "1786": 25,
        "1787": 115,
        "1788": 61,
        "1789": 65,
        "1790": 77,
        "1791": 20,
        "1792": 37,
        "1793": 161,
        "1794": 20,
        "1795": 137,
        "1796": 221,
        "1797": 182,
        "1798": 57,
        "1799": 77,
        "1800": 79,
        "1801": 95,
        "1802": 239,
        "1803": 210,
        "1804": 52,
        "1805": 150,
        "1806": 226,
        "1807": 50,
        "1808": 172,
        "1809": 166,
        "1810": 242,
        "1811": 74,
        "1812": 246,
        "1813": 157,
        "1814": 184,
        "1815": 74,
        "1816": 107,
        "1817": 172,
        "1818": 16,
        "1819": 128,
        "1820": 209,
        "1821": 234,
        "1822": 7,
        "1823": 179,
        "1824": 96,
        "1825": 251,
        "1826": 202,
        "1827": 218,
        "1828": 227,
        "1829": 231,
        "1830": 146,
        "1831": 190,
        "1832": 255,
        "1833": 222,
        "1834": 237,
        "1835": 173,
        "1836": 55,
        "1837": 211,
        "1838": 187,
        "1839": 149,
        "1840": 80,
        "1841": 167,
        "1842": 9,
        "1843": 183,
        "1844": 26,
        "1845": 31,
        "1846": 102,
        "1847": 152,
        "1848": 14,
        "1849": 249,
        "1850": 244,
        "1851": 11,
        "1852": 84,
        "1853": 9,
        "1854": 44,
        "1855": 247,
        "1856": 85,
        "1857": 22,
        "1858": 8,
        "1859": 183,
        "1860": 39,
        "1861": 244,
        "1862": 169,
        "1863": 82,
        "1864": 188,
        "1865": 125,
        "1866": 222,
        "1867": 35,
        "1868": 188,
        "1869": 71,
        "1870": 73,
        "1871": 184,
        "1872": 247,
        "1873": 2,
        "1874": 136,
        "1875": 153,
        "1876": 87,
        "1877": 172,
        "1878": 1,
        "1879": 196,
        "1880": 164,
        "1881": 241,
        "1882": 126,
        "1883": 61,
        "1884": 25,
        "1885": 121,
        "1886": 66,
        "1887": 163,
        "1888": 243,
        "1889": 121,
        "1890": 149,
        "1891": 183,
        "1892": 162,
        "1893": 241,
        "1894": 213,
        "1895": 149,
        "1896": 75,
        "1897": 101,
        "1898": 9,
        "1899": 156,
        "1900": 254,
        "1901": 10,
        "1902": 86,
        "1903": 162,
        "1904": 61,
        "1905": 61,
        "1906": 169,
        "1907": 103,
        "1908": 250,
        "1909": 114,
        "1910": 109,
        "1911": 225,
        "1912": 200,
        "1913": 114,
        "1914": 93,
        "1915": 200,
        "1916": 12,
        "1917": 123,
        "1918": 163,
        "1919": 206,
        "1920": 58,
        "1921": 56,
        "1922": 198,
        "1923": 97,
        "1924": 92,
        "1925": 115,
        "1926": 23,
        "1927": 87,
        "1928": 246,
        "1929": 66,
        "1930": 201,
        "1931": 215,
        "1932": 161,
        "1933": 80,
        "1934": 242,
        "1935": 141,
        "1936": 13,
        "1937": 48,
        "1938": 53,
        "1939": 233,
        "1940": 109,
        "1941": 82,
        "1942": 249,
        "1943": 55,
        "1944": 177,
        "1945": 67,
        "1946": 200,
        "1947": 153,
        "1948": 142,
        "1949": 36,
        "1950": 230,
        "1951": 20,
        "1952": 252,
        "1953": 80,
        "1954": 54,
        "1955": 172,
        "1956": 224,
        "1957": 181,
        "1958": 18,
        "1959": 143,
        "1960": 168,
        "1961": 86,
        "1962": 131,
        "1963": 241,
        "1964": 70,
        "1965": 255,
        "1966": 202,
        "1967": 247,
        "1968": 68,
        "1969": 191,
        "1970": 12,
        "1971": 167,
        "1972": 17,
        "1973": 160,
        "1974": 17,
        "1975": 54,
        "1976": 251,
        "1977": 128,
        "1978": 225,
        "1979": 81,
        "1980": 197,
        "1981": 95,
        "1982": 132,
        "1983": 255,
        "1984": 200,
        "1985": 2,
        "1986": 17,
        "1987": 65,
        "1988": 0,
        "1989": 76,
        "1990": 20,
        "1991": 18,
        "1992": 141,
        "1993": 171,
        "1994": 182,
        "1995": 236,
        "1996": 187,
        "1997": 171,
        "1998": 34,
        "1999": 196,
        "2000": 142,
        "2001": 232,
        "2002": 124,
        "2003": 42,
        "2004": 155,
        "2005": 207,
        "2006": 92,
        "2007": 213,
        "2008": 61,
        "2009": 104,
        "2010": 72,
        "2011": 241,
        "2012": 220,
        "2013": 71,
        "2014": 37,
        "2015": 89,
        "2016": 214,
        "2017": 204,
        "2018": 138,
        "2019": 246,
        "2020": 166,
        "2021": 161,
        "2022": 169,
        "2023": 209,
        "2024": 201,
        "2025": 103,
        "2026": 242,
        "2027": 160,
        "2028": 135,
        "2029": 250,
        "2030": 233,
        "2031": 155,
        "2032": 67,
        "2033": 121,
        "2034": 182,
        "2035": 106,
        "2036": 56,
        "2037": 16,
        "2038": 35,
        "2039": 237,
        "2040": 39,
        "2041": 255,
        "2042": 63,
        "2043": 225,
        "2044": 0,
        "2045": 192,
        "2046": 199,
        "2047": 154,
        "2048": 85,
        "2049": 29,
        "2050": 214,
        "2051": 183,
        "2052": 163,
        "2053": 126,
        "2054": 81,
        "2055": 52,
        "2056": 250,
        "2057": 155,
        "2058": 119,
        "2059": 177,
        "2060": 11,
        "2061": 155,
        "2062": 84,
        "2063": 249,
        "2064": 26,
        "2065": 13,
        "2066": 66,
        "2067": 57,
        "2068": 196,
        "2069": 71,
        "2070": 190,
        "2071": 165,
        "2072": 37,
        "2073": 57,
        "2074": 66,
        "2075": 231,
        "2076": 100,
        "2077": 130,
        "2078": 129,
        "2079": 210,
        "2080": 219,
        "2081": 7,
        "2082": 242,
        "2083": 202,
        "2084": 22,
        "2085": 40,
        "2086": 246,
        "2087": 25,
        "2088": 144,
        "2089": 28,
        "2090": 111,
        "2091": 128,
        "2092": 10,
        "2093": 87,
        "2094": 9,
        "2095": 118,
        "2096": 15,
        "2097": 13,
        "2098": 28,
        "2099": 189,
        "2100": 16,
        "2101": 18,
        "2102": 126,
        "2103": 243,
        "2104": 58,
        "2105": 227,
        "2106": 141,
        "2107": 164,
        "2108": 234,
        "2109": 1,
        "2110": 49,
        "2111": 94,
        "2112": 164,
        "2113": 209,
        "2114": 211,
        "2115": 70,
        "2116": 182,
        "2117": 224,
        "2118": 212,
        "2119": 194,
        "2120": 25,
        "2121": 82,
        "2122": 223,
        "2123": 240,
        "2124": 130,
        "2125": 50,
        "2126": 234,
        "2127": 218,
        "2128": 189,
        "2129": 161,
        "2130": 27,
        "2131": 251,
        "2132": 16,
        "2133": 187,
        "2134": 84,
        "2135": 190,
        "2136": 139,
        "2137": 96,
        "2138": 22,
        "2139": 223,
        "2140": 239,
        "2141": 243,
        "2142": 255,
        "2143": 164,
        "2144": 28,
        "2145": 30,
        "2146": 139,
        "2147": 150,
        "2148": 161,
        "2149": 139,
        "2150": 203,
        "2151": 159,
        "2152": 70,
        "2153": 141,
        "2154": 240,
        "2155": 228,
        "2156": 101,
        "2157": 166,
        "2158": 135,
        "2159": 181,
        "2160": 55,
        "2161": 200,
        "2162": 182,
        "2163": 5,
        "2164": 27,
        "2165": 57,
        "2166": 73,
        "2167": 68,
        "2168": 176,
        "2169": 8,
        "2170": 120,
        "2171": 210,
        "2172": 219,
        "2173": 165,
        "2174": 45,
        "2175": 63,
        "2176": 23,
        "2177": 234,
        "2178": 117,
        "2179": 252,
        "2180": 120,
        "2181": 62,
        "2182": 29,
        "2183": 195,
        "2184": 244,
        "2185": 175,
        "2186": 198,
        "2187": 65,
        "2188": 39,
        "2189": 190,
        "2190": 42,
        "2191": 200,
        "2192": 147,
        "2193": 141,
        "2194": 2,
        "2195": 51,
        "2196": 110,
        "2197": 250,
        "2198": 14,
        "2199": 2,
        "2200": 26,
        "2201": 197,
        "2202": 45,
        "2203": 174,
        "2204": 54,
        "2205": 50,
        "2206": 207,
        "2207": 101,
        "2208": 202,
        "2209": 224,
        "2210": 113,
        "2211": 124,
        "2212": 58,
        "2213": 254,
        "2214": 132,
        "2215": 94,
        "2216": 46,
        "2217": 165,
        "2218": 64,
        "2219": 80,
        "2220": 33,
        "2221": 229,
        "2222": 57,
        "2223": 50,
        "2224": 90,
        "2225": 130,
        "2226": 190,
        "2227": 166,
        "2228": 101,
        "2229": 101,
        "2230": 1,
        "2231": 8,
        "2232": 46,
        "2233": 73,
        "2234": 60,
        "2235": 106,
        "2236": 27,
        "2237": 41,
        "2238": 192,
        "2239": 14,
        "2240": 159,
        "2241": 54,
        "2242": 74,
        "2243": 253,
        "2244": 217,
        "2245": 130,
        "2246": 209,
        "2247": 80,
        "2248": 33,
        "2249": 138,
        "2250": 9,
        "2251": 119,
        "2252": 14,
        "2253": 213,
        "2254": 157,
        "2255": 107,
        "2256": 41,
        "2257": 57,
        "2258": 209,
        "2259": 117,
        "2260": 209,
        "2261": 139,
        "2262": 241,
        "2263": 16,
        "2264": 180,
        "2265": 84,
        "2266": 231,
        "2267": 73,
        "2268": 49,
        "2269": 225,
        "2270": 167,
        "2271": 128,
        "2272": 153,
        "2273": 128,
        "2274": 152,
        "2275": 196,
        "2276": 90,
        "2277": 142,
        "2278": 19,
        "2279": 182,
        "2280": 1,
        "2281": 86,
        "2282": 209,
        "2283": 254,
        "2284": 41,
        "2285": 57,
        "2286": 2,
        "2287": 185,
        "2288": 241,
        "2289": 168,
        "2290": 85,
        "2291": 236,
        "2292": 119,
        "2293": 177,
        "2294": 31,
        "2295": 201,
        "2296": 18,
        "2297": 136,
        "2298": 195,
        "2299": 168,
        "2300": 153,
        "2301": 167,
        "2302": 49,
        "2303": 233,
        "2304": 164,
        "2305": 162,
        "2306": 103,
        "2307": 137,
        "2308": 224,
        "2309": 37,
        "2310": 144,
        "2311": 190,
        "2312": 7,
        "2313": 18,
        "2314": 113,
        "2315": 161,
        "2316": 238,
        "2317": 176,
        "2318": 110,
        "2319": 0,
        "2320": 53,
        "2321": 105,
        "2322": 246,
        "2323": 157,
        "2324": 158,
        "2325": 167,
        "2326": 210,
        "2327": 79,
        "2328": 50,
        "2329": 238,
        "2330": 28,
        "2331": 87,
        "2332": 237,
        "2333": 142,
        "2334": 188,
        "2335": 39,
        "2336": 165,
        "2337": 193,
        "2338": 185,
        "2339": 169,
        "2340": 138,
        "2341": 184,
        "2342": 217,
        "2343": 21,
        "2344": 60,
        "2345": 64,
        "2346": 105,
        "2347": 150,
        "2348": 182,
        "2349": 250,
        "2350": 143,
        "2351": 31,
        "2352": 189,
        "2353": 23,
        "2354": 130,
        "2355": 140,
        "2356": 111,
        "2357": 162,
        "2358": 194,
        "2359": 231,
        "2360": 124,
        "2361": 202,
        "2362": 95,
        "2363": 95,
        "2364": 145,
        "2365": 190,
        "2366": 243,
        "2367": 181,
        "2368": 220,
        "2369": 23,
        "2370": 173,
        "2371": 175,
        "2372": 3,
        "2373": 60,
        "2374": 132,
        "2375": 209,
        "2376": 201,
        "2377": 106,
        "2378": 27,
        "2379": 221,
        "2380": 126,
        "2381": 153,
        "2382": 232,
        "2383": 159,
        "2384": 3,
        "2385": 75,
        "2386": 212,
        "2387": 46,
        "2388": 164,
        "2389": 214,
        "2390": 13,
        "2391": 25,
        "2392": 75,
        "2393": 186,
        "2394": 48,
        "2395": 70,
        "2396": 90,
        "2397": 104,
        "2398": 160,
        "2399": 180,
        "2400": 140,
        "2401": 247,
        "2402": 53,
        "2403": 147,
        "2404": 142,
        "2405": 216,
        "2406": 224,
        "2407": 209,
        "2408": 160,
        "2409": 69,
        "2410": 61,
        "2411": 53,
        "2412": 247,
        "2413": 60,
        "2414": 123,
        "2415": 138,
        "2416": 2,
        "2417": 246,
        "2418": 244,
        "2419": 198,
        "2420": 164,
        "2421": 63,
        "2422": 206,
        "2423": 159,
        "2424": 47,
        "2425": 243,
        "2426": 194,
        "2427": 0,
        "2428": 241,
        "2429": 1,
        "2430": 14,
        "2431": 8,
        "2432": 84,
        "2433": 163,
        "2434": 247,
        "2435": 126,
        "2436": 136,
        "2437": 157,
        "2438": 9,
        "2439": 139,
        "2440": 43,
        "2441": 249,
        "2442": 115,
        "2443": 41,
        "2444": 95,
        "2445": 24,
        "2446": 101,
        "2447": 128,
        "2448": 4,
        "2449": 128,
        "2450": 18,
        "2451": 187,
        "2452": 198,
        "2453": 251,
        "2454": 64,
        "2455": 99,
        "2456": 248,
        "2457": 80,
        "2458": 234,
        "2459": 207,
        "2460": 50,
        "2461": 138,
        "2462": 202,
        "2463": 228,
        "2464": 230,
        "2465": 61,
        "2466": 226,
        "2467": 42,
        "2468": 145,
        "2469": 129,
        "2470": 199,
        "2471": 175,
        "2472": 186,
        "2473": 32,
        "2474": 175,
        "2475": 199,
        "2476": 180,
        "2477": 197,
        "2478": 24,
        "2479": 81,
        "2480": 215,
        "2481": 176,
        "2482": 66,
        "2483": 157,
        "2484": 247,
        "2485": 210,
        "2486": 202,
        "2487": 70,
        "2488": 249,
        "2489": 47,
        "2490": 40,
        "2491": 36,
        "2492": 152,
        "2493": 73,
        "2494": 6,
        "2495": 220,
        "2496": 197,
        "2497": 45,
        "2498": 6,
        "2499": 151,
        "2500": 98,
        "2501": 91,
        "2502": 98,
        "2503": 22,
        "2504": 24,
        "2505": 93,
        "2506": 87,
        "2507": 133,
        "2508": 29,
        "2509": 117,
        "2510": 42,
        "2511": 145,
        "2512": 2,
        "2513": 223,
        "2514": 100,
        "2515": 86,
        "2516": 58,
        "2517": 102,
        "2518": 88,
        "2519": 223,
        "2520": 61,
        "2521": 1,
        "2522": 115,
        "2523": 34,
        "2524": 213,
        "2525": 153,
        "2526": 38,
        "2527": 240,
        "2528": 146,
        "2529": 222,
        "2530": 48,
        "2531": 232,
        "2532": 70,
        "2533": 224,
        "2534": 41,
        "2535": 226,
        "2536": 51,
        "2537": 86,
        "2538": 181,
        "2539": 32,
        "2540": 232,
        "2541": 192,
        "2542": 66,
        "2543": 50,
        "2544": 181,
        "2545": 48,
        "2546": 166,
        "2547": 138,
        "2548": 46,
        "2549": 47,
        "2550": 157,
        "2551": 46,
        "2552": 85,
        "2553": 24,
        "2554": 3,
        "2555": 161,
        "2556": 137,
        "2557": 145,
        "2558": 118,
        "2559": 69,
        "2560": 193,
        "2561": 100,
        "2562": 61,
        "2563": 20,
        "2564": 230,
        "2565": 67,
        "2566": 179,
        "2567": 117,
        "2568": 5,
        "2569": 75,
        "2570": 39,
        "2571": 193,
        "2572": 223,
        "2573": 63,
        "2574": 39,
        "2575": 24,
        "2576": 179,
        "2577": 133,
        "2578": 171,
        "2579": 108,
        "2580": 232,
        "2581": 122,
        "2582": 101,
        "2583": 152,
        "2584": 11,
        "2585": 191,
        "2586": 155,
        "2587": 44,
        "2588": 166,
        "2589": 149,
        "2590": 231,
        "2591": 236,
        "2592": 231,
        "2593": 103,
        "2594": 50,
        "2595": 150,
        "2596": 174,
        "2597": 116,
        "2598": 86,
        "2599": 53,
        "2600": 28,
        "2601": 37,
        "2602": 79,
        "2603": 232,
        "2604": 165,
        "2605": 136,
        "2606": 191,
        "2607": 240,
        "2608": 105,
        "2609": 2,
        "2610": 205,
        "2611": 92,
        "2612": 186,
        "2613": 234,
        "2614": 201,
        "2615": 78,
        "2616": 114,
        "2617": 138,
        "2618": 67,
        "2619": 155,
        "2620": 202,
        "2621": 54,
        "2622": 117,
        "2623": 208,
        "2624": 242,
        "2625": 165,
        "2626": 59,
        "2627": 45,
        "2628": 238,
        "2629": 169,
        "2630": 254,
        "2631": 141,
        "2632": 102,
        "2633": 28,
        "2634": 78,
        "2635": 211,
        "2636": 138,
        "2637": 13,
        "2638": 167,
        "2639": 206,
        "2640": 40,
        "2641": 129,
        "2642": 87,
        "2643": 186,
        "2644": 28,
        "2645": 109,
        "2646": 22,
        "2647": 89,
        "2648": 122,
        "2649": 246,
        "2650": 146,
        "2651": 31,
        "2652": 177,
        "2653": 143,
        "2654": 119,
        "2655": 141,
        "2656": 232,
        "2657": 39,
        "2658": 15,
        "2659": 13,
        "2660": 191,
        "2661": 233,
        "2662": 92,
        "2663": 136,
        "2664": 219,
        "2665": 212,
        "2666": 198,
        "2667": 86,
        "2668": 27,
        "2669": 161,
        "2670": 61,
        "2671": 76,
        "2672": 82,
        "2673": 25,
        "2674": 120,
        "2675": 248,
        "2676": 158,
        "2677": 49,
        "2678": 119,
        "2679": 81,
        "2680": 174,
        "2681": 74,
        "2682": 120,
        "2683": 90,
        "2684": 207,
        "2685": 100,
        "2686": 226,
        "2687": 113,
        "2688": 147,
        "2689": 121,
        "2690": 34,
        "2691": 29,
        "2692": 185,
        "2693": 116,
        "2694": 105,
        "2695": 254,
        "2696": 119,
        "2697": 75,
        "2698": 97,
        "2699": 73,
        "2700": 154,
        "2701": 204,
        "2702": 40,
        "2703": 15,
        "2704": 187,
        "2705": 217,
        "2706": 181,
        "2707": 109,
        "2708": 202,
        "2709": 51,
        "2710": 214,
        "2711": 181,
        "2712": 5,
        "2713": 59,
        "2714": 2,
        "2715": 185,
        "2716": 88,
        "2717": 28,
        "2718": 162,
        "2719": 56,
        "2720": 192,
        "2721": 210,
        "2722": 168,
        "2723": 190,
        "2724": 122,
        "2725": 87,
        "2726": 213,
        "2727": 13,
        "2728": 181,
        "2729": 205,
        "2730": 214,
        "2731": 117,
        "2732": 23,
        "2733": 212,
        "2734": 110,
        "2735": 82,
        "2736": 253,
        "2737": 177,
        "2738": 147,
        "2739": 186,
        "2740": 208,
        "2741": 242,
        "2742": 172,
        "2743": 252,
        "2744": 82,
        "2745": 91,
        "2746": 142,
        "2747": 17,
        "2748": 90,
        "2749": 19,
        "2750": 32,
        "2751": 219,
        "2752": 32,
        "2753": 48,
        "2754": 33,
        "2755": 50,
        "2756": 100,
        "2757": 55,
        "2758": 176,
        "2759": 97,
        "2760": 120,
        "2761": 19,
        "2762": 8,
        "2763": 214,
        "2764": 13,
        "2765": 23,
        "2766": 99,
        "2767": 173,
        "2768": 130,
        "2769": 183,
        "2770": 224,
        "2771": 109,
        "2772": 189,
        "2773": 171,
        "2774": 106,
        "2775": 251,
        "2776": 59,
        "2777": 90,
        "2778": 126,
        "2779": 77,
        "2780": 35,
        "2781": 247,
        "2782": 221,
        "2783": 28,
        "2784": 24,
        "2785": 189,
        "2786": 64,
        "2787": 105,
        "2788": 41,
        "2789": 157,
        "2790": 196,
        "2791": 201,
        "2792": 158,
        "2793": 91,
        "2794": 162,
        "2795": 177,
        "2796": 1,
        "2797": 84,
        "2798": 72,
        "2799": 155,
        "2800": 140,
        "2801": 203,
        "2802": 221,
        "2803": 114,
        "2804": 105,
        "2805": 210,
        "2806": 105,
        "2807": 233,
        "2808": 201,
        "2809": 136,
        "2810": 33,
        "2811": 14,
        "2812": 118,
        "2813": 101,
        "2814": 167,
        "2815": 99,
        "2816": 157,
        "2817": 227,
        "2818": 102,
        "2819": 18,
        "2820": 90,
        "2821": 92,
        "2822": 2,
        "2823": 88,
        "2824": 77,
        "2825": 191,
        "2826": 248,
        "2827": 1,
        "2828": 41,
        "2829": 56,
        "2830": 22,
        "2831": 211,
        "2832": 141,
        "2833": 211,
        "2834": 15,
        "2835": 195,
        "2836": 64,
        "2837": 43,
        "2838": 191,
        "2839": 216,
        "2840": 254,
        "2841": 25,
        "2842": 226,
        "2843": 56,
        "2844": 94,
        "2845": 35,
        "2846": 89,
        "2847": 210,
        "2848": 244,
        "2849": 21,
        "2850": 233,
        "2851": 203,
        "2852": 211,
        "2853": 159,
        "2854": 109,
        "2855": 174,
        "2856": 41,
        "2857": 226,
        "2858": 6,
        "2859": 170,
        "2860": 96,
        "2861": 14,
        "2862": 221,
        "2863": 80,
        "2864": 153,
        "2865": 157,
        "2866": 56,
        "2867": 1,
        "2868": 72,
        "2869": 65,
        "2870": 3,
        "2871": 128,
        "2872": 173,
        "2873": 232,
        "2874": 21,
        "2875": 67,
        "2876": 80,
        "2877": 73,
        "2878": 206,
        "2879": 68,
        "2880": 66,
        "2881": 254,
        "2882": 215,
        "2883": 52,
        "2884": 192,
        "2885": 56,
        "2886": 197,
        "2887": 202,
        "2888": 45,
        "2889": 47,
        "2890": 112,
        "2891": 134,
        "2892": 231,
        "2893": 75,
        "2894": 235,
        "2895": 120,
        "2896": 126,
        "2897": 111,
        "2898": 126,
        "2899": 205,
        "2900": 146,
        "2901": 156,
        "2902": 130,
        "2903": 57,
        "2904": 53,
        "2905": 31,
        "2906": 163,
        "2907": 36,
        "2908": 233,
        "2909": 212,
        "2910": 50,
        "2911": 200,
        "2912": 98,
        "2913": 192,
        "2914": 7,
        "2915": 186,
        "2916": 209,
        "2917": 222,
        "2918": 72,
        "2919": 174,
        "2920": 48,
        "2921": 166,
        "2922": 51,
        "2923": 193,
        "2924": 250,
        "2925": 198,
        "2926": 157,
        "2927": 74,
        "2928": 103,
        "2929": 223,
        "2930": 188,
        "2931": 227,
        "2932": 160,
        "2933": 150,
        "2934": 57,
        "2935": 79,
        "2936": 197,
        "2937": 248,
        "2938": 36,
        "2939": 22,
        "2940": 203,
        "2941": 196,
        "2942": 235,
        "2943": 77,
        "2944": 219,
        "2945": 100,
        "2946": 22,
        "2947": 87,
        "2948": 29,
        "2949": 93,
        "2950": 88,
        "2951": 26,
        "2952": 172,
        "2953": 116,
        "2954": 233,
        "2955": 232,
        "2956": 6,
        "2957": 200,
        "2958": 1,
        "2959": 237,
        "2960": 200,
        "2961": 96,
        "2962": 184,
        "2963": 31,
        "2964": 141,
        "2965": 17,
        "2966": 22,
        "2967": 142,
        "2968": 173,
        "2969": 104,
        "2970": 161,
        "2971": 105,
        "2972": 139,
        "2973": 113,
        "2974": 48,
        "2975": 220,
        "2976": 135,
        "2977": 67,
        "2978": 151,
        "2979": 188,
        "2980": 102,
        "2981": 167,
        "2982": 186,
        "2983": 145,
        "2984": 239,
        "2985": 44,
        "2986": 238,
        "2987": 123,
        "2988": 97,
        "2989": 41,
        "2990": 139,
        "2991": 21,
        "2992": 6,
        "2993": 196,
        "2994": 110,
        "2995": 203,
        "2996": 249,
        "2997": 6,
        "2998": 161,
        "2999": 103,
        "3000": 210,
        "3001": 113,
        "3002": 15,
        "3003": 229,
        "3004": 110,
        "3005": 127,
        "3006": 72,
        "3007": 47,
        "3008": 32,
        "3009": 82,
        "3010": 182,
        "3011": 122,
        "3012": 171,
        "3013": 230,
        "3014": 227,
        "3015": 208,
        "3016": 80,
        "3017": 70,
        "3018": 96,
        "3019": 210,
        "3020": 28,
        "3021": 220,
        "3022": 58,
        "3023": 235,
        "3024": 177,
        "3025": 1,
        "3026": 212,
        "3027": 152,
        "3028": 24,
        "3029": 133,
        "3030": 205,
        "3031": 61,
        "3032": 206,
        "3033": 95,
        "3034": 71,
        "3035": 222,
        "3036": 134,
        "3037": 79,
        "3038": 216,
        "3039": 102,
        "3040": 188,
        "3041": 38,
        "3042": 218,
        "3043": 156,
        "3044": 196,
        "3045": 95,
        "3046": 218,
        "3047": 17,
        "3048": 113,
        "3049": 210,
        "3050": 126,
        "3051": 161,
        "3052": 74,
        "3053": 191,
        "3054": 23,
        "3055": 106,
        "3056": 217,
        "3057": 19,
        "3058": 163,
        "3059": 2,
        "3060": 164,
        "3061": 245,
        "3062": 243,
        "3063": 230,
        "3064": 162,
        "3065": 28,
        "3066": 52,
        "3067": 224,
        "3068": 64,
        "3069": 18,
        "3070": 225,
        "3071": 202,
        "3072": 117,
        "3073": 142,
        "3074": 158,
        "3075": 162,
        "3076": 7,
        "3077": 153,
        "3078": 53,
        "3079": 237,
        "3080": 251,
        "3081": 54,
        "3082": 25,
        "3083": 115,
        "3084": 20,
        "3085": 0,
        "3086": 98,
        "3087": 17,
        "3088": 76,
        "3089": 82,
        "3090": 203,
        "3091": 122,
        "3092": 6,
        "3093": 167,
        "3094": 169,
        "3095": 82,
        "3096": 43,
        "3097": 228,
        "3098": 167,
        "3099": 35,
        "3100": 248,
        "3101": 217,
        "3102": 146,
        "3103": 5,
        "3104": 14,
        "3105": 2,
        "3106": 109,
        "3107": 88,
        "3108": 206,
        "3109": 248,
        "3110": 68,
        "3111": 165,
        "3112": 84,
        "3113": 26,
        "3114": 33,
        "3115": 247,
        "3116": 62,
        "3117": 42,
        "3118": 247,
        "3119": 99,
        "3120": 73,
        "3121": 231,
        "3122": 154,
        "3123": 142,
        "3124": 162,
        "3125": 46,
        "3126": 138,
        "3127": 19,
        "3128": 110,
        "3129": 112,
        "3130": 240,
        "3131": 26,
        "3132": 130,
        "3133": 71,
        "3134": 32,
        "3135": 243,
        "3136": 216,
        "3137": 157,
        "3138": 178,
        "3139": 48,
        "3140": 71,
        "3141": 184,
        "3142": 120,
        "3143": 162,
        "3144": 129,
        "3145": 95,
        "3146": 62,
        "3147": 38,
        "3148": 245,
        "3149": 74,
        "3150": 198,
        "3151": 197,
        "3152": 75,
        "3153": 250,
        "3154": 110,
        "3155": 1,
        "3156": 202,
        "3157": 156,
        "3158": 88,
        "3159": 59,
        "3160": 130,
        "3161": 213,
        "3162": 173,
        "3163": 200,
        "3164": 7,
        "3165": 169,
        "3166": 140,
        "3167": 126,
        "3168": 149,
        "3169": 31,
        "3170": 190,
        "3171": 122,
        "3172": 5,
        "3173": 22,
        "3174": 211,
        "3175": 112,
        "3176": 82,
        "3177": 93,
        "3178": 225,
        "3179": 108,
        "3180": 137,
        "3181": 199,
        "3182": 250,
        "3183": 104,
        "3184": 173,
        "3185": 78,
        "3186": 110,
        "3187": 215,
        "3188": 9,
        "3189": 204,
        "3190": 242,
        "3191": 244,
        "3192": 170,
        "3193": 7,
        "3194": 89,
        "3195": 87,
        "3196": 132,
        "3197": 58,
        "3198": 145,
        "3199": 186,
        "3200": 47,
        "3201": 14,
        "3202": 170,
        "3203": 195,
        "3204": 223,
        "3205": 215,
        "3206": 244,
        "3207": 3,
        "3208": 244,
        "3209": 241,
        "3210": 68,
        "3211": 198,
        "3212": 218,
        "3213": 126,
        "3214": 127,
        "3215": 249,
        "3216": 17,
        "3217": 80,
        "3218": 157,
        "3219": 7,
        "3220": 243,
        "3221": 117,
        "3222": 161,
        "3223": 28,
        "3224": 216,
        "3225": 10,
        "3226": 62,
        "3227": 253,
        "3228": 202,
        "3229": 221,
        "3230": 146,
        "3231": 210,
        "3232": 204,
        "3233": 230,
        "3234": 111,
        "3235": 208,
        "3236": 98,
        "3237": 68,
        "3238": 244,
        "3239": 24,
        "3240": 84,
        "3241": 188,
        "3242": 206,
        "3243": 126,
        "3244": 92,
        "3245": 90,
        "3246": 16,
        "3247": 37,
        "3248": 79,
        "3249": 65,
        "3250": 242,
        "3251": 145,
        "3252": 192,
        "3253": 19,
        "3254": 19,
        "3255": 1,
        "3256": 183,
        "3257": 224,
        "3258": 116,
        "3259": 158,
        "3260": 131,
        "3261": 245,
        "3262": 229,
        "3263": 163,
        "3264": 171,
        "3265": 150,
        "3266": 141,
        "3267": 70,
        "3268": 49,
        "3269": 46,
        "3270": 112,
        "3271": 137,
        "3272": 246,
        "3273": 167,
        "3274": 84,
        "3275": 107,
        "3276": 203,
        "3277": 125,
        "3278": 245,
        "3279": 164,
        "3280": 47,
        "3281": 91,
        "3282": 85,
        "3283": 148,
        "3284": 202,
        "3285": 68,
        "3286": 62,
        "3287": 38,
        "3288": 68,
        "3289": 45,
        "3290": 87,
        "3291": 199,
        "3292": 250,
        "3293": 199,
        "3294": 133,
        "3295": 185,
        "3296": 4,
        "3297": 46,
        "3298": 231,
        "3299": 206,
        "3300": 179,
        "3301": 9,
        "3302": 55,
        "3303": 169,
        "3304": 117,
        "3305": 149,
        "3306": 93,
        "3307": 15,
        "3308": 211,
        "3309": 144,
        "3310": 62,
        "3311": 156,
        "3312": 23,
        "3313": 170,
        "3314": 122,
        "3315": 83,
        "3316": 117,
        "3317": 254,
        "3318": 124,
        "3319": 99,
        "3320": 250,
        "3321": 240,
        "3322": 194,
        "3323": 224,
        "3324": 92,
        "3325": 65,
        "3326": 217,
        "3327": 6,
        "3328": 244,
        "3329": 135,
        "3330": 131,
        "3331": 236,
        "3332": 177,
        "3333": 120,
        "3334": 105,
        "3335": 83,
        "3336": 221,
        "3337": 178,
        "3338": 110,
        "3339": 251,
        "3340": 5,
        "3341": 39,
        "3342": 20,
        "3343": 184,
        "3344": 214,
        "3345": 0,
        "3346": 51,
        "3347": 84,
        "3348": 70,
        "3349": 141,
        "3350": 238,
        "3351": 212,
        "3352": 220,
        "3353": 146,
        "3354": 249,
        "3355": 30,
        "3356": 46,
        "3357": 132,
        "3358": 62,
        "3359": 169,
        "3360": 0,
        "3361": 181,
        "3362": 150,
        "3363": 53,
        "3364": 143,
        "3365": 237,
        "3366": 125,
        "3367": 141,
        "3368": 168,
        "3369": 154,
        "3370": 73,
        "3371": 180,
        "3372": 245,
        "3373": 99,
        "3374": 104,
        "3375": 10,
        "3376": 190,
        "3377": 197,
        "3378": 58,
        "3379": 67,
        "3380": 186,
        "3381": 114,
        "3382": 105,
        "3383": 13,
        "3384": 152,
        "3385": 224,
        "3386": 56,
        "3387": 121,
        "3388": 52,
        "3389": 117,
        "3390": 246,
        "3391": 109,
        "3392": 95,
        "3393": 231,
        "3394": 220,
        "3395": 3,
        "3396": 158,
        "3397": 226,
        "3398": 119,
        "3399": 166,
        "3400": 245,
        "3401": 230,
        "3402": 112,
        "3403": 99,
        "3404": 49,
        "3405": 154,
        "3406": 102,
        "3407": 53,
        "3408": 114,
        "3409": 23,
        "3410": 139,
        "3411": 84,
        "3412": 204,
        "3413": 27,
        "3414": 91,
        "3415": 130,
        "3416": 158,
        "3417": 198,
        "3418": 215,
        "3419": 93,
        "3420": 37,
        "3421": 217,
        "3422": 188,
        "3423": 77,
        "3424": 89,
        "3425": 239,
        "3426": 188,
        "3427": 68,
        "3428": 102,
        "3429": 127,
        "3430": 154,
        "3431": 174,
        "3432": 92,
        "3433": 76,
        "3434": 221,
        "3435": 215,
        "3436": 222,
        "3437": 240,
        "3438": 145,
        "3439": 195,
        "3440": 123,
        "3441": 189,
        "3442": 51,
        "3443": 112,
        "3444": 106,
        "3445": 22,
        "3446": 160,
        "3447": 251,
        "3448": 155,
        "3449": 185,
        "3450": 232,
        "3451": 28,
        "3452": 207,
        "3453": 85,
        "3454": 88,
        "3455": 24,
        "3456": 58,
        "3457": 149,
        "3458": 53,
        "3459": 79,
        "3460": 82,
        "3461": 78,
        "3462": 135,
        "3463": 101,
        "3464": 67,
        "3465": 125,
        "3466": 186,
        "3467": 211,
        "3468": 239,
        "3469": 16,
        "3470": 120,
        "3471": 151,
        "3472": 190,
        "3473": 205,
        "3474": 206,
        "3475": 181,
        "3476": 122,
        "3477": 151,
        "3478": 130,
        "3479": 118,
        "3480": 148,
        "3481": 252,
        "3482": 135,
        "3483": 244,
        "3484": 99,
        "3485": 247,
        "3486": 254,
        "3487": 195,
        "3488": 160,
        "3489": 122,
        "3490": 136,
        "3491": 215,
        "3492": 145,
        "3493": 255,
        "3494": 137,
        "3495": 247,
        "3496": 58,
        "3497": 26,
        "3498": 117,
        "3499": 148,
        "3500": 41,
        "3501": 21,
        "3502": 84,
        "3503": 187,
        "3504": 100,
        "3505": 135,
        "3506": 50,
        "3507": 198,
        "3508": 73,
        "3509": 48,
        "3510": 34,
        "3511": 23,
        "3512": 239,
        "3513": 188,
        "3514": 70,
        "3515": 199,
        "3516": 63,
        "3517": 94,
        "3518": 214,
        "3519": 55,
        "3520": 205,
        "3521": 179,
        "3522": 162,
        "3523": 1,
        "3524": 17,
        "3525": 69,
        "3526": 192,
        "3527": 188,
        "3528": 220,
        "3529": 155,
        "3530": 120,
        "3531": 102,
        "3532": 187,
        "3533": 22,
        "3534": 4,
        "3535": 48,
        "3536": 232,
        "3537": 66,
        "3538": 8,
        "3539": 203,
        "3540": 155,
        "3541": 197,
        "3542": 253,
        "3543": 231,
        "3544": 19,
        "3545": 95,
        "3546": 183,
        "3547": 1,
        "3548": 191,
        "3549": 125,
        "3550": 2,
        "3551": 154,
        "3552": 74,
        "3553": 34,
        "3554": 150,
        "3555": 182,
        "3556": 211,
        "3557": 137,
        "3558": 177,
        "3559": 64,
        "3560": 66,
        "3561": 144,
        "3562": 181,
        "3563": 250,
        "3564": 35,
        "3565": 39,
        "3566": 22,
        "3567": 65,
        "3568": 241,
        "3569": 13,
        "3570": 79,
        "3571": 83,
        "3572": 96,
        "3573": 167,
        "3574": 47,
        "3575": 35,
        "3576": 144,
        "3577": 68,
        "3578": 41,
        "3579": 117,
        "3580": 38,
        "3581": 69,
        "3582": 240,
        "3583": 187,
        "3584": 90,
        "3585": 233,
        "3586": 190,
        "3587": 227,
        "3588": 9,
        "3589": 158,
        "3590": 37,
        "3591": 95,
        "3592": 90,
        "3593": 9,
        "3594": 82,
        "3595": 248,
        "3596": 117,
        "3597": 130,
        "3598": 172,
        "3599": 43,
        "3600": 15,
        "3601": 56,
        "3602": 147,
        "3603": 79,
        "3604": 30,
        "3605": 88,
        "3606": 66,
        "3607": 158,
        "3608": 126,
        "3609": 200,
        "3610": 7,
        "3611": 177,
        "3612": 26,
        "3613": 152,
        "3614": 219,
        "3615": 37,
        "3616": 93,
        "3617": 125,
        "3618": 120,
        "3619": 241,
        "3620": 243,
        "3621": 5,
        "3622": 210,
        "3623": 47,
        "3624": 231,
        "3625": 18,
        "3626": 19,
        "3627": 235,
        "3628": 102,
        "3629": 56,
        "3630": 111,
        "3631": 189,
        "3632": 132,
        "3633": 188,
        "3634": 185,
        "3635": 138,
        "3636": 116,
        "3637": 152,
        "3638": 222,
        "3639": 239,
        "3640": 20,
        "3641": 202,
        "3642": 79,
        "3643": 87,
        "3644": 80,
        "3645": 101,
        "3646": 205,
        "3647": 120,
        "3648": 153,
        "3649": 69,
        "3650": 148,
        "3651": 238,
        "3652": 246,
        "3653": 67,
        "3654": 113,
        "3655": 243,
        "3656": 217,
        "3657": 119,
        "3658": 21,
        "3659": 182,
        "3660": 23,
        "3661": 142,
        "3662": 93,
        "3663": 44,
        "3664": 217,
        "3665": 247,
        "3666": 120,
        "3667": 248,
        "3668": 1,
        "3669": 219,
        "3670": 116,
        "3671": 242,
        "3672": 184,
        "3673": 247,
        "3674": 6,
        "3675": 42,
        "3676": 57,
        "3677": 88,
        "3678": 38,
        "3679": 37,
        "3680": 22,
        "3681": 73,
        "3682": 53,
        "3683": 229,
        "3684": 123,
        "3685": 215,
        "3686": 111,
        "3687": 189,
        "3688": 138,
        "3689": 190,
        "3690": 232,
        "3691": 72,
        "3692": 140,
        "3693": 4,
        "3694": 68,
        "3695": 242,
        "3696": 73,
        "3697": 56,
        "3698": 168,
        "3699": 133,
        "3700": 104,
        "3701": 107,
        "3702": 54,
        "3703": 93,
        "3704": 235,
        "3705": 236,
        "3706": 166,
        "3707": 34,
        "3708": 238,
        "3709": 29,
        "3710": 244,
        "3711": 194,
        "3712": 253,
        "3713": 105,
        "3714": 98,
        "3715": 247,
        "3716": 1,
        "3717": 83,
        "3718": 134,
        "3719": 163,
        "3720": 85,
        "3721": 237,
        "3722": 45,
        "3723": 219,
        "3724": 5,
        "3725": 40,
        "3726": 249,
        "3727": 83,
        "3728": 197,
        "3729": 161,
        "3730": 36,
        "3731": 216,
        "3732": 110,
        "3733": 26,
        "3734": 87,
        "3735": 86,
        "3736": 105,
        "3737": 187,
        "3738": 253,
        "3739": 233,
        "3740": 31,
        "3741": 21,
        "3742": 64,
        "3743": 74,
        "3744": 221,
        "3745": 169,
        "3746": 117,
        "3747": 208,
        "3748": 201,
        "3749": 7,
        "3750": 236,
        "3751": 157,
        "3752": 196,
        "3753": 66,
        "3754": 80,
        "3755": 50,
        "3756": 151,
        "3757": 85,
        "3758": 79,
        "3759": 218,
        "3760": 132,
        "3761": 195,
        "3762": 140,
        "3763": 179,
        "3764": 146,
        "3765": 153,
        "3766": 25,
        "3767": 124,
        "3768": 74,
        "3769": 127,
        "3770": 209,
        "3771": 7,
        "3772": 74,
        "3773": 226,
        "3774": 161,
        "3775": 66,
        "3776": 242,
        "3777": 137,
        "3778": 96,
        "3779": 110,
        "3780": 243,
        "3781": 219,
        "3782": 0,
        "3783": 65,
        "3784": 246,
        "3785": 242,
        "3786": 97,
        "3787": 199,
        "3788": 80,
        "3789": 9,
        "3790": 0,
        "3791": 145,
        "3792": 7,
        "3793": 62,
        "3794": 14,
        "3795": 230,
        "3796": 25,
        "3797": 151,
        "3798": 146,
        "3799": 49,
        "3800": 56,
        "3801": 60,
        "3802": 78,
        "3803": 51,
        "3804": 248,
        "3805": 38,
        "3806": 72,
        "3807": 252,
        "3808": 176,
        "3809": 55,
        "3810": 199,
        "3811": 33,
        "3812": 199,
        "3813": 128,
        "3814": 202,
        "3815": 207,
        "3816": 249,
        "3817": 154,
        "3818": 2,
        "3819": 243,
        "3820": 186,
        "3821": 34,
        "3822": 165,
        "3823": 208,
        "3824": 9,
        "3825": 57,
        "3826": 45,
        "3827": 143,
        "3828": 133,
        "3829": 213,
        "3830": 150,
        "3831": 108,
        "3832": 147,
        "3833": 61,
        "3834": 156,
        "3835": 190,
        "3836": 230,
        "3837": 200,
        "3838": 2,
        "3839": 126,
        "3840": 147,
        "3841": 71,
        "3842": 114,
        "3843": 3,
        "3844": 39,
        "3845": 163,
        "3846": 246,
        "3847": 75,
        "3848": 86,
        "3849": 103,
        "3850": 184,
        "3851": 191,
        "3852": 235,
        "3853": 5,
        "3854": 114,
        "3855": 126,
        "3856": 234,
        "3857": 149,
        "3858": 127,
        "3859": 240,
        "3860": 40,
        "3861": 1,
        "3862": 42,
        "3863": 67,
        "3864": 137,
        "3865": 88,
        "3866": 133,
        "3867": 58,
        "3868": 61,
        "3869": 6,
        "3870": 128,
        "3871": 75,
        "3872": 206,
        "3873": 200,
        "3874": 45,
        "3875": 67,
        "3876": 31,
        "3877": 15,
        "3878": 131,
        "3879": 12,
        "3880": 53,
        "3881": 242,
        "3882": 100,
        "3883": 223,
        "3884": 119,
        "3885": 203,
        "3886": 251,
        "3887": 34,
        "3888": 154,
        "3889": 137,
        "3890": 130,
        "3891": 60,
        "3892": 127,
        "3893": 18,
        "3894": 218,
        "3895": 233,
        "3896": 96,
        "3897": 83,
        "3898": 167,
        "3899": 81,
        "3900": 197,
        "3901": 225,
        "3902": 161,
        "3903": 152,
        "3904": 37,
        "3905": 66,
        "3906": 106,
        "3907": 176,
        "3908": 48,
        "3909": 27,
        "3910": 34,
        "3911": 231,
        "3912": 128,
        "3913": 217,
        "3914": 101,
        "3915": 195,
        "3916": 254,
        "3917": 77,
        "3918": 117,
        "3919": 161,
        "3920": 209,
        "3921": 228,
        "3922": 244,
        "3923": 88,
        "3924": 238,
        "3925": 47,
        "3926": 17,
        "3927": 13,
        "3928": 100,
        "3929": 214,
        "3930": 42,
        "3931": 203,
        "3932": 68,
        "3933": 127,
        "3934": 51,
        "3935": 52,
        "3936": 180,
        "3937": 85,
        "3938": 204,
        "3939": 177,
        "3940": 140,
        "3941": 88,
        "3942": 214,
        "3943": 142,
        "3944": 103,
        "3945": 119,
        "3946": 120,
        "3947": 117,
        "3948": 236,
        "3949": 53,
        "3950": 135,
        "3951": 171,
        "3952": 223,
        "3953": 148,
        "3954": 146,
        "3955": 219,
        "3956": 182,
        "3957": 17,
        "3958": 175,
        "3959": 153,
        "3960": 197,
        "3961": 125,
        "3962": 160,
        "3963": 113,
        "3964": 174,
        "3965": 24,
        "3966": 92,
        "3967": 127,
        "3968": 182,
        "3969": 72,
        "3970": 245,
        "3971": 78,
        "3972": 152,
        "3973": 14,
        "3974": 44,
        "3975": 85,
        "3976": 109,
        "3977": 185,
        "3978": 47,
        "3979": 122,
        "3980": 147,
        "3981": 167,
        "3982": 64,
        "3983": 46,
        "3984": 75,
        "3985": 243,
        "3986": 124,
        "3987": 211,
        "3988": 227,
        "3989": 135,
        "3990": 165,
        "3991": 217,
        "3992": 28,
        "3993": 162,
        "3994": 67,
        "3995": 237,
        "3996": 145,
        "3997": 169,
        "3998": 212,
        "3999": 38,
        "4000": 27,
        "4001": 166,
        "4002": 160,
        "4003": 87,
        "4004": 75,
        "4005": 34,
        "4006": 91,
        "4007": 235,
        "4008": 208,
        "4009": 73,
        "4010": 56,
        "4011": 250,
        "4012": 139,
        "4013": 185,
        "4014": 11,
        "4015": 116,
        "4016": 104,
        "4017": 202,
        "4018": 215,
        "4019": 242,
        "4020": 100,
        "4021": 142,
        "4022": 71,
        "4023": 40,
        "4024": 60,
        "4025": 188,
        "4026": 1,
        "4027": 247,
        "4028": 52,
        "4029": 161,
        "4030": 77,
        "4031": 206,
        "4032": 154,
        "4033": 30,
        "4034": 157,
        "4035": 72,
        "4036": 127,
        "4037": 49,
        "4038": 76,
        "4039": 105,
        "4040": 198,
        "4041": 234,
        "4042": 76,
        "4043": 78,
        "4044": 139,
        "4045": 231,
        "4046": 94,
        "4047": 22,
        "4048": 187,
        "4049": 18,
        "4050": 176,
        "4051": 171,
        "4052": 44,
        "4053": 47,
        "4054": 20,
        "4055": 33,
        "4056": 56,
        "4057": 148,
        "4058": 129,
        "4059": 228,
        "4060": 6,
        "4061": 76,
        "4062": 63,
        "4063": 68,
        "4064": 142,
        "4065": 28,
        "4066": 147,
        "4067": 140,
        "4068": 41,
        "4069": 23,
        "4070": 187,
        "4071": 237,
        "4072": 105,
        "4073": 204,
        "4074": 130,
        "4075": 27,
        "4076": 185,
        "4077": 166,
        "4078": 238,
        "4079": 97,
        "4080": 195,
        "4081": 18,
        "4082": 77,
        "4083": 21,
        "4084": 115,
        "4085": 139,
        "4086": 156,
        "4087": 87,
        "4088": 69,
        "4089": 164,
        "4090": 125,
        "4091": 133,
        "4092": 43,
        "4093": 84,
        "4094": 83,
        "4095": 55,
        "4096": 137,
        "4097": 66,
        "4098": 232,
        "4099": 207,
        "4100": 74,
        "4101": 179,
        "4102": 157,
        "4103": 242,
        "4104": 82,
        "4105": 17,
        "4106": 101,
        "4107": 123,
        "4108": 199,
        "4109": 48,
        "4110": 209,
        "4111": 94,
        "4112": 29,
        "4113": 213,
        "4114": 30,
        "4115": 69,
        "4116": 244,
        "4117": 199,
        "4118": 16,
        "4119": 25,
        "4120": 88,
        "4121": 246,
        "4122": 246,
        "4123": 12,
        "4124": 60,
        "4125": 91,
        "4126": 60,
        "4127": 154,
        "4128": 151,
        "4129": 162,
        "4130": 53,
        "4131": 191,
        "4132": 73,
        "4133": 164,
        "4134": 36,
        "4135": 83,
        "4136": 113,
        "4137": 245,
        "4138": 27,
        "4139": 103,
        "4140": 202,
        "4141": 209,
        "4142": 48,
        "4143": 144,
        "4144": 27,
        "4145": 228,
        "4146": 221,
        "4147": 47,
        "4148": 67,
        "4149": 201,
        "4150": 207,
        "4151": 215,
        "4152": 49,
        "4153": 245,
        "4154": 123,
        "4155": 131,
        "4156": 124,
        "4157": 112,
        "4158": 154,
        "4159": 236,
        "4160": 218,
        "4161": 34,
        "4162": 23,
        "4163": 82,
        "4164": 215,
        "4165": 90,
        "4166": 213,
        "4167": 157,
        "4168": 254,
        "4169": 100,
        "4170": 174,
        "4171": 213,
        "4172": 33,
        "4173": 186,
        "4174": 78,
        "4175": 9,
        "4176": 162,
        "4177": 115,
        "4178": 170,
        "4179": 63,
        "4180": 75,
        "4181": 247,
        "4182": 187,
        "4183": 56,
        "4184": 218,
        "4185": 64,
        "4186": 151,
        "4187": 138,
        "4188": 170,
        "4189": 115,
        "4190": 98,
        "4191": 128,
        "4192": 113,
        "4193": 124,
        "4194": 172,
        "4195": 115,
        "4196": 211,
        "4197": 233,
        "4198": 182,
        "4199": 20,
        "4200": 207,
        "4201": 223,
        "4202": 169,
        "4203": 239,
        "4204": 164,
        "4205": 134,
        "4206": 97,
        "4207": 222,
        "4208": 153,
        "4209": 69,
        "4210": 158,
        "4211": 199,
        "4212": 136,
        "4213": 235,
        "4214": 252,
        "4215": 65,
        "4216": 255,
        "4217": 210,
        "4218": 240,
        "4219": 1,
        "4220": 46,
        "4221": 58,
        "4222": 50,
        "4223": 22,
        "4224": 169,
        "4225": 88,
        "4226": 63,
        "4227": 43,
        "4228": 161,
        "4229": 122,
        "4230": 153,
        "4231": 146,
        "4232": 199,
        "4233": 198,
        "4234": 0,
        "4235": 219,
        "4236": 139,
        "4237": 48,
        "4238": 199,
        "4239": 97,
        "4240": 81,
        "4241": 164,
        "4242": 141,
        "4243": 71,
        "4244": 184,
        "4245": 120,
        "4246": 135,
        "4247": 53,
        "4248": 36,
        "4249": 149,
        "4250": 230,
        "4251": 90,
        "4252": 253,
        "4253": 238,
        "4254": 11,
        "4255": 118,
        "4256": 62,
        "4257": 122,
        "4258": 97,
        "4259": 80,
        "4260": 228,
        "4261": 83,
        "4262": 144,
        "4263": 2,
        "4264": 184,
        "4265": 205,
        "4266": 129,
        "4267": 76,
        "4268": 119,
        "4269": 227,
        "4270": 217,
        "4271": 99,
        "4272": 122,
        "4273": 24,
        "4274": 34,
        "4275": 45,
        "4276": 190,
        "4277": 56,
        "4278": 137,
        "4279": 222,
        "4280": 61,
        "4281": 98,
        "4282": 172,
        "4283": 116,
        "4284": 10,
        "4285": 41,
        "4286": 123,
        "4287": 100,
        "4288": 216,
        "4289": 223,
        "4290": 191,
        "4291": 97,
        "4292": 250,
        "4293": 212,
        "4294": 237,
        "4295": 56,
        "4296": 120,
        "4297": 207,
        "4298": 209,
        "4299": 130,
        "4300": 168,
        "4301": 179,
        "4302": 44,
        "4303": 15,
        "4304": 89,
        "4305": 113,
        "4306": 30,
        "4307": 140,
        "4308": 45,
        "4309": 92,
        "4310": 115,
        "4311": 91,
        "4312": 129,
        "4313": 93,
        "4314": 80,
        "4315": 126,
        "4316": 76,
        "4317": 22,
        "4318": 182,
        "4319": 229,
        "4320": 122,
        "4321": 241,
        "4322": 29,
        "4323": 152,
        "4324": 73,
        "4325": 160,
        "4326": 58,
        "4327": 144,
        "4328": 195,
        "4329": 70,
        "4330": 87,
        "4331": 253,
        "4332": 95,
        "4333": 179,
        "4334": 47,
        "4335": 184,
        "4336": 182,
        "4337": 171,
        "4338": 117,
        "4339": 122,
        "4340": 42,
        "4341": 217,
        "4342": 65,
        "4343": 15,
        "4344": 67,
        "4345": 51,
        "4346": 57,
        "4347": 136,
        "4348": 190,
        "4349": 78,
        "4350": 21,
        "4351": 11,
        "4352": 130,
        "4353": 188,
        "4354": 145,
        "4355": 41,
        "4356": 160,
        "4357": 85,
        "4358": 141,
        "4359": 245,
        "4360": 95,
        "4361": 245,
        "4362": 244,
        "4363": 135,
        "4364": 75,
        "4365": 130,
        "4366": 192,
        "4367": 62,
        "4368": 197,
        "4369": 207,
        "4370": 74,
        "4371": 248,
        "4372": 157,
        "4373": 225,
        "4374": 227,
        "4375": 85,
        "4376": 28,
        "4377": 156,
        "4378": 188,
        "4379": 20,
        "4380": 79,
        "4381": 28,
        "4382": 85,
        "4383": 182,
        "4384": 246,
        "4385": 27,
        "4386": 186,
        "4387": 105,
        "4388": 10,
        "4389": 137,
        "4390": 195,
        "4391": 73,
        "4392": 55,
        "4393": 115,
        "4394": 101,
        "4395": 221,
        "4396": 146,
        "4397": 34,
        "4398": 20,
        "4399": 4,
        "4400": 8,
        "4401": 240,
        "4402": 158,
        "4403": 176,
        "4404": 136,
        "4405": 114,
        "4406": 171,
        "4407": 154,
        "4408": 249,
        "4409": 177,
        "4410": 15,
        "4411": 7,
        "4412": 81,
        "4413": 198,
        "4414": 171,
        "4415": 152,
        "4416": 154,
        "4417": 227,
        "4418": 197,
        "4419": 34,
        "4420": 191,
        "4421": 114,
        "4422": 120,
        "4423": 39,
        "4424": 73,
        "4425": 190,
        "4426": 115,
        "4427": 50,
        "4428": 104,
        "4429": 16,
        "4430": 42,
        "4431": 157,
        "4432": 5,
        "4433": 25,
        "4434": 179,
        "4435": 174,
        "4436": 226,
        "4437": 47,
        "4438": 135,
        "4439": 68,
        "4440": 10,
        "4441": 60,
        "4442": 113,
        "4443": 78,
        "4444": 82,
        "4445": 195,
        "4446": 30,
        "4447": 173,
        "4448": 182,
        "4449": 45,
        "4450": 187,
        "4451": 137,
        "4452": 202,
        "4453": 127,
        "4454": 145,
        "4455": 123,
        "4456": 230,
        "4457": 65,
        "4458": 97,
        "4459": 206,
        "4460": 86,
        "4461": 46,
        "4462": 213,
        "4463": 39,
        "4464": 109,
        "4465": 197,
        "4466": 223,
        "4467": 196,
        "4468": 129,
        "4469": 186,
        "4470": 188,
        "4471": 64,
        "4472": 235,
        "4473": 210,
        "4474": 58,
        "4475": 72,
        "4476": 19,
        "4477": 108,
        "4478": 59,
        "4479": 253,
        "4480": 4,
        "4481": 238,
        "4482": 21,
        "4483": 151,
        "4484": 186,
        "4485": 172,
        "4486": 67,
        "4487": 49,
        "4488": 134,
        "4489": 68,
        "4490": 237,
        "4491": 145,
        "4492": 112,
        "4493": 4,
        "4494": 241,
        "4495": 254,
        "4496": 181,
        "4497": 250,
        "4498": 57,
        "4499": 155,
        "4500": 10,
        "4501": 79,
        "4502": 169,
        "4503": 122,
        "4504": 28,
        "4505": 31,
        "4506": 124,
        "4507": 151,
        "4508": 31,
        "4509": 44,
        "4510": 30,
        "4511": 251,
        "4512": 36,
        "4513": 86,
        "4514": 251,
        "4515": 180,
        "4516": 33,
        "4517": 15,
        "4518": 32,
        "4519": 245,
        "4520": 227,
        "4521": 202,
        "4522": 163,
        "4523": 127,
        "4524": 206,
        "4525": 47,
        "4526": 160,
        "4527": 106,
        "4528": 200,
        "4529": 31,
        "4530": 188,
        "4531": 163,
        "4532": 14,
        "4533": 99,
        "4534": 92,
        "4535": 226,
        "4536": 26,
        "4537": 243,
        "4538": 109,
        "4539": 146,
        "4540": 226,
        "4541": 56,
        "4542": 20,
        "4543": 197,
        "4544": 243,
        "4545": 152,
        "4546": 188,
        "4547": 4,
        "4548": 78,
        "4549": 180,
        "4550": 99,
        "4551": 205,
        "4552": 97,
        "4553": 136,
        "4554": 178,
        "4555": 105,
        "4556": 174,
        "4557": 86,
        "4558": 28,
        "4559": 130,
        "4560": 203,
        "4561": 118,
        "4562": 238,
        "4563": 30,
        "4564": 244,
        "4565": 7,
        "4566": 3,
        "4567": 220,
        "4568": 89,
        "4569": 198,
        "4570": 163,
        "4571": 146,
        "4572": 0,
        "4573": 35,
        "4574": 106,
        "4575": 94,
        "4576": 103,
        "4577": 27,
        "4578": 208,
        "4579": 223,
        "4580": 196,
        "4581": 206,
        "4582": 76,
        "4583": 60,
        "4584": 140,
        "4585": 64,
        "4586": 226,
        "4587": 40,
        "4588": 32,
        "4589": 69,
        "4590": 1,
        "4591": 187,
        "4592": 11,
        "4593": 177,
        "4594": 93,
        "4595": 237,
        "4596": 56,
        "4597": 221,
        "4598": 86,
        "4599": 120,
        "4600": 221,
        "4601": 81,
        "4602": 31,
        "4603": 219,
        "4604": 83,
        "4605": 241,
        "4606": 97,
        "4607": 50,
        "4608": 240,
        "4609": 50,
        "4610": 203,
        "4611": 146,
        "4612": 213,
        "4613": 55,
        "4614": 78,
        "4615": 133,
        "4616": 245,
        "4617": 206,
        "4618": 92,
        "4619": 223,
        "4620": 221,
        "4621": 201,
        "4622": 73,
        "4623": 229,
        "4624": 92,
        "4625": 117,
        "4626": 139,
        "4627": 99,
        "4628": 56,
        "4629": 100,
        "4630": 93,
        "4631": 246,
        "4632": 132,
        "4633": 136,
        "4634": 156,
        "4635": 223,
        "4636": 182,
        "4637": 158,
        "4638": 137,
        "4639": 163,
        "4640": 105,
        "4641": 241,
        "4642": 78,
        "4643": 29,
        "4644": 191,
        "4645": 233,
        "4646": 153,
        "4647": 71,
        "4648": 143,
        "4649": 161,
        "4650": 70,
        "4651": 36,
        "4652": 130,
        "4653": 88,
        "4654": 196,
        "4655": 87,
        "4656": 242,
        "4657": 254,
        "4658": 24,
        "4659": 212,
        "4660": 140,
        "4661": 11,
        "4662": 195,
        "4663": 105,
        "4664": 231,
        "4665": 116,
        "4666": 64,
        "4667": 107,
        "4668": 240,
        "4669": 228,
        "4670": 44,
        "4671": 55,
        "4672": 247,
        "4673": 206,
        "4674": 154,
        "4675": 184,
        "4676": 70,
        "4677": 102,
        "4678": 130,
        "4679": 166,
        "4680": 110,
        "4681": 181,
        "4682": 141,
        "4683": 20,
        "4684": 87,
        "4685": 67,
        "4686": 1,
        "4687": 89,
        "4688": 223,
        "4689": 245,
        "4690": 162,
        "4691": 242,
        "4692": 246,
        "4693": 123,
        "4694": 37,
        "4695": 113,
        "4696": 24,
        "4697": 206,
        "4698": 137,
        "4699": 96,
        "4700": 225,
        "4701": 74,
        "4702": 149,
        "4703": 159,
        "4704": 68,
        "4705": 142,
        "4706": 125,
        "4707": 217,
        "4708": 172,
        "4709": 53,
        "4710": 40,
        "4711": 254,
        "4712": 205,
        "4713": 69,
        "4714": 151,
        "4715": 229,
        "4716": 169,
        "4717": 179,
        "4718": 5,
        "4719": 178,
        "4720": 129,
        "4721": 212,
        "4722": 125,
        "4723": 236,
        "4724": 129,
        "4725": 97,
        "4726": 75,
        "4727": 4,
        "4728": 158,
        "4729": 247,
        "4730": 208,
        "4731": 171,
        "4732": 155,
        "4733": 229,
        "4734": 16,
        "4735": 247,
        "4736": 3,
        "4737": 63,
        "4738": 231,
        "4739": 218,
        "4740": 220,
        "4741": 141,
        "4742": 171,
        "4743": 51,
        "4744": 148,
        "4745": 224,
        "4746": 79,
        "4747": 7,
        "4748": 9,
        "4749": 122,
        "4750": 198,
        "4751": 122,
        "4752": 242,
        "4753": 150,
        "4754": 90,
        "4755": 189,
        "4756": 25,
        "4757": 171,
        "4758": 62,
        "4759": 243,
        "4760": 8,
        "4761": 58,
        "4762": 45,
        "4763": 70,
        "4764": 115,
        "4765": 8,
        "4766": 67,
        "4767": 123,
        "4768": 218,
        "4769": 104,
        "4770": 131,
        "4771": 175,
        "4772": 148,
        "4773": 231,
        "4774": 240,
        "4775": 241,
        "4776": 138,
        "4777": 210,
        "4778": 65,
        "4779": 186,
        "4780": 215,
        "4781": 30,
        "4782": 252,
        "4783": 25,
        "4784": 148,
        "4785": 119,
        "4786": 107,
        "4787": 140,
        "4788": 194,
        "4789": 203,
        "4790": 161,
        "4791": 215,
        "4792": 57,
        "4793": 72,
        "4794": 43,
        "4795": 26,
        "4796": 145,
        "4797": 203,
        "4798": 39,
        "4799": 133,
        "4800": 12,
        "4801": 105,
        "4802": 183,
        "4803": 134,
        "4804": 240,
        "4805": 147,
        "4806": 40,
        "4807": 53,
        "4808": 59,
        "4809": 226,
        "4810": 191,
        "4811": 204,
        "4812": 251,
        "4813": 251,
        "4814": 133,
        "4815": 254,
        "4816": 179,
        "4817": 27,
        "4818": 58,
        "4819": 24,
        "4820": 160,
        "4821": 193,
        "4822": 159,
        "4823": 122,
        "4824": 169,
        "4825": 187,
        "4826": 108,
        "4827": 0,
        "4828": 193,
        "4829": 81,
        "4830": 203,
        "4831": 235,
        "4832": 254,
        "4833": 127,
        "4834": 155,
        "4835": 150,
        "4836": 195,
        "4837": 84,
        "4838": 103,
        "4839": 82,
        "4840": 1,
        "4841": 211,
        "4842": 197,
        "4843": 48,
        "4844": 211,
        "4845": 65,
        "4846": 31,
        "4847": 213,
        "4848": 192,
        "4849": 94,
        "4850": 67,
        "4851": 20,
        "4852": 253,
        "4853": 248,
        "4854": 170,
        "4855": 164,
        "4856": 13,
        "4857": 58,
        "4858": 87,
        "4859": 47,
        "4860": 75,
        "4861": 187,
        "4862": 55,
        "4863": 27,
        "4864": 121,
        "4865": 57,
        "4866": 192,
        "4867": 161,
        "4868": 75,
        "4869": 207,
        "4870": 74,
        "4871": 223,
        "4872": 252,
        "4873": 140,
        "4874": 241,
        "4875": 244,
        "4876": 40,
        "4877": 32,
        "4878": 87,
        "4879": 9,
        "4880": 27,
        "4881": 24,
        "4882": 222,
        "4883": 20,
        "4884": 68,
        "4885": 236,
        "4886": 174,
        "4887": 47,
        "4888": 65,
        "4889": 27,
        "4890": 130,
        "4891": 248,
        "4892": 198,
        "4893": 1,
        "4894": 49,
        "4895": 154,
        "4896": 153,
        "4897": 45,
        "4898": 191,
        "4899": 199,
        "4900": 94,
        "4901": 6,
        "4902": 34,
        "4903": 106,
        "4904": 36,
        "4905": 138,
        "4906": 98,
        "4907": 220,
        "4908": 52,
        "4909": 156,
        "4910": 206,
        "4911": 255,
        "4912": 47,
        "4913": 203,
        "4914": 123,
        "4915": 211,
        "4916": 44,
        "4917": 198,
        "4918": 22,
        "4919": 9,
        "4920": 118,
        "4921": 147,
        "4922": 98,
        "4923": 88,
        "4924": 60,
        "4925": 174,
        "4926": 68,
        "4927": 63,
        "4928": 21,
        "4929": 237,
        "4930": 198,
        "4931": 195,
        "4932": 80,
        "4933": 29,
        "4934": 173,
        "4935": 123,
        "4936": 251,
        "4937": 167,
        "4938": 87,
        "4939": 252,
        "4940": 44,
        "4941": 19,
        "4942": 221,
        "4943": 40,
        "4944": 109,
        "4945": 40,
        "4946": 69,
        "4947": 245,
        "4948": 137,
        "4949": 162,
        "4950": 26,
        "4951": 190,
        "4952": 168,
        "4953": 38,
        "4954": 132,
        "4955": 88,
        "4956": 80,
        "4957": 181,
        "4958": 245,
        "4959": 0,
        "4960": 119,
        "4961": 27,
        "4962": 234,
        "4963": 113,
        "4964": 79,
        "4965": 66,
        "4966": 194,
        "4967": 118,
        "4968": 18,
        "4969": 92,
        "4970": 225,
        "4971": 86,
        "4972": 218,
        "4973": 46,
        "4974": 149,
        "4975": 95,
        "4976": 31,
        "4977": 197,
        "4978": 100,
        "4979": 18,
        "4980": 154,
        "4981": 106,
        "4982": 210,
        "4983": 218,
        "4984": 201,
        "4985": 27,
        "4986": 243,
        "4987": 244,
        "4988": 65,
        "4989": 178,
        "4990": 231,
        "4991": 12,
        "4992": 123,
        "4993": 48,
        "4994": 225,
        "4995": 156,
        "4996": 224,
        "4997": 87,
        "4998": 101,
        "4999": 4,
        "5000": 89,
        "5001": 237,
        "5002": 222,
        "5003": 86,
        "5004": 111,
        "5005": 149,
        "5006": 201,
        "5007": 53,
        "5008": 100,
        "5009": 68,
        "5010": 2,
        "5011": 50,
        "5012": 192,
        "5013": 53,
        "5014": 37,
        "5015": 161,
        "5016": 73,
        "5017": 198,
        "5018": 241,
        "5019": 95,
        "5020": 218,
        "5021": 105,
        "5022": 194,
        "5023": 53,
        "5024": 38,
        "5025": 215,
        "5026": 93,
        "5027": 27,
        "5028": 82,
        "5029": 81,
        "5030": 136,
        "5031": 181,
        "5032": 247,
        "5033": 181,
        "5034": 229,
        "5035": 204,
        "5036": 144,
        "5037": 171,
        "5038": 96,
        "5039": 94,
        "5040": 32,
        "5041": 188,
        "5042": 14,
        "5043": 227,
        "5044": 251,
        "5045": 118,
        "5046": 19,
        "5047": 127,
        "5048": 180,
        "5049": 170,
        "5050": 232,
        "5051": 169,
        "5052": 53,
        "5053": 177,
        "5054": 253,
        "5055": 202,
        "5056": 77,
        "5057": 225,
        "5058": 220,
        "5059": 208,
        "5060": 24,
        "5061": 124,
        "5062": 252,
        "5063": 160,
        "5064": 124,
        "5065": 134,
        "5066": 33,
        "5067": 109,
        "5068": 112,
        "5069": 30,
        "5070": 162,
        "5071": 51,
        "5072": 153,
        "5073": 72,
        "5074": 122,
        "5075": 41,
        "5076": 189,
        "5077": 2,
        "5078": 120,
        "5079": 72,
        "5080": 195,
        "5081": 239,
        "5082": 194,
        "5083": 52,
        "5084": 206,
        "5085": 116,
        "5086": 44,
        "5087": 210,
        "5088": 101,
        "5089": 123,
        "5090": 222,
        "5091": 203,
        "5092": 254,
        "5093": 238,
        "5094": 59,
        "5095": 103,
        "5096": 160,
        "5097": 86,
        "5098": 152,
        "5099": 59,
        "5100": 40,
        "5101": 41,
        "5102": 79,
        "5103": 135,
        "5104": 222,
        "5105": 199,
        "5106": 149,
        "5107": 250,
        "5108": 131,
        "5109": 4,
        "5110": 23,
        "5111": 102,
        "5112": 182,
        "5113": 120,
        "5114": 94,
        "5115": 189,
        "5116": 12,
        "5117": 148,
        "5118": 251,
        "5119": 166,
        "5120": 154,
        "5121": 7,
        "5122": 56,
        "5123": 56,
        "5124": 138,
        "5125": 83,
        "5126": 23,
        "5127": 89,
        "5128": 17,
        "5129": 135,
        "5130": 250,
        "5131": 197,
        "5132": 97,
        "5133": 67,
        "5134": 184,
        "5135": 124,
        "5136": 187,
        "5137": 49,
        "5138": 53,
        "5139": 151,
        "5140": 161,
        "5141": 75,
        "5142": 206,
        "5143": 43,
        "5144": 207,
        "5145": 126,
        "5146": 233,
        "5147": 59,
        "5148": 14,
        "5149": 1,
        "5150": 15,
        "5151": 76,
        "5152": 248,
        "5153": 200,
        "5154": 12,
        "5155": 224,
        "5156": 235,
        "5157": 109,
        "5158": 196,
        "5159": 10,
        "5160": 224,
        "5161": 246,
        "5162": 57,
        "5163": 121,
        "5164": 197,
        "5165": 16,
        "5166": 97,
        "5167": 4,
        "5168": 82,
        "5169": 252,
        "5170": 25,
        "5171": 63,
        "5172": 172,
        "5173": 138,
        "5174": 6,
        "5175": 125,
        "5176": 45,
        "5177": 33,
        "5178": 104,
        "5179": 143,
        "5180": 133,
        "5181": 254,
        "5182": 231,
        "5183": 88,
        "5184": 124,
        "5185": 16,
        "5186": 70,
        "5187": 40,
        "5188": 185,
        "5189": 14,
        "5190": 2,
        "5191": 149,
        "5192": 69,
        "5193": 107,
        "5194": 163,
        "5195": 37,
        "5196": 239,
        "5197": 150,
        "5198": 38,
        "5199": 78,
        "5200": 115,
        "5201": 188,
        "5202": 161,
        "5203": 112,
        "5204": 148,
        "5205": 156,
        "5206": 13,
        "5207": 215,
        "5208": 150,
        "5209": 81,
        "5210": 255,
        "5211": 192,
        "5212": 157,
        "5213": 31,
        "5214": 70,
        "5215": 138,
        "5216": 68,
        "5217": 191,
        "5218": 193,
        "5219": 17,
        "5220": 61,
        "5221": 109,
        "5222": 193,
        "5223": 184,
        "5224": 20,
        "5225": 69,
        "5226": 194,
        "5227": 121,
        "5228": 135,
        "5229": 238,
        "5230": 149,
        "5231": 83,
        "5232": 145,
        "5233": 163,
        "5234": 58,
        "5235": 51,
        "5236": 146,
        "5237": 52,
        "5238": 188,
        "5239": 220,
        "5240": 173,
        "5241": 251,
        "5242": 86,
        "5243": 67,
        "5244": 186,
        "5245": 215,
        "5246": 87,
        "5247": 75,
        "5248": 126,
        "5249": 175,
        "5250": 235,
        "5251": 191,
        "5252": 225,
        "5253": 91,
        "5254": 148,
        "5255": 24,
        "5256": 179,
        "5257": 163,
        "5258": 162,
        "5259": 202,
        "5260": 11,
        "5261": 201,
        "5262": 15,
        "5263": 124,
        "5264": 128,
        "5265": 140,
        "5266": 205,
        "5267": 89,
        "5268": 70,
        "5269": 253,
        "5270": 119,
        "5271": 66,
        "5272": 182,
        "5273": 89,
        "5274": 225,
        "5275": 121,
        "5276": 251,
        "5277": 249,
        "5278": 231,
        "5279": 228,
        "5280": 66,
        "5281": 174,
        "5282": 173,
        "5283": 114,
        "5284": 110,
        "5285": 88,
        "5286": 25,
        "5287": 202,
        "5288": 232,
        "5289": 237,
        "5290": 55,
        "5291": 149,
        "5292": 52,
        "5293": 149,
        "5294": 86,
        "5295": 87,
        "5296": 183,
        "5297": 205,
        "5298": 170,
        "5299": 136,
        "5300": 107,
        "5301": 21,
        "5302": 57,
        "5303": 131,
        "5304": 181,
        "5305": 104,
        "5306": 16,
        "5307": 75,
        "5308": 156,
        "5309": 61,
        "5310": 99,
        "5311": 17,
        "5312": 92,
        "5313": 44,
        "5314": 144,
        "5315": 232,
        "5316": 168,
        "5317": 225,
        "5318": 222,
        "5319": 125,
        "5320": 102,
        "5321": 102,
        "5322": 36,
        "5323": 34,
        "5324": 74,
        "5325": 62,
        "5326": 17,
        "5327": 217,
        "5328": 188,
        "5329": 162,
        "5330": 224,
        "5331": 126,
        "5332": 252,
        "5333": 163,
        "5334": 152,
        "5335": 53,
        "5336": 28,
        "5337": 7,
        "5338": 243,
        "5339": 118,
        "5340": 165,
        "5341": 154,
        "5342": 104,
        "5343": 39,
        "5344": 190,
        "5345": 232,
        "5346": 104,
        "5347": 37,
        "5348": 29,
        "5349": 207,
        "5350": 213,
        "5351": 83,
        "5352": 199,
        "5353": 199,
        "5354": 193,
        "5355": 239,
        "5356": 26,
        "5357": 7,
        "5358": 253,
        "5359": 255,
        "5360": 69,
        "5361": 135,
        "5362": 218,
        "5363": 28,
        "5364": 140,
        "5365": 218,
        "5366": 74,
        "5367": 127,
        "5368": 145,
        "5369": 48,
        "5370": 19,
        "5371": 248,
        "5372": 6,
        "5373": 122,
        "5374": 92,
        "5375": 13,
        "5376": 33,
        "5377": 214,
        "5378": 33,
        "5379": 126,
        "5380": 205,
        "5381": 2,
        "5382": 215,
        "5383": 149,
        "5384": 239,
        "5385": 92,
        "5386": 198,
        "5387": 179,
        "5388": 142,
        "5389": 87,
        "5390": 43,
        "5391": 102,
        "5392": 12,
        "5393": 170,
        "5394": 221,
        "5395": 211,
        "5396": 67,
        "5397": 221,
        "5398": 25,
        "5399": 142,
        "5400": 198,
        "5401": 182,
        "5402": 75,
        "5403": 77,
        "5404": 237,
        "5405": 23,
        "5406": 37,
        "5407": 173,
        "5408": 162,
        "5409": 207,
        "5410": 213,
        "5411": 68,
        "5412": 96,
        "5413": 198,
        "5414": 94,
        "5415": 87,
        "5416": 100,
        "5417": 229,
        "5418": 41,
        "5419": 185,
        "5420": 129,
        "5421": 25,
        "5422": 119,
        "5423": 227,
        "5424": 104,
        "5425": 126,
        "5426": 53,
        "5427": 126,
        "5428": 224,
        "5429": 133,
        "5430": 98,
        "5431": 37,
        "5432": 91,
        "5433": 16,
        "5434": 187,
        "5435": 181,
        "5436": 108,
        "5437": 220,
        "5438": 19,
        "5439": 50,
        "5440": 60,
        "5441": 169,
        "5442": 205,
        "5443": 69,
        "5444": 149,
        "5445": 7,
        "5446": 12,
        "5447": 139,
        "5448": 232,
        "5449": 145,
        "5450": 161,
        "5451": 163,
        "5452": 71,
        "5453": 101,
        "5454": 75,
        "5455": 47,
        "5456": 222,
        "5457": 22,
        "5458": 170,
        "5459": 55,
        "5460": 0,
        "5461": 27,
        "5462": 117,
        "5463": 117,
        "5464": 103,
        "5465": 92,
        "5466": 59,
        "5467": 195,
        "5468": 55,
        "5469": 76,
        "5470": 202,
        "5471": 90,
        "5472": 255,
        "5473": 101,
        "5474": 51,
        "5475": 255,
        "5476": 139,
        "5477": 52,
        "5478": 133,
        "5479": 86,
        "5480": 207,
        "5481": 83,
        "5482": 115,
        "5483": 238,
        "5484": 207,
        "5485": 213,
        "5486": 232,
        "5487": 211,
        "5488": 132,
        "5489": 173,
        "5490": 200,
        "5491": 81,
        "5492": 239,
        "5493": 199,
        "5494": 2,
        "5495": 10,
        "5496": 51,
        "5497": 220,
        "5498": 166,
        "5499": 12,
        "5500": 30,
        "5501": 219,
        "5502": 73,
        "5503": 97,
        "5504": 160,
        "5505": 196,
        "5506": 40,
        "5507": 126,
        "5508": 123,
        "5509": 161,
        "5510": 179,
        "5511": 100,
        "5512": 132,
        "5513": 190,
        "5514": 36,
        "5515": 65,
        "5516": 124,
        "5517": 151,
        "5518": 15,
        "5519": 224,
        "5520": 134,
        "5521": 206,
        "5522": 201,
        "5523": 130,
        "5524": 52,
        "5525": 65,
        "5526": 146,
        "5527": 141,
        "5528": 240,
        "5529": 95,
        "5530": 226,
        "5531": 55,
        "5532": 109,
        "5533": 227,
        "5534": 159,
        "5535": 47,
        "5536": 213,
        "5537": 58,
        "5538": 34,
        "5539": 64,
        "5540": 229,
        "5541": 248,
        "5542": 101,
        "5543": 247,
        "5544": 113,
        "5545": 64,
        "5546": 62,
        "5547": 15,
        "5548": 105,
        "5549": 59,
        "5550": 30,
        "5551": 37,
        "5552": 145,
        "5553": 149,
        "5554": 238,
        "5555": 76,
        "5556": 147,
        "5557": 201,
        "5558": 82,
        "5559": 204,
        "5560": 144,
        "5561": 26,
        "5562": 3,
        "5563": 245,
        "5564": 83,
        "5565": 73,
        "5566": 94,
        "5567": 19,
        "5568": 32,
        "5569": 255,
        "5570": 143,
        "5571": 124,
        "5572": 184,
        "5573": 216,
        "5574": 180,
        "5575": 70,
        "5576": 175,
        "5577": 82,
        "5578": 43,
        "5579": 235,
        "5580": 17,
        "5581": 7,
        "5582": 195,
        "5583": 59,
        "5584": 222,
        "5585": 163,
        "5586": 148,
        "5587": 2,
        "5588": 109,
        "5589": 228,
        "5590": 30,
        "5591": 172,
        "5592": 210,
        "5593": 221,
        "5594": 250,
        "5595": 85,
        "5596": 180,
        "5597": 4,
        "5598": 46,
        "5599": 106,
        "5600": 202,
        "5601": 39,
        "5602": 216,
        "5603": 59,
        "5604": 71,
        "5605": 228,
        "5606": 48,
        "5607": 172,
        "5608": 229,
        "5609": 255,
        "5610": 185,
        "5611": 49,
        "5612": 106,
        "5613": 177,
        "5614": 54,
        "5615": 103,
        "5616": 32,
        "5617": 205,
        "5618": 86,
        "5619": 19,
        "5620": 176,
        "5621": 28,
        "5622": 222,
        "5623": 161,
        "5624": 27,
        "5625": 61,
        "5626": 210,
        "5627": 93,
        "5628": 51,
        "5629": 40,
        "5630": 198,
        "5631": 184,
        "5632": 19,
        "5633": 62,
        "5634": 4,
        "5635": 106,
        "5636": 57,
        "5637": 43,
        "5638": 148,
        "5639": 117,
        "5640": 135,
        "5641": 235,
        "5642": 185,
        "5643": 67,
        "5644": 36,
        "5645": 23,
        "5646": 65,
        "5647": 125,
        "5648": 193,
        "5649": 209,
        "5650": 184,
        "5651": 68,
        "5652": 190,
        "5653": 122,
        "5654": 87,
        "5655": 17,
        "5656": 108,
        "5657": 33,
        "5658": 67,
        "5659": 188,
        "5660": 72,
        "5661": 26,
        "5662": 199,
        "5663": 169,
        "5664": 199,
        "5665": 239,
        "5666": 51,
        "5667": 176,
        "5668": 86,
        "5669": 170,
        "5670": 133,
        "5671": 41,
        "5672": 102,
        "5673": 43,
        "5674": 158,
        "5675": 244,
        "5676": 6,
        "5677": 119,
        "5678": 153,
        "5679": 76,
        "5680": 200,
        "5681": 119,
        "5682": 196,
        "5683": 30,
        "5684": 204,
        "5685": 223,
        "5686": 26,
        "5687": 128,
        "5688": 76,
        "5689": 252,
        "5690": 239,
        "5691": 129,
        "5692": 60,
        "5693": 19,
        "5694": 174,
        "5695": 20,
        "5696": 126,
        "5697": 191,
        "5698": 212,
        "5699": 193,
        "5700": 227,
        "5701": 227,
        "5702": 75,
        "5703": 8,
        "5704": 80,
        "5705": 104,
        "5706": 4,
        "5707": 38,
        "5708": 33,
        "5709": 165,
        "5710": 38,
        "5711": 210,
        "5712": 83,
        "5713": 203,
        "5714": 112,
        "5715": 91,
        "5716": 17,
        "5717": 155,
        "5718": 56,
        "5719": 236,
        "5720": 43,
        "5721": 96,
        "5722": 248,
        "5723": 38,
        "5724": 61,
        "5725": 137,
        "5726": 145,
        "5727": 46,
        "5728": 20,
        "5729": 153,
        "5730": 23,
        "5731": 129,
        "5732": 245,
        "5733": 25,
        "5734": 8,
        "5735": 68,
        "5736": 182,
        "5737": 167,
        "5738": 127,
        "5739": 0,
        "5740": 183,
        "5741": 245,
        "5742": 17,
        "5743": 88,
        "5744": 64,
        "5745": 72,
        "5746": 137,
        "5747": 120,
        "5748": 66,
        "5749": 96,
        "5750": 96,
        "5751": 11,
        "5752": 93,
        "5753": 106,
        "5754": 75,
        "5755": 217,
        "5756": 146,
        "5757": 202,
        "5758": 82,
        "5759": 219,
        "5760": 71,
        "5761": 249,
        "5762": 95,
        "5763": 129,
        "5764": 147,
        "5765": 240,
        "5766": 77,
        "5767": 48,
        "5768": 132,
        "5769": 67,
        "5770": 210,
        "5771": 28,
        "5772": 124,
        "5773": 177,
        "5774": 230,
        "5775": 155,
        "5776": 81,
        "5777": 148,
        "5778": 125,
        "5779": 148,
        "5780": 13,
        "5781": 135,
        "5782": 115,
        "5783": 99,
        "5784": 97,
        "5785": 189,
        "5786": 179,
        "5787": 168,
        "5788": 89,
        "5789": 24,
        "5790": 193,
        "5791": 44,
        "5792": 169,
        "5793": 159,
        "5794": 117,
        "5795": 105,
        "5796": 18,
        "5797": 147,
        "5798": 84,
        "5799": 244,
        "5800": 65,
        "5801": 56,
        "5802": 164,
        "5803": 76,
        "5804": 100,
        "5805": 164,
        "5806": 252,
        "5807": 70,
        "5808": 30,
        "5809": 140,
        "5810": 188,
        "5811": 247,
        "5812": 173,
        "5813": 137,
        "5814": 104,
        "5815": 150,
        "5816": 16,
        "5817": 222,
        "5818": 207,
        "5819": 140,
        "5820": 52,
        "5821": 32,
        "5822": 46,
        "5823": 40,
        "5824": 176,
        "5825": 17,
        "5826": 108,
        "5827": 107,
        "5828": 148,
        "5829": 3,
        "5830": 152,
        "5831": 236,
        "5832": 34,
        "5833": 214,
        "5834": 178,
        "5835": 24,
        "5836": 103,
        "5837": 4,
        "5838": 228,
        "5839": 66,
        "5840": 146,
        "5841": 240,
        "5842": 139,
        "5843": 88,
        "5844": 116,
        "5845": 127,
        "5846": 151,
        "5847": 99,
        "5848": 254,
        "5849": 136,
        "5850": 249,
        "5851": 116,
        "5852": 23,
        "5853": 113,
        "5854": 38,
        "5855": 14,
        "5856": 246,
        "5857": 250,
        "5858": 99,
        "5859": 55,
        "5860": 240,
        "5861": 248,
        "5862": 68,
        "5863": 126,
        "5864": 145,
        "5865": 78,
        "5866": 142,
        "5867": 102,
        "5868": 248,
        "5869": 242,
        "5870": 241,
        "5871": 209,
        "5872": 243,
        "5873": 89,
        "5874": 154,
        "5875": 167,
        "5876": 56,
        "5877": 181,
        "5878": 44,
        "5879": 188,
        "5880": 118,
        "5881": 239,
        "5882": 41,
        "5883": 201,
        "5884": 220,
        "5885": 128,
        "5886": 185,
        "5887": 172,
        "5888": 249,
        "5889": 254,
        "5890": 180,
        "5891": 150,
        "5892": 25,
        "5893": 123,
        "5894": 221,
        "5895": 37,
        "5896": 9,
        "5897": 157,
        "5898": 198,
        "5899": 115,
        "5900": 22,
        "5901": 128,
        "5902": 158,
        "5903": 15,
        "5904": 108,
        "5905": 87,
        "5906": 128,
        "5907": 94,
        "5908": 0,
        "5909": 221,
        "5910": 249,
        "5911": 238,
        "5912": 41,
        "5913": 121,
        "5914": 52,
        "5915": 214,
        "5916": 135,
        "5917": 200,
        "5918": 150,
        "5919": 39,
        "5920": 167,
        "5921": 215,
        "5922": 20,
        "5923": 40,
        "5924": 33,
        "5925": 95,
        "5926": 40,
        "5927": 126,
        "5928": 142,
        "5929": 164,
        "5930": 238,
        "5931": 198,
        "5932": 99,
        "5933": 216,
        "5934": 113,
        "5935": 176,
        "5936": 84,
        "5937": 246,
        "5938": 189,
        "5939": 222,
        "5940": 244,
        "5941": 96,
        "5942": 113,
        "5943": 119,
        "5944": 26,
        "5945": 222,
        "5946": 46,
        "5947": 23,
        "5948": 150,
        "5949": 162,
        "5950": 149,
        "5951": 247,
        "5952": 190,
        "5953": 61,
        "5954": 163,
        "5955": 169,
        "5956": 99,
        "5957": 76,
        "5958": 224,
        "5959": 146,
        "5960": 27,
        "5961": 185,
        "5962": 154,
        "5963": 194,
        "5964": 103,
        "5965": 202,
        "5966": 177,
        "5967": 199,
        "5968": 24,
        "5969": 196,
        "5970": 156,
        "5971": 164,
        "5972": 184,
        "5973": 175,
        "5974": 252,
        "5975": 100,
        "5976": 209,
        "5977": 218,
        "5978": 20,
        "5979": 248,
        "5980": 158,
        "5981": 198,
        "5982": 157,
        "5983": 55,
        "5984": 136,
        "5985": 86,
        "5986": 120,
        "5987": 12,
        "5988": 6,
        "5989": 176,
        "5990": 111,
        "5991": 41,
        "5992": 210,
        "5993": 157,
        "5994": 159,
        "5995": 193,
        "5996": 48,
        "5997": 56,
        "5998": 110,
        "5999": 22,
        "6000": 107,
        "6001": 137,
        "6002": 102,
        "6003": 238,
        "6004": 91,
        "6005": 138,
        "6006": 14,
        "6007": 27,
        "6008": 94,
        "6009": 0,
        "6010": 203,
        "6011": 36,
        "6012": 128,
        "6013": 4,
        "6014": 79,
        "6015": 97,
        "6016": 52,
        "6017": 36,
        "6018": 107,
        "6019": 137,
        "6020": 125,
        "6021": 132,
        "6022": 2,
        "6023": 24,
        "6024": 191,
        "6025": 163,
        "6026": 187,
        "6027": 225,
        "6028": 147,
        "6029": 149,
        "6030": 98,
        "6031": 249,
        "6032": 235,
        "6033": 141,
        "6034": 177,
        "6035": 123,
        "6036": 208,
        "6037": 51,
        "6038": 199,
        "6039": 26,
        "6040": 12,
        "6041": 112,
        "6042": 175,
        "6043": 105,
        "6044": 68,
        "6045": 61,
        "6046": 18,
        "6047": 139,
        "6048": 101,
        "6049": 56,
        "6050": 221,
        "6051": 75,
        "6052": 167,
        "6053": 223,
        "6054": 244,
        "6055": 180,
        "6056": 15,
        "6057": 31,
        "6058": 251,
        "6059": 56,
        "6060": 99,
        "6061": 163,
        "6062": 160,
        "6063": 73,
        "6064": 71,
        "6065": 188,
        "6066": 102,
        "6067": 193,
        "6068": 53,
        "6069": 27,
        "6070": 141,
        "6071": 143,
        "6072": 240,
        "6073": 226,
        "6074": 215,
        "6075": 1,
        "6076": 28,
        "6077": 162,
        "6078": 68,
        "6079": 245,
        "6080": 57,
        "6081": 128,
        "6082": 223,
        "6083": 14,
        "6084": 68,
        "6085": 165,
        "6086": 145,
        "6087": 166,
        "6088": 235,
        "6089": 74,
        "6090": 244,
        "6091": 173,
        "6092": 189,
        "6093": 5,
        "6094": 251,
        "6095": 41,
        "6096": 171,
        "6097": 181,
        "6098": 248,
        "6099": 113,
        "6100": 142,
        "6101": 90,
        "6102": 34,
        "6103": 93,
        "6104": 227,
        "6105": 221,
        "6106": 81,
        "6107": 2,
        "6108": 177,
        "6109": 71,
        "6110": 35,
        "6111": 85,
        "6112": 248,
        "6113": 119,
        "6114": 175,
        "6115": 155,
        "6116": 5,
        "6117": 16,
        "6118": 175,
        "6119": 0,
        "6120": 60,
        "6121": 151,
        "6122": 31,
        "6123": 169,
        "6124": 200,
        "6125": 74,
        "6126": 123,
        "6127": 164,
        "6128": 5,
        "6129": 55,
        "6130": 17,
        "6131": 152,
        "6132": 15,
        "6133": 218,
        "6134": 225,
        "6135": 85,
        "6136": 96,
        "6137": 38,
        "6138": 127,
        "6139": 56,
        "6140": 43,
        "6141": 54,
        "6142": 13,
        "6143": 65,
        "6144": 56,
        "6145": 121,
        "6146": 25,
        "6147": 232,
        "6148": 80,
        "6149": 99,
        "6150": 42,
        "6151": 53,
        "6152": 201,
        "6153": 157,
        "6154": 1,
        "6155": 139,
        "6156": 59,
        "6157": 13,
        "6158": 14,
        "6159": 84,
        "6160": 224,
        "6161": 95,
        "6162": 72,
        "6163": 136,
        "6164": 151,
        "6165": 66,
        "6166": 90,
        "6167": 251,
        "6168": 38,
        "6169": 223,
        "6170": 201,
        "6171": 149,
        "6172": 91,
        "6173": 198,
        "6174": 59,
        "6175": 159,
        "6176": 120,
        "6177": 118,
        "6178": 177,
        "6179": 65,
        "6180": 17,
        "6181": 238,
        "6182": 55,
        "6183": 13,
        "6184": 190,
        "6185": 198,
        "6186": 183,
        "6187": 111,
        "6188": 3,
        "6189": 76,
        "6190": 195,
        "6191": 88,
        "6192": 60,
        "6193": 126,
        "6194": 138,
        "6195": 8,
        "6196": 53,
        "6197": 77,
        "6198": 165,
        "6199": 62,
        "6200": 163,
        "6201": 73,
        "6202": 228,
        "6203": 251,
        "6204": 42,
        "6205": 86,
        "6206": 120,
        "6207": 106,
        "6208": 250,
        "6209": 158,
        "6210": 105,
        "6211": 135,
        "6212": 154,
        "6213": 198,
        "6214": 204,
        "6215": 49,
        "6216": 68,
        "6217": 103,
        "6218": 52,
        "6219": 150,
        "6220": 170,
        "6221": 93,
        "6222": 185,
        "6223": 118,
        "6224": 99,
        "6225": 124,
        "6226": 69,
        "6227": 62,
        "6228": 112,
        "6229": 176,
        "6230": 189,
        "6231": 240,
        "6232": 104,
        "6233": 232,
        "6234": 68,
        "6235": 183,
        "6236": 88,
        "6237": 211,
        "6238": 100,
        "6239": 200,
        "6240": 158,
        "6241": 117,
        "6242": 109,
        "6243": 41,
        "6244": 223,
        "6245": 153,
        "6246": 23,
        "6247": 183,
        "6248": 6,
        "6249": 200,
        "6250": 249,
        "6251": 26,
        "6252": 116,
        "6253": 160,
        "6254": 25,
        "6255": 240,
        "6256": 226,
        "6257": 189,
        "6258": 217,
        "6259": 216,
        "6260": 127,
        "6261": 142,
        "6262": 142,
        "6263": 167,
        "6264": 68,
        "6265": 80,
        "6266": 118,
        "6267": 178,
        "6268": 123,
        "6269": 55,
        "6270": 110,
        "6271": 199,
        "6272": 217,
        "6273": 202,
        "6274": 239,
        "6275": 238,
        "6276": 195,
        "6277": 253,
        "6278": 121,
        "6279": 128,
        "6280": 65,
        "6281": 179,
        "6282": 159,
        "6283": 221,
        "6284": 74,
        "6285": 26,
        "6286": 205,
        "6287": 97,
        "6288": 31,
        "6289": 35,
        "6290": 164,
        "6291": 85,
        "6292": 82,
        "6293": 200,
        "6294": 89,
        "6295": 82,
        "6296": 95,
        "6297": 124,
        "6298": 101,
        "6299": 141,
        "6300": 82,
        "6301": 23,
        "6302": 25,
        "6303": 104,
        "6304": 246,
        "6305": 127,
        "6306": 182,
        "6307": 184,
        "6308": 35,
        "6309": 72,
        "6310": 128,
        "6311": 146,
        "6312": 182,
        "6313": 86,
        "6314": 164,
        "6315": 40,
        "6316": 133,
        "6317": 163,
        "6318": 114,
        "6319": 143,
        "6320": 26,
        "6321": 169,
        "6322": 12,
        "6323": 123,
        "6324": 191,
        "6325": 31,
        "6326": 175,
        "6327": 1,
        "6328": 224,
        "6329": 100,
        "6330": 171,
        "6331": 131,
        "6332": 237,
        "6333": 147,
        "6334": 23,
        "6335": 44,
        "6336": 19,
        "6337": 255,
        "6338": 148,
        "6339": 43,
        "6340": 61,
        "6341": 67,
        "6342": 135,
        "6343": 5,
        "6344": 157,
        "6345": 76,
        "6346": 61,
        "6347": 33,
        "6348": 208,
        "6349": 46,
        "6350": 155,
        "6351": 154,
        "6352": 106,
        "6353": 208,
        "6354": 80,
        "6355": 213,
        "6356": 171,
        "6357": 66,
        "6358": 214,
        "6359": 109,
        "6360": 17,
        "6361": 106,
        "6362": 165,
        "6363": 78,
        "6364": 245,
        "6365": 21,
        "6366": 252,
        "6367": 147,
        "6368": 139,
        "6369": 227,
        "6370": 239,
        "6371": 100,
        "6372": 212,
        "6373": 174,
        "6374": 117,
        "6375": 165,
        "6376": 113,
        "6377": 57,
        "6378": 134,
        "6379": 141,
        "6380": 165,
        "6381": 224,
        "6382": 59,
        "6383": 235,
        "6384": 139,
        "6385": 45,
        "6386": 194,
        "6387": 106,
        "6388": 50,
        "6389": 20,
        "6390": 211,
        "6391": 168,
        "6392": 239,
        "6393": 174,
        "6394": 188,
        "6395": 95,
        "6396": 241,
        "6397": 165,
        "6398": 212,
        "6399": 46,
        "6400": 189,
        "6401": 250,
        "6402": 163,
        "6403": 139,
        "6404": 97,
        "6405": 127,
        "6406": 180,
        "6407": 193,
        "6408": 253,
        "6409": 0,
        "6410": 142,
        "6411": 126,
        "6412": 245,
        "6413": 56,
        "6414": 148,
        "6415": 164,
        "6416": 236,
        "6417": 235,
        "6418": 253,
        "6419": 228,
        "6420": 131,
        "6421": 148,
        "6422": 21,
        "6423": 79,
        "6424": 116,
        "6425": 96,
        "6426": 175,
        "6427": 107,
        "6428": 140,
        "6429": 128,
        "6430": 183,
        "6431": 37,
        "6432": 177,
        "6433": 223,
        "6434": 222,
        "6435": 244,
        "6436": 197,
        "6437": 140,
        "6438": 143,
        "6439": 109,
        "6440": 70,
        "6441": 225,
        "6442": 253,
        "6443": 221,
        "6444": 223,
        "6445": 70,
        "6446": 170,
        "6447": 171,
        "6448": 254,
        "6449": 235,
        "6450": 128,
        "6451": 147,
        "6452": 11,
        "6453": 183,
        "6454": 164,
        "6455": 73,
        "6456": 115,
        "6457": 124,
        "6458": 185,
        "6459": 69,
        "6460": 222,
        "6461": 80,
        "6462": 122,
        "6463": 98,
        "6464": 114,
        "6465": 71,
        "6466": 164,
        "6467": 247,
        "6468": 92,
        "6469": 78,
        "6470": 59,
        "6471": 92,
        "6472": 72,
        "6473": 36,
        "6474": 118,
        "6475": 87,
        "6476": 120,
        "6477": 189,
        "6478": 23,
        "6479": 219,
        "6480": 176,
        "6481": 59,
        "6482": 228,
        "6483": 29,
        "6484": 87,
        "6485": 66,
        "6486": 197,
        "6487": 92,
        "6488": 38,
        "6489": 8,
        "6490": 26,
        "6491": 20,
        "6492": 99,
        "6493": 38,
        "6494": 98,
        "6495": 179,
        "6496": 81,
        "6497": 221,
        "6498": 190,
        "6499": 221,
        "6500": 246,
        "6501": 253,
        "6502": 111,
        "6503": 243,
        "6504": 10,
        "6505": 223,
        "6506": 249,
        "6507": 171,
        "6508": 233,
        "6509": 220,
        "6510": 181,
        "6511": 255,
        "6512": 213,
        "6513": 223,
        "6514": 247,
        "6515": 123,
        "6516": 75,
        "6517": 49,
        "6518": 100,
        "6519": 171,
        "6520": 203,
        "6521": 254,
        "6522": 141,
        "6523": 125,
        "6524": 121,
        "6525": 229,
        "6526": 225,
        "6527": 177,
        "6528": 240,
        "6529": 165,
        "6530": 74,
        "6531": 195,
        "6532": 133,
        "6533": 22,
        "6534": 152,
        "6535": 53,
        "6536": 231,
        "6537": 248,
        "6538": 227,
        "6539": 26,
        "6540": 179,
        "6541": 77,
        "6542": 67,
        "6543": 60,
        "6544": 74,
        "6545": 5,
        "6546": 141,
        "6547": 114,
        "6548": 227,
        "6549": 107,
        "6550": 28,
        "6551": 77,
        "6552": 161,
        "6553": 103,
        "6554": 248,
        "6555": 120,
        "6556": 3,
        "6557": 241,
        "6558": 93,
        "6559": 193,
        "6560": 81,
        "6561": 71,
        "6562": 95,
        "6563": 45,
        "6564": 59,
        "6565": 61,
        "6566": 25,
        "6567": 55,
        "6568": 208,
        "6569": 54,
        "6570": 109,
        "6571": 182,
        "6572": 9,
        "6573": 244,
        "6574": 17,
        "6575": 153,
        "6576": 152,
        "6577": 10,
        "6578": 249,
        "6579": 170,
        "6580": 155,
        "6581": 240,
        "6582": 136,
        "6583": 83,
        "6584": 85,
        "6585": 215,
        "6586": 78,
        "6587": 165,
        "6588": 44,
        "6589": 119,
        "6590": 161,
        "6591": 45,
        "6592": 28,
        "6593": 52,
        "6594": 65,
        "6595": 253,
        "6596": 88,
        "6597": 226,
        "6598": 118,
        "6599": 50,
        "6600": 7,
        "6601": 51,
        "6602": 255,
        "6603": 153,
        "6604": 163,
        "6605": 198,
        "6606": 88,
        "6607": 63,
        "6608": 69,
        "6609": 162,
        "6610": 139,
        "6611": 193,
        "6612": 53,
        "6613": 61,
        "6614": 211,
        "6615": 203,
        "6616": 35,
        "6617": 182,
        "6618": 155,
        "6619": 118,
        "6620": 64,
        "6621": 238,
        "6622": 15,
        "6623": 53,
        "6624": 22,
        "6625": 5,
        "6626": 207,
        "6627": 107,
        "6628": 28,
        "6629": 94,
        "6630": 192,
        "6631": 132,
        "6632": 10,
        "6633": 132,
        "6634": 167,
        "6635": 193,
        "6636": 235,
        "6637": 60,
        "6638": 52,
        "6639": 214,
        "6640": 9,
        "6641": 79,
        "6642": 186,
        "6643": 164,
        "6644": 165,
        "6645": 174,
        "6646": 27,
        "6647": 154,
        "6648": 6,
        "6649": 167,
        "6650": 162,
        "6651": 11,
        "6652": 201,
        "6653": 153,
        "6654": 137,
        "6655": 150,
        "6656": 97,
        "6657": 122,
        "6658": 198,
        "6659": 95,
        "6660": 115,
        "6661": 83,
        "6662": 9,
        "6663": 88,
        "6664": 3,
        "6665": 252,
        "6666": 60,
        "6667": 98,
        "6668": 34,
        "6669": 23,
        "6670": 13,
        "6671": 181,
        "6672": 116,
        "6673": 118,
        "6674": 19,
        "6675": 85,
        "6676": 228,
        "6677": 134,
        "6678": 194,
        "6679": 170,
        "6680": 140,
        "6681": 69,
        "6682": 238,
        "6683": 100,
        "6684": 136,
        "6685": 155,
        "6686": 14,
        "6687": 193,
        "6688": 48,
        "6689": 225,
        "6690": 186,
        "6691": 89,
        "6692": 125,
        "6693": 68,
        "6694": 148,
        "6695": 201,
        "6696": 212,
        "6697": 44,
        "6698": 138,
        "6699": 71,
        "6700": 41,
        "6701": 183,
        "6702": 240,
        "6703": 18,
        "6704": 19,
        "6705": 152,
        "6706": 36,
        "6707": 151,
        "6708": 19,
        "6709": 41,
        "6710": 86,
        "6711": 239,
        "6712": 90,
        "6713": 209,
        "6714": 160,
        "6715": 64,
        "6716": 216,
        "6717": 98,
        "6718": 42,
        "6719": 88,
        "6720": 85,
        "6721": 234,
        "6722": 163,
        "6723": 246,
        "6724": 177,
        "6725": 6,
        "6726": 210,
        "6727": 251,
        "6728": 19,
        "6729": 188,
        "6730": 154,
        "6731": 250,
        "6732": 33,
        "6733": 103,
        "6734": 137,
        "6735": 188,
        "6736": 105,
        "6737": 135,
        "6738": 92,
        "6739": 139,
        "6740": 101,
        "6741": 164,
        "6742": 147,
        "6743": 40,
        "6744": 141,
        "6745": 155,
        "6746": 142,
        "6747": 148,
        "6748": 136,
        "6749": 238,
        "6750": 94,
        "6751": 10,
        "6752": 58,
        "6753": 196,
        "6754": 84,
        "6755": 45,
        "6756": 118,
        "6757": 209,
        "6758": 54,
        "6759": 43,
        "6760": 250,
        "6761": 95,
        "6762": 36,
        "6763": 109,
        "6764": 46,
        "6765": 235,
        "6766": 221,
        "6767": 75,
        "6768": 136,
        "6769": 122,
        "6770": 104,
        "6771": 149,
        "6772": 167,
        "6773": 224,
        "6774": 186,
        "6775": 219,
        "6776": 186,
        "6777": 163,
        "6778": 1,
        "6779": 110,
        "6780": 5,
        "6781": 150,
        "6782": 228,
        "6783": 220,
        "6784": 160,
        "6785": 26,
        "6786": 119,
        "6787": 164,
        "6788": 94,
        "6789": 108,
        "6790": 251,
        "6791": 28,
        "6792": 227,
        "6793": 139,
        "6794": 99,
        "6795": 195,
        "6796": 204,
        "6797": 228,
        "6798": 131,
        "6799": 246,
        "6800": 241,
        "6801": 135,
        "6802": 213,
        "6803": 89,
        "6804": 240,
        "6805": 107,
        "6806": 199,
        "6807": 9,
        "6808": 165,
        "6809": 26,
        "6810": 60,
        "6811": 155,
        "6812": 222,
        "6813": 41,
        "6814": 172,
        "6815": 13,
        "6816": 205,
        "6817": 112,
        "6818": 22,
        "6819": 85,
        "6820": 148,
        "6821": 191,
        "6822": 226,
        "6823": 208,
        "6824": 254,
        "6825": 186,
        "6826": 206,
        "6827": 172,
        "6828": 14,
        "6829": 254,
        "6830": 241,
        "6831": 115,
        "6832": 191,
        "6833": 131,
        "6834": 236,
        "6835": 145,
        "6836": 253,
        "6837": 223,
        "6838": 98,
        "6839": 150,
        "6840": 235,
        "6841": 107,
        "6842": 137,
        "6843": 215,
        "6844": 225,
        "6845": 160,
        "6846": 145,
        "6847": 220,
        "6848": 188,
        "6849": 213,
        "6850": 234,
        "6851": 220,
        "6852": 212,
        "6853": 224,
        "6854": 237,
        "6855": 147,
        "6856": 113,
        "6857": 45,
        "6858": 22,
        "6859": 222,
        "6860": 62,
        "6861": 100,
        "6862": 217,
        "6863": 106,
        "6864": 34,
        "6865": 202,
        "6866": 44,
        "6867": 80,
        "6868": 164,
        "6869": 178,
        "6870": 254,
        "6871": 137,
        "6872": 50,
        "6873": 193,
        "6874": 44,
        "6875": 222,
        "6876": 43,
        "6877": 41,
        "6878": 69,
        "6879": 166,
        "6880": 180,
        "6881": 98,
        "6882": 240,
        "6883": 91,
        "6884": 201,
        "6885": 154,
        "6886": 87,
        "6887": 66,
        "6888": 246,
        "6889": 184,
        "6890": 50,
        "6891": 123,
        "6892": 52,
        "6893": 197,
        "6894": 145,
        "6895": 100,
        "6896": 4,
        "6897": 122,
        "6898": 114,
        "6899": 0,
        "6900": 68,
        "6901": 157,
        "6902": 43,
        "6903": 168,
        "6904": 44,
        "6905": 231,
        "6906": 245,
        "6907": 211,
        "6908": 96,
        "6909": 125,
        "6910": 237,
        "6911": 48,
        "6912": 44,
        "6913": 246,
        "6914": 99,
        "6915": 110,
        "6916": 190,
        "6917": 227,
        "6918": 213,
        "6919": 239,
        "6920": 48,
        "6921": 83,
        "6922": 110,
        "6923": 100,
        "6924": 218,
        "6925": 106,
        "6926": 95,
        "6927": 11,
        "6928": 144,
        "6929": 10,
        "6930": 136,
        "6931": 223,
        "6932": 128,
        "6933": 167,
        "6934": 207,
        "6935": 38,
        "6936": 16,
        "6937": 111,
        "6938": 232,
        "6939": 72,
        "6940": 134,
        "6941": 205,
        "6942": 243,
        "6943": 74,
        "6944": 106,
        "6945": 225,
        "6946": 67,
        "6947": 182,
        "6948": 139,
        "6949": 2,
        "6950": 212,
        "6951": 45,
        "6952": 126,
        "6953": 155,
        "6954": 129,
        "6955": 92,
        "6956": 156,
        "6957": 86,
        "6958": 31,
        "6959": 133,
        "6960": 211,
        "6961": 130,
        "6962": 43,
        "6963": 130,
        "6964": 3,
        "6965": 60,
        "6966": 172,
        "6967": 112,
        "6968": 83,
        "6969": 100,
        "6970": 187,
        "6971": 161,
        "6972": 80,
        "6973": 244,
        "6974": 22,
        "6975": 155,
        "6976": 5,
        "6977": 252,
        "6978": 93,
        "6979": 117,
        "6980": 123,
        "6981": 209,
        "6982": 121,
        "6983": 138,
        "6984": 19,
        "6985": 21,
        "6986": 31,
        "6987": 5,
        "6988": 58,
        "6989": 103,
        "6990": 228,
        "6991": 224,
        "6992": 227,
        "6993": 48,
        "6994": 136,
        "6995": 220,
        "6996": 57,
        "6997": 136,
        "6998": 140,
        "6999": 211,
        "7000": 124,
        "7001": 217,
        "7002": 51,
        "7003": 148,
        "7004": 77,
        "7005": 145,
        "7006": 15,
        "7007": 21,
        "7008": 147,
        "7009": 229,
        "7010": 245,
        "7011": 61,
        "7012": 106,
        "7013": 233,
        "7014": 32,
        "7015": 39,
        "7016": 14,
        "7017": 130,
        "7018": 20,
        "7019": 120,
        "7020": 157,
        "7021": 119,
        "7022": 235,
        "7023": 233,
        "7024": 103,
        "7025": 152,
        "7026": 75,
        "7027": 50,
        "7028": 126,
        "7029": 50,
        "7030": 50,
        "7031": 246,
        "7032": 125,
        "7033": 209,
        "7034": 16,
        "7035": 221,
        "7036": 74,
        "7037": 111,
        "7038": 101,
        "7039": 144,
        "7040": 71,
        "7041": 189,
        "7042": 166,
        "7043": 26,
        "7044": 54,
        "7045": 132,
        "7046": 146,
        "7047": 201,
        "7048": 61,
        "7049": 255,
        "7050": 235,
        "7051": 129,
        "7052": 155,
        "7053": 243,
        "7054": 82,
        "7055": 201,
        "7056": 93,
        "7057": 27,
        "7058": 158,
        "7059": 8,
        "7060": 225,
        "7061": 223,
        "7062": 181,
        "7063": 74,
        "7064": 87,
        "7065": 22,
        "7066": 135,
        "7067": 184,
        "7068": 32,
        "7069": 255,
        "7070": 59,
        "7071": 79,
        "7072": 117,
        "7073": 246,
        "7074": 47,
        "7075": 110,
        "7076": 255,
        "7077": 31,
        "7078": 117,
        "7079": 179,
        "7080": 156,
        "7081": 105,
        "7082": 223,
        "7083": 123,
        "7084": 27,
        "7085": 91,
        "7086": 231,
        "7087": 238,
        "7088": 205,
        "7089": 17,
        "7090": 72,
        "7091": 182,
        "7092": 155,
        "7093": 25,
        "7094": 114,
        "7095": 6,
        "7096": 57,
        "7097": 115,
        "7098": 62,
        "7099": 153,
        "7100": 200,
        "7101": 243,
        "7102": 35,
        "7103": 32,
        "7104": 47,
        "7105": 108,
        "7106": 90,
        "7107": 167,
        "7108": 233,
        "7109": 115,
        "7110": 201,
        "7111": 143,
        "7112": 12,
        "7113": 12,
        "7114": 237,
        "7115": 100,
        "7116": 74,
        "7117": 210,
        "7118": 218,
        "7119": 105,
        "7120": 176,
        "7121": 142,
        "7122": 107,
        "7123": 157,
        "7124": 239,
        "7125": 0,
        "7126": 181,
        "7127": 136,
        "7128": 111,
        "7129": 50,
        "7130": 127,
        "7131": 117,
        "7132": 63,
        "7133": 233,
        "7134": 146,
        "7135": 144,
        "7136": 214,
        "7137": 75,
        "7138": 194,
        "7139": 84,
        "7140": 34,
        "7141": 166,
        "7142": 172,
        "7143": 130,
        "7144": 80,
        "7145": 213,
        "7146": 131,
        "7147": 63,
        "7148": 213,
        "7149": 26,
        "7150": 162,
        "7151": 186,
        "7152": 166,
        "7153": 162,
        "7154": 225,
        "7155": 31,
        "7156": 81,
        "7157": 238,
        "7158": 133,
        "7159": 51,
        "7160": 91,
        "7161": 166,
        "7162": 15,
        "7163": 215,
        "7164": 89,
        "7165": 0,
        "7166": 113,
        "7167": 118,
        "7168": 32,
        "7169": 86,
        "7170": 234,
        "7171": 85,
        "7172": 243,
        "7173": 150,
        "7174": 119,
        "7175": 151,
        "7176": 21,
        "7177": 206,
        "7178": 152,
        "7179": 205,
        "7180": 236,
        "7181": 205,
        "7182": 176,
        "7183": 177,
        "7184": 162,
        "7185": 165,
        "7186": 243,
        "7187": 7,
        "7188": 40,
        "7189": 238,
        "7190": 243,
        "7191": 122,
        "7192": 113,
        "7193": 60,
        "7194": 213,
        "7195": 213,
        "7196": 223,
        "7197": 27,
        "7198": 26,
        "7199": 42,
        "7200": 70,
        "7201": 81,
        "7202": 126,
        "7203": 243,
        "7204": 230,
        "7205": 110,
        "7206": 56,
        "7207": 207,
        "7208": 136,
        "7209": 224,
        "7210": 204,
        "7211": 117,
        "7212": 36,
        "7213": 91,
        "7214": 105,
        "7215": 219,
        "7216": 126,
        "7217": 188,
        "7218": 158,
        "7219": 93,
        "7220": 187,
        "7221": 252,
        "7222": 197,
        "7223": 19,
        "7224": 188,
        "7225": 214,
        "7226": 68,
        "7227": 12,
        "7228": 241,
        "7229": 221,
        "7230": 254,
        "7231": 211,
        "7232": 15,
        "7233": 57,
        "7234": 64,
        "7235": 170,
        "7236": 5,
        "7237": 83,
        "7238": 43,
        "7239": 119,
        "7240": 77,
        "7241": 67,
        "7242": 68,
        "7243": 235,
        "7244": 118,
        "7245": 93,
        "7246": 174,
        "7247": 94,
        "7248": 102,
        "7249": 151,
        "7250": 128,
        "7251": 147,
        "7252": 22,
        "7253": 11,
        "7254": 211,
        "7255": 164,
        "7256": 108,
        "7257": 13,
        "7258": 140,
        "7259": 160,
        "7260": 183,
        "7261": 226,
        "7262": 149,
        "7263": 210,
        "7264": 104,
        "7265": 105,
        "7266": 188,
        "7267": 162,
        "7268": 197,
        "7269": 151,
        "7270": 77,
        "7271": 18,
        "7272": 22,
        "7273": 252,
        "7274": 158,
        "7275": 253,
        "7276": 55,
        "7277": 197,
        "7278": 70,
        "7279": 60,
        "7280": 31,
        "7281": 207,
        "7282": 148,
        "7283": 117,
        "7284": 221,
        "7285": 39,
        "7286": 218,
        "7287": 134,
        "7288": 4,
        "7289": 81,
        "7290": 8,
        "7291": 213,
        "7292": 179,
        "7293": 203,
        "7294": 35,
        "7295": 94,
        "7296": 30,
        "7297": 3,
        "7298": 8,
        "7299": 103,
        "7300": 59,
        "7301": 59,
        "7302": 23,
        "7303": 119,
        "7304": 237,
        "7305": 83,
        "7306": 250,
        "7307": 15,
        "7308": 103,
        "7309": 189,
        "7310": 154,
        "7311": 81,
        "7312": 205,
        "7313": 249,
        "7314": 28,
        "7315": 103,
        "7316": 78,
        "7317": 22,
        "7318": 54,
        "7319": 63,
        "7320": 222,
        "7321": 131,
        "7322": 239,
        "7323": 209,
        "7324": 37,
        "7325": 139,
        "7326": 84,
        "7327": 119,
        "7328": 18,
        "7329": 99,
        "7330": 72,
        "7331": 230,
        "7332": 69,
        "7333": 51,
        "7334": 112,
        "7335": 224,
        "7336": 70,
        "7337": 53,
        "7338": 163,
        "7339": 8,
        "7340": 225,
        "7341": 148,
        "7342": 233,
        "7343": 90,
        "7344": 239,
        "7345": 15,
        "7346": 151,
        "7347": 48,
        "7348": 46,
        "7349": 21,
        "7350": 146,
        "7351": 104,
        "7352": 238,
        "7353": 245,
        "7354": 137,
        "7355": 95,
        "7356": 71,
        "7357": 123,
        "7358": 241,
        "7359": 223,
        "7360": 112,
        "7361": 200,
        "7362": 136,
        "7363": 187,
        "7364": 186,
        "7365": 130,
        "7366": 90,
        "7367": 204,
        "7368": 190,
        "7369": 172,
        "7370": 224,
        "7371": 139,
        "7372": 30,
        "7373": 205,
        "7374": 249,
        "7375": 240,
        "7376": 199,
        "7377": 105,
        "7378": 180,
        "7379": 136,
        "7380": 181,
        "7381": 110,
        "7382": 1,
        "7383": 146,
        "7384": 137,
        "7385": 10,
        "7386": 137,
        "7387": 247,
        "7388": 2,
        "7389": 55,
        "7390": 58,
        "7391": 117,
        "7392": 66,
        "7393": 177,
        "7394": 36,
        "7395": 195,
        "7396": 34,
        "7397": 248,
        "7398": 43,
        "7399": 168,
        "7400": 166,
        "7401": 74,
        "7402": 47,
        "7403": 234,
        "7404": 103,
        "7405": 125,
        "7406": 8,
        "7407": 186,
        "7408": 193,
        "7409": 38,
        "7410": 115,
        "7411": 205,
        "7412": 186,
        "7413": 98,
        "7414": 169,
        "7415": 51,
        "7416": 255,
        "7417": 113,
        "7418": 223,
        "7419": 161,
        "7420": 145,
        "7421": 72,
        "7422": 254,
        "7423": 185,
        "7424": 195,
        "7425": 204,
        "7426": 222,
        "7427": 34,
        "7428": 50,
        "7429": 120,
        "7430": 115,
        "7431": 192,
        "7432": 126,
        "7433": 101,
        "7434": 210,
        "7435": 170,
        "7436": 78,
        "7437": 24,
        "7438": 221,
        "7439": 159,
        "7440": 189,
        "7441": 142,
        "7442": 228,
        "7443": 97,
        "7444": 176,
        "7445": 27,
        "7446": 32,
        "7447": 231,
        "7448": 246,
        "7449": 233,
        "7450": 54,
        "7451": 253,
        "7452": 133,
        "7453": 97,
        "7454": 89,
        "7455": 219,
        "7456": 244,
        "7457": 210,
        "7458": 101,
        "7459": 188,
        "7460": 241,
        "7461": 154,
        "7462": 148,
        "7463": 53,
        "7464": 34,
        "7465": 170,
        "7466": 51,
        "7467": 33,
        "7468": 114,
        "7469": 80,
        "7470": 111,
        "7471": 46,
        "7472": 241,
        "7473": 231,
        "7474": 244,
        "7475": 115,
        "7476": 208,
        "7477": 189,
        "7478": 75,
        "7479": 186,
        "7480": 199,
        "7481": 246,
        "7482": 90,
        "7483": 111,
        "7484": 9,
        "7485": 103,
        "7486": 158,
        "7487": 97,
        "7488": 151,
        "7489": 243,
        "7490": 155,
        "7491": 197,
        "7492": 145,
        "7493": 199,
        "7494": 144,
        "7495": 161,
        "7496": 145,
        "7497": 43,
        "7498": 203,
        "7499": 132,
        "7500": 117,
        "7501": 241,
        "7502": 95,
        "7503": 159,
        "7504": 215,
        "7505": 209,
        "7506": 142,
        "7507": 64,
        "7508": 136,
        "7509": 110,
        "7510": 158,
        "7511": 241,
        "7512": 152,
        "7513": 216,
        "7514": 105,
        "7515": 5,
        "7516": 184,
        "7517": 64,
        "7518": 96,
        "7519": 126,
        "7520": 68,
        "7521": 39,
        "7522": 189,
        "7523": 107,
        "7524": 246,
        "7525": 10,
        "7526": 56,
        "7527": 82,
        "7528": 230,
        "7529": 206,
        "7530": 145,
        "7531": 126,
        "7532": 65,
        "7533": 69,
        "7534": 192,
        "7535": 209,
        "7536": 90,
        "7537": 79,
        "7538": 74,
        "7539": 118,
        "7540": 215,
        "7541": 239,
        "7542": 209,
        "7543": 227,
        "7544": 15,
        "7545": 6,
        "7546": 139,
        "7547": 189,
        "7548": 2,
        "7549": 127,
        "7550": 153,
        "7551": 8,
        "7552": 125,
        "7553": 234,
        "7554": 236,
        "7555": 12,
        "7556": 55,
        "7557": 240,
        "7558": 50,
        "7559": 204,
        "7560": 99,
        "7561": 203,
        "7562": 210,
        "7563": 218,
        "7564": 35,
        "7565": 79,
        "7566": 151,
        "7567": 227,
        "7568": 113,
        "7569": 122,
        "7570": 244,
        "7571": 249,
        "7572": 116,
        "7573": 127,
        "7574": 136,
        "7575": 172,
        "7576": 215,
        "7577": 227,
        "7578": 57,
        "7579": 42,
        "7580": 174,
        "7581": 10,
        "7582": 229,
        "7583": 72,
        "7584": 208,
        "7585": 42,
        "7586": 138,
        "7587": 189,
        "7588": 164,
        "7589": 198,
        "7590": 166,
        "7591": 57,
        "7592": 107,
        "7593": 92,
        "7594": 80,
        "7595": 97,
        "7596": 155,
        "7597": 47,
        "7598": 201,
        "7599": 150,
        "7600": 109,
        "7601": 169,
        "7602": 218,
        "7603": 53,
        "7604": 162,
        "7605": 152,
        "7606": 89,
        "7607": 126,
        "7608": 8,
        "7609": 199,
        "7610": 96,
        "7611": 18,
        "7612": 39,
        "7613": 111,
        "7614": 232,
        "7615": 29,
        "7616": 59,
        "7617": 79,
        "7618": 37,
        "7619": 44,
        "7620": 236,
        "7621": 254,
        "7622": 0,
        "7623": 167,
        "7624": 185,
        "7625": 111,
        "7626": 228,
        "7627": 223,
        "7628": 39,
        "7629": 167,
        "7630": 21,
        "7631": 49,
        "7632": 18,
        "7633": 130,
        "7634": 45,
        "7635": 162,
        "7636": 112,
        "7637": 119,
        "7638": 31,
        "7639": 142,
        "7640": 155,
        "7641": 117,
        "7642": 158,
        "7643": 52,
        "7644": 113,
        "7645": 56,
        "7646": 224,
        "7647": 53,
        "7648": 175,
        "7649": 185,
        "7650": 39,
        "7651": 115,
        "7652": 94,
        "7653": 78,
        "7654": 205,
        "7655": 141,
        "7656": 2,
        "7657": 40,
        "7658": 57,
        "7659": 134,
        "7660": 114,
        "7661": 82,
        "7662": 2,
        "7663": 26,
        "7664": 2,
        "7665": 13,
        "7666": 210,
        "7667": 229,
        "7668": 203,
        "7669": 168,
        "7670": 137,
        "7671": 21,
        "7672": 8,
        "7673": 88,
        "7674": 85,
        "7675": 77,
        "7676": 41,
        "7677": 178,
        "7678": 57,
        "7679": 135,
        "7680": 162,
        "7681": 14,
        "7682": 198,
        "7683": 232,
        "7684": 65,
        "7685": 24,
        "7686": 235,
        "7687": 220,
        "7688": 171,
        "7689": 24,
        "7690": 133,
        "7691": 70,
        "7692": 185,
        "7693": 104,
        "7694": 196,
        "7695": 156,
        "7696": 204,
        "7697": 63,
        "7698": 147,
        "7699": 156,
        "7700": 53,
        "7701": 89,
        "7702": 216,
        "7703": 52,
        "7704": 30,
        "7705": 224,
        "7706": 165,
        "7707": 101,
        "7708": 155,
        "7709": 22,
        "7710": 161,
        "7711": 194,
        "7712": 225,
        "7713": 12,
        "7714": 98,
        "7715": 62,
        "7716": 67,
        "7717": 17,
        "7718": 180,
        "7719": 49,
        "7720": 29,
        "7721": 133,
        "7722": 66,
        "7723": 53,
        "7724": 172,
        "7725": 122,
        "7726": 97,
        "7727": 140,
        "7728": 197,
        "7729": 166,
        "7730": 23,
        "7731": 129,
        "7732": 67,
        "7733": 35,
        "7734": 185,
        "7735": 53,
        "7736": 68,
        "7737": 30,
        "7738": 26,
        "7739": 36,
        "7740": 138,
        "7741": 90,
        "7742": 173,
        "7743": 72,
        "7744": 169,
        "7745": 220,
        "7746": 112,
        "7747": 246,
        "7748": 31,
        "7749": 102,
        "7750": 135,
        "7751": 76,
        "7752": 50,
        "7753": 27,
        "7754": 188,
        "7755": 108,
        "7756": 28,
        "7757": 236,
        "7758": 120,
        "7759": 182,
        "7760": 2,
        "7761": 92,
        "7762": 237,
        "7763": 126,
        "7764": 14,
        "7765": 64,
        "7766": 110,
        "7767": 121,
        "7768": 216,
        "7769": 45,
        "7770": 225,
        "7771": 146,
        "7772": 208,
        "7773": 35,
        "7774": 253,
        "7775": 88,
        "7776": 26,
        "7777": 125,
        "7778": 226,
        "7779": 140,
        "7780": 46,
        "7781": 132,
        "7782": 69,
        "7783": 114,
        "7784": 0,
        "7785": 23,
        "7786": 165,
        "7787": 120,
        "7788": 120,
        "7789": 73,
        "7790": 157,
        "7791": 12,
        "7792": 109,
        "7793": 142,
        "7794": 35,
        "7795": 159,
        "7796": 181,
        "7797": 229,
        "7798": 127,
        "7799": 59,
        "7800": 117,
        "7801": 43,
        "7802": 248,
        "7803": 210,
        "7804": 81,
        "7805": 178,
        "7806": 46,
        "7807": 188,
        "7808": 207,
        "7809": 120,
        "7810": 239,
        "7811": 45,
        "7812": 71,
        "7813": 181,
        "7814": 217,
        "7815": 118,
        "7816": 26,
        "7817": 107,
        "7818": 132,
        "7819": 120,
        "7820": 244,
        "7821": 32,
        "7822": 211,
        "7823": 178,
        "7824": 10,
        "7825": 12,
        "7826": 140,
        "7827": 241,
        "7828": 113,
        "7829": 238,
        "7830": 39,
        "7831": 239,
        "7832": 191,
        "7833": 1,
        "7834": 35,
        "7835": 196,
        "7836": 59,
        "7837": 60,
        "7838": 193,
        "7839": 165,
        "7840": 8,
        "7841": 236,
        "7842": 145,
        "7843": 125,
        "7844": 244,
        "7845": 79,
        "7846": 7,
        "7847": 98,
        "7848": 118,
        "7849": 250,
        "7850": 168,
        "7851": 63,
        "7852": 248,
        "7853": 18,
        "7854": 193,
        "7855": 170,
        "7856": 74,
        "7857": 47,
        "7858": 8,
        "7859": 106,
        "7860": 126,
        "7861": 249,
        "7862": 129,
        "7863": 133,
        "7864": 251,
        "7865": 56,
        "7866": 224,
        "7867": 100,
        "7868": 167,
        "7869": 13,
        "7870": 191,
        "7871": 238,
        "7872": 144,
        "7873": 91,
        "7874": 132,
        "7875": 11,
        "7876": 100,
        "7877": 98,
        "7878": 50,
        "7879": 96,
        "7880": 64,
        "7881": 76,
        "7882": 58,
        "7883": 189,
        "7884": 250,
        "7885": 101,
        "7886": 243,
        "7887": 176,
        "7888": 67,
        "7889": 122,
        "7890": 126,
        "7891": 227,
        "7892": 156,
        "7893": 5,
        "7894": 16,
        "7895": 182,
        "7896": 253,
        "7897": 172,
        "7898": 164,
        "7899": 209,
        "7900": 27,
        "7901": 44,
        "7902": 188,
        "7903": 55,
        "7904": 149,
        "7905": 117,
        "7906": 206,
        "7907": 59,
        "7908": 67,
        "7909": 110,
        "7910": 170,
        "7911": 244,
        "7912": 50,
        "7913": 158,
        "7914": 198,
        "7915": 143,
        "7916": 134,
        "7917": 188,
        "7918": 40,
        "7919": 40,
        "7920": 125,
        "7921": 52,
        "7922": 118,
        "7923": 66,
        "7924": 179,
        "7925": 175,
        "7926": 74,
        "7927": 95,
        "7928": 131,
        "7929": 236,
        "7930": 240,
        "7931": 101,
        "7932": 158,
        "7933": 151,
        "7934": 119,
        "7935": 244,
        "7936": 197,
        "7937": 234,
        "7938": 29,
        "7939": 11,
        "7940": 50,
        "7941": 23,
        "7942": 30,
        "7943": 64,
        "7944": 61,
        "7945": 62,
        "7946": 122,
        "7947": 67,
        "7948": 121,
        "7949": 23,
        "7950": 239,
        "7951": 135,
        "7952": 141,
        "7953": 167,
        "7954": 226,
        "7955": 116,
        "7956": 153,
        "7957": 84,
        "7958": 145,
        "7959": 188,
        "7960": 45,
        "7961": 87,
        "7962": 40,
        "7963": 109,
        "7964": 148,
        "7965": 123,
        "7966": 130,
        "7967": 225,
        "7968": 209,
        "7969": 237,
        "7970": 16,
        "7971": 61,
        "7972": 20,
        "7973": 113,
        "7974": 178,
        "7975": 192,
        "7976": 41,
        "7977": 119,
        "7978": 167,
        "7979": 14,
        "7980": 71,
        "7981": 254,
        "7982": 152,
        "7983": 55,
        "7984": 108,
        "7985": 98,
        "7986": 172,
        "7987": 198,
        "7988": 45,
        "7989": 254,
        "7990": 48,
        "7991": 29,
        "7992": 80,
        "7993": 249,
        "7994": 217,
        "7995": 207,
        "7996": 88,
        "7997": 207,
        "7998": 138,
        "7999": 164,
        "8000": 40,
        "8001": 141,
        "8002": 234,
        "8003": 118,
        "8004": 171,
        "8005": 91,
        "8006": 230,
        "8007": 254,
        "8008": 25,
        "8009": 10,
        "8010": 33,
        "8011": 75,
        "8012": 188,
        "8013": 219,
        "8014": 102,
        "8015": 137,
        "8016": 190,
        "8017": 199,
        "8018": 145,
        "8019": 71,
        "8020": 18,
        "8021": 219,
        "8022": 98,
        "8023": 113,
        "8024": 94,
        "8025": 48,
        "8026": 108,
        "8027": 21,
        "8028": 213,
        "8029": 160,
        "8030": 55,
        "8031": 110,
        "8032": 70,
        "8033": 18,
        "8034": 54,
        "8035": 189,
        "8036": 66,
        "8037": 145,
        "8038": 223,
        "8039": 220,
        "8040": 66,
        "8041": 71,
        "8042": 51,
        "8043": 216,
        "8044": 175,
        "8045": 81,
        "8046": 159,
        "8047": 127,
        "8048": 251,
        "8049": 39,
        "8050": 23,
        "8051": 167,
        "8052": 0,
        "8053": 24,
        "8054": 104,
        "8055": 161,
        "8056": 14,
        "8057": 244,
        "8058": 37,
        "8059": 229,
        "8060": 76,
        "8061": 137,
        "8062": 27,
        "8063": 196,
        "8064": 233,
        "8065": 137,
        "8066": 128,
        "8067": 135,
        "8068": 202,
        "8069": 86,
        "8070": 138,
        "8071": 3,
        "8072": 38,
        "8073": 177,
        "8074": 241,
        "8075": 69,
        "8076": 60,
        "8077": 246,
        "8078": 167,
        "8079": 57,
        "8080": 244,
        "8081": 80,
        "8082": 207,
        "8083": 126,
        "8084": 66,
        "8085": 242,
        "8086": 116,
        "8087": 204,
        "8088": 179,
        "8089": 227,
        "8090": 170,
        "8091": 187,
        "8092": 247,
        "8093": 163,
        "8094": 37,
        "8095": 253,
        "8096": 118,
        "8097": 138,
        "8098": 130,
        "8099": 175,
        "8100": 182,
        "8101": 218,
        "8102": 254,
        "8103": 72,
        "8104": 158,
        "8105": 183,
        "8106": 194,
        "8107": 137,
        "8108": 54,
        "8109": 7,
        "8110": 125,
        "8111": 53,
        "8112": 132,
        "8113": 104,
        "8114": 119,
        "8115": 161,
        "8116": 250,
        "8117": 149,
        "8118": 238,
        "8119": 105,
        "8120": 143,
        "8121": 54,
        "8122": 250,
        "8123": 17,
        "8124": 37,
        "8125": 236,
        "8126": 130,
        "8127": 143,
        "8128": 120,
        "8129": 120,
        "8130": 105,
        "8131": 153,
        "8132": 148,
        "8133": 67,
        "8134": 32,
        "8135": 242,
        "8136": 203,
        "8137": 185,
        "8138": 140,
        "8139": 17,
        "8140": 227,
        "8141": 234,
        "8142": 13,
        "8143": 177,
        "8144": 123,
        "8145": 147,
        "8146": 95,
        "8147": 248,
        "8148": 227,
        "8149": 199,
        "8150": 33,
        "8151": 255,
        "8152": 108,
        "8153": 22,
        "8154": 79,
        "8155": 158,
        "8156": 108,
        "8157": 153,
        "8158": 252,
        "8159": 233,
        "8160": 74,
        "8161": 26,
        "8162": 22,
        "8163": 99,
        "8164": 16,
        "8165": 214,
        "8166": 24,
        "8167": 183,
        "8168": 221,
        "8169": 169,
        "8170": 100,
        "8171": 251,
        "8172": 107,
        "8173": 169,
        "8174": 20,
        "8175": 137,
        "8176": 20,
        "8177": 219,
        "8178": 162,
        "8179": 130,
        "8180": 206,
        "8181": 58,
        "8182": 24,
        "8183": 193,
        "8184": 75,
        "8185": 187,
        "8186": 111,
        "8187": 29,
        "8188": 22,
        "8189": 210,
        "8190": 23,
        "8191": 75,
        "8192": 91,
        "8193": 180,
        "8194": 34,
        "8195": 230,
        "8196": 186,
        "8197": 205,
        "8198": 221,
        "8199": 246,
        "8200": 205,
        "8201": 86,
        "8202": 191,
        "8203": 16,
        "8204": 117,
        "8205": 131,
        "8206": 47,
        "8207": 111,
        "8208": 116,
        "8209": 97,
        "8210": 95,
        "8211": 68,
        "8212": 240,
        "8213": 216,
        "8214": 212,
        "8215": 70,
        "8216": 190,
        "8217": 38,
        "8218": 3,
        "8219": 170,
        "8220": 79,
        "8221": 245,
        "8222": 178,
        "8223": 53,
        "8224": 118,
        "8225": 232,
        "8226": 125,
        "8227": 14,
        "8228": 144,
        "8229": 192,
        "8230": 10,
        "8231": 109,
        "8232": 188,
        "8233": 162,
        "8234": 245,
        "8235": 31,
        "8236": 216,
        "8237": 99,
        "8238": 237,
        "8239": 59,
        "8240": 5,
        "8241": 124,
        "8242": 63,
        "8243": 6,
        "8244": 36,
        "8245": 222,
        "8246": 32,
        "8247": 148,
        "8248": 83,
        "8249": 50,
        "8250": 55,
        "8251": 154,
        "8252": 180,
        "8253": 119,
        "8254": 68,
        "8255": 123,
        "8256": 6,
        "8257": 214,
        "8258": 166,
        "8259": 20,
        "8260": 80,
        "8261": 114,
        "8262": 180,
        "8263": 100,
        "8264": 66,
        "8265": 231,
        "8266": 91,
        "8267": 5,
        "8268": 101,
        "8269": 143,
        "8270": 133,
        "8271": 8,
        "8272": 250,
        "8273": 16,
        "8274": 145,
        "8275": 197,
        "8276": 20,
        "8277": 179,
        "8278": 228,
        "8279": 113,
        "8280": 59,
        "8281": 249,
        "8282": 47,
        "8283": 217,
        "8284": 72,
        "8285": 26,
        "8286": 186,
        "8287": 170,
        "8288": 197,
        "8289": 236,
        "8290": 206,
        "8291": 114,
        "8292": 46,
        "8293": 227,
        "8294": 89,
        "8295": 106,
        "8296": 56,
        "8297": 194,
        "8298": 138,
        "8299": 253,
        "8300": 44,
        "8301": 81,
        "8302": 177,
        "8303": 225,
        "8304": 50,
        "8305": 66,
        "8306": 167,
        "8307": 139,
        "8308": 212,
        "8309": 252,
        "8310": 233,
        "8311": 200,
        "8312": 131,
        "8313": 30,
        "8314": 131,
        "8315": 218,
        "8316": 186,
        "8317": 132,
        "8318": 239,
        "8319": 193,
        "8320": 228,
        "8321": 208,
        "8322": 135,
        "8323": 93,
        "8324": 7,
        "8325": 165,
        "8326": 68,
        "8327": 8,
        "8328": 55,
        "8329": 48,
        "8330": 67,
        "8331": 162,
        "8332": 31,
        "8333": 215,
        "8334": 194,
        "8335": 60,
        "8336": 100,
        "8337": 92,
        "8338": 72,
        "8339": 228,
        "8340": 32,
        "8341": 90,
        "8342": 104,
        "8343": 161,
        "8344": 54,
        "8345": 242,
        "8346": 158,
        "8347": 166,
        "8348": 200,
        "8349": 156,
        "8350": 86,
        "8351": 226,
        "8352": 10,
        "8353": 237,
        "8354": 3,
        "8355": 27,
        "8356": 80,
        "8357": 31,
        "8358": 184,
        "8359": 186,
        "8360": 71,
        "8361": 253,
        "8362": 109,
        "8363": 21,
        "8364": 216,
        "8365": 171,
        "8366": 56,
        "8367": 218,
        "8368": 242,
        "8369": 47,
        "8370": 35,
        "8371": 255,
        "8372": 82,
        "8373": 226,
        "8374": 194,
        "8375": 135,
        "8376": 87,
        "8377": 162,
        "8378": 95,
        "8379": 185,
        "8380": 89,
        "8381": 49,
        "8382": 245,
        "8383": 10,
        "8384": 14,
        "8385": 148,
        "8386": 14,
        "8387": 225,
        "8388": 203,
        "8389": 215,
        "8390": 81,
        "8391": 25,
        "8392": 149,
        "8393": 120,
        "8394": 87,
        "8395": 32,
        "8396": 162,
        "8397": 73,
        "8398": 27,
        "8399": 221,
        "8400": 182,
        "8401": 86,
        "8402": 195,
        "8403": 235,
        "8404": 75,
        "8405": 96,
        "8406": 190,
        "8407": 12,
        "8408": 148,
        "8409": 155,
        "8410": 205,
        "8411": 250,
        "8412": 158,
        "8413": 197,
        "8414": 152,
        "8415": 208,
        "8416": 132,
        "8417": 141,
        "8418": 241,
        "8419": 106,
        "8420": 228,
        "8421": 156,
        "8422": 192,
        "8423": 223,
        "8424": 86,
        "8425": 128,
        "8426": 32,
        "8427": 25,
        "8428": 24,
        "8429": 242,
        "8430": 91,
        "8431": 129,
        "8432": 124,
        "8433": 240,
        "8434": 159,
        "8435": 118,
        "8436": 101,
        "8437": 191,
        "8438": 113,
        "8439": 78,
        "8440": 6,
        "8441": 78,
        "8442": 249,
        "8443": 13,
        "8444": 51,
        "8445": 220,
        "8446": 30,
        "8447": 45,
        "8448": 145,
        "8449": 164,
        "8450": 249,
        "8451": 134,
        "8452": 18,
        "8453": 137,
        "8454": 209,
        "8455": 189,
        "8456": 155,
        "8457": 37,
        "8458": 188,
        "8459": 168,
        "8460": 209,
        "8461": 233,
        "8462": 243,
        "8463": 65,
        "8464": 196,
        "8465": 9,
        "8466": 188,
        "8467": 125,
        "8468": 228,
        "8469": 197,
        "8470": 141,
        "8471": 249,
        "8472": 213,
        "8473": 55,
        "8474": 199,
        "8475": 179,
        "8476": 173,
        "8477": 147,
        "8478": 168,
        "8479": 74,
        "8480": 65,
        "8481": 206,
        "8482": 138,
        "8483": 47,
        "8484": 158,
        "8485": 11,
        "8486": 252,
        "8487": 109,
        "8488": 23,
        "8489": 69,
        "8490": 148,
        "8491": 68,
        "8492": 217,
        "8493": 48,
        "8494": 243,
        "8495": 55,
        "8496": 200,
        "8497": 130,
        "8498": 13,
        "8499": 203,
        "8500": 70,
        "8501": 80,
        "8502": 30,
        "8503": 28,
        "8504": 147,
        "8505": 72,
        "8506": 222,
        "8507": 134,
        "8508": 174,
        "8509": 101,
        "8510": 116,
        "8511": 120,
        "8512": 244,
        "8513": 48,
        "8514": 12,
        "8515": 214,
        "8516": 79,
        "8517": 52,
        "8518": 227,
        "8519": 106,
        "8520": 171,
        "8521": 225,
        "8522": 190,
        "8523": 17,
        "8524": 21,
        "8525": 46,
        "8526": 245,
        "8527": 196,
        "8528": 115,
        "8529": 240,
        "8530": 47,
        "8531": 237,
        "8532": 11,
        "8533": 117,
        "8534": 13,
        "8535": 233,
        "8536": 202,
        "8537": 82,
        "8538": 37,
        "8539": 33,
        "8540": 52,
        "8541": 206,
        "8542": 201,
        "8543": 162,
        "8544": 65,
        "8545": 94,
        "8546": 32,
        "8547": 45,
        "8548": 230,
        "8549": 92,
        "8550": 11,
        "8551": 81,
        "8552": 81,
        "8553": 185,
        "8554": 98,
        "8555": 104,
        "8556": 77,
        "8557": 252,
        "8558": 82,
        "8559": 132,
        "8560": 168,
        "8561": 126,
        "8562": 113,
        "8563": 141,
        "8564": 100,
        "8565": 132,
        "8566": 56,
        "8567": 17,
        "8568": 236,
        "8569": 223,
        "8570": 157,
        "8571": 36,
        "8572": 135,
        "8573": 25,
        "8574": 178,
        "8575": 67,
        "8576": 226,
        "8577": 89,
        "8578": 249,
        "8579": 156,
        "8580": 180,
        "8581": 240,
        "8582": 58,
        "8583": 86,
        "8584": 137,
        "8585": 165,
        "8586": 111,
        "8587": 57,
        "8588": 71,
        "8589": 131,
        "8590": 63,
        "8591": 14,
        "8592": 204,
        "8593": 201,
        "8594": 70,
        "8595": 171,
        "8596": 74,
        "8597": 164,
        "8598": 130,
        "8599": 141,
        "8600": 82,
        "8601": 206,
        "8602": 154,
        "8603": 234,
        "8604": 21,
        "8605": 132,
        "8606": 63,
        "8607": 138,
        "8608": 30,
        "8609": 31,
        "8610": 24,
        "8611": 193,
        "8612": 49,
        "8613": 58,
        "8614": 34,
        "8615": 39,
        "8616": 73,
        "8617": 114,
        "8618": 171,
        "8619": 217,
        "8620": 199,
        "8621": 207,
        "8622": 108,
        "8623": 49,
        "8624": 244,
        "8625": 19,
        "8626": 182,
        "8627": 97,
        "8628": 33,
        "8629": 8,
        "8630": 150,
        "8631": 60,
        "8632": 194,
        "8633": 199,
        "8634": 33,
        "8635": 199,
        "8636": 16,
        "8637": 6,
        "8638": 198,
        "8639": 39,
        "8640": 221,
        "8641": 183,
        "8642": 187,
        "8643": 104,
        "8644": 49,
        "8645": 80,
        "8646": 245,
        "8647": 86,
        "8648": 48,
        "8649": 127,
        "8650": 245,
        "8651": 239,
        "8652": 246,
        "8653": 186,
        "8654": 244,
        "8655": 156,
        "8656": 144,
        "8657": 239,
        "8658": 55,
        "8659": 159,
        "8660": 220,
        "8661": 205,
        "8662": 81,
        "8663": 5,
        "8664": 163,
        "8665": 19,
        "8666": 197,
        "8667": 133,
        "8668": 180,
        "8669": 77,
        "8670": 196,
        "8671": 11,
        "8672": 100,
        "8673": 83,
        "8674": 225,
        "8675": 109,
        "8676": 85,
        "8677": 81,
        "8678": 168,
        "8679": 68,
        "8680": 248,
        "8681": 12,
        "8682": 151,
        "8683": 195,
        "8684": 58,
        "8685": 241,
        "8686": 19,
        "8687": 159,
        "8688": 45,
        "8689": 204,
        "8690": 213,
        "8691": 15,
        "8692": 214,
        "8693": 189,
        "8694": 73,
        "8695": 44,
        "8696": 7,
        "8697": 127,
        "8698": 112,
        "8699": 103,
        "8700": 70,
        "8701": 175,
        "8702": 84,
        "8703": 181,
        "8704": 171,
        "8705": 22,
        "8706": 135,
        "8707": 67,
        "8708": 186,
        "8709": 105,
        "8710": 31,
        "8711": 250,
        "8712": 254,
        "8713": 149,
        "8714": 222,
        "8715": 113,
        "8716": 212,
        "8717": 175,
        "8718": 27,
        "8719": 84,
        "8720": 161,
        "8721": 85,
        "8722": 53,
        "8723": 61,
        "8724": 91,
        "8725": 47,
        "8726": 82,
        "8727": 121,
        "8728": 130,
        "8729": 182,
        "8730": 188,
        "8731": 222,
        "8732": 111,
        "8733": 112,
        "8734": 59,
        "8735": 19,
        "8736": 84,
        "8737": 19,
        "8738": 0,
        "8739": 202,
        "8740": 235,
        "8741": 170,
        "8742": 228,
        "8743": 3,
        "8744": 146,
        "8745": 238,
        "8746": 5,
        "8747": 105,
        "8748": 237,
        "8749": 130,
        "8750": 12,
        "8751": 189,
        "8752": 17,
        "8753": 81,
        "8754": 244,
        "8755": 220,
        "8756": 248,
        "8757": 88,
        "8758": 23,
        "8759": 100,
        "8760": 28,
        "8761": 33,
        "8762": 27,
        "8763": 140,
        "8764": 143,
        "8765": 211,
        "8766": 62,
        "8767": 38,
        "8768": 139,
        "8769": 84,
        "8770": 166,
        "8771": 32,
        "8772": 178,
        "8773": 18,
        "8774": 170,
        "8775": 119,
        "8776": 217,
        "8777": 131,
        "8778": 229,
        "8779": 124,
        "8780": 240,
        "8781": 70,
        "8782": 222,
        "8783": 47,
        "8784": 1,
        "8785": 134,
        "8786": 18,
        "8787": 7,
        "8788": 212,
        "8789": 192,
        "8790": 52,
        "8791": 20,
        "8792": 147,
        "8793": 213,
        "8794": 249,
        "8795": 233,
        "8796": 161,
        "8797": 148,
        "8798": 105,
        "8799": 145,
        "8800": 119,
        "8801": 44,
        "8802": 181,
        "8803": 154,
        "8804": 181,
        "8805": 75,
        "8806": 31,
        "8807": 24,
        "8808": 50,
        "8809": 233,
        "8810": 145,
        "8811": 6,
        "8812": 6,
        "8813": 23,
        "8814": 82,
        "8815": 97,
        "8816": 76,
        "8817": 236,
        "8818": 154,
        "8819": 109,
        "8820": 88,
        "8821": 163,
        "8822": 85,
        "8823": 253,
        "8824": 205,
        "8825": 237,
        "8826": 109,
        "8827": 220,
        "8828": 172,
        "8829": 204,
        "8830": 4,
        "8831": 229,
        "8832": 110,
        "8833": 29,
        "8834": 9,
        "8835": 173,
        "8836": 28,
        "8837": 246,
        "8838": 40,
        "8839": 193,
        "8840": 123,
        "8841": 27,
        "8842": 244,
        "8843": 255,
        "8844": 2,
        "8845": 104,
        "8846": 196,
        "8847": 62,
        "8848": 203,
        "8849": 73,
        "8850": 155,
        "8851": 150,
        "8852": 106,
        "8853": 129,
        "8854": 218,
        "8855": 252,
        "8856": 249,
        "8857": 47,
        "8858": 68,
        "8859": 245,
        "8860": 117,
        "8861": 172,
        "8862": 63,
        "8863": 62,
        "8864": 155,
        "8865": 231,
        "8866": 164,
        "8867": 153,
        "8868": 107,
        "8869": 184,
        "8870": 7,
        "8871": 38,
        "8872": 104,
        "8873": 103,
        "8874": 205,
        "8875": 161,
        "8876": 143,
        "8877": 55,
        "8878": 169,
        "8879": 120,
        "8880": 193,
        "8881": 0,
        "8882": 154,
        "8883": 241,
        "8884": 112,
        "8885": 221,
        "8886": 7,
        "8887": 122,
        "8888": 98,
        "8889": 79,
        "8890": 111,
        "8891": 25,
        "8892": 224,
        "8893": 6,
        "8894": 146,
        "8895": 165,
        "8896": 114,
        "8897": 241,
        "8898": 88,
        "8899": 253,
        "8900": 239,
        "8901": 5,
        "8902": 84,
        "8903": 129,
        "8904": 43,
        "8905": 226,
        "8906": 49,
        "8907": 166,
        "8908": 248,
        "8909": 36,
        "8910": 173,
        "8911": 224,
        "8912": 124,
        "8913": 103,
        "8914": 3,
        "8915": 210,
        "8916": 47,
        "8917": 113,
        "8918": 242,
        "8919": 93,
        "8920": 4,
        "8921": 215,
        "8922": 188,
        "8923": 104,
        "8924": 47,
        "8925": 169,
        "8926": 159,
        "8927": 9,
        "8928": 191,
        "8929": 11,
        "8930": 215,
        "8931": 119,
        "8932": 53,
        "8933": 120,
        "8934": 59,
        "8935": 206,
        "8936": 53,
        "8937": 191,
        "8938": 140,
        "8939": 107,
        "8940": 248,
        "8941": 243,
        "8942": 8,
        "8943": 38,
        "8944": 108,
        "8945": 253,
        "8946": 242,
        "8947": 179,
        "8948": 57,
        "8949": 135,
        "8950": 54,
        "8951": 252,
        "8952": 130,
        "8953": 106,
        "8954": 244,
        "8955": 73,
        "8956": 233,
        "8957": 242,
        "8958": 106,
        "8959": 220,
        "8960": 253,
        "8961": 40,
        "8962": 1,
        "8963": 81,
        "8964": 240,
        "8965": 210,
        "8966": 116,
        "8967": 133,
        "8968": 246,
        "8969": 67,
        "8970": 117,
        "8971": 42,
        "8972": 227,
        "8973": 128,
        "8974": 61,
        "8975": 75,
        "8976": 133,
        "8977": 113,
        "8978": 15,
        "8979": 188,
        "8980": 47,
        "8981": 38,
        "8982": 56,
        "8983": 2,
        "8984": 179,
        "8985": 202,
        "8986": 37,
        "8987": 249,
        "8988": 245,
        "8989": 185,
        "8990": 207,
        "8991": 254,
        "8992": 131,
        "8993": 233,
        "8994": 199,
        "8995": 215,
        "8996": 167,
        "8997": 189,
        "8998": 236,
        "8999": 32,
        "9000": 15,
        "9001": 148,
        "9002": 179,
        "9003": 34,
        "9004": 88,
        "9005": 163,
        "9006": 148,
        "9007": 165,
        "9008": 216,
        "9009": 93,
        "9010": 252,
        "9011": 250,
        "9012": 71,
        "9013": 205,
        "9014": 59,
        "9015": 213,
        "9016": 103,
        "9017": 107,
        "9018": 102,
        "9019": 249,
        "9020": 113,
        "9021": 104,
        "9022": 125,
        "9023": 179,
        "9024": 201,
        "9025": 202,
        "9026": 245,
        "9027": 184,
        "9028": 180,
        "9029": 249,
        "9030": 109,
        "9031": 182,
        "9032": 101,
        "9033": 174,
        "9034": 148,
        "9035": 226,
        "9036": 20,
        "9037": 73,
        "9038": 133,
        "9039": 24,
        "9040": 48,
        "9041": 141,
        "9042": 136,
        "9043": 110,
        "9044": 176,
        "9045": 134,
        "9046": 36,
        "9047": 119,
        "9048": 59,
        "9049": 66,
        "9050": 51,
        "9051": 240,
        "9052": 59,
        "9053": 130,
        "9054": 9,
        "9055": 181,
        "9056": 44,
        "9057": 0,
        "9058": 110,
        "9059": 135,
        "9060": 23,
        "9061": 15,
        "9062": 175,
        "9063": 213,
        "9064": 23,
        "9065": 242,
        "9066": 123,
        "9067": 200,
        "9068": 131,
        "9069": 78,
        "9070": 37,
        "9071": 166,
        "9072": 128,
        "9073": 234,
        "9074": 139,
        "9075": 196,
        "9076": 197,
        "9077": 86,
        "9078": 127,
        "9079": 248,
        "9080": 25,
        "9081": 11,
        "9082": 114,
        "9083": 98,
        "9084": 236,
        "9085": 59,
        "9086": 119,
        "9087": 79,
        "9088": 16,
        "9089": 220,
        "9090": 106,
        "9091": 87,
        "9092": 221,
        "9093": 24,
        "9094": 150,
        "9095": 218,
        "9096": 57,
        "9097": 107,
        "9098": 34,
        "9099": 170,
        "9100": 250,
        "9101": 31,
        "9102": 39,
        "9103": 40,
        "9104": 84,
        "9105": 55,
        "9106": 16,
        "9107": 13,
        "9108": 60,
        "9109": 130,
        "9110": 224,
        "9111": 12,
        "9112": 84,
        "9113": 255,
        "9114": 16,
        "9115": 241,
        "9116": 16,
        "9117": 39,
        "9118": 111,
        "9119": 238,
        "9120": 8,
        "9121": 191,
        "9122": 8,
        "9123": 37,
        "9124": 212,
        "9125": 153,
        "9126": 124,
        "9127": 17,
        "9128": 187,
        "9129": 106,
        "9130": 90,
        "9131": 83,
        "9132": 173,
        "9133": 230,
        "9134": 98,
        "9135": 240,
        "9136": 104,
        "9137": 52,
        "9138": 228,
        "9139": 230,
        "9140": 215,
        "9141": 91,
        "9142": 1,
        "9143": 181,
        "9144": 185,
        "9145": 186,
        "9146": 146,
        "9147": 239,
        "9148": 108,
        "9149": 27,
        "9150": 77,
        "9151": 233,
        "9152": 113,
        "9153": 174,
        "9154": 141,
        "9155": 251,
        "9156": 92,
        "9157": 96,
        "9158": 214,
        "9159": 168,
        "9160": 224,
        "9161": 198,
        "9162": 219,
        "9163": 164,
        "9164": 212,
        "9165": 37,
        "9166": 204,
        "9167": 35,
        "9168": 195,
        "9169": 40,
        "9170": 1,
        "9171": 205,
        "9172": 91,
        "9173": 139,
        "9174": 73,
        "9175": 101,
        "9176": 77,
        "9177": 183,
        "9178": 237,
        "9179": 193,
        "9180": 250,
        "9181": 52,
        "9182": 223,
        "9183": 166,
        "9184": 239,
        "9185": 52,
        "9186": 72,
        "9187": 187,
        "9188": 80,
        "9189": 131,
        "9190": 99,
        "9191": 138,
        "9192": 47,
        "9193": 197,
        "9194": 208,
        "9195": 148,
        "9196": 137,
        "9197": 102,
        "9198": 29,
        "9199": 212,
        "9200": 219,
        "9201": 110,
        "9202": 192,
        "9203": 182,
        "9204": 134,
        "9205": 117,
        "9206": 163,
        "9207": 236,
        "9208": 197,
        "9209": 254,
        "9210": 107,
        "9211": 2,
        "9212": 22,
        "9213": 221,
        "9214": 78,
        "9215": 7,
        "9216": 58,
        "9217": 237,
        "9218": 19,
        "9219": 24,
        "9220": 210,
        "9221": 126,
        "9222": 8,
        "9223": 131,
        "9224": 104,
        "9225": 10,
        "9226": 140,
        "9227": 5,
        "9228": 202,
        "9229": 216,
        "9230": 54,
        "9231": 119,
        "9232": 39,
        "9233": 163,
        "9234": 92,
        "9235": 45,
        "9236": 108,
        "9237": 18,
        "9238": 170,
        "9239": 156,
        "9240": 211,
        "9241": 93,
        "9242": 90,
        "9243": 8,
        "9244": 120,
        "9245": 204,
        "9246": 31,
        "9247": 75,
        "9248": 162,
        "9249": 69,
        "9250": 197,
        "9251": 110,
        "9252": 220,
        "9253": 46,
        "9254": 54,
        "9255": 200,
        "9256": 30,
        "9257": 120,
        "9258": 219,
        "9259": 99,
        "9260": 55,
        "9261": 69,
        "9262": 246,
        "9263": 105,
        "9264": 207,
        "9265": 198,
        "9266": 226,
        "9267": 115,
        "9268": 143,
        "9269": 101,
        "9270": 145,
        "9271": 52,
        "9272": 180,
        "9273": 34,
        "9274": 125,
        "9275": 203,
        "9276": 21,
        "9277": 161,
        "9278": 182,
        "9279": 201,
        "9280": 193,
        "9281": 63,
        "9282": 172,
        "9283": 11,
        "9284": 222,
        "9285": 87,
        "9286": 8,
        "9287": 73,
        "9288": 196,
        "9289": 234,
        "9290": 23,
        "9291": 13,
        "9292": 249,
        "9293": 185,
        "9294": 108,
        "9295": 55,
        "9296": 17,
        "9297": 129,
        "9298": 57,
        "9299": 66,
        "9300": 239,
        "9301": 35,
        "9302": 230,
        "9303": 25,
        "9304": 122,
        "9305": 178,
        "9306": 88,
        "9307": 187,
        "9308": 190,
        "9309": 51,
        "9310": 221,
        "9311": 58,
        "9312": 75,
        "9313": 250,
        "9314": 214,
        "9315": 32,
        "9316": 103,
        "9317": 50,
        "9318": 41,
        "9319": 97,
        "9320": 195,
        "9321": 181,
        "9322": 203,
        "9323": 43,
        "9324": 127,
        "9325": 244,
        "9326": 140,
        "9327": 23,
        "9328": 56,
        "9329": 63,
        "9330": 214,
        "9331": 120,
        "9332": 17,
        "9333": 204,
        "9334": 129,
        "9335": 26,
        "9336": 195,
        "9337": 48,
        "9338": 205,
        "9339": 38,
        "9340": 145,
        "9341": 192,
        "9342": 2,
        "9343": 9,
        "9344": 193,
        "9345": 91,
        "9346": 193,
        "9347": 171,
        "9348": 164,
        "9349": 66,
        "9350": 235,
        "9351": 78,
        "9352": 89,
        "9353": 15,
        "9354": 183,
        "9355": 157,
        "9356": 119,
        "9357": 227,
        "9358": 221,
        "9359": 32,
        "9360": 219,
        "9361": 47,
        "9362": 83,
        "9363": 250,
        "9364": 27,
        "9365": 172,
        "9366": 216,
        "9367": 135,
        "9368": 102,
        "9369": 156,
        "9370": 247,
        "9371": 251,
        "9372": 126,
        "9373": 136,
        "9374": 104,
        "9375": 232,
        "9376": 89,
        "9377": 152,
        "9378": 71,
        "9379": 170,
        "9380": 94,
        "9381": 152,
        "9382": 132,
        "9383": 53,
        "9384": 234,
        "9385": 125,
        "9386": 207,
        "9387": 151,
        "9388": 38,
        "9389": 118,
        "9390": 192,
        "9391": 201,
        "9392": 161,
        "9393": 104,
        "9394": 196,
        "9395": 114,
        "9396": 188,
        "9397": 101,
        "9398": 158,
        "9399": 241,
        "9400": 206,
        "9401": 39,
        "9402": 226,
        "9403": 251,
        "9404": 236,
        "9405": 166,
        "9406": 52,
        "9407": 50,
        "9408": 15,
        "9409": 98,
        "9410": 34,
        "9411": 120,
        "9412": 124,
        "9413": 159,
        "9414": 47,
        "9415": 248,
        "9416": 178,
        "9417": 88,
        "9418": 50,
        "9419": 6,
        "9420": 176,
        "9421": 196,
        "9422": 102,
        "9423": 157,
        "9424": 253,
        "9425": 112,
        "9426": 70,
        "9427": 36,
        "9428": 127,
        "9429": 87,
        "9430": 102,
        "9431": 161,
        "9432": 38,
        "9433": 98,
        "9434": 155,
        "9435": 102,
        "9436": 93,
        "9437": 21,
        "9438": 30,
        "9439": 250,
        "9440": 134,
        "9441": 40,
        "9442": 234,
        "9443": 43,
        "9444": 170,
        "9445": 193,
        "9446": 66,
        "9447": 106,
        "9448": 105,
        "9449": 221,
        "9450": 216,
        "9451": 218,
        "9452": 28,
        "9453": 197,
        "9454": 0,
        "9455": 240,
        "9456": 97,
        "9457": 8,
        "9458": 18,
        "9459": 81,
        "9460": 101,
        "9461": 54,
        "9462": 110,
        "9463": 241,
        "9464": 230,
        "9465": 155,
        "9466": 155,
        "9467": 77,
        "9468": 97,
        "9469": 199,
        "9470": 177,
        "9471": 30,
        "9472": 57,
        "9473": 94,
        "9474": 120,
        "9475": 37,
        "9476": 14,
        "9477": 48,
        "9478": 217,
        "9479": 61,
        "9480": 168,
        "9481": 246,
        "9482": 151,
        "9483": 154,
        "9484": 235,
        "9485": 210,
        "9486": 21,
        "9487": 114,
        "9488": 181,
        "9489": 237,
        "9490": 10,
        "9491": 49,
        "9492": 164,
        "9493": 156,
        "9494": 18,
        "9495": 195,
        "9496": 234,
        "9497": 9,
        "9498": 254,
        "9499": 186,
        "9500": 161,
        "9501": 175,
        "9502": 230,
        "9503": 159,
        "9504": 72,
        "9505": 40,
        "9506": 86,
        "9507": 152,
        "9508": 226,
        "9509": 17,
        "9510": 43,
        "9511": 197,
        "9512": 190,
        "9513": 227,
        "9514": 100,
        "9515": 52,
        "9516": 116,
        "9517": 169,
        "9518": 126,
        "9519": 208,
        "9520": 17,
        "9521": 192,
        "9522": 246,
        "9523": 127,
        "9524": 148,
        "9525": 201,
        "9526": 70,
        "9527": 208,
        "9528": 89,
        "9529": 4,
        "9530": 104,
        "9531": 236,
        "9532": 223,
        "9533": 151,
        "9534": 119,
        "9535": 184,
        "9536": 98,
        "9537": 41,
        "9538": 24,
        "9539": 103,
        "9540": 190,
        "9541": 107,
        "9542": 46,
        "9543": 93,
        "9544": 160,
        "9545": 176,
        "9546": 199,
        "9547": 226,
        "9548": 153,
        "9549": 139,
        "9550": 157,
        "9551": 230,
        "9552": 58,
        "9553": 112,
        "9554": 240,
        "9555": 148,
        "9556": 96,
        "9557": 219,
        "9558": 240,
        "9559": 97,
        "9560": 225,
        "9561": 112,
        "9562": 42,
        "9563": 184,
        "9564": 44,
        "9565": 77,
        "9566": 138,
        "9567": 230,
        "9568": 230,
        "9569": 130,
        "9570": 171,
        "9571": 87,
        "9572": 201,
        "9573": 19,
        "9574": 207,
        "9575": 39,
        "9576": 120,
        "9577": 120,
        "9578": 88,
        "9579": 55,
        "9580": 95,
        "9581": 117,
        "9582": 90,
        "9583": 117,
        "9584": 235,
        "9585": 45,
        "9586": 165,
        "9587": 36,
        "9588": 169,
        "9589": 167,
        "9590": 161,
        "9591": 127,
        "9592": 43,
        "9593": 247,
        "9594": 167,
        "9595": 188,
        "9596": 251,
        "9597": 1,
        "9598": 232,
        "9599": 156,
        "9600": 217,
        "9601": 255,
        "9602": 8,
        "9603": 11,
        "9604": 207,
        "9605": 45,
        "9606": 249,
        "9607": 163,
        "9608": 152,
        "9609": 32,
        "9610": 243,
        "9611": 191,
        "9612": 156,
        "9613": 50,
        "9614": 0,
        "9615": 86,
        "9616": 3,
        "9617": 6,
        "9618": 28,
        "9619": 143,
        "9620": 63,
        "9621": 75,
        "9622": 99,
        "9623": 47,
        "9624": 165,
        "9625": 64,
        "9626": 70,
        "9627": 204,
        "9628": 203,
        "9629": 101,
        "9630": 139,
        "9631": 109,
        "9632": 227,
        "9633": 241,
        "9634": 36,
        "9635": 215,
        "9636": 66,
        "9637": 212,
        "9638": 98,
        "9639": 152,
        "9640": 107,
        "9641": 136,
        "9642": 68,
        "9643": 166,
        "9644": 138,
        "9645": 11,
        "9646": 197,
        "9647": 45,
        "9648": 234,
        "9649": 222,
        "9650": 158,
        "9651": 193,
        "9652": 85,
        "9653": 49,
        "9654": 54,
        "9655": 154,
        "9656": 117,
        "9657": 109,
        "9658": 61,
        "9659": 67,
        "9660": 128,
        "9661": 108,
        "9662": 242,
        "9663": 188,
        "9664": 155,
        "9665": 93,
        "9666": 240,
        "9667": 190,
        "9668": 94,
        "9669": 105,
        "9670": 99,
        "9671": 80,
        "9672": 214,
        "9673": 114,
        "9674": 147,
        "9675": 110,
        "9676": 252,
        "9677": 142,
        "9678": 86,
        "9679": 180,
        "9680": 156,
        "9681": 157,
        "9682": 205,
        "9683": 207,
        "9684": 199,
        "9685": 4,
        "9686": 65,
        "9687": 225,
        "9688": 23,
        "9689": 229,
        "9690": 55,
        "9691": 141,
        "9692": 89,
        "9693": 55,
        "9694": 14,
        "9695": 170,
        "9696": 191,
        "9697": 220,
        "9698": 85,
        "9699": 92,
        "9700": 22,
        "9701": 239,
        "9702": 108,
        "9703": 77,
        "9704": 249,
        "9705": 161,
        "9706": 38,
        "9707": 93,
        "9708": 131,
        "9709": 137,
        "9710": 218,
        "9711": 96,
        "9712": 248,
        "9713": 180,
        "9714": 202,
        "9715": 118,
        "9716": 128,
        "9717": 213,
        "9718": 100,
        "9719": 13,
        "9720": 182,
        "9721": 253,
        "9722": 111,
        "9723": 27,
        "9724": 238,
        "9725": 109,
        "9726": 100,
        "9727": 73,
        "9728": 237,
        "9729": 107,
        "9730": 45,
        "9731": 246,
        "9732": 14,
        "9733": 159,
        "9734": 217,
        "9735": 76,
        "9736": 244,
        "9737": 113,
        "9738": 11,
        "9739": 96,
        "9740": 118,
        "9741": 60,
        "9742": 8,
        "9743": 237,
        "9744": 58,
        "9745": 235,
        "9746": 190,
        "9747": 167,
        "9748": 120,
        "9749": 165,
        "9750": 12,
        "9751": 62,
        "9752": 225,
        "9753": 55,
        "9754": 201,
        "9755": 0,
        "9756": 184,
        "9757": 165,
        "9758": 46,
        "9759": 92,
        "9760": 219,
        "9761": 31,
        "9762": 193,
        "9763": 40,
        "9764": 30,
        "9765": 15,
        "9766": 163,
        "9767": 236,
        "9768": 215,
        "9769": 142,
        "9770": 118,
        "9771": 99,
        "9772": 125,
        "9773": 26,
        "9774": 63,
        "9775": 10,
        "9776": 49,
        "9777": 100,
        "9778": 242,
        "9779": 54,
        "9780": 133,
        "9781": 23,
        "9782": 228,
        "9783": 137,
        "9784": 3,
        "9785": 157,
        "9786": 2,
        "9787": 119,
        "9788": 11,
        "9789": 239,
        "9790": 96,
        "9791": 189,
        "9792": 233,
        "9793": 149,
        "9794": 98,
        "9795": 235,
        "9796": 219,
        "9797": 170,
        "9798": 232,
        "9799": 204,
        "9800": 69,
        "9801": 3,
        "9802": 210,
        "9803": 34,
        "9804": 31,
        "9805": 129,
        "9806": 147,
        "9807": 112,
        "9808": 247,
        "9809": 194,
        "9810": 82,
        "9811": 213,
        "9812": 119,
        "9813": 161,
        "9814": 88,
        "9815": 35,
        "9816": 6,
        "9817": 31,
        "9818": 1,
        "9819": 84,
        "9820": 215,
        "9821": 132,
        "9822": 247,
        "9823": 102,
        "9824": 247,
        "9825": 19,
        "9826": 123,
        "9827": 122,
        "9828": 150,
        "9829": 57,
        "9830": 22,
        "9831": 94,
        "9832": 7,
        "9833": 97,
        "9834": 14,
        "9835": 100,
        "9836": 20,
        "9837": 156,
        "9838": 127,
        "9839": 82,
        "9840": 58,
        "9841": 76,
        "9842": 156,
        "9843": 125,
        "9844": 51,
        "9845": 68,
        "9846": 92,
        "9847": 190,
        "9848": 7,
        "9849": 163,
        "9850": 150,
        "9851": 87,
        "9852": 126,
        "9853": 137,
        "9854": 104,
        "9855": 40,
        "9856": 152,
        "9857": 179,
        "9858": 206,
        "9859": 121,
        "9860": 130,
        "9861": 186,
        "9862": 72,
        "9863": 200,
        "9864": 115,
        "9865": 68,
        "9866": 80,
        "9867": 119,
        "9868": 129,
        "9869": 51,
        "9870": 58,
        "9871": 249,
        "9872": 35,
        "9873": 61,
        "9874": 169,
        "9875": 110,
        "9876": 60,
        "9877": 160,
        "9878": 104,
        "9879": 107,
        "9880": 35,
        "9881": 78,
        "9882": 192,
        "9883": 176,
        "9884": 63,
        "9885": 170,
        "9886": 26,
        "9887": 224,
        "9888": 144,
        "9889": 8,
        "9890": 98,
        "9891": 246,
        "9892": 195,
        "9893": 72,
        "9894": 160,
        "9895": 193,
        "9896": 63,
        "9897": 88,
        "9898": 4,
        "9899": 179,
        "9900": 22,
        "9901": 4,
        "9902": 35,
        "9903": 45,
        "9904": 40,
        "9905": 227,
        "9906": 187,
        "9907": 61,
        "9908": 254,
        "9909": 204,
        "9910": 173,
        "9911": 39,
        "9912": 87,
        "9913": 127,
        "9914": 242,
        "9915": 250,
        "9916": 106,
        "9917": 149,
        "9918": 65,
        "9919": 175,
        "9920": 173,
        "9921": 208,
        "9922": 84,
        "9923": 70,
        "9924": 200,
        "9925": 83,
        "9926": 18,
        "9927": 57,
        "9928": 79,
        "9929": 81,
        "9930": 116,
        "9931": 164,
        "9932": 230,
        "9933": 136,
        "9934": 34,
        "9935": 28,
        "9936": 115,
        "9937": 11,
        "9938": 114,
        "9939": 49,
        "9940": 108,
        "9941": 212,
        "9942": 171,
        "9943": 46,
        "9944": 239,
        "9945": 96,
        "9946": 41,
        "9947": 115,
        "9948": 78,
        "9949": 22,
        "9950": 189,
        "9951": 117,
        "9952": 17,
        "9953": 145,
        "9954": 191,
        "9955": 149,
        "9956": 233,
        "9957": 146,
        "9958": 179,
        "9959": 19,
        "9960": 111,
        "9961": 145,
        "9962": 111,
        "9963": 36,
        "9964": 153,
        "9965": 150,
        "9966": 47,
        "9967": 169,
        "9968": 67,
        "9969": 110,
        "9970": 254,
        "9971": 156,
        "9972": 129,
        "9973": 165,
        "9974": 152,
        "9975": 213,
        "9976": 128,
        "9977": 76,
        "9978": 80,
        "9979": 125,
        "9980": 11,
        "9981": 13,
        "9982": 136,
        "9983": 238,
        "9984": 191,
        "9985": 29,
        "9986": 91,
        "9987": 92,
        "9988": 159,
        "9989": 204,
        "9990": 73,
        "9991": 217,
        "9992": 241,
        "9993": 45,
        "9994": 186,
        "9995": 107,
        "9996": 43,
        "9997": 239,
        "9998": 163,
        "9999": 74,
        "10000": 45,
        "10001": 115,
        "10002": 202,
        "10003": 70,
        "10004": 85,
        "10005": 136,
        "10006": 24,
        "10007": 2,
        "10008": 176,
        "10009": 12,
        "10010": 82,
        "10011": 136,
        "10012": 119,
        "10013": 93,
        "10014": 10,
        "10015": 29,
        "10016": 34,
        "10017": 106,
        "10018": 67,
        "10019": 31,
        "10020": 113,
        "10021": 84,
        "10022": 149,
        "10023": 246,
        "10024": 147,
        "10025": 145,
        "10026": 211,
        "10027": 31,
        "10028": 212,
        "10029": 153,
        "10030": 185,
        "10031": 24,
        "10032": 96,
        "10033": 6,
        "10034": 96,
        "10035": 8,
        "10036": 252,
        "10037": 63,
        "10038": 178,
        "10039": 21,
        "10040": 92,
        "10041": 1,
        "10042": 208,
        "10043": 7,
        "10044": 26,
        "10045": 84,
        "10046": 246,
        "10047": 86,
        "10048": 151,
        "10049": 212,
        "10050": 135,
        "10051": 212,
        "10052": 90,
        "10053": 215,
        "10054": 186,
        "10055": 215,
        "10056": 92,
        "10057": 107,
        "10058": 211,
        "10059": 199,
        "10060": 79,
        "10061": 212,
        "10062": 94,
        "10063": 236,
        "10064": 56,
        "10065": 217,
        "10066": 167,
        "10067": 194,
        "10068": 128,
        "10069": 182,
        "10070": 223,
        "10071": 72,
        "10072": 106,
        "10073": 181,
        "10074": 48,
        "10075": 25,
        "10076": 225,
        "10077": 187,
        "10078": 138,
        "10079": 73,
        "10080": 219,
        "10081": 57,
        "10082": 239,
        "10083": 71,
        "10084": 65,
        "10085": 64,
        "10086": 49,
        "10087": 201,
        "10088": 32,
        "10089": 165,
        "10090": 150,
        "10091": 59,
        "10092": 140,
        "10093": 96,
        "10094": 239,
        "10095": 204,
        "10096": 21,
        "10097": 229,
        "10098": 60,
        "10099": 107,
        "10100": 182,
        "10101": 122,
        "10102": 137,
        "10103": 17,
        "10104": 0,
        "10105": 191,
        "10106": 71,
        "10107": 194,
        "10108": 6,
        "10109": 20,
        "10110": 150,
        "10111": 43,
        "10112": 225,
        "10113": 68,
        "10114": 136,
        "10115": 122,
        "10116": 247,
        "10117": 82,
        "10118": 241,
        "10119": 173,
        "10120": 115,
        "10121": 109,
        "10122": 209,
        "10123": 141,
        "10124": 4,
        "10125": 71,
        "10126": 136,
        "10127": 182,
        "10128": 189,
        "10129": 242,
        "10130": 115,
        "10131": 156,
        "10132": 21,
        "10133": 126,
        "10134": 110,
        "10135": 32,
        "10136": 15,
        "10137": 17,
        "10138": 184,
        "10139": 151,
        "10140": 2,
        "10141": 93,
        "10142": 216,
        "10143": 129,
        "10144": 109,
        "10145": 128,
        "10146": 68,
        "10147": 187,
        "10148": 91,
        "10149": 245,
        "10150": 64,
        "10151": 243,
        "10152": 64,
        "10153": 194,
        "10154": 44,
        "10155": 220,
        "10156": 129,
        "10157": 3,
        "10158": 69,
        "10159": 12,
        "10160": 232,
        "10161": 115,
        "10162": 45,
        "10163": 174,
        "10164": 61,
        "10165": 79,
        "10166": 127,
        "10167": 146,
        "10168": 184,
        "10169": 242,
        "10170": 228,
        "10171": 163,
        "10172": 64,
        "10173": 135,
        "10174": 189,
        "10175": 114,
        "10176": 124,
        "10177": 101,
        "10178": 128,
        "10179": 18,
        "10180": 253,
        "10181": 178,
        "10182": 146,
        "10183": 8,
        "10184": 19,
        "10185": 209,
        "10186": 3,
        "10187": 160,
        "10188": 32,
        "10189": 240,
        "10190": 150,
        "10191": 211,
        "10192": 136,
        "10193": 227,
        "10194": 198,
        "10195": 68,
        "10196": 52,
        "10197": 85,
        "10198": 213,
        "10199": 255,
        "10200": 56,
        "10201": 245,
        "10202": 254,
        "10203": 59,
        "10204": 43,
        "10205": 189,
        "10206": 152,
        "10207": 207,
        "10208": 94,
        "10209": 244,
        "10210": 107,
        "10211": 31,
        "10212": 84,
        "10213": 227,
        "10214": 121,
        "10215": 224,
        "10216": 94,
        "10217": 88,
        "10218": 173,
        "10219": 16,
        "10220": 88,
        "10221": 10,
        "10222": 225,
        "10223": 180,
        "10224": 0,
        "10225": 235,
        "10226": 252,
        "10227": 4,
        "10228": 23,
        "10229": 244,
        "10230": 168,
        "10231": 72,
        "10232": 220,
        "10233": 129,
        "10234": 6,
        "10235": 147,
        "10236": 15,
        "10237": 224,
        "10238": 193,
        "10239": 69,
        "10240": 175,
        "10241": 64,
        "10242": 213,
        "10243": 112,
        "10244": 127,
        "10245": 75,
        "10246": 238,
        "10247": 181,
        "10248": 29,
        "10249": 35,
        "10250": 53,
        "10251": 162,
        "10252": 181,
        "10253": 171,
        "10254": 55,
        "10255": 62,
        "10256": 91,
        "10257": 195,
        "10258": 194,
        "10259": 223,
        "10260": 41,
        "10261": 42,
        "10262": 115,
        "10263": 15,
        "10264": 126,
        "10265": 162,
        "10266": 173,
        "10267": 253,
        "10268": 213,
        "10269": 17,
        "10270": 214,
        "10271": 37,
        "10272": 67,
        "10273": 29,
        "10274": 61,
        "10275": 33,
        "10276": 215,
        "10277": 30,
        "10278": 92,
        "10279": 90,
        "10280": 44,
        "10281": 176,
        "10282": 208,
        "10283": 114,
        "10284": 244,
        "10285": 138,
        "10286": 215,
        "10287": 193,
        "10288": 253,
        "10289": 112,
        "10290": 185,
        "10291": 234,
        "10292": 15,
        "10293": 254,
        "10294": 179,
        "10295": 223,
        "10296": 26,
        "10297": 70,
        "10298": 241,
        "10299": 255,
        "10300": 124,
        "10301": 82,
        "10302": 82,
        "10303": 179,
        "10304": 59,
        "10305": 104,
        "10306": 24,
        "10307": 138,
        "10308": 149,
        "10309": 88,
        "10310": 108,
        "10311": 117,
        "10312": 184,
        "10313": 21,
        "10314": 129,
        "10315": 12,
        "10316": 236,
        "10317": 57,
        "10318": 226,
        "10319": 74,
        "10320": 139,
        "10321": 115,
        "10322": 212,
        "10323": 139,
        "10324": 94,
        "10325": 241,
        "10326": 187,
        "10327": 127,
        "10328": 79,
        "10329": 199,
        "10330": 171,
        "10331": 234,
        "10332": 209,
        "10333": 98,
        "10334": 37,
        "10335": 18,
        "10336": 21,
        "10337": 96,
        "10338": 226,
        "10339": 147,
        "10340": 4,
        "10341": 71,
        "10342": 251,
        "10343": 174,
        "10344": 224,
        "10345": 118,
        "10346": 22,
        "10347": 1,
        "10348": 49,
        "10349": 103,
        "10350": 231,
        "10351": 27,
        "10352": 2,
        "10353": 42,
        "10354": 130,
        "10355": 133,
        "10356": 75,
        "10357": 73,
        "10358": 113,
        "10359": 151,
        "10360": 235,
        "10361": 12,
        "10362": 19,
        "10363": 114,
        "10364": 191,
        "10365": 84,
        "10366": 49,
        "10367": 191,
        "10368": 210,
        "10369": 67,
        "10370": 37,
        "10371": 204,
        "10372": 10,
        "10373": 21,
        "10374": 95,
        "10375": 194,
        "10376": 13,
        "10377": 252,
        "10378": 160,
        "10379": 202,
        "10380": 64,
        "10381": 226,
        "10382": 101,
        "10383": 84,
        "10384": 226,
        "10385": 99,
        "10386": 191,
        "10387": 11,
        "10388": 213,
        "10389": 134,
        "10390": 225,
        "10391": 204,
        "10392": 165,
        "10393": 92,
        "10394": 199,
        "10395": 50,
        "10396": 114,
        "10397": 191,
        "10398": 54,
        "10399": 17,
        "10400": 141,
        "10401": 193,
        "10402": 123,
        "10403": 134,
        "10404": 26,
        "10405": 106,
        "10406": 142,
        "10407": 94,
        "10408": 171,
        "10409": 123,
        "10410": 225,
        "10411": 171,
        "10412": 155,
        "10413": 89,
        "10414": 34,
        "10415": 125,
        "10416": 154,
        "10417": 228,
        "10418": 132,
        "10419": 35,
        "10420": 255,
        "10421": 189,
        "10422": 35,
        "10423": 125,
        "10424": 127,
        "10425": 55,
        "10426": 56,
        "10427": 235,
        "10428": 22,
        "10429": 111,
        "10430": 104,
        "10431": 178,
        "10432": 168,
        "10433": 44,
        "10434": 247,
        "10435": 42,
        "10436": 30,
        "10437": 150,
        "10438": 183,
        "10439": 233,
        "10440": 21,
        "10441": 205,
        "10442": 47,
        "10443": 230,
        "10444": 79,
        "10445": 224,
        "10446": 38,
        "10447": 206,
        "10448": 142,
        "10449": 73,
        "10450": 175,
        "10451": 42,
        "10452": 251,
        "10453": 230,
        "10454": 31,
        "10455": 157,
        "10456": 32,
        "10457": 76,
        "10458": 242,
        "10459": 134,
        "10460": 42,
        "10461": 110,
        "10462": 136,
        "10463": 26,
        "10464": 43,
        "10465": 240,
        "10466": 221,
        "10467": 106,
        "10468": 232,
        "10469": 224,
        "10470": 117,
        "10471": 100,
        "10472": 221,
        "10473": 205,
        "10474": 50,
        "10475": 193,
        "10476": 72,
        "10477": 152,
        "10478": 33,
        "10479": 64,
        "10480": 179,
        "10481": 161,
        "10482": 158,
        "10483": 139,
        "10484": 64,
        "10485": 194,
        "10486": 7,
        "10487": 149,
        "10488": 173,
        "10489": 21,
        "10490": 24,
        "10491": 127,
        "10492": 69,
        "10493": 222,
        "10494": 47,
        "10495": 218,
        "10496": 96,
        "10497": 7,
        "10498": 217,
        "10499": 189,
        "10500": 0,
        "10501": 192,
        "10502": 129,
        "10503": 166,
        "10504": 253,
        "10505": 4,
        "10506": 142,
        "10507": 125,
        "10508": 225,
        "10509": 253,
        "10510": 220,
        "10511": 120,
        "10512": 32,
        "10513": 28,
        "10514": 224,
        "10515": 217,
        "10516": 220,
        "10517": 82,
        "10518": 86,
        "10519": 132,
        "10520": 67,
        "10521": 170,
        "10522": 205,
        "10523": 182,
        "10524": 233,
        "10525": 163,
        "10526": 96,
        "10527": 71,
        "10528": 163,
        "10529": 114,
        "10530": 235,
        "10531": 12,
        "10532": 87,
        "10533": 159,
        "10534": 21,
        "10535": 153,
        "10536": 95,
        "10537": 104,
        "10538": 54,
        "10539": 97,
        "10540": 243,
        "10541": 95,
        "10542": 86,
        "10543": 153,
        "10544": 1,
        "10545": 171,
        "10546": 125,
        "10547": 201,
        "10548": 215,
        "10549": 194,
        "10550": 208,
        "10551": 223,
        "10552": 146,
        "10553": 28,
        "10554": 254,
        "10555": 163,
        "10556": 140,
        "10557": 179,
        "10558": 37,
        "10559": 183,
        "10560": 61,
        "10561": 120,
        "10562": 143,
        "10563": 90,
        "10564": 54,
        "10565": 234,
        "10566": 7,
        "10567": 150,
        "10568": 230,
        "10569": 143,
        "10570": 67,
        "10571": 132,
        "10572": 114,
        "10573": 186,
        "10574": 105,
        "10575": 64,
        "10576": 195,
        "10577": 65,
        "10578": 17,
        "10579": 78,
        "10580": 89,
        "10581": 237,
        "10582": 186,
        "10583": 75,
        "10584": 81,
        "10585": 167,
        "10586": 81,
        "10587": 192,
        "10588": 184,
        "10589": 52,
        "10590": 14,
        "10591": 119,
        "10592": 71,
        "10593": 37,
        "10594": 83,
        "10595": 153,
        "10596": 162,
        "10597": 75,
        "10598": 137,
        "10599": 231,
        "10600": 101,
        "10601": 4,
        "10602": 150,
        "10603": 231,
        "10604": 162,
        "10605": 217,
        "10606": 97,
        "10607": 229,
        "10608": 23,
        "10609": 216,
        "10610": 58,
        "10611": 248,
        "10612": 157,
        "10613": 52,
        "10614": 7,
        "10615": 166,
        "10616": 84,
        "10617": 246,
        "10618": 14,
        "10619": 207,
        "10620": 221,
        "10621": 0,
        "10622": 205,
        "10623": 237,
        "10624": 171,
        "10625": 48,
        "10626": 67,
        "10627": 242,
        "10628": 139,
        "10629": 212,
        "10630": 241,
        "10631": 31,
        "10632": 145,
        "10633": 46,
        "10634": 122,
        "10635": 220,
        "10636": 213,
        "10637": 24,
        "10638": 131,
        "10639": 1,
        "10640": 86,
        "10641": 209,
        "10642": 214,
        "10643": 147,
        "10644": 111,
        "10645": 128,
        "10646": 19,
        "10647": 236,
        "10648": 5,
        "10649": 3,
        "10650": 103,
        "10651": 189,
        "10652": 50,
        "10653": 162,
        "10654": 11,
        "10655": 184,
        "10656": 149,
        "10657": 88,
        "10658": 47,
        "10659": 157,
        "10660": 92,
        "10661": 10,
        "10662": 210,
        "10663": 105,
        "10664": 89,
        "10665": 185,
        "10666": 80,
        "10667": 107,
        "10668": 98,
        "10669": 202,
        "10670": 162,
        "10671": 26,
        "10672": 148,
        "10673": 115,
        "10674": 177,
        "10675": 237,
        "10676": 58,
        "10677": 154,
        "10678": 12,
        "10679": 174,
        "10680": 157,
        "10681": 91,
        "10682": 14,
        "10683": 60,
        "10684": 239,
        "10685": 159,
        "10686": 1,
        "10687": 0,
        "10688": 116,
        "10689": 4,
        "10690": 202,
        "10691": 159,
        "10692": 69,
        "10693": 214,
        "10694": 31,
        "10695": 133,
        "10696": 18,
        "10697": 220,
        "10698": 120,
        "10699": 106,
        "10700": 41,
        "10701": 75,
        "10702": 252,
        "10703": 87,
        "10704": 193,
        "10705": 221,
        "10706": 237,
        "10707": 173,
        "10708": 157,
        "10709": 194,
        "10710": 146,
        "10711": 171,
        "10712": 10,
        "10713": 195,
        "10714": 140,
        "10715": 238,
        "10716": 245,
        "10717": 83,
        "10718": 76,
        "10719": 13,
        "10720": 5,
        "10721": 128,
        "10722": 39,
        "10723": 90,
        "10724": 93,
        "10725": 23,
        "10726": 165,
        "10727": 85,
        "10728": 86,
        "10729": 145,
        "10730": 117,
        "10731": 69,
        "10732": 171,
        "10733": 186,
        "10734": 94,
        "10735": 70,
        "10736": 241,
        "10737": 51,
        "10738": 88,
        "10739": 239,
        "10740": 90,
        "10741": 217,
        "10742": 107,
        "10743": 127,
        "10744": 7,
        "10745": 213,
        "10746": 157,
        "10747": 210,
        "10748": 18,
        "10749": 83,
        "10750": 5,
        "10751": 81,
        "10752": 231,
        "10753": 31,
        "10754": 226,
        "10755": 199,
        "10756": 192,
        "10757": 236,
        "10758": 110,
        "10759": 225,
        "10760": 243,
        "10761": 39,
        "10762": 230,
        "10763": 202,
        "10764": 195,
        "10765": 137,
        "10766": 224,
        "10767": 209,
        "10768": 67,
        "10769": 55,
        "10770": 152,
        "10771": 114,
        "10772": 7,
        "10773": 208,
        "10774": 159,
        "10775": 44,
        "10776": 47,
        "10777": 153,
        "10778": 76,
        "10779": 168,
        "10780": 240,
        "10781": 227,
        "10782": 11,
        "10783": 69,
        "10784": 34,
        "10785": 232,
        "10786": 42,
        "10787": 212,
        "10788": 226,
        "10789": 14,
        "10790": 252,
        "10791": 173,
        "10792": 90,
        "10793": 104,
        "10794": 1,
        "10795": 220,
        "10796": 48,
        "10797": 225,
        "10798": 6,
        "10799": 84,
        "10800": 176,
        "10801": 195,
        "10802": 140,
        "10803": 145,
        "10804": 128,
        "10805": 69,
        "10806": 116,
        "10807": 227,
        "10808": 64,
        "10809": 144,
        "10810": 78,
        "10811": 117,
        "10812": 105,
        "10813": 177,
        "10814": 88,
        "10815": 136,
        "10816": 133,
        "10817": 170,
        "10818": 77,
        "10819": 104,
        "10820": 65,
        "10821": 63,
        "10822": 109,
        "10823": 106,
        "10824": 153,
        "10825": 19,
        "10826": 226,
        "10827": 211,
        "10828": 161,
        "10829": 161,
        "10830": 170,
        "10831": 196,
        "10832": 179,
        "10833": 57,
        "10834": 229,
        "10835": 83,
        "10836": 23,
        "10837": 53,
        "10838": 60,
        "10839": 125,
        "10840": 149,
        "10841": 72,
        "10842": 116,
        "10843": 116,
        "10844": 182,
        "10845": 103,
        "10846": 246,
        "10847": 155,
        "10848": 92,
        "10849": 150,
        "10850": 221,
        "10851": 180,
        "10852": 209,
        "10853": 80,
        "10854": 182,
        "10855": 25,
        "10856": 242,
        "10857": 51,
        "10858": 155,
        "10859": 81,
        "10860": 254,
        "10861": 203,
        "10862": 211,
        "10863": 75,
        "10864": 11,
        "10865": 108,
        "10866": 79,
        "10867": 90,
        "10868": 47,
        "10869": 3,
        "10870": 95,
        "10871": 171,
        "10872": 30,
        "10873": 113,
        "10874": 75,
        "10875": 16,
        "10876": 244,
        "10877": 105,
        "10878": 195,
        "10879": 201,
        "10880": 25,
        "10881": 45,
        "10882": 52,
        "10883": 3,
        "10884": 151,
        "10885": 195,
        "10886": 224,
        "10887": 110,
        "10888": 66,
        "10889": 152,
        "10890": 163,
        "10891": 189,
        "10892": 170,
        "10893": 157,
        "10894": 114,
        "10895": 192,
        "10896": 33,
        "10897": 215,
        "10898": 47,
        "10899": 59,
        "10900": 105,
        "10901": 85,
        "10902": 144,
        "10903": 238,
        "10904": 20,
        "10905": 76,
        "10906": 29,
        "10907": 145,
        "10908": 83,
        "10909": 170,
        "10910": 231,
        "10911": 86,
        "10912": 159,
        "10913": 72,
        "10914": 222,
        "10915": 39,
        "10916": 181,
        "10917": 108,
        "10918": 229,
        "10919": 137,
        "10920": 174,
        "10921": 92,
        "10922": 16,
        "10923": 229,
        "10924": 178,
        "10925": 114,
        "10926": 240,
        "10927": 47,
        "10928": 239,
        "10929": 110,
        "10930": 39,
        "10931": 139,
        "10932": 22,
        "10933": 180,
        "10934": 66,
        "10935": 97,
        "10936": 119,
        "10937": 238,
        "10938": 51,
        "10939": 166,
        "10940": 201,
        "10941": 42,
        "10942": 243,
        "10943": 248,
        "10944": 96,
        "10945": 84,
        "10946": 206,
        "10947": 207,
        "10948": 15,
        "10949": 129,
        "10950": 91,
        "10951": 12,
        "10952": 112,
        "10953": 170,
        "10954": 125,
        "10955": 225,
        "10956": 118,
        "10957": 12,
        "10958": 99,
        "10959": 248,
        "10960": 116,
        "10961": 235,
        "10962": 67,
        "10963": 226,
        "10964": 88,
        "10965": 184,
        "10966": 203,
        "10967": 250,
        "10968": 252,
        "10969": 198,
        "10970": 112,
        "10971": 8,
        "10972": 196,
        "10973": 105,
        "10974": 3,
        "10975": 78,
        "10976": 142,
        "10977": 209,
        "10978": 166,
        "10979": 126,
        "10980": 118,
        "10981": 92,
        "10982": 232,
        "10983": 126,
        "10984": 119,
        "10985": 110,
        "10986": 225,
        "10987": 92,
        "10988": 137,
        "10989": 51,
        "10990": 250,
        "10991": 37,
        "10992": 117,
        "10993": 181,
        "10994": 34,
        "10995": 212,
        "10996": 4,
        "10997": 199,
        "10998": 178,
        "10999": 71,
        "11000": 125,
        "11001": 95,
        "11002": 119,
        "11003": 82,
        "11004": 213,
        "11005": 18,
        "11006": 242,
        "11007": 245,
        "11008": 21,
        "11009": 226,
        "11010": 149,
        "11011": 39,
        "11012": 196,
        "11013": 194,
        "11014": 219,
        "11015": 80,
        "11016": 145,
        "11017": 148,
        "11018": 136,
        "11019": 55,
        "11020": 171,
        "11021": 163,
        "11022": 26,
        "11023": 59,
        "11024": 218,
        "11025": 43,
        "11026": 217,
        "11027": 130,
        "11028": 73,
        "11029": 6,
        "11030": 89,
        "11031": 74,
        "11032": 27,
        "11033": 16,
        "11034": 204,
        "11035": 102,
        "11036": 149,
        "11037": 172,
        "11038": 36,
        "11039": 83,
        "11040": 50,
        "11041": 76,
        "11042": 251,
        "11043": 50,
        "11044": 121,
        "11045": 12,
        "11046": 96,
        "11047": 12,
        "11048": 178,
        "11049": 179,
        "11050": 53,
        "11051": 228,
        "11052": 63,
        "11053": 141,
        "11054": 216,
        "11055": 156,
        "11056": 216,
        "11057": 61,
        "11058": 10,
        "11059": 134,
        "11060": 58,
        "11061": 118,
        "11062": 106,
        "11063": 50,
        "11064": 51,
        "11065": 253,
        "11066": 227,
        "11067": 23,
        "11068": 30,
        "11069": 242,
        "11070": 147,
        "11071": 188,
        "11072": 149,
        "11073": 224,
        "11074": 143,
        "11075": 57,
        "11076": 42,
        "11077": 134,
        "11078": 106,
        "11079": 251,
        "11080": 148,
        "11081": 60,
        "11082": 157,
        "11083": 241,
        "11084": 140,
        "11085": 49,
        "11086": 250,
        "11087": 124,
        "11088": 79,
        "11089": 169,
        "11090": 43,
        "11091": 106,
        "11092": 195,
        "11093": 225,
        "11094": 100,
        "11095": 172,
        "11096": 168,
        "11097": 128,
        "11098": 44,
        "11099": 119,
        "11100": 64,
        "11101": 136,
        "11102": 9,
        "11103": 41,
        "11104": 18,
        "11105": 102,
        "11106": 222,
        "11107": 101,
        "11108": 150,
        "11109": 70,
        "11110": 104,
        "11111": 225,
        "11112": 219,
        "11113": 195,
        "11114": 165,
        "11115": 211,
        "11116": 212,
        "11117": 100,
        "11118": 151,
        "11119": 75,
        "11120": 0,
        "11121": 253,
        "11122": 220,
        "11123": 83,
        "11124": 93,
        "11125": 166,
        "11126": 85,
        "11127": 98,
        "11128": 197,
        "11129": 2,
        "11130": 240,
        "11131": 182,
        "11132": 116,
        "11133": 2,
        "11134": 27,
        "11135": 181,
        "11136": 202,
        "11137": 84,
        "11138": 64,
        "11139": 53,
        "11140": 177,
        "11141": 246,
        "11142": 188,
        "11143": 126,
        "11144": 101,
        "11145": 6,
        "11146": 87,
        "11147": 125,
        "11148": 41,
        "11149": 98,
        "11150": 232,
        "11151": 216,
        "11152": 185,
        "11153": 48,
        "11154": 178,
        "11155": 66,
        "11156": 214,
        "11157": 33,
        "11158": 222,
        "11159": 193,
        "11160": 65,
        "11161": 121,
        "11162": 227,
        "11163": 221,
        "11164": 31,
        "11165": 220,
        "11166": 193,
        "11167": 138,
        "11168": 84,
        "11169": 166,
        "11170": 75,
        "11171": 79,
        "11172": 116,
        "11173": 221,
        "11174": 236,
        "11175": 52,
        "11176": 229,
        "11177": 154,
        "11178": 190,
        "11179": 253,
        "11180": 254,
        "11181": 49,
        "11182": 203,
        "11183": 224,
        "11184": 211,
        "11185": 107,
        "11186": 61,
        "11187": 78,
        "11188": 96,
        "11189": 26,
        "11190": 43,
        "11191": 101,
        "11192": 25,
        "11193": 12,
        "11194": 223,
        "11195": 104,
        "11196": 219,
        "11197": 140,
        "11198": 54,
        "11199": 157,
        "11200": 125,
        "11201": 65,
        "11202": 134,
        "11203": 174,
        "11204": 167,
        "11205": 108,
        "11206": 136,
        "11207": 251,
        "11208": 78,
        "11209": 172,
        "11210": 115,
        "11211": 151,
        "11212": 112,
        "11213": 200,
        "11214": 90,
        "11215": 118,
        "11216": 215,
        "11217": 58,
        "11218": 96,
        "11219": 154,
        "11220": 255,
        "11221": 117,
        "11222": 46,
        "11223": 127,
        "11224": 215,
        "11225": 194,
        "11226": 174,
        "11227": 187,
        "11228": 147,
        "11229": 149,
        "11230": 112,
        "11231": 212,
        "11232": 50,
        "11233": 144,
        "11234": 163,
        "11235": 11,
        "11236": 191,
        "11237": 62,
        "11238": 52,
        "11239": 157,
        "11240": 159,
        "11241": 240,
        "11242": 6,
        "11243": 39,
        "11244": 119,
        "11245": 93,
        "11246": 220,
        "11247": 52,
        "11248": 52,
        "11249": 33,
        "11250": 188,
        "11251": 98,
        "11252": 158,
        "11253": 177,
        "11254": 76,
        "11255": 65,
        "11256": 233,
        "11257": 118,
        "11258": 133,
        "11259": 89,
        "11260": 134,
        "11261": 176,
        "11262": 159,
        "11263": 138,
        "11264": 142,
        "11265": 221,
        "11266": 83,
        "11267": 56,
        "11268": 51,
        "11269": 224,
        "11270": 223,
        "11271": 19,
        "11272": 79,
        "11273": 17,
        "11274": 27,
        "11275": 147,
        "11276": 3,
        "11277": 199,
        "11278": 159,
        "11279": 146,
        "11280": 218,
        "11281": 185,
        "11282": 213,
        "11283": 143,
        "11284": 85,
        "11285": 142,
        "11286": 242,
        "11287": 9,
        "11288": 126,
        "11289": 252,
        "11290": 198,
        "11291": 43,
        "11292": 230,
        "11293": 56,
        "11294": 178,
        "11295": 229,
        "11296": 201,
        "11297": 228,
        "11298": 145,
        "11299": 63,
        "11300": 243,
        "11301": 236,
        "11302": 225,
        "11303": 161,
        "11304": 163,
        "11305": 185,
        "11306": 38,
        "11307": 134,
        "11308": 177,
        "11309": 133,
        "11310": 139,
        "11311": 25,
        "11312": 240,
        "11313": 187,
        "11314": 212,
        "11315": 125,
        "11316": 13,
        "11317": 126,
        "11318": 20,
        "11319": 92,
        "11320": 202,
        "11321": 70,
        "11322": 64,
        "11323": 37,
        "11324": 81,
        "11325": 96,
        "11326": 106,
        "11327": 148,
        "11328": 93,
        "11329": 181,
        "11330": 79,
        "11331": 146,
        "11332": 249,
        "11333": 14,
        "11334": 94,
        "11335": 226,
        "11336": 82,
        "11337": 21,
        "11338": 101,
        "11339": 160,
        "11340": 146,
        "11341": 120,
        "11342": 239,
        "11343": 75,
        "11344": 172,
        "11345": 71,
        "11346": 249,
        "11347": 99,
        "11348": 255,
        "11349": 189,
        "11350": 15,
        "11351": 249,
        "11352": 188,
        "11353": 193,
        "11354": 219,
        "11355": 226,
        "11356": 81,
        "11357": 22,
        "11358": 109,
        "11359": 200,
        "11360": 253,
        "11361": 161,
        "11362": 8,
        "11363": 227,
        "11364": 165,
        "11365": 165,
        "11366": 95,
        "11367": 71,
        "11368": 32,
        "11369": 248,
        "11370": 200,
        "11371": 209,
        "11372": 180,
        "11373": 245,
        "11374": 186,
        "11375": 85,
        "11376": 98,
        "11377": 41,
        "11378": 116,
        "11379": 55,
        "11380": 57,
        "11381": 156,
        "11382": 64,
        "11383": 74,
        "11384": 35,
        "11385": 26,
        "11386": 245,
        "11387": 30,
        "11388": 251,
        "11389": 150,
        "11390": 162,
        "11391": 203,
        "11392": 59,
        "11393": 108,
        "11394": 77,
        "11395": 1,
        "11396": 49,
        "11397": 161,
        "11398": 142,
        "11399": 63,
        "11400": 4,
        "11401": 208,
        "11402": 196,
        "11403": 78,
        "11404": 11,
        "11405": 113,
        "11406": 147,
        "11407": 145,
        "11408": 109,
        "11409": 39,
        "11410": 238,
        "11411": 215,
        "11412": 36,
        "11413": 138,
        "11414": 154,
        "11415": 194,
        "11416": 243,
        "11417": 219,
        "11418": 190,
        "11419": 214,
        "11420": 72,
        "11421": 211,
        "11422": 106,
        "11423": 131,
        "11424": 40,
        "11425": 153,
        "11426": 180,
        "11427": 234,
        "11428": 143,
        "11429": 27,
        "11430": 223,
        "11431": 113,
        "11432": 32,
        "11433": 111,
        "11434": 41,
        "11435": 159,
        "11436": 224,
        "11437": 102,
        "11438": 142,
        "11439": 117,
        "11440": 10,
        "11441": 137,
        "11442": 39,
        "11443": 226,
        "11444": 47,
        "11445": 145,
        "11446": 204,
        "11447": 144,
        "11448": 123,
        "11449": 33,
        "11450": 203,
        "11451": 29,
        "11452": 1,
        "11453": 170,
        "11454": 253,
        "11455": 81,
        "11456": 207,
        "11457": 23,
        "11458": 228,
        "11459": 240,
        "11460": 108,
        "11461": 86,
        "11462": 199,
        "11463": 220,
        "11464": 52,
        "11465": 117,
        "11466": 204,
        "11467": 251,
        "11468": 76,
        "11469": 219,
        "11470": 97,
        "11471": 85,
        "11472": 195,
        "11473": 219,
        "11474": 241,
        "11475": 203,
        "11476": 228,
        "11477": 14,
        "11478": 194,
        "11479": 118,
        "11480": 190,
        "11481": 242,
        "11482": 191,
        "11483": 156,
        "11484": 174,
        "11485": 122,
        "11486": 105,
        "11487": 174,
        "11488": 132,
        "11489": 228,
        "11490": 182,
        "11491": 8,
        "11492": 135,
        "11493": 151,
        "11494": 101,
        "11495": 127,
        "11496": 191,
        "11497": 78,
        "11498": 50,
        "11499": 193,
        "11500": 37,
        "11501": 110,
        "11502": 84,
        "11503": 105,
        "11504": 180,
        "11505": 74,
        "11506": 80,
        "11507": 229,
        "11508": 41,
        "11509": 88,
        "11510": 79,
        "11511": 166,
        "11512": 24,
        "11513": 41,
        "11514": 238,
        "11515": 40,
        "11516": 47,
        "11517": 203,
        "11518": 5,
        "11519": 42,
        "11520": 210,
        "11521": 97,
        "11522": 163,
        "11523": 157,
        "11524": 159,
        "11525": 247,
        "11526": 61,
        "11527": 14,
        "11528": 126,
        "11529": 174,
        "11530": 216,
        "11531": 190,
        "11532": 31,
        "11533": 89,
        "11534": 155,
        "11535": 230,
        "11536": 177,
        "11537": 255,
        "11538": 224,
        "11539": 249,
        "11540": 242,
        "11541": 116,
        "11542": 36,
        "11543": 143,
        "11544": 241,
        "11545": 8,
        "11546": 26,
        "11547": 14,
        "11548": 124,
        "11549": 117,
        "11550": 167,
        "11551": 240,
        "11552": 121,
        "11553": 219,
        "11554": 101,
        "11555": 80,
        "11556": 71,
        "11557": 224,
        "11558": 218,
        "11559": 77,
        "11560": 172,
        "11561": 215,
        "11562": 135,
        "11563": 175,
        "11564": 76,
        "11565": 247,
        "11566": 74,
        "11567": 230,
        "11568": 170,
        "11569": 236,
        "11570": 138,
        "11571": 167,
        "11572": 29,
        "11573": 69,
        "11574": 100,
        "11575": 238,
        "11576": 147,
        "11577": 195,
        "11578": 171,
        "11579": 91,
        "11580": 170,
        "11581": 216,
        "11582": 4,
        "11583": 72,
        "11584": 126,
        "11585": 162,
        "11586": 214,
        "11587": 233,
        "11588": 227,
        "11589": 134,
        "11590": 89,
        "11591": 187,
        "11592": 4,
        "11593": 249,
        "11594": 88,
        "11595": 160,
        "11596": 19,
        "11597": 171,
        "11598": 98,
        "11599": 4,
        "11600": 155,
        "11601": 104,
        "11602": 94,
        "11603": 94,
        "11604": 240,
        "11605": 88,
        "11606": 137,
        "11607": 109,
        "11608": 249,
        "11609": 106,
        "11610": 139,
        "11611": 186,
        "11612": 116,
        "11613": 138,
        "11614": 216,
        "11615": 255,
        "11616": 239,
        "11617": 10,
        "11618": 117,
        "11619": 221,
        "11620": 135,
        "11621": 113,
        "11622": 142,
        "11623": 239,
        "11624": 213,
        "11625": 12,
        "11626": 226,
        "11627": 152,
        "11628": 157,
        "11629": 136,
        "11630": 149,
        "11631": 32,
        "11632": 214,
        "11633": 115,
        "11634": 219,
        "11635": 226,
        "11636": 133,
        "11637": 172,
        "11638": 108,
        "11639": 236,
        "11640": 30,
        "11641": 206,
        "11642": 127,
        "11643": 238,
        "11644": 244,
        "11645": 221,
        "11646": 206,
        "11647": 193,
        "11648": 6,
        "11649": 209,
        "11650": 95,
        "11651": 153,
        "11652": 124,
        "11653": 33,
        "11654": 194,
        "11655": 129,
        "11656": 143,
        "11657": 71,
        "11658": 43,
        "11659": 54,
        "11660": 231,
        "11661": 13,
        "11662": 121,
        "11663": 100,
        "11664": 201,
        "11665": 253,
        "11666": 128,
        "11667": 59,
        "11668": 138,
        "11669": 156,
        "11670": 228,
        "11671": 166,
        "11672": 194,
        "11673": 225,
        "11674": 249,
        "11675": 94,
        "11676": 24,
        "11677": 174,
        "11678": 198,
        "11679": 2,
        "11680": 151,
        "11681": 165,
        "11682": 139,
        "11683": 72,
        "11684": 187,
        "11685": 128,
        "11686": 202,
        "11687": 191,
        "11688": 228,
        "11689": 22,
        "11690": 125,
        "11691": 76,
        "11692": 42,
        "11693": 92,
        "11694": 102,
        "11695": 41,
        "11696": 192,
        "11697": 249,
        "11698": 101,
        "11699": 64,
        "11700": 183,
        "11701": 9,
        "11702": 218,
        "11703": 64,
        "11704": 248,
        "11705": 2,
        "11706": 148,
        "11707": 211,
        "11708": 118,
        "11709": 205,
        "11710": 30,
        "11711": 114,
        "11712": 128,
        "11713": 66,
        "11714": 11,
        "11715": 191,
        "11716": 192,
        "11717": 207,
        "11718": 77,
        "11719": 133,
        "11720": 11,
        "11721": 135,
        "11722": 69,
        "11723": 42,
        "11724": 196,
        "11725": 177,
        "11726": 164,
        "11727": 12,
        "11728": 202,
        "11729": 147,
        "11730": 8,
        "11731": 227,
        "11732": 148,
        "11733": 113,
        "11734": 124,
        "11735": 73,
        "11736": 25,
        "11737": 163,
        "11738": 10,
        "11739": 41,
        "11740": 217,
        "11741": 17,
        "11742": 224,
        "11743": 245,
        "11744": 138,
        "11745": 188,
        "11746": 240,
        "11747": 12,
        "11748": 203,
        "11749": 54,
        "11750": 232,
        "11751": 180,
        "11752": 12,
        "11753": 88,
        "11754": 56,
        "11755": 98,
        "11756": 57,
        "11757": 230,
        "11758": 161,
        "11759": 246,
        "11760": 236,
        "11761": 144,
        "11762": 212,
        "11763": 91,
        "11764": 107,
        "11765": 138,
        "11766": 132,
        "11767": 41,
        "11768": 133,
        "11769": 174,
        "11770": 72,
        "11771": 126,
        "11772": 241,
        "11773": 174,
        "11774": 21,
        "11775": 136,
        "11776": 212,
        "11777": 116,
        "11778": 196,
        "11779": 9,
        "11780": 63,
        "11781": 219,
        "11782": 27,
        "11783": 224,
        "11784": 207,
        "11785": 118,
        "11786": 31,
        "11787": 183,
        "11788": 239,
        "11789": 193,
        "11790": 167,
        "11791": 53,
        "11792": 88,
        "11793": 127,
        "11794": 82,
        "11795": 75,
        "11796": 175,
        "11797": 217,
        "11798": 57,
        "11799": 86,
        "11800": 247,
        "11801": 28,
        "11802": 118,
        "11803": 137,
        "11804": 223,
        "11805": 141,
        "11806": 47,
        "11807": 119,
        "11808": 176,
        "11809": 166,
        "11810": 134,
        "11811": 63,
        "11812": 9,
        "11813": 162,
        "11814": 124,
        "11815": 198,
        "11816": 202,
        "11817": 206,
        "11818": 114,
        "11819": 180,
        "11820": 31,
        "11821": 110,
        "11822": 186,
        "11823": 140,
        "11824": 222,
        "11825": 243,
        "11826": 46,
        "11827": 139,
        "11828": 172,
        "11829": 123,
        "11830": 185,
        "11831": 228,
        "11832": 108,
        "11833": 237,
        "11834": 86,
        "11835": 21,
        "11836": 63,
        "11837": 88,
        "11838": 154,
        "11839": 162,
        "11840": 21,
        "11841": 195,
        "11842": 32,
        "11843": 118,
        "11844": 22,
        "11845": 253,
        "11846": 65,
        "11847": 34,
        "11848": 200,
        "11849": 132,
        "11850": 194,
        "11851": 52,
        "11852": 60,
        "11853": 179,
        "11854": 66,
        "11855": 72,
        "11856": 196,
        "11857": 23,
        "11858": 153,
        "11859": 211,
        "11860": 205,
        "11861": 189,
        "11862": 81,
        "11863": 122,
        "11864": 99,
        "11865": 178,
        "11866": 71,
        "11867": 27,
        "11868": 101,
        "11869": 129,
        "11870": 236,
        "11871": 45,
        "11872": 224,
        "11873": 80,
        "11874": 195,
        "11875": 242,
        "11876": 92,
        "11877": 21,
        "11878": 34,
        "11879": 241,
        "11880": 193,
        "11881": 186,
        "11882": 44,
        "11883": 228,
        "11884": 106,
        "11885": 218,
        "11886": 61,
        "11887": 24,
        "11888": 123,
        "11889": 253,
        "11890": 222,
        "11891": 78,
        "11892": 144,
        "11893": 141,
        "11894": 36,
        "11895": 113,
        "11896": 23,
        "11897": 23,
        "11898": 161,
        "11899": 237,
        "11900": 184,
        "11901": 215,
        "11902": 62,
        "11903": 127,
        "11904": 5,
        "11905": 141,
        "11906": 111,
        "11907": 228,
        "11908": 239,
        "11909": 9,
        "11910": 84,
        "11911": 19,
        "11912": 178,
        "11913": 48,
        "11914": 43,
        "11915": 195,
        "11916": 16,
        "11917": 88,
        "11918": 25,
        "11919": 229,
        "11920": 225,
        "11921": 36,
        "11922": 62,
        "11923": 200,
        "11924": 67,
        "11925": 62,
        "11926": 154,
        "11927": 83,
        "11928": 17,
        "11929": 96,
        "11930": 130,
        "11931": 198,
        "11932": 228,
        "11933": 113,
        "11934": 176,
        "11935": 250,
        "11936": 90,
        "11937": 96,
        "11938": 37,
        "11939": 22,
        "11940": 237,
        "11941": 80,
        "11942": 128,
        "11943": 94,
        "11944": 131,
        "11945": 11,
        "11946": 107,
        "11947": 164,
        "11948": 148,
        "11949": 2,
        "11950": 44,
        "11951": 175,
        "11952": 230,
        "11953": 78,
        "11954": 106,
        "11955": 199,
        "11956": 196,
        "11957": 168,
        "11958": 190,
        "11959": 14,
        "11960": 44,
        "11961": 213,
        "11962": 140,
        "11963": 209,
        "11964": 20,
        "11965": 7,
        "11966": 111,
        "11967": 82,
        "11968": 69,
        "11969": 139,
        "11970": 14,
        "11971": 13,
        "11972": 40,
        "11973": 49,
        "11974": 204,
        "11975": 173,
        "11976": 174,
        "11977": 232,
        "11978": 195,
        "11979": 122,
        "11980": 186,
        "11981": 216,
        "11982": 150,
        "11983": 158,
        "11984": 107,
        "11985": 64,
        "11986": 154,
        "11987": 28,
        "11988": 173,
        "11989": 36,
        "11990": 243,
        "11991": 143,
        "11992": 160,
        "11993": 252,
        "11994": 111,
        "11995": 91,
        "11996": 15,
        "11997": 121,
        "11998": 91,
        "11999": 207,
        "12000": 196,
        "12001": 119,
        "12002": 8,
        "12003": 149,
        "12004": 188,
        "12005": 114,
        "12006": 177,
        "12007": 85,
        "12008": 198,
        "12009": 225,
        "12010": 43,
        "12011": 103,
        "12012": 136,
        "12013": 188,
        "12014": 94,
        "12015": 118,
        "12016": 128,
        "12017": 9,
        "12018": 20,
        "12019": 186,
        "12020": 116,
        "12021": 67,
        "12022": 135,
        "12023": 187,
        "12024": 98,
        "12025": 55,
        "12026": 171,
        "12027": 213,
        "12028": 112,
        "12029": 148,
        "12030": 198,
        "12031": 58,
        "12032": 188,
        "12033": 1,
        "12034": 109,
        "12035": 39,
        "12036": 220,
        "12037": 101,
        "12038": 127,
        "12039": 144,
        "12040": 157,
        "12041": 2,
        "12042": 248,
        "12043": 85,
        "12044": 188,
        "12045": 97,
        "12046": 140,
        "12047": 114,
        "12048": 147,
        "12049": 8,
        "12050": 232,
        "12051": 111,
        "12052": 98,
        "12053": 116,
        "12054": 147,
        "12055": 224,
        "12056": 53,
        "12057": 24,
        "12058": 125,
        "12059": 118,
        "12060": 16,
        "12061": 186,
        "12062": 73,
        "12063": 210,
        "12064": 207,
        "12065": 109,
        "12066": 67,
        "12067": 44,
        "12068": 2,
        "12069": 167,
        "12070": 113,
        "12071": 223,
        "12072": 39,
        "12073": 201,
        "12074": 112,
        "12075": 171,
        "12076": 253,
        "12077": 155,
        "12078": 25,
        "12079": 86,
        "12080": 244,
        "12081": 50,
        "12082": 130,
        "12083": 187,
        "12084": 195,
        "12085": 154,
        "12086": 70,
        "12087": 114,
        "12088": 232,
        "12089": 117,
        "12090": 12,
        "12091": 238,
        "12092": 36,
        "12093": 13,
        "12094": 188,
        "12095": 170,
        "12096": 65,
        "12097": 216,
        "12098": 251,
        "12099": 107,
        "12100": 145,
        "12101": 160,
        "12102": 225,
        "12103": 60,
        "12104": 48,
        "12105": 60,
        "12106": 49,
        "12107": 158,
        "12108": 62,
        "12109": 54,
        "12110": 82,
        "12111": 135,
        "12112": 118,
        "12113": 248,
        "12114": 125,
        "12115": 76,
        "12116": 200,
        "12117": 63,
        "12118": 202,
        "12119": 85,
        "12120": 94,
        "12121": 154,
        "12122": 76,
        "12123": 178,
        "12124": 223,
        "12125": 208,
        "12126": 24,
        "12127": 43,
        "12128": 148,
        "12129": 90,
        "12130": 166,
        "12131": 32,
        "12132": 207,
        "12133": 168,
        "12134": 199,
        "12135": 147,
        "12136": 211,
        "12137": 139,
        "12138": 81,
        "12139": 215,
        "12140": 124,
        "12141": 75,
        "12142": 46,
        "12143": 177,
        "12144": 204,
        "12145": 37,
        "12146": 30,
        "12147": 172,
        "12148": 5,
        "12149": 242,
        "12150": 253,
        "12151": 216,
        "12152": 139,
        "12153": 217,
        "12154": 147,
        "12155": 70,
        "12156": 192,
        "12157": 36,
        "12158": 141,
        "12159": 246,
        "12160": 140,
        "12161": 190,
        "12162": 246,
        "12163": 248,
        "12164": 39,
        "12165": 198,
        "12166": 200,
        "12167": 109,
        "12168": 84,
        "12169": 52,
        "12170": 255,
        "12171": 64,
        "12172": 120,
        "12173": 34,
        "12174": 246,
        "12175": 111,
        "12176": 140,
        "12177": 65,
        "12178": 55,
        "12179": 180,
        "12180": 71,
        "12181": 247,
        "12182": 198,
        "12183": 227,
        "12184": 126,
        "12185": 205,
        "12186": 193,
        "12187": 196,
        "12188": 31,
        "12189": 80,
        "12190": 55,
        "12191": 180,
        "12192": 95,
        "12193": 196,
        "12194": 84,
        "12195": 232,
        "12196": 180,
        "12197": 62,
        "12198": 218,
        "12199": 237,
        "12200": 145,
        "12201": 112,
        "12202": 182,
        "12203": 100,
        "12204": 24,
        "12205": 195,
        "12206": 173,
        "12207": 35,
        "12208": 158,
        "12209": 64,
        "12210": 171,
        "12211": 78,
        "12212": 158,
        "12213": 146,
        "12214": 151,
        "12215": 95,
        "12216": 102,
        "12217": 203,
        "12218": 34,
        "12219": 27,
        "12220": 115,
        "12221": 136,
        "12222": 249,
        "12223": 211,
        "12224": 138,
        "12225": 25,
        "12226": 209,
        "12227": 44,
        "12228": 30,
        "12229": 171,
        "12230": 214,
        "12231": 223,
        "12232": 1,
        "12233": 79,
        "12234": 39,
        "12235": 60,
        "12236": 237,
        "12237": 202,
        "12238": 250,
        "12239": 220,
        "12240": 47,
        "12241": 251,
        "12242": 12,
        "12243": 41,
        "12244": 114,
        "12245": 140,
        "12246": 6,
        "12247": 238,
        "12248": 183,
        "12249": 66,
        "12250": 231,
        "12251": 122,
        "12252": 69,
        "12253": 150,
        "12254": 160,
        "12255": 169,
        "12256": 33,
        "12257": 45,
        "12258": 168,
        "12259": 137,
        "12260": 217,
        "12261": 18,
        "12262": 165,
        "12263": 202,
        "12264": 254,
        "12265": 99,
        "12266": 146,
        "12267": 140,
        "12268": 109,
        "12269": 146,
        "12270": 224,
        "12271": 65,
        "12272": 249,
        "12273": 174,
        "12274": 26,
        "12275": 224,
        "12276": 126,
        "12277": 240,
        "12278": 17,
        "12279": 253,
        "12280": 76,
        "12281": 21,
        "12282": 32,
        "12283": 13,
        "12284": 192,
        "12285": 95,
        "12286": 44,
        "12287": 40,
        "12288": 229,
        "12289": 71,
        "12290": 234,
        "12291": 3,
        "12292": 60,
        "12293": 22,
        "12294": 172,
        "12295": 219,
        "12296": 74,
        "12297": 173,
        "12298": 227,
        "12299": 149,
        "12300": 53,
        "12301": 194,
        "12302": 236,
        "12303": 131,
        "12304": 18,
        "12305": 19,
        "12306": 19,
        "12307": 111,
        "12308": 157,
        "12309": 202,
        "12310": 143,
        "12311": 207,
        "12312": 63,
        "12313": 222,
        "12314": 79,
        "12315": 86,
        "12316": 249,
        "12317": 144,
        "12318": 152,
        "12319": 95,
        "12320": 206,
        "12321": 243,
        "12322": 215,
        "12323": 32,
        "12324": 63,
        "12325": 1,
        "12326": 21,
        "12327": 81,
        "12328": 53,
        "12329": 182,
        "12330": 121,
        "12331": 105,
        "12332": 168,
        "12333": 175,
        "12334": 204,
        "12335": 43,
        "12336": 198,
        "12337": 55,
        "12338": 177,
        "12339": 81,
        "12340": 226,
        "12341": 55,
        "12342": 225,
        "12343": 67,
        "12344": 129,
        "12345": 213,
        "12346": 3,
        "12347": 238,
        "12348": 166,
        "12349": 151,
        "12350": 19,
        "12351": 129,
        "12352": 93,
        "12353": 65,
        "12354": 136,
        "12355": 227,
        "12356": 149,
        "12357": 242,
        "12358": 15,
        "12359": 107,
        "12360": 141,
        "12361": 109,
        "12362": 116,
        "12363": 55,
        "12364": 162,
        "12365": 72,
        "12366": 104,
        "12367": 250,
        "12368": 238,
        "12369": 153,
        "12370": 178,
        "12371": 44,
        "12372": 13,
        "12373": 56,
        "12374": 102,
        "12375": 1,
        "12376": 196,
        "12377": 250,
        "12378": 35,
        "12379": 175,
        "12380": 1,
        "12381": 58,
        "12382": 5,
        "12383": 2,
        "12384": 160,
        "12385": 43,
        "12386": 187,
        "12387": 41,
        "12388": 140,
        "12389": 99,
        "12390": 127,
        "12391": 48,
        "12392": 120,
        "12393": 110,
        "12394": 182,
        "12395": 215,
        "12396": 24,
        "12397": 50,
        "12398": 245,
        "12399": 208,
        "12400": 234,
        "12401": 142,
        "12402": 218,
        "12403": 199,
        "12404": 251,
        "12405": 10,
        "12406": 221,
        "12407": 230,
        "12408": 211,
        "12409": 241,
        "12410": 156,
        "12411": 56,
        "12412": 202,
        "12413": 188,
        "12414": 239,
        "12415": 114,
        "12416": 17,
        "12417": 195,
        "12418": 254,
        "12419": 194,
        "12420": 47,
        "12421": 14,
        "12422": 218,
        "12423": 177,
        "12424": 78,
        "12425": 230,
        "12426": 153,
        "12427": 112,
        "12428": 169,
        "12429": 121,
        "12430": 210,
        "12431": 1,
        "12432": 101,
        "12433": 223,
        "12434": 120,
        "12435": 147,
        "12436": 33,
        "12437": 114,
        "12438": 167,
        "12439": 207,
        "12440": 243,
        "12441": 123,
        "12442": 230,
        "12443": 199,
        "12444": 189,
        "12445": 234,
        "12446": 237,
        "12447": 57,
        "12448": 225,
        "12449": 69,
        "12450": 210,
        "12451": 91,
        "12452": 158,
        "12453": 108,
        "12454": 244,
        "12455": 57,
        "12456": 146,
        "12457": 252,
        "12458": 187,
        "12459": 102,
        "12460": 222,
        "12461": 39,
        "12462": 11,
        "12463": 191,
        "12464": 166,
        "12465": 223,
        "12466": 120,
        "12467": 151,
        "12468": 234,
        "12469": 251,
        "12470": 248,
        "12471": 249,
        "12472": 132,
        "12473": 114,
        "12474": 83,
        "12475": 174,
        "12476": 203,
        "12477": 152,
        "12478": 182,
        "12479": 45,
        "12480": 158,
        "12481": 102,
        "12482": 223,
        "12483": 108,
        "12484": 88,
        "12485": 143,
        "12486": 160,
        "12487": 74,
        "12488": 139,
        "12489": 120,
        "12490": 16,
        "12491": 127,
        "12492": 71,
        "12493": 64,
        "12494": 212,
        "12495": 11,
        "12496": 143,
        "12497": 64,
        "12498": 87,
        "12499": 169,
        "12500": 183,
        "12501": 232,
        "12502": 222,
        "12503": 33,
        "12504": 61,
        "12505": 201,
        "12506": 84,
        "12507": 224,
        "12508": 246,
        "12509": 249,
        "12510": 47,
        "12511": 138,
        "12512": 189,
        "12513": 217,
        "12514": 116,
        "12515": 178,
        "12516": 132,
        "12517": 125,
        "12518": 161,
        "12519": 225,
        "12520": 136,
        "12521": 190,
        "12522": 230,
        "12523": 202,
        "12524": 218,
        "12525": 198,
        "12526": 133,
        "12527": 19,
        "12528": 52,
        "12529": 166,
        "12530": 214,
        "12531": 175,
        "12532": 217,
        "12533": 108,
        "12534": 208,
        "12535": 159,
        "12536": 136,
        "12537": 250,
        "12538": 153,
        "12539": 209,
        "12540": 145,
        "12541": 72,
        "12542": 178,
        "12543": 202,
        "12544": 221,
        "12545": 30,
        "12546": 20,
        "12547": 214,
        "12548": 111,
        "12549": 238,
        "12550": 99,
        "12551": 8,
        "12552": 88,
        "12553": 194,
        "12554": 53,
        "12555": 0,
        "12556": 88,
        "12557": 210,
        "12558": 84,
        "12559": 180,
        "12560": 64,
        "12561": 22,
        "12562": 202,
        "12563": 215,
        "12564": 52,
        "12565": 196,
        "12566": 56,
        "12567": 47,
        "12568": 182,
        "12569": 197,
        "12570": 49,
        "12571": 227,
        "12572": 201,
        "12573": 119,
        "12574": 154,
        "12575": 167,
        "12576": 158,
        "12577": 213,
        "12578": 199,
        "12579": 10,
        "12580": 64,
        "12581": 163,
        "12582": 141,
        "12583": 79,
        "12584": 132,
        "12585": 156,
        "12586": 20,
        "12587": 91,
        "12588": 152,
        "12589": 166,
        "12590": 66,
        "12591": 208,
        "12592": 27,
        "12593": 240,
        "12594": 48,
        "12595": 202,
        "12596": 232,
        "12597": 195,
        "12598": 251,
        "12599": 236,
        "12600": 225,
        "12601": 238,
        "12602": 12,
        "12603": 85,
        "12604": 97,
        "12605": 55,
        "12606": 221,
        "12607": 20,
        "12608": 1,
        "12609": 217,
        "12610": 246,
        "12611": 220,
        "12612": 42,
        "12613": 200,
        "12614": 81,
        "12615": 41,
        "12616": 50,
        "12617": 41,
        "12618": 196,
        "12619": 114,
        "12620": 255,
        "12621": 117,
        "12622": 166,
        "12623": 236,
        "12624": 165,
        "12625": 252,
        "12626": 84,
        "12627": 214,
        "12628": 205,
        "12629": 62,
        "12630": 176,
        "12631": 185,
        "12632": 110,
        "12633": 196,
        "12634": 71,
        "12635": 79,
        "12636": 51,
        "12637": 18,
        "12638": 62,
        "12639": 136,
        "12640": 164,
        "12641": 209,
        "12642": 207,
        "12643": 41,
        "12644": 162,
        "12645": 110,
        "12646": 190,
        "12647": 84,
        "12648": 162,
        "12649": 230,
        "12650": 14,
        "12651": 177,
        "12652": 244,
        "12653": 167,
        "12654": 246,
        "12655": 214,
        "12656": 57,
        "12657": 53,
        "12658": 162,
        "12659": 17,
        "12660": 164,
        "12661": 177,
        "12662": 103,
        "12663": 123,
        "12664": 254,
        "12665": 210,
        "12666": 198,
        "12667": 214,
        "12668": 156,
        "12669": 214,
        "12670": 50,
        "12671": 150,
        "12672": 16,
        "12673": 126,
        "12674": 245,
        "12675": 212,
        "12676": 207,
        "12677": 182,
        "12678": 206,
        "12679": 157,
        "12680": 9,
        "12681": 84,
        "12682": 213,
        "12683": 96,
        "12684": 89,
        "12685": 46,
        "12686": 204,
        "12687": 208,
        "12688": 102,
        "12689": 78,
        "12690": 102,
        "12691": 31,
        "12692": 197,
        "12693": 143,
        "12694": 250,
        "12695": 192,
        "12696": 228,
        "12697": 96,
        "12698": 242,
        "12699": 170,
        "12700": 162,
        "12701": 185,
        "12702": 39,
        "12703": 47,
        "12704": 238,
        "12705": 195,
        "12706": 100,
        "12707": 255,
        "12708": 197,
        "12709": 223,
        "12710": 212,
        "12711": 123,
        "12712": 134,
        "12713": 203,
        "12714": 19,
        "12715": 240,
        "12716": 55,
        "12717": 115,
        "12718": 68,
        "12719": 221,
        "12720": 185,
        "12721": 194,
        "12722": 33,
        "12723": 203,
        "12724": 40,
        "12725": 116,
        "12726": 84,
        "12727": 53,
        "12728": 127,
        "12729": 48,
        "12730": 226,
        "12731": 131,
        "12732": 175,
        "12733": 82,
        "12734": 18,
        "12735": 54,
        "12736": 162,
        "12737": 44,
        "12738": 69,
        "12739": 184,
        "12740": 37,
        "12741": 109,
        "12742": 158,
        "12743": 84,
        "12744": 202,
        "12745": 116,
        "12746": 20,
        "12747": 93,
        "12748": 126,
        "12749": 149,
        "12750": 185,
        "12751": 188,
        "12752": 37,
        "12753": 51,
        "12754": 180,
        "12755": 120,
        "12756": 210,
        "12757": 70,
        "12758": 161,
        "12759": 69,
        "12760": 35,
        "12761": 156,
        "12762": 124,
        "12763": 113,
        "12764": 128,
        "12765": 231,
        "12766": 40,
        "12767": 219,
        "12768": 55,
        "12769": 160,
        "12770": 172,
        "12771": 107,
        "12772": 106,
        "12773": 19,
        "12774": 81,
        "12775": 66,
        "12776": 93,
        "12777": 79,
        "12778": 207,
        "12779": 114,
        "12780": 83,
        "12781": 94,
        "12782": 54,
        "12783": 207,
        "12784": 37,
        "12785": 247,
        "12786": 254,
        "12787": 32,
        "12788": 211,
        "12789": 5,
        "12790": 214,
        "12791": 169,
        "12792": 166,
        "12793": 246,
        "12794": 65,
        "12795": 227,
        "12796": 157,
        "12797": 149,
        "12798": 64,
        "12799": 59,
        "12800": 239,
        "12801": 53,
        "12802": 29,
        "12803": 26,
        "12804": 155,
        "12805": 169,
        "12806": 241,
        "12807": 168,
        "12808": 126,
        "12809": 36,
        "12810": 191,
        "12811": 100,
        "12812": 190,
        "12813": 209,
        "12814": 184,
        "12815": 146,
        "12816": 93,
        "12817": 247,
        "12818": 105,
        "12819": 48,
        "12820": 40,
        "12821": 93,
        "12822": 165,
        "12823": 239,
        "12824": 186,
        "12825": 228,
        "12826": 71,
        "12827": 1,
        "12828": 150,
        "12829": 89,
        "12830": 160,
        "12831": 149,
        "12832": 32,
        "12833": 242,
        "12834": 63,
        "12835": 89,
        "12836": 254,
        "12837": 194,
        "12838": 54,
        "12839": 186,
        "12840": 153,
        "12841": 195,
        "12842": 85,
        "12843": 50,
        "12844": 90,
        "12845": 49,
        "12846": 161,
        "12847": 80,
        "12848": 216,
        "12849": 189,
        "12850": 177,
        "12851": 180,
        "12852": 0,
        "12853": 43,
        "12854": 89,
        "12855": 2,
        "12856": 200,
        "12857": 74,
        "12858": 110,
        "12859": 35,
        "12860": 165,
        "12861": 219,
        "12862": 54,
        "12863": 178,
        "12864": 30,
        "12865": 107,
        "12866": 157,
        "12867": 7,
        "12868": 246,
        "12869": 56,
        "12870": 223,
        "12871": 32,
        "12872": 95,
        "12873": 120,
        "12874": 191,
        "12875": 72,
        "12876": 3,
        "12877": 110,
        "12878": 11,
        "12879": 244,
        "12880": 169,
        "12881": 20,
        "12882": 11,
        "12883": 95,
        "12884": 43,
        "12885": 128,
        "12886": 66,
        "12887": 53,
        "12888": 118,
        "12889": 42,
        "12890": 196,
        "12891": 47,
        "12892": 57,
        "12893": 52,
        "12894": 134,
        "12895": 94,
        "12896": 161,
        "12897": 220,
        "12898": 114,
        "12899": 137,
        "12900": 105,
        "12901": 89,
        "12902": 146,
        "12903": 213,
        "12904": 245,
        "12905": 148,
        "12906": 94,
        "12907": 2,
        "12908": 117,
        "12909": 12,
        "12910": 124,
        "12911": 162,
        "12912": 64,
        "12913": 174,
        "12914": 230,
        "12915": 72,
        "12916": 94,
        "12917": 99,
        "12918": 127,
        "12919": 61,
        "12920": 50,
        "12921": 38,
        "12922": 46,
        "12923": 95,
        "12924": 165,
        "12925": 62,
        "12926": 38,
        "12927": 122,
        "12928": 37,
        "12929": 178,
        "12930": 28,
        "12931": 142,
        "12932": 64,
        "12933": 105,
        "12934": 70,
        "12935": 129,
        "12936": 107,
        "12937": 98,
        "12938": 38,
        "12939": 208,
        "12940": 191,
        "12941": 104,
        "12942": 209,
        "12943": 151,
        "12944": 92,
        "12945": 224,
        "12946": 241,
        "12947": 230,
        "12948": 225,
        "12949": 97,
        "12950": 186,
        "12951": 196,
        "12952": 114,
        "12953": 61,
        "12954": 106,
        "12955": 17,
        "12956": 184,
        "12957": 18,
        "12958": 126,
        "12959": 229,
        "12960": 143,
        "12961": 159,
        "12962": 29,
        "12963": 208,
        "12964": 155,
        "12965": 96,
        "12966": 77,
        "12967": 51,
        "12968": 62,
        "12969": 177,
        "12970": 186,
        "12971": 118,
        "12972": 59,
        "12973": 18,
        "12974": 136,
        "12975": 143,
        "12976": 19,
        "12977": 137,
        "12978": 229,
        "12979": 6,
        "12980": 144,
        "12981": 133,
        "12982": 86,
        "12983": 90,
        "12984": 195,
        "12985": 72,
        "12986": 0,
        "12987": 174,
        "12988": 139,
        "12989": 6,
        "12990": 54,
        "12991": 8,
        "12992": 148,
        "12993": 226,
        "12994": 86,
        "12995": 164,
        "12996": 71,
        "12997": 0,
        "12998": 107,
        "12999": 247,
        "13000": 238,
        "13001": 156,
        "13002": 103,
        "13003": 11,
        "13004": 204,
        "13005": 173,
        "13006": 192,
        "13007": 221,
        "13008": 72,
        "13009": 239,
        "13010": 149,
        "13011": 153,
        "13012": 111,
        "13013": 5,
        "13014": 249,
        "13015": 207,
        "13016": 21,
        "13017": 250,
        "13018": 253,
        "13019": 176,
        "13020": 75,
        "13021": 56,
        "13022": 20,
        "13023": 86,
        "13024": 204,
        "13025": 21,
        "13026": 177,
        "13027": 102,
        "13028": 91,
        "13029": 131,
        "13030": 137,
        "13031": 176,
        "13032": 78,
        "13033": 56,
        "13034": 160,
        "13035": 55,
        "13036": 22,
        "13037": 206,
        "13038": 242,
        "13039": 236,
        "13040": 10,
        "13041": 16,
        "13042": 9,
        "13043": 172,
        "13044": 119,
        "13045": 115,
        "13046": 146,
        "13047": 218,
        "13048": 94,
        "13049": 21,
        "13050": 113,
        "13051": 218,
        "13052": 179,
        "13053": 186,
        "13054": 7,
        "13055": 45,
        "13056": 16,
        "13057": 201,
        "13058": 113,
        "13059": 29,
        "13060": 208,
        "13061": 212,
        "13062": 14,
        "13063": 41,
        "13064": 221,
        "13065": 185,
        "13066": 215,
        "13067": 152,
        "13068": 29,
        "13069": 213,
        "13070": 51,
        "13071": 247,
        "13072": 102,
        "13073": 163,
        "13074": 98,
        "13075": 29,
        "13076": 177,
        "13077": 155,
        "13078": 27,
        "13079": 3,
        "13080": 82,
        "13081": 54,
        "13082": 227,
        "13083": 220,
        "13084": 240,
        "13085": 102,
        "13086": 182,
        "13087": 155,
        "13088": 37,
        "13089": 164,
        "13090": 58,
        "13091": 17,
        "13092": 22,
        "13093": 196,
        "13094": 29,
        "13095": 72,
        "13096": 58,
        "13097": 157,
        "13098": 90,
        "13099": 159,
        "13100": 47,
        "13101": 253,
        "13102": 234,
        "13103": 22,
        "13104": 75,
        "13105": 86,
        "13106": 169,
        "13107": 89,
        "13108": 100,
        "13109": 137,
        "13110": 233,
        "13111": 101,
        "13112": 225,
        "13113": 97,
        "13114": 245,
        "13115": 68,
        "13116": 10,
        "13117": 3,
        "13118": 226,
        "13119": 216,
        "13120": 2,
        "13121": 94,
        "13122": 135,
        "13123": 144,
        "13124": 93,
        "13125": 192,
        "13126": 154,
        "13127": 185,
        "13128": 172,
        "13129": 141,
        "13130": 167,
        "13131": 109,
        "13132": 44,
        "13133": 34,
        "13134": 236,
        "13135": 70,
        "13136": 111,
        "13137": 166,
        "13138": 55,
        "13139": 135,
        "13140": 125,
        "13141": 178,
        "13142": 225,
        "13143": 196,
        "13144": 1,
        "13145": 76,
        "13146": 123,
        "13147": 74,
        "13148": 62,
        "13149": 30,
        "13150": 237,
        "13151": 100,
        "13152": 167,
        "13153": 229,
        "13154": 201,
        "13155": 156,
        "13156": 146,
        "13157": 248,
        "13158": 158,
        "13159": 192,
        "13160": 45,
        "13161": 13,
        "13162": 89,
        "13163": 27,
        "13164": 242,
        "13165": 208,
        "13166": 155,
        "13167": 54,
        "13168": 133,
        "13169": 49,
        "13170": 95,
        "13171": 137,
        "13172": 87,
        "13173": 81,
        "13174": 87,
        "13175": 45,
        "13176": 166,
        "13177": 50,
        "13178": 239,
        "13179": 128,
        "13180": 114,
        "13181": 235,
        "13182": 198,
        "13183": 154,
        "13184": 214,
        "13185": 66,
        "13186": 230,
        "13187": 153,
        "13188": 37,
        "13189": 228,
        "13190": 99,
        "13191": 255,
        "13192": 128,
        "13193": 158,
        "13194": 214,
        "13195": 208,
        "13196": 192,
        "13197": 193,
        "13198": 85,
        "13199": 91,
        "13200": 135,
        "13201": 11,
        "13202": 223,
        "13203": 151,
        "13204": 178,
        "13205": 126,
        "13206": 187,
        "13207": 220,
        "13208": 159,
        "13209": 167,
        "13210": 173,
        "13211": 140,
        "13212": 107,
        "13213": 242,
        "13214": 58,
        "13215": 22,
        "13216": 57,
        "13217": 247,
        "13218": 34,
        "13219": 173,
        "13220": 93,
        "13221": 184,
        "13222": 160,
        "13223": 198,
        "13224": 162,
        "13225": 241,
        "13226": 69,
        "13227": 185,
        "13228": 132,
        "13229": 85,
        "13230": 4,
        "13231": 124,
        "13232": 163,
        "13233": 115,
        "13234": 127,
        "13235": 19,
        "13236": 160,
        "13237": 163,
        "13238": 163,
        "13239": 66,
        "13240": 231,
        "13241": 130,
        "13242": 244,
        "13243": 99,
        "13244": 3,
        "13245": 249,
        "13246": 123,
        "13247": 138,
        "13248": 115,
        "13249": 60,
        "13250": 36,
        "13251": 93,
        "13252": 34,
        "13253": 236,
        "13254": 173,
        "13255": 255,
        "13256": 153,
        "13257": 206,
        "13258": 254,
        "13259": 159,
        "13260": 233,
        "13261": 55,
        "13262": 232,
        "13263": 222,
        "13264": 195,
        "13265": 225,
        "13266": 178,
        "13267": 175,
        "13268": 148,
        "13269": 244,
        "13270": 93,
        "13271": 209,
        "13272": 129,
        "13273": 67,
        "13274": 49,
        "13275": 31,
        "13276": 95,
        "13277": 51,
        "13278": 153,
        "13279": 30,
        "13280": 78,
        "13281": 65,
        "13282": 79,
        "13283": 130,
        "13284": 237,
        "13285": 194,
        "13286": 124,
        "13287": 172,
        "13288": 249,
        "13289": 90,
        "13290": 119,
        "13291": 58,
        "13292": 95,
        "13293": 85,
        "13294": 159,
        "13295": 45,
        "13296": 132,
        "13297": 229,
        "13298": 170,
        "13299": 131,
        "13300": 83,
        "13301": 77,
        "13302": 9,
        "13303": 53,
        "13304": 30,
        "13305": 90,
        "13306": 41,
        "13307": 119,
        "13308": 227,
        "13309": 16,
        "13310": 127,
        "13311": 192,
        "13312": 217,
        "13313": 73,
        "13314": 87,
        "13315": 91,
        "13316": 57,
        "13317": 132,
        "13318": 1,
        "13319": 171,
        "13320": 47,
        "13321": 48,
        "13322": 45,
        "13323": 169,
        "13324": 63,
        "13325": 205,
        "13326": 214,
        "13327": 20,
        "13328": 35,
        "13329": 59,
        "13330": 217,
        "13331": 137,
        "13332": 83,
        "13333": 102,
        "13334": 73,
        "13335": 138,
        "13336": 250,
        "13337": 106,
        "13338": 71,
        "13339": 184,
        "13340": 154,
        "13341": 178,
        "13342": 93,
        "13343": 255,
        "13344": 103,
        "13345": 211,
        "13346": 209,
        "13347": 36,
        "13348": 49,
        "13349": 242,
        "13350": 185,
        "13351": 100,
        "13352": 214,
        "13353": 38,
        "13354": 174,
        "13355": 126,
        "13356": 247,
        "13357": 69,
        "13358": 240,
        "13359": 114,
        "13360": 52,
        "13361": 136,
        "13362": 178,
        "13363": 154,
        "13364": 104,
        "13365": 129,
        "13366": 173,
        "13367": 249,
        "13368": 213,
        "13369": 77,
        "13370": 109,
        "13371": 194,
        "13372": 232,
        "13373": 104,
        "13374": 218,
        "13375": 39,
        "13376": 227,
        "13377": 2,
        "13378": 141,
        "13379": 81,
        "13380": 120,
        "13381": 100,
        "13382": 48,
        "13383": 94,
        "13384": 227,
        "13385": 79,
        "13386": 152,
        "13387": 146,
        "13388": 112,
        "13389": 144,
        "13390": 42,
        "13391": 192,
        "13392": 230,
        "13393": 215,
        "13394": 120,
        "13395": 34,
        "13396": 204,
        "13397": 105,
        "13398": 50,
        "13399": 154,
        "13400": 196,
        "13401": 71,
        "13402": 213,
        "13403": 108,
        "13404": 76,
        "13405": 5,
        "13406": 75,
        "13407": 228,
        "13408": 42,
        "13409": 114,
        "13410": 233,
        "13411": 73,
        "13412": 1,
        "13413": 226,
        "13414": 165,
        "13415": 207,
        "13416": 235,
        "13417": 184,
        "13418": 107,
        "13419": 24,
        "13420": 234,
        "13421": 44,
        "13422": 5,
        "13423": 31,
        "13424": 25,
        "13425": 162,
        "13426": 95,
        "13427": 13,
        "13428": 59,
        "13429": 242,
        "13430": 235,
        "13431": 4,
        "13432": 48,
        "13433": 149,
        "13434": 234,
        "13435": 163,
        "13436": 47,
        "13437": 132,
        "13438": 168,
        "13439": 116,
        "13440": 136,
        "13441": 230,
        "13442": 99,
        "13443": 116,
        "13444": 141,
        "13445": 245,
        "13446": 72,
        "13447": 124,
        "13448": 50,
        "13449": 182,
        "13450": 252,
        "13451": 89,
        "13452": 37,
        "13453": 84,
        "13454": 217,
        "13455": 240,
        "13456": 67,
        "13457": 103,
        "13458": 4,
        "13459": 11,
        "13460": 216,
        "13461": 237,
        "13462": 67,
        "13463": 79,
        "13464": 201,
        "13465": 175,
        "13466": 49,
        "13467": 107,
        "13468": 23,
        "13469": 245,
        "13470": 43,
        "13471": 31,
        "13472": 8,
        "13473": 67,
        "13474": 247,
        "13475": 169,
        "13476": 219,
        "13477": 46,
        "13478": 57,
        "13479": 121,
        "13480": 94,
        "13481": 57,
        "13482": 23,
        "13483": 22,
        "13484": 204,
        "13485": 21,
        "13486": 44,
        "13487": 217,
        "13488": 188,
        "13489": 21,
        "13490": 63,
        "13491": 212,
        "13492": 181,
        "13493": 101,
        "13494": 84,
        "13495": 210,
        "13496": 71,
        "13497": 52,
        "13498": 103,
        "13499": 157,
        "13500": 120,
        "13501": 98,
        "13502": 234,
        "13503": 18,
        "13504": 94,
        "13505": 130,
        "13506": 148,
        "13507": 159,
        "13508": 34,
        "13509": 142,
        "13510": 191,
        "13511": 220,
        "13512": 57,
        "13513": 252,
        "13514": 139,
        "13515": 224,
        "13516": 77,
        "13517": 52,
        "13518": 159,
        "13519": 3,
        "13520": 223,
        "13521": 30,
        "13522": 21,
        "13523": 98,
        "13524": 80,
        "13525": 12,
        "13526": 142,
        "13527": 202,
        "13528": 61,
        "13529": 42,
        "13530": 232,
        "13531": 179,
        "13532": 213,
        "13533": 157,
        "13534": 191,
        "13535": 205,
        "13536": 243,
        "13537": 136,
        "13538": 128,
        "13539": 29,
        "13540": 240,
        "13541": 115,
        "13542": 191,
        "13543": 112,
        "13544": 89,
        "13545": 81,
        "13546": 166,
        "13547": 32,
        "13548": 217,
        "13549": 248,
        "13550": 145,
        "13551": 171,
        "13552": 245,
        "13553": 32,
        "13554": 125,
        "13555": 154,
        "13556": 6,
        "13557": 177,
        "13558": 43,
        "13559": 182,
        "13560": 227,
        "13561": 120,
        "13562": 228,
        "13563": 205,
        "13564": 157,
        "13565": 35,
        "13566": 49,
        "13567": 50,
        "13568": 68,
        "13569": 240,
        "13570": 159,
        "13571": 227,
        "13572": 253,
        "13573": 234,
        "13574": 191,
        "13575": 50,
        "13576": 65,
        "13577": 195,
        "13578": 104,
        "13579": 62,
        "13580": 5,
        "13581": 96,
        "13582": 112,
        "13583": 174,
        "13584": 208,
        "13585": 251,
        "13586": 246,
        "13587": 83,
        "13588": 173,
        "13589": 12,
        "13590": 16,
        "13591": 20,
        "13592": 254,
        "13593": 118,
        "13594": 62,
        "13595": 38,
        "13596": 197,
        "13597": 252,
        "13598": 123,
        "13599": 109,
        "13600": 234,
        "13601": 168,
        "13602": 190,
        "13603": 58,
        "13604": 49,
        "13605": 206,
        "13606": 114,
        "13607": 101,
        "13608": 118,
        "13609": 49,
        "13610": 111,
        "13611": 199,
        "13612": 65,
        "13613": 132,
        "13614": 97,
        "13615": 136,
        "13616": 197,
        "13617": 244,
        "13618": 193,
        "13619": 5,
        "13620": 124,
        "13621": 23,
        "13622": 2,
        "13623": 59,
        "13624": 40,
        "13625": 148,
        "13626": 195,
        "13627": 247,
        "13628": 4,
        "13629": 61,
        "13630": 26,
        "13631": 110,
        "13632": 124,
        "13633": 16,
        "13634": 89,
        "13635": 89,
        "13636": 193,
        "13637": 112,
        "13638": 59,
        "13639": 92,
        "13640": 29,
        "13641": 175,
        "13642": 194,
        "13643": 62,
        "13644": 116,
        "13645": 34,
        "13646": 205,
        "13647": 56,
        "13648": 2,
        "13649": 34,
        "13650": 7,
        "13651": 14,
        "13652": 121,
        "13653": 121,
        "13654": 175,
        "13655": 176,
        "13656": 64,
        "13657": 124,
        "13658": 42,
        "13659": 151,
        "13660": 102,
        "13661": 14,
        "13662": 86,
        "13663": 231,
        "13664": 218,
        "13665": 106,
        "13666": 0,
        "13667": 95,
        "13668": 191,
        "13669": 11,
        "13670": 226,
        "13671": 76,
        "13672": 34,
        "13673": 17,
        "13674": 184,
        "13675": 118,
        "13676": 100,
        "13677": 151,
        "13678": 7,
        "13679": 110,
        "13680": 100,
        "13681": 110,
        "13682": 19,
        "13683": 125,
        "13684": 101,
        "13685": 184,
        "13686": 200,
        "13687": 251,
        "13688": 253,
        "13689": 67,
        "13690": 151,
        "13691": 204,
        "13692": 133,
        "13693": 193,
        "13694": 159,
        "13695": 27,
        "13696": 184,
        "13697": 190,
        "13698": 33,
        "13699": 129,
        "13700": 84,
        "13701": 92,
        "13702": 228,
        "13703": 36,
        "13704": 135,
        "13705": 245,
        "13706": 30,
        "13707": 94,
        "13708": 228,
        "13709": 26,
        "13710": 28,
        "13711": 76,
        "13712": 164,
        "13713": 125,
        "13714": 169,
        "13715": 124,
        "13716": 55,
        "13717": 196,
        "13718": 205,
        "13719": 124,
        "13720": 54,
        "13721": 144,
        "13722": 10,
        "13723": 34,
        "13724": 206,
        "13725": 103,
        "13726": 16,
        "13727": 177,
        "13728": 227,
        "13729": 92,
        "13730": 145,
        "13731": 31,
        "13732": 148,
        "13733": 128,
        "13734": 179,
        "13735": 90,
        "13736": 67,
        "13737": 86,
        "13738": 107,
        "13739": 32,
        "13740": 30,
        "13741": 23,
        "13742": 120,
        "13743": 111,
        "13744": 149,
        "13745": 9,
        "13746": 192,
        "13747": 132,
        "13748": 17,
        "13749": 253,
        "13750": 120,
        "13751": 171,
        "13752": 138,
        "13753": 126,
        "13754": 173,
        "13755": 75,
        "13756": 57,
        "13757": 190,
        "13758": 163,
        "13759": 68,
        "13760": 164,
        "13761": 119,
        "13762": 134,
        "13763": 90,
        "13764": 244,
        "13765": 33,
        "13766": 254,
        "13767": 37,
        "13768": 28,
        "13769": 8,
        "13770": 193,
        "13771": 253,
        "13772": 37,
        "13773": 65,
        "13774": 88,
        "13775": 212,
        "13776": 234,
        "13777": 55,
        "13778": 123,
        "13779": 60,
        "13780": 53,
        "13781": 111,
        "13782": 110,
        "13783": 29,
        "13784": 237,
        "13785": 111,
        "13786": 94,
        "13787": 42,
        "13788": 227,
        "13789": 130,
        "13790": 207,
        "13791": 156,
        "13792": 177,
        "13793": 129,
        "13794": 57,
        "13795": 235,
        "13796": 141,
        "13797": 108,
        "13798": 249,
        "13799": 60,
        "13800": 39,
        "13801": 160,
        "13802": 190,
        "13803": 201,
        "13804": 182,
        "13805": 156,
        "13806": 103,
        "13807": 64,
        "13808": 92,
        "13809": 164,
        "13810": 163,
        "13811": 59,
        "13812": 182,
        "13813": 104,
        "13814": 167,
        "13815": 243,
        "13816": 68,
        "13817": 68,
        "13818": 220,
        "13819": 94,
        "13820": 14,
        "13821": 165,
        "13822": 207,
        "13823": 131,
        "13824": 177,
        "13825": 124,
        "13826": 247,
        "13827": 85,
        "13828": 12,
        "13829": 75,
        "13830": 179,
        "13831": 15,
        "13832": 33,
        "13833": 29,
        "13834": 163,
        "13835": 65,
        "13836": 255,
        "13837": 147,
        "13838": 87,
        "13839": 236,
        "13840": 153,
        "13841": 164,
        "13842": 219,
        "13843": 73,
        "13844": 155,
        "13845": 188,
        "13846": 58,
        "13847": 205,
        "13848": 215,
        "13849": 49,
        "13850": 240,
        "13851": 18,
        "13852": 187,
        "13853": 136,
        "13854": 66,
        "13855": 58,
        "13856": 245,
        "13857": 97,
        "13858": 30,
        "13859": 41,
        "13860": 88,
        "13861": 31,
        "13862": 19,
        "13863": 147,
        "13864": 38,
        "13865": 167,
        "13866": 89,
        "13867": 161,
        "13868": 63,
        "13869": 150,
        "13870": 154,
        "13871": 11,
        "13872": 34,
        "13873": 243,
        "13874": 12,
        "13875": 100,
        "13876": 153,
        "13877": 159,
        "13878": 48,
        "13879": 213,
        "13880": 184,
        "13881": 156,
        "13882": 157,
        "13883": 102,
        "13884": 51,
        "13885": 69,
        "13886": 233,
        "13887": 78,
        "13888": 99,
        "13889": 127,
        "13890": 213,
        "13891": 153,
        "13892": 172,
        "13893": 20,
        "13894": 51,
        "13895": 43,
        "13896": 211,
        "13897": 64,
        "13898": 108,
        "13899": 50,
        "13900": 200,
        "13901": 151,
        "13902": 146,
        "13903": 153,
        "13904": 245,
        "13905": 72,
        "13906": 9,
        "13907": 19,
        "13908": 64,
        "13909": 79,
        "13910": 239,
        "13911": 0,
        "13912": 216,
        "13913": 239,
        "13914": 33,
        "13915": 189,
        "13916": 157,
        "13917": 5,
        "13918": 72,
        "13919": 130,
        "13920": 34,
        "13921": 7,
        "13922": 200,
        "13923": 83,
        "13924": 234,
        "13925": 114,
        "13926": 251,
        "13927": 41,
        "13928": 34,
        "13929": 247,
        "13930": 43,
        "13931": 76,
        "13932": 124,
        "13933": 203,
        "13934": 78,
        "13935": 56,
        "13936": 205,
        "13937": 24,
        "13938": 126,
        "13939": 148,
        "13940": 82,
        "13941": 67,
        "13942": 37,
        "13943": 66,
        "13944": 167,
        "13945": 254,
        "13946": 44,
        "13947": 106,
        "13948": 253,
        "13949": 16,
        "13950": 173,
        "13951": 171,
        "13952": 199,
        "13953": 11,
        "13954": 254,
        "13955": 184,
        "13956": 206,
        "13957": 150,
        "13958": 205,
        "13959": 21,
        "13960": 71,
        "13961": 119,
        "13962": 160,
        "13963": 166,
        "13964": 12,
        "13965": 36,
        "13966": 140,
        "13967": 56,
        "13968": 128,
        "13969": 194,
        "13970": 231,
        "13971": 123,
        "13972": 40,
        "13973": 118,
        "13974": 168,
        "13975": 218,
        "13976": 173,
        "13977": 147,
        "13978": 102,
        "13979": 41,
        "13980": 122,
        "13981": 64,
        "13982": 77,
        "13983": 172,
        "13984": 230,
        "13985": 61,
        "13986": 29,
        "13987": 237,
        "13988": 190,
        "13989": 215,
        "13990": 204,
        "13991": 113,
        "13992": 178,
        "13993": 124,
        "13994": 157,
        "13995": 140,
        "13996": 35,
        "13997": 234,
        "13998": 178,
        "13999": 28,
        "14000": 106,
        "14001": 45,
        "14002": 255,
        "14003": 229,
        "14004": 207,
        "14005": 103,
        "14006": 159,
        "14007": 242,
        "14008": 38,
        "14009": 87,
        "14010": 183,
        "14011": 7,
        "14012": 4,
        "14013": 119,
        "14014": 106,
        "14015": 216,
        "14016": 173,
        "14017": 209,
        "14018": 91,
        "14019": 118,
        "14020": 112,
        "14021": 117,
        "14022": 154,
        "14023": 41,
        "14024": 105,
        "14025": 188,
        "14026": 251,
        "14027": 6,
        "14028": 246,
        "14029": 65,
        "14030": 206,
        "14031": 103,
        "14032": 139,
        "14033": 11,
        "14034": 23,
        "14035": 50,
        "14036": 174,
        "14037": 167,
        "14038": 72,
        "14039": 86,
        "14040": 201,
        "14041": 36,
        "14042": 75,
        "14043": 199,
        "14044": 128,
        "14045": 227,
        "14046": 248,
        "14047": 44,
        "14048": 7,
        "14049": 156,
        "14050": 162,
        "14051": 156,
        "14052": 178,
        "14053": 125,
        "14054": 142,
        "14055": 136,
        "14056": 159,
        "14057": 41,
        "14058": 103,
        "14059": 98,
        "14060": 75,
        "14061": 233,
        "14062": 194,
        "14063": 9,
        "14064": 30,
        "14065": 241,
        "14066": 155,
        "14067": 71,
        "14068": 73,
        "14069": 87,
        "14070": 129,
        "14071": 41,
        "14072": 83,
        "14073": 226,
        "14074": 156,
        "14075": 125,
        "14076": 70,
        "14077": 64,
        "14078": 75,
        "14079": 204,
        "14080": 253,
        "14081": 2,
        "14082": 30,
        "14083": 90,
        "14084": 78,
        "14085": 181,
        "14086": 32,
        "14087": 18,
        "14088": 180,
        "14089": 225,
        "14090": 21,
        "14091": 230,
        "14092": 172,
        "14093": 145,
        "14094": 146,
        "14095": 223,
        "14096": 93,
        "14097": 167,
        "14098": 13,
        "14099": 191,
        "14100": 42,
        "14101": 24,
        "14102": 40,
        "14103": 151,
        "14104": 50,
        "14105": 166,
        "14106": 64,
        "14107": 211,
        "14108": 81,
        "14109": 36,
        "14110": 240,
        "14111": 77,
        "14112": 165,
        "14113": 168,
        "14114": 37,
        "14115": 186,
        "14116": 3,
        "14117": 251,
        "14118": 148,
        "14119": 144,
        "14120": 159,
        "14121": 49,
        "14122": 24,
        "14123": 64,
        "14124": 118,
        "14125": 158,
        "14126": 85,
        "14127": 249,
        "14128": 198,
        "14129": 233,
        "14130": 178,
        "14131": 253,
        "14132": 115,
        "14133": 37,
        "14134": 58,
        "14135": 173,
        "14136": 253,
        "14137": 29,
        "14138": 13,
        "14139": 189,
        "14140": 226,
        "14141": 195,
        "14142": 6,
        "14143": 154,
        "14144": 136,
        "14145": 207,
        "14146": 138,
        "14147": 6,
        "14148": 50,
        "14149": 214,
        "14150": 141,
        "14151": 240,
        "14152": 202,
        "14153": 224,
        "14154": 252,
        "14155": 245,
        "14156": 62,
        "14157": 82,
        "14158": 13,
        "14159": 26,
        "14160": 74,
        "14161": 108,
        "14162": 172,
        "14163": 33,
        "14164": 186,
        "14165": 184,
        "14166": 178,
        "14167": 99,
        "14168": 182,
        "14169": 209,
        "14170": 65,
        "14171": 53,
        "14172": 166,
        "14173": 138,
        "14174": 17,
        "14175": 184,
        "14176": 9,
        "14177": 50,
        "14178": 136,
        "14179": 88,
        "14180": 138,
        "14181": 244,
        "14182": 122,
        "14183": 235,
        "14184": 0,
        "14185": 122,
        "14186": 206,
        "14187": 23,
        "14188": 37,
        "14189": 54,
        "14190": 162,
        "14191": 237,
        "14192": 198,
        "14193": 170,
        "14194": 55,
        "14195": 236,
        "14196": 246,
        "14197": 245,
        "14198": 89,
        "14199": 84,
        "14200": 223,
        "14201": 55,
        "14202": 76,
        "14203": 22,
        "14204": 2,
        "14205": 249,
        "14206": 205,
        "14207": 238,
        "14208": 204,
        "14209": 58,
        "14210": 97,
        "14211": 207,
        "14212": 92,
        "14213": 184,
        "14214": 137,
        "14215": 208,
        "14216": 233,
        "14217": 55,
        "14218": 16,
        "14219": 139,
        "14220": 176,
        "14221": 188,
        "14222": 91,
        "14223": 2,
        "14224": 32,
        "14225": 59,
        "14226": 50,
        "14227": 52,
        "14228": 58,
        "14229": 70,
        "14230": 22,
        "14231": 125,
        "14232": 187,
        "14233": 88,
        "14234": 76,
        "14235": 33,
        "14236": 70,
        "14237": 50,
        "14238": 129,
        "14239": 170,
        "14240": 127,
        "14241": 80,
        "14242": 245,
        "14243": 113,
        "14244": 21,
        "14245": 39,
        "14246": 65,
        "14247": 165,
        "14248": 64,
        "14249": 185,
        "14250": 118,
        "14251": 77,
        "14252": 31,
        "14253": 160,
        "14254": 131,
        "14255": 99,
        "14256": 165,
        "14257": 184,
        "14258": 43,
        "14259": 159,
        "14260": 255,
        "14261": 227,
        "14262": 183,
        "14263": 113,
        "14264": 110,
        "14265": 229,
        "14266": 231,
        "14267": 184,
        "14268": 116,
        "14269": 149,
        "14270": 13,
        "14271": 144,
        "14272": 107,
        "14273": 114,
        "14274": 175,
        "14275": 137,
        "14276": 90,
        "14277": 147,
        "14278": 15,
        "14279": 206,
        "14280": 234,
        "14281": 201,
        "14282": 12,
        "14283": 1,
        "14284": 89,
        "14285": 69,
        "14286": 43,
        "14287": 97,
        "14288": 146,
        "14289": 96,
        "14290": 171,
        "14291": 203,
        "14292": 155,
        "14293": 7,
        "14294": 218,
        "14295": 235,
        "14296": 228,
        "14297": 214,
        "14298": 127,
        "14299": 89,
        "14300": 51,
        "14301": 189,
        "14302": 108,
        "14303": 247,
        "14304": 58,
        "14305": 65,
        "14306": 129,
        "14307": 158,
        "14308": 105,
        "14309": 89,
        "14310": 216,
        "14311": 146,
        "14312": 204,
        "14313": 39,
        "14314": 40,
        "14315": 54,
        "14316": 211,
        "14317": 152,
        "14318": 207,
        "14319": 119,
        "14320": 40,
        "14321": 58,
        "14322": 190,
        "14323": 207,
        "14324": 57,
        "14325": 117,
        "14326": 105,
        "14327": 93,
        "14328": 104,
        "14329": 197,
        "14330": 116,
        "14331": 200,
        "14332": 139,
        "14333": 160,
        "14334": 137,
        "14335": 8,
        "14336": 151,
        "14337": 93,
        "14338": 175,
        "14339": 243,
        "14340": 96,
        "14341": 3,
        "14342": 122,
        "14343": 251,
        "14344": 229,
        "14345": 213,
        "14346": 208,
        "14347": 156,
        "14348": 62,
        "14349": 19,
        "14350": 228,
        "14351": 102,
        "14352": 164,
        "14353": 37,
        "14354": 45,
        "14355": 146,
        "14356": 29,
        "14357": 5,
        "14358": 127,
        "14359": 32,
        "14360": 201,
        "14361": 197,
        "14362": 246,
        "14363": 191,
        "14364": 13,
        "14365": 211,
        "14366": 246,
        "14367": 99,
        "14368": 252,
        "14369": 223,
        "14370": 68,
        "14371": 123,
        "14372": 1,
        "14373": 211,
        "14374": 241,
        "14375": 136,
        "14376": 119,
        "14377": 248,
        "14378": 197,
        "14379": 83,
        "14380": 64,
        "14381": 38,
        "14382": 243,
        "14383": 171,
        "14384": 23,
        "14385": 16,
        "14386": 88,
        "14387": 233,
        "14388": 149,
        "14389": 190,
        "14390": 249,
        "14391": 166,
        "14392": 211,
        "14393": 159,
        "14394": 41,
        "14395": 12,
        "14396": 214,
        "14397": 53,
        "14398": 208,
        "14399": 207,
        "14400": 4,
        "14401": 138,
        "14402": 229,
        "14403": 64,
        "14404": 42,
        "14405": 23,
        "14406": 205,
        "14407": 89,
        "14408": 151,
        "14409": 153,
        "14410": 163,
        "14411": 108,
        "14412": 136,
        "14413": 215,
        "14414": 161,
        "14415": 21,
        "14416": 133,
        "14417": 42,
        "14418": 88,
        "14419": 35,
        "14420": 70,
        "14421": 196,
        "14422": 199,
        "14423": 215,
        "14424": 190,
        "14425": 205,
        "14426": 241,
        "14427": 132,
        "14428": 38,
        "14429": 73,
        "14430": 129,
        "14431": 151,
        "14432": 185,
        "14433": 20,
        "14434": 108,
        "14435": 183,
        "14436": 105,
        "14437": 197,
        "14438": 49,
        "14439": 88,
        "14440": 24,
        "14441": 147,
        "14442": 133,
        "14443": 63,
        "14444": 184,
        "14445": 89,
        "14446": 79,
        "14447": 131,
        "14448": 172,
        "14449": 91,
        "14450": 64,
        "14451": 212,
        "14452": 60,
        "14453": 177,
        "14454": 147,
        "14455": 246,
        "14456": 97,
        "14457": 32,
        "14458": 137,
        "14459": 215,
        "14460": 54,
        "14461": 204,
        "14462": 163,
        "14463": 33,
        "14464": 119,
        "14465": 215,
        "14466": 237,
        "14467": 232,
        "14468": 42,
        "14469": 36,
        "14470": 112,
        "14471": 125,
        "14472": 190,
        "14473": 140,
        "14474": 212,
        "14475": 198,
        "14476": 139,
        "14477": 213,
        "14478": 221,
        "14479": 61,
        "14480": 94,
        "14481": 104,
        "14482": 39,
        "14483": 120,
        "14484": 117,
        "14485": 163,
        "14486": 12,
        "14487": 182,
        "14488": 140,
        "14489": 73,
        "14490": 238,
        "14491": 79,
        "14492": 182,
        "14493": 199,
        "14494": 101,
        "14495": 143,
        "14496": 17,
        "14497": 24,
        "14498": 110,
        "14499": 45,
        "14500": 4,
        "14501": 230,
        "14502": 145,
        "14503": 187,
        "14504": 153,
        "14505": 192,
        "14506": 148,
        "14507": 216,
        "14508": 121,
        "14509": 247,
        "14510": 62,
        "14511": 162,
        "14512": 210,
        "14513": 250,
        "14514": 110,
        "14515": 241,
        "14516": 189,
        "14517": 110,
        "14518": 115,
        "14519": 10,
        "14520": 153,
        "14521": 103,
        "14522": 77,
        "14523": 173,
        "14524": 146,
        "14525": 16,
        "14526": 60,
        "14527": 48,
        "14528": 96,
        "14529": 86,
        "14530": 7,
        "14531": 61,
        "14532": 123,
        "14533": 19,
        "14534": 198,
        "14535": 102,
        "14536": 248,
        "14537": 96,
        "14538": 42,
        "14539": 153,
        "14540": 97,
        "14541": 42,
        "14542": 209,
        "14543": 7,
        "14544": 155,
        "14545": 170,
        "14546": 116,
        "14547": 205,
        "14548": 213,
        "14549": 40,
        "14550": 241,
        "14551": 19,
        "14552": 180,
        "14553": 125,
        "14554": 227,
        "14555": 32,
        "14556": 69,
        "14557": 206,
        "14558": 103,
        "14559": 59,
        "14560": 111,
        "14561": 142,
        "14562": 71,
        "14563": 4,
        "14564": 135,
        "14565": 236,
        "14566": 198,
        "14567": 80,
        "14568": 103,
        "14569": 186,
        "14570": 175,
        "14571": 249,
        "14572": 145,
        "14573": 95,
        "14574": 130,
        "14575": 36,
        "14576": 28,
        "14577": 114,
        "14578": 21,
        "14579": 66,
        "14580": 143,
        "14581": 40,
        "14582": 199,
        "14583": 172,
        "14584": 106,
        "14585": 242,
        "14586": 100,
        "14587": 148,
        "14588": 53,
        "14589": 141,
        "14590": 64,
        "14591": 213,
        "14592": 177,
        "14593": 140,
        "14594": 120,
        "14595": 111,
        "14596": 170,
        "14597": 157,
        "14598": 211,
        "14599": 198,
        "14600": 101,
        "14601": 55,
        "14602": 217,
        "14603": 31,
        "14604": 223,
        "14605": 159,
        "14606": 149,
        "14607": 208,
        "14608": 107,
        "14609": 110,
        "14610": 249,
        "14611": 167,
        "14612": 255,
        "14613": 233,
        "14614": 157,
        "14615": 40,
        "14616": 139,
        "14617": 155,
        "14618": 222,
        "14619": 2,
        "14620": 224,
        "14621": 193,
        "14622": 155,
        "14623": 117,
        "14624": 199,
        "14625": 72,
        "14626": 100,
        "14627": 95,
        "14628": 94,
        "14629": 225,
        "14630": 83,
        "14631": 233,
        "14632": 105,
        "14633": 168,
        "14634": 214,
        "14635": 22,
        "14636": 6,
        "14637": 0,
        "14638": 116,
        "14639": 66,
        "14640": 181,
        "14641": 205,
        "14642": 55,
        "14643": 89,
        "14644": 57,
        "14645": 99,
        "14646": 124,
        "14647": 251,
        "14648": 56,
        "14649": 136,
        "14650": 93,
        "14651": 236,
        "14652": 223,
        "14653": 217,
        "14654": 64,
        "14655": 113,
        "14656": 246,
        "14657": 202,
        "14658": 35,
        "14659": 252,
        "14660": 45,
        "14661": 24,
        "14662": 174,
        "14663": 103,
        "14664": 19,
        "14665": 57,
        "14666": 166,
        "14667": 70,
        "14668": 43,
        "14669": 253,
        "14670": 33,
        "14671": 253,
        "14672": 83,
        "14673": 138,
        "14674": 115,
        "14675": 73,
        "14676": 173,
        "14677": 20,
        "14678": 243,
        "14679": 30,
        "14680": 199,
        "14681": 82,
        "14682": 148,
        "14683": 51,
        "14684": 183,
        "14685": 36,
        "14686": 49,
        "14687": 23,
        "14688": 205,
        "14689": 61,
        "14690": 69,
        "14691": 108,
        "14692": 90,
        "14693": 10,
        "14694": 150,
        "14695": 38,
        "14696": 65,
        "14697": 205,
        "14698": 22,
        "14699": 237,
        "14700": 50,
        "14701": 20,
        "14702": 234,
        "14703": 116,
        "14704": 242,
        "14705": 230,
        "14706": 37,
        "14707": 137,
        "14708": 181,
        "14709": 158,
        "14710": 156,
        "14711": 30,
        "14712": 100,
        "14713": 109,
        "14714": 37,
        "14715": 218,
        "14716": 38,
        "14717": 81,
        "14718": 105,
        "14719": 82,
        "14720": 140,
        "14721": 193,
        "14722": 228,
        "14723": 111,
        "14724": 101,
        "14725": 73,
        "14726": 57,
        "14727": 225,
        "14728": 63,
        "14729": 39,
        "14730": 211,
        "14731": 114,
        "14732": 23,
        "14733": 67,
        "14734": 56,
        "14735": 229,
        "14736": 166,
        "14737": 239,
        "14738": 73,
        "14739": 27,
        "14740": 157,
        "14741": 225,
        "14742": 199,
        "14743": 254,
        "14744": 172,
        "14745": 144,
        "14746": 92,
        "14747": 111,
        "14748": 28,
        "14749": 186,
        "14750": 246,
        "14751": 251,
        "14752": 118,
        "14753": 91,
        "14754": 127,
        "14755": 159,
        "14756": 16,
        "14757": 85,
        "14758": 173,
        "14759": 7,
        "14760": 33,
        "14761": 46,
        "14762": 132,
        "14763": 172,
        "14764": 8,
        "14765": 155,
        "14766": 25,
        "14767": 143,
        "14768": 70,
        "14769": 171,
        "14770": 244,
        "14771": 81,
        "14772": 63,
        "14773": 232,
        "14774": 106,
        "14775": 235,
        "14776": 68,
        "14777": 213,
        "14778": 70,
        "14779": 253,
        "14780": 223,
        "14781": 18,
        "14782": 131,
        "14783": 133,
        "14784": 121,
        "14785": 248,
        "14786": 205,
        "14787": 224,
        "14788": 215,
        "14789": 15,
        "14790": 142,
        "14791": 149,
        "14792": 251,
        "14793": 10,
        "14794": 126,
        "14795": 94,
        "14796": 175,
        "14797": 171,
        "14798": 13,
        "14799": 186,
        "14800": 163,
        "14801": 221,
        "14802": 173,
        "14803": 34,
        "14804": 180,
        "14805": 153,
        "14806": 14,
        "14807": 146,
        "14808": 33,
        "14809": 3,
        "14810": 91,
        "14811": 84,
        "14812": 15,
        "14813": 181,
        "14814": 176,
        "14815": 38,
        "14816": 122,
        "14817": 147,
        "14818": 110,
        "14819": 51,
        "14820": 76,
        "14821": 126,
        "14822": 118,
        "14823": 235,
        "14824": 146,
        "14825": 84,
        "14826": 224,
        "14827": 126,
        "14828": 12,
        "14829": 194,
        "14830": 144,
        "14831": 110,
        "14832": 171,
        "14833": 119,
        "14834": 35,
        "14835": 228,
        "14836": 97,
        "14837": 253,
        "14838": 87,
        "14839": 216,
        "14840": 58,
        "14841": 68,
        "14842": 245,
        "14843": 246,
        "14844": 61,
        "14845": 245,
        "14846": 231,
        "14847": 147,
        "14848": 12,
        "14849": 29,
        "14850": 14,
        "14851": 90,
        "14852": 64,
        "14853": 191,
        "14854": 79,
        "14855": 178,
        "14856": 151,
        "14857": 223,
        "14858": 233,
        "14859": 133,
        "14860": 81,
        "14861": 110,
        "14862": 32,
        "14863": 227,
        "14864": 149,
        "14865": 108,
        "14866": 103,
        "14867": 49,
        "14868": 38,
        "14869": 158,
        "14870": 105,
        "14871": 162,
        "14872": 48,
        "14873": 201,
        "14874": 66,
        "14875": 175,
        "14876": 81,
        "14877": 226,
        "14878": 44,
        "14879": 251,
        "14880": 45,
        "14881": 100,
        "14882": 222,
        "14883": 201,
        "14884": 3,
        "14885": 139,
        "14886": 153,
        "14887": 242,
        "14888": 231,
        "14889": 250,
        "14890": 10,
        "14891": 210,
        "14892": 63,
        "14893": 249,
        "14894": 211,
        "14895": 248,
        "14896": 242,
        "14897": 178,
        "14898": 254,
        "14899": 229,
        "14900": 155,
        "14901": 198,
        "14902": 172,
        "14903": 113,
        "14904": 252,
        "14905": 225,
        "14906": 61,
        "14907": 121,
        "14908": 221,
        "14909": 36,
        "14910": 121,
        "14911": 125,
        "14912": 191,
        "14913": 207,
        "14914": 207,
        "14915": 247,
        "14916": 197,
        "14917": 245,
        "14918": 85,
        "14919": 66,
        "14920": 36,
        "14921": 155,
        "14922": 126,
        "14923": 246,
        "14924": 168,
        "14925": 24,
        "14926": 102,
        "14927": 83,
        "14928": 3,
        "14929": 188,
        "14930": 220,
        "14931": 224,
        "14932": 189,
        "14933": 107,
        "14934": 185,
        "14935": 108,
        "14936": 222,
        "14937": 178,
        "14938": 156,
        "14939": 190,
        "14940": 90,
        "14941": 14,
        "14942": 222,
        "14943": 22,
        "14944": 228,
        "14945": 235,
        "14946": 211,
        "14947": 210,
        "14948": 129,
        "14949": 241,
        "14950": 27,
        "14951": 51,
        "14952": 228,
        "14953": 232,
        "14954": 210,
        "14955": 91,
        "14956": 10,
        "14957": 171,
        "14958": 95,
        "14959": 199,
        "14960": 250,
        "14961": 244,
        "14962": 189,
        "14963": 98,
        "14964": 30,
        "14965": 7,
        "14966": 247,
        "14967": 235,
        "14968": 154,
        "14969": 118,
        "14970": 73,
        "14971": 245,
        "14972": 238,
        "14973": 113,
        "14974": 10,
        "14975": 154,
        "14976": 203,
        "14977": 232,
        "14978": 241,
        "14979": 200,
        "14980": 196,
        "14981": 90,
        "14982": 26,
        "14983": 6,
        "14984": 233,
        "14985": 179,
        "14986": 190,
        "14987": 172,
        "14988": 82,
        "14989": 199,
        "14990": 156,
        "14991": 160,
        "14992": 100,
        "14993": 34,
        "14994": 146,
        "14995": 44,
        "14996": 121,
        "14997": 43,
        "14998": 233,
        "14999": 201,
        "15000": 85,
        "15001": 123,
        "15002": 197,
        "15003": 156,
        "15004": 85,
        "15005": 189,
        "15006": 2,
        "15007": 70,
        "15008": 129,
        "15009": 220,
        "15010": 68,
        "15011": 133,
        "15012": 77,
        "15013": 235,
        "15014": 36,
        "15015": 78,
        "15016": 124,
        "15017": 15,
        "15018": 193,
        "15019": 49,
        "15020": 202,
        "15021": 202,
        "15022": 98,
        "15023": 126,
        "15024": 86,
        "15025": 217,
        "15026": 157,
        "15027": 127,
        "15028": 110,
        "15029": 165,
        "15030": 53,
        "15031": 237,
        "15032": 74,
        "15033": 70,
        "15034": 47,
        "15035": 108,
        "15036": 200,
        "15037": 186,
        "15038": 251,
        "15039": 130,
        "15040": 181,
        "15041": 114,
        "15042": 200,
        "15043": 246,
        "15044": 70,
        "15045": 244,
        "15046": 224,
        "15047": 135,
        "15048": 5,
        "15049": 180,
        "15050": 52,
        "15051": 226,
        "15052": 216,
        "15053": 171,
        "15054": 177,
        "15055": 39,
        "15056": 87,
        "15057": 49,
        "15058": 64,
        "15059": 201,
        "15060": 137,
        "15061": 181,
        "15062": 96,
        "15063": 119,
        "15064": 103,
        "15065": 10,
        "15066": 164,
        "15067": 54,
        "15068": 122,
        "15069": 10,
        "15070": 223,
        "15071": 221,
        "15072": 62,
        "15073": 200,
        "15074": 229,
        "15075": 91,
        "15076": 83,
        "15077": 141,
        "15078": 211,
        "15079": 83,
        "15080": 77,
        "15081": 153,
        "15082": 7,
        "15083": 18,
        "15084": 13,
        "15085": 44,
        "15086": 246,
        "15087": 2,
        "15088": 174,
        "15089": 54,
        "15090": 242,
        "15091": 41,
        "15092": 137,
        "15093": 6,
        "15094": 244,
        "15095": 187,
        "15096": 189,
        "15097": 172,
        "15098": 132,
        "15099": 165,
        "15100": 205,
        "15101": 84,
        "15102": 7,
        "15103": 137,
        "15104": 105,
        "15105": 12,
        "15106": 3,
        "15107": 181,
        "15108": 185,
        "15109": 138,
        "15110": 235,
        "15111": 140,
        "15112": 12,
        "15113": 103,
        "15114": 4,
        "15115": 74,
        "15116": 148,
        "15117": 184,
        "15118": 175,
        "15119": 150,
        "15120": 84,
        "15121": 147,
        "15122": 202,
        "15123": 173,
        "15124": 221,
        "15125": 172,
        "15126": 246,
        "15127": 63,
        "15128": 19,
        "15129": 18,
        "15130": 86,
        "15131": 21,
        "15132": 138,
        "15133": 154,
        "15134": 168,
        "15135": 203,
        "15136": 182,
        "15137": 190,
        "15138": 232,
        "15139": 222,
        "15140": 116,
        "15141": 126,
        "15142": 112,
        "15143": 150,
        "15144": 174,
        "15145": 52,
        "15146": 184,
        "15147": 224,
        "15148": 46,
        "15149": 207,
        "15150": 146,
        "15151": 243,
        "15152": 142,
        "15153": 226,
        "15154": 173,
        "15155": 5,
        "15156": 210,
        "15157": 192,
        "15158": 201,
        "15159": 27,
        "15160": 212,
        "15161": 50,
        "15162": 128,
        "15163": 127,
        "15164": 125,
        "15165": 166,
        "15166": 63,
        "15167": 173,
        "15168": 111,
        "15169": 231,
        "15170": 109,
        "15171": 52,
        "15172": 101,
        "15173": 255,
        "15174": 176,
        "15175": 117,
        "15176": 134,
        "15177": 168,
        "15178": 152,
        "15179": 104,
        "15180": 37,
        "15181": 143,
        "15182": 169,
        "15183": 157,
        "15184": 150,
        "15185": 48,
        "15186": 235,
        "15187": 151,
        "15188": 196,
        "15189": 210,
        "15190": 18,
        "15191": 49,
        "15192": 196,
        "15193": 122,
        "15194": 39,
        "15195": 30,
        "15196": 231,
        "15197": 37,
        "15198": 251,
        "15199": 233,
        "15200": 53,
        "15201": 26,
        "15202": 116,
        "15203": 197,
        "15204": 155,
        "15205": 185,
        "15206": 18,
        "15207": 235,
        "15208": 236,
        "15209": 30,
        "15210": 233,
        "15211": 90,
        "15212": 127,
        "15213": 205,
        "15214": 165,
        "15215": 242,
        "15216": 171,
        "15217": 8,
        "15218": 8,
        "15219": 233,
        "15220": 119,
        "15221": 113,
        "15222": 232,
        "15223": 20,
        "15224": 234,
        "15225": 195,
        "15226": 54,
        "15227": 16,
        "15228": 15,
        "15229": 65,
        "15230": 205,
        "15231": 128,
        "15232": 48,
        "15233": 211,
        "15234": 79,
        "15235": 122,
        "15236": 43,
        "15237": 206,
        "15238": 245,
        "15239": 194,
        "15240": 172,
        "15241": 168,
        "15242": 44,
        "15243": 52,
        "15244": 39,
        "15245": 100,
        "15246": 202,
        "15247": 184,
        "15248": 30,
        "15249": 94,
        "15250": 172,
        "15251": 34,
        "15252": 184,
        "15253": 0,
        "15254": 33,
        "15255": 184,
        "15256": 75,
        "15257": 76,
        "15258": 61,
        "15259": 72,
        "15260": 89,
        "15261": 171,
        "15262": 238,
        "15263": 68,
        "15264": 162,
        "15265": 240,
        "15266": 64,
        "15267": 86,
        "15268": 147,
        "15269": 167,
        "15270": 148,
        "15271": 118,
        "15272": 250,
        "15273": 248,
        "15274": 1,
        "15275": 74,
        "15276": 251,
        "15277": 7,
        "15278": 152,
        "15279": 169,
        "15280": 105,
        "15281": 121,
        "15282": 65,
        "15283": 24,
        "15284": 53,
        "15285": 180,
        "15286": 32,
        "15287": 47,
        "15288": 139,
        "15289": 90,
        "15290": 87,
        "15291": 176,
        "15292": 233,
        "15293": 166,
        "15294": 241,
        "15295": 243,
        "15296": 241,
        "15297": 119,
        "15298": 15,
        "15299": 40,
        "15300": 33,
        "15301": 26,
        "15302": 11,
        "15303": 172,
        "15304": 16,
        "15305": 42,
        "15306": 40,
        "15307": 119,
        "15308": 70,
        "15309": 32,
        "15310": 243,
        "15311": 201,
        "15312": 234,
        "15313": 127,
        "15314": 27,
        "15315": 145,
        "15316": 212,
        "15317": 157,
        "15318": 121,
        "15319": 165,
        "15320": 137,
        "15321": 141,
        "15322": 134,
        "15323": 30,
        "15324": 117,
        "15325": 134,
        "15326": 233,
        "15327": 217,
        "15328": 156,
        "15329": 222,
        "15330": 210,
        "15331": 67,
        "15332": 115,
        "15333": 22,
        "15334": 126,
        "15335": 76,
        "15336": 184,
        "15337": 44,
        "15338": 96,
        "15339": 75,
        "15340": 163,
        "15341": 13,
        "15342": 73,
        "15343": 235,
        "15344": 103,
        "15345": 121,
        "15346": 69,
        "15347": 13,
        "15348": 213,
        "15349": 51,
        "15350": 119,
        "15351": 33,
        "15352": 251,
        "15353": 67,
        "15354": 172,
        "15355": 106,
        "15356": 157,
        "15357": 245,
        "15358": 49,
        "15359": 233,
        "15360": 175,
        "15361": 99,
        "15362": 155,
        "15363": 30,
        "15364": 3,
        "15365": 234,
        "15366": 171,
        "15367": 146,
        "15368": 204,
        "15369": 66,
        "15370": 238,
        "15371": 106,
        "15372": 20,
        "15373": 212,
        "15374": 193,
        "15375": 71,
        "15376": 40,
        "15377": 89,
        "15378": 218,
        "15379": 113,
        "15380": 163,
        "15381": 117,
        "15382": 130,
        "15383": 66,
        "15384": 170,
        "15385": 190,
        "15386": 125,
        "15387": 155,
        "15388": 214,
        "15389": 9,
        "15390": 54,
        "15391": 43,
        "15392": 154,
        "15393": 117,
        "15394": 19,
        "15395": 66,
        "15396": 194,
        "15397": 222,
        "15398": 115,
        "15399": 101,
        "15400": 92,
        "15401": 28,
        "15402": 128,
        "15403": 20,
        "15404": 127,
        "15405": 253,
        "15406": 89,
        "15407": 95,
        "15408": 34,
        "15409": 2,
        "15410": 194,
        "15411": 32,
        "15412": 167,
        "15413": 19,
        "15414": 251,
        "15415": 190,
        "15416": 59,
        "15417": 98,
        "15418": 81,
        "15419": 16,
        "15420": 233,
        "15421": 7,
        "15422": 73,
        "15423": 120,
        "15424": 183,
        "15425": 169,
        "15426": 126,
        "15427": 106,
        "15428": 3,
        "15429": 254,
        "15430": 19,
        "15431": 116,
        "15432": 138,
        "15433": 155,
        "15434": 72,
        "15435": 243,
        "15436": 191,
        "15437": 16,
        "15438": 121,
        "15439": 28,
        "15440": 148,
        "15441": 99,
        "15442": 39,
        "15443": 52,
        "15444": 253,
        "15445": 227,
        "15446": 107,
        "15447": 130,
        "15448": 237,
        "15449": 204,
        "15450": 159,
        "15451": 33,
        "15452": 83,
        "15453": 221,
        "15454": 174,
        "15455": 60,
        "15456": 13,
        "15457": 71,
        "15458": 241,
        "15459": 160,
        "15460": 121,
        "15461": 164,
        "15462": 148,
        "15463": 58,
        "15464": 140,
        "15465": 28,
        "15466": 1,
        "15467": 13,
        "15468": 200,
        "15469": 77,
        "15470": 23,
        "15471": 234,
        "15472": 54,
        "15473": 6,
        "15474": 249,
        "15475": 233,
        "15476": 207,
        "15477": 142,
        "15478": 40,
        "15479": 124,
        "15480": 194,
        "15481": 154,
        "15482": 38,
        "15483": 68,
        "15484": 240,
        "15485": 37,
        "15486": 211,
        "15487": 33,
        "15488": 84,
        "15489": 218,
        "15490": 229,
        "15491": 201,
        "15492": 89,
        "15493": 247,
        "15494": 211,
        "15495": 133,
        "15496": 76,
        "15497": 107,
        "15498": 111,
        "15499": 217,
        "15500": 247,
        "15501": 193,
        "15502": 250,
        "15503": 145,
        "15504": 85,
        "15505": 80,
        "15506": 195,
        "15507": 184,
        "15508": 27,
        "15509": 109,
        "15510": 244,
        "15511": 1,
        "15512": 70,
        "15513": 174,
        "15514": 1,
        "15515": 201,
        "15516": 170,
        "15517": 112,
        "15518": 51,
        "15519": 146,
        "15520": 204,
        "15521": 238,
        "15522": 21,
        "15523": 10,
        "15524": 222,
        "15525": 247,
        "15526": 193,
        "15527": 61,
        "15528": 163,
        "15529": 135,
        "15530": 114,
        "15531": 237,
        "15532": 13,
        "15533": 80,
        "15534": 135,
        "15535": 253,
        "15536": 73,
        "15537": 126,
        "15538": 109,
        "15539": 162,
        "15540": 61,
        "15541": 87,
        "15542": 195,
        "15543": 224,
        "15544": 149,
        "15545": 167,
        "15546": 175,
        "15547": 197,
        "15548": 241,
        "15549": 45,
        "15550": 214,
        "15551": 36,
        "15552": 121,
        "15553": 22,
        "15554": 57,
        "15555": 196,
        "15556": 239,
        "15557": 152,
        "15558": 70,
        "15559": 206,
        "15560": 50,
        "15561": 135,
        "15562": 95,
        "15563": 61,
        "15564": 105,
        "15565": 76,
        "15566": 28,
        "15567": 86,
        "15568": 26,
        "15569": 173,
        "15570": 60,
        "15571": 86,
        "15572": 71,
        "15573": 106,
        "15574": 228,
        "15575": 3,
        "15576": 197,
        "15577": 232,
        "15578": 210,
        "15579": 56,
        "15580": 123,
        "15581": 94,
        "15582": 27,
        "15583": 179,
        "15584": 34,
        "15585": 90,
        "15586": 93,
        "15587": 5,
        "15588": 111,
        "15589": 196,
        "15590": 89,
        "15591": 109,
        "15592": 157,
        "15593": 10,
        "15594": 146,
        "15595": 170,
        "15596": 249,
        "15597": 117,
        "15598": 5,
        "15599": 14,
        "15600": 255,
        "15601": 217,
        "15602": 42,
        "15603": 104,
        "15604": 136,
        "15605": 188,
        "15606": 22,
        "15607": 244,
        "15608": 97,
        "15609": 16,
        "15610": 80,
        "15611": 242,
        "15612": 53,
        "15613": 246,
        "15614": 10,
        "15615": 200,
        "15616": 244,
        "15617": 37,
        "15618": 60,
        "15619": 233,
        "15620": 116,
        "15621": 232,
        "15622": 250,
        "15623": 41,
        "15624": 99,
        "15625": 243,
        "15626": 217,
        "15627": 174,
        "15628": 251,
        "15629": 182,
        "15630": 149,
        "15631": 176,
        "15632": 13,
        "15633": 84,
        "15634": 157,
        "15635": 51,
        "15636": 60,
        "15637": 11,
        "15638": 52,
        "15639": 69,
        "15640": 89,
        "15641": 40,
        "15642": 181,
        "15643": 81,
        "15644": 42,
        "15645": 46,
        "15646": 217,
        "15647": 249,
        "15648": 70,
        "15649": 0,
        "15650": 177,
        "15651": 155,
        "15652": 48,
        "15653": 12,
        "15654": 84,
        "15655": 187,
        "15656": 25,
        "15657": 69,
        "15658": 57,
        "15659": 86,
        "15660": 159,
        "15661": 94,
        "15662": 36,
        "15663": 85,
        "15664": 252,
        "15665": 80,
        "15666": 13,
        "15667": 0,
        "15668": 163,
        "15669": 132,
        "15670": 21,
        "15671": 159,
        "15672": 20,
        "15673": 121,
        "15674": 135,
        "15675": 39,
        "15676": 195,
        "15677": 20,
        "15678": 5,
        "15679": 205,
        "15680": 214,
        "15681": 237,
        "15682": 170,
        "15683": 100,
        "15684": 106,
        "15685": 104,
        "15686": 146,
        "15687": 117,
        "15688": 127,
        "15689": 138,
        "15690": 151,
        "15691": 27,
        "15692": 44,
        "15693": 70,
        "15694": 184,
        "15695": 135,
        "15696": 70,
        "15697": 185,
        "15698": 228,
        "15699": 24,
        "15700": 141,
        "15701": 18,
        "15702": 254,
        "15703": 141,
        "15704": 5,
        "15705": 57,
        "15706": 109,
        "15707": 22,
        "15708": 168,
        "15709": 128,
        "15710": 155,
        "15711": 189,
        "15712": 5,
        "15713": 240,
        "15714": 172,
        "15715": 132,
        "15716": 160,
        "15717": 132,
        "15718": 201,
        "15719": 235,
        "15720": 223,
        "15721": 202,
        "15722": 229,
        "15723": 221,
        "15724": 228,
        "15725": 251,
        "15726": 240,
        "15727": 186,
        "15728": 189,
        "15729": 33,
        "15730": 106,
        "15731": 212,
        "15732": 56,
        "15733": 131,
        "15734": 183,
        "15735": 105,
        "15736": 14,
        "15737": 128,
        "15738": 250,
        "15739": 141,
        "15740": 241,
        "15741": 35,
        "15742": 126,
        "15743": 51,
        "15744": 205,
        "15745": 212,
        "15746": 90,
        "15747": 111,
        "15748": 40,
        "15749": 80,
        "15750": 168,
        "15751": 134,
        "15752": 209,
        "15753": 114,
        "15754": 177,
        "15755": 156,
        "15756": 67,
        "15757": 17,
        "15758": 6,
        "15759": 238,
        "15760": 69,
        "15761": 127,
        "15762": 246,
        "15763": 81,
        "15764": 7,
        "15765": 36,
        "15766": 0,
        "15767": 121,
        "15768": 216,
        "15769": 158,
        "15770": 182,
        "15771": 213,
        "15772": 71,
        "15773": 87,
        "15774": 50,
        "15775": 197,
        "15776": 49,
        "15777": 22,
        "15778": 115,
        "15779": 3,
        "15780": 79,
        "15781": 61,
        "15782": 243,
        "15783": 135,
        "15784": 227,
        "15785": 10,
        "15786": 7,
        "15787": 231,
        "15788": 247,
        "15789": 231,
        "15790": 156,
        "15791": 196,
        "15792": 54,
        "15793": 57,
        "15794": 202,
        "15795": 122,
        "15796": 151,
        "15797": 153,
        "15798": 143,
        "15799": 102,
        "15800": 201,
        "15801": 179,
        "15802": 100,
        "15803": 168,
        "15804": 187,
        "15805": 5,
        "15806": 127,
        "15807": 69,
        "15808": 145,
        "15809": 128,
        "15810": 181,
        "15811": 13,
        "15812": 251,
        "15813": 224,
        "15814": 143,
        "15815": 165,
        "15816": 112,
        "15817": 117,
        "15818": 76,
        "15819": 59,
        "15820": 87,
        "15821": 217,
        "15822": 79,
        "15823": 99,
        "15824": 195,
        "15825": 6,
        "15826": 250,
        "15827": 106,
        "15828": 108,
        "15829": 186,
        "15830": 125,
        "15831": 180,
        "15832": 34,
        "15833": 30,
        "15834": 58,
        "15835": 42,
        "15836": 169,
        "15837": 15,
        "15838": 254,
        "15839": 90,
        "15840": 188,
        "15841": 193,
        "15842": 208,
        "15843": 1,
        "15844": 215,
        "15845": 24,
        "15846": 4,
        "15847": 5,
        "15848": 134,
        "15849": 66,
        "15850": 223,
        "15851": 147,
        "15852": 135,
        "15853": 34,
        "15854": 104,
        "15855": 90,
        "15856": 25,
        "15857": 77,
        "15858": 53,
        "15859": 218,
        "15860": 114,
        "15861": 38,
        "15862": 44,
        "15863": 30,
        "15864": 95,
        "15865": 64,
        "15866": 159,
        "15867": 24,
        "15868": 87,
        "15869": 50,
        "15870": 227,
        "15871": 254,
        "15872": 235,
        "15873": 147,
        "15874": 216,
        "15875": 107,
        "15876": 251,
        "15877": 66,
        "15878": 16,
        "15879": 155,
        "15880": 28,
        "15881": 209,
        "15882": 231,
        "15883": 152,
        "15884": 136,
        "15885": 182,
        "15886": 232,
        "15887": 114,
        "15888": 151,
        "15889": 22,
        "15890": 79,
        "15891": 32,
        "15892": 49,
        "15893": 7,
        "15894": 149,
        "15895": 157,
        "15896": 247,
        "15897": 235,
        "15898": 5,
        "15899": 38,
        "15900": 209,
        "15901": 114,
        "15902": 9,
        "15903": 222,
        "15904": 66,
        "15905": 213,
        "15906": 211,
        "15907": 191,
        "15908": 163,
        "15909": 185,
        "15910": 162,
        "15911": 250,
        "15912": 160,
        "15913": 226,
        "15914": 217,
        "15915": 14,
        "15916": 15,
        "15917": 236,
        "15918": 133,
        "15919": 55,
        "15920": 230,
        "15921": 41,
        "15922": 211,
        "15923": 221,
        "15924": 40,
        "15925": 108,
        "15926": 255,
        "15927": 60,
        "15928": 118,
        "15929": 142,
        "15930": 28,
        "15931": 125,
        "15932": 159,
        "15933": 239,
        "15934": 92,
        "15935": 176,
        "15936": 238,
        "15937": 95,
        "15938": 91,
        "15939": 83,
        "15940": 105,
        "15941": 39,
        "15942": 195,
        "15943": 93,
        "15944": 128,
        "15945": 210,
        "15946": 223,
        "15947": 163,
        "15948": 176,
        "15949": 187,
        "15950": 78,
        "15951": 179,
        "15952": 194,
        "15953": 42,
        "15954": 146,
        "15955": 186,
        "15956": 167,
        "15957": 11,
        "15958": 133,
        "15959": 214,
        "15960": 5,
        "15961": 143,
        "15962": 167,
        "15963": 7,
        "15964": 13,
        "15965": 54,
        "15966": 209,
        "15967": 39,
        "15968": 107,
        "15969": 187,
        "15970": 117,
        "15971": 88,
        "15972": 230,
        "15973": 205,
        "15974": 238,
        "15975": 9,
        "15976": 17,
        "15977": 65,
        "15978": 244,
        "15979": 3,
        "15980": 196,
        "15981": 19,
        "15982": 40,
        "15983": 206,
        "15984": 179,
        "15985": 45,
        "15986": 52,
        "15987": 247,
        "15988": 105,
        "15989": 1,
        "15990": 197,
        "15991": 109,
        "15992": 220,
        "15993": 9,
        "15994": 33,
        "15995": 25,
        "15996": 220,
        "15997": 60,
        "15998": 18,
        "15999": 84,
        "16000": 5,
        "16001": 250,
        "16002": 120,
        "16003": 239,
        "16004": 22,
        "16005": 92,
        "16006": 172,
        "16007": 144,
        "16008": 106,
        "16009": 100,
        "16010": 14,
        "16011": 2,
        "16012": 233,
        "16013": 113,
        "16014": 246,
        "16015": 180,
        "16016": 58,
        "16017": 103,
        "16018": 241,
        "16019": 200,
        "16020": 80,
        "16021": 66,
        "16022": 37,
        "16023": 245,
        "16024": 94,
        "16025": 180,
        "16026": 248,
        "16027": 146,
        "16028": 59,
        "16029": 66,
        "16030": 154,
        "16031": 119,
        "16032": 97,
        "16033": 108,
        "16034": 67,
        "16035": 179,
        "16036": 147,
        "16037": 246,
        "16038": 38,
        "16039": 28,
        "16040": 28,
        "16041": 33,
        "16042": 125,
        "16043": 178,
        "16044": 112,
        "16045": 244,
        "16046": 151,
        "16047": 136,
        "16048": 61,
        "16049": 22,
        "16050": 68,
        "16051": 111,
        "16052": 147,
        "16053": 166,
        "16054": 98,
        "16055": 78,
        "16056": 28,
        "16057": 143,
        "16058": 159,
        "16059": 78,
        "16060": 64,
        "16061": 73,
        "16062": 167,
        "16063": 215,
        "16064": 47,
        "16065": 141,
        "16066": 225,
        "16067": 23,
        "16068": 106,
        "16069": 40,
        "16070": 16,
        "16071": 91,
        "16072": 115,
        "16073": 148,
        "16074": 163,
        "16075": 87,
        "16076": 212,
        "16077": 192,
        "16078": 234,
        "16079": 49,
        "16080": 247,
        "16081": 31,
        "16082": 71,
        "16083": 185,
        "16084": 220,
        "16085": 237,
        "16086": 146,
        "16087": 38,
        "16088": 184,
        "16089": 154,
        "16090": 222,
        "16091": 187,
        "16092": 235,
        "16093": 61,
        "16094": 125,
        "16095": 139,
        "16096": 134,
        "16097": 71,
        "16098": 186,
        "16099": 142,
        "16100": 238,
        "16101": 17,
        "16102": 96,
        "16103": 175,
        "16104": 103,
        "16105": 138,
        "16106": 115,
        "16107": 186,
        "16108": 42,
        "16109": 140,
        "16110": 157,
        "16111": 34,
        "16112": 253,
        "16113": 84,
        "16114": 141,
        "16115": 99,
        "16116": 225,
        "16117": 228,
        "16118": 201,
        "16119": 193,
        "16120": 82,
        "16121": 183,
        "16122": 176,
        "16123": 137,
        "16124": 71,
        "16125": 99,
        "16126": 58,
        "16127": 155,
        "16128": 57,
        "16129": 105,
        "16130": 212,
        "16131": 81,
        "16132": 209,
        "16133": 106,
        "16134": 169,
        "16135": 213,
        "16136": 50,
        "16137": 102,
        "16138": 155,
        "16139": 42,
        "16140": 117,
        "16141": 225,
        "16142": 213,
        "16143": 73,
        "16144": 228,
        "16145": 239,
        "16146": 8,
        "16147": 53,
        "16148": 142,
        "16149": 233,
        "16150": 82,
        "16151": 17,
        "16152": 111,
        "16153": 126,
        "16154": 123,
        "16155": 171,
        "16156": 134,
        "16157": 168,
        "16158": 145,
        "16159": 124,
        "16160": 97,
        "16161": 151,
        "16162": 232,
        "16163": 173,
        "16164": 98,
        "16165": 133,
        "16166": 46,
        "16167": 212,
        "16168": 208,
        "16169": 232,
        "16170": 213,
        "16171": 13,
        "16172": 103,
        "16173": 24,
        "16174": 250,
        "16175": 244,
        "16176": 82,
        "16177": 49,
        "16178": 43,
        "16179": 92,
        "16180": 95,
        "16181": 193,
        "16182": 241,
        "16183": 49,
        "16184": 108,
        "16185": 214,
        "16186": 67,
        "16187": 249,
        "16188": 133,
        "16189": 190,
        "16190": 176,
        "16191": 192,
        "16192": 159,
        "16193": 60,
        "16194": 92,
        "16195": 198,
        "16196": 230,
        "16197": 205,
        "16198": 38,
        "16199": 119,
        "16200": 225,
        "16201": 204,
        "16202": 63,
        "16203": 63,
        "16204": 234,
        "16205": 6,
        "16206": 190,
        "16207": 245,
        "16208": 93,
        "16209": 247,
        "16210": 56,
        "16211": 246,
        "16212": 209,
        "16213": 214,
        "16214": 14,
        "16215": 71,
        "16216": 29,
        "16217": 207,
        "16218": 143,
        "16219": 63,
        "16220": 71,
        "16221": 188,
        "16222": 91,
        "16223": 225,
        "16224": 249,
        "16225": 212,
        "16226": 42,
        "16227": 130,
        "16228": 245,
        "16229": 136,
        "16230": 25,
        "16231": 223,
        "16232": 224,
        "16233": 254,
        "16234": 52,
        "16235": 40,
        "16236": 54,
        "16237": 213,
        "16238": 31,
        "16239": 43,
        "16240": 107,
        "16241": 72,
        "16242": 163,
        "16243": 63,
        "16244": 218,
        "16245": 43,
        "16246": 205,
        "16247": 253,
        "16248": 62,
        "16249": 164,
        "16250": 153,
        "16251": 28,
        "16252": 135,
        "16253": 89,
        "16254": 73,
        "16255": 225,
        "16256": 243,
        "16257": 99,
        "16258": 7,
        "16259": 1,
        "16260": 105,
        "16261": 197,
        "16262": 13,
        "16263": 176,
        "16264": 102,
        "16265": 103,
        "16266": 89,
        "16267": 132,
        "16268": 105,
        "16269": 122,
        "16270": 151,
        "16271": 106,
        "16272": 212,
        "16273": 2,
        "16274": 113,
        "16275": 217,
        "16276": 237,
        "16277": 68,
        "16278": 24,
        "16279": 199,
        "16280": 176,
        "16281": 204,
        "16282": 84,
        "16283": 88,
        "16284": 33,
        "16285": 198,
        "16286": 123,
        "16287": 128,
        "16288": 238,
        "16289": 197,
        "16290": 41,
        "16291": 225,
        "16292": 85,
        "16293": 215,
        "16294": 233,
        "16295": 68,
        "16296": 119,
        "16297": 255,
        "16298": 107,
        "16299": 206,
        "16300": 48,
        "16301": 31,
        "16302": 216,
        "16303": 58,
        "16304": 128,
        "16305": 41,
        "16306": 170,
        "16307": 35,
        "16308": 161,
        "16309": 46,
        "16310": 179,
        "16311": 235,
        "16312": 47,
        "16313": 254,
        "16314": 121,
        "16315": 203,
        "16316": 127,
        "16317": 153,
        "16318": 22,
        "16319": 16,
        "16320": 1,
        "16321": 50,
        "16322": 186,
        "16323": 165,
        "16324": 161,
        "16325": 100,
        "16326": 86,
        "16327": 74,
        "16328": 148,
        "16329": 216,
        "16330": 8,
        "16331": 72,
        "16332": 241,
        "16333": 207,
        "16334": 154,
        "16335": 206,
        "16336": 35,
        "16337": 115,
        "16338": 112,
        "16339": 115,
        "16340": 154,
        "16341": 125,
        "16342": 102,
        "16343": 148,
        "16344": 199,
        "16345": 49,
        "16346": 130,
        "16347": 206,
        "16348": 66,
        "16349": 31,
        "16350": 60,
        "16351": 24,
        "16352": 134,
        "16353": 201,
        "16354": 251,
        "16355": 222,
        "16356": 149,
        "16357": 56,
        "16358": 213,
        "16359": 145,
        "16360": 223,
        "16361": 165,
        "16362": 11,
        "16363": 109,
        "16364": 154,
        "16365": 241,
        "16366": 128,
        "16367": 102,
        "16368": 184,
        "16369": 17,
        "16370": 209,
        "16371": 104,
        "16372": 75,
        "16373": 146,
        "16374": 239,
        "16375": 106,
        "16376": 205,
        "16377": 45,
        "16378": 216,
        "16379": 233,
        "16380": 116,
        "16381": 92,
        "16382": 69,
        "16383": 143,
        "16384": 105,
        "16385": 213,
        "16386": 43,
        "16387": 233,
        "16388": 207,
        "16389": 195,
        "16390": 211,
        "16391": 186,
        "16392": 13,
        "16393": 190,
        "16394": 195,
        "16395": 118,
        "16396": 135,
        "16397": 169,
        "16398": 44,
        "16399": 164,
        "16400": 187,
        "16401": 150,
        "16402": 209,
        "16403": 103,
        "16404": 164,
        "16405": 21,
        "16406": 123,
        "16407": 139,
        "16408": 163,
        "16409": 254,
        "16410": 97,
        "16411": 124,
        "16412": 236,
        "16413": 158,
        "16414": 79,
        "16415": 194,
        "16416": 120,
        "16417": 116,
        "16418": 6,
        "16419": 87,
        "16420": 205,
        "16421": 197,
        "16422": 203,
        "16423": 142,
        "16424": 1,
        "16425": 8,
        "16426": 0,
        "16427": 0,
        "16428": 0,
        "16429": 0,
        "16430": 0,
        "16431": 0,
        "16432": 4,
        "16433": 0,
        "16434": 0,
        "16435": 0,
        "16436": 0,
        "16437": 0,
        "16438": 0,
        "16439": 0,
        "16440": 0,
        "16441": 0,
        "16442": 0,
        "16443": 0,
        "16444": 0,
        "16445": 0,
        "16446": 0,
        "16447": 0,
        "16448": 0,
        "16449": 0,
        "16450": 0,
        "16451": 0,
        "16452": 0,
        "16453": 0,
        "16454": 0,
        "16455": 0,
        "16456": 64,
        "16457": 0,
        "16458": 0,
        "16459": 0,
        "16460": 0,
        "16461": 0,
        "16462": 0,
        "16463": 0,
        "16464": 3,
        "16465": 0,
        "16466": 0,
        "16467": 0,
        "16468": 0,
        "16469": 0,
        "16470": 0,
        "16471": 0,
        "16472": 4,
        "16473": 0,
        "16474": 0,
        "16475": 0,
        "16476": 0,
        "16477": 0,
        "16478": 0,
        "16479": 0,
        "16480": 4,
        "16481": 0,
        "16482": 0,
        "16483": 0,
        "16484": 0,
        "16485": 0,
        "16486": 0,
        "16487": 0,
        "16488": 0,
        "16489": 0,
        "16490": 0,
        "16491": 0,
        "16492": 4,
        "16493": 0,
        "16494": 0,
        "16495": 0,
        "16496": 0,
        "16497": 0,
        "16498": 0,
        "16499": 0
      }
    }
  ],
  "numDeployments": 1,
  "solcInputHash": "565f59401336fdb1dd17267187f3758b",
  "bytecode": "0x610160604052620000176000620001f660201b60201c565b6009553480156200002757600080fd5b50604051620055653803806200556583398181016040528101906200004d919062000ead565b83836040518060400160405280601181526020017f4668656e6978205065726d697373696f6e0000000000000000000000000000008152506040518060400160405280600381526020017f312e30000000000000000000000000000000000000000000000000000000000081525083838160039081620000ce9190620011bd565b508060049081620000e09190620011bd565b505050620000f96005836200021260201b90919060201c565b6101208181525050620001176006826200021260201b90919060201c565b6101408181525050818051906020012060e08181525050808051906020012061010081815250504660a08181525050620001566200026a60201b60201c565b608081815250503073ffffffffffffffffffffffffffffffffffffffff1660c08173ffffffffffffffffffffffffffffffffffffffff168152505050505050620001a73383620002c760201b60201c565b620001b933826200035460201b60201c565b620001eb7f9f2df0fed2c77648de5860a4cc508cd0818c85b8b8a1ab4ceeef8d981c8956a6336200041060201b60201c565b5050505050620016df565b60006200020b8260026200051460201b60201c565b9050919050565b600060208351101562000238576200023083620005cb60201b60201c565b905062000264565b826200024a836200063860201b60201c565b60000190816200025b9190620011bd565b5060ff60001b90505b92915050565b60007f8b73c3c69bb8fe3d512ecc4cf759cc79239f7b179b0ffacaa9a75d522b39400f60e051610100514630604051602001620002ac95949392919062001315565b60405160208183030381529060405280519060200120905090565b600073ffffffffffffffffffffffffffffffffffffffff168273ffffffffffffffffffffffffffffffffffffffff16036200033c5760006040517fec442f0500000000000000000000000000000000000000000000000000000000815260040162000333919062001372565b60405180910390fd5b62000350600083836200064260201b60201c565b5050565b600062000367826200087260201b60201c565b9050620003b4600760008573ffffffffffffffffffffffffffffffffffffffff1673ffffffffffffffffffffffffffffffffffffffff168152602001908152602001600020548262000890565b600760008573ffffffffffffffffffffffffffffffffffffffff1673ffffffffffffffffffffffffffffffffffffffff16815260200190815260200160002081905550620004056009548262000890565b600981905550505050565b6000620004248383620008ac60201b60201c565b62000509576001600a600085815260200190815260200160002060000160008473ffffffffffffffffffffffffffffffffffffffff1673ffffffffffffffffffffffffffffffffffffffff16815260200190815260200160002060006101000a81548160ff021916908315150217905550620004a56200091760201b60201c565b73ffffffffffffffffffffffffffffffffffffffff168273ffffffffffffffffffffffffffffffffffffffff16847f2f8788117e7eff1d82e926ec794901d17c78024a50270940304540a733656f0d60405160405180910390a4600190506200050e565b600090505b92915050565b60006060608073ffffffffffffffffffffffffffffffffffffffff166319e1c5c462000546866200091f60201b60201c565b856040518363ffffffff1660e01b8152600401620005669291906200140a565b600060405180830381865afa15801562000584573d6000803e3d6000fd5b505050506040513d6000823e3d601f19601f82011682018060405250810190620005af91906200143e565b9050620005c2816200098060201b60201c565b91505092915050565b600080829050601f815111156200061b57826040517f305a27a9000000000000000000000000000000000000000000000000000000008152600401620006129190620014e1565b60405180910390fd5b80518162000629906200152c565b60001c1760001b915050919050565b6000819050919050565b600073ffffffffffffffffffffffffffffffffffffffff168373ffffffffffffffffffffffffffffffffffffffff1603620006985780600260008282546200068b9190620015cb565b925050819055506200076e565b60008060008573ffffffffffffffffffffffffffffffffffffffff1673ffffffffffffffffffffffffffffffffffffffff1681526020019081526020016000205490508181101562000727578381836040517fe450d38c0000000000000000000000000000000000000000000000000000000081526004016200071e9392919062001606565b60405180910390fd5b8181036000808673ffffffffffffffffffffffffffffffffffffffff1673ffffffffffffffffffffffffffffffffffffffff16815260200190815260200160002081905550505b600073ffffffffffffffffffffffffffffffffffffffff168273ffffffffffffffffffffffffffffffffffffffff1603620007b9578060026000828254039250508190555062000806565b806000808473ffffffffffffffffffffffffffffffffffffffff1673ffffffffffffffffffffffffffffffffffffffff168152602001908152602001600020600082825401925050819055505b8173ffffffffffffffffffffffffffffffffffffffff168373ffffffffffffffffffffffffffffffffffffffff167fddf252ad1be2c89b69c2b068fc378daa952ba7f163c4a11628f55a4df523b3ef8360405162000865919062001643565b60405180910390a3505050565b60006200088982600001516200098e60201b60201c565b9050919050565b6000620008a48383620009aa60201b60201c565b905092915050565b6000600a600084815260200190815260200160002060000160008373ffffffffffffffffffffffffffffffffffffffff1673ffffffffffffffffffffffffffffffffffffffff16815260200190815260200160002060009054906101000a900460ff16905092915050565b600033905090565b6060602067ffffffffffffffff8111156200093f576200093e62000bee565b5b6040519080825280601f01601f191660200182016040528015620009725781602001600182028036833780820191505090505b509050816020820152919050565b600060208201519050919050565b6000620009a382600262000a4c60201b60201c565b9050919050565b6000620009bd8362000af360201b60201c565b620009d757620009d46000620001f660201b60201c565b92505b620009e88262000af360201b60201c565b62000a0257620009ff6000620001f660201b60201c565b91505b60008390506000839050600062000a3e60028484608073ffffffffffffffffffffffffffffffffffffffff16622df61962000b0060201b60201c565b905080935050505092915050565b60006060608073ffffffffffffffffffffffffffffffffffffffff16635fa55ca784866040518363ffffffff1660e01b815260040162000a8e92919062001660565b600060405180830381865afa15801562000aac573d6000803e3d6000fd5b505050506040513d6000823e3d601f19601f8201168201806040525081019062000ad791906200143e565b905062000aea816200098060201b60201c565b91505092915050565b6000808214159050919050565b6000606083838862000b18896200091f60201b60201c565b62000b29896200091f60201b60201c565b6040518463ffffffff1660e01b815260040162000b499392919062001694565b600060405180830381865afa15801562000b67573d6000803e3d6000fd5b505050506040513d6000823e3d601f19601f8201168201806040525081019062000b9291906200143e565b905062000ba58162000bb160201b60201c565b91505095945050505050565b600060208201519050919050565b6000604051905090565b600080fd5b600080fd5b600080fd5b600080fd5b6000601f19601f8301169050919050565b7f4e487b7100000000000000000000000000000000000000000000000000000000600052604160045260246000fd5b62000c288262000bdd565b810181811067ffffffffffffffff8211171562000c4a5762000c4962000bee565b5b80604052505050565b600062000c5f62000bbf565b905062000c6d828262000c1d565b919050565b600067ffffffffffffffff82111562000c905762000c8f62000bee565b5b62000c9b8262000bdd565b9050602081019050919050565b60005b8381101562000cc857808201518184015260208101905062000cab565b60008484015250505050565b600062000ceb62000ce58462000c72565b62000c53565b90508281526020810184848401111562000d0a5762000d0962000bd8565b5b62000d1784828562000ca8565b509392505050565b600082601f83011262000d375762000d3662000bd3565b5b815162000d4984826020860162000cd4565b91505092915050565b6000819050919050565b62000d678162000d52565b811462000d7357600080fd5b50565b60008151905062000d878162000d5c565b92915050565b600080fd5b600080fd5b600067ffffffffffffffff82111562000db55762000db462000bee565b5b62000dc08262000bdd565b9050602081019050919050565b600062000de462000dde8462000d97565b62000c53565b90508281526020810184848401111562000e035762000e0262000bd8565b5b62000e1084828562000ca8565b509392505050565b600082601f83011262000e305762000e2f62000bd3565b5b815162000e4284826020860162000dcd565b91505092915050565b60006020828403121562000e645762000e6362000d8d565b5b62000e70602062000c53565b9050600082015167ffffffffffffffff81111562000e935762000e9262000d92565b5b62000ea18482850162000e18565b60008301525092915050565b6000806000806080858703121562000eca5762000ec962000bc9565b5b600085015167ffffffffffffffff81111562000eeb5762000eea62000bce565b5b62000ef98782880162000d1f565b945050602085015167ffffffffffffffff81111562000f1d5762000f1c62000bce565b5b62000f2b8782880162000d1f565b935050604062000f3e8782880162000d76565b925050606085015167ffffffffffffffff81111562000f625762000f6162000bce565b5b62000f708782880162000e4b565b91505092959194509250565b600081519050919050565b7f4e487b7100000000000000000000000000000000000000000000000000000000600052602260045260246000fd5b6000600282049050600182168062000fcf57607f821691505b60208210810362000fe55762000fe462000f87565b5b50919050565b60008190508160005260206000209050919050565b60006020601f8301049050919050565b600082821b905092915050565b6000600883026200104f7fffffffffffffffffffffffffffffffffffffffffffffffffffffffffffffffff8262001010565b6200105b868362001010565b95508019841693508086168417925050509392505050565b6000819050919050565b60006200109e62001098620010928462000d52565b62001073565b62000d52565b9050919050565b6000819050919050565b620010ba836200107d565b620010d2620010c982620010a5565b8484546200101d565b825550505050565b600090565b620010e9620010da565b620010f6818484620010af565b505050565b5b818110156200111e5762001112600082620010df565b600181019050620010fc565b5050565b601f8211156200116d57620011378162000feb565b620011428462001000565b8101602085101562001152578190505b6200116a620011618562001000565b830182620010fb565b50505b505050565b600082821c905092915050565b6000620011926000198460080262001172565b1980831691505092915050565b6000620011ad83836200117f565b9150826002028217905092915050565b620011c88262000f7c565b67ffffffffffffffff811115620011e457620011e362000bee565b5b620011f0825462000fb6565b620011fd82828562001122565b600060209050601f83116001811462001235576000841562001220578287015190505b6200122c85826200119f565b8655506200129c565b601f198416620012458662000feb565b60005b828110156200126f5784890151825560018201915060208501945060208101905062001248565b868310156200128f57848901516200128b601f8916826200117f565b8355505b6001600288020188555050505b505050505050565b6000819050919050565b620012b981620012a4565b82525050565b620012ca8162000d52565b82525050565b600073ffffffffffffffffffffffffffffffffffffffff82169050919050565b6000620012fd82620012d0565b9050919050565b6200130f81620012f0565b82525050565b600060a0820190506200132c6000830188620012ae565b6200133b6020830187620012ae565b6200134a6040830186620012ae565b620013596060830185620012bf565b62001368608083018462001304565b9695505050505050565b600060208201905062001389600083018462001304565b92915050565b600081519050919050565b600082825260208201905092915050565b6000620013b8826200138f565b620013c481856200139a565b9350620013d681856020860162000ca8565b620013e18162000bdd565b840191505092915050565b600060ff82169050919050565b6200140481620013ec565b82525050565b60006040820190508181036000830152620014268185620013ab565b9050620014376020830184620013f9565b9392505050565b60006020828403121562001457576200145662000bc9565b5b600082015167ffffffffffffffff81111562001478576200147762000bce565b5b620014868482850162000e18565b91505092915050565b600082825260208201905092915050565b6000620014ad8262000f7c565b620014b981856200148f565b9350620014cb81856020860162000ca8565b620014d68162000bdd565b840191505092915050565b60006020820190508181036000830152620014fd8184620014a0565b905092915050565b6000819050602082019050919050565b6000620015238251620012a4565b80915050919050565b600062001539826200138f565b82620015458462001505565b9050620015528162001515565b925060208210156200159557620015907fffffffffffffffffffffffffffffffffffffffffffffffffffffffffffffffff8360200360080262001010565b831692505b5050919050565b7f4e487b7100000000000000000000000000000000000000000000000000000000600052601160045260246000fd5b6000620015d88262000d52565b9150620015e58362000d52565b92508282019050808211156200160057620015ff6200159c565b5b92915050565b60006060820190506200161d600083018662001304565b6200162c6020830185620012bf565b6200163b6040830184620012bf565b949350505050565b60006020820190506200165a6000830184620012bf565b92915050565b6000604082019050620016776000830185620013f9565b81810360208301526200168b8184620013ab565b90509392505050565b6000606082019050620016ab6000830186620013f9565b8181036020830152620016bf8185620013ab565b90508181036040830152620016d58184620013ab565b9050949350505050565b60805160a05160c05160e051610100516101205161014051613e2b6200173a6000396000611910015260006118d501526000612a5101526000612a3001526000612171015260006121c7015260006121f00152613e2b6000f3fe608060405234801561001057600080fd5b50600436106101cf5760003560e01c80636e0505e111610104578063a217fddf116100a2578063d539139311610071578063d5391393146105ba578063d547741f146105d8578063d918156e146105f4578063dd62ed3e14610624576101cf565b8063a217fddf1461050c578063a9059cbb1461052a578063af575a001461055a578063c4224c191461058a576101cf565b80638624a349116100de5780638624a3491461047257806391d14854146104a257806395d89b41146104d25780639f284be7146104f0576101cf565b80636e0505e11461040257806370a082311461041e57806384b0196e1461044e576101cf565b80632f2ff15d1161017157806339c217f71161014b57806339c217f7146103565780634e6db477146103865780635356c429146103a257806360277204146103d2576101cf565b80632f2ff15d14610300578063313ce5671461031c57806336568abe1461033a576101cf565b806318160ddd116101ad57806318160ddd1461025257806323b872dd1461027057806323db9354146102a0578063248a9ca3146102d0576101cf565b806301ffc9a7146101d457806306fdde0314610204578063095ea7b314610222575b600080fd5b6101ee60048036038101906101e99190612dee565b610654565b6040516101fb9190612e36565b60405180910390f35b61020c6106ce565b6040516102199190612ee1565b60405180910390f35b61023c60048036038101906102379190612f97565b610760565b6040516102499190612e36565b60405180910390f35b61025a610783565b6040516102679190612fe6565b60405180910390f35b61028a60048036038101906102859190613001565b61078d565b6040516102979190612e36565b60405180910390f35b6102ba60048036038101906102b59190613054565b6107bc565b6040516102c791906130cf565b60405180910390f35b6102ea60048036038101906102e59190613120565b610843565b6040516102f7919061315c565b60405180910390f35b61031a60048036038101906103159190613177565b610863565b005b610324610885565b60405161033191906131d3565b60405180910390f35b610354600480360381019061034f9190613177565b61088e565b005b610370600480360381019061036b9190613212565b610909565b60405161037d91906130cf565b60405180910390f35b6103a0600480360381019061039b9190613405565b61092e565b005b6103bc60048036038101906103b79190613480565b61096c565b6040516103c99190613531565b60405180910390f35b6103ec60048036038101906103e791906135bf565b610a6a565b6040516103f99190613531565b60405180910390f35b61041c60048036038101906104179190613657565b610ba0565b005b61043860048036038101906104339190613684565b610cd7565b6040516104459190612fe6565b60405180910390f35b610456610d1f565b60405161046997969594939291906137b9565b60405180910390f35b61048c6004803603810190610487919061383d565b610dc9565b60405161049991906130cf565b60405180910390f35b6104bc60048036038101906104b79190613177565b610e07565b6040516104c99190612e36565b60405180910390f35b6104da610e72565b6040516104e79190612ee1565b60405180910390f35b61050a60048036038101906105059190613657565b610f04565b005b610514611011565b604051610521919061315c565b60405180910390f35b610544600480360381019061053f9190612f97565b611018565b6040516105519190612e36565b60405180910390f35b610574600480360381019061056f91906138d8565b61103b565b60405161058191906130cf565b60405180910390f35b6105a4600480360381019061059f919061392b565b611068565b6040516105b191906130cf565b60405180910390f35b6105c261107d565b6040516105cf919061315c565b60405180910390f35b6105f260048036038101906105ed9190613177565b6110a1565b005b61060e60048036038101906106099190613212565b6110c3565b60405161061b9190612e36565b60405180910390f35b61063e60048036038101906106399190613054565b6110eb565b60405161064b9190612fe6565b60405180910390f35b60007f7965db0b000000000000000000000000000000000000000000000000000000007bffffffffffffffffffffffffffffffffffffffffffffffffffffffff1916827bffffffffffffffffffffffffffffffffffffffffffffffffffffffff191614806106c757506106c682611172565b5b9050919050565b6060600380546106dd9061399a565b80601f01602080910402602001604051908101604052809291908181526020018280546107099061399a565b80156107565780601f1061072b57610100808354040283529160200191610756565b820191906000526020600020905b81548152906001019060200180831161073957829003601f168201915b5050505050905090565b60008061076b6111dc565b90506107788185856111e4565b600191505092915050565b6000600254905090565b6000806107986111dc565b90506107a58582856111f6565b6107b085858561128a565b60019150509392505050565b6000600860008473ffffffffffffffffffffffffffffffffffffffff1673ffffffffffffffffffffffffffffffffffffffff16815260200190815260200160002060008373ffffffffffffffffffffffffffffffffffffffff1673ffffffffffffffffffffffffffffffffffffffff16815260200190815260200160002054905092915050565b6000600a6000838152602001908152602001600020600101549050919050565b61086c82610843565b6108758161137e565b61087f8383611392565b50505050565b60006012905090565b6108966111dc565b73ffffffffffffffffffffffffffffffffffffffff168173ffffffffffffffffffffffffffffffffffffffff16146108fa576040517f6697b23200000000000000000000000000000000000000000000000000000000815260040160405180910390fd5b6109048282611484565b505050565b6000610926836109218461091c906139cb565b611577565b611068565b905092915050565b6109587f9f2df0fed2c77648de5860a4cc508cd0818c85b8b8a1ab4ceeef8d981c8956a633610e07565b1561096857610967828261158d565b5b5050565b606081610978906139de565b60006109cf7f6bdaeb2d29561f159c7ef98b16b27015fb2aeb87209c7ee656226d912f59927d83600001516040516020016109b49291906139f1565b6040516020818303038152906040528051906020012061163d565b905060006109e1828460200151611657565b90503373ffffffffffffffffffffffffffffffffffffffff168173ffffffffffffffffffffffffffffffffffffffff1614610a48576040517f3093a27700000000000000000000000000000000000000000000000000000000815260040160405180910390fd5b610a5f610a5533886107bc565b8660000135611683565b935050505092915050565b606081836000610ac57f6bdaeb2d29561f159c7ef98b16b27015fb2aeb87209c7ee656226d912f59927d8460000151604051602001610aaa9291906139f1565b6040516020818303038152906040528051906020012061163d565b90506000610ad7828560200151611657565b90508273ffffffffffffffffffffffffffffffffffffffff168173ffffffffffffffffffffffffffffffffffffffff1614610b3e576040517f51c65eae00000000000000000000000000000000000000000000000000000000815260040160405180910390fd5b610b948660000151600760008a73ffffffffffffffffffffffffffffffffffffffff1673ffffffffffffffffffffffffffffffffffffffff168152602001908152602001600020546116b990919063ffffffff16565b94505050505092915050565b6000610bb18263ffffffff166116cd565b90506000610c1a610c0a83600760003373ffffffffffffffffffffffffffffffffffffffff1673ffffffffffffffffffffffffffffffffffffffff168152602001908152602001600020546116e190919063ffffffff16565b610c1460006116cd565b846116f5565b9050610c65600760003373ffffffffffffffffffffffffffffffffffffffff1673ffffffffffffffffffffffffffffffffffffffff1681526020019081526020016000205482611773565b600760003373ffffffffffffffffffffffffffffffffffffffff1673ffffffffffffffffffffffffffffffffffffffff16815260200190815260200160002081905550610cb460095482611773565b600981905550610cd233610cc783611787565b63ffffffff1661184a565b505050565b60008060008373ffffffffffffffffffffffffffffffffffffffff1673ffffffffffffffffffffffffffffffffffffffff168152602001908152602001600020549050919050565b600060608060008060006060610d336118cc565b610d3b611907565b46306000801b600067ffffffffffffffff811115610d5c57610d5b613273565b5b604051908082528060200260200182016040528015610d8a5781602001602082028036833780820191505090505b507f0f00000000000000000000000000000000000000000000000000000000000000959493929190965096509650965096509650965090919293949596565b600080610dde83610dd9906139cb565b611577565b90506000610ded863384611942565b9050610dfa86868361197f565b5080925050509392505050565b6000600a600084815260200190815260200160002060000160008373ffffffffffffffffffffffffffffffffffffffff1673ffffffffffffffffffffffffffffffffffffffff16815260200190815260200160002060009054906101000a900460ff16905092915050565b606060048054610e819061399a565b80601f0160208091040260200160405190810160405280929190818152602001828054610ead9061399a565b8015610efa5780601f10610ecf57610100808354040283529160200191610efa565b820191906000526020600020905b815481529060010190602001808311610edd57829003601f168201915b5050505050905090565b8063ffffffff16610f1433610cd7565b1015610f4c576040517ffda7bbda00000000000000000000000000000000000000000000000000000000815260040160405180910390fd5b610f5c338263ffffffff16611b0c565b6000610f6d8263ffffffff166116cd565b9050610fb8600760003373ffffffffffffffffffffffffffffffffffffffff1673ffffffffffffffffffffffffffffffffffffffff1681526020019081526020016000205482611b8e565b600760003373ffffffffffffffffffffffffffffffffffffffff1673ffffffffffffffffffffffffffffffffffffffff1681526020019081526020016000208190555061100760095482611b8e565b6009819055505050565b6000801b81565b6000806110236111dc565b905061103081858561128a565b600191505092915050565b600080829050600061104e863384611942565b905061105b86868361197f565b5080925050509392505050565b600061107533848461197f565b905092915050565b7f9f2df0fed2c77648de5860a4cc508cd0818c85b8b8a1ab4ceeef8d981c8956a681565b6110aa82610843565b6110b38161137e565b6110bd8383611484565b50505050565b60006110e133846110dc856110d7906139cb565b611577565b611ba2565b6001905092915050565b6000600160008473ffffffffffffffffffffffffffffffffffffffff1673ffffffffffffffffffffffffffffffffffffffff16815260200190815260200160002060008373ffffffffffffffffffffffffffffffffffffffff1673ffffffffffffffffffffffffffffffffffffffff16815260200190815260200160002054905092915050565b60007f01ffc9a7000000000000000000000000000000000000000000000000000000007bffffffffffffffffffffffffffffffffffffffffffffffffffffffff1916827bffffffffffffffffffffffffffffffffffffffffffffffffffffffff1916149050919050565b600033905090565b6111f18383836001611d0c565b505050565b600061120284846110eb565b90507fffffffffffffffffffffffffffffffffffffffffffffffffffffffffffffffff81146112845781811015611274578281836040517ffb8f41b200000000000000000000000000000000000000000000000000000000815260040161126b93929190613a1a565b60405180910390fd5b61128384848484036000611d0c565b5b50505050565b600073ffffffffffffffffffffffffffffffffffffffff168373ffffffffffffffffffffffffffffffffffffffff16036112fc5760006040517f96c6fd1e0000000000000000000000000000000000000000000000000000000081526004016112f39190613a51565b60405180910390fd5b600073ffffffffffffffffffffffffffffffffffffffff168273ffffffffffffffffffffffffffffffffffffffff160361136e5760006040517fec442f050000000000000000000000000000000000000000000000000000000081526004016113659190613a51565b60405180910390fd5b611379838383611ee3565b505050565b61138f8161138a6111dc565b612108565b50565b600061139e8383610e07565b611479576001600a600085815260200190815260200160002060000160008473ffffffffffffffffffffffffffffffffffffffff1673ffffffffffffffffffffffffffffffffffffffff16815260200190815260200160002060006101000a81548160ff0219169083151502179055506114166111dc565b73ffffffffffffffffffffffffffffffffffffffff168273ffffffffffffffffffffffffffffffffffffffff16847f2f8788117e7eff1d82e926ec794901d17c78024a50270940304540a733656f0d60405160405180910390a46001905061147e565b600090505b92915050565b60006114908383610e07565b1561156c576000600a600085815260200190815260200160002060000160008473ffffffffffffffffffffffffffffffffffffffff1673ffffffffffffffffffffffffffffffffffffffff16815260200190815260200160002060006101000a81548160ff0219169083151502179055506115096111dc565b73ffffffffffffffffffffffffffffffffffffffff168273ffffffffffffffffffffffffffffffffffffffff16847ff6391f5c32d9c69d2a47ea670b442974b53935d1edc7fd64eb21e047a839171b60405160405180910390a460019050611571565b600090505b92915050565b60006115868260000151612159565b9050919050565b600061159882611577565b90506115e3600760008573ffffffffffffffffffffffffffffffffffffffff1673ffffffffffffffffffffffffffffffffffffffff1681526020019081526020016000205482611b8e565b600760008573ffffffffffffffffffffffffffffffffffffffff1673ffffffffffffffffffffffffffffffffffffffff1681526020019081526020016000208190555061163260095482611b8e565b600981905550505050565b600061165061164a61216d565b83612224565b9050919050565b6000806000806116678686612265565b92509250925061167782826122c1565b82935050505092915050565b606061168e83612425565b61169f5761169c60006116cd565b92505b60008390506116b060028285612432565b91505092915050565b60606116c58383611683565b905092915050565b60006116da8260026124e8565b9050919050565b60006116ed838361258a565b905092915050565b600061170084612603565b6117115761170e6000612610565b93505b61171a83612425565b61172b5761172860006116cd565b92505b61173482612425565b6117455761174260006116cd565b91505b60008490506000849050600084905060006117636002858585612624565b9050809450505050509392505050565b600061177f83836126dc565b905092915050565b600061179282612425565b6117a3576117a060006116cd565b91505b600082905060006117b382612755565b90506000608073ffffffffffffffffffffffffffffffffffffffff166373cc01546002846040518363ffffffff1660e01b81526004016117f4929190613a6c565b602060405180830381865afa158015611811573d6000803e3d6000fd5b505050506040513d601f19601f820116820180604052508101906118359190613ab1565b9050611840816127b2565b9350505050919050565b600073ffffffffffffffffffffffffffffffffffffffff168273ffffffffffffffffffffffffffffffffffffffff16036118bc5760006040517fec442f050000000000000000000000000000000000000000000000000000000081526004016118b39190613a51565b60405180910390fd5b6118c860008383611ee3565b5050565b606061190260057f00000000000000000000000000000000000000000000000000000000000000006127bc90919063ffffffff16565b905090565b606061193d60067f00000000000000000000000000000000000000000000000000000000000000006127bc90919063ffffffff16565b905090565b60008061194f85856107bc565b9050600061195d828561286c565b9050611973868661196e8585611773565b611ba2565b80925050509392505050565b6000806119e76119d7600760008873ffffffffffffffffffffffffffffffffffffffff1673ffffffffffffffffffffffffffffffffffffffff16815260200190815260200160002054856128e590919063ffffffff16565b846119e260006116cd565b6116f5565b9050611a32600760008673ffffffffffffffffffffffffffffffffffffffff1673ffffffffffffffffffffffffffffffffffffffff1681526020019081526020016000205482611b8e565b600760008673ffffffffffffffffffffffffffffffffffffffff1673ffffffffffffffffffffffffffffffffffffffff16815260200190815260200160002081905550611abe600760008773ffffffffffffffffffffffffffffffffffffffff1673ffffffffffffffffffffffffffffffffffffffff1681526020019081526020016000205482611773565b600760008773ffffffffffffffffffffffffffffffffffffffff1673ffffffffffffffffffffffffffffffffffffffff16815260200190815260200160002081905550809150509392505050565b600073ffffffffffffffffffffffffffffffffffffffff168273ffffffffffffffffffffffffffffffffffffffff1603611b7e5760006040517f96c6fd1e000000000000000000000000000000000000000000000000000000008152600401611b759190613a51565b60405180910390fd5b611b8a82600083611ee3565b5050565b6000611b9a83836128f9565b905092915050565b600073ffffffffffffffffffffffffffffffffffffffff168373ffffffffffffffffffffffffffffffffffffffff1603611c145760006040517fe602df05000000000000000000000000000000000000000000000000000000008152600401611c0b9190613a51565b60405180910390fd5b600073ffffffffffffffffffffffffffffffffffffffff168273ffffffffffffffffffffffffffffffffffffffff1603611c865760006040517f94280d62000000000000000000000000000000000000000000000000000000008152600401611c7d9190613a51565b60405180910390fd5b80600860008573ffffffffffffffffffffffffffffffffffffffff1673ffffffffffffffffffffffffffffffffffffffff16815260200190815260200160002060008473ffffffffffffffffffffffffffffffffffffffff1673ffffffffffffffffffffffffffffffffffffffff16815260200190815260200160002081905550505050565b600073ffffffffffffffffffffffffffffffffffffffff168473ffffffffffffffffffffffffffffffffffffffff1603611d7e5760006040517fe602df05000000000000000000000000000000000000000000000000000000008152600401611d759190613a51565b60405180910390fd5b600073ffffffffffffffffffffffffffffffffffffffff168373ffffffffffffffffffffffffffffffffffffffff1603611df05760006040517f94280d62000000000000000000000000000000000000000000000000000000008152600401611de79190613a51565b60405180910390fd5b81600160008673ffffffffffffffffffffffffffffffffffffffff1673ffffffffffffffffffffffffffffffffffffffff16815260200190815260200160002060008573ffffffffffffffffffffffffffffffffffffffff1673ffffffffffffffffffffffffffffffffffffffff168152602001908152602001600020819055508015611edd578273ffffffffffffffffffffffffffffffffffffffff168473ffffffffffffffffffffffffffffffffffffffff167f8c5be1e5ebec7d5bd14f71427d1e84f3dd0314c0f7b2291e5b200ac8c7c3b92584604051611ed49190612fe6565b60405180910390a35b50505050565b600073ffffffffffffffffffffffffffffffffffffffff168373ffffffffffffffffffffffffffffffffffffffff1603611f35578060026000828254611f299190613b0d565b92505081905550612008565b60008060008573ffffffffffffffffffffffffffffffffffffffff1673ffffffffffffffffffffffffffffffffffffffff16815260200190815260200160002054905081811015611fc1578381836040517fe450d38c000000000000000000000000000000000000000000000000000000008152600401611fb893929190613a1a565b60405180910390fd5b8181036000808673ffffffffffffffffffffffffffffffffffffffff1673ffffffffffffffffffffffffffffffffffffffff16815260200190815260200160002081905550505b600073ffffffffffffffffffffffffffffffffffffffff168273ffffffffffffffffffffffffffffffffffffffff1603612051578060026000828254039250508190555061209e565b806000808473ffffffffffffffffffffffffffffffffffffffff1673ffffffffffffffffffffffffffffffffffffffff168152602001908152602001600020600082825401925050819055505b8173ffffffffffffffffffffffffffffffffffffffff168373ffffffffffffffffffffffffffffffffffffffff167fddf252ad1be2c89b69c2b068fc378daa952ba7f163c4a11628f55a4df523b3ef836040516120fb9190612fe6565b60405180910390a3505050565b6121128282610e07565b6121555780826040517fe2517d3f00000000000000000000000000000000000000000000000000000000815260040161214c929190613b41565b60405180910390fd5b5050565b6000612166826002612971565b9050919050565b60007f000000000000000000000000000000000000000000000000000000000000000073ffffffffffffffffffffffffffffffffffffffff163073ffffffffffffffffffffffffffffffffffffffff161480156121e957507f000000000000000000000000000000000000000000000000000000000000000046145b15612216577f00000000000000000000000000000000000000000000000000000000000000009050612221565b61221e612a0b565b90505b90565b60006040517f190100000000000000000000000000000000000000000000000000000000000081528360028201528260228201526042812091505092915050565b600080600060418451036122aa5760008060006020870151925060408701519150606087015160001a905061229c88828585612aa1565b9550955095505050506122ba565b60006002855160001b9250925092505b9250925092565b600060038111156122d5576122d4613b6a565b5b8260038111156122e8576122e7613b6a565b5b0315612421576001600381111561230257612301613b6a565b5b82600381111561231557612314613b6a565b5b0361234c576040517ff645eedf00000000000000000000000000000000000000000000000000000000815260040160405180910390fd5b600260038111156123605761235f613b6a565b5b82600381111561237357612372613b6a565b5b036123b8578060001c6040517ffce698f70000000000000000000000000000000000000000000000000000000081526004016123af9190612fe6565b60405180910390fd5b6003808111156123cb576123ca613b6a565b5b8260038111156123de576123dd613b6a565b5b0361242057806040517fd78bce0c000000000000000000000000000000000000000000000000000000008152600401612417919061315c565b60405180910390fd5b5b5050565b6000808214159050919050565b6060608073ffffffffffffffffffffffffffffffffffffffff1663a1848ff38561245b86612755565b8560405160200161246c9190613bba565b6040516020818303038152906040526040518463ffffffff1660e01b815260040161249993929190613bd5565b600060405180830381865afa1580156124b6573d6000803e3d6000fd5b505050506040513d6000823e3d601f19601f820116820180604052508101906124df9190613c8a565b90509392505050565b60006060608073ffffffffffffffffffffffffffffffffffffffff166319e1c5c461251286612755565b856040518363ffffffff1660e01b8152600401612530929190613cd3565b600060405180830381865afa15801561254d573d6000803e3d6000fd5b505050506040513d6000823e3d601f19601f820116820180604052508101906125769190613c8a565b905061258181612b95565b91505092915050565b600061259583612425565b6125a6576125a360006116cd565b92505b6125af82612425565b6125c0576125bd60006116cd565b91505b6000839050600083905060006125f560028484608073ffffffffffffffffffffffffffffffffffffffff1663874b1c10612ba3565b905080935050505092915050565b6000808214159050919050565b600061261d8260006124e8565b9050919050565b60006060608073ffffffffffffffffffffffffffffffffffffffff1663c2d969528761264f88612755565b61265888612755565b61266188612755565b6040518563ffffffff1660e01b81526004016126809493929190613d03565b600060405180830381865afa15801561269d573d6000803e3d6000fd5b505050506040513d6000823e3d601f19601f820116820180604052508101906126c69190613c8a565b90506126d181612b95565b915050949350505050565b60006126e783612425565b6126f8576126f560006116cd565b92505b61270182612425565b6127125761270f60006116cd565b91505b60008390506000839050600061274760028484608073ffffffffffffffffffffffffffffffffffffffff1663cc2cbeff612ba3565b905080935050505092915050565b6060602067ffffffffffffffff81111561277257612771613273565b5b6040519080825280601f01601f1916602001820160405280156127a45781602001600182028036833780820191505090505b509050816020820152919050565b6000819050919050565b606060ff60001b83146127d9576127d283612c37565b9050612866565b8180546127e59061399a565b80601f01602080910402602001604051908101604052809291908181526020018280546128119061399a565b801561285e5780601f106128335761010080835404028352916020019161285e565b820191906000526020600020905b81548152906001019060200180831161284157829003601f168201915b505050505090505b92915050565b600061287783612425565b6128885761288560006116cd565b92505b61289182612425565b6128a25761289f60006116cd565b91505b6000839050600083905060006128d760028484608073ffffffffffffffffffffffffffffffffffffffff16635211c679612ba3565b905080935050505092915050565b60006128f18383612cab565b905092915050565b600061290483612425565b6129155761291260006116cd565b92505b61291e82612425565b61292f5761292c60006116cd565b91505b60008390506000839050600061296360028484608073ffffffffffffffffffffffffffffffffffffffff16622df619612ba3565b905080935050505092915050565b60006060608073ffffffffffffffffffffffffffffffffffffffff16635fa55ca784866040518363ffffffff1660e01b81526004016129b1929190613a6c565b600060405180830381865afa1580156129ce573d6000803e3d6000fd5b505050506040513d6000823e3d601f19601f820116820180604052508101906129f79190613c8a565b9050612a0281612b95565b91505092915050565b60007f8b73c3c69bb8fe3d512ecc4cf759cc79239f7b179b0ffacaa9a75d522b39400f7f00000000000000000000000000000000000000000000000000000000000000007f00000000000000000000000000000000000000000000000000000000000000004630604051602001612a86959493929190613d5d565b60405160208183030381529060405280519060200120905090565b60008060007f7fffffffffffffffffffffffffffffff5d576e7357a4501ddfe92f46681b20a08460001c1115612ae1576000600385925092509250612b8b565b600060018888888860405160008152602001604052604051612b069493929190613db0565b6020604051602081039080840390855afa158015612b28573d6000803e3d6000fd5b505050602060405103519050600073ffffffffffffffffffffffffffffffffffffffff168173ffffffffffffffffffffffffffffffffffffffff1603612b7c57600060016000801b93509350935050612b8b565b8060008060001b935093509350505b9450945094915050565b600060208201519050919050565b60006060838388612bb389612755565b612bbc89612755565b6040518463ffffffff1660e01b8152600401612bda93929190613bd5565b600060405180830381865afa158015612bf7573d6000803e3d6000fd5b505050506040513d6000823e3d601f19601f82011682018060405250810190612c209190613c8a565b9050612c2b81612d24565b91505095945050505050565b60606000612c4483612d32565b90506000602067ffffffffffffffff811115612c6357612c62613273565b5b6040519080825280601f01601f191660200182016040528015612c955781602001600182028036833780820191505090505b5090508181528360208201528092505050919050565b6000612cb683612425565b612cc757612cc460006116cd565b92505b612cd082612425565b612ce157612cde60006116cd565b91505b600083905060008390506000612d1660028484608073ffffffffffffffffffffffffffffffffffffffff1663b9c7a54b612ba3565b905080935050505092915050565b600060208201519050919050565b60008060ff8360001c169050601f811115612d79576040517fb3512b0c00000000000000000000000000000000000000000000000000000000815260040160405180910390fd5b80915050919050565b6000604051905090565b600080fd5b600080fd5b60007fffffffff0000000000000000000000000000000000000000000000000000000082169050919050565b612dcb81612d96565b8114612dd657600080fd5b50565b600081359050612de881612dc2565b92915050565b600060208284031215612e0457612e03612d8c565b5b6000612e1284828501612dd9565b91505092915050565b60008115159050919050565b612e3081612e1b565b82525050565b6000602082019050612e4b6000830184612e27565b92915050565b600081519050919050565b600082825260208201905092915050565b60005b83811015612e8b578082015181840152602081019050612e70565b60008484015250505050565b6000601f19601f8301169050919050565b6000612eb382612e51565b612ebd8185612e5c565b9350612ecd818560208601612e6d565b612ed681612e97565b840191505092915050565b60006020820190508181036000830152612efb8184612ea8565b905092915050565b600073ffffffffffffffffffffffffffffffffffffffff82169050919050565b6000612f2e82612f03565b9050919050565b612f3e81612f23565b8114612f4957600080fd5b50565b600081359050612f5b81612f35565b92915050565b6000819050919050565b612f7481612f61565b8114612f7f57600080fd5b50565b600081359050612f9181612f6b565b92915050565b60008060408385031215612fae57612fad612d8c565b5b6000612fbc85828601612f4c565b9250506020612fcd85828601612f82565b9150509250929050565b612fe081612f61565b82525050565b6000602082019050612ffb6000830184612fd7565b92915050565b60008060006060848603121561301a57613019612d8c565b5b600061302886828701612f4c565b935050602061303986828701612f4c565b925050604061304a86828701612f82565b9150509250925092565b6000806040838503121561306b5761306a612d8c565b5b600061307985828601612f4c565b925050602061308a85828601612f4c565b9150509250929050565b6000819050919050565b60006130b96130b46130af84612f61565b613094565b612f61565b9050919050565b6130c98161309e565b82525050565b60006020820190506130e460008301846130c0565b92915050565b6000819050919050565b6130fd816130ea565b811461310857600080fd5b50565b60008135905061311a816130f4565b92915050565b60006020828403121561313657613135612d8c565b5b60006131448482850161310b565b91505092915050565b613156816130ea565b82525050565b6000602082019050613171600083018461314d565b92915050565b6000806040838503121561318e5761318d612d8c565b5b600061319c8582860161310b565b92505060206131ad85828601612f4c565b9150509250929050565b600060ff82169050919050565b6131cd816131b7565b82525050565b60006020820190506131e860008301846131c4565b92915050565b600080fd5b600060208284031215613209576132086131ee565b5b81905092915050565b6000806040838503121561322957613228612d8c565b5b600061323785828601612f4c565b925050602083013567ffffffffffffffff81111561325857613257612d91565b5b613264858286016131f3565b9150509250929050565b600080fd5b7f4e487b7100000000000000000000000000000000000000000000000000000000600052604160045260246000fd5b6132ab82612e97565b810181811067ffffffffffffffff821117156132ca576132c9613273565b5b80604052505050565b60006132dd612d82565b90506132e982826132a2565b919050565b600080fd5b600080fd5b600080fd5b600067ffffffffffffffff82111561331857613317613273565b5b61332182612e97565b9050602081019050919050565b82818337600083830152505050565b600061335061334b846132fd565b6132d3565b90508281526020810184848401111561336c5761336b6132f8565b5b61337784828561332e565b509392505050565b600082601f830112613394576133936132f3565b5b81356133a484826020860161333d565b91505092915050565b6000602082840312156133c3576133c261326e565b5b6133cd60206132d3565b9050600082013567ffffffffffffffff8111156133ed576133ec6132ee565b5b6133f98482850161337f565b60008301525092915050565b6000806040838503121561341c5761341b612d8c565b5b600061342a85828601612f4c565b925050602083013567ffffffffffffffff81111561344b5761344a612d91565b5b613457858286016133ad565b9150509250929050565b600060408284031215613477576134766131ee565b5b81905092915050565b6000806040838503121561349757613496612d8c565b5b60006134a585828601612f4c565b925050602083013567ffffffffffffffff8111156134c6576134c5612d91565b5b6134d285828601613461565b9150509250929050565b600081519050919050565b600082825260208201905092915050565b6000613503826134dc565b61350d81856134e7565b935061351d818560208601612e6d565b61352681612e97565b840191505092915050565b6000602082019050818103600083015261354b81846134f8565b905092915050565b6000604082840312156135695761356861326e565b5b61357360406132d3565b905060006135838482850161310b565b600083015250602082013567ffffffffffffffff8111156135a7576135a66132ee565b5b6135b38482850161337f565b60208301525092915050565b600080604083850312156135d6576135d5612d8c565b5b60006135e485828601612f4c565b925050602083013567ffffffffffffffff81111561360557613604612d91565b5b61361185828601613553565b9150509250929050565b600063ffffffff82169050919050565b6136348161361b565b811461363f57600080fd5b50565b6000813590506136518161362b565b92915050565b60006020828403121561366d5761366c612d8c565b5b600061367b84828501613642565b91505092915050565b60006020828403121561369a57613699612d8c565b5b60006136a884828501612f4c565b91505092915050565b60007fff0000000000000000000000000000000000000000000000000000000000000082169050919050565b6136e6816136b1565b82525050565b6136f581612f23565b82525050565b600081519050919050565b600082825260208201905092915050565b6000819050602082019050919050565b61373081612f61565b82525050565b60006137428383613727565b60208301905092915050565b6000602082019050919050565b6000613766826136fb565b6137708185613706565b935061377b83613717565b8060005b838110156137ac5781516137938882613736565b975061379e8361374e565b92505060018101905061377f565b5085935050505092915050565b600060e0820190506137ce600083018a6136dd565b81810360208301526137e08189612ea8565b905081810360408301526137f48188612ea8565b90506138036060830187612fd7565b61381060808301866136ec565b61381d60a083018561314d565b81810360c083015261382f818461375b565b905098975050505050505050565b60008060006060848603121561385657613855612d8c565b5b600061386486828701612f4c565b935050602061387586828701612f4c565b925050604084013567ffffffffffffffff81111561389657613895612d91565b5b6138a2868287016131f3565b9150509250925092565b6138b581612f61565b81146138c057600080fd5b50565b6000813590506138d2816138ac565b92915050565b6000806000606084860312156138f1576138f0612d8c565b5b60006138ff86828701612f4c565b935050602061391086828701612f4c565b9250506040613921868287016138c3565b9150509250925092565b6000806040838503121561394257613941612d8c565b5b600061395085828601612f4c565b9250506020613961858286016138c3565b9150509250929050565b7f4e487b7100000000000000000000000000000000000000000000000000000000600052602260045260246000fd5b600060028204905060018216806139b257607f821691505b6020821081036139c5576139c461396b565b5b50919050565b60006139d736836133ad565b9050919050565b60006139ea3683613553565b9050919050565b6000604082019050613a06600083018561314d565b613a13602083018461314d565b9392505050565b6000606082019050613a2f60008301866136ec565b613a3c6020830185612fd7565b613a496040830184612fd7565b949350505050565b6000602082019050613a6660008301846136ec565b92915050565b6000604082019050613a8160008301856131c4565b8181036020830152613a9381846134f8565b90509392505050565b600081519050613aab81612f6b565b92915050565b600060208284031215613ac757613ac6612d8c565b5b6000613ad584828501613a9c565b91505092915050565b7f4e487b7100000000000000000000000000000000000000000000000000000000600052601160045260246000fd5b6000613b1882612f61565b9150613b2383612f61565b9250828201905080821115613b3b57613b3a613ade565b5b92915050565b6000604082019050613b5660008301856136ec565b613b63602083018461314d565b9392505050565b7f4e487b7100000000000000000000000000000000000000000000000000000000600052602160045260246000fd5b6000819050919050565b613bb4613baf826130ea565b613b99565b82525050565b6000613bc68284613ba3565b60208201915081905092915050565b6000606082019050613bea60008301866131c4565b8181036020830152613bfc81856134f8565b90508181036040830152613c1081846134f8565b9050949350505050565b6000613c2d613c28846132fd565b6132d3565b905082815260208101848484011115613c4957613c486132f8565b5b613c54848285612e6d565b509392505050565b600082601f830112613c7157613c706132f3565b5b8151613c81848260208601613c1a565b91505092915050565b600060208284031215613ca057613c9f612d8c565b5b600082015167ffffffffffffffff811115613cbe57613cbd612d91565b5b613cca84828501613c5c565b91505092915050565b60006040820190508181036000830152613ced81856134f8565b9050613cfc60208301846131c4565b9392505050565b6000608082019050613d1860008301876131c4565b8181036020830152613d2a81866134f8565b90508181036040830152613d3e81856134f8565b90508181036060830152613d5281846134f8565b905095945050505050565b600060a082019050613d72600083018861314d565b613d7f602083018761314d565b613d8c604083018661314d565b613d996060830185612fd7565b613da660808301846136ec565b9695505050505050565b6000608082019050613dc5600083018761314d565b613dd260208301866131c4565b613ddf604083018561314d565b613dec606083018461314d565b9594505050505056fea2646970667358221220ba9f69cef7d06a140d51e68badff481b47eb7ac75dbf8b370afa86c2c0065a5d64736f6c63430008140033",
  "devdoc": {
    "errors": {
      "AccessControlBadConfirmation()": [
        {
          "details": "The caller of a function is not the expected one. NOTE: Don't confuse with {AccessControlUnauthorizedAccount}."
        }
      ],
      "AccessControlUnauthorizedAccount(address,bytes32)": [
        {
          "details": "The `account` is missing a role."
        }
      ],
      "ECDSAInvalidSignature()": [
        {
          "details": "The signature derives the `address(0)`."
        }
      ],
      "ECDSAInvalidSignatureLength(uint256)": [
        {
          "details": "The signature has an invalid length."
        }
      ],
      "ECDSAInvalidSignatureS(bytes32)": [
        {
          "details": "The signature has an S value that is in the upper half order."
        }
      ],
      "ERC20InsufficientAllowance(address,uint256,uint256)": [
        {
          "details": "Indicates a failure with the `spender`s `allowance`. Used in transfers.",
          "params": {
            "allowance": "Amount of tokens a `spender` is allowed to operate with.",
            "needed": "Minimum amount required to perform a transfer.",
            "spender": "Address that may be allowed to operate on tokens without being their owner."
          }
        }
      ],
      "ERC20InsufficientBalance(address,uint256,uint256)": [
        {
          "details": "Indicates an error related to the current `balance` of a `sender`. Used in transfers.",
          "params": {
            "balance": "Current balance for the interacting account.",
            "needed": "Minimum amount required to perform a transfer.",
            "sender": "Address whose tokens are being transferred."
          }
        }
      ],
      "ERC20InvalidApprover(address)": [
        {
          "details": "Indicates a failure with the `approver` of a token to be approved. Used in approvals.",
          "params": {
            "approver": "Address initiating an approval operation."
          }
        }
      ],
      "ERC20InvalidReceiver(address)": [
        {
          "details": "Indicates a failure with the token `receiver`. Used in transfers.",
          "params": {
            "receiver": "Address to which tokens are being transferred."
          }
        }
      ],
      "ERC20InvalidSender(address)": [
        {
          "details": "Indicates a failure with the token `sender`. Used in transfers.",
          "params": {
            "sender": "Address whose tokens are being transferred."
          }
        }
      ],
      "ERC20InvalidSpender(address)": [
        {
          "details": "Indicates a failure with the `spender` to be approved. Used in approvals.",
          "params": {
            "spender": "Address that may be allowed to operate on tokens without being their owner."
          }
        }
      ]
    },
    "events": {
      "Approval(address,address,uint256)": {
        "details": "Emitted when the allowance of a `spender` for an `owner` is set by a call to {approve}. `value` is the new allowance."
      },
      "ApprovalEncrypted(address,address)": {
        "details": "Emitted when the allowance of a `spender` for an `owner` is set by a call to {approveEncrypted}. `value` is the new allowance."
      },
      "EIP712DomainChanged()": {
        "details": "MAY be emitted to signal that the domain could have changed."
      },
      "RoleAdminChanged(bytes32,bytes32,bytes32)": {
        "details": "Emitted when `newAdminRole` is set as ``role``'s admin role, replacing `previousAdminRole` `DEFAULT_ADMIN_ROLE` is the starting admin for all roles, despite {RoleAdminChanged} not being emitted signaling this."
      },
      "RoleGranted(bytes32,address,address)": {
        "details": "Emitted when `account` is granted `role`. `sender` is the account that originated the contract call, an admin role bearer except when using {AccessControl-_setupRole}."
      },
      "RoleRevoked(bytes32,address,address)": {
        "details": "Emitted when `account` is revoked `role`. `sender` is the account that originated the contract call:   - if using `revokeRole`, it is the admin role bearer   - if using `renounceRole`, it is the role bearer (i.e. `account`)"
      },
      "Transfer(address,address,uint256)": {
        "details": "Emitted when `value` tokens are moved from one account (`from`) to another (`to`). Note that `value` may be zero."
      },
      "TransferEncrypted(address,address)": {
        "details": "Emitted when `value` tokens are moved from one account (`from`) to another (`to`). Note that `value` may be zero."
      }
    },
    "kind": "dev",
    "methods": {
      "allowance(address,address)": {
        "details": "See {IERC20-allowance}."
      },
      "allowanceEncrypted(address,(bytes32,bytes))": {
        "details": "Returns the remaining number of tokens that `spender` will be allowed to spend on behalf of `owner` through {transferFrom}. This is zero by default. This value changes when {approve} or {transferFrom} are called."
      },
      "approve(address,uint256)": {
        "details": "See {IERC20-approve}. NOTE: If `value` is the maximum `uint256`, the allowance is not updated on `transferFrom`. This is semantically equivalent to an infinite approval. Requirements: - `spender` cannot be the zero address."
      },
      "approveEncrypted(address,(bytes))": {
        "details": "Sets a `value` amount of tokens as the allowance of `spender` over the caller's tokens. Returns a boolean value indicating whether the operation succeeded. IMPORTANT: Beware that changing an allowance with this method brings the risk that someone may use both the old and the new allowance by unfortunate transaction ordering. One possible solution to mitigate this race condition is to first reduce the spender's allowance to 0 and set the desired value afterwards: https://github.com/ethereum/EIPs/issues/20#issuecomment-263524729 Emits an {ApprovalEncrypted} event."
      },
      "balanceOf(address)": {
        "details": "See {IERC20-balanceOf}."
      },
      "balanceOfEncrypted(address,(bytes32,bytes))": {
        "details": "Returns the value of tokens owned by `account`, sealed and encrypted for the caller."
      },
      "decimals()": {
        "details": "Returns the number of decimals used to get its user representation. For example, if `decimals` equals `2`, a balance of `505` tokens should be displayed to a user as `5.05` (`505 / 10 ** 2`). Tokens usually opt for a value of 18, imitating the relationship between Ether and Wei. This is the default value returned by this function, unless it's overridden. NOTE: This information is only used for _display_ purposes: it in no way affects any of the arithmetic of the contract, including {IERC20-balanceOf} and {IERC20-transfer}."
      },
      "eip712Domain()": {
        "details": "See {IERC-5267}."
      },
      "getRoleAdmin(bytes32)": {
        "details": "Returns the admin role that controls `role`. See {grantRole} and {revokeRole}. To change a role's admin, use {_setRoleAdmin}."
      },
      "grantRole(bytes32,address)": {
        "details": "Grants `role` to `account`. If `account` had not been already granted `role`, emits a {RoleGranted} event. Requirements: - the caller must have ``role``'s admin role. May emit a {RoleGranted} event."
      },
      "hasRole(bytes32,address)": {
        "details": "Returns `true` if `account` has been granted `role`."
      },
      "name()": {
        "details": "Returns the name of the token."
      },
      "renounceRole(bytes32,address)": {
        "details": "Revokes `role` from the calling account. Roles are often managed via {grantRole} and {revokeRole}: this function's purpose is to provide a mechanism for accounts to lose their privileges if they are compromised (such as when a trusted device is misplaced). If the calling account had been revoked `role`, emits a {RoleRevoked} event. Requirements: - the caller must be `callerConfirmation`. May emit a {RoleRevoked} event."
      },
      "revokeRole(bytes32,address)": {
        "details": "Revokes `role` from `account`. If `account` had been granted `role`, emits a {RoleRevoked} event. Requirements: - the caller must have ``role``'s admin role. May emit a {RoleRevoked} event."
      },
      "supportsInterface(bytes4)": {
        "details": "See {IERC165-supportsInterface}."
      },
      "symbol()": {
        "details": "Returns the symbol of the token, usually a shorter version of the name."
      },
      "totalSupply()": {
        "details": "See {IERC20-totalSupply}."
      },
      "transfer(address,uint256)": {
        "details": "See {IERC20-transfer}. Requirements: - `to` cannot be the zero address. - the caller must have a balance of at least `value`."
      },
      "transferFrom(address,address,uint256)": {
        "details": "See {IERC20-transferFrom}. Emits an {Approval} event indicating the updated allowance. This is not required by the EIP. See the note at the beginning of {ERC20}. NOTE: Does not update the allowance if the current allowance is the maximum `uint256`. Requirements: - `from` and `to` cannot be the zero address. - `from` must have a balance of at least `value`. - the caller must have allowance for ``from``'s tokens of at least `value`."
      },
      "transferFromEncrypted(address,address,(bytes))": {
        "details": "Moves a `value` amount of tokens from `from` to `to` using the allowance mechanism. `value` is then deducted from the caller's allowance. Returns a boolean value indicating whether the operation succeeded. Emits a {TransferEncrypted} event."
      }
    },
    "version": 1
  },
  "userdoc": {
    "errors": {
      "SignerNotMessageSender()": [
        {
          "notice": "Emitted when the signer is not the message sender"
        }
      ],
      "SignerNotOwner()": [
        {
          "notice": "Emitted when the signer is not the specified owner"
        }
      ]
    },
    "kind": "user",
    "methods": {},
    "version": 1
  },
  "storageLayout": {
    "storage": [
      {
        "astId": 9366,
        "contract": "contracts/ExampleToken.sol:ExampleToken",
        "label": "_balances",
        "offset": 0,
        "slot": "0",
        "type": "t_mapping(t_address,t_uint256)"
      },
      {
        "astId": 9372,
        "contract": "contracts/ExampleToken.sol:ExampleToken",
        "label": "_allowances",
        "offset": 0,
        "slot": "1",
        "type": "t_mapping(t_address,t_mapping(t_address,t_uint256))"
      },
      {
        "astId": 9374,
        "contract": "contracts/ExampleToken.sol:ExampleToken",
        "label": "_totalSupply",
        "offset": 0,
        "slot": "2",
        "type": "t_uint256"
      },
      {
        "astId": 9376,
        "contract": "contracts/ExampleToken.sol:ExampleToken",
        "label": "_name",
        "offset": 0,
        "slot": "3",
        "type": "t_string_storage"
      },
      {
        "astId": 9378,
        "contract": "contracts/ExampleToken.sol:ExampleToken",
        "label": "_symbol",
        "offset": 0,
        "slot": "4",
        "type": "t_string_storage"
      },
      {
        "astId": 10959,
        "contract": "contracts/ExampleToken.sol:ExampleToken",
        "label": "_nameFallback",
        "offset": 0,
        "slot": "5",
        "type": "t_string_storage"
      },
      {
        "astId": 10961,
        "contract": "contracts/ExampleToken.sol:ExampleToken",
        "label": "_versionFallback",
        "offset": 0,
        "slot": "6",
        "type": "t_string_storage"
      },
      {
        "astId": 12527,
        "contract": "contracts/ExampleToken.sol:ExampleToken",
        "label": "_encBalances",
        "offset": 0,
        "slot": "7",
        "type": "t_mapping(t_address,t_userDefinedValueType(euint32)12)"
      },
      {
        "astId": 12534,
        "contract": "contracts/ExampleToken.sol:ExampleToken",
        "label": "_allowed",
        "offset": 0,
        "slot": "8",
        "type": "t_mapping(t_address,t_mapping(t_address,t_userDefinedValueType(euint32)12))"
      },
      {
        "astId": 12541,
        "contract": "contracts/ExampleToken.sol:ExampleToken",
        "label": "totalEncryptedSupply",
        "offset": 0,
        "slot": "9",
        "type": "t_userDefinedValueType(euint32)12"
      },
      {
        "astId": 8829,
        "contract": "contracts/ExampleToken.sol:ExampleToken",
        "label": "_roles",
        "offset": 0,
        "slot": "10",
        "type": "t_mapping(t_bytes32,t_struct(RoleData)8824_storage)"
      }
    ],
    "types": {
      "t_address": {
        "encoding": "inplace",
        "label": "address",
        "numberOfBytes": "20"
      },
      "t_bool": {
        "encoding": "inplace",
        "label": "bool",
        "numberOfBytes": "1"
      },
      "t_bytes32": {
        "encoding": "inplace",
        "label": "bytes32",
        "numberOfBytes": "32"
      },
      "t_mapping(t_address,t_bool)": {
        "encoding": "mapping",
        "key": "t_address",
        "label": "mapping(address => bool)",
        "numberOfBytes": "32",
        "value": "t_bool"
      },
      "t_mapping(t_address,t_mapping(t_address,t_uint256))": {
        "encoding": "mapping",
        "key": "t_address",
        "label": "mapping(address => mapping(address => uint256))",
        "numberOfBytes": "32",
        "value": "t_mapping(t_address,t_uint256)"
      },
      "t_mapping(t_address,t_mapping(t_address,t_userDefinedValueType(euint32)12))": {
        "encoding": "mapping",
        "key": "t_address",
        "label": "mapping(address => mapping(address => euint32))",
        "numberOfBytes": "32",
        "value": "t_mapping(t_address,t_userDefinedValueType(euint32)12)"
      },
      "t_mapping(t_address,t_uint256)": {
        "encoding": "mapping",
        "key": "t_address",
        "label": "mapping(address => uint256)",
        "numberOfBytes": "32",
        "value": "t_uint256"
      },
      "t_mapping(t_address,t_userDefinedValueType(euint32)12)": {
        "encoding": "mapping",
        "key": "t_address",
        "label": "mapping(address => euint32)",
        "numberOfBytes": "32",
        "value": "t_userDefinedValueType(euint32)12"
      },
      "t_mapping(t_bytes32,t_struct(RoleData)8824_storage)": {
        "encoding": "mapping",
        "key": "t_bytes32",
        "label": "mapping(bytes32 => struct AccessControl.RoleData)",
        "numberOfBytes": "32",
        "value": "t_struct(RoleData)8824_storage"
      },
      "t_string_storage": {
        "encoding": "bytes",
        "label": "string",
        "numberOfBytes": "32"
      },
      "t_struct(RoleData)8824_storage": {
        "encoding": "inplace",
        "label": "struct AccessControl.RoleData",
        "members": [
          {
            "astId": 8821,
            "contract": "contracts/ExampleToken.sol:ExampleToken",
            "label": "hasRole",
            "offset": 0,
            "slot": "0",
            "type": "t_mapping(t_address,t_bool)"
          },
          {
            "astId": 8823,
            "contract": "contracts/ExampleToken.sol:ExampleToken",
            "label": "adminRole",
            "offset": 0,
            "slot": "1",
            "type": "t_bytes32"
          }
        ],
        "numberOfBytes": "64"
      },
      "t_uint256": {
        "encoding": "inplace",
        "label": "uint256",
        "numberOfBytes": "32"
      },
      "t_userDefinedValueType(euint32)12": {
        "encoding": "inplace",
        "label": "euint32",
        "numberOfBytes": "32"
      }
    }
  }
}