{
  "address": "0x6251AbD95Dc8270F79e56448C9cBeB6396d54fF6",
  "abi": [
    {
      "inputs": [
        {
          "internalType": "string",
          "name": "name",
          "type": "string"
        },
        {
          "internalType": "string",
          "name": "symbol",
          "type": "string"
        },
        {
          "internalType": "uint256",
          "name": "initialBalance",
          "type": "uint256"
        },
        {
          "components": [
            {
              "internalType": "bytes",
              "name": "data",
              "type": "bytes"
            }
          ],
          "internalType": "struct inEuint32",
          "name": "encryptedBalance",
          "type": "tuple"
        }
      ],
      "stateMutability": "nonpayable",
      "type": "constructor"
    },
    {
      "inputs": [],
      "name": "AccessControlBadConfirmation",
      "type": "error"
    },
    {
      "inputs": [
        {
          "internalType": "address",
          "name": "account",
          "type": "address"
        },
        {
          "internalType": "bytes32",
          "name": "neededRole",
          "type": "bytes32"
        }
      ],
      "name": "AccessControlUnauthorizedAccount",
      "type": "error"
    },
    {
      "inputs": [],
      "name": "ECDSAInvalidSignature",
      "type": "error"
    },
    {
      "inputs": [
        {
          "internalType": "uint256",
          "name": "length",
          "type": "uint256"
        }
      ],
      "name": "ECDSAInvalidSignatureLength",
      "type": "error"
    },
    {
      "inputs": [
        {
          "internalType": "bytes32",
          "name": "s",
          "type": "bytes32"
        }
      ],
      "name": "ECDSAInvalidSignatureS",
      "type": "error"
    },
    {
      "inputs": [
        {
          "internalType": "address",
          "name": "spender",
          "type": "address"
        },
        {
          "internalType": "uint256",
          "name": "allowance",
          "type": "uint256"
        },
        {
          "internalType": "uint256",
          "name": "needed",
          "type": "uint256"
        }
      ],
      "name": "ERC20InsufficientAllowance",
      "type": "error"
    },
    {
      "inputs": [
        {
          "internalType": "address",
          "name": "sender",
          "type": "address"
        },
        {
          "internalType": "uint256",
          "name": "balance",
          "type": "uint256"
        },
        {
          "internalType": "uint256",
          "name": "needed",
          "type": "uint256"
        }
      ],
      "name": "ERC20InsufficientBalance",
      "type": "error"
    },
    {
      "inputs": [
        {
          "internalType": "address",
          "name": "approver",
          "type": "address"
        }
      ],
      "name": "ERC20InvalidApprover",
      "type": "error"
    },
    {
      "inputs": [
        {
          "internalType": "address",
          "name": "receiver",
          "type": "address"
        }
      ],
      "name": "ERC20InvalidReceiver",
      "type": "error"
    },
    {
      "inputs": [
        {
          "internalType": "address",
          "name": "sender",
          "type": "address"
        }
      ],
      "name": "ERC20InvalidSender",
      "type": "error"
    },
    {
      "inputs": [
        {
          "internalType": "address",
          "name": "spender",
          "type": "address"
        }
      ],
      "name": "ERC20InvalidSpender",
      "type": "error"
    },
    {
      "inputs": [],
      "name": "ErrorInsufficientFunds",
      "type": "error"
    },
    {
      "inputs": [],
      "name": "InvalidShortString",
      "type": "error"
    },
    {
      "inputs": [],
      "name": "SignerNotMessageSender",
      "type": "error"
    },
    {
      "inputs": [],
      "name": "SignerNotOwner",
      "type": "error"
    },
    {
      "inputs": [
        {
          "internalType": "string",
          "name": "str",
          "type": "string"
        }
      ],
      "name": "StringTooLong",
      "type": "error"
    },
    {
      "anonymous": false,
      "inputs": [
        {
          "indexed": true,
          "internalType": "address",
          "name": "owner",
          "type": "address"
        },
        {
          "indexed": true,
          "internalType": "address",
          "name": "spender",
          "type": "address"
        },
        {
          "indexed": false,
          "internalType": "uint256",
          "name": "value",
          "type": "uint256"
        }
      ],
      "name": "Approval",
      "type": "event"
    },
    {
      "anonymous": false,
      "inputs": [
        {
          "indexed": true,
          "internalType": "address",
          "name": "owner",
          "type": "address"
        },
        {
          "indexed": true,
          "internalType": "address",
          "name": "spender",
          "type": "address"
        }
      ],
      "name": "ApprovalEncrypted",
      "type": "event"
    },
    {
      "anonymous": false,
      "inputs": [],
      "name": "EIP712DomainChanged",
      "type": "event"
    },
    {
      "anonymous": false,
      "inputs": [
        {
          "indexed": true,
          "internalType": "bytes32",
          "name": "role",
          "type": "bytes32"
        },
        {
          "indexed": true,
          "internalType": "bytes32",
          "name": "previousAdminRole",
          "type": "bytes32"
        },
        {
          "indexed": true,
          "internalType": "bytes32",
          "name": "newAdminRole",
          "type": "bytes32"
        }
      ],
      "name": "RoleAdminChanged",
      "type": "event"
    },
    {
      "anonymous": false,
      "inputs": [
        {
          "indexed": true,
          "internalType": "bytes32",
          "name": "role",
          "type": "bytes32"
        },
        {
          "indexed": true,
          "internalType": "address",
          "name": "account",
          "type": "address"
        },
        {
          "indexed": true,
          "internalType": "address",
          "name": "sender",
          "type": "address"
        }
      ],
      "name": "RoleGranted",
      "type": "event"
    },
    {
      "anonymous": false,
      "inputs": [
        {
          "indexed": true,
          "internalType": "bytes32",
          "name": "role",
          "type": "bytes32"
        },
        {
          "indexed": true,
          "internalType": "address",
          "name": "account",
          "type": "address"
        },
        {
          "indexed": true,
          "internalType": "address",
          "name": "sender",
          "type": "address"
        }
      ],
      "name": "RoleRevoked",
      "type": "event"
    },
    {
      "anonymous": false,
      "inputs": [
        {
          "indexed": true,
          "internalType": "address",
          "name": "from",
          "type": "address"
        },
        {
          "indexed": true,
          "internalType": "address",
          "name": "to",
          "type": "address"
        },
        {
          "indexed": false,
          "internalType": "uint256",
          "name": "value",
          "type": "uint256"
        }
      ],
      "name": "Transfer",
      "type": "event"
    },
    {
      "anonymous": false,
      "inputs": [
        {
          "indexed": true,
          "internalType": "address",
          "name": "from",
          "type": "address"
        },
        {
          "indexed": true,
          "internalType": "address",
          "name": "to",
          "type": "address"
        }
      ],
      "name": "TransferEncrypted",
      "type": "event"
    },
    {
      "inputs": [],
      "name": "DEFAULT_ADMIN_ROLE",
      "outputs": [
        {
          "internalType": "bytes32",
          "name": "",
          "type": "bytes32"
        }
      ],
      "stateMutability": "view",
      "type": "function"
    },
    {
      "inputs": [],
      "name": "MINTER_ROLE",
      "outputs": [
        {
          "internalType": "bytes32",
          "name": "",
          "type": "bytes32"
        }
      ],
      "stateMutability": "view",
      "type": "function"
    },
    {
      "inputs": [
        {
          "internalType": "address",
          "name": "owner",
          "type": "address"
        },
        {
          "internalType": "address",
          "name": "spender",
          "type": "address"
        }
      ],
      "name": "_allowanceEncrypted",
      "outputs": [
        {
          "internalType": "euint32",
          "name": "",
          "type": "uint256"
        }
      ],
      "stateMutability": "view",
      "type": "function"
    },
    {
      "inputs": [
        {
          "internalType": "address",
          "name": "owner",
          "type": "address"
        },
        {
          "internalType": "address",
          "name": "spender",
          "type": "address"
        }
      ],
      "name": "allowance",
      "outputs": [
        {
          "internalType": "uint256",
          "name": "",
          "type": "uint256"
        }
      ],
      "stateMutability": "view",
      "type": "function"
    },
    {
      "inputs": [
        {
          "internalType": "address",
          "name": "spender",
          "type": "address"
        },
        {
          "components": [
            {
              "internalType": "bytes32",
              "name": "publicKey",
              "type": "bytes32"
            },
            {
              "internalType": "bytes",
              "name": "signature",
              "type": "bytes"
            }
          ],
          "internalType": "struct Permission",
          "name": "permission",
          "type": "tuple"
        }
      ],
      "name": "allowanceEncrypted",
      "outputs": [
        {
          "internalType": "bytes",
          "name": "",
          "type": "bytes"
        }
      ],
      "stateMutability": "view",
      "type": "function"
    },
    {
      "inputs": [
        {
          "internalType": "address",
          "name": "spender",
          "type": "address"
        },
        {
          "internalType": "uint256",
          "name": "value",
          "type": "uint256"
        }
      ],
      "name": "approve",
      "outputs": [
        {
          "internalType": "bool",
          "name": "",
          "type": "bool"
        }
      ],
      "stateMutability": "nonpayable",
      "type": "function"
    },
    {
      "inputs": [
        {
          "internalType": "address",
          "name": "spender",
          "type": "address"
        },
        {
          "components": [
            {
              "internalType": "bytes",
              "name": "data",
              "type": "bytes"
            }
          ],
          "internalType": "struct inEuint32",
          "name": "value",
          "type": "tuple"
        }
      ],
      "name": "approveEncrypted",
      "outputs": [
        {
          "internalType": "bool",
          "name": "",
          "type": "bool"
        }
      ],
      "stateMutability": "nonpayable",
      "type": "function"
    },
    {
      "inputs": [
        {
          "internalType": "address",
          "name": "account",
          "type": "address"
        }
      ],
      "name": "balanceOf",
      "outputs": [
        {
          "internalType": "uint256",
          "name": "",
          "type": "uint256"
        }
      ],
      "stateMutability": "view",
      "type": "function"
    },
    {
      "inputs": [
        {
          "internalType": "address",
          "name": "account",
          "type": "address"
        },
        {
          "components": [
            {
              "internalType": "bytes32",
              "name": "publicKey",
              "type": "bytes32"
            },
            {
              "internalType": "bytes",
              "name": "signature",
              "type": "bytes"
            }
          ],
          "internalType": "struct Permission",
          "name": "auth",
          "type": "tuple"
        }
      ],
      "name": "balanceOfEncrypted",
      "outputs": [
        {
          "internalType": "bytes",
          "name": "",
          "type": "bytes"
        }
      ],
      "stateMutability": "view",
      "type": "function"
    },
    {
      "inputs": [],
      "name": "decimals",
      "outputs": [
        {
          "internalType": "uint8",
          "name": "",
          "type": "uint8"
        }
      ],
      "stateMutability": "view",
      "type": "function"
    },
    {
      "inputs": [],
      "name": "eip712Domain",
      "outputs": [
        {
          "internalType": "bytes1",
          "name": "fields",
          "type": "bytes1"
        },
        {
          "internalType": "string",
          "name": "name",
          "type": "string"
        },
        {
          "internalType": "string",
          "name": "version",
          "type": "string"
        },
        {
          "internalType": "uint256",
          "name": "chainId",
          "type": "uint256"
        },
        {
          "internalType": "address",
          "name": "verifyingContract",
          "type": "address"
        },
        {
          "internalType": "bytes32",
          "name": "salt",
          "type": "bytes32"
        },
        {
          "internalType": "uint256[]",
          "name": "extensions",
          "type": "uint256[]"
        }
      ],
      "stateMutability": "view",
      "type": "function"
    },
    {
      "inputs": [
        {
          "internalType": "bytes32",
          "name": "role",
          "type": "bytes32"
        }
      ],
      "name": "getRoleAdmin",
      "outputs": [
        {
          "internalType": "bytes32",
          "name": "",
          "type": "bytes32"
        }
      ],
      "stateMutability": "view",
      "type": "function"
    },
    {
      "inputs": [
        {
          "internalType": "bytes32",
          "name": "role",
          "type": "bytes32"
        },
        {
          "internalType": "address",
          "name": "account",
          "type": "address"
        }
      ],
      "name": "grantRole",
      "outputs": [],
      "stateMutability": "nonpayable",
      "type": "function"
    },
    {
      "inputs": [
        {
          "internalType": "bytes32",
          "name": "role",
          "type": "bytes32"
        },
        {
          "internalType": "address",
          "name": "account",
          "type": "address"
        }
      ],
      "name": "hasRole",
      "outputs": [
        {
          "internalType": "bool",
          "name": "",
          "type": "bool"
        }
      ],
      "stateMutability": "view",
      "type": "function"
    },
    {
      "inputs": [
        {
          "internalType": "address",
          "name": "recipient",
          "type": "address"
        },
        {
          "components": [
            {
              "internalType": "bytes",
              "name": "data",
              "type": "bytes"
            }
          ],
          "internalType": "struct inEuint32",
          "name": "amount",
          "type": "tuple"
        }
      ],
      "name": "mintEncrypted",
      "outputs": [],
      "stateMutability": "nonpayable",
      "type": "function"
    },
    {
      "inputs": [
        {
          "components": [
            {
              "internalType": "bytes",
              "name": "data",
              "type": "bytes"
            }
          ],
          "internalType": "struct inEuint32",
          "name": "amount",
          "type": "tuple"
        }
      ],
      "name": "mintEncryptedDebug",
      "outputs": [],
      "stateMutability": "nonpayable",
      "type": "function"
    },
    {
      "inputs": [],
      "name": "name",
      "outputs": [
        {
          "internalType": "string",
          "name": "",
          "type": "string"
        }
      ],
      "stateMutability": "view",
      "type": "function"
    },
    {
      "inputs": [
        {
          "internalType": "bytes32",
          "name": "role",
          "type": "bytes32"
        },
        {
          "internalType": "address",
          "name": "callerConfirmation",
          "type": "address"
        }
      ],
      "name": "renounceRole",
      "outputs": [],
      "stateMutability": "nonpayable",
      "type": "function"
    },
    {
      "inputs": [
        {
          "internalType": "bytes32",
          "name": "role",
          "type": "bytes32"
        },
        {
          "internalType": "address",
          "name": "account",
          "type": "address"
        }
      ],
      "name": "revokeRole",
      "outputs": [],
      "stateMutability": "nonpayable",
      "type": "function"
    },
    {
      "inputs": [
        {
          "internalType": "bytes4",
          "name": "interfaceId",
          "type": "bytes4"
        }
      ],
      "name": "supportsInterface",
      "outputs": [
        {
          "internalType": "bool",
          "name": "",
          "type": "bool"
        }
      ],
      "stateMutability": "view",
      "type": "function"
    },
    {
      "inputs": [],
      "name": "symbol",
      "outputs": [
        {
          "internalType": "string",
          "name": "",
          "type": "string"
        }
      ],
      "stateMutability": "view",
      "type": "function"
    },
    {
      "inputs": [],
      "name": "totalSupply",
      "outputs": [
        {
          "internalType": "uint256",
          "name": "",
          "type": "uint256"
        }
      ],
      "stateMutability": "view",
      "type": "function"
    },
    {
      "inputs": [
        {
          "internalType": "address",
          "name": "to",
          "type": "address"
        },
        {
          "internalType": "uint256",
          "name": "value",
          "type": "uint256"
        }
      ],
      "name": "transfer",
      "outputs": [
        {
          "internalType": "bool",
          "name": "",
          "type": "bool"
        }
      ],
      "stateMutability": "nonpayable",
      "type": "function"
    },
    {
      "inputs": [
        {
          "internalType": "address",
          "name": "to",
          "type": "address"
        },
        {
          "components": [
            {
              "internalType": "bytes",
              "name": "data",
              "type": "bytes"
            }
          ],
          "internalType": "struct inEuint32",
          "name": "encryptedAmount",
          "type": "tuple"
        }
      ],
      "name": "transferEncrypted",
      "outputs": [
        {
          "internalType": "euint32",
          "name": "",
          "type": "uint256"
        }
      ],
      "stateMutability": "nonpayable",
      "type": "function"
    },
    {
      "inputs": [
        {
          "internalType": "address",
          "name": "to",
          "type": "address"
        },
        {
          "internalType": "euint32",
          "name": "amount",
          "type": "uint256"
        }
      ],
      "name": "transferEncrypted",
      "outputs": [
        {
          "internalType": "euint32",
          "name": "",
          "type": "uint256"
        }
      ],
      "stateMutability": "nonpayable",
      "type": "function"
    },
    {
      "inputs": [
        {
          "internalType": "address",
          "name": "from",
          "type": "address"
        },
        {
          "internalType": "address",
          "name": "to",
          "type": "address"
        },
        {
          "internalType": "uint256",
          "name": "value",
          "type": "uint256"
        }
      ],
      "name": "transferFrom",
      "outputs": [
        {
          "internalType": "bool",
          "name": "",
          "type": "bool"
        }
      ],
      "stateMutability": "nonpayable",
      "type": "function"
    },
    {
      "inputs": [
        {
          "internalType": "address",
          "name": "from",
          "type": "address"
        },
        {
          "internalType": "address",
          "name": "to",
          "type": "address"
        },
        {
          "components": [
            {
              "internalType": "bytes",
              "name": "data",
              "type": "bytes"
            }
          ],
          "internalType": "struct inEuint32",
          "name": "value",
          "type": "tuple"
        }
      ],
      "name": "transferFromEncrypted",
      "outputs": [
        {
          "internalType": "euint32",
          "name": "",
          "type": "uint256"
        }
      ],
      "stateMutability": "nonpayable",
      "type": "function"
    },
    {
      "inputs": [
        {
          "internalType": "address",
          "name": "from",
          "type": "address"
        },
        {
          "internalType": "address",
          "name": "to",
          "type": "address"
        },
        {
          "internalType": "euint32",
          "name": "value",
          "type": "uint256"
        }
      ],
      "name": "transferFromEncrypted",
      "outputs": [
        {
          "internalType": "euint32",
          "name": "",
          "type": "uint256"
        }
      ],
      "stateMutability": "nonpayable",
      "type": "function"
    },
    {
      "inputs": [
        {
          "internalType": "uint32",
          "name": "amount",
          "type": "uint32"
        }
      ],
      "name": "unwrap",
      "outputs": [],
      "stateMutability": "nonpayable",
      "type": "function"
    },
    {
      "inputs": [
        {
          "internalType": "uint32",
          "name": "amount",
          "type": "uint32"
        }
      ],
      "name": "wrap",
      "outputs": [],
      "stateMutability": "nonpayable",
      "type": "function"
    }
  ],
  "transactionHash": "0xeb8c8dcf8d6c3eb0019e4b704f58d0cc7e5fd76ffe7ec8d4df82f0719dc6dafb",
  "args": [
    "token",
    "FHE",
    10000000,
    {
      "data": {
        "0": 4,
        "1": 8,
        "2": 0,
        "3": 0,
        "4": 0,
        "5": 0,
        "6": 0,
        "7": 0,
        "8": 60,
        "9": 101,
        "10": 3,
        "11": 168,
        "12": 123,
        "13": 204,
        "14": 14,
        "15": 206,
        "16": 85,
        "17": 179,
        "18": 14,
        "19": 78,
        "20": 34,
        "21": 197,
        "22": 225,
        "23": 89,
        "24": 37,
        "25": 82,
        "26": 215,
        "27": 100,
        "28": 77,
        "29": 29,
        "30": 230,
        "31": 230,
        "32": 52,
        "33": 145,
        "34": 198,
        "35": 2,
        "36": 188,
        "37": 175,
        "38": 199,
        "39": 175,
        "40": 104,
        "41": 109,
        "42": 38,
        "43": 252,
        "44": 248,
        "45": 24,
        "46": 128,
        "47": 94,
        "48": 50,
        "49": 55,
        "50": 148,
        "51": 57,
        "52": 68,
        "53": 191,
        "54": 8,
        "55": 164,
        "56": 214,
        "57": 128,
        "58": 46,
        "59": 173,
        "60": 53,
        "61": 174,
        "62": 110,
        "63": 85,
        "64": 60,
        "65": 75,
        "66": 238,
        "67": 92,
        "68": 1,
        "69": 209,
        "70": 97,
        "71": 21,
        "72": 193,
        "73": 194,
        "74": 191,
        "75": 45,
        "76": 231,
        "77": 197,
        "78": 97,
        "79": 243,
        "80": 197,
        "81": 71,
        "82": 88,
        "83": 112,
        "84": 160,
        "85": 160,
        "86": 89,
        "87": 75,
        "88": 125,
        "89": 51,
        "90": 117,
        "91": 142,
        "92": 147,
        "93": 150,
        "94": 21,
        "95": 160,
        "96": 63,
        "97": 80,
        "98": 201,
        "99": 249,
        "100": 100,
        "101": 115,
        "102": 26,
        "103": 205,
        "104": 244,
        "105": 243,
        "106": 28,
        "107": 127,
        "108": 41,
        "109": 51,
        "110": 198,
        "111": 72,
        "112": 38,
        "113": 124,
        "114": 165,
        "115": 192,
        "116": 249,
        "117": 46,
        "118": 169,
        "119": 190,
        "120": 75,
        "121": 177,
        "122": 95,
        "123": 50,
        "124": 240,
        "125": 59,
        "126": 217,
        "127": 230,
        "128": 75,
        "129": 251,
        "130": 100,
        "131": 8,
        "132": 108,
        "133": 136,
        "134": 173,
        "135": 224,
        "136": 171,
        "137": 18,
        "138": 120,
        "139": 44,
        "140": 20,
        "141": 164,
        "142": 135,
        "143": 98,
        "144": 205,
        "145": 157,
        "146": 153,
        "147": 212,
        "148": 249,
        "149": 165,
        "150": 14,
        "151": 64,
        "152": 32,
        "153": 118,
        "154": 238,
        "155": 61,
        "156": 87,
        "157": 211,
        "158": 245,
        "159": 194,
        "160": 60,
        "161": 149,
        "162": 72,
        "163": 181,
        "164": 116,
        "165": 166,
        "166": 119,
        "167": 109,
        "168": 124,
        "169": 184,
        "170": 248,
        "171": 178,
        "172": 63,
        "173": 213,
        "174": 127,
        "175": 75,
        "176": 216,
        "177": 61,
        "178": 201,
        "179": 129,
        "180": 220,
        "181": 105,
        "182": 39,
        "183": 95,
        "184": 142,
        "185": 144,
        "186": 110,
        "187": 251,
        "188": 241,
        "189": 234,
        "190": 62,
        "191": 16,
        "192": 52,
        "193": 88,
        "194": 255,
        "195": 69,
        "196": 11,
        "197": 132,
        "198": 110,
        "199": 1,
        "200": 126,
        "201": 149,
        "202": 222,
        "203": 229,
        "204": 130,
        "205": 231,
        "206": 174,
        "207": 219,
        "208": 233,
        "209": 112,
        "210": 165,
        "211": 76,
        "212": 51,
        "213": 7,
        "214": 33,
        "215": 153,
        "216": 30,
        "217": 50,
        "218": 136,
        "219": 245,
        "220": 99,
        "221": 199,
        "222": 86,
        "223": 93,
        "224": 254,
        "225": 222,
        "226": 151,
        "227": 75,
        "228": 131,
        "229": 99,
        "230": 85,
        "231": 236,
        "232": 23,
        "233": 82,
        "234": 28,
        "235": 187,
        "236": 215,
        "237": 52,
        "238": 193,
        "239": 177,
        "240": 94,
        "241": 81,
        "242": 197,
        "243": 142,
        "244": 60,
        "245": 100,
        "246": 153,
        "247": 64,
        "248": 48,
        "249": 194,
        "250": 134,
        "251": 157,
        "252": 142,
        "253": 4,
        "254": 200,
        "255": 71,
        "256": 233,
        "257": 222,
        "258": 142,
        "259": 95,
        "260": 73,
        "261": 245,
        "262": 227,
        "263": 2,
        "264": 178,
        "265": 67,
        "266": 243,
        "267": 204,
        "268": 173,
        "269": 145,
        "270": 84,
        "271": 91,
        "272": 50,
        "273": 232,
        "274": 204,
        "275": 220,
        "276": 56,
        "277": 28,
        "278": 33,
        "279": 27,
        "280": 28,
        "281": 19,
        "282": 88,
        "283": 64,
        "284": 172,
        "285": 231,
        "286": 59,
        "287": 91,
        "288": 8,
        "289": 86,
        "290": 82,
        "291": 147,
        "292": 48,
        "293": 124,
        "294": 73,
        "295": 21,
        "296": 172,
        "297": 167,
        "298": 75,
        "299": 200,
        "300": 48,
        "301": 133,
        "302": 5,
        "303": 222,
        "304": 120,
        "305": 154,
        "306": 127,
        "307": 230,
        "308": 99,
        "309": 235,
        "310": 11,
        "311": 227,
        "312": 97,
        "313": 96,
        "314": 155,
        "315": 62,
        "316": 214,
        "317": 60,
        "318": 122,
        "319": 100,
        "320": 162,
        "321": 189,
        "322": 233,
        "323": 0,
        "324": 92,
        "325": 145,
        "326": 97,
        "327": 126,
        "328": 64,
        "329": 249,
        "330": 116,
        "331": 5,
        "332": 41,
        "333": 106,
        "334": 131,
        "335": 104,
        "336": 193,
        "337": 103,
        "338": 232,
        "339": 34,
        "340": 234,
        "341": 195,
        "342": 104,
        "343": 157,
        "344": 15,
        "345": 154,
        "346": 180,
        "347": 54,
        "348": 201,
        "349": 208,
        "350": 9,
        "351": 134,
        "352": 242,
        "353": 117,
        "354": 25,
        "355": 28,
        "356": 225,
        "357": 208,
        "358": 176,
        "359": 130,
        "360": 201,
        "361": 70,
        "362": 120,
        "363": 62,
        "364": 241,
        "365": 53,
        "366": 119,
        "367": 242,
        "368": 116,
        "369": 126,
        "370": 193,
        "371": 63,
        "372": 238,
        "373": 118,
        "374": 194,
        "375": 192,
        "376": 63,
        "377": 127,
        "378": 20,
        "379": 80,
        "380": 32,
        "381": 214,
        "382": 157,
        "383": 86,
        "384": 231,
        "385": 161,
        "386": 114,
        "387": 13,
        "388": 250,
        "389": 213,
        "390": 170,
        "391": 107,
        "392": 71,
        "393": 157,
        "394": 226,
        "395": 69,
        "396": 234,
        "397": 46,
        "398": 65,
        "399": 133,
        "400": 230,
        "401": 128,
        "402": 188,
        "403": 219,
        "404": 72,
        "405": 190,
        "406": 194,
        "407": 112,
        "408": 247,
        "409": 150,
        "410": 209,
        "411": 21,
        "412": 211,
        "413": 98,
        "414": 228,
        "415": 176,
        "416": 255,
        "417": 206,
        "418": 163,
        "419": 18,
        "420": 83,
        "421": 130,
        "422": 182,
        "423": 103,
        "424": 167,
        "425": 56,
        "426": 88,
        "427": 42,
        "428": 210,
        "429": 62,
        "430": 28,
        "431": 203,
        "432": 164,
        "433": 97,
        "434": 117,
        "435": 206,
        "436": 154,
        "437": 195,
        "438": 176,
        "439": 188,
        "440": 185,
        "441": 213,
        "442": 208,
        "443": 229,
        "444": 138,
        "445": 95,
        "446": 18,
        "447": 58,
        "448": 76,
        "449": 69,
        "450": 110,
        "451": 17,
        "452": 238,
        "453": 71,
        "454": 223,
        "455": 226,
        "456": 151,
        "457": 254,
        "458": 243,
        "459": 71,
        "460": 102,
        "461": 42,
        "462": 41,
        "463": 91,
        "464": 215,
        "465": 13,
        "466": 43,
        "467": 30,
        "468": 225,
        "469": 7,
        "470": 168,
        "471": 79,
        "472": 181,
        "473": 115,
        "474": 84,
        "475": 108,
        "476": 220,
        "477": 120,
        "478": 29,
        "479": 26,
        "480": 141,
        "481": 211,
        "482": 173,
        "483": 28,
        "484": 201,
        "485": 114,
        "486": 188,
        "487": 103,
        "488": 7,
        "489": 202,
        "490": 183,
        "491": 111,
        "492": 116,
        "493": 19,
        "494": 23,
        "495": 78,
        "496": 208,
        "497": 143,
        "498": 66,
        "499": 222,
        "500": 165,
        "501": 167,
        "502": 94,
        "503": 5,
        "504": 131,
        "505": 92,
        "506": 20,
        "507": 81,
        "508": 38,
        "509": 242,
        "510": 90,
        "511": 2,
        "512": 192,
        "513": 214,
        "514": 81,
        "515": 240,
        "516": 109,
        "517": 64,
        "518": 186,
        "519": 85,
        "520": 120,
        "521": 245,
        "522": 98,
        "523": 71,
        "524": 209,
        "525": 174,
        "526": 44,
        "527": 147,
        "528": 232,
        "529": 150,
        "530": 24,
        "531": 0,
        "532": 205,
        "533": 108,
        "534": 228,
        "535": 27,
        "536": 239,
        "537": 23,
        "538": 111,
        "539": 150,
        "540": 124,
        "541": 196,
        "542": 138,
        "543": 10,
        "544": 66,
        "545": 48,
        "546": 73,
        "547": 20,
        "548": 116,
        "549": 243,
        "550": 156,
        "551": 214,
        "552": 58,
        "553": 94,
        "554": 56,
        "555": 192,
        "556": 141,
        "557": 30,
        "558": 59,
        "559": 25,
        "560": 236,
        "561": 69,
        "562": 26,
        "563": 15,
        "564": 103,
        "565": 70,
        "566": 123,
        "567": 102,
        "568": 252,
        "569": 236,
        "570": 89,
        "571": 110,
        "572": 230,
        "573": 83,
        "574": 101,
        "575": 163,
        "576": 172,
        "577": 84,
        "578": 6,
        "579": 220,
        "580": 145,
        "581": 58,
        "582": 235,
        "583": 88,
        "584": 18,
        "585": 33,
        "586": 138,
        "587": 54,
        "588": 60,
        "589": 124,
        "590": 114,
        "591": 137,
        "592": 1,
        "593": 238,
        "594": 229,
        "595": 194,
        "596": 225,
        "597": 116,
        "598": 105,
        "599": 126,
        "600": 207,
        "601": 9,
        "602": 139,
        "603": 93,
        "604": 83,
        "605": 111,
        "606": 199,
        "607": 178,
        "608": 135,
        "609": 59,
        "610": 240,
        "611": 122,
        "612": 241,
        "613": 227,
        "614": 48,
        "615": 240,
        "616": 115,
        "617": 165,
        "618": 110,
        "619": 145,
        "620": 110,
        "621": 127,
        "622": 105,
        "623": 135,
        "624": 60,
        "625": 208,
        "626": 68,
        "627": 224,
        "628": 85,
        "629": 236,
        "630": 96,
        "631": 231,
        "632": 235,
        "633": 161,
        "634": 35,
        "635": 139,
        "636": 112,
        "637": 128,
        "638": 129,
        "639": 187,
        "640": 13,
        "641": 79,
        "642": 125,
        "643": 104,
        "644": 24,
        "645": 116,
        "646": 189,
        "647": 9,
        "648": 162,
        "649": 194,
        "650": 152,
        "651": 141,
        "652": 167,
        "653": 163,
        "654": 221,
        "655": 77,
        "656": 102,
        "657": 151,
        "658": 77,
        "659": 196,
        "660": 64,
        "661": 156,
        "662": 183,
        "663": 121,
        "664": 195,
        "665": 48,
        "666": 100,
        "667": 243,
        "668": 24,
        "669": 11,
        "670": 222,
        "671": 177,
        "672": 207,
        "673": 204,
        "674": 238,
        "675": 103,
        "676": 89,
        "677": 44,
        "678": 35,
        "679": 242,
        "680": 5,
        "681": 50,
        "682": 0,
        "683": 145,
        "684": 34,
        "685": 142,
        "686": 32,
        "687": 45,
        "688": 228,
        "689": 8,
        "690": 27,
        "691": 231,
        "692": 144,
        "693": 46,
        "694": 125,
        "695": 217,
        "696": 14,
        "697": 198,
        "698": 174,
        "699": 76,
        "700": 71,
        "701": 81,
        "702": 117,
        "703": 86,
        "704": 57,
        "705": 80,
        "706": 167,
        "707": 188,
        "708": 180,
        "709": 165,
        "710": 185,
        "711": 65,
        "712": 19,
        "713": 92,
        "714": 188,
        "715": 2,
        "716": 214,
        "717": 22,
        "718": 254,
        "719": 105,
        "720": 111,
        "721": 45,
        "722": 97,
        "723": 221,
        "724": 141,
        "725": 227,
        "726": 158,
        "727": 208,
        "728": 74,
        "729": 217,
        "730": 32,
        "731": 194,
        "732": 102,
        "733": 66,
        "734": 216,
        "735": 57,
        "736": 122,
        "737": 83,
        "738": 163,
        "739": 130,
        "740": 218,
        "741": 169,
        "742": 69,
        "743": 163,
        "744": 163,
        "745": 89,
        "746": 75,
        "747": 255,
        "748": 50,
        "749": 111,
        "750": 92,
        "751": 239,
        "752": 210,
        "753": 64,
        "754": 138,
        "755": 60,
        "756": 163,
        "757": 182,
        "758": 165,
        "759": 31,
        "760": 6,
        "761": 115,
        "762": 216,
        "763": 29,
        "764": 207,
        "765": 112,
        "766": 77,
        "767": 162,
        "768": 102,
        "769": 203,
        "770": 35,
        "771": 232,
        "772": 127,
        "773": 0,
        "774": 132,
        "775": 114,
        "776": 123,
        "777": 181,
        "778": 154,
        "779": 39,
        "780": 153,
        "781": 66,
        "782": 143,
        "783": 175,
        "784": 100,
        "785": 114,
        "786": 153,
        "787": 101,
        "788": 200,
        "789": 110,
        "790": 123,
        "791": 168,
        "792": 162,
        "793": 64,
        "794": 134,
        "795": 125,
        "796": 209,
        "797": 242,
        "798": 249,
        "799": 235,
        "800": 159,
        "801": 123,
        "802": 247,
        "803": 147,
        "804": 149,
        "805": 98,
        "806": 244,
        "807": 172,
        "808": 80,
        "809": 238,
        "810": 69,
        "811": 100,
        "812": 190,
        "813": 104,
        "814": 66,
        "815": 168,
        "816": 166,
        "817": 1,
        "818": 90,
        "819": 20,
        "820": 205,
        "821": 17,
        "822": 96,
        "823": 138,
        "824": 136,
        "825": 231,
        "826": 18,
        "827": 106,
        "828": 119,
        "829": 198,
        "830": 166,
        "831": 157,
        "832": 212,
        "833": 220,
        "834": 110,
        "835": 46,
        "836": 33,
        "837": 137,
        "838": 190,
        "839": 72,
        "840": 125,
        "841": 10,
        "842": 110,
        "843": 135,
        "844": 133,
        "845": 164,
        "846": 100,
        "847": 216,
        "848": 112,
        "849": 15,
        "850": 72,
        "851": 45,
        "852": 103,
        "853": 23,
        "854": 121,
        "855": 206,
        "856": 82,
        "857": 109,
        "858": 45,
        "859": 249,
        "860": 130,
        "861": 190,
        "862": 57,
        "863": 8,
        "864": 59,
        "865": 109,
        "866": 51,
        "867": 167,
        "868": 33,
        "869": 93,
        "870": 102,
        "871": 13,
        "872": 220,
        "873": 91,
        "874": 85,
        "875": 28,
        "876": 66,
        "877": 141,
        "878": 120,
        "879": 120,
        "880": 51,
        "881": 254,
        "882": 63,
        "883": 4,
        "884": 128,
        "885": 108,
        "886": 78,
        "887": 236,
        "888": 204,
        "889": 126,
        "890": 156,
        "891": 194,
        "892": 26,
        "893": 204,
        "894": 200,
        "895": 42,
        "896": 31,
        "897": 251,
        "898": 145,
        "899": 168,
        "900": 230,
        "901": 7,
        "902": 25,
        "903": 116,
        "904": 214,
        "905": 122,
        "906": 133,
        "907": 215,
        "908": 211,
        "909": 155,
        "910": 190,
        "911": 100,
        "912": 62,
        "913": 71,
        "914": 190,
        "915": 71,
        "916": 217,
        "917": 26,
        "918": 251,
        "919": 30,
        "920": 18,
        "921": 234,
        "922": 183,
        "923": 87,
        "924": 161,
        "925": 81,
        "926": 238,
        "927": 23,
        "928": 241,
        "929": 235,
        "930": 85,
        "931": 43,
        "932": 229,
        "933": 208,
        "934": 85,
        "935": 8,
        "936": 107,
        "937": 85,
        "938": 84,
        "939": 192,
        "940": 242,
        "941": 158,
        "942": 115,
        "943": 143,
        "944": 117,
        "945": 47,
        "946": 147,
        "947": 99,
        "948": 105,
        "949": 71,
        "950": 254,
        "951": 184,
        "952": 83,
        "953": 177,
        "954": 71,
        "955": 213,
        "956": 115,
        "957": 34,
        "958": 200,
        "959": 92,
        "960": 203,
        "961": 135,
        "962": 129,
        "963": 231,
        "964": 77,
        "965": 177,
        "966": 1,
        "967": 37,
        "968": 3,
        "969": 160,
        "970": 73,
        "971": 227,
        "972": 117,
        "973": 76,
        "974": 2,
        "975": 116,
        "976": 34,
        "977": 29,
        "978": 247,
        "979": 87,
        "980": 220,
        "981": 126,
        "982": 153,
        "983": 235,
        "984": 178,
        "985": 114,
        "986": 131,
        "987": 133,
        "988": 120,
        "989": 163,
        "990": 106,
        "991": 202,
        "992": 199,
        "993": 53,
        "994": 158,
        "995": 180,
        "996": 16,
        "997": 220,
        "998": 1,
        "999": 9,
        "1000": 213,
        "1001": 215,
        "1002": 4,
        "1003": 18,
        "1004": 50,
        "1005": 178,
        "1006": 171,
        "1007": 55,
        "1008": 252,
        "1009": 5,
        "1010": 152,
        "1011": 206,
        "1012": 37,
        "1013": 192,
        "1014": 178,
        "1015": 157,
        "1016": 83,
        "1017": 178,
        "1018": 102,
        "1019": 109,
        "1020": 228,
        "1021": 36,
        "1022": 105,
        "1023": 226,
        "1024": 57,
        "1025": 87,
        "1026": 144,
        "1027": 168,
        "1028": 29,
        "1029": 53,
        "1030": 85,
        "1031": 253,
        "1032": 95,
        "1033": 211,
        "1034": 238,
        "1035": 221,
        "1036": 236,
        "1037": 25,
        "1038": 171,
        "1039": 109,
        "1040": 166,
        "1041": 98,
        "1042": 60,
        "1043": 49,
        "1044": 92,
        "1045": 148,
        "1046": 243,
        "1047": 8,
        "1048": 113,
        "1049": 96,
        "1050": 50,
        "1051": 5,
        "1052": 102,
        "1053": 22,
        "1054": 234,
        "1055": 15,
        "1056": 126,
        "1057": 251,
        "1058": 148,
        "1059": 203,
        "1060": 190,
        "1061": 246,
        "1062": 223,
        "1063": 31,
        "1064": 238,
        "1065": 167,
        "1066": 54,
        "1067": 98,
        "1068": 200,
        "1069": 180,
        "1070": 27,
        "1071": 191,
        "1072": 122,
        "1073": 148,
        "1074": 70,
        "1075": 253,
        "1076": 194,
        "1077": 151,
        "1078": 106,
        "1079": 170,
        "1080": 87,
        "1081": 17,
        "1082": 101,
        "1083": 38,
        "1084": 115,
        "1085": 162,
        "1086": 94,
        "1087": 126,
        "1088": 118,
        "1089": 134,
        "1090": 107,
        "1091": 1,
        "1092": 85,
        "1093": 80,
        "1094": 213,
        "1095": 13,
        "1096": 6,
        "1097": 82,
        "1098": 35,
        "1099": 87,
        "1100": 120,
        "1101": 11,
        "1102": 229,
        "1103": 215,
        "1104": 201,
        "1105": 109,
        "1106": 118,
        "1107": 233,
        "1108": 54,
        "1109": 88,
        "1110": 206,
        "1111": 145,
        "1112": 222,
        "1113": 86,
        "1114": 148,
        "1115": 47,
        "1116": 56,
        "1117": 117,
        "1118": 239,
        "1119": 2,
        "1120": 60,
        "1121": 37,
        "1122": 106,
        "1123": 237,
        "1124": 153,
        "1125": 65,
        "1126": 23,
        "1127": 125,
        "1128": 164,
        "1129": 229,
        "1130": 24,
        "1131": 84,
        "1132": 68,
        "1133": 139,
        "1134": 169,
        "1135": 185,
        "1136": 175,
        "1137": 182,
        "1138": 152,
        "1139": 194,
        "1140": 153,
        "1141": 148,
        "1142": 112,
        "1143": 114,
        "1144": 103,
        "1145": 43,
        "1146": 29,
        "1147": 179,
        "1148": 56,
        "1149": 88,
        "1150": 93,
        "1151": 215,
        "1152": 136,
        "1153": 180,
        "1154": 180,
        "1155": 210,
        "1156": 196,
        "1157": 245,
        "1158": 74,
        "1159": 210,
        "1160": 218,
        "1161": 216,
        "1162": 112,
        "1163": 171,
        "1164": 119,
        "1165": 34,
        "1166": 145,
        "1167": 203,
        "1168": 121,
        "1169": 217,
        "1170": 146,
        "1171": 119,
        "1172": 64,
        "1173": 159,
        "1174": 33,
        "1175": 218,
        "1176": 71,
        "1177": 119,
        "1178": 71,
        "1179": 101,
        "1180": 198,
        "1181": 7,
        "1182": 73,
        "1183": 46,
        "1184": 81,
        "1185": 105,
        "1186": 33,
        "1187": 114,
        "1188": 101,
        "1189": 251,
        "1190": 191,
        "1191": 248,
        "1192": 87,
        "1193": 73,
        "1194": 207,
        "1195": 181,
        "1196": 206,
        "1197": 124,
        "1198": 169,
        "1199": 91,
        "1200": 64,
        "1201": 61,
        "1202": 189,
        "1203": 52,
        "1204": 250,
        "1205": 156,
        "1206": 63,
        "1207": 134,
        "1208": 252,
        "1209": 178,
        "1210": 24,
        "1211": 184,
        "1212": 200,
        "1213": 199,
        "1214": 195,
        "1215": 236,
        "1216": 117,
        "1217": 248,
        "1218": 229,
        "1219": 93,
        "1220": 153,
        "1221": 73,
        "1222": 129,
        "1223": 42,
        "1224": 55,
        "1225": 123,
        "1226": 83,
        "1227": 191,
        "1228": 137,
        "1229": 33,
        "1230": 234,
        "1231": 240,
        "1232": 232,
        "1233": 195,
        "1234": 10,
        "1235": 80,
        "1236": 39,
        "1237": 202,
        "1238": 139,
        "1239": 54,
        "1240": 152,
        "1241": 41,
        "1242": 239,
        "1243": 215,
        "1244": 65,
        "1245": 58,
        "1246": 1,
        "1247": 223,
        "1248": 186,
        "1249": 11,
        "1250": 240,
        "1251": 154,
        "1252": 7,
        "1253": 138,
        "1254": 236,
        "1255": 20,
        "1256": 80,
        "1257": 38,
        "1258": 26,
        "1259": 127,
        "1260": 191,
        "1261": 10,
        "1262": 164,
        "1263": 30,
        "1264": 58,
        "1265": 241,
        "1266": 175,
        "1267": 143,
        "1268": 190,
        "1269": 65,
        "1270": 104,
        "1271": 48,
        "1272": 232,
        "1273": 123,
        "1274": 233,
        "1275": 62,
        "1276": 63,
        "1277": 134,
        "1278": 132,
        "1279": 242,
        "1280": 129,
        "1281": 123,
        "1282": 170,
        "1283": 175,
        "1284": 157,
        "1285": 118,
        "1286": 115,
        "1287": 228,
        "1288": 248,
        "1289": 243,
        "1290": 249,
        "1291": 152,
        "1292": 120,
        "1293": 30,
        "1294": 206,
        "1295": 52,
        "1296": 100,
        "1297": 62,
        "1298": 81,
        "1299": 6,
        "1300": 50,
        "1301": 25,
        "1302": 229,
        "1303": 34,
        "1304": 59,
        "1305": 106,
        "1306": 131,
        "1307": 235,
        "1308": 217,
        "1309": 158,
        "1310": 144,
        "1311": 151,
        "1312": 232,
        "1313": 103,
        "1314": 186,
        "1315": 127,
        "1316": 116,
        "1317": 97,
        "1318": 93,
        "1319": 59,
        "1320": 234,
        "1321": 225,
        "1322": 173,
        "1323": 172,
        "1324": 80,
        "1325": 234,
        "1326": 94,
        "1327": 59,
        "1328": 229,
        "1329": 221,
        "1330": 3,
        "1331": 163,
        "1332": 130,
        "1333": 222,
        "1334": 13,
        "1335": 8,
        "1336": 113,
        "1337": 177,
        "1338": 0,
        "1339": 248,
        "1340": 97,
        "1341": 145,
        "1342": 235,
        "1343": 10,
        "1344": 245,
        "1345": 228,
        "1346": 139,
        "1347": 200,
        "1348": 36,
        "1349": 161,
        "1350": 158,
        "1351": 162,
        "1352": 202,
        "1353": 34,
        "1354": 187,
        "1355": 115,
        "1356": 131,
        "1357": 20,
        "1358": 90,
        "1359": 196,
        "1360": 29,
        "1361": 110,
        "1362": 195,
        "1363": 168,
        "1364": 12,
        "1365": 247,
        "1366": 138,
        "1367": 7,
        "1368": 218,
        "1369": 239,
        "1370": 163,
        "1371": 210,
        "1372": 14,
        "1373": 20,
        "1374": 75,
        "1375": 95,
        "1376": 6,
        "1377": 26,
        "1378": 81,
        "1379": 31,
        "1380": 236,
        "1381": 145,
        "1382": 88,
        "1383": 77,
        "1384": 90,
        "1385": 186,
        "1386": 205,
        "1387": 210,
        "1388": 109,
        "1389": 63,
        "1390": 128,
        "1391": 69,
        "1392": 154,
        "1393": 96,
        "1394": 202,
        "1395": 92,
        "1396": 166,
        "1397": 55,
        "1398": 50,
        "1399": 148,
        "1400": 168,
        "1401": 35,
        "1402": 223,
        "1403": 249,
        "1404": 32,
        "1405": 15,
        "1406": 119,
        "1407": 32,
        "1408": 86,
        "1409": 14,
        "1410": 142,
        "1411": 185,
        "1412": 159,
        "1413": 85,
        "1414": 141,
        "1415": 78,
        "1416": 228,
        "1417": 239,
        "1418": 68,
        "1419": 20,
        "1420": 245,
        "1421": 47,
        "1422": 245,
        "1423": 214,
        "1424": 68,
        "1425": 39,
        "1426": 192,
        "1427": 227,
        "1428": 122,
        "1429": 97,
        "1430": 59,
        "1431": 145,
        "1432": 242,
        "1433": 106,
        "1434": 69,
        "1435": 175,
        "1436": 83,
        "1437": 107,
        "1438": 31,
        "1439": 234,
        "1440": 225,
        "1441": 241,
        "1442": 199,
        "1443": 41,
        "1444": 6,
        "1445": 96,
        "1446": 250,
        "1447": 213,
        "1448": 49,
        "1449": 136,
        "1450": 7,
        "1451": 195,
        "1452": 139,
        "1453": 194,
        "1454": 76,
        "1455": 244,
        "1456": 183,
        "1457": 102,
        "1458": 194,
        "1459": 82,
        "1460": 34,
        "1461": 142,
        "1462": 101,
        "1463": 99,
        "1464": 200,
        "1465": 239,
        "1466": 190,
        "1467": 2,
        "1468": 162,
        "1469": 7,
        "1470": 115,
        "1471": 25,
        "1472": 159,
        "1473": 150,
        "1474": 67,
        "1475": 240,
        "1476": 127,
        "1477": 196,
        "1478": 213,
        "1479": 103,
        "1480": 229,
        "1481": 227,
        "1482": 35,
        "1483": 18,
        "1484": 251,
        "1485": 103,
        "1486": 228,
        "1487": 25,
        "1488": 79,
        "1489": 142,
        "1490": 138,
        "1491": 9,
        "1492": 252,
        "1493": 200,
        "1494": 248,
        "1495": 162,
        "1496": 39,
        "1497": 104,
        "1498": 250,
        "1499": 230,
        "1500": 226,
        "1501": 243,
        "1502": 245,
        "1503": 129,
        "1504": 79,
        "1505": 226,
        "1506": 27,
        "1507": 53,
        "1508": 111,
        "1509": 10,
        "1510": 227,
        "1511": 225,
        "1512": 136,
        "1513": 185,
        "1514": 216,
        "1515": 182,
        "1516": 103,
        "1517": 35,
        "1518": 100,
        "1519": 225,
        "1520": 73,
        "1521": 72,
        "1522": 61,
        "1523": 252,
        "1524": 110,
        "1525": 21,
        "1526": 41,
        "1527": 17,
        "1528": 235,
        "1529": 53,
        "1530": 157,
        "1531": 240,
        "1532": 153,
        "1533": 29,
        "1534": 37,
        "1535": 37,
        "1536": 211,
        "1537": 87,
        "1538": 82,
        "1539": 23,
        "1540": 32,
        "1541": 23,
        "1542": 181,
        "1543": 230,
        "1544": 218,
        "1545": 87,
        "1546": 55,
        "1547": 58,
        "1548": 107,
        "1549": 206,
        "1550": 124,
        "1551": 126,
        "1552": 95,
        "1553": 121,
        "1554": 166,
        "1555": 12,
        "1556": 80,
        "1557": 45,
        "1558": 194,
        "1559": 8,
        "1560": 66,
        "1561": 25,
        "1562": 29,
        "1563": 36,
        "1564": 112,
        "1565": 127,
        "1566": 236,
        "1567": 61,
        "1568": 172,
        "1569": 224,
        "1570": 3,
        "1571": 111,
        "1572": 220,
        "1573": 207,
        "1574": 137,
        "1575": 226,
        "1576": 190,
        "1577": 6,
        "1578": 250,
        "1579": 122,
        "1580": 99,
        "1581": 248,
        "1582": 100,
        "1583": 115,
        "1584": 188,
        "1585": 40,
        "1586": 162,
        "1587": 47,
        "1588": 77,
        "1589": 146,
        "1590": 145,
        "1591": 144,
        "1592": 171,
        "1593": 92,
        "1594": 66,
        "1595": 250,
        "1596": 51,
        "1597": 170,
        "1598": 244,
        "1599": 127,
        "1600": 60,
        "1601": 119,
        "1602": 228,
        "1603": 136,
        "1604": 86,
        "1605": 158,
        "1606": 244,
        "1607": 124,
        "1608": 27,
        "1609": 134,
        "1610": 144,
        "1611": 84,
        "1612": 204,
        "1613": 132,
        "1614": 192,
        "1615": 254,
        "1616": 251,
        "1617": 29,
        "1618": 77,
        "1619": 14,
        "1620": 203,
        "1621": 72,
        "1622": 57,
        "1623": 33,
        "1624": 98,
        "1625": 163,
        "1626": 163,
        "1627": 130,
        "1628": 69,
        "1629": 164,
        "1630": 137,
        "1631": 191,
        "1632": 190,
        "1633": 199,
        "1634": 71,
        "1635": 40,
        "1636": 249,
        "1637": 163,
        "1638": 64,
        "1639": 70,
        "1640": 249,
        "1641": 235,
        "1642": 216,
        "1643": 156,
        "1644": 167,
        "1645": 3,
        "1646": 160,
        "1647": 234,
        "1648": 96,
        "1649": 150,
        "1650": 167,
        "1651": 90,
        "1652": 92,
        "1653": 215,
        "1654": 157,
        "1655": 153,
        "1656": 130,
        "1657": 69,
        "1658": 193,
        "1659": 187,
        "1660": 164,
        "1661": 75,
        "1662": 49,
        "1663": 32,
        "1664": 77,
        "1665": 178,
        "1666": 45,
        "1667": 194,
        "1668": 50,
        "1669": 207,
        "1670": 71,
        "1671": 15,
        "1672": 147,
        "1673": 195,
        "1674": 112,
        "1675": 11,
        "1676": 59,
        "1677": 69,
        "1678": 250,
        "1679": 65,
        "1680": 10,
        "1681": 214,
        "1682": 37,
        "1683": 58,
        "1684": 229,
        "1685": 38,
        "1686": 185,
        "1687": 205,
        "1688": 19,
        "1689": 78,
        "1690": 175,
        "1691": 179,
        "1692": 176,
        "1693": 146,
        "1694": 74,
        "1695": 248,
        "1696": 209,
        "1697": 133,
        "1698": 32,
        "1699": 63,
        "1700": 167,
        "1701": 246,
        "1702": 158,
        "1703": 36,
        "1704": 162,
        "1705": 203,
        "1706": 217,
        "1707": 169,
        "1708": 255,
        "1709": 172,
        "1710": 59,
        "1711": 55,
        "1712": 42,
        "1713": 240,
        "1714": 54,
        "1715": 78,
        "1716": 142,
        "1717": 100,
        "1718": 39,
        "1719": 45,
        "1720": 51,
        "1721": 70,
        "1722": 137,
        "1723": 166,
        "1724": 240,
        "1725": 103,
        "1726": 116,
        "1727": 200,
        "1728": 209,
        "1729": 198,
        "1730": 163,
        "1731": 118,
        "1732": 92,
        "1733": 123,
        "1734": 99,
        "1735": 3,
        "1736": 213,
        "1737": 52,
        "1738": 202,
        "1739": 247,
        "1740": 5,
        "1741": 212,
        "1742": 156,
        "1743": 163,
        "1744": 249,
        "1745": 97,
        "1746": 87,
        "1747": 215,
        "1748": 6,
        "1749": 177,
        "1750": 1,
        "1751": 91,
        "1752": 173,
        "1753": 14,
        "1754": 233,
        "1755": 19,
        "1756": 137,
        "1757": 100,
        "1758": 115,
        "1759": 183,
        "1760": 92,
        "1761": 165,
        "1762": 216,
        "1763": 239,
        "1764": 37,
        "1765": 180,
        "1766": 23,
        "1767": 175,
        "1768": 161,
        "1769": 100,
        "1770": 44,
        "1771": 208,
        "1772": 19,
        "1773": 69,
        "1774": 199,
        "1775": 125,
        "1776": 235,
        "1777": 5,
        "1778": 92,
        "1779": 185,
        "1780": 59,
        "1781": 52,
        "1782": 161,
        "1783": 239,
        "1784": 244,
        "1785": 16,
        "1786": 20,
        "1787": 5,
        "1788": 39,
        "1789": 110,
        "1790": 100,
        "1791": 29,
        "1792": 138,
        "1793": 170,
        "1794": 249,
        "1795": 156,
        "1796": 29,
        "1797": 213,
        "1798": 189,
        "1799": 250,
        "1800": 11,
        "1801": 97,
        "1802": 107,
        "1803": 76,
        "1804": 56,
        "1805": 76,
        "1806": 6,
        "1807": 242,
        "1808": 218,
        "1809": 48,
        "1810": 231,
        "1811": 165,
        "1812": 222,
        "1813": 2,
        "1814": 235,
        "1815": 142,
        "1816": 134,
        "1817": 20,
        "1818": 10,
        "1819": 138,
        "1820": 108,
        "1821": 212,
        "1822": 145,
        "1823": 117,
        "1824": 115,
        "1825": 113,
        "1826": 237,
        "1827": 80,
        "1828": 163,
        "1829": 205,
        "1830": 243,
        "1831": 72,
        "1832": 162,
        "1833": 148,
        "1834": 183,
        "1835": 142,
        "1836": 116,
        "1837": 11,
        "1838": 113,
        "1839": 121,
        "1840": 96,
        "1841": 133,
        "1842": 46,
        "1843": 193,
        "1844": 80,
        "1845": 76,
        "1846": 120,
        "1847": 119,
        "1848": 176,
        "1849": 54,
        "1850": 39,
        "1851": 242,
        "1852": 18,
        "1853": 42,
        "1854": 28,
        "1855": 133,
        "1856": 134,
        "1857": 114,
        "1858": 242,
        "1859": 21,
        "1860": 213,
        "1861": 8,
        "1862": 151,
        "1863": 134,
        "1864": 111,
        "1865": 225,
        "1866": 80,
        "1867": 93,
        "1868": 21,
        "1869": 77,
        "1870": 17,
        "1871": 194,
        "1872": 114,
        "1873": 110,
        "1874": 96,
        "1875": 83,
        "1876": 35,
        "1877": 109,
        "1878": 19,
        "1879": 236,
        "1880": 15,
        "1881": 108,
        "1882": 113,
        "1883": 48,
        "1884": 206,
        "1885": 254,
        "1886": 151,
        "1887": 54,
        "1888": 228,
        "1889": 104,
        "1890": 171,
        "1891": 170,
        "1892": 6,
        "1893": 99,
        "1894": 110,
        "1895": 112,
        "1896": 128,
        "1897": 122,
        "1898": 122,
        "1899": 16,
        "1900": 219,
        "1901": 201,
        "1902": 58,
        "1903": 66,
        "1904": 34,
        "1905": 197,
        "1906": 254,
        "1907": 192,
        "1908": 150,
        "1909": 78,
        "1910": 219,
        "1911": 196,
        "1912": 78,
        "1913": 136,
        "1914": 139,
        "1915": 170,
        "1916": 139,
        "1917": 145,
        "1918": 6,
        "1919": 40,
        "1920": 60,
        "1921": 192,
        "1922": 171,
        "1923": 17,
        "1924": 240,
        "1925": 50,
        "1926": 125,
        "1927": 29,
        "1928": 201,
        "1929": 106,
        "1930": 24,
        "1931": 43,
        "1932": 234,
        "1933": 103,
        "1934": 3,
        "1935": 62,
        "1936": 178,
        "1937": 4,
        "1938": 193,
        "1939": 168,
        "1940": 34,
        "1941": 21,
        "1942": 94,
        "1943": 41,
        "1944": 58,
        "1945": 12,
        "1946": 54,
        "1947": 112,
        "1948": 203,
        "1949": 238,
        "1950": 129,
        "1951": 94,
        "1952": 135,
        "1953": 131,
        "1954": 185,
        "1955": 74,
        "1956": 46,
        "1957": 101,
        "1958": 243,
        "1959": 138,
        "1960": 36,
        "1961": 193,
        "1962": 134,
        "1963": 127,
        "1964": 16,
        "1965": 164,
        "1966": 85,
        "1967": 51,
        "1968": 226,
        "1969": 60,
        "1970": 66,
        "1971": 21,
        "1972": 27,
        "1973": 244,
        "1974": 106,
        "1975": 133,
        "1976": 159,
        "1977": 223,
        "1978": 42,
        "1979": 184,
        "1980": 21,
        "1981": 48,
        "1982": 49,
        "1983": 123,
        "1984": 248,
        "1985": 100,
        "1986": 130,
        "1987": 100,
        "1988": 124,
        "1989": 226,
        "1990": 11,
        "1991": 252,
        "1992": 230,
        "1993": 161,
        "1994": 231,
        "1995": 212,
        "1996": 195,
        "1997": 35,
        "1998": 137,
        "1999": 101,
        "2000": 75,
        "2001": 246,
        "2002": 206,
        "2003": 151,
        "2004": 213,
        "2005": 44,
        "2006": 20,
        "2007": 74,
        "2008": 17,
        "2009": 143,
        "2010": 233,
        "2011": 10,
        "2012": 254,
        "2013": 23,
        "2014": 26,
        "2015": 191,
        "2016": 16,
        "2017": 79,
        "2018": 205,
        "2019": 154,
        "2020": 139,
        "2021": 89,
        "2022": 214,
        "2023": 217,
        "2024": 41,
        "2025": 239,
        "2026": 171,
        "2027": 221,
        "2028": 165,
        "2029": 196,
        "2030": 243,
        "2031": 223,
        "2032": 7,
        "2033": 166,
        "2034": 100,
        "2035": 55,
        "2036": 198,
        "2037": 145,
        "2038": 125,
        "2039": 98,
        "2040": 249,
        "2041": 3,
        "2042": 59,
        "2043": 203,
        "2044": 201,
        "2045": 85,
        "2046": 3,
        "2047": 23,
        "2048": 127,
        "2049": 110,
        "2050": 208,
        "2051": 136,
        "2052": 146,
        "2053": 143,
        "2054": 134,
        "2055": 120,
        "2056": 19,
        "2057": 131,
        "2058": 227,
        "2059": 86,
        "2060": 167,
        "2061": 193,
        "2062": 135,
        "2063": 247,
        "2064": 8,
        "2065": 78,
        "2066": 252,
        "2067": 106,
        "2068": 2,
        "2069": 230,
        "2070": 6,
        "2071": 109,
        "2072": 114,
        "2073": 165,
        "2074": 167,
        "2075": 151,
        "2076": 198,
        "2077": 169,
        "2078": 249,
        "2079": 145,
        "2080": 70,
        "2081": 37,
        "2082": 204,
        "2083": 255,
        "2084": 53,
        "2085": 204,
        "2086": 213,
        "2087": 108,
        "2088": 137,
        "2089": 207,
        "2090": 108,
        "2091": 212,
        "2092": 169,
        "2093": 212,
        "2094": 139,
        "2095": 182,
        "2096": 27,
        "2097": 195,
        "2098": 77,
        "2099": 25,
        "2100": 89,
        "2101": 107,
        "2102": 252,
        "2103": 40,
        "2104": 129,
        "2105": 115,
        "2106": 186,
        "2107": 3,
        "2108": 14,
        "2109": 220,
        "2110": 108,
        "2111": 107,
        "2112": 64,
        "2113": 181,
        "2114": 10,
        "2115": 34,
        "2116": 2,
        "2117": 194,
        "2118": 141,
        "2119": 236,
        "2120": 81,
        "2121": 248,
        "2122": 198,
        "2123": 61,
        "2124": 11,
        "2125": 4,
        "2126": 227,
        "2127": 162,
        "2128": 107,
        "2129": 166,
        "2130": 19,
        "2131": 181,
        "2132": 225,
        "2133": 165,
        "2134": 226,
        "2135": 254,
        "2136": 22,
        "2137": 59,
        "2138": 103,
        "2139": 47,
        "2140": 149,
        "2141": 51,
        "2142": 11,
        "2143": 110,
        "2144": 233,
        "2145": 108,
        "2146": 38,
        "2147": 255,
        "2148": 178,
        "2149": 60,
        "2150": 247,
        "2151": 218,
        "2152": 123,
        "2153": 147,
        "2154": 218,
        "2155": 142,
        "2156": 48,
        "2157": 130,
        "2158": 167,
        "2159": 237,
        "2160": 201,
        "2161": 120,
        "2162": 221,
        "2163": 255,
        "2164": 92,
        "2165": 118,
        "2166": 21,
        "2167": 28,
        "2168": 8,
        "2169": 78,
        "2170": 154,
        "2171": 96,
        "2172": 226,
        "2173": 96,
        "2174": 180,
        "2175": 120,
        "2176": 74,
        "2177": 233,
        "2178": 41,
        "2179": 61,
        "2180": 63,
        "2181": 220,
        "2182": 46,
        "2183": 171,
        "2184": 5,
        "2185": 255,
        "2186": 19,
        "2187": 219,
        "2188": 157,
        "2189": 108,
        "2190": 56,
        "2191": 89,
        "2192": 171,
        "2193": 74,
        "2194": 203,
        "2195": 21,
        "2196": 27,
        "2197": 145,
        "2198": 142,
        "2199": 12,
        "2200": 160,
        "2201": 93,
        "2202": 44,
        "2203": 105,
        "2204": 215,
        "2205": 107,
        "2206": 29,
        "2207": 72,
        "2208": 136,
        "2209": 166,
        "2210": 86,
        "2211": 147,
        "2212": 186,
        "2213": 250,
        "2214": 164,
        "2215": 121,
        "2216": 208,
        "2217": 126,
        "2218": 239,
        "2219": 119,
        "2220": 97,
        "2221": 211,
        "2222": 118,
        "2223": 70,
        "2224": 140,
        "2225": 248,
        "2226": 92,
        "2227": 185,
        "2228": 10,
        "2229": 220,
        "2230": 206,
        "2231": 192,
        "2232": 165,
        "2233": 90,
        "2234": 172,
        "2235": 16,
        "2236": 199,
        "2237": 186,
        "2238": 213,
        "2239": 75,
        "2240": 248,
        "2241": 235,
        "2242": 134,
        "2243": 244,
        "2244": 148,
        "2245": 5,
        "2246": 115,
        "2247": 239,
        "2248": 78,
        "2249": 31,
        "2250": 62,
        "2251": 76,
        "2252": 210,
        "2253": 55,
        "2254": 107,
        "2255": 97,
        "2256": 126,
        "2257": 252,
        "2258": 75,
        "2259": 253,
        "2260": 46,
        "2261": 148,
        "2262": 235,
        "2263": 235,
        "2264": 140,
        "2265": 58,
        "2266": 9,
        "2267": 167,
        "2268": 22,
        "2269": 203,
        "2270": 189,
        "2271": 5,
        "2272": 62,
        "2273": 115,
        "2274": 199,
        "2275": 188,
        "2276": 240,
        "2277": 34,
        "2278": 172,
        "2279": 74,
        "2280": 155,
        "2281": 172,
        "2282": 215,
        "2283": 157,
        "2284": 81,
        "2285": 47,
        "2286": 137,
        "2287": 164,
        "2288": 170,
        "2289": 21,
        "2290": 205,
        "2291": 213,
        "2292": 201,
        "2293": 226,
        "2294": 31,
        "2295": 125,
        "2296": 79,
        "2297": 241,
        "2298": 93,
        "2299": 0,
        "2300": 11,
        "2301": 56,
        "2302": 32,
        "2303": 93,
        "2304": 243,
        "2305": 144,
        "2306": 178,
        "2307": 253,
        "2308": 169,
        "2309": 236,
        "2310": 247,
        "2311": 239,
        "2312": 61,
        "2313": 4,
        "2314": 54,
        "2315": 180,
        "2316": 19,
        "2317": 254,
        "2318": 133,
        "2319": 123,
        "2320": 140,
        "2321": 146,
        "2322": 106,
        "2323": 130,
        "2324": 210,
        "2325": 4,
        "2326": 118,
        "2327": 98,
        "2328": 245,
        "2329": 4,
        "2330": 18,
        "2331": 159,
        "2332": 27,
        "2333": 120,
        "2334": 100,
        "2335": 74,
        "2336": 171,
        "2337": 27,
        "2338": 69,
        "2339": 243,
        "2340": 40,
        "2341": 196,
        "2342": 78,
        "2343": 72,
        "2344": 28,
        "2345": 62,
        "2346": 205,
        "2347": 175,
        "2348": 118,
        "2349": 36,
        "2350": 119,
        "2351": 119,
        "2352": 125,
        "2353": 29,
        "2354": 191,
        "2355": 32,
        "2356": 201,
        "2357": 221,
        "2358": 78,
        "2359": 179,
        "2360": 234,
        "2361": 182,
        "2362": 13,
        "2363": 238,
        "2364": 20,
        "2365": 232,
        "2366": 35,
        "2367": 94,
        "2368": 142,
        "2369": 218,
        "2370": 131,
        "2371": 162,
        "2372": 170,
        "2373": 244,
        "2374": 227,
        "2375": 211,
        "2376": 87,
        "2377": 49,
        "2378": 69,
        "2379": 237,
        "2380": 238,
        "2381": 163,
        "2382": 33,
        "2383": 149,
        "2384": 186,
        "2385": 122,
        "2386": 227,
        "2387": 127,
        "2388": 108,
        "2389": 140,
        "2390": 73,
        "2391": 55,
        "2392": 13,
        "2393": 54,
        "2394": 8,
        "2395": 163,
        "2396": 214,
        "2397": 152,
        "2398": 47,
        "2399": 37,
        "2400": 91,
        "2401": 91,
        "2402": 186,
        "2403": 126,
        "2404": 13,
        "2405": 83,
        "2406": 63,
        "2407": 208,
        "2408": 58,
        "2409": 55,
        "2410": 152,
        "2411": 224,
        "2412": 135,
        "2413": 38,
        "2414": 11,
        "2415": 220,
        "2416": 147,
        "2417": 125,
        "2418": 180,
        "2419": 171,
        "2420": 245,
        "2421": 18,
        "2422": 184,
        "2423": 217,
        "2424": 138,
        "2425": 228,
        "2426": 117,
        "2427": 153,
        "2428": 26,
        "2429": 119,
        "2430": 88,
        "2431": 135,
        "2432": 72,
        "2433": 105,
        "2434": 241,
        "2435": 181,
        "2436": 236,
        "2437": 30,
        "2438": 250,
        "2439": 97,
        "2440": 138,
        "2441": 164,
        "2442": 56,
        "2443": 74,
        "2444": 233,
        "2445": 165,
        "2446": 92,
        "2447": 218,
        "2448": 183,
        "2449": 48,
        "2450": 205,
        "2451": 136,
        "2452": 225,
        "2453": 205,
        "2454": 131,
        "2455": 204,
        "2456": 184,
        "2457": 136,
        "2458": 123,
        "2459": 179,
        "2460": 74,
        "2461": 212,
        "2462": 83,
        "2463": 37,
        "2464": 21,
        "2465": 97,
        "2466": 62,
        "2467": 105,
        "2468": 160,
        "2469": 22,
        "2470": 237,
        "2471": 102,
        "2472": 89,
        "2473": 144,
        "2474": 17,
        "2475": 204,
        "2476": 44,
        "2477": 90,
        "2478": 10,
        "2479": 51,
        "2480": 147,
        "2481": 112,
        "2482": 121,
        "2483": 206,
        "2484": 235,
        "2485": 33,
        "2486": 199,
        "2487": 249,
        "2488": 24,
        "2489": 228,
        "2490": 40,
        "2491": 50,
        "2492": 226,
        "2493": 115,
        "2494": 58,
        "2495": 181,
        "2496": 203,
        "2497": 21,
        "2498": 178,
        "2499": 239,
        "2500": 165,
        "2501": 254,
        "2502": 20,
        "2503": 202,
        "2504": 238,
        "2505": 240,
        "2506": 58,
        "2507": 240,
        "2508": 4,
        "2509": 115,
        "2510": 124,
        "2511": 171,
        "2512": 104,
        "2513": 230,
        "2514": 131,
        "2515": 148,
        "2516": 57,
        "2517": 16,
        "2518": 124,
        "2519": 233,
        "2520": 12,
        "2521": 56,
        "2522": 46,
        "2523": 7,
        "2524": 110,
        "2525": 146,
        "2526": 93,
        "2527": 61,
        "2528": 20,
        "2529": 2,
        "2530": 178,
        "2531": 250,
        "2532": 188,
        "2533": 9,
        "2534": 33,
        "2535": 5,
        "2536": 20,
        "2537": 35,
        "2538": 26,
        "2539": 39,
        "2540": 32,
        "2541": 73,
        "2542": 192,
        "2543": 183,
        "2544": 101,
        "2545": 250,
        "2546": 215,
        "2547": 68,
        "2548": 67,
        "2549": 18,
        "2550": 27,
        "2551": 167,
        "2552": 153,
        "2553": 102,
        "2554": 223,
        "2555": 179,
        "2556": 49,
        "2557": 253,
        "2558": 245,
        "2559": 174,
        "2560": 140,
        "2561": 8,
        "2562": 143,
        "2563": 233,
        "2564": 124,
        "2565": 44,
        "2566": 238,
        "2567": 252,
        "2568": 114,
        "2569": 220,
        "2570": 206,
        "2571": 96,
        "2572": 25,
        "2573": 234,
        "2574": 39,
        "2575": 250,
        "2576": 133,
        "2577": 254,
        "2578": 93,
        "2579": 240,
        "2580": 12,
        "2581": 114,
        "2582": 149,
        "2583": 216,
        "2584": 211,
        "2585": 208,
        "2586": 98,
        "2587": 156,
        "2588": 91,
        "2589": 223,
        "2590": 136,
        "2591": 139,
        "2592": 242,
        "2593": 162,
        "2594": 191,
        "2595": 110,
        "2596": 189,
        "2597": 112,
        "2598": 133,
        "2599": 26,
        "2600": 9,
        "2601": 140,
        "2602": 153,
        "2603": 134,
        "2604": 210,
        "2605": 52,
        "2606": 197,
        "2607": 166,
        "2608": 159,
        "2609": 108,
        "2610": 96,
        "2611": 242,
        "2612": 28,
        "2613": 65,
        "2614": 49,
        "2615": 181,
        "2616": 7,
        "2617": 187,
        "2618": 91,
        "2619": 30,
        "2620": 51,
        "2621": 123,
        "2622": 240,
        "2623": 71,
        "2624": 85,
        "2625": 208,
        "2626": 3,
        "2627": 224,
        "2628": 191,
        "2629": 88,
        "2630": 211,
        "2631": 14,
        "2632": 60,
        "2633": 177,
        "2634": 129,
        "2635": 147,
        "2636": 91,
        "2637": 156,
        "2638": 166,
        "2639": 101,
        "2640": 233,
        "2641": 3,
        "2642": 122,
        "2643": 237,
        "2644": 253,
        "2645": 125,
        "2646": 34,
        "2647": 213,
        "2648": 128,
        "2649": 78,
        "2650": 161,
        "2651": 186,
        "2652": 211,
        "2653": 157,
        "2654": 115,
        "2655": 28,
        "2656": 198,
        "2657": 121,
        "2658": 14,
        "2659": 225,
        "2660": 79,
        "2661": 164,
        "2662": 89,
        "2663": 89,
        "2664": 111,
        "2665": 117,
        "2666": 41,
        "2667": 97,
        "2668": 88,
        "2669": 247,
        "2670": 235,
        "2671": 163,
        "2672": 145,
        "2673": 114,
        "2674": 23,
        "2675": 219,
        "2676": 53,
        "2677": 6,
        "2678": 136,
        "2679": 226,
        "2680": 136,
        "2681": 223,
        "2682": 115,
        "2683": 246,
        "2684": 189,
        "2685": 122,
        "2686": 255,
        "2687": 201,
        "2688": 147,
        "2689": 129,
        "2690": 42,
        "2691": 16,
        "2692": 16,
        "2693": 53,
        "2694": 65,
        "2695": 26,
        "2696": 39,
        "2697": 34,
        "2698": 160,
        "2699": 55,
        "2700": 152,
        "2701": 170,
        "2702": 142,
        "2703": 239,
        "2704": 49,
        "2705": 207,
        "2706": 58,
        "2707": 134,
        "2708": 255,
        "2709": 236,
        "2710": 86,
        "2711": 251,
        "2712": 247,
        "2713": 54,
        "2714": 31,
        "2715": 14,
        "2716": 167,
        "2717": 203,
        "2718": 6,
        "2719": 38,
        "2720": 99,
        "2721": 194,
        "2722": 221,
        "2723": 166,
        "2724": 138,
        "2725": 177,
        "2726": 74,
        "2727": 216,
        "2728": 167,
        "2729": 2,
        "2730": 34,
        "2731": 149,
        "2732": 125,
        "2733": 23,
        "2734": 139,
        "2735": 68,
        "2736": 72,
        "2737": 219,
        "2738": 80,
        "2739": 51,
        "2740": 154,
        "2741": 146,
        "2742": 184,
        "2743": 48,
        "2744": 151,
        "2745": 109,
        "2746": 72,
        "2747": 175,
        "2748": 226,
        "2749": 158,
        "2750": 108,
        "2751": 123,
        "2752": 91,
        "2753": 107,
        "2754": 157,
        "2755": 49,
        "2756": 146,
        "2757": 230,
        "2758": 98,
        "2759": 228,
        "2760": 106,
        "2761": 170,
        "2762": 208,
        "2763": 12,
        "2764": 16,
        "2765": 35,
        "2766": 247,
        "2767": 214,
        "2768": 105,
        "2769": 36,
        "2770": 24,
        "2771": 77,
        "2772": 132,
        "2773": 69,
        "2774": 214,
        "2775": 70,
        "2776": 107,
        "2777": 3,
        "2778": 108,
        "2779": 231,
        "2780": 243,
        "2781": 111,
        "2782": 134,
        "2783": 224,
        "2784": 173,
        "2785": 62,
        "2786": 68,
        "2787": 115,
        "2788": 132,
        "2789": 185,
        "2790": 10,
        "2791": 132,
        "2792": 200,
        "2793": 213,
        "2794": 188,
        "2795": 198,
        "2796": 65,
        "2797": 233,
        "2798": 3,
        "2799": 145,
        "2800": 24,
        "2801": 163,
        "2802": 101,
        "2803": 243,
        "2804": 108,
        "2805": 171,
        "2806": 247,
        "2807": 197,
        "2808": 146,
        "2809": 88,
        "2810": 239,
        "2811": 32,
        "2812": 26,
        "2813": 49,
        "2814": 55,
        "2815": 62,
        "2816": 113,
        "2817": 143,
        "2818": 135,
        "2819": 184,
        "2820": 198,
        "2821": 114,
        "2822": 25,
        "2823": 133,
        "2824": 5,
        "2825": 19,
        "2826": 189,
        "2827": 214,
        "2828": 158,
        "2829": 229,
        "2830": 250,
        "2831": 68,
        "2832": 190,
        "2833": 179,
        "2834": 177,
        "2835": 108,
        "2836": 244,
        "2837": 235,
        "2838": 141,
        "2839": 132,
        "2840": 104,
        "2841": 33,
        "2842": 64,
        "2843": 177,
        "2844": 24,
        "2845": 213,
        "2846": 97,
        "2847": 56,
        "2848": 11,
        "2849": 156,
        "2850": 61,
        "2851": 44,
        "2852": 83,
        "2853": 27,
        "2854": 221,
        "2855": 63,
        "2856": 185,
        "2857": 240,
        "2858": 117,
        "2859": 96,
        "2860": 224,
        "2861": 163,
        "2862": 87,
        "2863": 199,
        "2864": 165,
        "2865": 54,
        "2866": 201,
        "2867": 19,
        "2868": 163,
        "2869": 90,
        "2870": 131,
        "2871": 91,
        "2872": 186,
        "2873": 187,
        "2874": 190,
        "2875": 60,
        "2876": 125,
        "2877": 239,
        "2878": 251,
        "2879": 238,
        "2880": 119,
        "2881": 123,
        "2882": 62,
        "2883": 241,
        "2884": 54,
        "2885": 156,
        "2886": 165,
        "2887": 175,
        "2888": 25,
        "2889": 242,
        "2890": 92,
        "2891": 125,
        "2892": 0,
        "2893": 212,
        "2894": 245,
        "2895": 158,
        "2896": 156,
        "2897": 214,
        "2898": 69,
        "2899": 160,
        "2900": 17,
        "2901": 218,
        "2902": 39,
        "2903": 40,
        "2904": 106,
        "2905": 159,
        "2906": 209,
        "2907": 207,
        "2908": 232,
        "2909": 92,
        "2910": 106,
        "2911": 97,
        "2912": 183,
        "2913": 65,
        "2914": 91,
        "2915": 175,
        "2916": 64,
        "2917": 224,
        "2918": 8,
        "2919": 204,
        "2920": 64,
        "2921": 66,
        "2922": 41,
        "2923": 144,
        "2924": 237,
        "2925": 2,
        "2926": 169,
        "2927": 15,
        "2928": 19,
        "2929": 73,
        "2930": 89,
        "2931": 0,
        "2932": 65,
        "2933": 73,
        "2934": 250,
        "2935": 65,
        "2936": 79,
        "2937": 136,
        "2938": 93,
        "2939": 85,
        "2940": 149,
        "2941": 179,
        "2942": 90,
        "2943": 195,
        "2944": 5,
        "2945": 33,
        "2946": 251,
        "2947": 128,
        "2948": 173,
        "2949": 204,
        "2950": 234,
        "2951": 163,
        "2952": 41,
        "2953": 160,
        "2954": 149,
        "2955": 23,
        "2956": 68,
        "2957": 202,
        "2958": 129,
        "2959": 165,
        "2960": 101,
        "2961": 180,
        "2962": 134,
        "2963": 132,
        "2964": 122,
        "2965": 31,
        "2966": 88,
        "2967": 250,
        "2968": 84,
        "2969": 122,
        "2970": 73,
        "2971": 16,
        "2972": 148,
        "2973": 215,
        "2974": 63,
        "2975": 189,
        "2976": 111,
        "2977": 58,
        "2978": 89,
        "2979": 193,
        "2980": 143,
        "2981": 88,
        "2982": 4,
        "2983": 36,
        "2984": 18,
        "2985": 255,
        "2986": 33,
        "2987": 247,
        "2988": 200,
        "2989": 96,
        "2990": 98,
        "2991": 86,
        "2992": 61,
        "2993": 197,
        "2994": 191,
        "2995": 99,
        "2996": 252,
        "2997": 235,
        "2998": 203,
        "2999": 10,
        "3000": 148,
        "3001": 178,
        "3002": 110,
        "3003": 199,
        "3004": 101,
        "3005": 161,
        "3006": 194,
        "3007": 247,
        "3008": 113,
        "3009": 208,
        "3010": 205,
        "3011": 43,
        "3012": 158,
        "3013": 115,
        "3014": 67,
        "3015": 210,
        "3016": 2,
        "3017": 49,
        "3018": 64,
        "3019": 133,
        "3020": 219,
        "3021": 6,
        "3022": 111,
        "3023": 252,
        "3024": 154,
        "3025": 164,
        "3026": 84,
        "3027": 227,
        "3028": 76,
        "3029": 94,
        "3030": 222,
        "3031": 38,
        "3032": 26,
        "3033": 17,
        "3034": 4,
        "3035": 231,
        "3036": 138,
        "3037": 57,
        "3038": 135,
        "3039": 251,
        "3040": 219,
        "3041": 225,
        "3042": 66,
        "3043": 63,
        "3044": 96,
        "3045": 213,
        "3046": 179,
        "3047": 58,
        "3048": 187,
        "3049": 163,
        "3050": 78,
        "3051": 19,
        "3052": 151,
        "3053": 138,
        "3054": 43,
        "3055": 119,
        "3056": 222,
        "3057": 105,
        "3058": 203,
        "3059": 188,
        "3060": 17,
        "3061": 82,
        "3062": 190,
        "3063": 99,
        "3064": 34,
        "3065": 20,
        "3066": 11,
        "3067": 248,
        "3068": 76,
        "3069": 35,
        "3070": 202,
        "3071": 54,
        "3072": 194,
        "3073": 75,
        "3074": 193,
        "3075": 127,
        "3076": 172,
        "3077": 54,
        "3078": 178,
        "3079": 77,
        "3080": 96,
        "3081": 121,
        "3082": 160,
        "3083": 99,
        "3084": 14,
        "3085": 37,
        "3086": 186,
        "3087": 142,
        "3088": 104,
        "3089": 231,
        "3090": 124,
        "3091": 140,
        "3092": 149,
        "3093": 28,
        "3094": 112,
        "3095": 179,
        "3096": 199,
        "3097": 102,
        "3098": 126,
        "3099": 14,
        "3100": 232,
        "3101": 200,
        "3102": 140,
        "3103": 144,
        "3104": 160,
        "3105": 140,
        "3106": 161,
        "3107": 197,
        "3108": 245,
        "3109": 251,
        "3110": 226,
        "3111": 105,
        "3112": 52,
        "3113": 190,
        "3114": 12,
        "3115": 123,
        "3116": 201,
        "3117": 145,
        "3118": 94,
        "3119": 84,
        "3120": 59,
        "3121": 34,
        "3122": 122,
        "3123": 195,
        "3124": 105,
        "3125": 123,
        "3126": 235,
        "3127": 196,
        "3128": 120,
        "3129": 166,
        "3130": 85,
        "3131": 48,
        "3132": 30,
        "3133": 119,
        "3134": 67,
        "3135": 26,
        "3136": 184,
        "3137": 53,
        "3138": 225,
        "3139": 204,
        "3140": 219,
        "3141": 252,
        "3142": 50,
        "3143": 50,
        "3144": 88,
        "3145": 6,
        "3146": 7,
        "3147": 200,
        "3148": 180,
        "3149": 107,
        "3150": 110,
        "3151": 30,
        "3152": 109,
        "3153": 161,
        "3154": 55,
        "3155": 186,
        "3156": 19,
        "3157": 61,
        "3158": 169,
        "3159": 69,
        "3160": 157,
        "3161": 4,
        "3162": 217,
        "3163": 240,
        "3164": 204,
        "3165": 154,
        "3166": 9,
        "3167": 248,
        "3168": 186,
        "3169": 245,
        "3170": 68,
        "3171": 237,
        "3172": 64,
        "3173": 100,
        "3174": 127,
        "3175": 200,
        "3176": 129,
        "3177": 114,
        "3178": 163,
        "3179": 51,
        "3180": 200,
        "3181": 246,
        "3182": 37,
        "3183": 86,
        "3184": 102,
        "3185": 114,
        "3186": 97,
        "3187": 206,
        "3188": 96,
        "3189": 152,
        "3190": 103,
        "3191": 73,
        "3192": 0,
        "3193": 214,
        "3194": 249,
        "3195": 80,
        "3196": 37,
        "3197": 247,
        "3198": 35,
        "3199": 241,
        "3200": 221,
        "3201": 186,
        "3202": 222,
        "3203": 0,
        "3204": 114,
        "3205": 161,
        "3206": 167,
        "3207": 12,
        "3208": 35,
        "3209": 31,
        "3210": 25,
        "3211": 107,
        "3212": 88,
        "3213": 53,
        "3214": 46,
        "3215": 14,
        "3216": 59,
        "3217": 36,
        "3218": 98,
        "3219": 226,
        "3220": 144,
        "3221": 157,
        "3222": 89,
        "3223": 229,
        "3224": 47,
        "3225": 11,
        "3226": 123,
        "3227": 173,
        "3228": 164,
        "3229": 133,
        "3230": 134,
        "3231": 54,
        "3232": 82,
        "3233": 124,
        "3234": 220,
        "3235": 67,
        "3236": 41,
        "3237": 42,
        "3238": 139,
        "3239": 47,
        "3240": 15,
        "3241": 173,
        "3242": 227,
        "3243": 15,
        "3244": 7,
        "3245": 75,
        "3246": 104,
        "3247": 212,
        "3248": 196,
        "3249": 236,
        "3250": 180,
        "3251": 30,
        "3252": 189,
        "3253": 212,
        "3254": 40,
        "3255": 185,
        "3256": 138,
        "3257": 22,
        "3258": 241,
        "3259": 174,
        "3260": 56,
        "3261": 187,
        "3262": 53,
        "3263": 205,
        "3264": 6,
        "3265": 119,
        "3266": 83,
        "3267": 9,
        "3268": 242,
        "3269": 4,
        "3270": 14,
        "3271": 221,
        "3272": 145,
        "3273": 161,
        "3274": 68,
        "3275": 238,
        "3276": 93,
        "3277": 158,
        "3278": 242,
        "3279": 89,
        "3280": 128,
        "3281": 125,
        "3282": 219,
        "3283": 5,
        "3284": 179,
        "3285": 79,
        "3286": 249,
        "3287": 114,
        "3288": 186,
        "3289": 208,
        "3290": 216,
        "3291": 146,
        "3292": 106,
        "3293": 58,
        "3294": 139,
        "3295": 128,
        "3296": 175,
        "3297": 92,
        "3298": 241,
        "3299": 8,
        "3300": 175,
        "3301": 118,
        "3302": 15,
        "3303": 193,
        "3304": 138,
        "3305": 63,
        "3306": 151,
        "3307": 16,
        "3308": 68,
        "3309": 86,
        "3310": 19,
        "3311": 27,
        "3312": 85,
        "3313": 43,
        "3314": 78,
        "3315": 18,
        "3316": 230,
        "3317": 255,
        "3318": 251,
        "3319": 152,
        "3320": 199,
        "3321": 67,
        "3322": 4,
        "3323": 116,
        "3324": 133,
        "3325": 28,
        "3326": 147,
        "3327": 40,
        "3328": 202,
        "3329": 165,
        "3330": 135,
        "3331": 92,
        "3332": 222,
        "3333": 59,
        "3334": 111,
        "3335": 7,
        "3336": 118,
        "3337": 175,
        "3338": 29,
        "3339": 142,
        "3340": 0,
        "3341": 175,
        "3342": 14,
        "3343": 59,
        "3344": 232,
        "3345": 206,
        "3346": 222,
        "3347": 81,
        "3348": 159,
        "3349": 145,
        "3350": 69,
        "3351": 69,
        "3352": 182,
        "3353": 137,
        "3354": 0,
        "3355": 80,
        "3356": 165,
        "3357": 215,
        "3358": 238,
        "3359": 231,
        "3360": 79,
        "3361": 183,
        "3362": 181,
        "3363": 118,
        "3364": 31,
        "3365": 121,
        "3366": 191,
        "3367": 202,
        "3368": 159,
        "3369": 73,
        "3370": 244,
        "3371": 70,
        "3372": 189,
        "3373": 99,
        "3374": 216,
        "3375": 132,
        "3376": 41,
        "3377": 115,
        "3378": 8,
        "3379": 55,
        "3380": 2,
        "3381": 94,
        "3382": 75,
        "3383": 91,
        "3384": 2,
        "3385": 214,
        "3386": 130,
        "3387": 85,
        "3388": 80,
        "3389": 29,
        "3390": 17,
        "3391": 247,
        "3392": 41,
        "3393": 52,
        "3394": 220,
        "3395": 113,
        "3396": 129,
        "3397": 27,
        "3398": 34,
        "3399": 50,
        "3400": 158,
        "3401": 0,
        "3402": 116,
        "3403": 243,
        "3404": 55,
        "3405": 209,
        "3406": 4,
        "3407": 3,
        "3408": 119,
        "3409": 198,
        "3410": 17,
        "3411": 131,
        "3412": 155,
        "3413": 169,
        "3414": 116,
        "3415": 152,
        "3416": 13,
        "3417": 79,
        "3418": 190,
        "3419": 244,
        "3420": 40,
        "3421": 101,
        "3422": 210,
        "3423": 48,
        "3424": 244,
        "3425": 41,
        "3426": 178,
        "3427": 223,
        "3428": 82,
        "3429": 204,
        "3430": 148,
        "3431": 97,
        "3432": 35,
        "3433": 146,
        "3434": 117,
        "3435": 233,
        "3436": 121,
        "3437": 81,
        "3438": 105,
        "3439": 46,
        "3440": 15,
        "3441": 82,
        "3442": 91,
        "3443": 246,
        "3444": 106,
        "3445": 70,
        "3446": 239,
        "3447": 224,
        "3448": 232,
        "3449": 22,
        "3450": 233,
        "3451": 246,
        "3452": 54,
        "3453": 164,
        "3454": 154,
        "3455": 56,
        "3456": 204,
        "3457": 152,
        "3458": 207,
        "3459": 7,
        "3460": 240,
        "3461": 96,
        "3462": 197,
        "3463": 33,
        "3464": 213,
        "3465": 166,
        "3466": 41,
        "3467": 45,
        "3468": 246,
        "3469": 227,
        "3470": 175,
        "3471": 86,
        "3472": 166,
        "3473": 26,
        "3474": 234,
        "3475": 151,
        "3476": 177,
        "3477": 175,
        "3478": 113,
        "3479": 167,
        "3480": 88,
        "3481": 60,
        "3482": 76,
        "3483": 124,
        "3484": 219,
        "3485": 86,
        "3486": 44,
        "3487": 182,
        "3488": 203,
        "3489": 252,
        "3490": 193,
        "3491": 243,
        "3492": 125,
        "3493": 218,
        "3494": 84,
        "3495": 114,
        "3496": 10,
        "3497": 110,
        "3498": 174,
        "3499": 131,
        "3500": 136,
        "3501": 251,
        "3502": 78,
        "3503": 46,
        "3504": 83,
        "3505": 224,
        "3506": 143,
        "3507": 106,
        "3508": 37,
        "3509": 54,
        "3510": 143,
        "3511": 254,
        "3512": 90,
        "3513": 164,
        "3514": 117,
        "3515": 100,
        "3516": 120,
        "3517": 255,
        "3518": 61,
        "3519": 132,
        "3520": 163,
        "3521": 111,
        "3522": 207,
        "3523": 93,
        "3524": 18,
        "3525": 157,
        "3526": 225,
        "3527": 55,
        "3528": 163,
        "3529": 138,
        "3530": 230,
        "3531": 157,
        "3532": 145,
        "3533": 92,
        "3534": 96,
        "3535": 35,
        "3536": 38,
        "3537": 122,
        "3538": 208,
        "3539": 147,
        "3540": 118,
        "3541": 58,
        "3542": 46,
        "3543": 153,
        "3544": 172,
        "3545": 75,
        "3546": 101,
        "3547": 173,
        "3548": 42,
        "3549": 112,
        "3550": 93,
        "3551": 224,
        "3552": 185,
        "3553": 82,
        "3554": 154,
        "3555": 52,
        "3556": 52,
        "3557": 54,
        "3558": 44,
        "3559": 59,
        "3560": 226,
        "3561": 77,
        "3562": 4,
        "3563": 52,
        "3564": 66,
        "3565": 43,
        "3566": 140,
        "3567": 71,
        "3568": 65,
        "3569": 36,
        "3570": 217,
        "3571": 152,
        "3572": 218,
        "3573": 192,
        "3574": 118,
        "3575": 199,
        "3576": 216,
        "3577": 221,
        "3578": 139,
        "3579": 107,
        "3580": 117,
        "3581": 48,
        "3582": 56,
        "3583": 37,
        "3584": 165,
        "3585": 148,
        "3586": 141,
        "3587": 88,
        "3588": 49,
        "3589": 168,
        "3590": 61,
        "3591": 64,
        "3592": 104,
        "3593": 247,
        "3594": 84,
        "3595": 197,
        "3596": 118,
        "3597": 20,
        "3598": 98,
        "3599": 195,
        "3600": 37,
        "3601": 61,
        "3602": 27,
        "3603": 85,
        "3604": 118,
        "3605": 60,
        "3606": 39,
        "3607": 196,
        "3608": 57,
        "3609": 178,
        "3610": 94,
        "3611": 237,
        "3612": 52,
        "3613": 254,
        "3614": 154,
        "3615": 180,
        "3616": 100,
        "3617": 22,
        "3618": 193,
        "3619": 153,
        "3620": 224,
        "3621": 29,
        "3622": 88,
        "3623": 242,
        "3624": 255,
        "3625": 85,
        "3626": 32,
        "3627": 173,
        "3628": 220,
        "3629": 105,
        "3630": 23,
        "3631": 50,
        "3632": 208,
        "3633": 16,
        "3634": 52,
        "3635": 35,
        "3636": 124,
        "3637": 52,
        "3638": 151,
        "3639": 88,
        "3640": 104,
        "3641": 242,
        "3642": 105,
        "3643": 16,
        "3644": 12,
        "3645": 137,
        "3646": 184,
        "3647": 202,
        "3648": 98,
        "3649": 100,
        "3650": 48,
        "3651": 75,
        "3652": 53,
        "3653": 163,
        "3654": 237,
        "3655": 30,
        "3656": 94,
        "3657": 178,
        "3658": 181,
        "3659": 235,
        "3660": 3,
        "3661": 220,
        "3662": 17,
        "3663": 230,
        "3664": 35,
        "3665": 10,
        "3666": 52,
        "3667": 223,
        "3668": 138,
        "3669": 66,
        "3670": 165,
        "3671": 187,
        "3672": 84,
        "3673": 97,
        "3674": 115,
        "3675": 253,
        "3676": 250,
        "3677": 172,
        "3678": 234,
        "3679": 38,
        "3680": 30,
        "3681": 109,
        "3682": 168,
        "3683": 33,
        "3684": 96,
        "3685": 96,
        "3686": 180,
        "3687": 236,
        "3688": 233,
        "3689": 15,
        "3690": 93,
        "3691": 228,
        "3692": 61,
        "3693": 65,
        "3694": 123,
        "3695": 23,
        "3696": 141,
        "3697": 150,
        "3698": 24,
        "3699": 35,
        "3700": 200,
        "3701": 99,
        "3702": 121,
        "3703": 174,
        "3704": 171,
        "3705": 156,
        "3706": 133,
        "3707": 122,
        "3708": 26,
        "3709": 158,
        "3710": 243,
        "3711": 203,
        "3712": 23,
        "3713": 30,
        "3714": 161,
        "3715": 60,
        "3716": 115,
        "3717": 160,
        "3718": 76,
        "3719": 96,
        "3720": 72,
        "3721": 6,
        "3722": 192,
        "3723": 217,
        "3724": 56,
        "3725": 125,
        "3726": 186,
        "3727": 143,
        "3728": 121,
        "3729": 102,
        "3730": 181,
        "3731": 154,
        "3732": 9,
        "3733": 203,
        "3734": 216,
        "3735": 79,
        "3736": 4,
        "3737": 189,
        "3738": 126,
        "3739": 16,
        "3740": 188,
        "3741": 83,
        "3742": 117,
        "3743": 83,
        "3744": 208,
        "3745": 89,
        "3746": 193,
        "3747": 6,
        "3748": 71,
        "3749": 7,
        "3750": 74,
        "3751": 6,
        "3752": 178,
        "3753": 60,
        "3754": 147,
        "3755": 92,
        "3756": 54,
        "3757": 184,
        "3758": 136,
        "3759": 83,
        "3760": 225,
        "3761": 210,
        "3762": 38,
        "3763": 241,
        "3764": 44,
        "3765": 75,
        "3766": 229,
        "3767": 113,
        "3768": 51,
        "3769": 82,
        "3770": 13,
        "3771": 126,
        "3772": 90,
        "3773": 214,
        "3774": 130,
        "3775": 9,
        "3776": 154,
        "3777": 88,
        "3778": 111,
        "3779": 45,
        "3780": 189,
        "3781": 105,
        "3782": 171,
        "3783": 239,
        "3784": 180,
        "3785": 237,
        "3786": 3,
        "3787": 126,
        "3788": 6,
        "3789": 195,
        "3790": 62,
        "3791": 61,
        "3792": 151,
        "3793": 252,
        "3794": 154,
        "3795": 56,
        "3796": 169,
        "3797": 113,
        "3798": 11,
        "3799": 122,
        "3800": 192,
        "3801": 239,
        "3802": 176,
        "3803": 205,
        "3804": 125,
        "3805": 184,
        "3806": 190,
        "3807": 38,
        "3808": 5,
        "3809": 168,
        "3810": 120,
        "3811": 190,
        "3812": 124,
        "3813": 182,
        "3814": 32,
        "3815": 217,
        "3816": 34,
        "3817": 46,
        "3818": 83,
        "3819": 110,
        "3820": 48,
        "3821": 205,
        "3822": 59,
        "3823": 125,
        "3824": 52,
        "3825": 162,
        "3826": 82,
        "3827": 154,
        "3828": 38,
        "3829": 176,
        "3830": 121,
        "3831": 1,
        "3832": 221,
        "3833": 45,
        "3834": 221,
        "3835": 149,
        "3836": 245,
        "3837": 71,
        "3838": 184,
        "3839": 139,
        "3840": 27,
        "3841": 106,
        "3842": 191,
        "3843": 206,
        "3844": 107,
        "3845": 189,
        "3846": 126,
        "3847": 192,
        "3848": 162,
        "3849": 80,
        "3850": 68,
        "3851": 4,
        "3852": 40,
        "3853": 23,
        "3854": 215,
        "3855": 66,
        "3856": 20,
        "3857": 177,
        "3858": 201,
        "3859": 1,
        "3860": 191,
        "3861": 172,
        "3862": 3,
        "3863": 196,
        "3864": 4,
        "3865": 180,
        "3866": 93,
        "3867": 198,
        "3868": 160,
        "3869": 19,
        "3870": 25,
        "3871": 31,
        "3872": 210,
        "3873": 81,
        "3874": 225,
        "3875": 185,
        "3876": 29,
        "3877": 106,
        "3878": 57,
        "3879": 209,
        "3880": 213,
        "3881": 119,
        "3882": 62,
        "3883": 62,
        "3884": 169,
        "3885": 72,
        "3886": 86,
        "3887": 46,
        "3888": 138,
        "3889": 224,
        "3890": 179,
        "3891": 59,
        "3892": 196,
        "3893": 159,
        "3894": 175,
        "3895": 226,
        "3896": 188,
        "3897": 204,
        "3898": 237,
        "3899": 78,
        "3900": 106,
        "3901": 57,
        "3902": 6,
        "3903": 135,
        "3904": 63,
        "3905": 146,
        "3906": 83,
        "3907": 52,
        "3908": 2,
        "3909": 220,
        "3910": 45,
        "3911": 223,
        "3912": 159,
        "3913": 111,
        "3914": 228,
        "3915": 144,
        "3916": 104,
        "3917": 14,
        "3918": 137,
        "3919": 150,
        "3920": 5,
        "3921": 151,
        "3922": 160,
        "3923": 36,
        "3924": 218,
        "3925": 51,
        "3926": 156,
        "3927": 127,
        "3928": 140,
        "3929": 14,
        "3930": 177,
        "3931": 2,
        "3932": 179,
        "3933": 165,
        "3934": 76,
        "3935": 77,
        "3936": 72,
        "3937": 134,
        "3938": 249,
        "3939": 73,
        "3940": 249,
        "3941": 59,
        "3942": 187,
        "3943": 192,
        "3944": 124,
        "3945": 35,
        "3946": 201,
        "3947": 198,
        "3948": 60,
        "3949": 190,
        "3950": 153,
        "3951": 81,
        "3952": 9,
        "3953": 45,
        "3954": 34,
        "3955": 64,
        "3956": 244,
        "3957": 115,
        "3958": 211,
        "3959": 245,
        "3960": 50,
        "3961": 240,
        "3962": 59,
        "3963": 2,
        "3964": 225,
        "3965": 18,
        "3966": 13,
        "3967": 100,
        "3968": 248,
        "3969": 108,
        "3970": 120,
        "3971": 109,
        "3972": 43,
        "3973": 121,
        "3974": 12,
        "3975": 152,
        "3976": 64,
        "3977": 146,
        "3978": 219,
        "3979": 93,
        "3980": 219,
        "3981": 255,
        "3982": 151,
        "3983": 72,
        "3984": 250,
        "3985": 44,
        "3986": 26,
        "3987": 69,
        "3988": 253,
        "3989": 5,
        "3990": 86,
        "3991": 192,
        "3992": 52,
        "3993": 156,
        "3994": 109,
        "3995": 3,
        "3996": 48,
        "3997": 85,
        "3998": 191,
        "3999": 5,
        "4000": 48,
        "4001": 231,
        "4002": 110,
        "4003": 59,
        "4004": 167,
        "4005": 50,
        "4006": 238,
        "4007": 226,
        "4008": 215,
        "4009": 106,
        "4010": 203,
        "4011": 106,
        "4012": 178,
        "4013": 249,
        "4014": 132,
        "4015": 208,
        "4016": 110,
        "4017": 11,
        "4018": 176,
        "4019": 78,
        "4020": 99,
        "4021": 176,
        "4022": 180,
        "4023": 42,
        "4024": 103,
        "4025": 137,
        "4026": 219,
        "4027": 132,
        "4028": 17,
        "4029": 13,
        "4030": 130,
        "4031": 174,
        "4032": 237,
        "4033": 192,
        "4034": 56,
        "4035": 210,
        "4036": 123,
        "4037": 100,
        "4038": 171,
        "4039": 110,
        "4040": 34,
        "4041": 67,
        "4042": 36,
        "4043": 36,
        "4044": 246,
        "4045": 166,
        "4046": 120,
        "4047": 167,
        "4048": 215,
        "4049": 249,
        "4050": 185,
        "4051": 20,
        "4052": 140,
        "4053": 127,
        "4054": 114,
        "4055": 138,
        "4056": 225,
        "4057": 155,
        "4058": 17,
        "4059": 217,
        "4060": 220,
        "4061": 2,
        "4062": 195,
        "4063": 54,
        "4064": 169,
        "4065": 227,
        "4066": 218,
        "4067": 207,
        "4068": 31,
        "4069": 207,
        "4070": 146,
        "4071": 190,
        "4072": 229,
        "4073": 236,
        "4074": 84,
        "4075": 100,
        "4076": 98,
        "4077": 185,
        "4078": 31,
        "4079": 115,
        "4080": 240,
        "4081": 34,
        "4082": 16,
        "4083": 221,
        "4084": 202,
        "4085": 95,
        "4086": 132,
        "4087": 13,
        "4088": 105,
        "4089": 23,
        "4090": 242,
        "4091": 57,
        "4092": 84,
        "4093": 43,
        "4094": 177,
        "4095": 221,
        "4096": 182,
        "4097": 17,
        "4098": 49,
        "4099": 211,
        "4100": 219,
        "4101": 171,
        "4102": 19,
        "4103": 124,
        "4104": 104,
        "4105": 185,
        "4106": 201,
        "4107": 167,
        "4108": 11,
        "4109": 66,
        "4110": 115,
        "4111": 70,
        "4112": 155,
        "4113": 193,
        "4114": 210,
        "4115": 161,
        "4116": 81,
        "4117": 231,
        "4118": 77,
        "4119": 147,
        "4120": 4,
        "4121": 120,
        "4122": 137,
        "4123": 9,
        "4124": 246,
        "4125": 64,
        "4126": 128,
        "4127": 173,
        "4128": 60,
        "4129": 19,
        "4130": 252,
        "4131": 239,
        "4132": 158,
        "4133": 111,
        "4134": 42,
        "4135": 144,
        "4136": 179,
        "4137": 38,
        "4138": 134,
        "4139": 160,
        "4140": 36,
        "4141": 142,
        "4142": 228,
        "4143": 125,
        "4144": 211,
        "4145": 45,
        "4146": 210,
        "4147": 204,
        "4148": 150,
        "4149": 148,
        "4150": 67,
        "4151": 82,
        "4152": 177,
        "4153": 238,
        "4154": 173,
        "4155": 88,
        "4156": 244,
        "4157": 200,
        "4158": 80,
        "4159": 62,
        "4160": 242,
        "4161": 106,
        "4162": 85,
        "4163": 119,
        "4164": 112,
        "4165": 14,
        "4166": 213,
        "4167": 244,
        "4168": 62,
        "4169": 15,
        "4170": 200,
        "4171": 241,
        "4172": 176,
        "4173": 216,
        "4174": 15,
        "4175": 142,
        "4176": 15,
        "4177": 185,
        "4178": 25,
        "4179": 198,
        "4180": 38,
        "4181": 219,
        "4182": 92,
        "4183": 54,
        "4184": 197,
        "4185": 201,
        "4186": 241,
        "4187": 148,
        "4188": 83,
        "4189": 190,
        "4190": 233,
        "4191": 110,
        "4192": 187,
        "4193": 37,
        "4194": 173,
        "4195": 137,
        "4196": 73,
        "4197": 62,
        "4198": 86,
        "4199": 151,
        "4200": 227,
        "4201": 167,
        "4202": 185,
        "4203": 3,
        "4204": 43,
        "4205": 25,
        "4206": 121,
        "4207": 109,
        "4208": 55,
        "4209": 5,
        "4210": 136,
        "4211": 138,
        "4212": 42,
        "4213": 236,
        "4214": 93,
        "4215": 124,
        "4216": 157,
        "4217": 62,
        "4218": 108,
        "4219": 2,
        "4220": 203,
        "4221": 80,
        "4222": 196,
        "4223": 228,
        "4224": 202,
        "4225": 228,
        "4226": 207,
        "4227": 5,
        "4228": 140,
        "4229": 50,
        "4230": 156,
        "4231": 1,
        "4232": 65,
        "4233": 251,
        "4234": 17,
        "4235": 211,
        "4236": 19,
        "4237": 101,
        "4238": 85,
        "4239": 207,
        "4240": 127,
        "4241": 253,
        "4242": 107,
        "4243": 45,
        "4244": 8,
        "4245": 151,
        "4246": 178,
        "4247": 253,
        "4248": 88,
        "4249": 187,
        "4250": 182,
        "4251": 61,
        "4252": 27,
        "4253": 109,
        "4254": 165,
        "4255": 27,
        "4256": 130,
        "4257": 66,
        "4258": 175,
        "4259": 32,
        "4260": 90,
        "4261": 47,
        "4262": 6,
        "4263": 84,
        "4264": 194,
        "4265": 15,
        "4266": 159,
        "4267": 233,
        "4268": 106,
        "4269": 217,
        "4270": 114,
        "4271": 17,
        "4272": 203,
        "4273": 127,
        "4274": 103,
        "4275": 232,
        "4276": 73,
        "4277": 91,
        "4278": 50,
        "4279": 153,
        "4280": 235,
        "4281": 203,
        "4282": 167,
        "4283": 98,
        "4284": 170,
        "4285": 61,
        "4286": 158,
        "4287": 115,
        "4288": 228,
        "4289": 137,
        "4290": 58,
        "4291": 27,
        "4292": 123,
        "4293": 16,
        "4294": 204,
        "4295": 214,
        "4296": 8,
        "4297": 217,
        "4298": 245,
        "4299": 128,
        "4300": 0,
        "4301": 55,
        "4302": 214,
        "4303": 120,
        "4304": 245,
        "4305": 238,
        "4306": 213,
        "4307": 109,
        "4308": 192,
        "4309": 148,
        "4310": 100,
        "4311": 80,
        "4312": 239,
        "4313": 10,
        "4314": 147,
        "4315": 247,
        "4316": 27,
        "4317": 43,
        "4318": 216,
        "4319": 75,
        "4320": 46,
        "4321": 14,
        "4322": 227,
        "4323": 133,
        "4324": 193,
        "4325": 59,
        "4326": 20,
        "4327": 138,
        "4328": 130,
        "4329": 150,
        "4330": 37,
        "4331": 6,
        "4332": 63,
        "4333": 85,
        "4334": 21,
        "4335": 139,
        "4336": 232,
        "4337": 68,
        "4338": 125,
        "4339": 179,
        "4340": 64,
        "4341": 255,
        "4342": 130,
        "4343": 234,
        "4344": 220,
        "4345": 135,
        "4346": 112,
        "4347": 105,
        "4348": 231,
        "4349": 56,
        "4350": 151,
        "4351": 238,
        "4352": 85,
        "4353": 123,
        "4354": 110,
        "4355": 121,
        "4356": 242,
        "4357": 58,
        "4358": 141,
        "4359": 238,
        "4360": 108,
        "4361": 148,
        "4362": 101,
        "4363": 158,
        "4364": 221,
        "4365": 176,
        "4366": 233,
        "4367": 28,
        "4368": 46,
        "4369": 220,
        "4370": 105,
        "4371": 13,
        "4372": 157,
        "4373": 85,
        "4374": 176,
        "4375": 33,
        "4376": 136,
        "4377": 145,
        "4378": 230,
        "4379": 4,
        "4380": 83,
        "4381": 93,
        "4382": 227,
        "4383": 195,
        "4384": 180,
        "4385": 215,
        "4386": 66,
        "4387": 80,
        "4388": 48,
        "4389": 214,
        "4390": 73,
        "4391": 40,
        "4392": 230,
        "4393": 170,
        "4394": 133,
        "4395": 161,
        "4396": 96,
        "4397": 56,
        "4398": 110,
        "4399": 66,
        "4400": 59,
        "4401": 133,
        "4402": 242,
        "4403": 145,
        "4404": 196,
        "4405": 216,
        "4406": 24,
        "4407": 213,
        "4408": 61,
        "4409": 153,
        "4410": 168,
        "4411": 204,
        "4412": 222,
        "4413": 176,
        "4414": 13,
        "4415": 80,
        "4416": 236,
        "4417": 77,
        "4418": 36,
        "4419": 191,
        "4420": 240,
        "4421": 223,
        "4422": 194,
        "4423": 111,
        "4424": 243,
        "4425": 24,
        "4426": 20,
        "4427": 223,
        "4428": 241,
        "4429": 58,
        "4430": 252,
        "4431": 112,
        "4432": 235,
        "4433": 247,
        "4434": 43,
        "4435": 199,
        "4436": 30,
        "4437": 122,
        "4438": 227,
        "4439": 220,
        "4440": 147,
        "4441": 74,
        "4442": 225,
        "4443": 142,
        "4444": 23,
        "4445": 0,
        "4446": 18,
        "4447": 122,
        "4448": 242,
        "4449": 108,
        "4450": 81,
        "4451": 199,
        "4452": 82,
        "4453": 154,
        "4454": 12,
        "4455": 246,
        "4456": 165,
        "4457": 185,
        "4458": 68,
        "4459": 10,
        "4460": 25,
        "4461": 78,
        "4462": 226,
        "4463": 183,
        "4464": 3,
        "4465": 143,
        "4466": 46,
        "4467": 72,
        "4468": 82,
        "4469": 221,
        "4470": 244,
        "4471": 230,
        "4472": 32,
        "4473": 17,
        "4474": 42,
        "4475": 18,
        "4476": 198,
        "4477": 45,
        "4478": 52,
        "4479": 184,
        "4480": 112,
        "4481": 70,
        "4482": 172,
        "4483": 168,
        "4484": 124,
        "4485": 37,
        "4486": 160,
        "4487": 102,
        "4488": 165,
        "4489": 80,
        "4490": 102,
        "4491": 223,
        "4492": 74,
        "4493": 38,
        "4494": 88,
        "4495": 197,
        "4496": 7,
        "4497": 243,
        "4498": 177,
        "4499": 232,
        "4500": 96,
        "4501": 50,
        "4502": 58,
        "4503": 138,
        "4504": 80,
        "4505": 81,
        "4506": 139,
        "4507": 227,
        "4508": 230,
        "4509": 233,
        "4510": 189,
        "4511": 151,
        "4512": 82,
        "4513": 34,
        "4514": 88,
        "4515": 152,
        "4516": 73,
        "4517": 58,
        "4518": 176,
        "4519": 80,
        "4520": 72,
        "4521": 37,
        "4522": 49,
        "4523": 193,
        "4524": 117,
        "4525": 179,
        "4526": 53,
        "4527": 151,
        "4528": 202,
        "4529": 150,
        "4530": 93,
        "4531": 187,
        "4532": 80,
        "4533": 52,
        "4534": 229,
        "4535": 146,
        "4536": 10,
        "4537": 35,
        "4538": 54,
        "4539": 51,
        "4540": 29,
        "4541": 121,
        "4542": 29,
        "4543": 76,
        "4544": 225,
        "4545": 160,
        "4546": 251,
        "4547": 30,
        "4548": 211,
        "4549": 215,
        "4550": 147,
        "4551": 40,
        "4552": 218,
        "4553": 131,
        "4554": 92,
        "4555": 170,
        "4556": 133,
        "4557": 21,
        "4558": 2,
        "4559": 181,
        "4560": 80,
        "4561": 41,
        "4562": 41,
        "4563": 28,
        "4564": 126,
        "4565": 34,
        "4566": 19,
        "4567": 97,
        "4568": 242,
        "4569": 97,
        "4570": 84,
        "4571": 22,
        "4572": 190,
        "4573": 175,
        "4574": 45,
        "4575": 1,
        "4576": 202,
        "4577": 214,
        "4578": 217,
        "4579": 35,
        "4580": 251,
        "4581": 44,
        "4582": 147,
        "4583": 174,
        "4584": 135,
        "4585": 78,
        "4586": 1,
        "4587": 160,
        "4588": 242,
        "4589": 9,
        "4590": 37,
        "4591": 190,
        "4592": 216,
        "4593": 68,
        "4594": 24,
        "4595": 242,
        "4596": 1,
        "4597": 5,
        "4598": 5,
        "4599": 1,
        "4600": 91,
        "4601": 41,
        "4602": 144,
        "4603": 158,
        "4604": 210,
        "4605": 200,
        "4606": 70,
        "4607": 205,
        "4608": 161,
        "4609": 182,
        "4610": 184,
        "4611": 129,
        "4612": 31,
        "4613": 195,
        "4614": 27,
        "4615": 70,
        "4616": 164,
        "4617": 214,
        "4618": 79,
        "4619": 132,
        "4620": 88,
        "4621": 96,
        "4622": 0,
        "4623": 23,
        "4624": 13,
        "4625": 147,
        "4626": 121,
        "4627": 236,
        "4628": 90,
        "4629": 91,
        "4630": 255,
        "4631": 170,
        "4632": 28,
        "4633": 55,
        "4634": 246,
        "4635": 234,
        "4636": 194,
        "4637": 128,
        "4638": 203,
        "4639": 42,
        "4640": 229,
        "4641": 153,
        "4642": 200,
        "4643": 184,
        "4644": 124,
        "4645": 59,
        "4646": 41,
        "4647": 84,
        "4648": 15,
        "4649": 45,
        "4650": 74,
        "4651": 223,
        "4652": 218,
        "4653": 60,
        "4654": 117,
        "4655": 57,
        "4656": 42,
        "4657": 99,
        "4658": 12,
        "4659": 139,
        "4660": 192,
        "4661": 33,
        "4662": 18,
        "4663": 100,
        "4664": 111,
        "4665": 244,
        "4666": 211,
        "4667": 134,
        "4668": 68,
        "4669": 129,
        "4670": 216,
        "4671": 120,
        "4672": 74,
        "4673": 205,
        "4674": 231,
        "4675": 230,
        "4676": 154,
        "4677": 178,
        "4678": 5,
        "4679": 124,
        "4680": 106,
        "4681": 184,
        "4682": 24,
        "4683": 220,
        "4684": 181,
        "4685": 162,
        "4686": 170,
        "4687": 129,
        "4688": 130,
        "4689": 203,
        "4690": 211,
        "4691": 205,
        "4692": 182,
        "4693": 46,
        "4694": 21,
        "4695": 184,
        "4696": 20,
        "4697": 9,
        "4698": 93,
        "4699": 41,
        "4700": 100,
        "4701": 15,
        "4702": 77,
        "4703": 84,
        "4704": 15,
        "4705": 253,
        "4706": 109,
        "4707": 18,
        "4708": 195,
        "4709": 204,
        "4710": 154,
        "4711": 96,
        "4712": 128,
        "4713": 50,
        "4714": 203,
        "4715": 17,
        "4716": 51,
        "4717": 5,
        "4718": 47,
        "4719": 6,
        "4720": 206,
        "4721": 52,
        "4722": 81,
        "4723": 13,
        "4724": 219,
        "4725": 190,
        "4726": 18,
        "4727": 236,
        "4728": 125,
        "4729": 149,
        "4730": 254,
        "4731": 78,
        "4732": 237,
        "4733": 192,
        "4734": 170,
        "4735": 176,
        "4736": 136,
        "4737": 177,
        "4738": 229,
        "4739": 108,
        "4740": 247,
        "4741": 113,
        "4742": 145,
        "4743": 190,
        "4744": 215,
        "4745": 37,
        "4746": 204,
        "4747": 130,
        "4748": 160,
        "4749": 47,
        "4750": 183,
        "4751": 75,
        "4752": 115,
        "4753": 134,
        "4754": 248,
        "4755": 182,
        "4756": 199,
        "4757": 208,
        "4758": 108,
        "4759": 200,
        "4760": 49,
        "4761": 134,
        "4762": 142,
        "4763": 0,
        "4764": 36,
        "4765": 129,
        "4766": 70,
        "4767": 25,
        "4768": 230,
        "4769": 103,
        "4770": 33,
        "4771": 138,
        "4772": 36,
        "4773": 17,
        "4774": 194,
        "4775": 164,
        "4776": 141,
        "4777": 186,
        "4778": 11,
        "4779": 147,
        "4780": 101,
        "4781": 202,
        "4782": 245,
        "4783": 140,
        "4784": 190,
        "4785": 76,
        "4786": 221,
        "4787": 63,
        "4788": 111,
        "4789": 215,
        "4790": 43,
        "4791": 131,
        "4792": 85,
        "4793": 156,
        "4794": 232,
        "4795": 79,
        "4796": 31,
        "4797": 16,
        "4798": 144,
        "4799": 132,
        "4800": 1,
        "4801": 160,
        "4802": 192,
        "4803": 122,
        "4804": 80,
        "4805": 93,
        "4806": 148,
        "4807": 187,
        "4808": 200,
        "4809": 162,
        "4810": 140,
        "4811": 1,
        "4812": 129,
        "4813": 47,
        "4814": 107,
        "4815": 73,
        "4816": 152,
        "4817": 239,
        "4818": 59,
        "4819": 211,
        "4820": 0,
        "4821": 57,
        "4822": 193,
        "4823": 50,
        "4824": 18,
        "4825": 153,
        "4826": 188,
        "4827": 98,
        "4828": 141,
        "4829": 14,
        "4830": 81,
        "4831": 161,
        "4832": 105,
        "4833": 124,
        "4834": 136,
        "4835": 163,
        "4836": 220,
        "4837": 159,
        "4838": 210,
        "4839": 216,
        "4840": 176,
        "4841": 151,
        "4842": 62,
        "4843": 120,
        "4844": 174,
        "4845": 221,
        "4846": 91,
        "4847": 90,
        "4848": 42,
        "4849": 164,
        "4850": 95,
        "4851": 173,
        "4852": 253,
        "4853": 154,
        "4854": 224,
        "4855": 45,
        "4856": 216,
        "4857": 87,
        "4858": 238,
        "4859": 210,
        "4860": 81,
        "4861": 100,
        "4862": 147,
        "4863": 171,
        "4864": 119,
        "4865": 232,
        "4866": 176,
        "4867": 234,
        "4868": 203,
        "4869": 33,
        "4870": 211,
        "4871": 35,
        "4872": 166,
        "4873": 127,
        "4874": 206,
        "4875": 110,
        "4876": 118,
        "4877": 148,
        "4878": 116,
        "4879": 144,
        "4880": 75,
        "4881": 163,
        "4882": 57,
        "4883": 243,
        "4884": 138,
        "4885": 94,
        "4886": 181,
        "4887": 102,
        "4888": 214,
        "4889": 193,
        "4890": 35,
        "4891": 168,
        "4892": 9,
        "4893": 123,
        "4894": 33,
        "4895": 160,
        "4896": 180,
        "4897": 247,
        "4898": 90,
        "4899": 59,
        "4900": 50,
        "4901": 129,
        "4902": 161,
        "4903": 195,
        "4904": 100,
        "4905": 188,
        "4906": 197,
        "4907": 122,
        "4908": 29,
        "4909": 23,
        "4910": 168,
        "4911": 226,
        "4912": 237,
        "4913": 67,
        "4914": 107,
        "4915": 58,
        "4916": 102,
        "4917": 187,
        "4918": 243,
        "4919": 220,
        "4920": 158,
        "4921": 152,
        "4922": 203,
        "4923": 168,
        "4924": 200,
        "4925": 248,
        "4926": 129,
        "4927": 18,
        "4928": 176,
        "4929": 59,
        "4930": 75,
        "4931": 155,
        "4932": 121,
        "4933": 108,
        "4934": 223,
        "4935": 114,
        "4936": 208,
        "4937": 50,
        "4938": 22,
        "4939": 118,
        "4940": 190,
        "4941": 117,
        "4942": 90,
        "4943": 147,
        "4944": 44,
        "4945": 141,
        "4946": 87,
        "4947": 46,
        "4948": 169,
        "4949": 53,
        "4950": 98,
        "4951": 148,
        "4952": 160,
        "4953": 151,
        "4954": 42,
        "4955": 192,
        "4956": 54,
        "4957": 242,
        "4958": 65,
        "4959": 93,
        "4960": 158,
        "4961": 193,
        "4962": 4,
        "4963": 95,
        "4964": 66,
        "4965": 202,
        "4966": 168,
        "4967": 189,
        "4968": 116,
        "4969": 122,
        "4970": 49,
        "4971": 244,
        "4972": 104,
        "4973": 238,
        "4974": 208,
        "4975": 210,
        "4976": 65,
        "4977": 68,
        "4978": 3,
        "4979": 160,
        "4980": 132,
        "4981": 218,
        "4982": 107,
        "4983": 44,
        "4984": 146,
        "4985": 2,
        "4986": 121,
        "4987": 22,
        "4988": 186,
        "4989": 145,
        "4990": 157,
        "4991": 245,
        "4992": 180,
        "4993": 219,
        "4994": 165,
        "4995": 169,
        "4996": 161,
        "4997": 150,
        "4998": 107,
        "4999": 225,
        "5000": 204,
        "5001": 1,
        "5002": 116,
        "5003": 100,
        "5004": 79,
        "5005": 69,
        "5006": 115,
        "5007": 15,
        "5008": 69,
        "5009": 220,
        "5010": 168,
        "5011": 105,
        "5012": 176,
        "5013": 74,
        "5014": 164,
        "5015": 15,
        "5016": 195,
        "5017": 44,
        "5018": 246,
        "5019": 251,
        "5020": 222,
        "5021": 46,
        "5022": 14,
        "5023": 159,
        "5024": 186,
        "5025": 50,
        "5026": 38,
        "5027": 11,
        "5028": 122,
        "5029": 17,
        "5030": 114,
        "5031": 249,
        "5032": 74,
        "5033": 168,
        "5034": 117,
        "5035": 140,
        "5036": 197,
        "5037": 1,
        "5038": 89,
        "5039": 97,
        "5040": 25,
        "5041": 36,
        "5042": 186,
        "5043": 88,
        "5044": 176,
        "5045": 32,
        "5046": 198,
        "5047": 68,
        "5048": 59,
        "5049": 175,
        "5050": 98,
        "5051": 216,
        "5052": 182,
        "5053": 205,
        "5054": 128,
        "5055": 144,
        "5056": 254,
        "5057": 73,
        "5058": 41,
        "5059": 55,
        "5060": 86,
        "5061": 126,
        "5062": 97,
        "5063": 90,
        "5064": 155,
        "5065": 35,
        "5066": 159,
        "5067": 180,
        "5068": 220,
        "5069": 143,
        "5070": 106,
        "5071": 17,
        "5072": 100,
        "5073": 120,
        "5074": 203,
        "5075": 38,
        "5076": 139,
        "5077": 32,
        "5078": 244,
        "5079": 108,
        "5080": 138,
        "5081": 165,
        "5082": 92,
        "5083": 92,
        "5084": 219,
        "5085": 156,
        "5086": 197,
        "5087": 120,
        "5088": 185,
        "5089": 27,
        "5090": 37,
        "5091": 135,
        "5092": 193,
        "5093": 179,
        "5094": 15,
        "5095": 7,
        "5096": 218,
        "5097": 115,
        "5098": 22,
        "5099": 89,
        "5100": 103,
        "5101": 39,
        "5102": 216,
        "5103": 234,
        "5104": 249,
        "5105": 3,
        "5106": 104,
        "5107": 225,
        "5108": 220,
        "5109": 47,
        "5110": 99,
        "5111": 25,
        "5112": 128,
        "5113": 81,
        "5114": 59,
        "5115": 74,
        "5116": 19,
        "5117": 46,
        "5118": 30,
        "5119": 51,
        "5120": 202,
        "5121": 125,
        "5122": 44,
        "5123": 42,
        "5124": 141,
        "5125": 41,
        "5126": 207,
        "5127": 231,
        "5128": 62,
        "5129": 7,
        "5130": 144,
        "5131": 226,
        "5132": 199,
        "5133": 53,
        "5134": 253,
        "5135": 192,
        "5136": 234,
        "5137": 142,
        "5138": 244,
        "5139": 98,
        "5140": 130,
        "5141": 179,
        "5142": 67,
        "5143": 212,
        "5144": 117,
        "5145": 197,
        "5146": 104,
        "5147": 213,
        "5148": 162,
        "5149": 187,
        "5150": 63,
        "5151": 152,
        "5152": 182,
        "5153": 49,
        "5154": 116,
        "5155": 142,
        "5156": 131,
        "5157": 32,
        "5158": 226,
        "5159": 62,
        "5160": 82,
        "5161": 179,
        "5162": 37,
        "5163": 87,
        "5164": 77,
        "5165": 215,
        "5166": 78,
        "5167": 31,
        "5168": 137,
        "5169": 19,
        "5170": 124,
        "5171": 32,
        "5172": 136,
        "5173": 7,
        "5174": 191,
        "5175": 219,
        "5176": 121,
        "5177": 105,
        "5178": 161,
        "5179": 244,
        "5180": 149,
        "5181": 236,
        "5182": 32,
        "5183": 121,
        "5184": 251,
        "5185": 60,
        "5186": 59,
        "5187": 44,
        "5188": 74,
        "5189": 242,
        "5190": 131,
        "5191": 5,
        "5192": 94,
        "5193": 205,
        "5194": 51,
        "5195": 150,
        "5196": 199,
        "5197": 34,
        "5198": 22,
        "5199": 159,
        "5200": 50,
        "5201": 241,
        "5202": 76,
        "5203": 122,
        "5204": 49,
        "5205": 128,
        "5206": 251,
        "5207": 36,
        "5208": 102,
        "5209": 117,
        "5210": 119,
        "5211": 31,
        "5212": 56,
        "5213": 239,
        "5214": 179,
        "5215": 42,
        "5216": 38,
        "5217": 181,
        "5218": 245,
        "5219": 207,
        "5220": 153,
        "5221": 153,
        "5222": 242,
        "5223": 46,
        "5224": 234,
        "5225": 150,
        "5226": 77,
        "5227": 188,
        "5228": 20,
        "5229": 186,
        "5230": 239,
        "5231": 206,
        "5232": 226,
        "5233": 154,
        "5234": 117,
        "5235": 251,
        "5236": 196,
        "5237": 185,
        "5238": 192,
        "5239": 167,
        "5240": 240,
        "5241": 179,
        "5242": 11,
        "5243": 31,
        "5244": 243,
        "5245": 115,
        "5246": 35,
        "5247": 170,
        "5248": 248,
        "5249": 3,
        "5250": 139,
        "5251": 65,
        "5252": 47,
        "5253": 156,
        "5254": 187,
        "5255": 63,
        "5256": 29,
        "5257": 187,
        "5258": 208,
        "5259": 22,
        "5260": 188,
        "5261": 117,
        "5262": 126,
        "5263": 89,
        "5264": 135,
        "5265": 40,
        "5266": 187,
        "5267": 220,
        "5268": 37,
        "5269": 145,
        "5270": 229,
        "5271": 115,
        "5272": 19,
        "5273": 53,
        "5274": 184,
        "5275": 217,
        "5276": 138,
        "5277": 132,
        "5278": 104,
        "5279": 108,
        "5280": 83,
        "5281": 7,
        "5282": 128,
        "5283": 84,
        "5284": 62,
        "5285": 76,
        "5286": 224,
        "5287": 114,
        "5288": 250,
        "5289": 222,
        "5290": 254,
        "5291": 151,
        "5292": 85,
        "5293": 154,
        "5294": 114,
        "5295": 109,
        "5296": 183,
        "5297": 6,
        "5298": 91,
        "5299": 97,
        "5300": 163,
        "5301": 223,
        "5302": 22,
        "5303": 127,
        "5304": 100,
        "5305": 157,
        "5306": 224,
        "5307": 55,
        "5308": 54,
        "5309": 197,
        "5310": 110,
        "5311": 82,
        "5312": 198,
        "5313": 44,
        "5314": 21,
        "5315": 88,
        "5316": 89,
        "5317": 70,
        "5318": 69,
        "5319": 148,
        "5320": 43,
        "5321": 10,
        "5322": 91,
        "5323": 94,
        "5324": 233,
        "5325": 15,
        "5326": 220,
        "5327": 106,
        "5328": 90,
        "5329": 168,
        "5330": 146,
        "5331": 176,
        "5332": 31,
        "5333": 1,
        "5334": 123,
        "5335": 13,
        "5336": 116,
        "5337": 107,
        "5338": 44,
        "5339": 152,
        "5340": 117,
        "5341": 161,
        "5342": 78,
        "5343": 234,
        "5344": 17,
        "5345": 8,
        "5346": 66,
        "5347": 35,
        "5348": 235,
        "5349": 15,
        "5350": 43,
        "5351": 207,
        "5352": 133,
        "5353": 181,
        "5354": 220,
        "5355": 89,
        "5356": 255,
        "5357": 138,
        "5358": 113,
        "5359": 226,
        "5360": 4,
        "5361": 9,
        "5362": 222,
        "5363": 223,
        "5364": 49,
        "5365": 132,
        "5366": 32,
        "5367": 179,
        "5368": 218,
        "5369": 56,
        "5370": 90,
        "5371": 77,
        "5372": 202,
        "5373": 223,
        "5374": 10,
        "5375": 45,
        "5376": 138,
        "5377": 37,
        "5378": 73,
        "5379": 12,
        "5380": 163,
        "5381": 117,
        "5382": 225,
        "5383": 219,
        "5384": 16,
        "5385": 154,
        "5386": 243,
        "5387": 222,
        "5388": 140,
        "5389": 231,
        "5390": 83,
        "5391": 214,
        "5392": 217,
        "5393": 39,
        "5394": 167,
        "5395": 127,
        "5396": 144,
        "5397": 124,
        "5398": 192,
        "5399": 210,
        "5400": 129,
        "5401": 194,
        "5402": 25,
        "5403": 93,
        "5404": 181,
        "5405": 10,
        "5406": 158,
        "5407": 41,
        "5408": 120,
        "5409": 39,
        "5410": 232,
        "5411": 239,
        "5412": 187,
        "5413": 104,
        "5414": 167,
        "5415": 132,
        "5416": 77,
        "5417": 16,
        "5418": 213,
        "5419": 170,
        "5420": 70,
        "5421": 174,
        "5422": 78,
        "5423": 218,
        "5424": 171,
        "5425": 237,
        "5426": 237,
        "5427": 12,
        "5428": 197,
        "5429": 46,
        "5430": 234,
        "5431": 126,
        "5432": 45,
        "5433": 92,
        "5434": 68,
        "5435": 56,
        "5436": 31,
        "5437": 147,
        "5438": 186,
        "5439": 117,
        "5440": 68,
        "5441": 163,
        "5442": 98,
        "5443": 66,
        "5444": 101,
        "5445": 10,
        "5446": 30,
        "5447": 14,
        "5448": 167,
        "5449": 22,
        "5450": 108,
        "5451": 113,
        "5452": 161,
        "5453": 14,
        "5454": 142,
        "5455": 30,
        "5456": 17,
        "5457": 134,
        "5458": 74,
        "5459": 72,
        "5460": 113,
        "5461": 253,
        "5462": 223,
        "5463": 34,
        "5464": 58,
        "5465": 100,
        "5466": 241,
        "5467": 212,
        "5468": 183,
        "5469": 86,
        "5470": 22,
        "5471": 53,
        "5472": 143,
        "5473": 104,
        "5474": 186,
        "5475": 22,
        "5476": 160,
        "5477": 228,
        "5478": 48,
        "5479": 24,
        "5480": 208,
        "5481": 102,
        "5482": 190,
        "5483": 99,
        "5484": 82,
        "5485": 245,
        "5486": 238,
        "5487": 187,
        "5488": 203,
        "5489": 254,
        "5490": 72,
        "5491": 47,
        "5492": 185,
        "5493": 219,
        "5494": 217,
        "5495": 52,
        "5496": 184,
        "5497": 225,
        "5498": 100,
        "5499": 240,
        "5500": 90,
        "5501": 217,
        "5502": 106,
        "5503": 61,
        "5504": 172,
        "5505": 105,
        "5506": 225,
        "5507": 79,
        "5508": 213,
        "5509": 131,
        "5510": 27,
        "5511": 201,
        "5512": 148,
        "5513": 2,
        "5514": 253,
        "5515": 49,
        "5516": 100,
        "5517": 217,
        "5518": 180,
        "5519": 46,
        "5520": 28,
        "5521": 203,
        "5522": 86,
        "5523": 189,
        "5524": 128,
        "5525": 20,
        "5526": 88,
        "5527": 83,
        "5528": 194,
        "5529": 121,
        "5530": 154,
        "5531": 168,
        "5532": 167,
        "5533": 85,
        "5534": 160,
        "5535": 130,
        "5536": 132,
        "5537": 50,
        "5538": 225,
        "5539": 48,
        "5540": 86,
        "5541": 186,
        "5542": 92,
        "5543": 149,
        "5544": 152,
        "5545": 239,
        "5546": 255,
        "5547": 112,
        "5548": 74,
        "5549": 143,
        "5550": 55,
        "5551": 157,
        "5552": 186,
        "5553": 117,
        "5554": 134,
        "5555": 18,
        "5556": 73,
        "5557": 113,
        "5558": 247,
        "5559": 161,
        "5560": 52,
        "5561": 134,
        "5562": 223,
        "5563": 121,
        "5564": 136,
        "5565": 135,
        "5566": 207,
        "5567": 43,
        "5568": 157,
        "5569": 80,
        "5570": 238,
        "5571": 85,
        "5572": 132,
        "5573": 105,
        "5574": 239,
        "5575": 218,
        "5576": 233,
        "5577": 152,
        "5578": 23,
        "5579": 251,
        "5580": 11,
        "5581": 76,
        "5582": 34,
        "5583": 179,
        "5584": 96,
        "5585": 194,
        "5586": 216,
        "5587": 65,
        "5588": 110,
        "5589": 105,
        "5590": 68,
        "5591": 30,
        "5592": 98,
        "5593": 89,
        "5594": 136,
        "5595": 177,
        "5596": 44,
        "5597": 95,
        "5598": 155,
        "5599": 164,
        "5600": 14,
        "5601": 227,
        "5602": 246,
        "5603": 19,
        "5604": 1,
        "5605": 91,
        "5606": 77,
        "5607": 134,
        "5608": 43,
        "5609": 97,
        "5610": 95,
        "5611": 239,
        "5612": 124,
        "5613": 77,
        "5614": 48,
        "5615": 131,
        "5616": 128,
        "5617": 164,
        "5618": 4,
        "5619": 222,
        "5620": 75,
        "5621": 172,
        "5622": 7,
        "5623": 2,
        "5624": 167,
        "5625": 73,
        "5626": 109,
        "5627": 132,
        "5628": 27,
        "5629": 75,
        "5630": 96,
        "5631": 125,
        "5632": 25,
        "5633": 109,
        "5634": 138,
        "5635": 225,
        "5636": 149,
        "5637": 3,
        "5638": 220,
        "5639": 41,
        "5640": 168,
        "5641": 161,
        "5642": 19,
        "5643": 131,
        "5644": 76,
        "5645": 38,
        "5646": 136,
        "5647": 115,
        "5648": 149,
        "5649": 57,
        "5650": 179,
        "5651": 84,
        "5652": 68,
        "5653": 123,
        "5654": 1,
        "5655": 47,
        "5656": 226,
        "5657": 152,
        "5658": 240,
        "5659": 128,
        "5660": 95,
        "5661": 221,
        "5662": 57,
        "5663": 46,
        "5664": 192,
        "5665": 196,
        "5666": 26,
        "5667": 1,
        "5668": 16,
        "5669": 237,
        "5670": 32,
        "5671": 92,
        "5672": 232,
        "5673": 154,
        "5674": 176,
        "5675": 117,
        "5676": 231,
        "5677": 19,
        "5678": 4,
        "5679": 208,
        "5680": 84,
        "5681": 153,
        "5682": 208,
        "5683": 218,
        "5684": 124,
        "5685": 179,
        "5686": 98,
        "5687": 179,
        "5688": 140,
        "5689": 71,
        "5690": 247,
        "5691": 150,
        "5692": 70,
        "5693": 46,
        "5694": 10,
        "5695": 179,
        "5696": 156,
        "5697": 231,
        "5698": 151,
        "5699": 177,
        "5700": 36,
        "5701": 241,
        "5702": 204,
        "5703": 199,
        "5704": 176,
        "5705": 152,
        "5706": 94,
        "5707": 105,
        "5708": 98,
        "5709": 175,
        "5710": 253,
        "5711": 4,
        "5712": 171,
        "5713": 147,
        "5714": 211,
        "5715": 195,
        "5716": 40,
        "5717": 93,
        "5718": 46,
        "5719": 61,
        "5720": 64,
        "5721": 169,
        "5722": 157,
        "5723": 62,
        "5724": 175,
        "5725": 66,
        "5726": 220,
        "5727": 240,
        "5728": 70,
        "5729": 251,
        "5730": 131,
        "5731": 117,
        "5732": 129,
        "5733": 131,
        "5734": 154,
        "5735": 136,
        "5736": 8,
        "5737": 23,
        "5738": 221,
        "5739": 173,
        "5740": 70,
        "5741": 194,
        "5742": 0,
        "5743": 83,
        "5744": 104,
        "5745": 165,
        "5746": 36,
        "5747": 100,
        "5748": 127,
        "5749": 152,
        "5750": 150,
        "5751": 31,
        "5752": 0,
        "5753": 25,
        "5754": 153,
        "5755": 249,
        "5756": 90,
        "5757": 98,
        "5758": 135,
        "5759": 8,
        "5760": 127,
        "5761": 240,
        "5762": 168,
        "5763": 213,
        "5764": 237,
        "5765": 87,
        "5766": 144,
        "5767": 166,
        "5768": 224,
        "5769": 186,
        "5770": 113,
        "5771": 212,
        "5772": 6,
        "5773": 229,
        "5774": 182,
        "5775": 8,
        "5776": 155,
        "5777": 245,
        "5778": 240,
        "5779": 249,
        "5780": 89,
        "5781": 89,
        "5782": 143,
        "5783": 126,
        "5784": 214,
        "5785": 132,
        "5786": 236,
        "5787": 179,
        "5788": 231,
        "5789": 167,
        "5790": 124,
        "5791": 176,
        "5792": 35,
        "5793": 41,
        "5794": 176,
        "5795": 177,
        "5796": 95,
        "5797": 118,
        "5798": 3,
        "5799": 250,
        "5800": 59,
        "5801": 91,
        "5802": 153,
        "5803": 82,
        "5804": 130,
        "5805": 249,
        "5806": 58,
        "5807": 5,
        "5808": 23,
        "5809": 154,
        "5810": 241,
        "5811": 240,
        "5812": 239,
        "5813": 124,
        "5814": 191,
        "5815": 6,
        "5816": 174,
        "5817": 181,
        "5818": 160,
        "5819": 22,
        "5820": 127,
        "5821": 66,
        "5822": 78,
        "5823": 37,
        "5824": 28,
        "5825": 146,
        "5826": 143,
        "5827": 143,
        "5828": 218,
        "5829": 234,
        "5830": 32,
        "5831": 180,
        "5832": 240,
        "5833": 4,
        "5834": 1,
        "5835": 97,
        "5836": 130,
        "5837": 187,
        "5838": 88,
        "5839": 132,
        "5840": 91,
        "5841": 24,
        "5842": 161,
        "5843": 211,
        "5844": 64,
        "5845": 79,
        "5846": 246,
        "5847": 41,
        "5848": 217,
        "5849": 68,
        "5850": 135,
        "5851": 22,
        "5852": 98,
        "5853": 72,
        "5854": 62,
        "5855": 20,
        "5856": 65,
        "5857": 129,
        "5858": 25,
        "5859": 29,
        "5860": 184,
        "5861": 9,
        "5862": 109,
        "5863": 156,
        "5864": 45,
        "5865": 93,
        "5866": 251,
        "5867": 133,
        "5868": 238,
        "5869": 239,
        "5870": 252,
        "5871": 130,
        "5872": 94,
        "5873": 180,
        "5874": 202,
        "5875": 78,
        "5876": 216,
        "5877": 120,
        "5878": 146,
        "5879": 131,
        "5880": 44,
        "5881": 74,
        "5882": 209,
        "5883": 172,
        "5884": 33,
        "5885": 211,
        "5886": 15,
        "5887": 36,
        "5888": 244,
        "5889": 135,
        "5890": 184,
        "5891": 21,
        "5892": 227,
        "5893": 5,
        "5894": 247,
        "5895": 169,
        "5896": 122,
        "5897": 43,
        "5898": 69,
        "5899": 23,
        "5900": 99,
        "5901": 227,
        "5902": 29,
        "5903": 23,
        "5904": 110,
        "5905": 167,
        "5906": 216,
        "5907": 225,
        "5908": 112,
        "5909": 42,
        "5910": 145,
        "5911": 172,
        "5912": 235,
        "5913": 98,
        "5914": 127,
        "5915": 99,
        "5916": 197,
        "5917": 222,
        "5918": 74,
        "5919": 29,
        "5920": 134,
        "5921": 148,
        "5922": 126,
        "5923": 19,
        "5924": 184,
        "5925": 221,
        "5926": 57,
        "5927": 61,
        "5928": 107,
        "5929": 173,
        "5930": 131,
        "5931": 117,
        "5932": 220,
        "5933": 64,
        "5934": 128,
        "5935": 113,
        "5936": 5,
        "5937": 205,
        "5938": 179,
        "5939": 239,
        "5940": 41,
        "5941": 124,
        "5942": 7,
        "5943": 243,
        "5944": 24,
        "5945": 230,
        "5946": 170,
        "5947": 213,
        "5948": 59,
        "5949": 55,
        "5950": 215,
        "5951": 28,
        "5952": 17,
        "5953": 180,
        "5954": 211,
        "5955": 245,
        "5956": 197,
        "5957": 48,
        "5958": 207,
        "5959": 116,
        "5960": 30,
        "5961": 159,
        "5962": 11,
        "5963": 118,
        "5964": 126,
        "5965": 112,
        "5966": 148,
        "5967": 248,
        "5968": 0,
        "5969": 206,
        "5970": 94,
        "5971": 192,
        "5972": 161,
        "5973": 247,
        "5974": 83,
        "5975": 40,
        "5976": 202,
        "5977": 230,
        "5978": 55,
        "5979": 13,
        "5980": 52,
        "5981": 165,
        "5982": 140,
        "5983": 224,
        "5984": 167,
        "5985": 66,
        "5986": 20,
        "5987": 44,
        "5988": 137,
        "5989": 13,
        "5990": 221,
        "5991": 136,
        "5992": 90,
        "5993": 31,
        "5994": 229,
        "5995": 117,
        "5996": 91,
        "5997": 163,
        "5998": 23,
        "5999": 182,
        "6000": 89,
        "6001": 162,
        "6002": 180,
        "6003": 108,
        "6004": 91,
        "6005": 164,
        "6006": 155,
        "6007": 48,
        "6008": 176,
        "6009": 143,
        "6010": 224,
        "6011": 181,
        "6012": 137,
        "6013": 167,
        "6014": 168,
        "6015": 6,
        "6016": 4,
        "6017": 76,
        "6018": 105,
        "6019": 15,
        "6020": 148,
        "6021": 224,
        "6022": 62,
        "6023": 183,
        "6024": 190,
        "6025": 252,
        "6026": 132,
        "6027": 109,
        "6028": 245,
        "6029": 105,
        "6030": 117,
        "6031": 214,
        "6032": 23,
        "6033": 202,
        "6034": 41,
        "6035": 72,
        "6036": 16,
        "6037": 176,
        "6038": 43,
        "6039": 7,
        "6040": 230,
        "6041": 218,
        "6042": 130,
        "6043": 19,
        "6044": 178,
        "6045": 81,
        "6046": 63,
        "6047": 238,
        "6048": 141,
        "6049": 112,
        "6050": 234,
        "6051": 206,
        "6052": 34,
        "6053": 109,
        "6054": 180,
        "6055": 254,
        "6056": 233,
        "6057": 90,
        "6058": 121,
        "6059": 210,
        "6060": 165,
        "6061": 121,
        "6062": 162,
        "6063": 188,
        "6064": 224,
        "6065": 133,
        "6066": 77,
        "6067": 138,
        "6068": 58,
        "6069": 33,
        "6070": 5,
        "6071": 90,
        "6072": 88,
        "6073": 82,
        "6074": 58,
        "6075": 158,
        "6076": 37,
        "6077": 179,
        "6078": 41,
        "6079": 251,
        "6080": 26,
        "6081": 66,
        "6082": 32,
        "6083": 153,
        "6084": 74,
        "6085": 218,
        "6086": 80,
        "6087": 168,
        "6088": 232,
        "6089": 170,
        "6090": 157,
        "6091": 7,
        "6092": 77,
        "6093": 62,
        "6094": 122,
        "6095": 4,
        "6096": 132,
        "6097": 13,
        "6098": 192,
        "6099": 43,
        "6100": 235,
        "6101": 51,
        "6102": 242,
        "6103": 136,
        "6104": 248,
        "6105": 101,
        "6106": 90,
        "6107": 203,
        "6108": 0,
        "6109": 216,
        "6110": 229,
        "6111": 14,
        "6112": 13,
        "6113": 160,
        "6114": 183,
        "6115": 9,
        "6116": 234,
        "6117": 127,
        "6118": 112,
        "6119": 223,
        "6120": 111,
        "6121": 132,
        "6122": 88,
        "6123": 190,
        "6124": 60,
        "6125": 227,
        "6126": 169,
        "6127": 200,
        "6128": 166,
        "6129": 176,
        "6130": 86,
        "6131": 98,
        "6132": 48,
        "6133": 155,
        "6134": 202,
        "6135": 18,
        "6136": 159,
        "6137": 47,
        "6138": 243,
        "6139": 121,
        "6140": 29,
        "6141": 195,
        "6142": 144,
        "6143": 5,
        "6144": 214,
        "6145": 20,
        "6146": 87,
        "6147": 140,
        "6148": 213,
        "6149": 92,
        "6150": 3,
        "6151": 220,
        "6152": 87,
        "6153": 199,
        "6154": 180,
        "6155": 216,
        "6156": 119,
        "6157": 102,
        "6158": 13,
        "6159": 91,
        "6160": 219,
        "6161": 119,
        "6162": 251,
        "6163": 207,
        "6164": 198,
        "6165": 19,
        "6166": 119,
        "6167": 251,
        "6168": 107,
        "6169": 30,
        "6170": 158,
        "6171": 160,
        "6172": 31,
        "6173": 47,
        "6174": 63,
        "6175": 247,
        "6176": 59,
        "6177": 199,
        "6178": 31,
        "6179": 76,
        "6180": 24,
        "6181": 135,
        "6182": 98,
        "6183": 60,
        "6184": 201,
        "6185": 102,
        "6186": 23,
        "6187": 154,
        "6188": 248,
        "6189": 205,
        "6190": 68,
        "6191": 238,
        "6192": 105,
        "6193": 59,
        "6194": 8,
        "6195": 93,
        "6196": 93,
        "6197": 229,
        "6198": 247,
        "6199": 210,
        "6200": 0,
        "6201": 13,
        "6202": 133,
        "6203": 144,
        "6204": 107,
        "6205": 86,
        "6206": 178,
        "6207": 167,
        "6208": 230,
        "6209": 63,
        "6210": 177,
        "6211": 2,
        "6212": 3,
        "6213": 192,
        "6214": 8,
        "6215": 113,
        "6216": 225,
        "6217": 171,
        "6218": 106,
        "6219": 89,
        "6220": 10,
        "6221": 15,
        "6222": 2,
        "6223": 210,
        "6224": 55,
        "6225": 13,
        "6226": 202,
        "6227": 80,
        "6228": 251,
        "6229": 38,
        "6230": 175,
        "6231": 26,
        "6232": 221,
        "6233": 158,
        "6234": 28,
        "6235": 25,
        "6236": 42,
        "6237": 211,
        "6238": 199,
        "6239": 18,
        "6240": 226,
        "6241": 251,
        "6242": 192,
        "6243": 42,
        "6244": 244,
        "6245": 56,
        "6246": 189,
        "6247": 56,
        "6248": 39,
        "6249": 113,
        "6250": 238,
        "6251": 190,
        "6252": 96,
        "6253": 130,
        "6254": 58,
        "6255": 10,
        "6256": 216,
        "6257": 196,
        "6258": 43,
        "6259": 72,
        "6260": 198,
        "6261": 123,
        "6262": 47,
        "6263": 234,
        "6264": 18,
        "6265": 202,
        "6266": 5,
        "6267": 149,
        "6268": 248,
        "6269": 23,
        "6270": 80,
        "6271": 14,
        "6272": 108,
        "6273": 226,
        "6274": 0,
        "6275": 190,
        "6276": 90,
        "6277": 146,
        "6278": 170,
        "6279": 33,
        "6280": 109,
        "6281": 12,
        "6282": 119,
        "6283": 19,
        "6284": 243,
        "6285": 11,
        "6286": 75,
        "6287": 133,
        "6288": 99,
        "6289": 92,
        "6290": 141,
        "6291": 107,
        "6292": 146,
        "6293": 241,
        "6294": 240,
        "6295": 122,
        "6296": 109,
        "6297": 89,
        "6298": 37,
        "6299": 34,
        "6300": 252,
        "6301": 12,
        "6302": 69,
        "6303": 163,
        "6304": 116,
        "6305": 211,
        "6306": 247,
        "6307": 84,
        "6308": 182,
        "6309": 94,
        "6310": 11,
        "6311": 232,
        "6312": 25,
        "6313": 0,
        "6314": 69,
        "6315": 238,
        "6316": 86,
        "6317": 2,
        "6318": 92,
        "6319": 83,
        "6320": 31,
        "6321": 73,
        "6322": 180,
        "6323": 105,
        "6324": 134,
        "6325": 86,
        "6326": 70,
        "6327": 50,
        "6328": 198,
        "6329": 243,
        "6330": 15,
        "6331": 177,
        "6332": 158,
        "6333": 125,
        "6334": 38,
        "6335": 62,
        "6336": 221,
        "6337": 166,
        "6338": 208,
        "6339": 15,
        "6340": 196,
        "6341": 12,
        "6342": 57,
        "6343": 203,
        "6344": 106,
        "6345": 205,
        "6346": 16,
        "6347": 138,
        "6348": 138,
        "6349": 205,
        "6350": 141,
        "6351": 35,
        "6352": 124,
        "6353": 200,
        "6354": 242,
        "6355": 67,
        "6356": 20,
        "6357": 38,
        "6358": 170,
        "6359": 145,
        "6360": 164,
        "6361": 142,
        "6362": 235,
        "6363": 97,
        "6364": 105,
        "6365": 50,
        "6366": 187,
        "6367": 232,
        "6368": 21,
        "6369": 214,
        "6370": 238,
        "6371": 136,
        "6372": 78,
        "6373": 250,
        "6374": 178,
        "6375": 171,
        "6376": 11,
        "6377": 229,
        "6378": 126,
        "6379": 61,
        "6380": 107,
        "6381": 106,
        "6382": 225,
        "6383": 35,
        "6384": 255,
        "6385": 173,
        "6386": 247,
        "6387": 194,
        "6388": 106,
        "6389": 160,
        "6390": 175,
        "6391": 144,
        "6392": 8,
        "6393": 31,
        "6394": 150,
        "6395": 69,
        "6396": 57,
        "6397": 1,
        "6398": 138,
        "6399": 37,
        "6400": 142,
        "6401": 128,
        "6402": 236,
        "6403": 218,
        "6404": 120,
        "6405": 58,
        "6406": 87,
        "6407": 111,
        "6408": 208,
        "6409": 16,
        "6410": 198,
        "6411": 156,
        "6412": 144,
        "6413": 128,
        "6414": 209,
        "6415": 75,
        "6416": 77,
        "6417": 113,
        "6418": 118,
        "6419": 133,
        "6420": 9,
        "6421": 61,
        "6422": 16,
        "6423": 71,
        "6424": 180,
        "6425": 138,
        "6426": 155,
        "6427": 231,
        "6428": 213,
        "6429": 141,
        "6430": 174,
        "6431": 225,
        "6432": 200,
        "6433": 209,
        "6434": 18,
        "6435": 189,
        "6436": 182,
        "6437": 243,
        "6438": 117,
        "6439": 166,
        "6440": 72,
        "6441": 119,
        "6442": 182,
        "6443": 35,
        "6444": 134,
        "6445": 124,
        "6446": 198,
        "6447": 18,
        "6448": 106,
        "6449": 125,
        "6450": 65,
        "6451": 216,
        "6452": 177,
        "6453": 53,
        "6454": 238,
        "6455": 90,
        "6456": 70,
        "6457": 238,
        "6458": 117,
        "6459": 95,
        "6460": 191,
        "6461": 165,
        "6462": 236,
        "6463": 108,
        "6464": 241,
        "6465": 150,
        "6466": 147,
        "6467": 85,
        "6468": 215,
        "6469": 16,
        "6470": 189,
        "6471": 153,
        "6472": 59,
        "6473": 190,
        "6474": 224,
        "6475": 1,
        "6476": 149,
        "6477": 25,
        "6478": 96,
        "6479": 252,
        "6480": 4,
        "6481": 188,
        "6482": 169,
        "6483": 161,
        "6484": 158,
        "6485": 158,
        "6486": 155,
        "6487": 77,
        "6488": 115,
        "6489": 208,
        "6490": 54,
        "6491": 9,
        "6492": 39,
        "6493": 206,
        "6494": 3,
        "6495": 38,
        "6496": 208,
        "6497": 122,
        "6498": 42,
        "6499": 163,
        "6500": 142,
        "6501": 250,
        "6502": 227,
        "6503": 159,
        "6504": 9,
        "6505": 123,
        "6506": 64,
        "6507": 0,
        "6508": 123,
        "6509": 181,
        "6510": 240,
        "6511": 197,
        "6512": 210,
        "6513": 44,
        "6514": 192,
        "6515": 240,
        "6516": 229,
        "6517": 111,
        "6518": 105,
        "6519": 160,
        "6520": 22,
        "6521": 130,
        "6522": 234,
        "6523": 136,
        "6524": 176,
        "6525": 2,
        "6526": 111,
        "6527": 226,
        "6528": 151,
        "6529": 132,
        "6530": 164,
        "6531": 122,
        "6532": 24,
        "6533": 118,
        "6534": 114,
        "6535": 4,
        "6536": 20,
        "6537": 189,
        "6538": 40,
        "6539": 1,
        "6540": 115,
        "6541": 178,
        "6542": 17,
        "6543": 84,
        "6544": 30,
        "6545": 169,
        "6546": 171,
        "6547": 163,
        "6548": 62,
        "6549": 109,
        "6550": 98,
        "6551": 206,
        "6552": 247,
        "6553": 252,
        "6554": 204,
        "6555": 248,
        "6556": 177,
        "6557": 94,
        "6558": 130,
        "6559": 55,
        "6560": 82,
        "6561": 145,
        "6562": 182,
        "6563": 250,
        "6564": 230,
        "6565": 45,
        "6566": 83,
        "6567": 228,
        "6568": 128,
        "6569": 15,
        "6570": 39,
        "6571": 92,
        "6572": 95,
        "6573": 112,
        "6574": 91,
        "6575": 125,
        "6576": 173,
        "6577": 119,
        "6578": 236,
        "6579": 12,
        "6580": 93,
        "6581": 212,
        "6582": 104,
        "6583": 36,
        "6584": 239,
        "6585": 174,
        "6586": 80,
        "6587": 17,
        "6588": 239,
        "6589": 121,
        "6590": 92,
        "6591": 53,
        "6592": 67,
        "6593": 44,
        "6594": 224,
        "6595": 6,
        "6596": 71,
        "6597": 251,
        "6598": 216,
        "6599": 131,
        "6600": 21,
        "6601": 33,
        "6602": 235,
        "6603": 115,
        "6604": 29,
        "6605": 17,
        "6606": 213,
        "6607": 33,
        "6608": 227,
        "6609": 167,
        "6610": 37,
        "6611": 145,
        "6612": 194,
        "6613": 194,
        "6614": 140,
        "6615": 66,
        "6616": 126,
        "6617": 162,
        "6618": 188,
        "6619": 236,
        "6620": 54,
        "6621": 183,
        "6622": 146,
        "6623": 99,
        "6624": 251,
        "6625": 87,
        "6626": 240,
        "6627": 40,
        "6628": 44,
        "6629": 160,
        "6630": 168,
        "6631": 29,
        "6632": 41,
        "6633": 41,
        "6634": 14,
        "6635": 129,
        "6636": 177,
        "6637": 64,
        "6638": 122,
        "6639": 222,
        "6640": 1,
        "6641": 202,
        "6642": 61,
        "6643": 108,
        "6644": 196,
        "6645": 185,
        "6646": 127,
        "6647": 3,
        "6648": 117,
        "6649": 145,
        "6650": 0,
        "6651": 248,
        "6652": 143,
        "6653": 0,
        "6654": 162,
        "6655": 242,
        "6656": 26,
        "6657": 28,
        "6658": 241,
        "6659": 198,
        "6660": 212,
        "6661": 204,
        "6662": 54,
        "6663": 157,
        "6664": 156,
        "6665": 8,
        "6666": 152,
        "6667": 113,
        "6668": 237,
        "6669": 77,
        "6670": 44,
        "6671": 214,
        "6672": 240,
        "6673": 160,
        "6674": 76,
        "6675": 242,
        "6676": 238,
        "6677": 249,
        "6678": 201,
        "6679": 39,
        "6680": 248,
        "6681": 107,
        "6682": 76,
        "6683": 174,
        "6684": 25,
        "6685": 212,
        "6686": 58,
        "6687": 172,
        "6688": 242,
        "6689": 123,
        "6690": 178,
        "6691": 212,
        "6692": 248,
        "6693": 244,
        "6694": 211,
        "6695": 108,
        "6696": 104,
        "6697": 184,
        "6698": 60,
        "6699": 212,
        "6700": 156,
        "6701": 71,
        "6702": 118,
        "6703": 174,
        "6704": 40,
        "6705": 238,
        "6706": 166,
        "6707": 7,
        "6708": 8,
        "6709": 114,
        "6710": 234,
        "6711": 24,
        "6712": 38,
        "6713": 113,
        "6714": 165,
        "6715": 128,
        "6716": 180,
        "6717": 222,
        "6718": 185,
        "6719": 58,
        "6720": 233,
        "6721": 212,
        "6722": 113,
        "6723": 96,
        "6724": 223,
        "6725": 19,
        "6726": 255,
        "6727": 191,
        "6728": 114,
        "6729": 154,
        "6730": 49,
        "6731": 125,
        "6732": 141,
        "6733": 85,
        "6734": 181,
        "6735": 119,
        "6736": 181,
        "6737": 239,
        "6738": 187,
        "6739": 116,
        "6740": 13,
        "6741": 157,
        "6742": 101,
        "6743": 240,
        "6744": 147,
        "6745": 61,
        "6746": 63,
        "6747": 64,
        "6748": 206,
        "6749": 128,
        "6750": 161,
        "6751": 43,
        "6752": 156,
        "6753": 126,
        "6754": 109,
        "6755": 154,
        "6756": 36,
        "6757": 63,
        "6758": 26,
        "6759": 62,
        "6760": 102,
        "6761": 197,
        "6762": 189,
        "6763": 143,
        "6764": 104,
        "6765": 232,
        "6766": 148,
        "6767": 11,
        "6768": 222,
        "6769": 155,
        "6770": 52,
        "6771": 185,
        "6772": 248,
        "6773": 90,
        "6774": 182,
        "6775": 133,
        "6776": 171,
        "6777": 3,
        "6778": 171,
        "6779": 92,
        "6780": 134,
        "6781": 235,
        "6782": 203,
        "6783": 249,
        "6784": 244,
        "6785": 233,
        "6786": 4,
        "6787": 178,
        "6788": 195,
        "6789": 246,
        "6790": 112,
        "6791": 22,
        "6792": 243,
        "6793": 237,
        "6794": 254,
        "6795": 13,
        "6796": 202,
        "6797": 223,
        "6798": 147,
        "6799": 41,
        "6800": 123,
        "6801": 103,
        "6802": 232,
        "6803": 153,
        "6804": 41,
        "6805": 94,
        "6806": 243,
        "6807": 200,
        "6808": 116,
        "6809": 85,
        "6810": 198,
        "6811": 217,
        "6812": 87,
        "6813": 58,
        "6814": 116,
        "6815": 22,
        "6816": 52,
        "6817": 7,
        "6818": 185,
        "6819": 164,
        "6820": 146,
        "6821": 29,
        "6822": 96,
        "6823": 2,
        "6824": 7,
        "6825": 167,
        "6826": 82,
        "6827": 52,
        "6828": 19,
        "6829": 103,
        "6830": 152,
        "6831": 125,
        "6832": 247,
        "6833": 23,
        "6834": 219,
        "6835": 183,
        "6836": 220,
        "6837": 167,
        "6838": 32,
        "6839": 42,
        "6840": 213,
        "6841": 203,
        "6842": 192,
        "6843": 22,
        "6844": 82,
        "6845": 53,
        "6846": 183,
        "6847": 67,
        "6848": 72,
        "6849": 64,
        "6850": 52,
        "6851": 33,
        "6852": 16,
        "6853": 107,
        "6854": 34,
        "6855": 191,
        "6856": 108,
        "6857": 212,
        "6858": 253,
        "6859": 169,
        "6860": 234,
        "6861": 141,
        "6862": 30,
        "6863": 229,
        "6864": 22,
        "6865": 38,
        "6866": 77,
        "6867": 180,
        "6868": 1,
        "6869": 213,
        "6870": 165,
        "6871": 72,
        "6872": 147,
        "6873": 0,
        "6874": 197,
        "6875": 52,
        "6876": 156,
        "6877": 145,
        "6878": 106,
        "6879": 198,
        "6880": 97,
        "6881": 172,
        "6882": 104,
        "6883": 1,
        "6884": 37,
        "6885": 93,
        "6886": 93,
        "6887": 43,
        "6888": 83,
        "6889": 226,
        "6890": 58,
        "6891": 94,
        "6892": 43,
        "6893": 28,
        "6894": 122,
        "6895": 211,
        "6896": 80,
        "6897": 105,
        "6898": 4,
        "6899": 136,
        "6900": 176,
        "6901": 30,
        "6902": 62,
        "6903": 94,
        "6904": 224,
        "6905": 236,
        "6906": 34,
        "6907": 137,
        "6908": 3,
        "6909": 183,
        "6910": 109,
        "6911": 232,
        "6912": 237,
        "6913": 33,
        "6914": 32,
        "6915": 248,
        "6916": 16,
        "6917": 144,
        "6918": 36,
        "6919": 110,
        "6920": 203,
        "6921": 113,
        "6922": 35,
        "6923": 36,
        "6924": 77,
        "6925": 156,
        "6926": 201,
        "6927": 19,
        "6928": 173,
        "6929": 125,
        "6930": 210,
        "6931": 20,
        "6932": 169,
        "6933": 223,
        "6934": 229,
        "6935": 245,
        "6936": 82,
        "6937": 6,
        "6938": 57,
        "6939": 23,
        "6940": 212,
        "6941": 175,
        "6942": 166,
        "6943": 190,
        "6944": 55,
        "6945": 102,
        "6946": 143,
        "6947": 77,
        "6948": 107,
        "6949": 41,
        "6950": 189,
        "6951": 117,
        "6952": 209,
        "6953": 37,
        "6954": 191,
        "6955": 82,
        "6956": 165,
        "6957": 12,
        "6958": 31,
        "6959": 120,
        "6960": 171,
        "6961": 171,
        "6962": 178,
        "6963": 0,
        "6964": 52,
        "6965": 167,
        "6966": 170,
        "6967": 199,
        "6968": 160,
        "6969": 163,
        "6970": 1,
        "6971": 20,
        "6972": 75,
        "6973": 211,
        "6974": 4,
        "6975": 137,
        "6976": 95,
        "6977": 187,
        "6978": 61,
        "6979": 96,
        "6980": 93,
        "6981": 30,
        "6982": 111,
        "6983": 179,
        "6984": 154,
        "6985": 187,
        "6986": 182,
        "6987": 198,
        "6988": 173,
        "6989": 190,
        "6990": 164,
        "6991": 206,
        "6992": 190,
        "6993": 55,
        "6994": 13,
        "6995": 109,
        "6996": 177,
        "6997": 221,
        "6998": 170,
        "6999": 33,
        "7000": 181,
        "7001": 196,
        "7002": 0,
        "7003": 73,
        "7004": 115,
        "7005": 222,
        "7006": 93,
        "7007": 160,
        "7008": 101,
        "7009": 248,
        "7010": 62,
        "7011": 45,
        "7012": 178,
        "7013": 205,
        "7014": 19,
        "7015": 165,
        "7016": 149,
        "7017": 196,
        "7018": 209,
        "7019": 196,
        "7020": 160,
        "7021": 35,
        "7022": 236,
        "7023": 212,
        "7024": 183,
        "7025": 236,
        "7026": 34,
        "7027": 204,
        "7028": 128,
        "7029": 119,
        "7030": 74,
        "7031": 63,
        "7032": 184,
        "7033": 17,
        "7034": 35,
        "7035": 227,
        "7036": 96,
        "7037": 170,
        "7038": 102,
        "7039": 148,
        "7040": 142,
        "7041": 18,
        "7042": 149,
        "7043": 75,
        "7044": 227,
        "7045": 197,
        "7046": 29,
        "7047": 185,
        "7048": 250,
        "7049": 231,
        "7050": 145,
        "7051": 21,
        "7052": 66,
        "7053": 17,
        "7054": 233,
        "7055": 230,
        "7056": 34,
        "7057": 231,
        "7058": 35,
        "7059": 179,
        "7060": 91,
        "7061": 202,
        "7062": 224,
        "7063": 177,
        "7064": 48,
        "7065": 179,
        "7066": 45,
        "7067": 174,
        "7068": 46,
        "7069": 62,
        "7070": 248,
        "7071": 133,
        "7072": 194,
        "7073": 147,
        "7074": 248,
        "7075": 215,
        "7076": 87,
        "7077": 165,
        "7078": 124,
        "7079": 161,
        "7080": 101,
        "7081": 75,
        "7082": 241,
        "7083": 88,
        "7084": 14,
        "7085": 151,
        "7086": 86,
        "7087": 164,
        "7088": 126,
        "7089": 208,
        "7090": 142,
        "7091": 127,
        "7092": 176,
        "7093": 142,
        "7094": 189,
        "7095": 192,
        "7096": 157,
        "7097": 147,
        "7098": 187,
        "7099": 109,
        "7100": 1,
        "7101": 143,
        "7102": 4,
        "7103": 172,
        "7104": 75,
        "7105": 185,
        "7106": 232,
        "7107": 10,
        "7108": 83,
        "7109": 76,
        "7110": 123,
        "7111": 85,
        "7112": 254,
        "7113": 69,
        "7114": 212,
        "7115": 109,
        "7116": 26,
        "7117": 149,
        "7118": 219,
        "7119": 239,
        "7120": 11,
        "7121": 9,
        "7122": 39,
        "7123": 148,
        "7124": 2,
        "7125": 137,
        "7126": 249,
        "7127": 139,
        "7128": 160,
        "7129": 30,
        "7130": 159,
        "7131": 194,
        "7132": 95,
        "7133": 84,
        "7134": 10,
        "7135": 191,
        "7136": 242,
        "7137": 103,
        "7138": 30,
        "7139": 232,
        "7140": 203,
        "7141": 191,
        "7142": 108,
        "7143": 42,
        "7144": 46,
        "7145": 172,
        "7146": 44,
        "7147": 201,
        "7148": 210,
        "7149": 238,
        "7150": 56,
        "7151": 246,
        "7152": 76,
        "7153": 175,
        "7154": 124,
        "7155": 250,
        "7156": 213,
        "7157": 97,
        "7158": 164,
        "7159": 93,
        "7160": 208,
        "7161": 106,
        "7162": 45,
        "7163": 49,
        "7164": 65,
        "7165": 69,
        "7166": 90,
        "7167": 106,
        "7168": 117,
        "7169": 157,
        "7170": 104,
        "7171": 197,
        "7172": 59,
        "7173": 30,
        "7174": 36,
        "7175": 98,
        "7176": 249,
        "7177": 47,
        "7178": 78,
        "7179": 16,
        "7180": 139,
        "7181": 32,
        "7182": 224,
        "7183": 249,
        "7184": 124,
        "7185": 135,
        "7186": 167,
        "7187": 216,
        "7188": 8,
        "7189": 67,
        "7190": 31,
        "7191": 3,
        "7192": 248,
        "7193": 214,
        "7194": 206,
        "7195": 71,
        "7196": 24,
        "7197": 207,
        "7198": 85,
        "7199": 246,
        "7200": 136,
        "7201": 33,
        "7202": 3,
        "7203": 35,
        "7204": 38,
        "7205": 73,
        "7206": 20,
        "7207": 31,
        "7208": 21,
        "7209": 190,
        "7210": 182,
        "7211": 11,
        "7212": 38,
        "7213": 212,
        "7214": 245,
        "7215": 125,
        "7216": 222,
        "7217": 134,
        "7218": 164,
        "7219": 239,
        "7220": 16,
        "7221": 85,
        "7222": 250,
        "7223": 39,
        "7224": 15,
        "7225": 25,
        "7226": 46,
        "7227": 89,
        "7228": 176,
        "7229": 156,
        "7230": 233,
        "7231": 34,
        "7232": 29,
        "7233": 52,
        "7234": 232,
        "7235": 33,
        "7236": 219,
        "7237": 221,
        "7238": 51,
        "7239": 234,
        "7240": 218,
        "7241": 99,
        "7242": 244,
        "7243": 133,
        "7244": 213,
        "7245": 91,
        "7246": 197,
        "7247": 4,
        "7248": 176,
        "7249": 250,
        "7250": 167,
        "7251": 106,
        "7252": 106,
        "7253": 8,
        "7254": 86,
        "7255": 33,
        "7256": 135,
        "7257": 93,
        "7258": 137,
        "7259": 129,
        "7260": 179,
        "7261": 143,
        "7262": 127,
        "7263": 79,
        "7264": 199,
        "7265": 236,
        "7266": 60,
        "7267": 49,
        "7268": 225,
        "7269": 0,
        "7270": 103,
        "7271": 230,
        "7272": 196,
        "7273": 216,
        "7274": 70,
        "7275": 38,
        "7276": 184,
        "7277": 16,
        "7278": 211,
        "7279": 48,
        "7280": 214,
        "7281": 56,
        "7282": 106,
        "7283": 4,
        "7284": 161,
        "7285": 26,
        "7286": 12,
        "7287": 112,
        "7288": 105,
        "7289": 6,
        "7290": 96,
        "7291": 176,
        "7292": 54,
        "7293": 232,
        "7294": 150,
        "7295": 127,
        "7296": 95,
        "7297": 30,
        "7298": 68,
        "7299": 240,
        "7300": 49,
        "7301": 210,
        "7302": 203,
        "7303": 177,
        "7304": 105,
        "7305": 203,
        "7306": 134,
        "7307": 93,
        "7308": 223,
        "7309": 152,
        "7310": 197,
        "7311": 58,
        "7312": 159,
        "7313": 154,
        "7314": 218,
        "7315": 215,
        "7316": 127,
        "7317": 208,
        "7318": 94,
        "7319": 127,
        "7320": 113,
        "7321": 54,
        "7322": 35,
        "7323": 139,
        "7324": 205,
        "7325": 111,
        "7326": 57,
        "7327": 10,
        "7328": 181,
        "7329": 15,
        "7330": 254,
        "7331": 64,
        "7332": 16,
        "7333": 59,
        "7334": 139,
        "7335": 30,
        "7336": 164,
        "7337": 143,
        "7338": 140,
        "7339": 181,
        "7340": 29,
        "7341": 191,
        "7342": 240,
        "7343": 234,
        "7344": 104,
        "7345": 231,
        "7346": 22,
        "7347": 193,
        "7348": 195,
        "7349": 53,
        "7350": 78,
        "7351": 70,
        "7352": 244,
        "7353": 66,
        "7354": 215,
        "7355": 74,
        "7356": 119,
        "7357": 126,
        "7358": 74,
        "7359": 20,
        "7360": 81,
        "7361": 193,
        "7362": 139,
        "7363": 219,
        "7364": 74,
        "7365": 248,
        "7366": 111,
        "7367": 204,
        "7368": 228,
        "7369": 200,
        "7370": 32,
        "7371": 163,
        "7372": 121,
        "7373": 99,
        "7374": 91,
        "7375": 107,
        "7376": 218,
        "7377": 93,
        "7378": 71,
        "7379": 225,
        "7380": 131,
        "7381": 144,
        "7382": 221,
        "7383": 6,
        "7384": 56,
        "7385": 113,
        "7386": 25,
        "7387": 226,
        "7388": 139,
        "7389": 75,
        "7390": 35,
        "7391": 224,
        "7392": 22,
        "7393": 175,
        "7394": 194,
        "7395": 175,
        "7396": 93,
        "7397": 47,
        "7398": 138,
        "7399": 4,
        "7400": 207,
        "7401": 123,
        "7402": 144,
        "7403": 16,
        "7404": 54,
        "7405": 252,
        "7406": 99,
        "7407": 251,
        "7408": 66,
        "7409": 104,
        "7410": 249,
        "7411": 107,
        "7412": 111,
        "7413": 142,
        "7414": 174,
        "7415": 35,
        "7416": 153,
        "7417": 190,
        "7418": 16,
        "7419": 106,
        "7420": 120,
        "7421": 83,
        "7422": 191,
        "7423": 68,
        "7424": 210,
        "7425": 237,
        "7426": 255,
        "7427": 162,
        "7428": 177,
        "7429": 225,
        "7430": 146,
        "7431": 23,
        "7432": 10,
        "7433": 211,
        "7434": 244,
        "7435": 171,
        "7436": 145,
        "7437": 113,
        "7438": 163,
        "7439": 112,
        "7440": 58,
        "7441": 188,
        "7442": 249,
        "7443": 71,
        "7444": 253,
        "7445": 165,
        "7446": 72,
        "7447": 71,
        "7448": 163,
        "7449": 153,
        "7450": 68,
        "7451": 126,
        "7452": 0,
        "7453": 199,
        "7454": 148,
        "7455": 33,
        "7456": 38,
        "7457": 220,
        "7458": 177,
        "7459": 56,
        "7460": 121,
        "7461": 167,
        "7462": 78,
        "7463": 131,
        "7464": 0,
        "7465": 131,
        "7466": 9,
        "7467": 252,
        "7468": 160,
        "7469": 125,
        "7470": 99,
        "7471": 89,
        "7472": 154,
        "7473": 12,
        "7474": 169,
        "7475": 94,
        "7476": 128,
        "7477": 6,
        "7478": 62,
        "7479": 192,
        "7480": 225,
        "7481": 197,
        "7482": 169,
        "7483": 53,
        "7484": 203,
        "7485": 251,
        "7486": 112,
        "7487": 157,
        "7488": 191,
        "7489": 56,
        "7490": 109,
        "7491": 132,
        "7492": 74,
        "7493": 145,
        "7494": 190,
        "7495": 115,
        "7496": 120,
        "7497": 103,
        "7498": 81,
        "7499": 135,
        "7500": 110,
        "7501": 181,
        "7502": 104,
        "7503": 219,
        "7504": 48,
        "7505": 205,
        "7506": 245,
        "7507": 152,
        "7508": 50,
        "7509": 250,
        "7510": 135,
        "7511": 110,
        "7512": 209,
        "7513": 175,
        "7514": 196,
        "7515": 128,
        "7516": 81,
        "7517": 213,
        "7518": 22,
        "7519": 242,
        "7520": 158,
        "7521": 130,
        "7522": 22,
        "7523": 147,
        "7524": 150,
        "7525": 115,
        "7526": 99,
        "7527": 215,
        "7528": 215,
        "7529": 212,
        "7530": 231,
        "7531": 234,
        "7532": 142,
        "7533": 233,
        "7534": 182,
        "7535": 37,
        "7536": 46,
        "7537": 147,
        "7538": 126,
        "7539": 40,
        "7540": 23,
        "7541": 159,
        "7542": 170,
        "7543": 142,
        "7544": 79,
        "7545": 92,
        "7546": 109,
        "7547": 64,
        "7548": 95,
        "7549": 254,
        "7550": 222,
        "7551": 168,
        "7552": 56,
        "7553": 53,
        "7554": 2,
        "7555": 214,
        "7556": 82,
        "7557": 15,
        "7558": 194,
        "7559": 235,
        "7560": 117,
        "7561": 54,
        "7562": 81,
        "7563": 53,
        "7564": 18,
        "7565": 238,
        "7566": 60,
        "7567": 222,
        "7568": 165,
        "7569": 176,
        "7570": 147,
        "7571": 68,
        "7572": 82,
        "7573": 244,
        "7574": 52,
        "7575": 65,
        "7576": 100,
        "7577": 199,
        "7578": 240,
        "7579": 241,
        "7580": 30,
        "7581": 154,
        "7582": 58,
        "7583": 10,
        "7584": 65,
        "7585": 47,
        "7586": 224,
        "7587": 64,
        "7588": 63,
        "7589": 85,
        "7590": 148,
        "7591": 8,
        "7592": 64,
        "7593": 79,
        "7594": 98,
        "7595": 26,
        "7596": 226,
        "7597": 205,
        "7598": 166,
        "7599": 125,
        "7600": 158,
        "7601": 57,
        "7602": 111,
        "7603": 72,
        "7604": 146,
        "7605": 12,
        "7606": 97,
        "7607": 251,
        "7608": 113,
        "7609": 44,
        "7610": 163,
        "7611": 60,
        "7612": 53,
        "7613": 186,
        "7614": 34,
        "7615": 57,
        "7616": 93,
        "7617": 227,
        "7618": 58,
        "7619": 100,
        "7620": 227,
        "7621": 37,
        "7622": 251,
        "7623": 40,
        "7624": 0,
        "7625": 111,
        "7626": 147,
        "7627": 65,
        "7628": 50,
        "7629": 203,
        "7630": 94,
        "7631": 190,
        "7632": 174,
        "7633": 48,
        "7634": 124,
        "7635": 237,
        "7636": 69,
        "7637": 212,
        "7638": 136,
        "7639": 131,
        "7640": 107,
        "7641": 152,
        "7642": 24,
        "7643": 105,
        "7644": 142,
        "7645": 76,
        "7646": 234,
        "7647": 203,
        "7648": 129,
        "7649": 224,
        "7650": 185,
        "7651": 65,
        "7652": 110,
        "7653": 101,
        "7654": 86,
        "7655": 214,
        "7656": 154,
        "7657": 85,
        "7658": 52,
        "7659": 186,
        "7660": 81,
        "7661": 59,
        "7662": 247,
        "7663": 208,
        "7664": 132,
        "7665": 149,
        "7666": 205,
        "7667": 161,
        "7668": 253,
        "7669": 255,
        "7670": 230,
        "7671": 60,
        "7672": 247,
        "7673": 88,
        "7674": 206,
        "7675": 206,
        "7676": 86,
        "7677": 212,
        "7678": 15,
        "7679": 144,
        "7680": 196,
        "7681": 190,
        "7682": 33,
        "7683": 163,
        "7684": 89,
        "7685": 70,
        "7686": 243,
        "7687": 186,
        "7688": 171,
        "7689": 234,
        "7690": 172,
        "7691": 126,
        "7692": 150,
        "7693": 150,
        "7694": 81,
        "7695": 68,
        "7696": 53,
        "7697": 199,
        "7698": 115,
        "7699": 151,
        "7700": 20,
        "7701": 242,
        "7702": 165,
        "7703": 107,
        "7704": 91,
        "7705": 157,
        "7706": 174,
        "7707": 195,
        "7708": 65,
        "7709": 195,
        "7710": 77,
        "7711": 64,
        "7712": 92,
        "7713": 6,
        "7714": 245,
        "7715": 109,
        "7716": 131,
        "7717": 177,
        "7718": 152,
        "7719": 17,
        "7720": 169,
        "7721": 200,
        "7722": 171,
        "7723": 237,
        "7724": 123,
        "7725": 90,
        "7726": 161,
        "7727": 228,
        "7728": 108,
        "7729": 169,
        "7730": 237,
        "7731": 180,
        "7732": 17,
        "7733": 131,
        "7734": 171,
        "7735": 55,
        "7736": 79,
        "7737": 27,
        "7738": 81,
        "7739": 225,
        "7740": 173,
        "7741": 57,
        "7742": 202,
        "7743": 222,
        "7744": 9,
        "7745": 204,
        "7746": 109,
        "7747": 35,
        "7748": 234,
        "7749": 82,
        "7750": 180,
        "7751": 164,
        "7752": 131,
        "7753": 31,
        "7754": 108,
        "7755": 148,
        "7756": 154,
        "7757": 205,
        "7758": 250,
        "7759": 170,
        "7760": 205,
        "7761": 21,
        "7762": 194,
        "7763": 26,
        "7764": 153,
        "7765": 46,
        "7766": 171,
        "7767": 191,
        "7768": 224,
        "7769": 133,
        "7770": 136,
        "7771": 49,
        "7772": 112,
        "7773": 96,
        "7774": 66,
        "7775": 252,
        "7776": 214,
        "7777": 121,
        "7778": 254,
        "7779": 196,
        "7780": 54,
        "7781": 223,
        "7782": 154,
        "7783": 145,
        "7784": 58,
        "7785": 47,
        "7786": 244,
        "7787": 136,
        "7788": 107,
        "7789": 200,
        "7790": 158,
        "7791": 26,
        "7792": 133,
        "7793": 224,
        "7794": 121,
        "7795": 238,
        "7796": 194,
        "7797": 10,
        "7798": 228,
        "7799": 102,
        "7800": 129,
        "7801": 59,
        "7802": 24,
        "7803": 237,
        "7804": 246,
        "7805": 198,
        "7806": 179,
        "7807": 222,
        "7808": 171,
        "7809": 94,
        "7810": 119,
        "7811": 56,
        "7812": 144,
        "7813": 183,
        "7814": 121,
        "7815": 98,
        "7816": 43,
        "7817": 132,
        "7818": 88,
        "7819": 172,
        "7820": 253,
        "7821": 152,
        "7822": 204,
        "7823": 203,
        "7824": 249,
        "7825": 70,
        "7826": 83,
        "7827": 5,
        "7828": 18,
        "7829": 179,
        "7830": 150,
        "7831": 155,
        "7832": 243,
        "7833": 40,
        "7834": 245,
        "7835": 181,
        "7836": 99,
        "7837": 121,
        "7838": 245,
        "7839": 212,
        "7840": 175,
        "7841": 206,
        "7842": 152,
        "7843": 134,
        "7844": 104,
        "7845": 129,
        "7846": 165,
        "7847": 132,
        "7848": 164,
        "7849": 190,
        "7850": 247,
        "7851": 90,
        "7852": 179,
        "7853": 109,
        "7854": 90,
        "7855": 236,
        "7856": 114,
        "7857": 102,
        "7858": 163,
        "7859": 231,
        "7860": 170,
        "7861": 64,
        "7862": 179,
        "7863": 194,
        "7864": 90,
        "7865": 45,
        "7866": 120,
        "7867": 247,
        "7868": 166,
        "7869": 13,
        "7870": 232,
        "7871": 157,
        "7872": 66,
        "7873": 88,
        "7874": 17,
        "7875": 239,
        "7876": 234,
        "7877": 106,
        "7878": 68,
        "7879": 115,
        "7880": 151,
        "7881": 186,
        "7882": 69,
        "7883": 179,
        "7884": 51,
        "7885": 130,
        "7886": 176,
        "7887": 229,
        "7888": 64,
        "7889": 30,
        "7890": 198,
        "7891": 249,
        "7892": 151,
        "7893": 204,
        "7894": 99,
        "7895": 227,
        "7896": 56,
        "7897": 173,
        "7898": 92,
        "7899": 79,
        "7900": 78,
        "7901": 185,
        "7902": 130,
        "7903": 191,
        "7904": 225,
        "7905": 7,
        "7906": 89,
        "7907": 149,
        "7908": 207,
        "7909": 41,
        "7910": 131,
        "7911": 184,
        "7912": 58,
        "7913": 42,
        "7914": 215,
        "7915": 117,
        "7916": 214,
        "7917": 205,
        "7918": 191,
        "7919": 117,
        "7920": 226,
        "7921": 131,
        "7922": 89,
        "7923": 133,
        "7924": 99,
        "7925": 190,
        "7926": 146,
        "7927": 168,
        "7928": 147,
        "7929": 159,
        "7930": 152,
        "7931": 172,
        "7932": 250,
        "7933": 0,
        "7934": 28,
        "7935": 224,
        "7936": 92,
        "7937": 235,
        "7938": 53,
        "7939": 179,
        "7940": 207,
        "7941": 169,
        "7942": 170,
        "7943": 108,
        "7944": 219,
        "7945": 117,
        "7946": 165,
        "7947": 187,
        "7948": 156,
        "7949": 171,
        "7950": 65,
        "7951": 86,
        "7952": 241,
        "7953": 48,
        "7954": 209,
        "7955": 230,
        "7956": 20,
        "7957": 48,
        "7958": 232,
        "7959": 192,
        "7960": 14,
        "7961": 102,
        "7962": 25,
        "7963": 226,
        "7964": 240,
        "7965": 150,
        "7966": 50,
        "7967": 35,
        "7968": 158,
        "7969": 23,
        "7970": 69,
        "7971": 80,
        "7972": 83,
        "7973": 100,
        "7974": 96,
        "7975": 97,
        "7976": 131,
        "7977": 253,
        "7978": 126,
        "7979": 13,
        "7980": 117,
        "7981": 228,
        "7982": 238,
        "7983": 25,
        "7984": 69,
        "7985": 209,
        "7986": 234,
        "7987": 135,
        "7988": 165,
        "7989": 223,
        "7990": 1,
        "7991": 127,
        "7992": 61,
        "7993": 226,
        "7994": 38,
        "7995": 250,
        "7996": 138,
        "7997": 49,
        "7998": 108,
        "7999": 67,
        "8000": 34,
        "8001": 55,
        "8002": 36,
        "8003": 14,
        "8004": 145,
        "8005": 75,
        "8006": 80,
        "8007": 131,
        "8008": 222,
        "8009": 35,
        "8010": 84,
        "8011": 4,
        "8012": 127,
        "8013": 109,
        "8014": 230,
        "8015": 179,
        "8016": 198,
        "8017": 35,
        "8018": 122,
        "8019": 109,
        "8020": 45,
        "8021": 206,
        "8022": 112,
        "8023": 35,
        "8024": 231,
        "8025": 178,
        "8026": 143,
        "8027": 143,
        "8028": 37,
        "8029": 137,
        "8030": 82,
        "8031": 178,
        "8032": 247,
        "8033": 27,
        "8034": 9,
        "8035": 86,
        "8036": 83,
        "8037": 19,
        "8038": 138,
        "8039": 152,
        "8040": 16,
        "8041": 236,
        "8042": 2,
        "8043": 107,
        "8044": 159,
        "8045": 110,
        "8046": 195,
        "8047": 69,
        "8048": 85,
        "8049": 80,
        "8050": 163,
        "8051": 87,
        "8052": 45,
        "8053": 39,
        "8054": 81,
        "8055": 86,
        "8056": 199,
        "8057": 152,
        "8058": 233,
        "8059": 48,
        "8060": 179,
        "8061": 15,
        "8062": 242,
        "8063": 73,
        "8064": 108,
        "8065": 169,
        "8066": 218,
        "8067": 9,
        "8068": 130,
        "8069": 206,
        "8070": 128,
        "8071": 102,
        "8072": 35,
        "8073": 30,
        "8074": 42,
        "8075": 93,
        "8076": 231,
        "8077": 90,
        "8078": 166,
        "8079": 40,
        "8080": 4,
        "8081": 168,
        "8082": 129,
        "8083": 219,
        "8084": 234,
        "8085": 169,
        "8086": 253,
        "8087": 72,
        "8088": 87,
        "8089": 63,
        "8090": 63,
        "8091": 245,
        "8092": 49,
        "8093": 13,
        "8094": 20,
        "8095": 129,
        "8096": 5,
        "8097": 83,
        "8098": 11,
        "8099": 180,
        "8100": 83,
        "8101": 165,
        "8102": 147,
        "8103": 212,
        "8104": 111,
        "8105": 133,
        "8106": 19,
        "8107": 5,
        "8108": 27,
        "8109": 132,
        "8110": 171,
        "8111": 216,
        "8112": 34,
        "8113": 204,
        "8114": 255,
        "8115": 175,
        "8116": 161,
        "8117": 77,
        "8118": 196,
        "8119": 26,
        "8120": 100,
        "8121": 80,
        "8122": 65,
        "8123": 50,
        "8124": 42,
        "8125": 144,
        "8126": 17,
        "8127": 22,
        "8128": 123,
        "8129": 61,
        "8130": 43,
        "8131": 95,
        "8132": 75,
        "8133": 13,
        "8134": 180,
        "8135": 159,
        "8136": 135,
        "8137": 41,
        "8138": 197,
        "8139": 187,
        "8140": 67,
        "8141": 9,
        "8142": 98,
        "8143": 174,
        "8144": 244,
        "8145": 148,
        "8146": 135,
        "8147": 168,
        "8148": 47,
        "8149": 75,
        "8150": 11,
        "8151": 22,
        "8152": 21,
        "8153": 62,
        "8154": 82,
        "8155": 59,
        "8156": 173,
        "8157": 102,
        "8158": 60,
        "8159": 236,
        "8160": 231,
        "8161": 53,
        "8162": 77,
        "8163": 96,
        "8164": 58,
        "8165": 105,
        "8166": 252,
        "8167": 211,
        "8168": 190,
        "8169": 173,
        "8170": 59,
        "8171": 227,
        "8172": 53,
        "8173": 56,
        "8174": 134,
        "8175": 164,
        "8176": 176,
        "8177": 197,
        "8178": 253,
        "8179": 150,
        "8180": 98,
        "8181": 182,
        "8182": 171,
        "8183": 127,
        "8184": 170,
        "8185": 40,
        "8186": 17,
        "8187": 254,
        "8188": 137,
        "8189": 3,
        "8190": 213,
        "8191": 69,
        "8192": 138,
        "8193": 42,
        "8194": 55,
        "8195": 25,
        "8196": 10,
        "8197": 239,
        "8198": 54,
        "8199": 78,
        "8200": 18,
        "8201": 107,
        "8202": 230,
        "8203": 216,
        "8204": 0,
        "8205": 152,
        "8206": 90,
        "8207": 120,
        "8208": 229,
        "8209": 52,
        "8210": 20,
        "8211": 137,
        "8212": 51,
        "8213": 47,
        "8214": 146,
        "8215": 1,
        "8216": 129,
        "8217": 203,
        "8218": 0,
        "8219": 217,
        "8220": 49,
        "8221": 148,
        "8222": 153,
        "8223": 232,
        "8224": 0,
        "8225": 229,
        "8226": 139,
        "8227": 129,
        "8228": 188,
        "8229": 45,
        "8230": 226,
        "8231": 233,
        "8232": 26,
        "8233": 94,
        "8234": 134,
        "8235": 216,
        "8236": 236,
        "8237": 64,
        "8238": 27,
        "8239": 180,
        "8240": 27,
        "8241": 36,
        "8242": 4,
        "8243": 142,
        "8244": 65,
        "8245": 105,
        "8246": 119,
        "8247": 22,
        "8248": 121,
        "8249": 184,
        "8250": 102,
        "8251": 118,
        "8252": 136,
        "8253": 186,
        "8254": 218,
        "8255": 53,
        "8256": 90,
        "8257": 73,
        "8258": 209,
        "8259": 212,
        "8260": 254,
        "8261": 253,
        "8262": 97,
        "8263": 221,
        "8264": 219,
        "8265": 3,
        "8266": 131,
        "8267": 74,
        "8268": 254,
        "8269": 185,
        "8270": 180,
        "8271": 192,
        "8272": 222,
        "8273": 238,
        "8274": 55,
        "8275": 205,
        "8276": 203,
        "8277": 66,
        "8278": 106,
        "8279": 35,
        "8280": 59,
        "8281": 146,
        "8282": 48,
        "8283": 172,
        "8284": 89,
        "8285": 94,
        "8286": 182,
        "8287": 51,
        "8288": 127,
        "8289": 17,
        "8290": 21,
        "8291": 99,
        "8292": 102,
        "8293": 2,
        "8294": 89,
        "8295": 41,
        "8296": 181,
        "8297": 105,
        "8298": 245,
        "8299": 197,
        "8300": 39,
        "8301": 47,
        "8302": 97,
        "8303": 219,
        "8304": 194,
        "8305": 83,
        "8306": 86,
        "8307": 172,
        "8308": 50,
        "8309": 176,
        "8310": 95,
        "8311": 70,
        "8312": 42,
        "8313": 173,
        "8314": 137,
        "8315": 113,
        "8316": 234,
        "8317": 152,
        "8318": 185,
        "8319": 48,
        "8320": 55,
        "8321": 188,
        "8322": 39,
        "8323": 39,
        "8324": 189,
        "8325": 25,
        "8326": 201,
        "8327": 218,
        "8328": 234,
        "8329": 195,
        "8330": 182,
        "8331": 192,
        "8332": 127,
        "8333": 3,
        "8334": 247,
        "8335": 157,
        "8336": 190,
        "8337": 133,
        "8338": 128,
        "8339": 128,
        "8340": 87,
        "8341": 149,
        "8342": 182,
        "8343": 123,
        "8344": 21,
        "8345": 255,
        "8346": 71,
        "8347": 111,
        "8348": 75,
        "8349": 21,
        "8350": 24,
        "8351": 62,
        "8352": 119,
        "8353": 156,
        "8354": 169,
        "8355": 203,
        "8356": 248,
        "8357": 51,
        "8358": 101,
        "8359": 135,
        "8360": 63,
        "8361": 221,
        "8362": 139,
        "8363": 248,
        "8364": 104,
        "8365": 225,
        "8366": 65,
        "8367": 82,
        "8368": 84,
        "8369": 253,
        "8370": 195,
        "8371": 138,
        "8372": 195,
        "8373": 36,
        "8374": 22,
        "8375": 201,
        "8376": 158,
        "8377": 82,
        "8378": 94,
        "8379": 164,
        "8380": 207,
        "8381": 198,
        "8382": 69,
        "8383": 81,
        "8384": 19,
        "8385": 134,
        "8386": 80,
        "8387": 67,
        "8388": 176,
        "8389": 162,
        "8390": 50,
        "8391": 188,
        "8392": 110,
        "8393": 242,
        "8394": 63,
        "8395": 163,
        "8396": 194,
        "8397": 211,
        "8398": 123,
        "8399": 253,
        "8400": 181,
        "8401": 69,
        "8402": 28,
        "8403": 121,
        "8404": 102,
        "8405": 63,
        "8406": 146,
        "8407": 6,
        "8408": 100,
        "8409": 194,
        "8410": 230,
        "8411": 112,
        "8412": 105,
        "8413": 192,
        "8414": 203,
        "8415": 77,
        "8416": 172,
        "8417": 77,
        "8418": 29,
        "8419": 38,
        "8420": 85,
        "8421": 47,
        "8422": 188,
        "8423": 132,
        "8424": 236,
        "8425": 61,
        "8426": 139,
        "8427": 249,
        "8428": 148,
        "8429": 167,
        "8430": 138,
        "8431": 132,
        "8432": 118,
        "8433": 193,
        "8434": 201,
        "8435": 159,
        "8436": 118,
        "8437": 200,
        "8438": 124,
        "8439": 14,
        "8440": 90,
        "8441": 241,
        "8442": 40,
        "8443": 135,
        "8444": 238,
        "8445": 21,
        "8446": 191,
        "8447": 9,
        "8448": 155,
        "8449": 75,
        "8450": 160,
        "8451": 216,
        "8452": 36,
        "8453": 255,
        "8454": 43,
        "8455": 21,
        "8456": 51,
        "8457": 251,
        "8458": 55,
        "8459": 106,
        "8460": 84,
        "8461": 224,
        "8462": 183,
        "8463": 202,
        "8464": 252,
        "8465": 203,
        "8466": 81,
        "8467": 131,
        "8468": 194,
        "8469": 30,
        "8470": 252,
        "8471": 230,
        "8472": 6,
        "8473": 89,
        "8474": 62,
        "8475": 223,
        "8476": 23,
        "8477": 179,
        "8478": 185,
        "8479": 218,
        "8480": 144,
        "8481": 128,
        "8482": 40,
        "8483": 83,
        "8484": 210,
        "8485": 74,
        "8486": 72,
        "8487": 241,
        "8488": 208,
        "8489": 141,
        "8490": 241,
        "8491": 220,
        "8492": 196,
        "8493": 50,
        "8494": 127,
        "8495": 35,
        "8496": 147,
        "8497": 122,
        "8498": 86,
        "8499": 2,
        "8500": 247,
        "8501": 254,
        "8502": 22,
        "8503": 20,
        "8504": 45,
        "8505": 114,
        "8506": 143,
        "8507": 78,
        "8508": 115,
        "8509": 37,
        "8510": 36,
        "8511": 158,
        "8512": 228,
        "8513": 171,
        "8514": 149,
        "8515": 80,
        "8516": 206,
        "8517": 106,
        "8518": 168,
        "8519": 150,
        "8520": 190,
        "8521": 113,
        "8522": 170,
        "8523": 195,
        "8524": 223,
        "8525": 131,
        "8526": 96,
        "8527": 156,
        "8528": 10,
        "8529": 80,
        "8530": 91,
        "8531": 161,
        "8532": 72,
        "8533": 35,
        "8534": 76,
        "8535": 163,
        "8536": 66,
        "8537": 115,
        "8538": 64,
        "8539": 207,
        "8540": 82,
        "8541": 64,
        "8542": 139,
        "8543": 225,
        "8544": 29,
        "8545": 31,
        "8546": 37,
        "8547": 183,
        "8548": 156,
        "8549": 227,
        "8550": 145,
        "8551": 204,
        "8552": 20,
        "8553": 3,
        "8554": 146,
        "8555": 108,
        "8556": 118,
        "8557": 145,
        "8558": 112,
        "8559": 199,
        "8560": 150,
        "8561": 236,
        "8562": 139,
        "8563": 49,
        "8564": 183,
        "8565": 107,
        "8566": 91,
        "8567": 77,
        "8568": 28,
        "8569": 254,
        "8570": 109,
        "8571": 48,
        "8572": 108,
        "8573": 83,
        "8574": 135,
        "8575": 15,
        "8576": 141,
        "8577": 54,
        "8578": 197,
        "8579": 29,
        "8580": 117,
        "8581": 186,
        "8582": 59,
        "8583": 47,
        "8584": 83,
        "8585": 253,
        "8586": 140,
        "8587": 27,
        "8588": 111,
        "8589": 177,
        "8590": 100,
        "8591": 78,
        "8592": 187,
        "8593": 199,
        "8594": 190,
        "8595": 47,
        "8596": 42,
        "8597": 7,
        "8598": 151,
        "8599": 254,
        "8600": 169,
        "8601": 165,
        "8602": 200,
        "8603": 184,
        "8604": 217,
        "8605": 59,
        "8606": 152,
        "8607": 56,
        "8608": 77,
        "8609": 57,
        "8610": 240,
        "8611": 226,
        "8612": 14,
        "8613": 135,
        "8614": 192,
        "8615": 120,
        "8616": 27,
        "8617": 168,
        "8618": 92,
        "8619": 74,
        "8620": 125,
        "8621": 121,
        "8622": 151,
        "8623": 245,
        "8624": 120,
        "8625": 170,
        "8626": 237,
        "8627": 72,
        "8628": 176,
        "8629": 100,
        "8630": 114,
        "8631": 180,
        "8632": 121,
        "8633": 201,
        "8634": 77,
        "8635": 164,
        "8636": 106,
        "8637": 164,
        "8638": 72,
        "8639": 243,
        "8640": 191,
        "8641": 50,
        "8642": 110,
        "8643": 144,
        "8644": 41,
        "8645": 152,
        "8646": 74,
        "8647": 127,
        "8648": 151,
        "8649": 109,
        "8650": 152,
        "8651": 192,
        "8652": 48,
        "8653": 22,
        "8654": 138,
        "8655": 252,
        "8656": 62,
        "8657": 235,
        "8658": 31,
        "8659": 121,
        "8660": 29,
        "8661": 244,
        "8662": 36,
        "8663": 137,
        "8664": 114,
        "8665": 7,
        "8666": 38,
        "8667": 74,
        "8668": 221,
        "8669": 121,
        "8670": 244,
        "8671": 115,
        "8672": 152,
        "8673": 235,
        "8674": 139,
        "8675": 176,
        "8676": 97,
        "8677": 58,
        "8678": 80,
        "8679": 11,
        "8680": 238,
        "8681": 62,
        "8682": 28,
        "8683": 120,
        "8684": 131,
        "8685": 155,
        "8686": 136,
        "8687": 131,
        "8688": 194,
        "8689": 255,
        "8690": 187,
        "8691": 100,
        "8692": 9,
        "8693": 25,
        "8694": 237,
        "8695": 8,
        "8696": 19,
        "8697": 168,
        "8698": 64,
        "8699": 35,
        "8700": 189,
        "8701": 233,
        "8702": 47,
        "8703": 35,
        "8704": 145,
        "8705": 122,
        "8706": 133,
        "8707": 35,
        "8708": 22,
        "8709": 210,
        "8710": 209,
        "8711": 141,
        "8712": 88,
        "8713": 229,
        "8714": 20,
        "8715": 91,
        "8716": 190,
        "8717": 234,
        "8718": 0,
        "8719": 46,
        "8720": 148,
        "8721": 237,
        "8722": 246,
        "8723": 9,
        "8724": 183,
        "8725": 27,
        "8726": 121,
        "8727": 61,
        "8728": 119,
        "8729": 255,
        "8730": 185,
        "8731": 139,
        "8732": 211,
        "8733": 105,
        "8734": 5,
        "8735": 4,
        "8736": 36,
        "8737": 72,
        "8738": 90,
        "8739": 241,
        "8740": 107,
        "8741": 136,
        "8742": 115,
        "8743": 19,
        "8744": 91,
        "8745": 47,
        "8746": 202,
        "8747": 27,
        "8748": 122,
        "8749": 10,
        "8750": 6,
        "8751": 61,
        "8752": 55,
        "8753": 162,
        "8754": 124,
        "8755": 116,
        "8756": 28,
        "8757": 4,
        "8758": 201,
        "8759": 155,
        "8760": 244,
        "8761": 54,
        "8762": 64,
        "8763": 39,
        "8764": 226,
        "8765": 35,
        "8766": 75,
        "8767": 171,
        "8768": 27,
        "8769": 69,
        "8770": 24,
        "8771": 15,
        "8772": 237,
        "8773": 154,
        "8774": 90,
        "8775": 66,
        "8776": 162,
        "8777": 114,
        "8778": 33,
        "8779": 217,
        "8780": 209,
        "8781": 3,
        "8782": 67,
        "8783": 34,
        "8784": 235,
        "8785": 43,
        "8786": 64,
        "8787": 235,
        "8788": 128,
        "8789": 133,
        "8790": 240,
        "8791": 194,
        "8792": 13,
        "8793": 171,
        "8794": 214,
        "8795": 65,
        "8796": 137,
        "8797": 235,
        "8798": 0,
        "8799": 117,
        "8800": 136,
        "8801": 182,
        "8802": 169,
        "8803": 99,
        "8804": 10,
        "8805": 29,
        "8806": 98,
        "8807": 235,
        "8808": 71,
        "8809": 243,
        "8810": 142,
        "8811": 14,
        "8812": 99,
        "8813": 122,
        "8814": 204,
        "8815": 26,
        "8816": 74,
        "8817": 111,
        "8818": 236,
        "8819": 201,
        "8820": 18,
        "8821": 255,
        "8822": 201,
        "8823": 140,
        "8824": 162,
        "8825": 123,
        "8826": 176,
        "8827": 122,
        "8828": 135,
        "8829": 196,
        "8830": 135,
        "8831": 16,
        "8832": 146,
        "8833": 40,
        "8834": 205,
        "8835": 119,
        "8836": 132,
        "8837": 78,
        "8838": 230,
        "8839": 22,
        "8840": 78,
        "8841": 104,
        "8842": 6,
        "8843": 160,
        "8844": 134,
        "8845": 213,
        "8846": 138,
        "8847": 74,
        "8848": 250,
        "8849": 211,
        "8850": 5,
        "8851": 129,
        "8852": 12,
        "8853": 34,
        "8854": 91,
        "8855": 249,
        "8856": 148,
        "8857": 223,
        "8858": 74,
        "8859": 236,
        "8860": 218,
        "8861": 174,
        "8862": 215,
        "8863": 156,
        "8864": 29,
        "8865": 196,
        "8866": 7,
        "8867": 32,
        "8868": 141,
        "8869": 203,
        "8870": 82,
        "8871": 51,
        "8872": 163,
        "8873": 93,
        "8874": 255,
        "8875": 251,
        "8876": 224,
        "8877": 50,
        "8878": 96,
        "8879": 7,
        "8880": 106,
        "8881": 215,
        "8882": 88,
        "8883": 16,
        "8884": 207,
        "8885": 232,
        "8886": 35,
        "8887": 117,
        "8888": 161,
        "8889": 93,
        "8890": 126,
        "8891": 202,
        "8892": 55,
        "8893": 85,
        "8894": 89,
        "8895": 193,
        "8896": 140,
        "8897": 85,
        "8898": 170,
        "8899": 92,
        "8900": 144,
        "8901": 212,
        "8902": 223,
        "8903": 7,
        "8904": 102,
        "8905": 185,
        "8906": 129,
        "8907": 93,
        "8908": 252,
        "8909": 157,
        "8910": 155,
        "8911": 135,
        "8912": 139,
        "8913": 218,
        "8914": 208,
        "8915": 220,
        "8916": 238,
        "8917": 204,
        "8918": 215,
        "8919": 162,
        "8920": 153,
        "8921": 23,
        "8922": 47,
        "8923": 135,
        "8924": 213,
        "8925": 55,
        "8926": 175,
        "8927": 167,
        "8928": 246,
        "8929": 57,
        "8930": 97,
        "8931": 27,
        "8932": 160,
        "8933": 110,
        "8934": 127,
        "8935": 186,
        "8936": 211,
        "8937": 74,
        "8938": 7,
        "8939": 185,
        "8940": 113,
        "8941": 11,
        "8942": 232,
        "8943": 254,
        "8944": 248,
        "8945": 115,
        "8946": 44,
        "8947": 200,
        "8948": 59,
        "8949": 0,
        "8950": 27,
        "8951": 117,
        "8952": 89,
        "8953": 64,
        "8954": 160,
        "8955": 60,
        "8956": 202,
        "8957": 54,
        "8958": 150,
        "8959": 215,
        "8960": 146,
        "8961": 214,
        "8962": 190,
        "8963": 88,
        "8964": 31,
        "8965": 168,
        "8966": 2,
        "8967": 211,
        "8968": 54,
        "8969": 174,
        "8970": 123,
        "8971": 254,
        "8972": 139,
        "8973": 138,
        "8974": 56,
        "8975": 45,
        "8976": 24,
        "8977": 208,
        "8978": 71,
        "8979": 31,
        "8980": 242,
        "8981": 47,
        "8982": 166,
        "8983": 184,
        "8984": 224,
        "8985": 94,
        "8986": 3,
        "8987": 0,
        "8988": 160,
        "8989": 221,
        "8990": 136,
        "8991": 100,
        "8992": 23,
        "8993": 120,
        "8994": 193,
        "8995": 161,
        "8996": 50,
        "8997": 192,
        "8998": 157,
        "8999": 102,
        "9000": 183,
        "9001": 90,
        "9002": 183,
        "9003": 69,
        "9004": 165,
        "9005": 66,
        "9006": 63,
        "9007": 127,
        "9008": 62,
        "9009": 144,
        "9010": 4,
        "9011": 47,
        "9012": 36,
        "9013": 56,
        "9014": 255,
        "9015": 165,
        "9016": 148,
        "9017": 59,
        "9018": 35,
        "9019": 176,
        "9020": 5,
        "9021": 1,
        "9022": 254,
        "9023": 22,
        "9024": 167,
        "9025": 54,
        "9026": 38,
        "9027": 5,
        "9028": 23,
        "9029": 40,
        "9030": 169,
        "9031": 19,
        "9032": 178,
        "9033": 10,
        "9034": 166,
        "9035": 220,
        "9036": 42,
        "9037": 139,
        "9038": 112,
        "9039": 37,
        "9040": 16,
        "9041": 46,
        "9042": 183,
        "9043": 195,
        "9044": 39,
        "9045": 167,
        "9046": 1,
        "9047": 223,
        "9048": 87,
        "9049": 41,
        "9050": 43,
        "9051": 199,
        "9052": 59,
        "9053": 46,
        "9054": 127,
        "9055": 247,
        "9056": 56,
        "9057": 70,
        "9058": 30,
        "9059": 127,
        "9060": 212,
        "9061": 235,
        "9062": 252,
        "9063": 51,
        "9064": 9,
        "9065": 190,
        "9066": 248,
        "9067": 89,
        "9068": 67,
        "9069": 4,
        "9070": 182,
        "9071": 22,
        "9072": 175,
        "9073": 209,
        "9074": 0,
        "9075": 49,
        "9076": 40,
        "9077": 146,
        "9078": 181,
        "9079": 133,
        "9080": 31,
        "9081": 134,
        "9082": 81,
        "9083": 124,
        "9084": 57,
        "9085": 75,
        "9086": 120,
        "9087": 35,
        "9088": 224,
        "9089": 166,
        "9090": 125,
        "9091": 240,
        "9092": 119,
        "9093": 78,
        "9094": 41,
        "9095": 10,
        "9096": 205,
        "9097": 88,
        "9098": 134,
        "9099": 114,
        "9100": 225,
        "9101": 253,
        "9102": 191,
        "9103": 80,
        "9104": 122,
        "9105": 250,
        "9106": 109,
        "9107": 149,
        "9108": 206,
        "9109": 230,
        "9110": 116,
        "9111": 142,
        "9112": 172,
        "9113": 97,
        "9114": 154,
        "9115": 39,
        "9116": 89,
        "9117": 83,
        "9118": 135,
        "9119": 19,
        "9120": 89,
        "9121": 20,
        "9122": 50,
        "9123": 14,
        "9124": 173,
        "9125": 105,
        "9126": 47,
        "9127": 79,
        "9128": 12,
        "9129": 63,
        "9130": 70,
        "9131": 62,
        "9132": 125,
        "9133": 73,
        "9134": 55,
        "9135": 77,
        "9136": 137,
        "9137": 26,
        "9138": 248,
        "9139": 181,
        "9140": 199,
        "9141": 56,
        "9142": 113,
        "9143": 142,
        "9144": 37,
        "9145": 72,
        "9146": 155,
        "9147": 214,
        "9148": 38,
        "9149": 140,
        "9150": 111,
        "9151": 31,
        "9152": 195,
        "9153": 162,
        "9154": 15,
        "9155": 109,
        "9156": 171,
        "9157": 22,
        "9158": 87,
        "9159": 177,
        "9160": 228,
        "9161": 165,
        "9162": 171,
        "9163": 156,
        "9164": 114,
        "9165": 80,
        "9166": 19,
        "9167": 133,
        "9168": 240,
        "9169": 120,
        "9170": 41,
        "9171": 122,
        "9172": 19,
        "9173": 57,
        "9174": 77,
        "9175": 192,
        "9176": 141,
        "9177": 216,
        "9178": 54,
        "9179": 52,
        "9180": 179,
        "9181": 214,
        "9182": 190,
        "9183": 48,
        "9184": 171,
        "9185": 172,
        "9186": 252,
        "9187": 0,
        "9188": 79,
        "9189": 174,
        "9190": 105,
        "9191": 148,
        "9192": 78,
        "9193": 180,
        "9194": 6,
        "9195": 152,
        "9196": 106,
        "9197": 232,
        "9198": 255,
        "9199": 19,
        "9200": 227,
        "9201": 118,
        "9202": 113,
        "9203": 34,
        "9204": 225,
        "9205": 157,
        "9206": 246,
        "9207": 7,
        "9208": 66,
        "9209": 31,
        "9210": 205,
        "9211": 193,
        "9212": 87,
        "9213": 45,
        "9214": 14,
        "9215": 183,
        "9216": 133,
        "9217": 196,
        "9218": 128,
        "9219": 37,
        "9220": 106,
        "9221": 206,
        "9222": 0,
        "9223": 181,
        "9224": 160,
        "9225": 205,
        "9226": 147,
        "9227": 213,
        "9228": 207,
        "9229": 201,
        "9230": 127,
        "9231": 227,
        "9232": 18,
        "9233": 137,
        "9234": 159,
        "9235": 117,
        "9236": 111,
        "9237": 226,
        "9238": 170,
        "9239": 75,
        "9240": 230,
        "9241": 115,
        "9242": 70,
        "9243": 166,
        "9244": 150,
        "9245": 117,
        "9246": 164,
        "9247": 177,
        "9248": 29,
        "9249": 250,
        "9250": 208,
        "9251": 244,
        "9252": 72,
        "9253": 231,
        "9254": 168,
        "9255": 192,
        "9256": 79,
        "9257": 56,
        "9258": 245,
        "9259": 101,
        "9260": 39,
        "9261": 224,
        "9262": 79,
        "9263": 164,
        "9264": 179,
        "9265": 161,
        "9266": 55,
        "9267": 60,
        "9268": 26,
        "9269": 9,
        "9270": 194,
        "9271": 39,
        "9272": 190,
        "9273": 4,
        "9274": 204,
        "9275": 102,
        "9276": 166,
        "9277": 152,
        "9278": 81,
        "9279": 102,
        "9280": 92,
        "9281": 134,
        "9282": 165,
        "9283": 249,
        "9284": 228,
        "9285": 117,
        "9286": 23,
        "9287": 203,
        "9288": 24,
        "9289": 166,
        "9290": 201,
        "9291": 141,
        "9292": 144,
        "9293": 175,
        "9294": 25,
        "9295": 28,
        "9296": 83,
        "9297": 132,
        "9298": 73,
        "9299": 201,
        "9300": 5,
        "9301": 220,
        "9302": 225,
        "9303": 248,
        "9304": 50,
        "9305": 94,
        "9306": 138,
        "9307": 208,
        "9308": 94,
        "9309": 129,
        "9310": 119,
        "9311": 15,
        "9312": 19,
        "9313": 55,
        "9314": 118,
        "9315": 17,
        "9316": 217,
        "9317": 23,
        "9318": 25,
        "9319": 255,
        "9320": 8,
        "9321": 136,
        "9322": 225,
        "9323": 226,
        "9324": 129,
        "9325": 80,
        "9326": 188,
        "9327": 122,
        "9328": 161,
        "9329": 135,
        "9330": 127,
        "9331": 109,
        "9332": 127,
        "9333": 40,
        "9334": 247,
        "9335": 83,
        "9336": 253,
        "9337": 25,
        "9338": 215,
        "9339": 49,
        "9340": 107,
        "9341": 112,
        "9342": 45,
        "9343": 167,
        "9344": 233,
        "9345": 187,
        "9346": 117,
        "9347": 184,
        "9348": 50,
        "9349": 41,
        "9350": 130,
        "9351": 163,
        "9352": 3,
        "9353": 49,
        "9354": 221,
        "9355": 122,
        "9356": 86,
        "9357": 239,
        "9358": 176,
        "9359": 5,
        "9360": 169,
        "9361": 90,
        "9362": 110,
        "9363": 226,
        "9364": 107,
        "9365": 78,
        "9366": 0,
        "9367": 220,
        "9368": 166,
        "9369": 191,
        "9370": 234,
        "9371": 129,
        "9372": 126,
        "9373": 168,
        "9374": 218,
        "9375": 131,
        "9376": 129,
        "9377": 143,
        "9378": 20,
        "9379": 152,
        "9380": 254,
        "9381": 105,
        "9382": 29,
        "9383": 118,
        "9384": 26,
        "9385": 206,
        "9386": 2,
        "9387": 20,
        "9388": 144,
        "9389": 26,
        "9390": 24,
        "9391": 231,
        "9392": 39,
        "9393": 84,
        "9394": 120,
        "9395": 92,
        "9396": 251,
        "9397": 148,
        "9398": 86,
        "9399": 224,
        "9400": 121,
        "9401": 79,
        "9402": 150,
        "9403": 89,
        "9404": 105,
        "9405": 120,
        "9406": 232,
        "9407": 220,
        "9408": 149,
        "9409": 100,
        "9410": 78,
        "9411": 167,
        "9412": 150,
        "9413": 115,
        "9414": 97,
        "9415": 106,
        "9416": 78,
        "9417": 206,
        "9418": 245,
        "9419": 219,
        "9420": 152,
        "9421": 194,
        "9422": 121,
        "9423": 30,
        "9424": 113,
        "9425": 182,
        "9426": 235,
        "9427": 134,
        "9428": 83,
        "9429": 214,
        "9430": 253,
        "9431": 192,
        "9432": 156,
        "9433": 8,
        "9434": 54,
        "9435": 187,
        "9436": 87,
        "9437": 227,
        "9438": 243,
        "9439": 181,
        "9440": 122,
        "9441": 218,
        "9442": 253,
        "9443": 192,
        "9444": 149,
        "9445": 59,
        "9446": 220,
        "9447": 211,
        "9448": 110,
        "9449": 117,
        "9450": 248,
        "9451": 14,
        "9452": 66,
        "9453": 87,
        "9454": 156,
        "9455": 55,
        "9456": 94,
        "9457": 212,
        "9458": 234,
        "9459": 242,
        "9460": 1,
        "9461": 211,
        "9462": 154,
        "9463": 224,
        "9464": 55,
        "9465": 153,
        "9466": 95,
        "9467": 183,
        "9468": 45,
        "9469": 205,
        "9470": 253,
        "9471": 97,
        "9472": 245,
        "9473": 59,
        "9474": 177,
        "9475": 168,
        "9476": 130,
        "9477": 23,
        "9478": 59,
        "9479": 140,
        "9480": 54,
        "9481": 181,
        "9482": 80,
        "9483": 123,
        "9484": 50,
        "9485": 144,
        "9486": 233,
        "9487": 146,
        "9488": 54,
        "9489": 203,
        "9490": 123,
        "9491": 240,
        "9492": 81,
        "9493": 181,
        "9494": 125,
        "9495": 84,
        "9496": 202,
        "9497": 235,
        "9498": 63,
        "9499": 240,
        "9500": 93,
        "9501": 212,
        "9502": 225,
        "9503": 156,
        "9504": 214,
        "9505": 24,
        "9506": 120,
        "9507": 146,
        "9508": 46,
        "9509": 139,
        "9510": 116,
        "9511": 170,
        "9512": 34,
        "9513": 128,
        "9514": 223,
        "9515": 53,
        "9516": 142,
        "9517": 85,
        "9518": 201,
        "9519": 176,
        "9520": 96,
        "9521": 167,
        "9522": 75,
        "9523": 144,
        "9524": 250,
        "9525": 185,
        "9526": 187,
        "9527": 228,
        "9528": 186,
        "9529": 171,
        "9530": 32,
        "9531": 255,
        "9532": 121,
        "9533": 130,
        "9534": 45,
        "9535": 231,
        "9536": 255,
        "9537": 223,
        "9538": 109,
        "9539": 43,
        "9540": 148,
        "9541": 120,
        "9542": 133,
        "9543": 197,
        "9544": 196,
        "9545": 230,
        "9546": 36,
        "9547": 250,
        "9548": 172,
        "9549": 82,
        "9550": 0,
        "9551": 178,
        "9552": 19,
        "9553": 137,
        "9554": 160,
        "9555": 108,
        "9556": 106,
        "9557": 113,
        "9558": 48,
        "9559": 203,
        "9560": 1,
        "9561": 178,
        "9562": 246,
        "9563": 96,
        "9564": 116,
        "9565": 135,
        "9566": 52,
        "9567": 144,
        "9568": 110,
        "9569": 217,
        "9570": 211,
        "9571": 151,
        "9572": 62,
        "9573": 11,
        "9574": 52,
        "9575": 187,
        "9576": 235,
        "9577": 207,
        "9578": 25,
        "9579": 247,
        "9580": 135,
        "9581": 71,
        "9582": 207,
        "9583": 174,
        "9584": 178,
        "9585": 171,
        "9586": 206,
        "9587": 183,
        "9588": 207,
        "9589": 82,
        "9590": 106,
        "9591": 21,
        "9592": 123,
        "9593": 168,
        "9594": 71,
        "9595": 203,
        "9596": 145,
        "9597": 44,
        "9598": 181,
        "9599": 49,
        "9600": 171,
        "9601": 169,
        "9602": 223,
        "9603": 152,
        "9604": 204,
        "9605": 72,
        "9606": 44,
        "9607": 120,
        "9608": 95,
        "9609": 164,
        "9610": 250,
        "9611": 131,
        "9612": 140,
        "9613": 237,
        "9614": 192,
        "9615": 199,
        "9616": 103,
        "9617": 151,
        "9618": 107,
        "9619": 228,
        "9620": 141,
        "9621": 90,
        "9622": 88,
        "9623": 196,
        "9624": 11,
        "9625": 97,
        "9626": 100,
        "9627": 4,
        "9628": 50,
        "9629": 83,
        "9630": 224,
        "9631": 148,
        "9632": 46,
        "9633": 87,
        "9634": 102,
        "9635": 139,
        "9636": 138,
        "9637": 205,
        "9638": 166,
        "9639": 157,
        "9640": 186,
        "9641": 3,
        "9642": 89,
        "9643": 3,
        "9644": 193,
        "9645": 161,
        "9646": 192,
        "9647": 116,
        "9648": 168,
        "9649": 245,
        "9650": 83,
        "9651": 36,
        "9652": 177,
        "9653": 12,
        "9654": 68,
        "9655": 174,
        "9656": 176,
        "9657": 157,
        "9658": 225,
        "9659": 10,
        "9660": 153,
        "9661": 100,
        "9662": 178,
        "9663": 10,
        "9664": 8,
        "9665": 131,
        "9666": 185,
        "9667": 227,
        "9668": 57,
        "9669": 57,
        "9670": 254,
        "9671": 169,
        "9672": 155,
        "9673": 13,
        "9674": 213,
        "9675": 99,
        "9676": 39,
        "9677": 201,
        "9678": 29,
        "9679": 61,
        "9680": 68,
        "9681": 0,
        "9682": 189,
        "9683": 183,
        "9684": 77,
        "9685": 220,
        "9686": 92,
        "9687": 77,
        "9688": 164,
        "9689": 30,
        "9690": 249,
        "9691": 11,
        "9692": 148,
        "9693": 163,
        "9694": 195,
        "9695": 201,
        "9696": 34,
        "9697": 4,
        "9698": 90,
        "9699": 142,
        "9700": 48,
        "9701": 17,
        "9702": 130,
        "9703": 135,
        "9704": 152,
        "9705": 139,
        "9706": 51,
        "9707": 154,
        "9708": 151,
        "9709": 115,
        "9710": 145,
        "9711": 166,
        "9712": 182,
        "9713": 82,
        "9714": 69,
        "9715": 14,
        "9716": 204,
        "9717": 75,
        "9718": 112,
        "9719": 105,
        "9720": 74,
        "9721": 232,
        "9722": 184,
        "9723": 214,
        "9724": 120,
        "9725": 155,
        "9726": 188,
        "9727": 79,
        "9728": 159,
        "9729": 51,
        "9730": 9,
        "9731": 159,
        "9732": 190,
        "9733": 213,
        "9734": 182,
        "9735": 48,
        "9736": 71,
        "9737": 155,
        "9738": 38,
        "9739": 234,
        "9740": 23,
        "9741": 122,
        "9742": 115,
        "9743": 65,
        "9744": 51,
        "9745": 91,
        "9746": 16,
        "9747": 106,
        "9748": 98,
        "9749": 201,
        "9750": 109,
        "9751": 97,
        "9752": 11,
        "9753": 126,
        "9754": 89,
        "9755": 41,
        "9756": 177,
        "9757": 35,
        "9758": 46,
        "9759": 117,
        "9760": 142,
        "9761": 144,
        "9762": 70,
        "9763": 201,
        "9764": 92,
        "9765": 92,
        "9766": 55,
        "9767": 20,
        "9768": 99,
        "9769": 203,
        "9770": 93,
        "9771": 151,
        "9772": 197,
        "9773": 62,
        "9774": 233,
        "9775": 59,
        "9776": 98,
        "9777": 254,
        "9778": 102,
        "9779": 32,
        "9780": 24,
        "9781": 55,
        "9782": 207,
        "9783": 167,
        "9784": 69,
        "9785": 39,
        "9786": 169,
        "9787": 164,
        "9788": 154,
        "9789": 41,
        "9790": 44,
        "9791": 159,
        "9792": 43,
        "9793": 64,
        "9794": 70,
        "9795": 47,
        "9796": 119,
        "9797": 3,
        "9798": 67,
        "9799": 34,
        "9800": 157,
        "9801": 107,
        "9802": 42,
        "9803": 234,
        "9804": 20,
        "9805": 172,
        "9806": 229,
        "9807": 113,
        "9808": 144,
        "9809": 225,
        "9810": 7,
        "9811": 129,
        "9812": 150,
        "9813": 4,
        "9814": 132,
        "9815": 240,
        "9816": 162,
        "9817": 77,
        "9818": 141,
        "9819": 71,
        "9820": 60,
        "9821": 223,
        "9822": 28,
        "9823": 242,
        "9824": 111,
        "9825": 16,
        "9826": 245,
        "9827": 104,
        "9828": 32,
        "9829": 120,
        "9830": 204,
        "9831": 71,
        "9832": 148,
        "9833": 247,
        "9834": 228,
        "9835": 255,
        "9836": 182,
        "9837": 223,
        "9838": 210,
        "9839": 24,
        "9840": 58,
        "9841": 141,
        "9842": 144,
        "9843": 93,
        "9844": 226,
        "9845": 45,
        "9846": 135,
        "9847": 54,
        "9848": 29,
        "9849": 241,
        "9850": 152,
        "9851": 28,
        "9852": 90,
        "9853": 18,
        "9854": 16,
        "9855": 134,
        "9856": 151,
        "9857": 98,
        "9858": 203,
        "9859": 34,
        "9860": 193,
        "9861": 173,
        "9862": 202,
        "9863": 156,
        "9864": 94,
        "9865": 189,
        "9866": 221,
        "9867": 224,
        "9868": 196,
        "9869": 149,
        "9870": 137,
        "9871": 159,
        "9872": 215,
        "9873": 2,
        "9874": 253,
        "9875": 251,
        "9876": 75,
        "9877": 39,
        "9878": 88,
        "9879": 145,
        "9880": 48,
        "9881": 176,
        "9882": 118,
        "9883": 73,
        "9884": 23,
        "9885": 165,
        "9886": 211,
        "9887": 207,
        "9888": 130,
        "9889": 158,
        "9890": 128,
        "9891": 12,
        "9892": 163,
        "9893": 53,
        "9894": 119,
        "9895": 141,
        "9896": 244,
        "9897": 1,
        "9898": 10,
        "9899": 155,
        "9900": 248,
        "9901": 237,
        "9902": 89,
        "9903": 216,
        "9904": 27,
        "9905": 125,
        "9906": 169,
        "9907": 246,
        "9908": 47,
        "9909": 53,
        "9910": 229,
        "9911": 86,
        "9912": 115,
        "9913": 63,
        "9914": 163,
        "9915": 104,
        "9916": 145,
        "9917": 233,
        "9918": 23,
        "9919": 175,
        "9920": 161,
        "9921": 241,
        "9922": 1,
        "9923": 32,
        "9924": 152,
        "9925": 192,
        "9926": 197,
        "9927": 177,
        "9928": 198,
        "9929": 230,
        "9930": 189,
        "9931": 188,
        "9932": 255,
        "9933": 180,
        "9934": 23,
        "9935": 146,
        "9936": 216,
        "9937": 93,
        "9938": 45,
        "9939": 232,
        "9940": 2,
        "9941": 14,
        "9942": 41,
        "9943": 127,
        "9944": 207,
        "9945": 253,
        "9946": 10,
        "9947": 166,
        "9948": 140,
        "9949": 36,
        "9950": 201,
        "9951": 63,
        "9952": 216,
        "9953": 47,
        "9954": 168,
        "9955": 190,
        "9956": 125,
        "9957": 202,
        "9958": 155,
        "9959": 147,
        "9960": 132,
        "9961": 82,
        "9962": 192,
        "9963": 223,
        "9964": 179,
        "9965": 6,
        "9966": 228,
        "9967": 85,
        "9968": 75,
        "9969": 135,
        "9970": 240,
        "9971": 215,
        "9972": 225,
        "9973": 200,
        "9974": 23,
        "9975": 107,
        "9976": 131,
        "9977": 66,
        "9978": 52,
        "9979": 233,
        "9980": 50,
        "9981": 88,
        "9982": 91,
        "9983": 246,
        "9984": 236,
        "9985": 71,
        "9986": 97,
        "9987": 153,
        "9988": 206,
        "9989": 233,
        "9990": 212,
        "9991": 184,
        "9992": 236,
        "9993": 151,
        "9994": 80,
        "9995": 62,
        "9996": 234,
        "9997": 125,
        "9998": 88,
        "9999": 13,
        "10000": 219,
        "10001": 239,
        "10002": 194,
        "10003": 207,
        "10004": 53,
        "10005": 112,
        "10006": 228,
        "10007": 62,
        "10008": 56,
        "10009": 162,
        "10010": 188,
        "10011": 100,
        "10012": 145,
        "10013": 253,
        "10014": 7,
        "10015": 243,
        "10016": 235,
        "10017": 208,
        "10018": 155,
        "10019": 170,
        "10020": 180,
        "10021": 227,
        "10022": 182,
        "10023": 193,
        "10024": 37,
        "10025": 72,
        "10026": 248,
        "10027": 237,
        "10028": 95,
        "10029": 107,
        "10030": 147,
        "10031": 173,
        "10032": 29,
        "10033": 17,
        "10034": 246,
        "10035": 90,
        "10036": 215,
        "10037": 136,
        "10038": 45,
        "10039": 151,
        "10040": 5,
        "10041": 196,
        "10042": 46,
        "10043": 5,
        "10044": 98,
        "10045": 246,
        "10046": 179,
        "10047": 51,
        "10048": 109,
        "10049": 184,
        "10050": 152,
        "10051": 184,
        "10052": 206,
        "10053": 195,
        "10054": 7,
        "10055": 172,
        "10056": 216,
        "10057": 57,
        "10058": 16,
        "10059": 113,
        "10060": 70,
        "10061": 143,
        "10062": 58,
        "10063": 52,
        "10064": 92,
        "10065": 1,
        "10066": 186,
        "10067": 225,
        "10068": 137,
        "10069": 9,
        "10070": 223,
        "10071": 252,
        "10072": 40,
        "10073": 48,
        "10074": 222,
        "10075": 46,
        "10076": 0,
        "10077": 134,
        "10078": 196,
        "10079": 94,
        "10080": 191,
        "10081": 150,
        "10082": 135,
        "10083": 3,
        "10084": 84,
        "10085": 69,
        "10086": 180,
        "10087": 172,
        "10088": 236,
        "10089": 197,
        "10090": 218,
        "10091": 114,
        "10092": 116,
        "10093": 112,
        "10094": 4,
        "10095": 123,
        "10096": 119,
        "10097": 45,
        "10098": 91,
        "10099": 150,
        "10100": 200,
        "10101": 10,
        "10102": 0,
        "10103": 53,
        "10104": 65,
        "10105": 225,
        "10106": 48,
        "10107": 31,
        "10108": 181,
        "10109": 212,
        "10110": 106,
        "10111": 163,
        "10112": 135,
        "10113": 6,
        "10114": 180,
        "10115": 71,
        "10116": 187,
        "10117": 174,
        "10118": 212,
        "10119": 133,
        "10120": 110,
        "10121": 0,
        "10122": 136,
        "10123": 112,
        "10124": 150,
        "10125": 133,
        "10126": 24,
        "10127": 240,
        "10128": 60,
        "10129": 73,
        "10130": 137,
        "10131": 206,
        "10132": 127,
        "10133": 238,
        "10134": 109,
        "10135": 208,
        "10136": 10,
        "10137": 219,
        "10138": 239,
        "10139": 109,
        "10140": 194,
        "10141": 212,
        "10142": 167,
        "10143": 116,
        "10144": 132,
        "10145": 9,
        "10146": 50,
        "10147": 152,
        "10148": 220,
        "10149": 236,
        "10150": 1,
        "10151": 186,
        "10152": 100,
        "10153": 13,
        "10154": 148,
        "10155": 67,
        "10156": 61,
        "10157": 237,
        "10158": 7,
        "10159": 36,
        "10160": 225,
        "10161": 172,
        "10162": 66,
        "10163": 40,
        "10164": 213,
        "10165": 109,
        "10166": 74,
        "10167": 56,
        "10168": 53,
        "10169": 15,
        "10170": 97,
        "10171": 243,
        "10172": 17,
        "10173": 244,
        "10174": 42,
        "10175": 106,
        "10176": 58,
        "10177": 49,
        "10178": 168,
        "10179": 105,
        "10180": 127,
        "10181": 71,
        "10182": 105,
        "10183": 179,
        "10184": 205,
        "10185": 108,
        "10186": 165,
        "10187": 175,
        "10188": 39,
        "10189": 132,
        "10190": 249,
        "10191": 134,
        "10192": 213,
        "10193": 182,
        "10194": 207,
        "10195": 201,
        "10196": 43,
        "10197": 7,
        "10198": 89,
        "10199": 189,
        "10200": 210,
        "10201": 121,
        "10202": 42,
        "10203": 8,
        "10204": 85,
        "10205": 31,
        "10206": 195,
        "10207": 92,
        "10208": 108,
        "10209": 137,
        "10210": 187,
        "10211": 36,
        "10212": 176,
        "10213": 125,
        "10214": 116,
        "10215": 204,
        "10216": 33,
        "10217": 145,
        "10218": 7,
        "10219": 30,
        "10220": 134,
        "10221": 164,
        "10222": 203,
        "10223": 221,
        "10224": 70,
        "10225": 231,
        "10226": 236,
        "10227": 64,
        "10228": 217,
        "10229": 9,
        "10230": 191,
        "10231": 149,
        "10232": 197,
        "10233": 68,
        "10234": 153,
        "10235": 144,
        "10236": 31,
        "10237": 247,
        "10238": 210,
        "10239": 37,
        "10240": 233,
        "10241": 60,
        "10242": 96,
        "10243": 138,
        "10244": 45,
        "10245": 42,
        "10246": 12,
        "10247": 76,
        "10248": 232,
        "10249": 132,
        "10250": 58,
        "10251": 140,
        "10252": 134,
        "10253": 242,
        "10254": 186,
        "10255": 24,
        "10256": 88,
        "10257": 129,
        "10258": 76,
        "10259": 229,
        "10260": 243,
        "10261": 61,
        "10262": 60,
        "10263": 89,
        "10264": 242,
        "10265": 21,
        "10266": 20,
        "10267": 65,
        "10268": 195,
        "10269": 249,
        "10270": 73,
        "10271": 73,
        "10272": 115,
        "10273": 1,
        "10274": 222,
        "10275": 149,
        "10276": 106,
        "10277": 152,
        "10278": 86,
        "10279": 152,
        "10280": 39,
        "10281": 131,
        "10282": 85,
        "10283": 80,
        "10284": 182,
        "10285": 70,
        "10286": 5,
        "10287": 132,
        "10288": 100,
        "10289": 215,
        "10290": 199,
        "10291": 219,
        "10292": 190,
        "10293": 131,
        "10294": 254,
        "10295": 180,
        "10296": 196,
        "10297": 7,
        "10298": 221,
        "10299": 108,
        "10300": 2,
        "10301": 145,
        "10302": 126,
        "10303": 254,
        "10304": 23,
        "10305": 228,
        "10306": 95,
        "10307": 157,
        "10308": 64,
        "10309": 208,
        "10310": 160,
        "10311": 154,
        "10312": 72,
        "10313": 223,
        "10314": 169,
        "10315": 201,
        "10316": 68,
        "10317": 215,
        "10318": 89,
        "10319": 58,
        "10320": 151,
        "10321": 79,
        "10322": 138,
        "10323": 212,
        "10324": 37,
        "10325": 105,
        "10326": 247,
        "10327": 65,
        "10328": 63,
        "10329": 95,
        "10330": 104,
        "10331": 53,
        "10332": 49,
        "10333": 28,
        "10334": 75,
        "10335": 253,
        "10336": 102,
        "10337": 230,
        "10338": 203,
        "10339": 98,
        "10340": 100,
        "10341": 185,
        "10342": 187,
        "10343": 104,
        "10344": 102,
        "10345": 109,
        "10346": 164,
        "10347": 70,
        "10348": 95,
        "10349": 16,
        "10350": 220,
        "10351": 28,
        "10352": 13,
        "10353": 6,
        "10354": 253,
        "10355": 5,
        "10356": 254,
        "10357": 7,
        "10358": 107,
        "10359": 136,
        "10360": 33,
        "10361": 196,
        "10362": 65,
        "10363": 99,
        "10364": 30,
        "10365": 30,
        "10366": 102,
        "10367": 157,
        "10368": 201,
        "10369": 141,
        "10370": 55,
        "10371": 8,
        "10372": 134,
        "10373": 217,
        "10374": 227,
        "10375": 204,
        "10376": 53,
        "10377": 237,
        "10378": 180,
        "10379": 201,
        "10380": 195,
        "10381": 115,
        "10382": 90,
        "10383": 163,
        "10384": 133,
        "10385": 5,
        "10386": 79,
        "10387": 121,
        "10388": 200,
        "10389": 24,
        "10390": 91,
        "10391": 6,
        "10392": 136,
        "10393": 208,
        "10394": 180,
        "10395": 69,
        "10396": 100,
        "10397": 67,
        "10398": 242,
        "10399": 175,
        "10400": 209,
        "10401": 7,
        "10402": 62,
        "10403": 202,
        "10404": 188,
        "10405": 60,
        "10406": 212,
        "10407": 215,
        "10408": 100,
        "10409": 163,
        "10410": 159,
        "10411": 6,
        "10412": 4,
        "10413": 129,
        "10414": 11,
        "10415": 187,
        "10416": 36,
        "10417": 64,
        "10418": 184,
        "10419": 13,
        "10420": 81,
        "10421": 234,
        "10422": 194,
        "10423": 205,
        "10424": 231,
        "10425": 7,
        "10426": 51,
        "10427": 136,
        "10428": 211,
        "10429": 231,
        "10430": 162,
        "10431": 42,
        "10432": 22,
        "10433": 43,
        "10434": 249,
        "10435": 67,
        "10436": 12,
        "10437": 38,
        "10438": 43,
        "10439": 115,
        "10440": 80,
        "10441": 159,
        "10442": 181,
        "10443": 52,
        "10444": 205,
        "10445": 213,
        "10446": 151,
        "10447": 193,
        "10448": 247,
        "10449": 180,
        "10450": 34,
        "10451": 34,
        "10452": 219,
        "10453": 177,
        "10454": 76,
        "10455": 86,
        "10456": 251,
        "10457": 1,
        "10458": 180,
        "10459": 136,
        "10460": 162,
        "10461": 59,
        "10462": 49,
        "10463": 78,
        "10464": 179,
        "10465": 68,
        "10466": 164,
        "10467": 154,
        "10468": 20,
        "10469": 31,
        "10470": 54,
        "10471": 198,
        "10472": 197,
        "10473": 244,
        "10474": 3,
        "10475": 168,
        "10476": 28,
        "10477": 114,
        "10478": 13,
        "10479": 250,
        "10480": 218,
        "10481": 82,
        "10482": 224,
        "10483": 42,
        "10484": 122,
        "10485": 222,
        "10486": 149,
        "10487": 129,
        "10488": 82,
        "10489": 245,
        "10490": 74,
        "10491": 156,
        "10492": 49,
        "10493": 95,
        "10494": 60,
        "10495": 191,
        "10496": 169,
        "10497": 123,
        "10498": 223,
        "10499": 196,
        "10500": 116,
        "10501": 177,
        "10502": 223,
        "10503": 154,
        "10504": 46,
        "10505": 130,
        "10506": 159,
        "10507": 222,
        "10508": 174,
        "10509": 230,
        "10510": 95,
        "10511": 88,
        "10512": 186,
        "10513": 186,
        "10514": 7,
        "10515": 210,
        "10516": 47,
        "10517": 251,
        "10518": 189,
        "10519": 119,
        "10520": 105,
        "10521": 92,
        "10522": 77,
        "10523": 91,
        "10524": 71,
        "10525": 67,
        "10526": 151,
        "10527": 107,
        "10528": 110,
        "10529": 50,
        "10530": 6,
        "10531": 127,
        "10532": 197,
        "10533": 244,
        "10534": 154,
        "10535": 98,
        "10536": 236,
        "10537": 37,
        "10538": 229,
        "10539": 115,
        "10540": 244,
        "10541": 200,
        "10542": 49,
        "10543": 126,
        "10544": 231,
        "10545": 152,
        "10546": 220,
        "10547": 206,
        "10548": 170,
        "10549": 191,
        "10550": 153,
        "10551": 95,
        "10552": 158,
        "10553": 72,
        "10554": 230,
        "10555": 16,
        "10556": 255,
        "10557": 230,
        "10558": 143,
        "10559": 251,
        "10560": 35,
        "10561": 209,
        "10562": 147,
        "10563": 182,
        "10564": 170,
        "10565": 205,
        "10566": 98,
        "10567": 60,
        "10568": 75,
        "10569": 24,
        "10570": 93,
        "10571": 116,
        "10572": 194,
        "10573": 241,
        "10574": 74,
        "10575": 201,
        "10576": 207,
        "10577": 42,
        "10578": 52,
        "10579": 149,
        "10580": 60,
        "10581": 140,
        "10582": 172,
        "10583": 146,
        "10584": 92,
        "10585": 226,
        "10586": 237,
        "10587": 225,
        "10588": 230,
        "10589": 227,
        "10590": 160,
        "10591": 54,
        "10592": 131,
        "10593": 155,
        "10594": 217,
        "10595": 73,
        "10596": 25,
        "10597": 135,
        "10598": 22,
        "10599": 50,
        "10600": 60,
        "10601": 7,
        "10602": 42,
        "10603": 245,
        "10604": 67,
        "10605": 15,
        "10606": 7,
        "10607": 129,
        "10608": 183,
        "10609": 147,
        "10610": 156,
        "10611": 176,
        "10612": 144,
        "10613": 192,
        "10614": 69,
        "10615": 148,
        "10616": 219,
        "10617": 109,
        "10618": 197,
        "10619": 123,
        "10620": 177,
        "10621": 59,
        "10622": 88,
        "10623": 101,
        "10624": 160,
        "10625": 24,
        "10626": 185,
        "10627": 126,
        "10628": 33,
        "10629": 129,
        "10630": 20,
        "10631": 160,
        "10632": 65,
        "10633": 146,
        "10634": 145,
        "10635": 68,
        "10636": 171,
        "10637": 122,
        "10638": 74,
        "10639": 25,
        "10640": 168,
        "10641": 50,
        "10642": 248,
        "10643": 119,
        "10644": 159,
        "10645": 204,
        "10646": 119,
        "10647": 77,
        "10648": 253,
        "10649": 76,
        "10650": 238,
        "10651": 116,
        "10652": 90,
        "10653": 145,
        "10654": 98,
        "10655": 180,
        "10656": 246,
        "10657": 137,
        "10658": 237,
        "10659": 179,
        "10660": 133,
        "10661": 106,
        "10662": 188,
        "10663": 252,
        "10664": 115,
        "10665": 44,
        "10666": 221,
        "10667": 34,
        "10668": 204,
        "10669": 159,
        "10670": 239,
        "10671": 142,
        "10672": 249,
        "10673": 146,
        "10674": 170,
        "10675": 146,
        "10676": 148,
        "10677": 185,
        "10678": 184,
        "10679": 135,
        "10680": 98,
        "10681": 213,
        "10682": 228,
        "10683": 177,
        "10684": 212,
        "10685": 244,
        "10686": 252,
        "10687": 34,
        "10688": 19,
        "10689": 213,
        "10690": 65,
        "10691": 90,
        "10692": 144,
        "10693": 96,
        "10694": 30,
        "10695": 172,
        "10696": 0,
        "10697": 243,
        "10698": 202,
        "10699": 216,
        "10700": 56,
        "10701": 35,
        "10702": 217,
        "10703": 44,
        "10704": 92,
        "10705": 233,
        "10706": 227,
        "10707": 79,
        "10708": 138,
        "10709": 107,
        "10710": 218,
        "10711": 143,
        "10712": 240,
        "10713": 211,
        "10714": 15,
        "10715": 27,
        "10716": 188,
        "10717": 163,
        "10718": 161,
        "10719": 52,
        "10720": 52,
        "10721": 210,
        "10722": 68,
        "10723": 198,
        "10724": 159,
        "10725": 164,
        "10726": 14,
        "10727": 26,
        "10728": 168,
        "10729": 69,
        "10730": 105,
        "10731": 220,
        "10732": 233,
        "10733": 34,
        "10734": 11,
        "10735": 229,
        "10736": 217,
        "10737": 223,
        "10738": 61,
        "10739": 40,
        "10740": 161,
        "10741": 34,
        "10742": 128,
        "10743": 153,
        "10744": 240,
        "10745": 68,
        "10746": 38,
        "10747": 11,
        "10748": 70,
        "10749": 166,
        "10750": 71,
        "10751": 91,
        "10752": 228,
        "10753": 211,
        "10754": 252,
        "10755": 143,
        "10756": 55,
        "10757": 170,
        "10758": 124,
        "10759": 89,
        "10760": 33,
        "10761": 255,
        "10762": 15,
        "10763": 53,
        "10764": 226,
        "10765": 38,
        "10766": 98,
        "10767": 237,
        "10768": 45,
        "10769": 76,
        "10770": 240,
        "10771": 5,
        "10772": 143,
        "10773": 70,
        "10774": 110,
        "10775": 96,
        "10776": 116,
        "10777": 202,
        "10778": 0,
        "10779": 222,
        "10780": 95,
        "10781": 192,
        "10782": 37,
        "10783": 182,
        "10784": 120,
        "10785": 24,
        "10786": 51,
        "10787": 94,
        "10788": 137,
        "10789": 1,
        "10790": 16,
        "10791": 203,
        "10792": 126,
        "10793": 215,
        "10794": 144,
        "10795": 35,
        "10796": 238,
        "10797": 224,
        "10798": 16,
        "10799": 255,
        "10800": 151,
        "10801": 83,
        "10802": 230,
        "10803": 154,
        "10804": 228,
        "10805": 199,
        "10806": 0,
        "10807": 197,
        "10808": 155,
        "10809": 70,
        "10810": 94,
        "10811": 168,
        "10812": 116,
        "10813": 183,
        "10814": 200,
        "10815": 100,
        "10816": 120,
        "10817": 234,
        "10818": 252,
        "10819": 25,
        "10820": 231,
        "10821": 211,
        "10822": 61,
        "10823": 31,
        "10824": 78,
        "10825": 251,
        "10826": 157,
        "10827": 131,
        "10828": 188,
        "10829": 194,
        "10830": 255,
        "10831": 246,
        "10832": 186,
        "10833": 178,
        "10834": 160,
        "10835": 66,
        "10836": 23,
        "10837": 209,
        "10838": 237,
        "10839": 75,
        "10840": 122,
        "10841": 224,
        "10842": 214,
        "10843": 71,
        "10844": 104,
        "10845": 5,
        "10846": 219,
        "10847": 56,
        "10848": 219,
        "10849": 204,
        "10850": 50,
        "10851": 140,
        "10852": 102,
        "10853": 173,
        "10854": 242,
        "10855": 243,
        "10856": 233,
        "10857": 124,
        "10858": 131,
        "10859": 14,
        "10860": 201,
        "10861": 68,
        "10862": 40,
        "10863": 77,
        "10864": 15,
        "10865": 90,
        "10866": 99,
        "10867": 222,
        "10868": 88,
        "10869": 48,
        "10870": 119,
        "10871": 224,
        "10872": 143,
        "10873": 221,
        "10874": 121,
        "10875": 220,
        "10876": 126,
        "10877": 3,
        "10878": 22,
        "10879": 98,
        "10880": 246,
        "10881": 115,
        "10882": 50,
        "10883": 241,
        "10884": 116,
        "10885": 101,
        "10886": 25,
        "10887": 8,
        "10888": 191,
        "10889": 40,
        "10890": 98,
        "10891": 30,
        "10892": 248,
        "10893": 103,
        "10894": 206,
        "10895": 45,
        "10896": 203,
        "10897": 52,
        "10898": 86,
        "10899": 197,
        "10900": 101,
        "10901": 65,
        "10902": 12,
        "10903": 253,
        "10904": 254,
        "10905": 231,
        "10906": 45,
        "10907": 40,
        "10908": 197,
        "10909": 40,
        "10910": 68,
        "10911": 31,
        "10912": 122,
        "10913": 110,
        "10914": 104,
        "10915": 33,
        "10916": 87,
        "10917": 75,
        "10918": 203,
        "10919": 84,
        "10920": 23,
        "10921": 166,
        "10922": 161,
        "10923": 97,
        "10924": 112,
        "10925": 147,
        "10926": 33,
        "10927": 196,
        "10928": 25,
        "10929": 228,
        "10930": 238,
        "10931": 153,
        "10932": 218,
        "10933": 177,
        "10934": 41,
        "10935": 190,
        "10936": 142,
        "10937": 93,
        "10938": 158,
        "10939": 215,
        "10940": 18,
        "10941": 138,
        "10942": 6,
        "10943": 239,
        "10944": 140,
        "10945": 181,
        "10946": 163,
        "10947": 92,
        "10948": 224,
        "10949": 78,
        "10950": 33,
        "10951": 48,
        "10952": 96,
        "10953": 50,
        "10954": 219,
        "10955": 179,
        "10956": 155,
        "10957": 90,
        "10958": 242,
        "10959": 23,
        "10960": 249,
        "10961": 162,
        "10962": 224,
        "10963": 72,
        "10964": 12,
        "10965": 55,
        "10966": 201,
        "10967": 45,
        "10968": 220,
        "10969": 113,
        "10970": 247,
        "10971": 159,
        "10972": 180,
        "10973": 222,
        "10974": 241,
        "10975": 125,
        "10976": 127,
        "10977": 112,
        "10978": 232,
        "10979": 221,
        "10980": 157,
        "10981": 190,
        "10982": 170,
        "10983": 248,
        "10984": 235,
        "10985": 80,
        "10986": 230,
        "10987": 215,
        "10988": 188,
        "10989": 161,
        "10990": 250,
        "10991": 79,
        "10992": 184,
        "10993": 228,
        "10994": 191,
        "10995": 36,
        "10996": 59,
        "10997": 150,
        "10998": 243,
        "10999": 195,
        "11000": 115,
        "11001": 209,
        "11002": 73,
        "11003": 124,
        "11004": 68,
        "11005": 141,
        "11006": 69,
        "11007": 13,
        "11008": 142,
        "11009": 20,
        "11010": 8,
        "11011": 45,
        "11012": 24,
        "11013": 40,
        "11014": 147,
        "11015": 29,
        "11016": 189,
        "11017": 127,
        "11018": 176,
        "11019": 142,
        "11020": 113,
        "11021": 168,
        "11022": 10,
        "11023": 131,
        "11024": 250,
        "11025": 175,
        "11026": 251,
        "11027": 121,
        "11028": 173,
        "11029": 229,
        "11030": 161,
        "11031": 255,
        "11032": 227,
        "11033": 1,
        "11034": 12,
        "11035": 179,
        "11036": 121,
        "11037": 209,
        "11038": 170,
        "11039": 77,
        "11040": 87,
        "11041": 48,
        "11042": 59,
        "11043": 141,
        "11044": 81,
        "11045": 142,
        "11046": 137,
        "11047": 140,
        "11048": 163,
        "11049": 135,
        "11050": 126,
        "11051": 114,
        "11052": 162,
        "11053": 187,
        "11054": 199,
        "11055": 42,
        "11056": 27,
        "11057": 56,
        "11058": 144,
        "11059": 180,
        "11060": 132,
        "11061": 61,
        "11062": 93,
        "11063": 227,
        "11064": 92,
        "11065": 21,
        "11066": 183,
        "11067": 184,
        "11068": 115,
        "11069": 46,
        "11070": 84,
        "11071": 55,
        "11072": 190,
        "11073": 151,
        "11074": 128,
        "11075": 201,
        "11076": 156,
        "11077": 133,
        "11078": 171,
        "11079": 29,
        "11080": 141,
        "11081": 67,
        "11082": 235,
        "11083": 233,
        "11084": 162,
        "11085": 31,
        "11086": 168,
        "11087": 81,
        "11088": 96,
        "11089": 69,
        "11090": 177,
        "11091": 130,
        "11092": 254,
        "11093": 153,
        "11094": 56,
        "11095": 175,
        "11096": 193,
        "11097": 120,
        "11098": 66,
        "11099": 109,
        "11100": 120,
        "11101": 178,
        "11102": 148,
        "11103": 42,
        "11104": 65,
        "11105": 170,
        "11106": 245,
        "11107": 21,
        "11108": 119,
        "11109": 115,
        "11110": 78,
        "11111": 131,
        "11112": 123,
        "11113": 26,
        "11114": 118,
        "11115": 162,
        "11116": 37,
        "11117": 95,
        "11118": 34,
        "11119": 111,
        "11120": 4,
        "11121": 129,
        "11122": 252,
        "11123": 215,
        "11124": 162,
        "11125": 163,
        "11126": 152,
        "11127": 105,
        "11128": 221,
        "11129": 122,
        "11130": 212,
        "11131": 75,
        "11132": 235,
        "11133": 192,
        "11134": 53,
        "11135": 117,
        "11136": 11,
        "11137": 60,
        "11138": 149,
        "11139": 43,
        "11140": 163,
        "11141": 225,
        "11142": 9,
        "11143": 50,
        "11144": 146,
        "11145": 142,
        "11146": 235,
        "11147": 250,
        "11148": 17,
        "11149": 89,
        "11150": 48,
        "11151": 174,
        "11152": 237,
        "11153": 137,
        "11154": 134,
        "11155": 169,
        "11156": 197,
        "11157": 203,
        "11158": 246,
        "11159": 251,
        "11160": 30,
        "11161": 244,
        "11162": 114,
        "11163": 206,
        "11164": 12,
        "11165": 15,
        "11166": 166,
        "11167": 63,
        "11168": 163,
        "11169": 255,
        "11170": 120,
        "11171": 199,
        "11172": 7,
        "11173": 168,
        "11174": 126,
        "11175": 144,
        "11176": 215,
        "11177": 243,
        "11178": 148,
        "11179": 67,
        "11180": 82,
        "11181": 28,
        "11182": 78,
        "11183": 39,
        "11184": 97,
        "11185": 67,
        "11186": 150,
        "11187": 77,
        "11188": 175,
        "11189": 130,
        "11190": 100,
        "11191": 78,
        "11192": 65,
        "11193": 30,
        "11194": 240,
        "11195": 185,
        "11196": 221,
        "11197": 131,
        "11198": 93,
        "11199": 69,
        "11200": 235,
        "11201": 51,
        "11202": 129,
        "11203": 185,
        "11204": 147,
        "11205": 101,
        "11206": 65,
        "11207": 206,
        "11208": 40,
        "11209": 223,
        "11210": 190,
        "11211": 0,
        "11212": 58,
        "11213": 41,
        "11214": 62,
        "11215": 99,
        "11216": 186,
        "11217": 168,
        "11218": 75,
        "11219": 215,
        "11220": 25,
        "11221": 171,
        "11222": 69,
        "11223": 237,
        "11224": 144,
        "11225": 108,
        "11226": 22,
        "11227": 184,
        "11228": 233,
        "11229": 182,
        "11230": 1,
        "11231": 159,
        "11232": 133,
        "11233": 211,
        "11234": 197,
        "11235": 253,
        "11236": 101,
        "11237": 116,
        "11238": 131,
        "11239": 180,
        "11240": 122,
        "11241": 170,
        "11242": 180,
        "11243": 247,
        "11244": 210,
        "11245": 7,
        "11246": 84,
        "11247": 37,
        "11248": 76,
        "11249": 183,
        "11250": 175,
        "11251": 53,
        "11252": 177,
        "11253": 83,
        "11254": 47,
        "11255": 150,
        "11256": 165,
        "11257": 217,
        "11258": 155,
        "11259": 80,
        "11260": 3,
        "11261": 93,
        "11262": 14,
        "11263": 9,
        "11264": 45,
        "11265": 91,
        "11266": 185,
        "11267": 131,
        "11268": 114,
        "11269": 174,
        "11270": 42,
        "11271": 159,
        "11272": 51,
        "11273": 198,
        "11274": 48,
        "11275": 221,
        "11276": 119,
        "11277": 144,
        "11278": 102,
        "11279": 138,
        "11280": 28,
        "11281": 242,
        "11282": 209,
        "11283": 37,
        "11284": 60,
        "11285": 207,
        "11286": 204,
        "11287": 166,
        "11288": 121,
        "11289": 226,
        "11290": 36,
        "11291": 32,
        "11292": 174,
        "11293": 125,
        "11294": 111,
        "11295": 22,
        "11296": 51,
        "11297": 202,
        "11298": 60,
        "11299": 173,
        "11300": 141,
        "11301": 202,
        "11302": 86,
        "11303": 49,
        "11304": 237,
        "11305": 111,
        "11306": 204,
        "11307": 92,
        "11308": 207,
        "11309": 83,
        "11310": 103,
        "11311": 68,
        "11312": 250,
        "11313": 199,
        "11314": 3,
        "11315": 142,
        "11316": 24,
        "11317": 177,
        "11318": 217,
        "11319": 176,
        "11320": 80,
        "11321": 134,
        "11322": 187,
        "11323": 7,
        "11324": 4,
        "11325": 229,
        "11326": 225,
        "11327": 242,
        "11328": 181,
        "11329": 233,
        "11330": 34,
        "11331": 130,
        "11332": 95,
        "11333": 153,
        "11334": 242,
        "11335": 17,
        "11336": 207,
        "11337": 187,
        "11338": 60,
        "11339": 201,
        "11340": 173,
        "11341": 188,
        "11342": 123,
        "11343": 247,
        "11344": 75,
        "11345": 180,
        "11346": 200,
        "11347": 32,
        "11348": 127,
        "11349": 212,
        "11350": 35,
        "11351": 154,
        "11352": 32,
        "11353": 145,
        "11354": 56,
        "11355": 18,
        "11356": 158,
        "11357": 122,
        "11358": 158,
        "11359": 11,
        "11360": 30,
        "11361": 3,
        "11362": 195,
        "11363": 57,
        "11364": 37,
        "11365": 199,
        "11366": 65,
        "11367": 75,
        "11368": 6,
        "11369": 184,
        "11370": 91,
        "11371": 43,
        "11372": 248,
        "11373": 188,
        "11374": 167,
        "11375": 212,
        "11376": 69,
        "11377": 67,
        "11378": 111,
        "11379": 192,
        "11380": 33,
        "11381": 248,
        "11382": 103,
        "11383": 54,
        "11384": 187,
        "11385": 136,
        "11386": 8,
        "11387": 123,
        "11388": 242,
        "11389": 48,
        "11390": 40,
        "11391": 87,
        "11392": 56,
        "11393": 67,
        "11394": 253,
        "11395": 67,
        "11396": 189,
        "11397": 200,
        "11398": 179,
        "11399": 185,
        "11400": 152,
        "11401": 46,
        "11402": 62,
        "11403": 85,
        "11404": 98,
        "11405": 105,
        "11406": 221,
        "11407": 250,
        "11408": 201,
        "11409": 183,
        "11410": 95,
        "11411": 84,
        "11412": 118,
        "11413": 37,
        "11414": 104,
        "11415": 241,
        "11416": 180,
        "11417": 136,
        "11418": 229,
        "11419": 20,
        "11420": 21,
        "11421": 39,
        "11422": 154,
        "11423": 40,
        "11424": 231,
        "11425": 90,
        "11426": 5,
        "11427": 201,
        "11428": 57,
        "11429": 14,
        "11430": 188,
        "11431": 227,
        "11432": 206,
        "11433": 67,
        "11434": 150,
        "11435": 139,
        "11436": 147,
        "11437": 13,
        "11438": 14,
        "11439": 26,
        "11440": 14,
        "11441": 184,
        "11442": 144,
        "11443": 135,
        "11444": 104,
        "11445": 112,
        "11446": 71,
        "11447": 205,
        "11448": 61,
        "11449": 203,
        "11450": 175,
        "11451": 143,
        "11452": 231,
        "11453": 51,
        "11454": 94,
        "11455": 139,
        "11456": 155,
        "11457": 215,
        "11458": 9,
        "11459": 44,
        "11460": 109,
        "11461": 105,
        "11462": 225,
        "11463": 228,
        "11464": 3,
        "11465": 45,
        "11466": 189,
        "11467": 0,
        "11468": 106,
        "11469": 245,
        "11470": 77,
        "11471": 19,
        "11472": 129,
        "11473": 165,
        "11474": 226,
        "11475": 167,
        "11476": 239,
        "11477": 67,
        "11478": 42,
        "11479": 250,
        "11480": 136,
        "11481": 82,
        "11482": 64,
        "11483": 162,
        "11484": 143,
        "11485": 72,
        "11486": 26,
        "11487": 142,
        "11488": 155,
        "11489": 5,
        "11490": 79,
        "11491": 60,
        "11492": 6,
        "11493": 167,
        "11494": 29,
        "11495": 178,
        "11496": 203,
        "11497": 10,
        "11498": 237,
        "11499": 107,
        "11500": 230,
        "11501": 220,
        "11502": 134,
        "11503": 178,
        "11504": 103,
        "11505": 227,
        "11506": 227,
        "11507": 184,
        "11508": 24,
        "11509": 220,
        "11510": 84,
        "11511": 24,
        "11512": 97,
        "11513": 90,
        "11514": 250,
        "11515": 236,
        "11516": 19,
        "11517": 18,
        "11518": 241,
        "11519": 14,
        "11520": 49,
        "11521": 161,
        "11522": 146,
        "11523": 136,
        "11524": 235,
        "11525": 216,
        "11526": 185,
        "11527": 210,
        "11528": 28,
        "11529": 247,
        "11530": 125,
        "11531": 181,
        "11532": 225,
        "11533": 97,
        "11534": 25,
        "11535": 132,
        "11536": 63,
        "11537": 111,
        "11538": 241,
        "11539": 22,
        "11540": 184,
        "11541": 53,
        "11542": 25,
        "11543": 129,
        "11544": 216,
        "11545": 129,
        "11546": 78,
        "11547": 240,
        "11548": 251,
        "11549": 122,
        "11550": 50,
        "11551": 244,
        "11552": 166,
        "11553": 16,
        "11554": 243,
        "11555": 196,
        "11556": 26,
        "11557": 7,
        "11558": 178,
        "11559": 224,
        "11560": 228,
        "11561": 111,
        "11562": 24,
        "11563": 4,
        "11564": 116,
        "11565": 131,
        "11566": 39,
        "11567": 117,
        "11568": 202,
        "11569": 231,
        "11570": 229,
        "11571": 151,
        "11572": 0,
        "11573": 101,
        "11574": 210,
        "11575": 53,
        "11576": 209,
        "11577": 115,
        "11578": 83,
        "11579": 105,
        "11580": 179,
        "11581": 137,
        "11582": 149,
        "11583": 233,
        "11584": 59,
        "11585": 26,
        "11586": 94,
        "11587": 145,
        "11588": 92,
        "11589": 51,
        "11590": 6,
        "11591": 84,
        "11592": 29,
        "11593": 134,
        "11594": 94,
        "11595": 190,
        "11596": 116,
        "11597": 220,
        "11598": 47,
        "11599": 163,
        "11600": 27,
        "11601": 60,
        "11602": 206,
        "11603": 19,
        "11604": 44,
        "11605": 46,
        "11606": 20,
        "11607": 202,
        "11608": 180,
        "11609": 66,
        "11610": 57,
        "11611": 82,
        "11612": 104,
        "11613": 218,
        "11614": 122,
        "11615": 205,
        "11616": 33,
        "11617": 94,
        "11618": 75,
        "11619": 179,
        "11620": 206,
        "11621": 100,
        "11622": 152,
        "11623": 128,
        "11624": 185,
        "11625": 14,
        "11626": 207,
        "11627": 21,
        "11628": 147,
        "11629": 166,
        "11630": 186,
        "11631": 14,
        "11632": 190,
        "11633": 76,
        "11634": 58,
        "11635": 12,
        "11636": 37,
        "11637": 251,
        "11638": 70,
        "11639": 129,
        "11640": 6,
        "11641": 210,
        "11642": 169,
        "11643": 100,
        "11644": 91,
        "11645": 172,
        "11646": 120,
        "11647": 135,
        "11648": 189,
        "11649": 234,
        "11650": 195,
        "11651": 161,
        "11652": 208,
        "11653": 244,
        "11654": 73,
        "11655": 21,
        "11656": 2,
        "11657": 73,
        "11658": 193,
        "11659": 235,
        "11660": 190,
        "11661": 248,
        "11662": 178,
        "11663": 237,
        "11664": 198,
        "11665": 93,
        "11666": 230,
        "11667": 138,
        "11668": 230,
        "11669": 92,
        "11670": 168,
        "11671": 229,
        "11672": 191,
        "11673": 184,
        "11674": 26,
        "11675": 15,
        "11676": 67,
        "11677": 155,
        "11678": 86,
        "11679": 204,
        "11680": 198,
        "11681": 18,
        "11682": 149,
        "11683": 169,
        "11684": 154,
        "11685": 9,
        "11686": 135,
        "11687": 29,
        "11688": 248,
        "11689": 3,
        "11690": 119,
        "11691": 83,
        "11692": 0,
        "11693": 15,
        "11694": 231,
        "11695": 232,
        "11696": 242,
        "11697": 65,
        "11698": 64,
        "11699": 198,
        "11700": 233,
        "11701": 211,
        "11702": 40,
        "11703": 144,
        "11704": 71,
        "11705": 191,
        "11706": 6,
        "11707": 43,
        "11708": 100,
        "11709": 225,
        "11710": 69,
        "11711": 236,
        "11712": 224,
        "11713": 233,
        "11714": 144,
        "11715": 50,
        "11716": 189,
        "11717": 89,
        "11718": 243,
        "11719": 206,
        "11720": 124,
        "11721": 31,
        "11722": 64,
        "11723": 53,
        "11724": 152,
        "11725": 108,
        "11726": 234,
        "11727": 71,
        "11728": 74,
        "11729": 247,
        "11730": 245,
        "11731": 65,
        "11732": 1,
        "11733": 14,
        "11734": 141,
        "11735": 113,
        "11736": 191,
        "11737": 201,
        "11738": 235,
        "11739": 164,
        "11740": 120,
        "11741": 89,
        "11742": 33,
        "11743": 161,
        "11744": 3,
        "11745": 95,
        "11746": 186,
        "11747": 13,
        "11748": 186,
        "11749": 28,
        "11750": 214,
        "11751": 179,
        "11752": 134,
        "11753": 117,
        "11754": 138,
        "11755": 88,
        "11756": 228,
        "11757": 124,
        "11758": 103,
        "11759": 12,
        "11760": 18,
        "11761": 130,
        "11762": 219,
        "11763": 178,
        "11764": 40,
        "11765": 224,
        "11766": 109,
        "11767": 252,
        "11768": 162,
        "11769": 198,
        "11770": 35,
        "11771": 175,
        "11772": 115,
        "11773": 35,
        "11774": 106,
        "11775": 20,
        "11776": 125,
        "11777": 167,
        "11778": 210,
        "11779": 44,
        "11780": 214,
        "11781": 197,
        "11782": 187,
        "11783": 79,
        "11784": 9,
        "11785": 145,
        "11786": 52,
        "11787": 243,
        "11788": 8,
        "11789": 91,
        "11790": 220,
        "11791": 166,
        "11792": 108,
        "11793": 118,
        "11794": 103,
        "11795": 129,
        "11796": 67,
        "11797": 56,
        "11798": 206,
        "11799": 6,
        "11800": 226,
        "11801": 189,
        "11802": 138,
        "11803": 203,
        "11804": 255,
        "11805": 127,
        "11806": 16,
        "11807": 207,
        "11808": 162,
        "11809": 251,
        "11810": 250,
        "11811": 89,
        "11812": 192,
        "11813": 82,
        "11814": 138,
        "11815": 213,
        "11816": 79,
        "11817": 152,
        "11818": 128,
        "11819": 31,
        "11820": 163,
        "11821": 191,
        "11822": 173,
        "11823": 167,
        "11824": 78,
        "11825": 239,
        "11826": 38,
        "11827": 88,
        "11828": 40,
        "11829": 193,
        "11830": 200,
        "11831": 212,
        "11832": 7,
        "11833": 216,
        "11834": 170,
        "11835": 178,
        "11836": 104,
        "11837": 136,
        "11838": 3,
        "11839": 14,
        "11840": 219,
        "11841": 156,
        "11842": 123,
        "11843": 199,
        "11844": 171,
        "11845": 180,
        "11846": 12,
        "11847": 22,
        "11848": 196,
        "11849": 252,
        "11850": 195,
        "11851": 149,
        "11852": 123,
        "11853": 151,
        "11854": 209,
        "11855": 247,
        "11856": 207,
        "11857": 243,
        "11858": 83,
        "11859": 215,
        "11860": 83,
        "11861": 150,
        "11862": 44,
        "11863": 56,
        "11864": 41,
        "11865": 5,
        "11866": 76,
        "11867": 73,
        "11868": 168,
        "11869": 93,
        "11870": 197,
        "11871": 56,
        "11872": 198,
        "11873": 185,
        "11874": 238,
        "11875": 125,
        "11876": 206,
        "11877": 171,
        "11878": 217,
        "11879": 227,
        "11880": 225,
        "11881": 169,
        "11882": 2,
        "11883": 197,
        "11884": 57,
        "11885": 39,
        "11886": 62,
        "11887": 54,
        "11888": 204,
        "11889": 138,
        "11890": 162,
        "11891": 238,
        "11892": 155,
        "11893": 247,
        "11894": 159,
        "11895": 212,
        "11896": 232,
        "11897": 232,
        "11898": 241,
        "11899": 88,
        "11900": 183,
        "11901": 35,
        "11902": 18,
        "11903": 77,
        "11904": 245,
        "11905": 83,
        "11906": 216,
        "11907": 230,
        "11908": 165,
        "11909": 161,
        "11910": 61,
        "11911": 64,
        "11912": 234,
        "11913": 168,
        "11914": 117,
        "11915": 148,
        "11916": 144,
        "11917": 104,
        "11918": 238,
        "11919": 226,
        "11920": 122,
        "11921": 238,
        "11922": 165,
        "11923": 88,
        "11924": 165,
        "11925": 118,
        "11926": 44,
        "11927": 73,
        "11928": 128,
        "11929": 253,
        "11930": 26,
        "11931": 130,
        "11932": 52,
        "11933": 229,
        "11934": 91,
        "11935": 74,
        "11936": 16,
        "11937": 200,
        "11938": 134,
        "11939": 85,
        "11940": 12,
        "11941": 238,
        "11942": 161,
        "11943": 170,
        "11944": 232,
        "11945": 131,
        "11946": 77,
        "11947": 106,
        "11948": 201,
        "11949": 220,
        "11950": 227,
        "11951": 24,
        "11952": 48,
        "11953": 92,
        "11954": 102,
        "11955": 161,
        "11956": 115,
        "11957": 69,
        "11958": 77,
        "11959": 232,
        "11960": 75,
        "11961": 169,
        "11962": 26,
        "11963": 208,
        "11964": 59,
        "11965": 9,
        "11966": 61,
        "11967": 231,
        "11968": 202,
        "11969": 221,
        "11970": 134,
        "11971": 168,
        "11972": 111,
        "11973": 221,
        "11974": 152,
        "11975": 108,
        "11976": 210,
        "11977": 131,
        "11978": 26,
        "11979": 19,
        "11980": 19,
        "11981": 123,
        "11982": 33,
        "11983": 0,
        "11984": 55,
        "11985": 233,
        "11986": 178,
        "11987": 137,
        "11988": 20,
        "11989": 59,
        "11990": 62,
        "11991": 94,
        "11992": 151,
        "11993": 7,
        "11994": 172,
        "11995": 167,
        "11996": 87,
        "11997": 42,
        "11998": 62,
        "11999": 63,
        "12000": 78,
        "12001": 20,
        "12002": 219,
        "12003": 22,
        "12004": 97,
        "12005": 235,
        "12006": 237,
        "12007": 38,
        "12008": 181,
        "12009": 147,
        "12010": 12,
        "12011": 153,
        "12012": 99,
        "12013": 41,
        "12014": 93,
        "12015": 59,
        "12016": 133,
        "12017": 130,
        "12018": 84,
        "12019": 128,
        "12020": 241,
        "12021": 141,
        "12022": 78,
        "12023": 96,
        "12024": 99,
        "12025": 94,
        "12026": 194,
        "12027": 26,
        "12028": 159,
        "12029": 40,
        "12030": 91,
        "12031": 0,
        "12032": 234,
        "12033": 20,
        "12034": 114,
        "12035": 84,
        "12036": 17,
        "12037": 224,
        "12038": 232,
        "12039": 197,
        "12040": 137,
        "12041": 154,
        "12042": 29,
        "12043": 117,
        "12044": 116,
        "12045": 101,
        "12046": 173,
        "12047": 4,
        "12048": 177,
        "12049": 68,
        "12050": 136,
        "12051": 218,
        "12052": 51,
        "12053": 229,
        "12054": 9,
        "12055": 154,
        "12056": 72,
        "12057": 54,
        "12058": 23,
        "12059": 81,
        "12060": 32,
        "12061": 95,
        "12062": 132,
        "12063": 253,
        "12064": 91,
        "12065": 14,
        "12066": 200,
        "12067": 91,
        "12068": 112,
        "12069": 150,
        "12070": 57,
        "12071": 3,
        "12072": 245,
        "12073": 174,
        "12074": 234,
        "12075": 205,
        "12076": 152,
        "12077": 7,
        "12078": 39,
        "12079": 125,
        "12080": 94,
        "12081": 36,
        "12082": 65,
        "12083": 250,
        "12084": 172,
        "12085": 113,
        "12086": 133,
        "12087": 206,
        "12088": 138,
        "12089": 99,
        "12090": 23,
        "12091": 133,
        "12092": 177,
        "12093": 79,
        "12094": 25,
        "12095": 104,
        "12096": 210,
        "12097": 60,
        "12098": 245,
        "12099": 120,
        "12100": 148,
        "12101": 84,
        "12102": 147,
        "12103": 126,
        "12104": 145,
        "12105": 61,
        "12106": 32,
        "12107": 204,
        "12108": 176,
        "12109": 223,
        "12110": 249,
        "12111": 42,
        "12112": 153,
        "12113": 196,
        "12114": 153,
        "12115": 212,
        "12116": 141,
        "12117": 30,
        "12118": 61,
        "12119": 8,
        "12120": 88,
        "12121": 177,
        "12122": 126,
        "12123": 13,
        "12124": 195,
        "12125": 47,
        "12126": 76,
        "12127": 232,
        "12128": 148,
        "12129": 135,
        "12130": 254,
        "12131": 54,
        "12132": 43,
        "12133": 234,
        "12134": 21,
        "12135": 88,
        "12136": 175,
        "12137": 28,
        "12138": 49,
        "12139": 47,
        "12140": 67,
        "12141": 241,
        "12142": 139,
        "12143": 204,
        "12144": 2,
        "12145": 185,
        "12146": 232,
        "12147": 102,
        "12148": 131,
        "12149": 184,
        "12150": 2,
        "12151": 1,
        "12152": 102,
        "12153": 137,
        "12154": 72,
        "12155": 199,
        "12156": 24,
        "12157": 221,
        "12158": 70,
        "12159": 110,
        "12160": 131,
        "12161": 173,
        "12162": 65,
        "12163": 129,
        "12164": 126,
        "12165": 224,
        "12166": 196,
        "12167": 194,
        "12168": 48,
        "12169": 136,
        "12170": 114,
        "12171": 17,
        "12172": 55,
        "12173": 234,
        "12174": 253,
        "12175": 98,
        "12176": 253,
        "12177": 221,
        "12178": 189,
        "12179": 66,
        "12180": 70,
        "12181": 219,
        "12182": 134,
        "12183": 73,
        "12184": 104,
        "12185": 154,
        "12186": 201,
        "12187": 37,
        "12188": 190,
        "12189": 124,
        "12190": 29,
        "12191": 154,
        "12192": 161,
        "12193": 99,
        "12194": 137,
        "12195": 19,
        "12196": 216,
        "12197": 137,
        "12198": 51,
        "12199": 69,
        "12200": 112,
        "12201": 240,
        "12202": 74,
        "12203": 85,
        "12204": 79,
        "12205": 203,
        "12206": 173,
        "12207": 64,
        "12208": 62,
        "12209": 128,
        "12210": 170,
        "12211": 131,
        "12212": 89,
        "12213": 147,
        "12214": 10,
        "12215": 1,
        "12216": 106,
        "12217": 128,
        "12218": 84,
        "12219": 52,
        "12220": 223,
        "12221": 211,
        "12222": 239,
        "12223": 190,
        "12224": 229,
        "12225": 118,
        "12226": 11,
        "12227": 196,
        "12228": 122,
        "12229": 41,
        "12230": 61,
        "12231": 107,
        "12232": 37,
        "12233": 114,
        "12234": 12,
        "12235": 115,
        "12236": 104,
        "12237": 53,
        "12238": 192,
        "12239": 77,
        "12240": 112,
        "12241": 101,
        "12242": 40,
        "12243": 30,
        "12244": 212,
        "12245": 143,
        "12246": 69,
        "12247": 234,
        "12248": 78,
        "12249": 211,
        "12250": 164,
        "12251": 251,
        "12252": 213,
        "12253": 152,
        "12254": 88,
        "12255": 55,
        "12256": 103,
        "12257": 228,
        "12258": 107,
        "12259": 103,
        "12260": 112,
        "12261": 60,
        "12262": 154,
        "12263": 29,
        "12264": 111,
        "12265": 246,
        "12266": 27,
        "12267": 1,
        "12268": 46,
        "12269": 216,
        "12270": 23,
        "12271": 13,
        "12272": 169,
        "12273": 154,
        "12274": 196,
        "12275": 19,
        "12276": 201,
        "12277": 9,
        "12278": 31,
        "12279": 162,
        "12280": 92,
        "12281": 250,
        "12282": 114,
        "12283": 67,
        "12284": 117,
        "12285": 119,
        "12286": 27,
        "12287": 43,
        "12288": 253,
        "12289": 18,
        "12290": 37,
        "12291": 17,
        "12292": 9,
        "12293": 43,
        "12294": 59,
        "12295": 248,
        "12296": 85,
        "12297": 122,
        "12298": 238,
        "12299": 52,
        "12300": 109,
        "12301": 147,
        "12302": 28,
        "12303": 170,
        "12304": 244,
        "12305": 252,
        "12306": 81,
        "12307": 113,
        "12308": 22,
        "12309": 119,
        "12310": 218,
        "12311": 124,
        "12312": 94,
        "12313": 39,
        "12314": 185,
        "12315": 149,
        "12316": 141,
        "12317": 215,
        "12318": 82,
        "12319": 16,
        "12320": 180,
        "12321": 72,
        "12322": 165,
        "12323": 161,
        "12324": 182,
        "12325": 211,
        "12326": 141,
        "12327": 174,
        "12328": 195,
        "12329": 27,
        "12330": 119,
        "12331": 78,
        "12332": 234,
        "12333": 98,
        "12334": 113,
        "12335": 121,
        "12336": 149,
        "12337": 184,
        "12338": 4,
        "12339": 240,
        "12340": 116,
        "12341": 244,
        "12342": 155,
        "12343": 66,
        "12344": 100,
        "12345": 24,
        "12346": 183,
        "12347": 67,
        "12348": 140,
        "12349": 115,
        "12350": 14,
        "12351": 96,
        "12352": 223,
        "12353": 183,
        "12354": 114,
        "12355": 187,
        "12356": 186,
        "12357": 54,
        "12358": 100,
        "12359": 206,
        "12360": 60,
        "12361": 75,
        "12362": 135,
        "12363": 103,
        "12364": 45,
        "12365": 211,
        "12366": 73,
        "12367": 210,
        "12368": 188,
        "12369": 39,
        "12370": 13,
        "12371": 149,
        "12372": 122,
        "12373": 70,
        "12374": 118,
        "12375": 118,
        "12376": 172,
        "12377": 224,
        "12378": 63,
        "12379": 69,
        "12380": 38,
        "12381": 60,
        "12382": 51,
        "12383": 2,
        "12384": 37,
        "12385": 175,
        "12386": 120,
        "12387": 107,
        "12388": 248,
        "12389": 152,
        "12390": 81,
        "12391": 184,
        "12392": 218,
        "12393": 205,
        "12394": 204,
        "12395": 12,
        "12396": 192,
        "12397": 127,
        "12398": 76,
        "12399": 214,
        "12400": 226,
        "12401": 31,
        "12402": 43,
        "12403": 172,
        "12404": 240,
        "12405": 151,
        "12406": 205,
        "12407": 253,
        "12408": 137,
        "12409": 121,
        "12410": 237,
        "12411": 186,
        "12412": 119,
        "12413": 32,
        "12414": 238,
        "12415": 125,
        "12416": 223,
        "12417": 164,
        "12418": 194,
        "12419": 27,
        "12420": 192,
        "12421": 5,
        "12422": 233,
        "12423": 231,
        "12424": 147,
        "12425": 93,
        "12426": 106,
        "12427": 101,
        "12428": 88,
        "12429": 134,
        "12430": 46,
        "12431": 15,
        "12432": 103,
        "12433": 98,
        "12434": 124,
        "12435": 211,
        "12436": 93,
        "12437": 195,
        "12438": 236,
        "12439": 242,
        "12440": 19,
        "12441": 133,
        "12442": 129,
        "12443": 35,
        "12444": 133,
        "12445": 184,
        "12446": 155,
        "12447": 199,
        "12448": 171,
        "12449": 68,
        "12450": 56,
        "12451": 181,
        "12452": 132,
        "12453": 169,
        "12454": 154,
        "12455": 137,
        "12456": 182,
        "12457": 246,
        "12458": 245,
        "12459": 160,
        "12460": 223,
        "12461": 154,
        "12462": 101,
        "12463": 218,
        "12464": 172,
        "12465": 96,
        "12466": 139,
        "12467": 63,
        "12468": 2,
        "12469": 90,
        "12470": 78,
        "12471": 18,
        "12472": 8,
        "12473": 214,
        "12474": 22,
        "12475": 20,
        "12476": 44,
        "12477": 223,
        "12478": 172,
        "12479": 95,
        "12480": 130,
        "12481": 81,
        "12482": 193,
        "12483": 144,
        "12484": 151,
        "12485": 48,
        "12486": 102,
        "12487": 205,
        "12488": 109,
        "12489": 212,
        "12490": 113,
        "12491": 45,
        "12492": 178,
        "12493": 241,
        "12494": 234,
        "12495": 31,
        "12496": 213,
        "12497": 81,
        "12498": 58,
        "12499": 56,
        "12500": 67,
        "12501": 94,
        "12502": 240,
        "12503": 203,
        "12504": 168,
        "12505": 108,
        "12506": 185,
        "12507": 174,
        "12508": 187,
        "12509": 40,
        "12510": 42,
        "12511": 129,
        "12512": 243,
        "12513": 241,
        "12514": 84,
        "12515": 108,
        "12516": 216,
        "12517": 104,
        "12518": 249,
        "12519": 45,
        "12520": 20,
        "12521": 74,
        "12522": 126,
        "12523": 157,
        "12524": 67,
        "12525": 151,
        "12526": 12,
        "12527": 44,
        "12528": 77,
        "12529": 158,
        "12530": 49,
        "12531": 170,
        "12532": 224,
        "12533": 56,
        "12534": 147,
        "12535": 145,
        "12536": 245,
        "12537": 160,
        "12538": 52,
        "12539": 14,
        "12540": 58,
        "12541": 239,
        "12542": 18,
        "12543": 139,
        "12544": 150,
        "12545": 134,
        "12546": 211,
        "12547": 142,
        "12548": 255,
        "12549": 212,
        "12550": 172,
        "12551": 19,
        "12552": 120,
        "12553": 156,
        "12554": 141,
        "12555": 245,
        "12556": 111,
        "12557": 66,
        "12558": 147,
        "12559": 201,
        "12560": 113,
        "12561": 70,
        "12562": 46,
        "12563": 56,
        "12564": 94,
        "12565": 74,
        "12566": 64,
        "12567": 60,
        "12568": 213,
        "12569": 206,
        "12570": 90,
        "12571": 161,
        "12572": 238,
        "12573": 150,
        "12574": 156,
        "12575": 171,
        "12576": 237,
        "12577": 5,
        "12578": 181,
        "12579": 100,
        "12580": 200,
        "12581": 35,
        "12582": 148,
        "12583": 152,
        "12584": 51,
        "12585": 57,
        "12586": 7,
        "12587": 248,
        "12588": 173,
        "12589": 77,
        "12590": 182,
        "12591": 6,
        "12592": 77,
        "12593": 188,
        "12594": 160,
        "12595": 134,
        "12596": 91,
        "12597": 151,
        "12598": 137,
        "12599": 36,
        "12600": 34,
        "12601": 212,
        "12602": 29,
        "12603": 157,
        "12604": 153,
        "12605": 106,
        "12606": 69,
        "12607": 30,
        "12608": 115,
        "12609": 102,
        "12610": 122,
        "12611": 248,
        "12612": 37,
        "12613": 176,
        "12614": 197,
        "12615": 105,
        "12616": 4,
        "12617": 16,
        "12618": 138,
        "12619": 54,
        "12620": 182,
        "12621": 6,
        "12622": 68,
        "12623": 34,
        "12624": 95,
        "12625": 210,
        "12626": 215,
        "12627": 255,
        "12628": 110,
        "12629": 85,
        "12630": 109,
        "12631": 216,
        "12632": 107,
        "12633": 82,
        "12634": 146,
        "12635": 238,
        "12636": 228,
        "12637": 27,
        "12638": 54,
        "12639": 68,
        "12640": 249,
        "12641": 40,
        "12642": 151,
        "12643": 122,
        "12644": 122,
        "12645": 150,
        "12646": 201,
        "12647": 72,
        "12648": 244,
        "12649": 37,
        "12650": 207,
        "12651": 4,
        "12652": 14,
        "12653": 131,
        "12654": 186,
        "12655": 74,
        "12656": 212,
        "12657": 205,
        "12658": 150,
        "12659": 119,
        "12660": 170,
        "12661": 246,
        "12662": 62,
        "12663": 47,
        "12664": 214,
        "12665": 240,
        "12666": 26,
        "12667": 137,
        "12668": 106,
        "12669": 14,
        "12670": 14,
        "12671": 46,
        "12672": 73,
        "12673": 149,
        "12674": 19,
        "12675": 10,
        "12676": 150,
        "12677": 166,
        "12678": 250,
        "12679": 242,
        "12680": 3,
        "12681": 27,
        "12682": 44,
        "12683": 142,
        "12684": 254,
        "12685": 151,
        "12686": 198,
        "12687": 125,
        "12688": 64,
        "12689": 194,
        "12690": 163,
        "12691": 106,
        "12692": 35,
        "12693": 247,
        "12694": 81,
        "12695": 202,
        "12696": 179,
        "12697": 143,
        "12698": 242,
        "12699": 182,
        "12700": 67,
        "12701": 218,
        "12702": 127,
        "12703": 51,
        "12704": 169,
        "12705": 203,
        "12706": 23,
        "12707": 152,
        "12708": 14,
        "12709": 179,
        "12710": 210,
        "12711": 239,
        "12712": 76,
        "12713": 71,
        "12714": 224,
        "12715": 129,
        "12716": 6,
        "12717": 171,
        "12718": 47,
        "12719": 221,
        "12720": 203,
        "12721": 178,
        "12722": 186,
        "12723": 9,
        "12724": 183,
        "12725": 179,
        "12726": 85,
        "12727": 72,
        "12728": 133,
        "12729": 77,
        "12730": 30,
        "12731": 243,
        "12732": 142,
        "12733": 74,
        "12734": 164,
        "12735": 78,
        "12736": 76,
        "12737": 130,
        "12738": 113,
        "12739": 107,
        "12740": 51,
        "12741": 237,
        "12742": 85,
        "12743": 199,
        "12744": 170,
        "12745": 251,
        "12746": 105,
        "12747": 249,
        "12748": 180,
        "12749": 184,
        "12750": 156,
        "12751": 253,
        "12752": 24,
        "12753": 98,
        "12754": 75,
        "12755": 106,
        "12756": 216,
        "12757": 191,
        "12758": 224,
        "12759": 234,
        "12760": 120,
        "12761": 228,
        "12762": 227,
        "12763": 180,
        "12764": 233,
        "12765": 176,
        "12766": 226,
        "12767": 82,
        "12768": 135,
        "12769": 9,
        "12770": 21,
        "12771": 240,
        "12772": 184,
        "12773": 102,
        "12774": 235,
        "12775": 29,
        "12776": 242,
        "12777": 243,
        "12778": 175,
        "12779": 38,
        "12780": 155,
        "12781": 171,
        "12782": 177,
        "12783": 177,
        "12784": 214,
        "12785": 170,
        "12786": 64,
        "12787": 245,
        "12788": 125,
        "12789": 115,
        "12790": 109,
        "12791": 212,
        "12792": 40,
        "12793": 73,
        "12794": 8,
        "12795": 55,
        "12796": 185,
        "12797": 252,
        "12798": 134,
        "12799": 1,
        "12800": 249,
        "12801": 250,
        "12802": 149,
        "12803": 251,
        "12804": 112,
        "12805": 134,
        "12806": 195,
        "12807": 143,
        "12808": 82,
        "12809": 18,
        "12810": 189,
        "12811": 53,
        "12812": 201,
        "12813": 95,
        "12814": 56,
        "12815": 117,
        "12816": 158,
        "12817": 106,
        "12818": 105,
        "12819": 60,
        "12820": 44,
        "12821": 163,
        "12822": 185,
        "12823": 197,
        "12824": 29,
        "12825": 117,
        "12826": 155,
        "12827": 255,
        "12828": 187,
        "12829": 188,
        "12830": 255,
        "12831": 112,
        "12832": 33,
        "12833": 25,
        "12834": 130,
        "12835": 179,
        "12836": 247,
        "12837": 143,
        "12838": 67,
        "12839": 215,
        "12840": 196,
        "12841": 81,
        "12842": 249,
        "12843": 37,
        "12844": 44,
        "12845": 68,
        "12846": 65,
        "12847": 189,
        "12848": 91,
        "12849": 32,
        "12850": 96,
        "12851": 213,
        "12852": 200,
        "12853": 94,
        "12854": 20,
        "12855": 147,
        "12856": 32,
        "12857": 25,
        "12858": 244,
        "12859": 142,
        "12860": 177,
        "12861": 228,
        "12862": 93,
        "12863": 126,
        "12864": 11,
        "12865": 45,
        "12866": 174,
        "12867": 106,
        "12868": 155,
        "12869": 40,
        "12870": 41,
        "12871": 119,
        "12872": 70,
        "12873": 212,
        "12874": 58,
        "12875": 233,
        "12876": 110,
        "12877": 182,
        "12878": 245,
        "12879": 56,
        "12880": 113,
        "12881": 218,
        "12882": 53,
        "12883": 97,
        "12884": 69,
        "12885": 134,
        "12886": 225,
        "12887": 176,
        "12888": 164,
        "12889": 196,
        "12890": 75,
        "12891": 22,
        "12892": 213,
        "12893": 74,
        "12894": 90,
        "12895": 165,
        "12896": 203,
        "12897": 249,
        "12898": 238,
        "12899": 73,
        "12900": 183,
        "12901": 43,
        "12902": 68,
        "12903": 51,
        "12904": 171,
        "12905": 229,
        "12906": 195,
        "12907": 151,
        "12908": 88,
        "12909": 147,
        "12910": 197,
        "12911": 69,
        "12912": 39,
        "12913": 227,
        "12914": 137,
        "12915": 175,
        "12916": 141,
        "12917": 94,
        "12918": 231,
        "12919": 36,
        "12920": 226,
        "12921": 113,
        "12922": 212,
        "12923": 47,
        "12924": 216,
        "12925": 84,
        "12926": 26,
        "12927": 85,
        "12928": 14,
        "12929": 57,
        "12930": 196,
        "12931": 197,
        "12932": 96,
        "12933": 246,
        "12934": 201,
        "12935": 219,
        "12936": 116,
        "12937": 76,
        "12938": 0,
        "12939": 248,
        "12940": 87,
        "12941": 219,
        "12942": 140,
        "12943": 237,
        "12944": 174,
        "12945": 21,
        "12946": 229,
        "12947": 134,
        "12948": 244,
        "12949": 20,
        "12950": 208,
        "12951": 74,
        "12952": 32,
        "12953": 142,
        "12954": 169,
        "12955": 176,
        "12956": 19,
        "12957": 14,
        "12958": 38,
        "12959": 206,
        "12960": 230,
        "12961": 89,
        "12962": 22,
        "12963": 174,
        "12964": 113,
        "12965": 210,
        "12966": 66,
        "12967": 165,
        "12968": 217,
        "12969": 90,
        "12970": 248,
        "12971": 214,
        "12972": 236,
        "12973": 222,
        "12974": 20,
        "12975": 122,
        "12976": 158,
        "12977": 37,
        "12978": 191,
        "12979": 17,
        "12980": 8,
        "12981": 182,
        "12982": 156,
        "12983": 234,
        "12984": 98,
        "12985": 130,
        "12986": 243,
        "12987": 17,
        "12988": 134,
        "12989": 126,
        "12990": 207,
        "12991": 65,
        "12992": 142,
        "12993": 41,
        "12994": 54,
        "12995": 124,
        "12996": 155,
        "12997": 33,
        "12998": 5,
        "12999": 18,
        "13000": 156,
        "13001": 52,
        "13002": 186,
        "13003": 115,
        "13004": 16,
        "13005": 95,
        "13006": 68,
        "13007": 228,
        "13008": 245,
        "13009": 64,
        "13010": 254,
        "13011": 80,
        "13012": 35,
        "13013": 249,
        "13014": 178,
        "13015": 46,
        "13016": 115,
        "13017": 79,
        "13018": 49,
        "13019": 36,
        "13020": 16,
        "13021": 167,
        "13022": 209,
        "13023": 136,
        "13024": 193,
        "13025": 42,
        "13026": 238,
        "13027": 82,
        "13028": 204,
        "13029": 178,
        "13030": 177,
        "13031": 215,
        "13032": 149,
        "13033": 201,
        "13034": 36,
        "13035": 38,
        "13036": 174,
        "13037": 34,
        "13038": 74,
        "13039": 235,
        "13040": 217,
        "13041": 11,
        "13042": 95,
        "13043": 65,
        "13044": 77,
        "13045": 22,
        "13046": 120,
        "13047": 135,
        "13048": 31,
        "13049": 149,
        "13050": 224,
        "13051": 183,
        "13052": 169,
        "13053": 254,
        "13054": 16,
        "13055": 77,
        "13056": 126,
        "13057": 9,
        "13058": 249,
        "13059": 116,
        "13060": 172,
        "13061": 225,
        "13062": 240,
        "13063": 23,
        "13064": 54,
        "13065": 140,
        "13066": 230,
        "13067": 108,
        "13068": 91,
        "13069": 21,
        "13070": 38,
        "13071": 188,
        "13072": 247,
        "13073": 42,
        "13074": 196,
        "13075": 80,
        "13076": 178,
        "13077": 155,
        "13078": 125,
        "13079": 241,
        "13080": 86,
        "13081": 79,
        "13082": 39,
        "13083": 188,
        "13084": 72,
        "13085": 67,
        "13086": 115,
        "13087": 103,
        "13088": 122,
        "13089": 39,
        "13090": 54,
        "13091": 158,
        "13092": 105,
        "13093": 94,
        "13094": 241,
        "13095": 90,
        "13096": 99,
        "13097": 178,
        "13098": 223,
        "13099": 50,
        "13100": 60,
        "13101": 228,
        "13102": 50,
        "13103": 7,
        "13104": 146,
        "13105": 31,
        "13106": 35,
        "13107": 241,
        "13108": 85,
        "13109": 246,
        "13110": 109,
        "13111": 65,
        "13112": 174,
        "13113": 105,
        "13114": 100,
        "13115": 214,
        "13116": 156,
        "13117": 153,
        "13118": 45,
        "13119": 222,
        "13120": 130,
        "13121": 110,
        "13122": 145,
        "13123": 136,
        "13124": 90,
        "13125": 205,
        "13126": 232,
        "13127": 1,
        "13128": 47,
        "13129": 111,
        "13130": 40,
        "13131": 26,
        "13132": 217,
        "13133": 126,
        "13134": 114,
        "13135": 206,
        "13136": 24,
        "13137": 206,
        "13138": 117,
        "13139": 229,
        "13140": 59,
        "13141": 128,
        "13142": 232,
        "13143": 15,
        "13144": 62,
        "13145": 166,
        "13146": 179,
        "13147": 160,
        "13148": 203,
        "13149": 185,
        "13150": 34,
        "13151": 166,
        "13152": 121,
        "13153": 67,
        "13154": 181,
        "13155": 81,
        "13156": 8,
        "13157": 203,
        "13158": 176,
        "13159": 132,
        "13160": 108,
        "13161": 48,
        "13162": 136,
        "13163": 191,
        "13164": 252,
        "13165": 93,
        "13166": 156,
        "13167": 22,
        "13168": 88,
        "13169": 195,
        "13170": 139,
        "13171": 217,
        "13172": 71,
        "13173": 17,
        "13174": 107,
        "13175": 210,
        "13176": 93,
        "13177": 21,
        "13178": 23,
        "13179": 255,
        "13180": 154,
        "13181": 160,
        "13182": 89,
        "13183": 218,
        "13184": 48,
        "13185": 132,
        "13186": 8,
        "13187": 208,
        "13188": 18,
        "13189": 12,
        "13190": 176,
        "13191": 154,
        "13192": 150,
        "13193": 175,
        "13194": 104,
        "13195": 33,
        "13196": 241,
        "13197": 27,
        "13198": 164,
        "13199": 60,
        "13200": 149,
        "13201": 212,
        "13202": 175,
        "13203": 149,
        "13204": 129,
        "13205": 73,
        "13206": 28,
        "13207": 26,
        "13208": 18,
        "13209": 16,
        "13210": 17,
        "13211": 139,
        "13212": 104,
        "13213": 199,
        "13214": 253,
        "13215": 157,
        "13216": 147,
        "13217": 197,
        "13218": 0,
        "13219": 247,
        "13220": 33,
        "13221": 44,
        "13222": 41,
        "13223": 223,
        "13224": 213,
        "13225": 245,
        "13226": 195,
        "13227": 133,
        "13228": 114,
        "13229": 249,
        "13230": 167,
        "13231": 78,
        "13232": 5,
        "13233": 110,
        "13234": 196,
        "13235": 8,
        "13236": 213,
        "13237": 250,
        "13238": 4,
        "13239": 228,
        "13240": 156,
        "13241": 238,
        "13242": 63,
        "13243": 22,
        "13244": 72,
        "13245": 4,
        "13246": 69,
        "13247": 55,
        "13248": 80,
        "13249": 42,
        "13250": 33,
        "13251": 183,
        "13252": 122,
        "13253": 252,
        "13254": 196,
        "13255": 89,
        "13256": 221,
        "13257": 77,
        "13258": 48,
        "13259": 208,
        "13260": 21,
        "13261": 183,
        "13262": 121,
        "13263": 139,
        "13264": 84,
        "13265": 58,
        "13266": 170,
        "13267": 169,
        "13268": 162,
        "13269": 132,
        "13270": 44,
        "13271": 176,
        "13272": 237,
        "13273": 239,
        "13274": 89,
        "13275": 95,
        "13276": 227,
        "13277": 16,
        "13278": 220,
        "13279": 198,
        "13280": 235,
        "13281": 114,
        "13282": 233,
        "13283": 83,
        "13284": 175,
        "13285": 16,
        "13286": 181,
        "13287": 209,
        "13288": 48,
        "13289": 251,
        "13290": 137,
        "13291": 109,
        "13292": 225,
        "13293": 44,
        "13294": 168,
        "13295": 21,
        "13296": 111,
        "13297": 108,
        "13298": 155,
        "13299": 130,
        "13300": 171,
        "13301": 59,
        "13302": 29,
        "13303": 162,
        "13304": 211,
        "13305": 190,
        "13306": 251,
        "13307": 188,
        "13308": 214,
        "13309": 129,
        "13310": 197,
        "13311": 43,
        "13312": 206,
        "13313": 220,
        "13314": 60,
        "13315": 145,
        "13316": 128,
        "13317": 135,
        "13318": 150,
        "13319": 160,
        "13320": 79,
        "13321": 89,
        "13322": 124,
        "13323": 145,
        "13324": 244,
        "13325": 22,
        "13326": 186,
        "13327": 127,
        "13328": 42,
        "13329": 120,
        "13330": 32,
        "13331": 61,
        "13332": 165,
        "13333": 142,
        "13334": 34,
        "13335": 137,
        "13336": 173,
        "13337": 91,
        "13338": 238,
        "13339": 43,
        "13340": 53,
        "13341": 0,
        "13342": 100,
        "13343": 122,
        "13344": 167,
        "13345": 80,
        "13346": 194,
        "13347": 11,
        "13348": 139,
        "13349": 157,
        "13350": 70,
        "13351": 105,
        "13352": 126,
        "13353": 159,
        "13354": 233,
        "13355": 46,
        "13356": 146,
        "13357": 97,
        "13358": 145,
        "13359": 238,
        "13360": 54,
        "13361": 143,
        "13362": 3,
        "13363": 203,
        "13364": 72,
        "13365": 16,
        "13366": 83,
        "13367": 9,
        "13368": 161,
        "13369": 221,
        "13370": 175,
        "13371": 56,
        "13372": 183,
        "13373": 2,
        "13374": 169,
        "13375": 221,
        "13376": 90,
        "13377": 219,
        "13378": 82,
        "13379": 54,
        "13380": 158,
        "13381": 101,
        "13382": 80,
        "13383": 236,
        "13384": 19,
        "13385": 75,
        "13386": 213,
        "13387": 6,
        "13388": 239,
        "13389": 215,
        "13390": 23,
        "13391": 102,
        "13392": 41,
        "13393": 55,
        "13394": 216,
        "13395": 48,
        "13396": 246,
        "13397": 99,
        "13398": 215,
        "13399": 247,
        "13400": 60,
        "13401": 181,
        "13402": 177,
        "13403": 12,
        "13404": 236,
        "13405": 233,
        "13406": 162,
        "13407": 221,
        "13408": 185,
        "13409": 80,
        "13410": 132,
        "13411": 148,
        "13412": 149,
        "13413": 109,
        "13414": 67,
        "13415": 112,
        "13416": 46,
        "13417": 30,
        "13418": 179,
        "13419": 181,
        "13420": 72,
        "13421": 151,
        "13422": 24,
        "13423": 145,
        "13424": 134,
        "13425": 213,
        "13426": 203,
        "13427": 106,
        "13428": 219,
        "13429": 165,
        "13430": 129,
        "13431": 143,
        "13432": 104,
        "13433": 173,
        "13434": 101,
        "13435": 83,
        "13436": 240,
        "13437": 43,
        "13438": 66,
        "13439": 8,
        "13440": 244,
        "13441": 170,
        "13442": 173,
        "13443": 202,
        "13444": 54,
        "13445": 233,
        "13446": 12,
        "13447": 12,
        "13448": 3,
        "13449": 116,
        "13450": 116,
        "13451": 17,
        "13452": 68,
        "13453": 49,
        "13454": 16,
        "13455": 222,
        "13456": 36,
        "13457": 64,
        "13458": 141,
        "13459": 10,
        "13460": 64,
        "13461": 36,
        "13462": 172,
        "13463": 137,
        "13464": 227,
        "13465": 161,
        "13466": 122,
        "13467": 40,
        "13468": 132,
        "13469": 155,
        "13470": 8,
        "13471": 126,
        "13472": 166,
        "13473": 185,
        "13474": 12,
        "13475": 53,
        "13476": 207,
        "13477": 58,
        "13478": 80,
        "13479": 184,
        "13480": 53,
        "13481": 102,
        "13482": 246,
        "13483": 91,
        "13484": 113,
        "13485": 187,
        "13486": 155,
        "13487": 173,
        "13488": 26,
        "13489": 27,
        "13490": 173,
        "13491": 35,
        "13492": 34,
        "13493": 213,
        "13494": 147,
        "13495": 138,
        "13496": 150,
        "13497": 111,
        "13498": 91,
        "13499": 59,
        "13500": 244,
        "13501": 165,
        "13502": 240,
        "13503": 33,
        "13504": 207,
        "13505": 255,
        "13506": 61,
        "13507": 244,
        "13508": 150,
        "13509": 199,
        "13510": 115,
        "13511": 12,
        "13512": 1,
        "13513": 181,
        "13514": 162,
        "13515": 213,
        "13516": 8,
        "13517": 162,
        "13518": 65,
        "13519": 158,
        "13520": 77,
        "13521": 174,
        "13522": 223,
        "13523": 5,
        "13524": 75,
        "13525": 203,
        "13526": 156,
        "13527": 191,
        "13528": 232,
        "13529": 52,
        "13530": 207,
        "13531": 92,
        "13532": 145,
        "13533": 182,
        "13534": 153,
        "13535": 206,
        "13536": 74,
        "13537": 249,
        "13538": 107,
        "13539": 156,
        "13540": 255,
        "13541": 12,
        "13542": 106,
        "13543": 129,
        "13544": 149,
        "13545": 145,
        "13546": 167,
        "13547": 128,
        "13548": 60,
        "13549": 181,
        "13550": 205,
        "13551": 40,
        "13552": 211,
        "13553": 213,
        "13554": 62,
        "13555": 28,
        "13556": 70,
        "13557": 131,
        "13558": 161,
        "13559": 110,
        "13560": 115,
        "13561": 253,
        "13562": 121,
        "13563": 200,
        "13564": 93,
        "13565": 22,
        "13566": 186,
        "13567": 185,
        "13568": 205,
        "13569": 57,
        "13570": 150,
        "13571": 229,
        "13572": 207,
        "13573": 32,
        "13574": 35,
        "13575": 250,
        "13576": 144,
        "13577": 6,
        "13578": 120,
        "13579": 6,
        "13580": 148,
        "13581": 167,
        "13582": 177,
        "13583": 2,
        "13584": 213,
        "13585": 40,
        "13586": 48,
        "13587": 218,
        "13588": 31,
        "13589": 44,
        "13590": 33,
        "13591": 31,
        "13592": 122,
        "13593": 41,
        "13594": 214,
        "13595": 62,
        "13596": 238,
        "13597": 253,
        "13598": 98,
        "13599": 169,
        "13600": 135,
        "13601": 12,
        "13602": 199,
        "13603": 220,
        "13604": 191,
        "13605": 85,
        "13606": 116,
        "13607": 159,
        "13608": 108,
        "13609": 175,
        "13610": 156,
        "13611": 215,
        "13612": 229,
        "13613": 171,
        "13614": 184,
        "13615": 19,
        "13616": 170,
        "13617": 120,
        "13618": 240,
        "13619": 139,
        "13620": 19,
        "13621": 108,
        "13622": 93,
        "13623": 3,
        "13624": 178,
        "13625": 85,
        "13626": 127,
        "13627": 20,
        "13628": 119,
        "13629": 152,
        "13630": 200,
        "13631": 207,
        "13632": 20,
        "13633": 127,
        "13634": 231,
        "13635": 2,
        "13636": 195,
        "13637": 186,
        "13638": 60,
        "13639": 214,
        "13640": 102,
        "13641": 113,
        "13642": 50,
        "13643": 215,
        "13644": 135,
        "13645": 16,
        "13646": 215,
        "13647": 233,
        "13648": 4,
        "13649": 2,
        "13650": 148,
        "13651": 204,
        "13652": 30,
        "13653": 132,
        "13654": 61,
        "13655": 212,
        "13656": 219,
        "13657": 61,
        "13658": 12,
        "13659": 69,
        "13660": 21,
        "13661": 146,
        "13662": 32,
        "13663": 165,
        "13664": 247,
        "13665": 86,
        "13666": 0,
        "13667": 189,
        "13668": 149,
        "13669": 58,
        "13670": 92,
        "13671": 237,
        "13672": 213,
        "13673": 17,
        "13674": 19,
        "13675": 230,
        "13676": 204,
        "13677": 110,
        "13678": 88,
        "13679": 175,
        "13680": 90,
        "13681": 148,
        "13682": 117,
        "13683": 196,
        "13684": 252,
        "13685": 248,
        "13686": 76,
        "13687": 243,
        "13688": 49,
        "13689": 48,
        "13690": 140,
        "13691": 248,
        "13692": 122,
        "13693": 163,
        "13694": 52,
        "13695": 178,
        "13696": 226,
        "13697": 6,
        "13698": 23,
        "13699": 190,
        "13700": 30,
        "13701": 59,
        "13702": 189,
        "13703": 133,
        "13704": 16,
        "13705": 148,
        "13706": 233,
        "13707": 124,
        "13708": 244,
        "13709": 14,
        "13710": 239,
        "13711": 174,
        "13712": 180,
        "13713": 112,
        "13714": 68,
        "13715": 76,
        "13716": 137,
        "13717": 233,
        "13718": 193,
        "13719": 89,
        "13720": 163,
        "13721": 186,
        "13722": 13,
        "13723": 1,
        "13724": 75,
        "13725": 181,
        "13726": 44,
        "13727": 139,
        "13728": 97,
        "13729": 213,
        "13730": 24,
        "13731": 156,
        "13732": 67,
        "13733": 241,
        "13734": 18,
        "13735": 238,
        "13736": 140,
        "13737": 192,
        "13738": 225,
        "13739": 206,
        "13740": 137,
        "13741": 90,
        "13742": 93,
        "13743": 81,
        "13744": 142,
        "13745": 50,
        "13746": 218,
        "13747": 16,
        "13748": 147,
        "13749": 216,
        "13750": 91,
        "13751": 107,
        "13752": 125,
        "13753": 250,
        "13754": 77,
        "13755": 231,
        "13756": 40,
        "13757": 187,
        "13758": 66,
        "13759": 46,
        "13760": 12,
        "13761": 102,
        "13762": 105,
        "13763": 51,
        "13764": 8,
        "13765": 57,
        "13766": 122,
        "13767": 19,
        "13768": 234,
        "13769": 229,
        "13770": 123,
        "13771": 122,
        "13772": 133,
        "13773": 85,
        "13774": 180,
        "13775": 182,
        "13776": 80,
        "13777": 224,
        "13778": 165,
        "13779": 72,
        "13780": 200,
        "13781": 58,
        "13782": 30,
        "13783": 195,
        "13784": 151,
        "13785": 206,
        "13786": 224,
        "13787": 64,
        "13788": 62,
        "13789": 90,
        "13790": 88,
        "13791": 202,
        "13792": 15,
        "13793": 247,
        "13794": 134,
        "13795": 108,
        "13796": 215,
        "13797": 215,
        "13798": 139,
        "13799": 190,
        "13800": 130,
        "13801": 47,
        "13802": 249,
        "13803": 242,
        "13804": 6,
        "13805": 205,
        "13806": 100,
        "13807": 102,
        "13808": 91,
        "13809": 41,
        "13810": 50,
        "13811": 77,
        "13812": 35,
        "13813": 136,
        "13814": 11,
        "13815": 60,
        "13816": 176,
        "13817": 191,
        "13818": 95,
        "13819": 140,
        "13820": 38,
        "13821": 61,
        "13822": 25,
        "13823": 135,
        "13824": 157,
        "13825": 217,
        "13826": 201,
        "13827": 154,
        "13828": 37,
        "13829": 209,
        "13830": 196,
        "13831": 187,
        "13832": 219,
        "13833": 221,
        "13834": 75,
        "13835": 158,
        "13836": 250,
        "13837": 109,
        "13838": 51,
        "13839": 13,
        "13840": 118,
        "13841": 191,
        "13842": 101,
        "13843": 162,
        "13844": 196,
        "13845": 27,
        "13846": 43,
        "13847": 161,
        "13848": 140,
        "13849": 178,
        "13850": 169,
        "13851": 204,
        "13852": 82,
        "13853": 148,
        "13854": 176,
        "13855": 205,
        "13856": 44,
        "13857": 54,
        "13858": 197,
        "13859": 173,
        "13860": 167,
        "13861": 150,
        "13862": 131,
        "13863": 34,
        "13864": 47,
        "13865": 202,
        "13866": 39,
        "13867": 161,
        "13868": 205,
        "13869": 2,
        "13870": 181,
        "13871": 183,
        "13872": 53,
        "13873": 200,
        "13874": 3,
        "13875": 60,
        "13876": 91,
        "13877": 57,
        "13878": 12,
        "13879": 91,
        "13880": 196,
        "13881": 0,
        "13882": 143,
        "13883": 240,
        "13884": 1,
        "13885": 220,
        "13886": 234,
        "13887": 143,
        "13888": 114,
        "13889": 204,
        "13890": 148,
        "13891": 252,
        "13892": 103,
        "13893": 24,
        "13894": 87,
        "13895": 246,
        "13896": 201,
        "13897": 6,
        "13898": 182,
        "13899": 162,
        "13900": 128,
        "13901": 112,
        "13902": 197,
        "13903": 167,
        "13904": 81,
        "13905": 159,
        "13906": 204,
        "13907": 230,
        "13908": 80,
        "13909": 246,
        "13910": 80,
        "13911": 47,
        "13912": 189,
        "13913": 87,
        "13914": 43,
        "13915": 180,
        "13916": 157,
        "13917": 3,
        "13918": 19,
        "13919": 254,
        "13920": 242,
        "13921": 27,
        "13922": 188,
        "13923": 196,
        "13924": 47,
        "13925": 17,
        "13926": 172,
        "13927": 41,
        "13928": 118,
        "13929": 128,
        "13930": 99,
        "13931": 195,
        "13932": 219,
        "13933": 95,
        "13934": 194,
        "13935": 67,
        "13936": 225,
        "13937": 25,
        "13938": 189,
        "13939": 103,
        "13940": 81,
        "13941": 141,
        "13942": 12,
        "13943": 168,
        "13944": 119,
        "13945": 58,
        "13946": 98,
        "13947": 239,
        "13948": 102,
        "13949": 178,
        "13950": 185,
        "13951": 30,
        "13952": 90,
        "13953": 89,
        "13954": 159,
        "13955": 253,
        "13956": 89,
        "13957": 122,
        "13958": 249,
        "13959": 77,
        "13960": 111,
        "13961": 124,
        "13962": 58,
        "13963": 68,
        "13964": 172,
        "13965": 118,
        "13966": 202,
        "13967": 175,
        "13968": 7,
        "13969": 144,
        "13970": 184,
        "13971": 40,
        "13972": 214,
        "13973": 52,
        "13974": 202,
        "13975": 163,
        "13976": 33,
        "13977": 130,
        "13978": 38,
        "13979": 27,
        "13980": 154,
        "13981": 67,
        "13982": 22,
        "13983": 151,
        "13984": 196,
        "13985": 248,
        "13986": 42,
        "13987": 79,
        "13988": 238,
        "13989": 135,
        "13990": 128,
        "13991": 16,
        "13992": 4,
        "13993": 3,
        "13994": 225,
        "13995": 247,
        "13996": 252,
        "13997": 112,
        "13998": 78,
        "13999": 242,
        "14000": 164,
        "14001": 253,
        "14002": 55,
        "14003": 37,
        "14004": 40,
        "14005": 135,
        "14006": 214,
        "14007": 67,
        "14008": 128,
        "14009": 4,
        "14010": 98,
        "14011": 44,
        "14012": 91,
        "14013": 223,
        "14014": 55,
        "14015": 204,
        "14016": 48,
        "14017": 183,
        "14018": 242,
        "14019": 220,
        "14020": 130,
        "14021": 109,
        "14022": 206,
        "14023": 226,
        "14024": 212,
        "14025": 68,
        "14026": 113,
        "14027": 119,
        "14028": 218,
        "14029": 187,
        "14030": 20,
        "14031": 62,
        "14032": 135,
        "14033": 2,
        "14034": 9,
        "14035": 22,
        "14036": 74,
        "14037": 210,
        "14038": 243,
        "14039": 57,
        "14040": 127,
        "14041": 50,
        "14042": 13,
        "14043": 129,
        "14044": 46,
        "14045": 47,
        "14046": 101,
        "14047": 231,
        "14048": 20,
        "14049": 135,
        "14050": 253,
        "14051": 206,
        "14052": 201,
        "14053": 149,
        "14054": 219,
        "14055": 219,
        "14056": 53,
        "14057": 49,
        "14058": 225,
        "14059": 154,
        "14060": 81,
        "14061": 207,
        "14062": 191,
        "14063": 72,
        "14064": 2,
        "14065": 247,
        "14066": 230,
        "14067": 170,
        "14068": 46,
        "14069": 209,
        "14070": 242,
        "14071": 67,
        "14072": 122,
        "14073": 167,
        "14074": 212,
        "14075": 86,
        "14076": 220,
        "14077": 174,
        "14078": 188,
        "14079": 104,
        "14080": 108,
        "14081": 65,
        "14082": 253,
        "14083": 234,
        "14084": 177,
        "14085": 98,
        "14086": 168,
        "14087": 86,
        "14088": 63,
        "14089": 66,
        "14090": 244,
        "14091": 164,
        "14092": 61,
        "14093": 209,
        "14094": 10,
        "14095": 109,
        "14096": 193,
        "14097": 118,
        "14098": 53,
        "14099": 172,
        "14100": 44,
        "14101": 111,
        "14102": 27,
        "14103": 222,
        "14104": 28,
        "14105": 57,
        "14106": 247,
        "14107": 75,
        "14108": 21,
        "14109": 61,
        "14110": 129,
        "14111": 38,
        "14112": 241,
        "14113": 127,
        "14114": 249,
        "14115": 96,
        "14116": 24,
        "14117": 233,
        "14118": 151,
        "14119": 52,
        "14120": 15,
        "14121": 142,
        "14122": 180,
        "14123": 37,
        "14124": 166,
        "14125": 68,
        "14126": 7,
        "14127": 167,
        "14128": 218,
        "14129": 189,
        "14130": 234,
        "14131": 215,
        "14132": 176,
        "14133": 235,
        "14134": 124,
        "14135": 34,
        "14136": 103,
        "14137": 106,
        "14138": 218,
        "14139": 57,
        "14140": 237,
        "14141": 199,
        "14142": 48,
        "14143": 38,
        "14144": 49,
        "14145": 168,
        "14146": 52,
        "14147": 144,
        "14148": 208,
        "14149": 132,
        "14150": 99,
        "14151": 56,
        "14152": 37,
        "14153": 158,
        "14154": 204,
        "14155": 132,
        "14156": 112,
        "14157": 232,
        "14158": 55,
        "14159": 1,
        "14160": 223,
        "14161": 82,
        "14162": 184,
        "14163": 13,
        "14164": 211,
        "14165": 94,
        "14166": 204,
        "14167": 66,
        "14168": 73,
        "14169": 85,
        "14170": 161,
        "14171": 205,
        "14172": 75,
        "14173": 218,
        "14174": 113,
        "14175": 240,
        "14176": 59,
        "14177": 172,
        "14178": 166,
        "14179": 83,
        "14180": 100,
        "14181": 81,
        "14182": 105,
        "14183": 127,
        "14184": 20,
        "14185": 106,
        "14186": 24,
        "14187": 224,
        "14188": 0,
        "14189": 97,
        "14190": 244,
        "14191": 108,
        "14192": 248,
        "14193": 69,
        "14194": 246,
        "14195": 201,
        "14196": 97,
        "14197": 252,
        "14198": 193,
        "14199": 64,
        "14200": 97,
        "14201": 23,
        "14202": 121,
        "14203": 228,
        "14204": 89,
        "14205": 4,
        "14206": 86,
        "14207": 157,
        "14208": 18,
        "14209": 30,
        "14210": 147,
        "14211": 138,
        "14212": 122,
        "14213": 249,
        "14214": 17,
        "14215": 81,
        "14216": 116,
        "14217": 187,
        "14218": 18,
        "14219": 235,
        "14220": 112,
        "14221": 192,
        "14222": 19,
        "14223": 167,
        "14224": 187,
        "14225": 140,
        "14226": 97,
        "14227": 107,
        "14228": 1,
        "14229": 222,
        "14230": 192,
        "14231": 173,
        "14232": 214,
        "14233": 220,
        "14234": 5,
        "14235": 20,
        "14236": 49,
        "14237": 248,
        "14238": 74,
        "14239": 131,
        "14240": 157,
        "14241": 9,
        "14242": 120,
        "14243": 247,
        "14244": 125,
        "14245": 131,
        "14246": 86,
        "14247": 214,
        "14248": 107,
        "14249": 203,
        "14250": 118,
        "14251": 190,
        "14252": 132,
        "14253": 153,
        "14254": 33,
        "14255": 9,
        "14256": 210,
        "14257": 221,
        "14258": 59,
        "14259": 28,
        "14260": 252,
        "14261": 113,
        "14262": 11,
        "14263": 26,
        "14264": 65,
        "14265": 25,
        "14266": 79,
        "14267": 181,
        "14268": 106,
        "14269": 155,
        "14270": 55,
        "14271": 81,
        "14272": 162,
        "14273": 122,
        "14274": 165,
        "14275": 135,
        "14276": 228,
        "14277": 134,
        "14278": 53,
        "14279": 66,
        "14280": 152,
        "14281": 219,
        "14282": 101,
        "14283": 148,
        "14284": 241,
        "14285": 243,
        "14286": 126,
        "14287": 78,
        "14288": 138,
        "14289": 142,
        "14290": 170,
        "14291": 219,
        "14292": 231,
        "14293": 238,
        "14294": 158,
        "14295": 4,
        "14296": 87,
        "14297": 234,
        "14298": 50,
        "14299": 37,
        "14300": 183,
        "14301": 66,
        "14302": 169,
        "14303": 199,
        "14304": 72,
        "14305": 140,
        "14306": 246,
        "14307": 210,
        "14308": 152,
        "14309": 99,
        "14310": 87,
        "14311": 0,
        "14312": 118,
        "14313": 117,
        "14314": 134,
        "14315": 124,
        "14316": 98,
        "14317": 231,
        "14318": 207,
        "14319": 40,
        "14320": 200,
        "14321": 66,
        "14322": 123,
        "14323": 7,
        "14324": 206,
        "14325": 189,
        "14326": 61,
        "14327": 83,
        "14328": 144,
        "14329": 250,
        "14330": 94,
        "14331": 101,
        "14332": 177,
        "14333": 196,
        "14334": 167,
        "14335": 155,
        "14336": 60,
        "14337": 210,
        "14338": 143,
        "14339": 184,
        "14340": 16,
        "14341": 74,
        "14342": 149,
        "14343": 33,
        "14344": 40,
        "14345": 65,
        "14346": 88,
        "14347": 151,
        "14348": 83,
        "14349": 110,
        "14350": 26,
        "14351": 45,
        "14352": 9,
        "14353": 204,
        "14354": 10,
        "14355": 78,
        "14356": 88,
        "14357": 228,
        "14358": 72,
        "14359": 232,
        "14360": 190,
        "14361": 248,
        "14362": 70,
        "14363": 139,
        "14364": 124,
        "14365": 108,
        "14366": 193,
        "14367": 33,
        "14368": 77,
        "14369": 134,
        "14370": 51,
        "14371": 208,
        "14372": 216,
        "14373": 36,
        "14374": 103,
        "14375": 240,
        "14376": 5,
        "14377": 208,
        "14378": 137,
        "14379": 74,
        "14380": 0,
        "14381": 226,
        "14382": 61,
        "14383": 142,
        "14384": 108,
        "14385": 226,
        "14386": 141,
        "14387": 211,
        "14388": 144,
        "14389": 11,
        "14390": 22,
        "14391": 4,
        "14392": 135,
        "14393": 67,
        "14394": 127,
        "14395": 145,
        "14396": 238,
        "14397": 154,
        "14398": 202,
        "14399": 132,
        "14400": 27,
        "14401": 17,
        "14402": 137,
        "14403": 103,
        "14404": 161,
        "14405": 70,
        "14406": 133,
        "14407": 58,
        "14408": 254,
        "14409": 33,
        "14410": 176,
        "14411": 124,
        "14412": 51,
        "14413": 33,
        "14414": 107,
        "14415": 89,
        "14416": 208,
        "14417": 157,
        "14418": 130,
        "14419": 176,
        "14420": 81,
        "14421": 32,
        "14422": 11,
        "14423": 170,
        "14424": 253,
        "14425": 11,
        "14426": 210,
        "14427": 171,
        "14428": 51,
        "14429": 131,
        "14430": 210,
        "14431": 198,
        "14432": 202,
        "14433": 255,
        "14434": 93,
        "14435": 13,
        "14436": 15,
        "14437": 204,
        "14438": 254,
        "14439": 59,
        "14440": 193,
        "14441": 144,
        "14442": 100,
        "14443": 123,
        "14444": 140,
        "14445": 229,
        "14446": 255,
        "14447": 37,
        "14448": 249,
        "14449": 33,
        "14450": 241,
        "14451": 66,
        "14452": 44,
        "14453": 34,
        "14454": 151,
        "14455": 188,
        "14456": 148,
        "14457": 245,
        "14458": 224,
        "14459": 94,
        "14460": 138,
        "14461": 109,
        "14462": 245,
        "14463": 29,
        "14464": 37,
        "14465": 137,
        "14466": 219,
        "14467": 93,
        "14468": 221,
        "14469": 101,
        "14470": 140,
        "14471": 116,
        "14472": 177,
        "14473": 196,
        "14474": 197,
        "14475": 141,
        "14476": 228,
        "14477": 114,
        "14478": 212,
        "14479": 117,
        "14480": 31,
        "14481": 129,
        "14482": 108,
        "14483": 183,
        "14484": 115,
        "14485": 144,
        "14486": 67,
        "14487": 125,
        "14488": 150,
        "14489": 44,
        "14490": 10,
        "14491": 8,
        "14492": 244,
        "14493": 221,
        "14494": 190,
        "14495": 182,
        "14496": 118,
        "14497": 27,
        "14498": 189,
        "14499": 198,
        "14500": 77,
        "14501": 64,
        "14502": 180,
        "14503": 219,
        "14504": 170,
        "14505": 30,
        "14506": 102,
        "14507": 230,
        "14508": 59,
        "14509": 73,
        "14510": 250,
        "14511": 196,
        "14512": 231,
        "14513": 36,
        "14514": 34,
        "14515": 0,
        "14516": 228,
        "14517": 119,
        "14518": 5,
        "14519": 79,
        "14520": 51,
        "14521": 85,
        "14522": 18,
        "14523": 45,
        "14524": 189,
        "14525": 7,
        "14526": 189,
        "14527": 165,
        "14528": 117,
        "14529": 74,
        "14530": 12,
        "14531": 196,
        "14532": 9,
        "14533": 30,
        "14534": 6,
        "14535": 202,
        "14536": 153,
        "14537": 27,
        "14538": 71,
        "14539": 230,
        "14540": 61,
        "14541": 25,
        "14542": 193,
        "14543": 13,
        "14544": 49,
        "14545": 181,
        "14546": 70,
        "14547": 16,
        "14548": 176,
        "14549": 209,
        "14550": 55,
        "14551": 54,
        "14552": 191,
        "14553": 16,
        "14554": 137,
        "14555": 97,
        "14556": 246,
        "14557": 155,
        "14558": 15,
        "14559": 160,
        "14560": 184,
        "14561": 123,
        "14562": 218,
        "14563": 74,
        "14564": 171,
        "14565": 164,
        "14566": 126,
        "14567": 182,
        "14568": 0,
        "14569": 91,
        "14570": 213,
        "14571": 161,
        "14572": 228,
        "14573": 52,
        "14574": 97,
        "14575": 105,
        "14576": 236,
        "14577": 122,
        "14578": 163,
        "14579": 230,
        "14580": 188,
        "14581": 145,
        "14582": 77,
        "14583": 54,
        "14584": 58,
        "14585": 250,
        "14586": 187,
        "14587": 115,
        "14588": 146,
        "14589": 107,
        "14590": 95,
        "14591": 237,
        "14592": 106,
        "14593": 86,
        "14594": 94,
        "14595": 35,
        "14596": 200,
        "14597": 6,
        "14598": 60,
        "14599": 76,
        "14600": 11,
        "14601": 186,
        "14602": 5,
        "14603": 131,
        "14604": 193,
        "14605": 231,
        "14606": 223,
        "14607": 152,
        "14608": 227,
        "14609": 210,
        "14610": 34,
        "14611": 213,
        "14612": 227,
        "14613": 10,
        "14614": 99,
        "14615": 8,
        "14616": 75,
        "14617": 230,
        "14618": 241,
        "14619": 136,
        "14620": 126,
        "14621": 31,
        "14622": 231,
        "14623": 26,
        "14624": 21,
        "14625": 86,
        "14626": 73,
        "14627": 74,
        "14628": 188,
        "14629": 211,
        "14630": 65,
        "14631": 227,
        "14632": 89,
        "14633": 91,
        "14634": 233,
        "14635": 165,
        "14636": 159,
        "14637": 209,
        "14638": 195,
        "14639": 155,
        "14640": 148,
        "14641": 53,
        "14642": 242,
        "14643": 224,
        "14644": 236,
        "14645": 31,
        "14646": 239,
        "14647": 132,
        "14648": 170,
        "14649": 38,
        "14650": 41,
        "14651": 113,
        "14652": 3,
        "14653": 136,
        "14654": 211,
        "14655": 222,
        "14656": 168,
        "14657": 255,
        "14658": 204,
        "14659": 155,
        "14660": 197,
        "14661": 126,
        "14662": 159,
        "14663": 250,
        "14664": 130,
        "14665": 149,
        "14666": 243,
        "14667": 31,
        "14668": 73,
        "14669": 204,
        "14670": 55,
        "14671": 122,
        "14672": 28,
        "14673": 245,
        "14674": 49,
        "14675": 90,
        "14676": 255,
        "14677": 99,
        "14678": 1,
        "14679": 232,
        "14680": 4,
        "14681": 140,
        "14682": 197,
        "14683": 218,
        "14684": 188,
        "14685": 75,
        "14686": 221,
        "14687": 252,
        "14688": 3,
        "14689": 156,
        "14690": 119,
        "14691": 117,
        "14692": 143,
        "14693": 198,
        "14694": 159,
        "14695": 5,
        "14696": 167,
        "14697": 247,
        "14698": 67,
        "14699": 11,
        "14700": 15,
        "14701": 13,
        "14702": 117,
        "14703": 10,
        "14704": 208,
        "14705": 58,
        "14706": 66,
        "14707": 0,
        "14708": 54,
        "14709": 80,
        "14710": 244,
        "14711": 42,
        "14712": 233,
        "14713": 102,
        "14714": 123,
        "14715": 208,
        "14716": 105,
        "14717": 115,
        "14718": 73,
        "14719": 50,
        "14720": 209,
        "14721": 219,
        "14722": 242,
        "14723": 160,
        "14724": 202,
        "14725": 37,
        "14726": 176,
        "14727": 223,
        "14728": 173,
        "14729": 23,
        "14730": 100,
        "14731": 80,
        "14732": 78,
        "14733": 139,
        "14734": 150,
        "14735": 16,
        "14736": 101,
        "14737": 18,
        "14738": 189,
        "14739": 156,
        "14740": 95,
        "14741": 244,
        "14742": 239,
        "14743": 50,
        "14744": 26,
        "14745": 214,
        "14746": 243,
        "14747": 140,
        "14748": 105,
        "14749": 89,
        "14750": 182,
        "14751": 169,
        "14752": 195,
        "14753": 229,
        "14754": 8,
        "14755": 161,
        "14756": 30,
        "14757": 116,
        "14758": 30,
        "14759": 65,
        "14760": 154,
        "14761": 246,
        "14762": 201,
        "14763": 227,
        "14764": 96,
        "14765": 223,
        "14766": 113,
        "14767": 166,
        "14768": 199,
        "14769": 176,
        "14770": 247,
        "14771": 25,
        "14772": 45,
        "14773": 165,
        "14774": 193,
        "14775": 228,
        "14776": 47,
        "14777": 251,
        "14778": 92,
        "14779": 174,
        "14780": 8,
        "14781": 177,
        "14782": 248,
        "14783": 217,
        "14784": 233,
        "14785": 119,
        "14786": 193,
        "14787": 59,
        "14788": 211,
        "14789": 238,
        "14790": 4,
        "14791": 174,
        "14792": 31,
        "14793": 156,
        "14794": 215,
        "14795": 184,
        "14796": 171,
        "14797": 84,
        "14798": 28,
        "14799": 117,
        "14800": 53,
        "14801": 42,
        "14802": 110,
        "14803": 234,
        "14804": 51,
        "14805": 186,
        "14806": 109,
        "14807": 8,
        "14808": 236,
        "14809": 203,
        "14810": 158,
        "14811": 221,
        "14812": 18,
        "14813": 58,
        "14814": 149,
        "14815": 211,
        "14816": 10,
        "14817": 90,
        "14818": 241,
        "14819": 85,
        "14820": 110,
        "14821": 220,
        "14822": 254,
        "14823": 192,
        "14824": 238,
        "14825": 37,
        "14826": 37,
        "14827": 123,
        "14828": 90,
        "14829": 234,
        "14830": 198,
        "14831": 142,
        "14832": 169,
        "14833": 83,
        "14834": 185,
        "14835": 173,
        "14836": 104,
        "14837": 73,
        "14838": 130,
        "14839": 110,
        "14840": 205,
        "14841": 230,
        "14842": 125,
        "14843": 104,
        "14844": 235,
        "14845": 203,
        "14846": 109,
        "14847": 191,
        "14848": 205,
        "14849": 87,
        "14850": 26,
        "14851": 88,
        "14852": 210,
        "14853": 27,
        "14854": 221,
        "14855": 143,
        "14856": 40,
        "14857": 91,
        "14858": 104,
        "14859": 201,
        "14860": 14,
        "14861": 236,
        "14862": 51,
        "14863": 143,
        "14864": 133,
        "14865": 228,
        "14866": 26,
        "14867": 33,
        "14868": 222,
        "14869": 66,
        "14870": 50,
        "14871": 79,
        "14872": 96,
        "14873": 176,
        "14874": 194,
        "14875": 2,
        "14876": 38,
        "14877": 10,
        "14878": 209,
        "14879": 136,
        "14880": 59,
        "14881": 205,
        "14882": 123,
        "14883": 225,
        "14884": 165,
        "14885": 155,
        "14886": 86,
        "14887": 86,
        "14888": 238,
        "14889": 132,
        "14890": 56,
        "14891": 49,
        "14892": 200,
        "14893": 33,
        "14894": 95,
        "14895": 68,
        "14896": 194,
        "14897": 111,
        "14898": 81,
        "14899": 35,
        "14900": 29,
        "14901": 97,
        "14902": 28,
        "14903": 151,
        "14904": 28,
        "14905": 73,
        "14906": 229,
        "14907": 120,
        "14908": 192,
        "14909": 229,
        "14910": 230,
        "14911": 63,
        "14912": 47,
        "14913": 224,
        "14914": 22,
        "14915": 107,
        "14916": 8,
        "14917": 31,
        "14918": 44,
        "14919": 222,
        "14920": 221,
        "14921": 214,
        "14922": 182,
        "14923": 221,
        "14924": 52,
        "14925": 142,
        "14926": 18,
        "14927": 86,
        "14928": 88,
        "14929": 102,
        "14930": 229,
        "14931": 49,
        "14932": 94,
        "14933": 173,
        "14934": 164,
        "14935": 245,
        "14936": 186,
        "14937": 42,
        "14938": 206,
        "14939": 129,
        "14940": 89,
        "14941": 235,
        "14942": 50,
        "14943": 229,
        "14944": 245,
        "14945": 37,
        "14946": 239,
        "14947": 254,
        "14948": 137,
        "14949": 51,
        "14950": 179,
        "14951": 153,
        "14952": 105,
        "14953": 209,
        "14954": 29,
        "14955": 56,
        "14956": 246,
        "14957": 198,
        "14958": 250,
        "14959": 132,
        "14960": 43,
        "14961": 201,
        "14962": 105,
        "14963": 252,
        "14964": 128,
        "14965": 228,
        "14966": 53,
        "14967": 98,
        "14968": 217,
        "14969": 137,
        "14970": 207,
        "14971": 54,
        "14972": 123,
        "14973": 118,
        "14974": 79,
        "14975": 206,
        "14976": 131,
        "14977": 52,
        "14978": 213,
        "14979": 153,
        "14980": 139,
        "14981": 93,
        "14982": 100,
        "14983": 31,
        "14984": 192,
        "14985": 170,
        "14986": 146,
        "14987": 230,
        "14988": 213,
        "14989": 3,
        "14990": 0,
        "14991": 124,
        "14992": 247,
        "14993": 107,
        "14994": 69,
        "14995": 3,
        "14996": 86,
        "14997": 217,
        "14998": 227,
        "14999": 31,
        "15000": 252,
        "15001": 49,
        "15002": 101,
        "15003": 106,
        "15004": 90,
        "15005": 75,
        "15006": 0,
        "15007": 75,
        "15008": 233,
        "15009": 35,
        "15010": 72,
        "15011": 168,
        "15012": 12,
        "15013": 196,
        "15014": 169,
        "15015": 138,
        "15016": 33,
        "15017": 149,
        "15018": 155,
        "15019": 152,
        "15020": 69,
        "15021": 246,
        "15022": 184,
        "15023": 12,
        "15024": 126,
        "15025": 6,
        "15026": 7,
        "15027": 154,
        "15028": 217,
        "15029": 235,
        "15030": 162,
        "15031": 123,
        "15032": 101,
        "15033": 89,
        "15034": 11,
        "15035": 105,
        "15036": 97,
        "15037": 235,
        "15038": 65,
        "15039": 239,
        "15040": 111,
        "15041": 40,
        "15042": 250,
        "15043": 236,
        "15044": 124,
        "15045": 156,
        "15046": 201,
        "15047": 9,
        "15048": 32,
        "15049": 148,
        "15050": 146,
        "15051": 181,
        "15052": 113,
        "15053": 216,
        "15054": 231,
        "15055": 201,
        "15056": 146,
        "15057": 59,
        "15058": 73,
        "15059": 177,
        "15060": 1,
        "15061": 113,
        "15062": 128,
        "15063": 248,
        "15064": 176,
        "15065": 61,
        "15066": 99,
        "15067": 218,
        "15068": 252,
        "15069": 9,
        "15070": 130,
        "15071": 22,
        "15072": 160,
        "15073": 114,
        "15074": 223,
        "15075": 234,
        "15076": 154,
        "15077": 46,
        "15078": 119,
        "15079": 51,
        "15080": 190,
        "15081": 188,
        "15082": 149,
        "15083": 212,
        "15084": 208,
        "15085": 194,
        "15086": 115,
        "15087": 47,
        "15088": 40,
        "15089": 255,
        "15090": 224,
        "15091": 151,
        "15092": 215,
        "15093": 72,
        "15094": 4,
        "15095": 26,
        "15096": 133,
        "15097": 174,
        "15098": 215,
        "15099": 185,
        "15100": 159,
        "15101": 157,
        "15102": 11,
        "15103": 208,
        "15104": 0,
        "15105": 248,
        "15106": 147,
        "15107": 194,
        "15108": 40,
        "15109": 171,
        "15110": 52,
        "15111": 81,
        "15112": 243,
        "15113": 130,
        "15114": 78,
        "15115": 29,
        "15116": 22,
        "15117": 247,
        "15118": 169,
        "15119": 238,
        "15120": 100,
        "15121": 61,
        "15122": 108,
        "15123": 181,
        "15124": 152,
        "15125": 30,
        "15126": 128,
        "15127": 202,
        "15128": 189,
        "15129": 115,
        "15130": 106,
        "15131": 115,
        "15132": 142,
        "15133": 61,
        "15134": 26,
        "15135": 235,
        "15136": 254,
        "15137": 59,
        "15138": 187,
        "15139": 133,
        "15140": 98,
        "15141": 156,
        "15142": 130,
        "15143": 230,
        "15144": 98,
        "15145": 199,
        "15146": 94,
        "15147": 253,
        "15148": 124,
        "15149": 179,
        "15150": 70,
        "15151": 170,
        "15152": 167,
        "15153": 83,
        "15154": 7,
        "15155": 158,
        "15156": 207,
        "15157": 107,
        "15158": 1,
        "15159": 186,
        "15160": 133,
        "15161": 11,
        "15162": 141,
        "15163": 231,
        "15164": 242,
        "15165": 62,
        "15166": 69,
        "15167": 197,
        "15168": 241,
        "15169": 9,
        "15170": 66,
        "15171": 245,
        "15172": 12,
        "15173": 122,
        "15174": 41,
        "15175": 101,
        "15176": 209,
        "15177": 225,
        "15178": 68,
        "15179": 211,
        "15180": 164,
        "15181": 33,
        "15182": 226,
        "15183": 172,
        "15184": 170,
        "15185": 75,
        "15186": 13,
        "15187": 35,
        "15188": 58,
        "15189": 117,
        "15190": 150,
        "15191": 74,
        "15192": 181,
        "15193": 126,
        "15194": 237,
        "15195": 177,
        "15196": 232,
        "15197": 103,
        "15198": 201,
        "15199": 244,
        "15200": 152,
        "15201": 200,
        "15202": 119,
        "15203": 250,
        "15204": 42,
        "15205": 230,
        "15206": 8,
        "15207": 132,
        "15208": 60,
        "15209": 244,
        "15210": 253,
        "15211": 11,
        "15212": 14,
        "15213": 169,
        "15214": 75,
        "15215": 90,
        "15216": 62,
        "15217": 38,
        "15218": 58,
        "15219": 255,
        "15220": 218,
        "15221": 188,
        "15222": 8,
        "15223": 166,
        "15224": 144,
        "15225": 224,
        "15226": 231,
        "15227": 51,
        "15228": 128,
        "15229": 24,
        "15230": 45,
        "15231": 166,
        "15232": 206,
        "15233": 193,
        "15234": 230,
        "15235": 220,
        "15236": 16,
        "15237": 0,
        "15238": 250,
        "15239": 251,
        "15240": 6,
        "15241": 141,
        "15242": 7,
        "15243": 34,
        "15244": 56,
        "15245": 237,
        "15246": 65,
        "15247": 238,
        "15248": 24,
        "15249": 141,
        "15250": 74,
        "15251": 128,
        "15252": 176,
        "15253": 231,
        "15254": 176,
        "15255": 228,
        "15256": 43,
        "15257": 219,
        "15258": 177,
        "15259": 23,
        "15260": 154,
        "15261": 29,
        "15262": 176,
        "15263": 36,
        "15264": 123,
        "15265": 106,
        "15266": 136,
        "15267": 120,
        "15268": 127,
        "15269": 106,
        "15270": 67,
        "15271": 2,
        "15272": 189,
        "15273": 150,
        "15274": 147,
        "15275": 236,
        "15276": 42,
        "15277": 241,
        "15278": 159,
        "15279": 52,
        "15280": 156,
        "15281": 21,
        "15282": 40,
        "15283": 131,
        "15284": 6,
        "15285": 21,
        "15286": 88,
        "15287": 108,
        "15288": 9,
        "15289": 0,
        "15290": 157,
        "15291": 246,
        "15292": 142,
        "15293": 95,
        "15294": 161,
        "15295": 68,
        "15296": 50,
        "15297": 198,
        "15298": 77,
        "15299": 169,
        "15300": 158,
        "15301": 36,
        "15302": 30,
        "15303": 93,
        "15304": 2,
        "15305": 8,
        "15306": 220,
        "15307": 176,
        "15308": 116,
        "15309": 93,
        "15310": 166,
        "15311": 107,
        "15312": 172,
        "15313": 115,
        "15314": 223,
        "15315": 63,
        "15316": 62,
        "15317": 252,
        "15318": 197,
        "15319": 205,
        "15320": 114,
        "15321": 58,
        "15322": 233,
        "15323": 59,
        "15324": 9,
        "15325": 153,
        "15326": 128,
        "15327": 119,
        "15328": 230,
        "15329": 0,
        "15330": 155,
        "15331": 170,
        "15332": 130,
        "15333": 44,
        "15334": 5,
        "15335": 64,
        "15336": 85,
        "15337": 47,
        "15338": 68,
        "15339": 26,
        "15340": 136,
        "15341": 133,
        "15342": 138,
        "15343": 64,
        "15344": 178,
        "15345": 148,
        "15346": 126,
        "15347": 188,
        "15348": 160,
        "15349": 163,
        "15350": 202,
        "15351": 118,
        "15352": 240,
        "15353": 242,
        "15354": 231,
        "15355": 161,
        "15356": 175,
        "15357": 95,
        "15358": 193,
        "15359": 187,
        "15360": 188,
        "15361": 153,
        "15362": 148,
        "15363": 5,
        "15364": 169,
        "15365": 201,
        "15366": 88,
        "15367": 91,
        "15368": 55,
        "15369": 55,
        "15370": 127,
        "15371": 46,
        "15372": 149,
        "15373": 171,
        "15374": 168,
        "15375": 195,
        "15376": 135,
        "15377": 234,
        "15378": 200,
        "15379": 205,
        "15380": 98,
        "15381": 241,
        "15382": 152,
        "15383": 221,
        "15384": 199,
        "15385": 4,
        "15386": 147,
        "15387": 163,
        "15388": 106,
        "15389": 217,
        "15390": 183,
        "15391": 76,
        "15392": 168,
        "15393": 31,
        "15394": 195,
        "15395": 70,
        "15396": 48,
        "15397": 58,
        "15398": 184,
        "15399": 93,
        "15400": 82,
        "15401": 109,
        "15402": 97,
        "15403": 152,
        "15404": 81,
        "15405": 47,
        "15406": 191,
        "15407": 131,
        "15408": 146,
        "15409": 146,
        "15410": 87,
        "15411": 18,
        "15412": 7,
        "15413": 124,
        "15414": 167,
        "15415": 224,
        "15416": 189,
        "15417": 242,
        "15418": 5,
        "15419": 10,
        "15420": 47,
        "15421": 113,
        "15422": 95,
        "15423": 227,
        "15424": 98,
        "15425": 235,
        "15426": 106,
        "15427": 48,
        "15428": 194,
        "15429": 249,
        "15430": 146,
        "15431": 232,
        "15432": 14,
        "15433": 71,
        "15434": 142,
        "15435": 16,
        "15436": 54,
        "15437": 98,
        "15438": 7,
        "15439": 101,
        "15440": 137,
        "15441": 226,
        "15442": 91,
        "15443": 38,
        "15444": 48,
        "15445": 148,
        "15446": 126,
        "15447": 169,
        "15448": 103,
        "15449": 94,
        "15450": 231,
        "15451": 179,
        "15452": 107,
        "15453": 160,
        "15454": 185,
        "15455": 48,
        "15456": 85,
        "15457": 78,
        "15458": 74,
        "15459": 51,
        "15460": 213,
        "15461": 48,
        "15462": 106,
        "15463": 70,
        "15464": 212,
        "15465": 248,
        "15466": 227,
        "15467": 100,
        "15468": 95,
        "15469": 213,
        "15470": 167,
        "15471": 148,
        "15472": 61,
        "15473": 67,
        "15474": 108,
        "15475": 197,
        "15476": 85,
        "15477": 167,
        "15478": 135,
        "15479": 140,
        "15480": 134,
        "15481": 48,
        "15482": 252,
        "15483": 57,
        "15484": 78,
        "15485": 235,
        "15486": 163,
        "15487": 250,
        "15488": 8,
        "15489": 60,
        "15490": 163,
        "15491": 62,
        "15492": 245,
        "15493": 2,
        "15494": 239,
        "15495": 127,
        "15496": 202,
        "15497": 227,
        "15498": 188,
        "15499": 100,
        "15500": 238,
        "15501": 96,
        "15502": 180,
        "15503": 197,
        "15504": 90,
        "15505": 31,
        "15506": 15,
        "15507": 100,
        "15508": 136,
        "15509": 113,
        "15510": 110,
        "15511": 141,
        "15512": 117,
        "15513": 106,
        "15514": 146,
        "15515": 136,
        "15516": 214,
        "15517": 188,
        "15518": 61,
        "15519": 112,
        "15520": 47,
        "15521": 190,
        "15522": 29,
        "15523": 101,
        "15524": 93,
        "15525": 56,
        "15526": 177,
        "15527": 145,
        "15528": 250,
        "15529": 12,
        "15530": 58,
        "15531": 40,
        "15532": 176,
        "15533": 220,
        "15534": 195,
        "15535": 29,
        "15536": 135,
        "15537": 41,
        "15538": 14,
        "15539": 90,
        "15540": 136,
        "15541": 111,
        "15542": 215,
        "15543": 203,
        "15544": 97,
        "15545": 165,
        "15546": 106,
        "15547": 139,
        "15548": 198,
        "15549": 148,
        "15550": 99,
        "15551": 206,
        "15552": 14,
        "15553": 99,
        "15554": 8,
        "15555": 35,
        "15556": 124,
        "15557": 138,
        "15558": 6,
        "15559": 63,
        "15560": 229,
        "15561": 27,
        "15562": 103,
        "15563": 229,
        "15564": 161,
        "15565": 227,
        "15566": 236,
        "15567": 19,
        "15568": 5,
        "15569": 61,
        "15570": 176,
        "15571": 134,
        "15572": 158,
        "15573": 120,
        "15574": 204,
        "15575": 220,
        "15576": 194,
        "15577": 127,
        "15578": 177,
        "15579": 187,
        "15580": 217,
        "15581": 67,
        "15582": 83,
        "15583": 89,
        "15584": 207,
        "15585": 191,
        "15586": 243,
        "15587": 97,
        "15588": 28,
        "15589": 16,
        "15590": 210,
        "15591": 227,
        "15592": 187,
        "15593": 137,
        "15594": 87,
        "15595": 179,
        "15596": 13,
        "15597": 186,
        "15598": 49,
        "15599": 108,
        "15600": 133,
        "15601": 91,
        "15602": 204,
        "15603": 238,
        "15604": 3,
        "15605": 54,
        "15606": 135,
        "15607": 88,
        "15608": 150,
        "15609": 225,
        "15610": 229,
        "15611": 184,
        "15612": 107,
        "15613": 111,
        "15614": 208,
        "15615": 117,
        "15616": 171,
        "15617": 213,
        "15618": 15,
        "15619": 202,
        "15620": 169,
        "15621": 119,
        "15622": 129,
        "15623": 149,
        "15624": 188,
        "15625": 222,
        "15626": 51,
        "15627": 29,
        "15628": 12,
        "15629": 124,
        "15630": 28,
        "15631": 124,
        "15632": 223,
        "15633": 223,
        "15634": 92,
        "15635": 151,
        "15636": 231,
        "15637": 248,
        "15638": 169,
        "15639": 164,
        "15640": 14,
        "15641": 202,
        "15642": 187,
        "15643": 245,
        "15644": 128,
        "15645": 241,
        "15646": 36,
        "15647": 232,
        "15648": 123,
        "15649": 244,
        "15650": 231,
        "15651": 199,
        "15652": 63,
        "15653": 242,
        "15654": 66,
        "15655": 32,
        "15656": 209,
        "15657": 178,
        "15658": 16,
        "15659": 30,
        "15660": 87,
        "15661": 123,
        "15662": 219,
        "15663": 222,
        "15664": 151,
        "15665": 103,
        "15666": 68,
        "15667": 213,
        "15668": 184,
        "15669": 139,
        "15670": 250,
        "15671": 175,
        "15672": 1,
        "15673": 16,
        "15674": 85,
        "15675": 132,
        "15676": 25,
        "15677": 179,
        "15678": 144,
        "15679": 228,
        "15680": 190,
        "15681": 216,
        "15682": 167,
        "15683": 198,
        "15684": 196,
        "15685": 50,
        "15686": 233,
        "15687": 195,
        "15688": 48,
        "15689": 95,
        "15690": 34,
        "15691": 131,
        "15692": 19,
        "15693": 255,
        "15694": 30,
        "15695": 203,
        "15696": 178,
        "15697": 89,
        "15698": 219,
        "15699": 113,
        "15700": 218,
        "15701": 253,
        "15702": 1,
        "15703": 3,
        "15704": 77,
        "15705": 55,
        "15706": 109,
        "15707": 241,
        "15708": 233,
        "15709": 60,
        "15710": 62,
        "15711": 163,
        "15712": 96,
        "15713": 148,
        "15714": 36,
        "15715": 235,
        "15716": 101,
        "15717": 13,
        "15718": 3,
        "15719": 70,
        "15720": 170,
        "15721": 202,
        "15722": 232,
        "15723": 173,
        "15724": 165,
        "15725": 216,
        "15726": 171,
        "15727": 19,
        "15728": 124,
        "15729": 134,
        "15730": 68,
        "15731": 157,
        "15732": 47,
        "15733": 115,
        "15734": 159,
        "15735": 232,
        "15736": 65,
        "15737": 86,
        "15738": 198,
        "15739": 222,
        "15740": 233,
        "15741": 208,
        "15742": 44,
        "15743": 57,
        "15744": 99,
        "15745": 49,
        "15746": 248,
        "15747": 208,
        "15748": 165,
        "15749": 203,
        "15750": 219,
        "15751": 99,
        "15752": 217,
        "15753": 152,
        "15754": 120,
        "15755": 228,
        "15756": 205,
        "15757": 53,
        "15758": 34,
        "15759": 60,
        "15760": 41,
        "15761": 255,
        "15762": 132,
        "15763": 199,
        "15764": 94,
        "15765": 23,
        "15766": 16,
        "15767": 131,
        "15768": 67,
        "15769": 124,
        "15770": 108,
        "15771": 64,
        "15772": 87,
        "15773": 112,
        "15774": 7,
        "15775": 122,
        "15776": 191,
        "15777": 96,
        "15778": 162,
        "15779": 162,
        "15780": 121,
        "15781": 209,
        "15782": 66,
        "15783": 67,
        "15784": 34,
        "15785": 31,
        "15786": 206,
        "15787": 40,
        "15788": 221,
        "15789": 5,
        "15790": 157,
        "15791": 46,
        "15792": 185,
        "15793": 203,
        "15794": 211,
        "15795": 225,
        "15796": 49,
        "15797": 71,
        "15798": 52,
        "15799": 152,
        "15800": 236,
        "15801": 48,
        "15802": 13,
        "15803": 19,
        "15804": 138,
        "15805": 119,
        "15806": 96,
        "15807": 225,
        "15808": 52,
        "15809": 163,
        "15810": 194,
        "15811": 123,
        "15812": 101,
        "15813": 169,
        "15814": 149,
        "15815": 211,
        "15816": 51,
        "15817": 42,
        "15818": 85,
        "15819": 131,
        "15820": 79,
        "15821": 178,
        "15822": 186,
        "15823": 113,
        "15824": 167,
        "15825": 138,
        "15826": 206,
        "15827": 21,
        "15828": 69,
        "15829": 8,
        "15830": 94,
        "15831": 176,
        "15832": 32,
        "15833": 129,
        "15834": 110,
        "15835": 64,
        "15836": 94,
        "15837": 173,
        "15838": 254,
        "15839": 182,
        "15840": 23,
        "15841": 239,
        "15842": 187,
        "15843": 76,
        "15844": 184,
        "15845": 136,
        "15846": 48,
        "15847": 247,
        "15848": 65,
        "15849": 37,
        "15850": 52,
        "15851": 237,
        "15852": 34,
        "15853": 235,
        "15854": 77,
        "15855": 65,
        "15856": 122,
        "15857": 134,
        "15858": 119,
        "15859": 34,
        "15860": 231,
        "15861": 154,
        "15862": 81,
        "15863": 125,
        "15864": 4,
        "15865": 221,
        "15866": 240,
        "15867": 167,
        "15868": 78,
        "15869": 245,
        "15870": 237,
        "15871": 90,
        "15872": 209,
        "15873": 154,
        "15874": 183,
        "15875": 228,
        "15876": 73,
        "15877": 20,
        "15878": 143,
        "15879": 167,
        "15880": 173,
        "15881": 221,
        "15882": 215,
        "15883": 163,
        "15884": 168,
        "15885": 215,
        "15886": 216,
        "15887": 110,
        "15888": 210,
        "15889": 102,
        "15890": 224,
        "15891": 132,
        "15892": 120,
        "15893": 26,
        "15894": 170,
        "15895": 39,
        "15896": 24,
        "15897": 177,
        "15898": 222,
        "15899": 218,
        "15900": 119,
        "15901": 183,
        "15902": 75,
        "15903": 145,
        "15904": 109,
        "15905": 212,
        "15906": 55,
        "15907": 172,
        "15908": 235,
        "15909": 128,
        "15910": 167,
        "15911": 206,
        "15912": 142,
        "15913": 135,
        "15914": 51,
        "15915": 103,
        "15916": 144,
        "15917": 198,
        "15918": 50,
        "15919": 119,
        "15920": 178,
        "15921": 193,
        "15922": 17,
        "15923": 207,
        "15924": 136,
        "15925": 249,
        "15926": 36,
        "15927": 131,
        "15928": 151,
        "15929": 100,
        "15930": 54,
        "15931": 225,
        "15932": 13,
        "15933": 130,
        "15934": 46,
        "15935": 52,
        "15936": 0,
        "15937": 146,
        "15938": 107,
        "15939": 19,
        "15940": 206,
        "15941": 68,
        "15942": 8,
        "15943": 15,
        "15944": 96,
        "15945": 253,
        "15946": 226,
        "15947": 92,
        "15948": 68,
        "15949": 127,
        "15950": 11,
        "15951": 8,
        "15952": 124,
        "15953": 28,
        "15954": 59,
        "15955": 17,
        "15956": 248,
        "15957": 74,
        "15958": 97,
        "15959": 159,
        "15960": 122,
        "15961": 204,
        "15962": 77,
        "15963": 241,
        "15964": 40,
        "15965": 75,
        "15966": 239,
        "15967": 134,
        "15968": 236,
        "15969": 20,
        "15970": 224,
        "15971": 140,
        "15972": 10,
        "15973": 82,
        "15974": 49,
        "15975": 6,
        "15976": 129,
        "15977": 51,
        "15978": 178,
        "15979": 139,
        "15980": 80,
        "15981": 241,
        "15982": 1,
        "15983": 248,
        "15984": 144,
        "15985": 23,
        "15986": 99,
        "15987": 65,
        "15988": 213,
        "15989": 200,
        "15990": 161,
        "15991": 47,
        "15992": 66,
        "15993": 88,
        "15994": 156,
        "15995": 177,
        "15996": 188,
        "15997": 27,
        "15998": 181,
        "15999": 184,
        "16000": 10,
        "16001": 31,
        "16002": 254,
        "16003": 184,
        "16004": 110,
        "16005": 41,
        "16006": 208,
        "16007": 23,
        "16008": 127,
        "16009": 118,
        "16010": 107,
        "16011": 204,
        "16012": 40,
        "16013": 12,
        "16014": 84,
        "16015": 116,
        "16016": 200,
        "16017": 187,
        "16018": 60,
        "16019": 65,
        "16020": 148,
        "16021": 16,
        "16022": 99,
        "16023": 188,
        "16024": 46,
        "16025": 115,
        "16026": 188,
        "16027": 99,
        "16028": 252,
        "16029": 168,
        "16030": 27,
        "16031": 107,
        "16032": 249,
        "16033": 245,
        "16034": 240,
        "16035": 255,
        "16036": 16,
        "16037": 250,
        "16038": 3,
        "16039": 100,
        "16040": 186,
        "16041": 161,
        "16042": 109,
        "16043": 165,
        "16044": 207,
        "16045": 83,
        "16046": 175,
        "16047": 187,
        "16048": 255,
        "16049": 149,
        "16050": 67,
        "16051": 47,
        "16052": 130,
        "16053": 155,
        "16054": 161,
        "16055": 27,
        "16056": 100,
        "16057": 61,
        "16058": 91,
        "16059": 20,
        "16060": 132,
        "16061": 123,
        "16062": 17,
        "16063": 8,
        "16064": 215,
        "16065": 148,
        "16066": 14,
        "16067": 55,
        "16068": 214,
        "16069": 59,
        "16070": 48,
        "16071": 106,
        "16072": 171,
        "16073": 84,
        "16074": 116,
        "16075": 113,
        "16076": 102,
        "16077": 127,
        "16078": 120,
        "16079": 114,
        "16080": 99,
        "16081": 32,
        "16082": 193,
        "16083": 99,
        "16084": 205,
        "16085": 174,
        "16086": 15,
        "16087": 237,
        "16088": 122,
        "16089": 22,
        "16090": 10,
        "16091": 121,
        "16092": 215,
        "16093": 94,
        "16094": 12,
        "16095": 188,
        "16096": 233,
        "16097": 138,
        "16098": 67,
        "16099": 34,
        "16100": 144,
        "16101": 217,
        "16102": 246,
        "16103": 205,
        "16104": 160,
        "16105": 93,
        "16106": 179,
        "16107": 174,
        "16108": 206,
        "16109": 224,
        "16110": 68,
        "16111": 222,
        "16112": 39,
        "16113": 181,
        "16114": 207,
        "16115": 183,
        "16116": 182,
        "16117": 76,
        "16118": 88,
        "16119": 185,
        "16120": 27,
        "16121": 94,
        "16122": 222,
        "16123": 67,
        "16124": 176,
        "16125": 105,
        "16126": 132,
        "16127": 121,
        "16128": 60,
        "16129": 3,
        "16130": 91,
        "16131": 252,
        "16132": 57,
        "16133": 108,
        "16134": 155,
        "16135": 162,
        "16136": 109,
        "16137": 81,
        "16138": 95,
        "16139": 144,
        "16140": 175,
        "16141": 88,
        "16142": 86,
        "16143": 183,
        "16144": 108,
        "16145": 238,
        "16146": 95,
        "16147": 228,
        "16148": 24,
        "16149": 129,
        "16150": 15,
        "16151": 19,
        "16152": 180,
        "16153": 38,
        "16154": 47,
        "16155": 209,
        "16156": 85,
        "16157": 115,
        "16158": 80,
        "16159": 192,
        "16160": 204,
        "16161": 178,
        "16162": 150,
        "16163": 137,
        "16164": 107,
        "16165": 170,
        "16166": 105,
        "16167": 27,
        "16168": 76,
        "16169": 215,
        "16170": 23,
        "16171": 146,
        "16172": 126,
        "16173": 241,
        "16174": 249,
        "16175": 53,
        "16176": 33,
        "16177": 33,
        "16178": 85,
        "16179": 244,
        "16180": 31,
        "16181": 138,
        "16182": 248,
        "16183": 81,
        "16184": 246,
        "16185": 67,
        "16186": 116,
        "16187": 211,
        "16188": 36,
        "16189": 188,
        "16190": 46,
        "16191": 138,
        "16192": 16,
        "16193": 129,
        "16194": 246,
        "16195": 97,
        "16196": 92,
        "16197": 14,
        "16198": 153,
        "16199": 237,
        "16200": 106,
        "16201": 192,
        "16202": 171,
        "16203": 235,
        "16204": 181,
        "16205": 91,
        "16206": 212,
        "16207": 104,
        "16208": 246,
        "16209": 45,
        "16210": 91,
        "16211": 0,
        "16212": 35,
        "16213": 218,
        "16214": 208,
        "16215": 138,
        "16216": 3,
        "16217": 114,
        "16218": 180,
        "16219": 212,
        "16220": 49,
        "16221": 122,
        "16222": 216,
        "16223": 135,
        "16224": 161,
        "16225": 99,
        "16226": 131,
        "16227": 46,
        "16228": 206,
        "16229": 219,
        "16230": 126,
        "16231": 209,
        "16232": 180,
        "16233": 74,
        "16234": 243,
        "16235": 7,
        "16236": 150,
        "16237": 20,
        "16238": 90,
        "16239": 106,
        "16240": 121,
        "16241": 219,
        "16242": 30,
        "16243": 233,
        "16244": 154,
        "16245": 100,
        "16246": 244,
        "16247": 143,
        "16248": 187,
        "16249": 11,
        "16250": 193,
        "16251": 136,
        "16252": 143,
        "16253": 244,
        "16254": 204,
        "16255": 122,
        "16256": 195,
        "16257": 111,
        "16258": 95,
        "16259": 126,
        "16260": 53,
        "16261": 67,
        "16262": 107,
        "16263": 63,
        "16264": 118,
        "16265": 19,
        "16266": 143,
        "16267": 64,
        "16268": 41,
        "16269": 47,
        "16270": 29,
        "16271": 89,
        "16272": 73,
        "16273": 46,
        "16274": 107,
        "16275": 250,
        "16276": 245,
        "16277": 235,
        "16278": 70,
        "16279": 42,
        "16280": 177,
        "16281": 167,
        "16282": 137,
        "16283": 100,
        "16284": 82,
        "16285": 131,
        "16286": 95,
        "16287": 47,
        "16288": 209,
        "16289": 168,
        "16290": 19,
        "16291": 14,
        "16292": 197,
        "16293": 5,
        "16294": 233,
        "16295": 58,
        "16296": 193,
        "16297": 214,
        "16298": 237,
        "16299": 77,
        "16300": 251,
        "16301": 76,
        "16302": 101,
        "16303": 1,
        "16304": 191,
        "16305": 238,
        "16306": 76,
        "16307": 112,
        "16308": 45,
        "16309": 160,
        "16310": 191,
        "16311": 226,
        "16312": 179,
        "16313": 247,
        "16314": 243,
        "16315": 94,
        "16316": 34,
        "16317": 73,
        "16318": 43,
        "16319": 158,
        "16320": 240,
        "16321": 120,
        "16322": 207,
        "16323": 208,
        "16324": 49,
        "16325": 103,
        "16326": 57,
        "16327": 211,
        "16328": 73,
        "16329": 237,
        "16330": 3,
        "16331": 116,
        "16332": 123,
        "16333": 158,
        "16334": 160,
        "16335": 71,
        "16336": 248,
        "16337": 236,
        "16338": 207,
        "16339": 225,
        "16340": 104,
        "16341": 39,
        "16342": 146,
        "16343": 89,
        "16344": 235,
        "16345": 225,
        "16346": 45,
        "16347": 121,
        "16348": 11,
        "16349": 8,
        "16350": 165,
        "16351": 139,
        "16352": 28,
        "16353": 254,
        "16354": 227,
        "16355": 53,
        "16356": 111,
        "16357": 125,
        "16358": 201,
        "16359": 74,
        "16360": 12,
        "16361": 101,
        "16362": 97,
        "16363": 249,
        "16364": 66,
        "16365": 96,
        "16366": 208,
        "16367": 19,
        "16368": 144,
        "16369": 213,
        "16370": 26,
        "16371": 182,
        "16372": 203,
        "16373": 117,
        "16374": 146,
        "16375": 124,
        "16376": 209,
        "16377": 56,
        "16378": 33,
        "16379": 92,
        "16380": 10,
        "16381": 64,
        "16382": 250,
        "16383": 5,
        "16384": 149,
        "16385": 51,
        "16386": 122,
        "16387": 146,
        "16388": 126,
        "16389": 88,
        "16390": 35,
        "16391": 18,
        "16392": 83,
        "16393": 236,
        "16394": 165,
        "16395": 60,
        "16396": 213,
        "16397": 62,
        "16398": 183,
        "16399": 92,
        "16400": 0,
        "16401": 116,
        "16402": 197,
        "16403": 3,
        "16404": 51,
        "16405": 239,
        "16406": 8,
        "16407": 115,
        "16408": 229,
        "16409": 232,
        "16410": 209,
        "16411": 149,
        "16412": 205,
        "16413": 1,
        "16414": 149,
        "16415": 190,
        "16416": 124,
        "16417": 10,
        "16418": 249,
        "16419": 133,
        "16420": 243,
        "16421": 208,
        "16422": 215,
        "16423": 115,
        "16424": 1,
        "16425": 8,
        "16426": 0,
        "16427": 0,
        "16428": 0,
        "16429": 0,
        "16430": 0,
        "16431": 0,
        "16432": 4,
        "16433": 0,
        "16434": 0,
        "16435": 0,
        "16436": 0,
        "16437": 0,
        "16438": 0,
        "16439": 0,
        "16440": 0,
        "16441": 0,
        "16442": 0,
        "16443": 0,
        "16444": 0,
        "16445": 0,
        "16446": 0,
        "16447": 0,
        "16448": 0,
        "16449": 0,
        "16450": 0,
        "16451": 0,
        "16452": 0,
        "16453": 0,
        "16454": 0,
        "16455": 0,
        "16456": 64,
        "16457": 0,
        "16458": 0,
        "16459": 0,
        "16460": 0,
        "16461": 0,
        "16462": 0,
        "16463": 0,
        "16464": 3,
        "16465": 0,
        "16466": 0,
        "16467": 0,
        "16468": 0,
        "16469": 0,
        "16470": 0,
        "16471": 0,
        "16472": 4,
        "16473": 0,
        "16474": 0,
        "16475": 0,
        "16476": 0,
        "16477": 0,
        "16478": 0,
        "16479": 0,
        "16480": 4,
        "16481": 0,
        "16482": 0,
        "16483": 0,
        "16484": 0,
        "16485": 0,
        "16486": 0,
        "16487": 0,
        "16488": 0,
        "16489": 0,
        "16490": 0,
        "16491": 0,
        "16492": 4,
        "16493": 0,
        "16494": 0,
        "16495": 0,
        "16496": 0,
        "16497": 0,
        "16498": 0,
        "16499": 0
      }
    }
  ],
  "numDeployments": 1,
  "solcInputHash": "2e283e6242bcf2e4f5b934e339774434",
  "bytecode": "0x610160604052620000176000620001f660201b60201c565b6009553480156200002757600080fd5b50604051620055e2380380620055e283398181016040528101906200004d919062000ead565b83836040518060400160405280601181526020017f4668656e6978205065726d697373696f6e0000000000000000000000000000008152506040518060400160405280600381526020017f312e30000000000000000000000000000000000000000000000000000000000081525083838160039081620000ce9190620011bd565b508060049081620000e09190620011bd565b505050620000f96005836200021260201b90919060201c565b6101208181525050620001176006826200021260201b90919060201c565b6101408181525050818051906020012060e08181525050808051906020012061010081815250504660a08181525050620001566200026a60201b60201c565b608081815250503073ffffffffffffffffffffffffffffffffffffffff1660c08173ffffffffffffffffffffffffffffffffffffffff168152505050505050620001a73383620002c760201b60201c565b620001b933826200035460201b60201c565b620001eb7f9f2df0fed2c77648de5860a4cc508cd0818c85b8b8a1ab4ceeef8d981c8956a6336200041060201b60201c565b5050505050620016df565b60006200020b8260026200051460201b60201c565b9050919050565b600060208351101562000238576200023083620005cb60201b60201c565b905062000264565b826200024a836200063860201b60201c565b60000190816200025b9190620011bd565b5060ff60001b90505b92915050565b60007f8b73c3c69bb8fe3d512ecc4cf759cc79239f7b179b0ffacaa9a75d522b39400f60e051610100514630604051602001620002ac95949392919062001315565b60405160208183030381529060405280519060200120905090565b600073ffffffffffffffffffffffffffffffffffffffff168273ffffffffffffffffffffffffffffffffffffffff16036200033c5760006040517fec442f0500000000000000000000000000000000000000000000000000000000815260040162000333919062001372565b60405180910390fd5b62000350600083836200064260201b60201c565b5050565b600062000367826200087260201b60201c565b9050620003b4600760008573ffffffffffffffffffffffffffffffffffffffff1673ffffffffffffffffffffffffffffffffffffffff168152602001908152602001600020548262000890565b600760008573ffffffffffffffffffffffffffffffffffffffff1673ffffffffffffffffffffffffffffffffffffffff16815260200190815260200160002081905550620004056009548262000890565b600981905550505050565b6000620004248383620008ac60201b60201c565b62000509576001600a600085815260200190815260200160002060000160008473ffffffffffffffffffffffffffffffffffffffff1673ffffffffffffffffffffffffffffffffffffffff16815260200190815260200160002060006101000a81548160ff021916908315150217905550620004a56200091760201b60201c565b73ffffffffffffffffffffffffffffffffffffffff168273ffffffffffffffffffffffffffffffffffffffff16847f2f8788117e7eff1d82e926ec794901d17c78024a50270940304540a733656f0d60405160405180910390a4600190506200050e565b600090505b92915050565b60006060608073ffffffffffffffffffffffffffffffffffffffff166319e1c5c462000546866200091f60201b60201c565b856040518363ffffffff1660e01b8152600401620005669291906200140a565b600060405180830381865afa15801562000584573d6000803e3d6000fd5b505050506040513d6000823e3d601f19601f82011682018060405250810190620005af91906200143e565b9050620005c2816200098060201b60201c565b91505092915050565b600080829050601f815111156200061b57826040517f305a27a9000000000000000000000000000000000000000000000000000000008152600401620006129190620014e1565b60405180910390fd5b80518162000629906200152c565b60001c1760001b915050919050565b6000819050919050565b600073ffffffffffffffffffffffffffffffffffffffff168373ffffffffffffffffffffffffffffffffffffffff1603620006985780600260008282546200068b9190620015cb565b925050819055506200076e565b60008060008573ffffffffffffffffffffffffffffffffffffffff1673ffffffffffffffffffffffffffffffffffffffff1681526020019081526020016000205490508181101562000727578381836040517fe450d38c0000000000000000000000000000000000000000000000000000000081526004016200071e9392919062001606565b60405180910390fd5b8181036000808673ffffffffffffffffffffffffffffffffffffffff1673ffffffffffffffffffffffffffffffffffffffff16815260200190815260200160002081905550505b600073ffffffffffffffffffffffffffffffffffffffff168273ffffffffffffffffffffffffffffffffffffffff1603620007b9578060026000828254039250508190555062000806565b806000808473ffffffffffffffffffffffffffffffffffffffff1673ffffffffffffffffffffffffffffffffffffffff168152602001908152602001600020600082825401925050819055505b8173ffffffffffffffffffffffffffffffffffffffff168373ffffffffffffffffffffffffffffffffffffffff167fddf252ad1be2c89b69c2b068fc378daa952ba7f163c4a11628f55a4df523b3ef8360405162000865919062001643565b60405180910390a3505050565b60006200088982600001516200098e60201b60201c565b9050919050565b6000620008a48383620009aa60201b60201c565b905092915050565b6000600a600084815260200190815260200160002060000160008373ffffffffffffffffffffffffffffffffffffffff1673ffffffffffffffffffffffffffffffffffffffff16815260200190815260200160002060009054906101000a900460ff16905092915050565b600033905090565b6060602067ffffffffffffffff8111156200093f576200093e62000bee565b5b6040519080825280601f01601f191660200182016040528015620009725781602001600182028036833780820191505090505b509050816020820152919050565b600060208201519050919050565b6000620009a382600262000a4c60201b60201c565b9050919050565b6000620009bd8362000af360201b60201c565b620009d757620009d46000620001f660201b60201c565b92505b620009e88262000af360201b60201c565b62000a0257620009ff6000620001f660201b60201c565b91505b60008390506000839050600062000a3e60028484608073ffffffffffffffffffffffffffffffffffffffff16622df61962000b0060201b60201c565b905080935050505092915050565b60006060608073ffffffffffffffffffffffffffffffffffffffff16635fa55ca784866040518363ffffffff1660e01b815260040162000a8e92919062001660565b600060405180830381865afa15801562000aac573d6000803e3d6000fd5b505050506040513d6000823e3d601f19601f8201168201806040525081019062000ad791906200143e565b905062000aea816200098060201b60201c565b91505092915050565b6000808214159050919050565b6000606083838862000b18896200091f60201b60201c565b62000b29896200091f60201b60201c565b6040518463ffffffff1660e01b815260040162000b499392919062001694565b600060405180830381865afa15801562000b67573d6000803e3d6000fd5b505050506040513d6000823e3d601f19601f8201168201806040525081019062000b9291906200143e565b905062000ba58162000bb160201b60201c565b91505095945050505050565b600060208201519050919050565b6000604051905090565b600080fd5b600080fd5b600080fd5b600080fd5b6000601f19601f8301169050919050565b7f4e487b7100000000000000000000000000000000000000000000000000000000600052604160045260246000fd5b62000c288262000bdd565b810181811067ffffffffffffffff8211171562000c4a5762000c4962000bee565b5b80604052505050565b600062000c5f62000bbf565b905062000c6d828262000c1d565b919050565b600067ffffffffffffffff82111562000c905762000c8f62000bee565b5b62000c9b8262000bdd565b9050602081019050919050565b60005b8381101562000cc857808201518184015260208101905062000cab565b60008484015250505050565b600062000ceb62000ce58462000c72565b62000c53565b90508281526020810184848401111562000d0a5762000d0962000bd8565b5b62000d1784828562000ca8565b509392505050565b600082601f83011262000d375762000d3662000bd3565b5b815162000d4984826020860162000cd4565b91505092915050565b6000819050919050565b62000d678162000d52565b811462000d7357600080fd5b50565b60008151905062000d878162000d5c565b92915050565b600080fd5b600080fd5b600067ffffffffffffffff82111562000db55762000db462000bee565b5b62000dc08262000bdd565b9050602081019050919050565b600062000de462000dde8462000d97565b62000c53565b90508281526020810184848401111562000e035762000e0262000bd8565b5b62000e1084828562000ca8565b509392505050565b600082601f83011262000e305762000e2f62000bd3565b5b815162000e4284826020860162000dcd565b91505092915050565b60006020828403121562000e645762000e6362000d8d565b5b62000e70602062000c53565b9050600082015167ffffffffffffffff81111562000e935762000e9262000d92565b5b62000ea18482850162000e18565b60008301525092915050565b6000806000806080858703121562000eca5762000ec962000bc9565b5b600085015167ffffffffffffffff81111562000eeb5762000eea62000bce565b5b62000ef98782880162000d1f565b945050602085015167ffffffffffffffff81111562000f1d5762000f1c62000bce565b5b62000f2b8782880162000d1f565b935050604062000f3e8782880162000d76565b925050606085015167ffffffffffffffff81111562000f625762000f6162000bce565b5b62000f708782880162000e4b565b91505092959194509250565b600081519050919050565b7f4e487b7100000000000000000000000000000000000000000000000000000000600052602260045260246000fd5b6000600282049050600182168062000fcf57607f821691505b60208210810362000fe55762000fe462000f87565b5b50919050565b60008190508160005260206000209050919050565b60006020601f8301049050919050565b600082821b905092915050565b6000600883026200104f7fffffffffffffffffffffffffffffffffffffffffffffffffffffffffffffffff8262001010565b6200105b868362001010565b95508019841693508086168417925050509392505050565b6000819050919050565b60006200109e62001098620010928462000d52565b62001073565b62000d52565b9050919050565b6000819050919050565b620010ba836200107d565b620010d2620010c982620010a5565b8484546200101d565b825550505050565b600090565b620010e9620010da565b620010f6818484620010af565b505050565b5b818110156200111e5762001112600082620010df565b600181019050620010fc565b5050565b601f8211156200116d57620011378162000feb565b620011428462001000565b8101602085101562001152578190505b6200116a620011618562001000565b830182620010fb565b50505b505050565b600082821c905092915050565b6000620011926000198460080262001172565b1980831691505092915050565b6000620011ad83836200117f565b9150826002028217905092915050565b620011c88262000f7c565b67ffffffffffffffff811115620011e457620011e362000bee565b5b620011f0825462000fb6565b620011fd82828562001122565b600060209050601f83116001811462001235576000841562001220578287015190505b6200122c85826200119f565b8655506200129c565b601f198416620012458662000feb565b60005b828110156200126f5784890151825560018201915060208501945060208101905062001248565b868310156200128f57848901516200128b601f8916826200117f565b8355505b6001600288020188555050505b505050505050565b6000819050919050565b620012b981620012a4565b82525050565b620012ca8162000d52565b82525050565b600073ffffffffffffffffffffffffffffffffffffffff82169050919050565b6000620012fd82620012d0565b9050919050565b6200130f81620012f0565b82525050565b600060a0820190506200132c6000830188620012ae565b6200133b6020830187620012ae565b6200134a6040830186620012ae565b620013596060830185620012bf565b62001368608083018462001304565b9695505050505050565b600060208201905062001389600083018462001304565b92915050565b600081519050919050565b600082825260208201905092915050565b6000620013b8826200138f565b620013c481856200139a565b9350620013d681856020860162000ca8565b620013e18162000bdd565b840191505092915050565b600060ff82169050919050565b6200140481620013ec565b82525050565b60006040820190508181036000830152620014268185620013ab565b9050620014376020830184620013f9565b9392505050565b60006020828403121562001457576200145662000bc9565b5b600082015167ffffffffffffffff81111562001478576200147762000bce565b5b620014868482850162000e18565b91505092915050565b600082825260208201905092915050565b6000620014ad8262000f7c565b620014b981856200148f565b9350620014cb81856020860162000ca8565b620014d68162000bdd565b840191505092915050565b60006020820190508181036000830152620014fd8184620014a0565b905092915050565b6000819050602082019050919050565b6000620015238251620012a4565b80915050919050565b600062001539826200138f565b82620015458462001505565b9050620015528162001515565b925060208210156200159557620015907fffffffffffffffffffffffffffffffffffffffffffffffffffffffffffffffff8360200360080262001010565b831692505b5050919050565b7f4e487b7100000000000000000000000000000000000000000000000000000000600052601160045260246000fd5b6000620015d88262000d52565b9150620015e58362000d52565b92508282019050808211156200160057620015ff6200159c565b5b92915050565b60006060820190506200161d600083018662001304565b6200162c6020830185620012bf565b6200163b6040830184620012bf565b949350505050565b60006020820190506200165a6000830184620012bf565b92915050565b6000604082019050620016776000830185620013f9565b81810360208301526200168b8184620013ab565b90509392505050565b6000606082019050620016ab6000830186620013f9565b8181036020830152620016bf8185620013ab565b90508181036040830152620016d58184620013ab565b9050949350505050565b60805160a05160c05160e051610100516101205161014051613ea86200173a60003960006119440152600061190901526000612a8501526000612a64015260006121a5015260006121fb015260006122240152613ea86000f3fe608060405234801561001057600080fd5b50600436106101da5760003560e01c80636e0505e111610104578063a217fddf116100a2578063d539139311610071578063d5391393146105e1578063d547741f146105ff578063d918156e1461061b578063dd62ed3e1461064b576101da565b8063a217fddf14610533578063a9059cbb14610551578063af575a0014610581578063c4224c19146105b1576101da565b80638624a349116100de5780638624a3491461049957806391d14854146104c957806395d89b41146104f95780639f284be714610517576101da565b80636e0505e11461042957806370a082311461044557806384b0196e14610475576101da565b8063248a9ca31161017c57806339c217f71161014b57806339c217f71461037d5780634e6db477146103ad5780635356c429146103c957806360277204146103f9576101da565b8063248a9ca3146102f75780632f2ff15d14610327578063313ce5671461034357806336568abe14610361576101da565b80631656cef3116101b85780631656cef31461025d57806318160ddd1461027957806323b872dd1461029757806323db9354146102c7576101da565b806301ffc9a7146101df57806306fdde031461020f578063095ea7b31461022d575b600080fd5b6101f960048036038101906101f49190612e22565b61067b565b6040516102069190612e6a565b60405180910390f35b6102176106f5565b6040516102249190612f15565b60405180910390f35b61024760048036038101906102429190612fcb565b610787565b6040516102549190612e6a565b60405180910390f35b610277600480360381019061027291906131a2565b6107aa565b005b6102816107b7565b60405161028e91906131fa565b60405180910390f35b6102b160048036038101906102ac9190613215565b6107c1565b6040516102be9190612e6a565b60405180910390f35b6102e160048036038101906102dc9190613268565b6107f0565b6040516102ee91906132e3565b60405180910390f35b610311600480360381019061030c9190613334565b610877565b60405161031e9190613370565b60405180910390f35b610341600480360381019061033c919061338b565b610897565b005b61034b6108b9565b60405161035891906133e7565b60405180910390f35b61037b6004803603810190610376919061338b565b6108c2565b005b61039760048036038101906103929190613426565b61093d565b6040516103a491906132e3565b60405180910390f35b6103c760048036038101906103c29190613482565b610962565b005b6103e360048036038101906103de91906134fd565b6109a0565b6040516103f091906135ae565b60405180910390f35b610413600480360381019061040e919061363c565b610a9e565b60405161042091906135ae565b60405180910390f35b610443600480360381019061043e91906136d4565b610bd4565b005b61045f600480360381019061045a9190613701565b610d0b565b60405161046c91906131fa565b60405180910390f35b61047d610d53565b6040516104909796959493929190613836565b60405180910390f35b6104b360048036038101906104ae91906138ba565b610dfd565b6040516104c091906132e3565b60405180910390f35b6104e360048036038101906104de919061338b565b610e3b565b6040516104f09190612e6a565b60405180910390f35b610501610ea6565b60405161050e9190612f15565b60405180910390f35b610531600480360381019061052c91906136d4565b610f38565b005b61053b611045565b6040516105489190613370565b60405180910390f35b61056b60048036038101906105669190612fcb565b61104c565b6040516105789190612e6a565b60405180910390f35b61059b60048036038101906105969190613955565b61106f565b6040516105a891906132e3565b60405180910390f35b6105cb60048036038101906105c691906139a8565b61109c565b6040516105d891906132e3565b60405180910390f35b6105e96110b1565b6040516105f69190613370565b60405180910390f35b6106196004803603810190610614919061338b565b6110d5565b005b61063560048036038101906106309190613426565b6110f7565b6040516106429190612e6a565b60405180910390f35b61066560048036038101906106609190613268565b61111f565b60405161067291906131fa565b60405180910390f35b60007f7965db0b000000000000000000000000000000000000000000000000000000007bffffffffffffffffffffffffffffffffffffffffffffffffffffffff1916827bffffffffffffffffffffffffffffffffffffffffffffffffffffffff191614806106ee57506106ed826111a6565b5b9050919050565b60606003805461070490613a17565b80601f016020809104026020016040519081016040528092919081815260200182805461073090613a17565b801561077d5780601f106107525761010080835404028352916020019161077d565b820191906000526020600020905b81548152906001019060200180831161076057829003601f168201915b5050505050905090565b600080610792611210565b905061079f818585611218565b600191505092915050565b6107b4338261122a565b50565b6000600254905090565b6000806107cc611210565b90506107d98582856112da565b6107e485858561136e565b60019150509392505050565b6000600860008473ffffffffffffffffffffffffffffffffffffffff1673ffffffffffffffffffffffffffffffffffffffff16815260200190815260200160002060008373ffffffffffffffffffffffffffffffffffffffff1673ffffffffffffffffffffffffffffffffffffffff16815260200190815260200160002054905092915050565b6000600a6000838152602001908152602001600020600101549050919050565b6108a082610877565b6108a981611462565b6108b38383611476565b50505050565b60006012905090565b6108ca611210565b73ffffffffffffffffffffffffffffffffffffffff168173ffffffffffffffffffffffffffffffffffffffff161461092e576040517f6697b23200000000000000000000000000000000000000000000000000000000815260040160405180910390fd5b6109388282611568565b505050565b600061095a836109558461095090613a48565b61165b565b61109c565b905092915050565b61098c7f9f2df0fed2c77648de5860a4cc508cd0818c85b8b8a1ab4ceeef8d981c8956a633610e3b565b1561099c5761099b828261122a565b5b5050565b6060816109ac90613a5b565b6000610a037f6bdaeb2d29561f159c7ef98b16b27015fb2aeb87209c7ee656226d912f59927d83600001516040516020016109e8929190613a6e565b60405160208183030381529060405280519060200120611671565b90506000610a1582846020015161168b565b90503373ffffffffffffffffffffffffffffffffffffffff168173ffffffffffffffffffffffffffffffffffffffff1614610a7c576040517f3093a27700000000000000000000000000000000000000000000000000000000815260040160405180910390fd5b610a93610a8933886107f0565b86600001356116b7565b935050505092915050565b606081836000610af97f6bdaeb2d29561f159c7ef98b16b27015fb2aeb87209c7ee656226d912f59927d8460000151604051602001610ade929190613a6e565b60405160208183030381529060405280519060200120611671565b90506000610b0b82856020015161168b565b90508273ffffffffffffffffffffffffffffffffffffffff168173ffffffffffffffffffffffffffffffffffffffff1614610b72576040517f51c65eae00000000000000000000000000000000000000000000000000000000815260040160405180910390fd5b610bc88660000151600760008a73ffffffffffffffffffffffffffffffffffffffff1673ffffffffffffffffffffffffffffffffffffffff168152602001908152602001600020546116ed90919063ffffffff16565b94505050505092915050565b6000610be58263ffffffff16611701565b90506000610c4e610c3e83600760003373ffffffffffffffffffffffffffffffffffffffff1673ffffffffffffffffffffffffffffffffffffffff1681526020019081526020016000205461171590919063ffffffff16565b610c486000611701565b84611729565b9050610c99600760003373ffffffffffffffffffffffffffffffffffffffff1673ffffffffffffffffffffffffffffffffffffffff16815260200190815260200160002054826117a7565b600760003373ffffffffffffffffffffffffffffffffffffffff1673ffffffffffffffffffffffffffffffffffffffff16815260200190815260200160002081905550610ce8600954826117a7565b600981905550610d0633610cfb836117bb565b63ffffffff1661187e565b505050565b60008060008373ffffffffffffffffffffffffffffffffffffffff1673ffffffffffffffffffffffffffffffffffffffff168152602001908152602001600020549050919050565b600060608060008060006060610d67611900565b610d6f61193b565b46306000801b600067ffffffffffffffff811115610d9057610d8f613010565b5b604051908082528060200260200182016040528015610dbe5781602001602082028036833780820191505090505b507f0f00000000000000000000000000000000000000000000000000000000000000959493929190965096509650965096509650965090919293949596565b600080610e1283610e0d90613a48565b61165b565b90506000610e21863384611976565b9050610e2e8686836119b3565b5080925050509392505050565b6000600a600084815260200190815260200160002060000160008373ffffffffffffffffffffffffffffffffffffffff1673ffffffffffffffffffffffffffffffffffffffff16815260200190815260200160002060009054906101000a900460ff16905092915050565b606060048054610eb590613a17565b80601f0160208091040260200160405190810160405280929190818152602001828054610ee190613a17565b8015610f2e5780601f10610f0357610100808354040283529160200191610f2e565b820191906000526020600020905b815481529060010190602001808311610f1157829003601f168201915b5050505050905090565b8063ffffffff16610f4833610d0b565b1015610f80576040517ffda7bbda00000000000000000000000000000000000000000000000000000000815260040160405180910390fd5b610f90338263ffffffff16611b40565b6000610fa18263ffffffff16611701565b9050610fec600760003373ffffffffffffffffffffffffffffffffffffffff1673ffffffffffffffffffffffffffffffffffffffff1681526020019081526020016000205482611bc2565b600760003373ffffffffffffffffffffffffffffffffffffffff1673ffffffffffffffffffffffffffffffffffffffff1681526020019081526020016000208190555061103b60095482611bc2565b6009819055505050565b6000801b81565b600080611057611210565b905061106481858561136e565b600191505092915050565b6000808290506000611082863384611976565b905061108f8686836119b3565b5080925050509392505050565b60006110a93384846119b3565b905092915050565b7f9f2df0fed2c77648de5860a4cc508cd0818c85b8b8a1ab4ceeef8d981c8956a681565b6110de82610877565b6110e781611462565b6110f18383611568565b50505050565b600061111533846111108561110b90613a48565b61165b565b611bd6565b6001905092915050565b6000600160008473ffffffffffffffffffffffffffffffffffffffff1673ffffffffffffffffffffffffffffffffffffffff16815260200190815260200160002060008373ffffffffffffffffffffffffffffffffffffffff1673ffffffffffffffffffffffffffffffffffffffff16815260200190815260200160002054905092915050565b60007f01ffc9a7000000000000000000000000000000000000000000000000000000007bffffffffffffffffffffffffffffffffffffffffffffffffffffffff1916827bffffffffffffffffffffffffffffffffffffffffffffffffffffffff1916149050919050565b600033905090565b6112258383836001611d40565b505050565b60006112358261165b565b9050611280600760008573ffffffffffffffffffffffffffffffffffffffff1673ffffffffffffffffffffffffffffffffffffffff1681526020019081526020016000205482611bc2565b600760008573ffffffffffffffffffffffffffffffffffffffff1673ffffffffffffffffffffffffffffffffffffffff168152602001908152602001600020819055506112cf60095482611bc2565b600981905550505050565b60006112e6848461111f565b90507fffffffffffffffffffffffffffffffffffffffffffffffffffffffffffffffff81146113685781811015611358578281836040517ffb8f41b200000000000000000000000000000000000000000000000000000000815260040161134f93929190613a97565b60405180910390fd5b61136784848484036000611d40565b5b50505050565b600073ffffffffffffffffffffffffffffffffffffffff168373ffffffffffffffffffffffffffffffffffffffff16036113e05760006040517f96c6fd1e0000000000000000000000000000000000000000000000000000000081526004016113d79190613ace565b60405180910390fd5b600073ffffffffffffffffffffffffffffffffffffffff168273ffffffffffffffffffffffffffffffffffffffff16036114525760006040517fec442f050000000000000000000000000000000000000000000000000000000081526004016114499190613ace565b60405180910390fd5b61145d838383611f17565b505050565b6114738161146e611210565b61213c565b50565b60006114828383610e3b565b61155d576001600a600085815260200190815260200160002060000160008473ffffffffffffffffffffffffffffffffffffffff1673ffffffffffffffffffffffffffffffffffffffff16815260200190815260200160002060006101000a81548160ff0219169083151502179055506114fa611210565b73ffffffffffffffffffffffffffffffffffffffff168273ffffffffffffffffffffffffffffffffffffffff16847f2f8788117e7eff1d82e926ec794901d17c78024a50270940304540a733656f0d60405160405180910390a460019050611562565b600090505b92915050565b60006115748383610e3b565b15611650576000600a600085815260200190815260200160002060000160008473ffffffffffffffffffffffffffffffffffffffff1673ffffffffffffffffffffffffffffffffffffffff16815260200190815260200160002060006101000a81548160ff0219169083151502179055506115ed611210565b73ffffffffffffffffffffffffffffffffffffffff168273ffffffffffffffffffffffffffffffffffffffff16847ff6391f5c32d9c69d2a47ea670b442974b53935d1edc7fd64eb21e047a839171b60405160405180910390a460019050611655565b600090505b92915050565b600061166a826000015161218d565b9050919050565b600061168461167e6121a1565b83612258565b9050919050565b60008060008061169b8686612299565b9250925092506116ab82826122f5565b82935050505092915050565b60606116c283612459565b6116d3576116d06000611701565b92505b60008390506116e460028285612466565b91505092915050565b60606116f983836116b7565b905092915050565b600061170e82600261251c565b9050919050565b600061172183836125be565b905092915050565b600061173484612637565b611745576117426000612644565b93505b61174e83612459565b61175f5761175c6000611701565b92505b61176882612459565b611779576117766000611701565b91505b60008490506000849050600084905060006117976002858585612658565b9050809450505050509392505050565b60006117b38383612710565b905092915050565b60006117c682612459565b6117d7576117d46000611701565b91505b600082905060006117e782612789565b90506000608073ffffffffffffffffffffffffffffffffffffffff166373cc01546002846040518363ffffffff1660e01b8152600401611828929190613ae9565b602060405180830381865afa158015611845573d6000803e3d6000fd5b505050506040513d601f19601f820116820180604052508101906118699190613b2e565b9050611874816127e6565b9350505050919050565b600073ffffffffffffffffffffffffffffffffffffffff168273ffffffffffffffffffffffffffffffffffffffff16036118f05760006040517fec442f050000000000000000000000000000000000000000000000000000000081526004016118e79190613ace565b60405180910390fd5b6118fc60008383611f17565b5050565b606061193660057f00000000000000000000000000000000000000000000000000000000000000006127f090919063ffffffff16565b905090565b606061197160067f00000000000000000000000000000000000000000000000000000000000000006127f090919063ffffffff16565b905090565b60008061198385856107f0565b9050600061199182856128a0565b90506119a786866119a285856117a7565b611bd6565b80925050509392505050565b600080611a1b611a0b600760008873ffffffffffffffffffffffffffffffffffffffff1673ffffffffffffffffffffffffffffffffffffffff168152602001908152602001600020548561291990919063ffffffff16565b84611a166000611701565b611729565b9050611a66600760008673ffffffffffffffffffffffffffffffffffffffff1673ffffffffffffffffffffffffffffffffffffffff1681526020019081526020016000205482611bc2565b600760008673ffffffffffffffffffffffffffffffffffffffff1673ffffffffffffffffffffffffffffffffffffffff16815260200190815260200160002081905550611af2600760008773ffffffffffffffffffffffffffffffffffffffff1673ffffffffffffffffffffffffffffffffffffffff16815260200190815260200160002054826117a7565b600760008773ffffffffffffffffffffffffffffffffffffffff1673ffffffffffffffffffffffffffffffffffffffff16815260200190815260200160002081905550809150509392505050565b600073ffffffffffffffffffffffffffffffffffffffff168273ffffffffffffffffffffffffffffffffffffffff1603611bb25760006040517f96c6fd1e000000000000000000000000000000000000000000000000000000008152600401611ba99190613ace565b60405180910390fd5b611bbe82600083611f17565b5050565b6000611bce838361292d565b905092915050565b600073ffffffffffffffffffffffffffffffffffffffff168373ffffffffffffffffffffffffffffffffffffffff1603611c485760006040517fe602df05000000000000000000000000000000000000000000000000000000008152600401611c3f9190613ace565b60405180910390fd5b600073ffffffffffffffffffffffffffffffffffffffff168273ffffffffffffffffffffffffffffffffffffffff1603611cba5760006040517f94280d62000000000000000000000000000000000000000000000000000000008152600401611cb19190613ace565b60405180910390fd5b80600860008573ffffffffffffffffffffffffffffffffffffffff1673ffffffffffffffffffffffffffffffffffffffff16815260200190815260200160002060008473ffffffffffffffffffffffffffffffffffffffff1673ffffffffffffffffffffffffffffffffffffffff16815260200190815260200160002081905550505050565b600073ffffffffffffffffffffffffffffffffffffffff168473ffffffffffffffffffffffffffffffffffffffff1603611db25760006040517fe602df05000000000000000000000000000000000000000000000000000000008152600401611da99190613ace565b60405180910390fd5b600073ffffffffffffffffffffffffffffffffffffffff168373ffffffffffffffffffffffffffffffffffffffff1603611e245760006040517f94280d62000000000000000000000000000000000000000000000000000000008152600401611e1b9190613ace565b60405180910390fd5b81600160008673ffffffffffffffffffffffffffffffffffffffff1673ffffffffffffffffffffffffffffffffffffffff16815260200190815260200160002060008573ffffffffffffffffffffffffffffffffffffffff1673ffffffffffffffffffffffffffffffffffffffff168152602001908152602001600020819055508015611f11578273ffffffffffffffffffffffffffffffffffffffff168473ffffffffffffffffffffffffffffffffffffffff167f8c5be1e5ebec7d5bd14f71427d1e84f3dd0314c0f7b2291e5b200ac8c7c3b92584604051611f0891906131fa565b60405180910390a35b50505050565b600073ffffffffffffffffffffffffffffffffffffffff168373ffffffffffffffffffffffffffffffffffffffff1603611f69578060026000828254611f5d9190613b8a565b9250508190555061203c565b60008060008573ffffffffffffffffffffffffffffffffffffffff1673ffffffffffffffffffffffffffffffffffffffff16815260200190815260200160002054905081811015611ff5578381836040517fe450d38c000000000000000000000000000000000000000000000000000000008152600401611fec93929190613a97565b60405180910390fd5b8181036000808673ffffffffffffffffffffffffffffffffffffffff1673ffffffffffffffffffffffffffffffffffffffff16815260200190815260200160002081905550505b600073ffffffffffffffffffffffffffffffffffffffff168273ffffffffffffffffffffffffffffffffffffffff160361208557806002600082825403925050819055506120d2565b806000808473ffffffffffffffffffffffffffffffffffffffff1673ffffffffffffffffffffffffffffffffffffffff168152602001908152602001600020600082825401925050819055505b8173ffffffffffffffffffffffffffffffffffffffff168373ffffffffffffffffffffffffffffffffffffffff167fddf252ad1be2c89b69c2b068fc378daa952ba7f163c4a11628f55a4df523b3ef8360405161212f91906131fa565b60405180910390a3505050565b6121468282610e3b565b6121895780826040517fe2517d3f000000000000000000000000000000000000000000000000000000008152600401612180929190613bbe565b60405180910390fd5b5050565b600061219a8260026129a5565b9050919050565b60007f000000000000000000000000000000000000000000000000000000000000000073ffffffffffffffffffffffffffffffffffffffff163073ffffffffffffffffffffffffffffffffffffffff1614801561221d57507f000000000000000000000000000000000000000000000000000000000000000046145b1561224a577f00000000000000000000000000000000000000000000000000000000000000009050612255565b612252612a3f565b90505b90565b60006040517f190100000000000000000000000000000000000000000000000000000000000081528360028201528260228201526042812091505092915050565b600080600060418451036122de5760008060006020870151925060408701519150606087015160001a90506122d088828585612ad5565b9550955095505050506122ee565b60006002855160001b9250925092505b9250925092565b6000600381111561230957612308613be7565b5b82600381111561231c5761231b613be7565b5b0315612455576001600381111561233657612335613be7565b5b82600381111561234957612348613be7565b5b03612380576040517ff645eedf00000000000000000000000000000000000000000000000000000000815260040160405180910390fd5b6002600381111561239457612393613be7565b5b8260038111156123a7576123a6613be7565b5b036123ec578060001c6040517ffce698f70000000000000000000000000000000000000000000000000000000081526004016123e391906131fa565b60405180910390fd5b6003808111156123ff576123fe613be7565b5b82600381111561241257612411613be7565b5b0361245457806040517fd78bce0c00000000000000000000000000000000000000000000000000000000815260040161244b9190613370565b60405180910390fd5b5b5050565b6000808214159050919050565b6060608073ffffffffffffffffffffffffffffffffffffffff1663a1848ff38561248f86612789565b856040516020016124a09190613c37565b6040516020818303038152906040526040518463ffffffff1660e01b81526004016124cd93929190613c52565b600060405180830381865afa1580156124ea573d6000803e3d6000fd5b505050506040513d6000823e3d601f19601f820116820180604052508101906125139190613d07565b90509392505050565b60006060608073ffffffffffffffffffffffffffffffffffffffff166319e1c5c461254686612789565b856040518363ffffffff1660e01b8152600401612564929190613d50565b600060405180830381865afa158015612581573d6000803e3d6000fd5b505050506040513d6000823e3d601f19601f820116820180604052508101906125aa9190613d07565b90506125b581612bc9565b91505092915050565b60006125c983612459565b6125da576125d76000611701565b92505b6125e382612459565b6125f4576125f16000611701565b91505b60008390506000839050600061262960028484608073ffffffffffffffffffffffffffffffffffffffff1663874b1c10612bd7565b905080935050505092915050565b6000808214159050919050565b600061265182600061251c565b9050919050565b60006060608073ffffffffffffffffffffffffffffffffffffffff1663c2d969528761268388612789565b61268c88612789565b61269588612789565b6040518563ffffffff1660e01b81526004016126b49493929190613d80565b600060405180830381865afa1580156126d1573d6000803e3d6000fd5b505050506040513d6000823e3d601f19601f820116820180604052508101906126fa9190613d07565b905061270581612bc9565b915050949350505050565b600061271b83612459565b61272c576127296000611701565b92505b61273582612459565b612746576127436000611701565b91505b60008390506000839050600061277b60028484608073ffffffffffffffffffffffffffffffffffffffff1663cc2cbeff612bd7565b905080935050505092915050565b6060602067ffffffffffffffff8111156127a6576127a5613010565b5b6040519080825280601f01601f1916602001820160405280156127d85781602001600182028036833780820191505090505b509050816020820152919050565b6000819050919050565b606060ff60001b831461280d5761280683612c6b565b905061289a565b81805461281990613a17565b80601f016020809104026020016040519081016040528092919081815260200182805461284590613a17565b80156128925780601f1061286757610100808354040283529160200191612892565b820191906000526020600020905b81548152906001019060200180831161287557829003601f168201915b505050505090505b92915050565b60006128ab83612459565b6128bc576128b96000611701565b92505b6128c582612459565b6128d6576128d36000611701565b91505b60008390506000839050600061290b60028484608073ffffffffffffffffffffffffffffffffffffffff16635211c679612bd7565b905080935050505092915050565b60006129258383612cdf565b905092915050565b600061293883612459565b612949576129466000611701565b92505b61295282612459565b612963576129606000611701565b91505b60008390506000839050600061299760028484608073ffffffffffffffffffffffffffffffffffffffff16622df619612bd7565b905080935050505092915050565b60006060608073ffffffffffffffffffffffffffffffffffffffff16635fa55ca784866040518363ffffffff1660e01b81526004016129e5929190613ae9565b600060405180830381865afa158015612a02573d6000803e3d6000fd5b505050506040513d6000823e3d601f19601f82011682018060405250810190612a2b9190613d07565b9050612a3681612bc9565b91505092915050565b60007f8b73c3c69bb8fe3d512ecc4cf759cc79239f7b179b0ffacaa9a75d522b39400f7f00000000000000000000000000000000000000000000000000000000000000007f00000000000000000000000000000000000000000000000000000000000000004630604051602001612aba959493929190613dda565b60405160208183030381529060405280519060200120905090565b60008060007f7fffffffffffffffffffffffffffffff5d576e7357a4501ddfe92f46681b20a08460001c1115612b15576000600385925092509250612bbf565b600060018888888860405160008152602001604052604051612b3a9493929190613e2d565b6020604051602081039080840390855afa158015612b5c573d6000803e3d6000fd5b505050602060405103519050600073ffffffffffffffffffffffffffffffffffffffff168173ffffffffffffffffffffffffffffffffffffffff1603612bb057600060016000801b93509350935050612bbf565b8060008060001b935093509350505b9450945094915050565b600060208201519050919050565b60006060838388612be789612789565b612bf089612789565b6040518463ffffffff1660e01b8152600401612c0e93929190613c52565b600060405180830381865afa158015612c2b573d6000803e3d6000fd5b505050506040513d6000823e3d601f19601f82011682018060405250810190612c549190613d07565b9050612c5f81612d58565b91505095945050505050565b60606000612c7883612d66565b90506000602067ffffffffffffffff811115612c9757612c96613010565b5b6040519080825280601f01601f191660200182016040528015612cc95781602001600182028036833780820191505090505b5090508181528360208201528092505050919050565b6000612cea83612459565b612cfb57612cf86000611701565b92505b612d0482612459565b612d1557612d126000611701565b91505b600083905060008390506000612d4a60028484608073ffffffffffffffffffffffffffffffffffffffff1663b9c7a54b612bd7565b905080935050505092915050565b600060208201519050919050565b60008060ff8360001c169050601f811115612dad576040517fb3512b0c00000000000000000000000000000000000000000000000000000000815260040160405180910390fd5b80915050919050565b6000604051905090565b600080fd5b600080fd5b60007fffffffff0000000000000000000000000000000000000000000000000000000082169050919050565b612dff81612dca565b8114612e0a57600080fd5b50565b600081359050612e1c81612df6565b92915050565b600060208284031215612e3857612e37612dc0565b5b6000612e4684828501612e0d565b91505092915050565b60008115159050919050565b612e6481612e4f565b82525050565b6000602082019050612e7f6000830184612e5b565b92915050565b600081519050919050565b600082825260208201905092915050565b60005b83811015612ebf578082015181840152602081019050612ea4565b60008484015250505050565b6000601f19601f8301169050919050565b6000612ee782612e85565b612ef18185612e90565b9350612f01818560208601612ea1565b612f0a81612ecb565b840191505092915050565b60006020820190508181036000830152612f2f8184612edc565b905092915050565b600073ffffffffffffffffffffffffffffffffffffffff82169050919050565b6000612f6282612f37565b9050919050565b612f7281612f57565b8114612f7d57600080fd5b50565b600081359050612f8f81612f69565b92915050565b6000819050919050565b612fa881612f95565b8114612fb357600080fd5b50565b600081359050612fc581612f9f565b92915050565b60008060408385031215612fe257612fe1612dc0565b5b6000612ff085828601612f80565b925050602061300185828601612fb6565b9150509250929050565b600080fd5b7f4e487b7100000000000000000000000000000000000000000000000000000000600052604160045260246000fd5b61304882612ecb565b810181811067ffffffffffffffff8211171561306757613066613010565b5b80604052505050565b600061307a612db6565b9050613086828261303f565b919050565b600080fd5b600080fd5b600080fd5b600067ffffffffffffffff8211156130b5576130b4613010565b5b6130be82612ecb565b9050602081019050919050565b82818337600083830152505050565b60006130ed6130e88461309a565b613070565b90508281526020810184848401111561310957613108613095565b5b6131148482856130cb565b509392505050565b600082601f83011261313157613130613090565b5b81356131418482602086016130da565b91505092915050565b6000602082840312156131605761315f61300b565b5b61316a6020613070565b9050600082013567ffffffffffffffff81111561318a5761318961308b565b5b6131968482850161311c565b60008301525092915050565b6000602082840312156131b8576131b7612dc0565b5b600082013567ffffffffffffffff8111156131d6576131d5612dc5565b5b6131e28482850161314a565b91505092915050565b6131f481612f95565b82525050565b600060208201905061320f60008301846131eb565b92915050565b60008060006060848603121561322e5761322d612dc0565b5b600061323c86828701612f80565b935050602061324d86828701612f80565b925050604061325e86828701612fb6565b9150509250925092565b6000806040838503121561327f5761327e612dc0565b5b600061328d85828601612f80565b925050602061329e85828601612f80565b9150509250929050565b6000819050919050565b60006132cd6132c86132c384612f95565b6132a8565b612f95565b9050919050565b6132dd816132b2565b82525050565b60006020820190506132f860008301846132d4565b92915050565b6000819050919050565b613311816132fe565b811461331c57600080fd5b50565b60008135905061332e81613308565b92915050565b60006020828403121561334a57613349612dc0565b5b60006133588482850161331f565b91505092915050565b61336a816132fe565b82525050565b60006020820190506133856000830184613361565b92915050565b600080604083850312156133a2576133a1612dc0565b5b60006133b08582860161331f565b92505060206133c185828601612f80565b9150509250929050565b600060ff82169050919050565b6133e1816133cb565b82525050565b60006020820190506133fc60008301846133d8565b92915050565b600080fd5b60006020828403121561341d5761341c613402565b5b81905092915050565b6000806040838503121561343d5761343c612dc0565b5b600061344b85828601612f80565b925050602083013567ffffffffffffffff81111561346c5761346b612dc5565b5b61347885828601613407565b9150509250929050565b6000806040838503121561349957613498612dc0565b5b60006134a785828601612f80565b925050602083013567ffffffffffffffff8111156134c8576134c7612dc5565b5b6134d48582860161314a565b9150509250929050565b6000604082840312156134f4576134f3613402565b5b81905092915050565b6000806040838503121561351457613513612dc0565b5b600061352285828601612f80565b925050602083013567ffffffffffffffff81111561354357613542612dc5565b5b61354f858286016134de565b9150509250929050565b600081519050919050565b600082825260208201905092915050565b600061358082613559565b61358a8185613564565b935061359a818560208601612ea1565b6135a381612ecb565b840191505092915050565b600060208201905081810360008301526135c88184613575565b905092915050565b6000604082840312156135e6576135e561300b565b5b6135f06040613070565b905060006136008482850161331f565b600083015250602082013567ffffffffffffffff8111156136245761362361308b565b5b6136308482850161311c565b60208301525092915050565b6000806040838503121561365357613652612dc0565b5b600061366185828601612f80565b925050602083013567ffffffffffffffff81111561368257613681612dc5565b5b61368e858286016135d0565b9150509250929050565b600063ffffffff82169050919050565b6136b181613698565b81146136bc57600080fd5b50565b6000813590506136ce816136a8565b92915050565b6000602082840312156136ea576136e9612dc0565b5b60006136f8848285016136bf565b91505092915050565b60006020828403121561371757613716612dc0565b5b600061372584828501612f80565b91505092915050565b60007fff0000000000000000000000000000000000000000000000000000000000000082169050919050565b6137638161372e565b82525050565b61377281612f57565b82525050565b600081519050919050565b600082825260208201905092915050565b6000819050602082019050919050565b6137ad81612f95565b82525050565b60006137bf83836137a4565b60208301905092915050565b6000602082019050919050565b60006137e382613778565b6137ed8185613783565b93506137f883613794565b8060005b8381101561382957815161381088826137b3565b975061381b836137cb565b9250506001810190506137fc565b5085935050505092915050565b600060e08201905061384b600083018a61375a565b818103602083015261385d8189612edc565b905081810360408301526138718188612edc565b905061388060608301876131eb565b61388d6080830186613769565b61389a60a0830185613361565b81810360c08301526138ac81846137d8565b905098975050505050505050565b6000806000606084860312156138d3576138d2612dc0565b5b60006138e186828701612f80565b93505060206138f286828701612f80565b925050604084013567ffffffffffffffff81111561391357613912612dc5565b5b61391f86828701613407565b9150509250925092565b61393281612f95565b811461393d57600080fd5b50565b60008135905061394f81613929565b92915050565b60008060006060848603121561396e5761396d612dc0565b5b600061397c86828701612f80565b935050602061398d86828701612f80565b925050604061399e86828701613940565b9150509250925092565b600080604083850312156139bf576139be612dc0565b5b60006139cd85828601612f80565b92505060206139de85828601613940565b9150509250929050565b7f4e487b7100000000000000000000000000000000000000000000000000000000600052602260045260246000fd5b60006002820490506001821680613a2f57607f821691505b602082108103613a4257613a416139e8565b5b50919050565b6000613a54368361314a565b9050919050565b6000613a6736836135d0565b9050919050565b6000604082019050613a836000830185613361565b613a906020830184613361565b9392505050565b6000606082019050613aac6000830186613769565b613ab960208301856131eb565b613ac660408301846131eb565b949350505050565b6000602082019050613ae36000830184613769565b92915050565b6000604082019050613afe60008301856133d8565b8181036020830152613b108184613575565b90509392505050565b600081519050613b2881612f9f565b92915050565b600060208284031215613b4457613b43612dc0565b5b6000613b5284828501613b19565b91505092915050565b7f4e487b7100000000000000000000000000000000000000000000000000000000600052601160045260246000fd5b6000613b9582612f95565b9150613ba083612f95565b9250828201905080821115613bb857613bb7613b5b565b5b92915050565b6000604082019050613bd36000830185613769565b613be06020830184613361565b9392505050565b7f4e487b7100000000000000000000000000000000000000000000000000000000600052602160045260246000fd5b6000819050919050565b613c31613c2c826132fe565b613c16565b82525050565b6000613c438284613c20565b60208201915081905092915050565b6000606082019050613c6760008301866133d8565b8181036020830152613c798185613575565b90508181036040830152613c8d8184613575565b9050949350505050565b6000613caa613ca58461309a565b613070565b905082815260208101848484011115613cc657613cc5613095565b5b613cd1848285612ea1565b509392505050565b600082601f830112613cee57613ced613090565b5b8151613cfe848260208601613c97565b91505092915050565b600060208284031215613d1d57613d1c612dc0565b5b600082015167ffffffffffffffff811115613d3b57613d3a612dc5565b5b613d4784828501613cd9565b91505092915050565b60006040820190508181036000830152613d6a8185613575565b9050613d7960208301846133d8565b9392505050565b6000608082019050613d9560008301876133d8565b8181036020830152613da78186613575565b90508181036040830152613dbb8185613575565b90508181036060830152613dcf8184613575565b905095945050505050565b600060a082019050613def6000830188613361565b613dfc6020830187613361565b613e096040830186613361565b613e1660608301856131eb565b613e236080830184613769565b9695505050505050565b6000608082019050613e426000830187613361565b613e4f60208301866133d8565b613e5c6040830185613361565b613e696060830184613361565b9594505050505056fea26469706673582212204191ca7fde56ed184a434d6a38197d5ffb5e7a470de07e023d16d13dd5cfb83b64736f6c63430008140033",
  "devdoc": {
    "errors": {
      "AccessControlBadConfirmation()": [
        {
          "details": "The caller of a function is not the expected one. NOTE: Don't confuse with {AccessControlUnauthorizedAccount}."
        }
      ],
      "AccessControlUnauthorizedAccount(address,bytes32)": [
        {
          "details": "The `account` is missing a role."
        }
      ],
      "ECDSAInvalidSignature()": [
        {
          "details": "The signature derives the `address(0)`."
        }
      ],
      "ECDSAInvalidSignatureLength(uint256)": [
        {
          "details": "The signature has an invalid length."
        }
      ],
      "ECDSAInvalidSignatureS(bytes32)": [
        {
          "details": "The signature has an S value that is in the upper half order."
        }
      ],
      "ERC20InsufficientAllowance(address,uint256,uint256)": [
        {
          "details": "Indicates a failure with the `spender`s `allowance`. Used in transfers.",
          "params": {
            "allowance": "Amount of tokens a `spender` is allowed to operate with.",
            "needed": "Minimum amount required to perform a transfer.",
            "spender": "Address that may be allowed to operate on tokens without being their owner."
          }
        }
      ],
      "ERC20InsufficientBalance(address,uint256,uint256)": [
        {
          "details": "Indicates an error related to the current `balance` of a `sender`. Used in transfers.",
          "params": {
            "balance": "Current balance for the interacting account.",
            "needed": "Minimum amount required to perform a transfer.",
            "sender": "Address whose tokens are being transferred."
          }
        }
      ],
      "ERC20InvalidApprover(address)": [
        {
          "details": "Indicates a failure with the `approver` of a token to be approved. Used in approvals.",
          "params": {
            "approver": "Address initiating an approval operation."
          }
        }
      ],
      "ERC20InvalidReceiver(address)": [
        {
          "details": "Indicates a failure with the token `receiver`. Used in transfers.",
          "params": {
            "receiver": "Address to which tokens are being transferred."
          }
        }
      ],
      "ERC20InvalidSender(address)": [
        {
          "details": "Indicates a failure with the token `sender`. Used in transfers.",
          "params": {
            "sender": "Address whose tokens are being transferred."
          }
        }
      ],
      "ERC20InvalidSpender(address)": [
        {
          "details": "Indicates a failure with the `spender` to be approved. Used in approvals.",
          "params": {
            "spender": "Address that may be allowed to operate on tokens without being their owner."
          }
        }
      ]
    },
    "events": {
      "Approval(address,address,uint256)": {
        "details": "Emitted when the allowance of a `spender` for an `owner` is set by a call to {approve}. `value` is the new allowance."
      },
      "ApprovalEncrypted(address,address)": {
        "details": "Emitted when the allowance of a `spender` for an `owner` is set by a call to {approveEncrypted}. `value` is the new allowance."
      },
      "EIP712DomainChanged()": {
        "details": "MAY be emitted to signal that the domain could have changed."
      },
      "RoleAdminChanged(bytes32,bytes32,bytes32)": {
        "details": "Emitted when `newAdminRole` is set as ``role``'s admin role, replacing `previousAdminRole` `DEFAULT_ADMIN_ROLE` is the starting admin for all roles, despite {RoleAdminChanged} not being emitted signaling this."
      },
      "RoleGranted(bytes32,address,address)": {
        "details": "Emitted when `account` is granted `role`. `sender` is the account that originated the contract call, an admin role bearer except when using {AccessControl-_setupRole}."
      },
      "RoleRevoked(bytes32,address,address)": {
        "details": "Emitted when `account` is revoked `role`. `sender` is the account that originated the contract call:   - if using `revokeRole`, it is the admin role bearer   - if using `renounceRole`, it is the role bearer (i.e. `account`)"
      },
      "Transfer(address,address,uint256)": {
        "details": "Emitted when `value` tokens are moved from one account (`from`) to another (`to`). Note that `value` may be zero."
      },
      "TransferEncrypted(address,address)": {
        "details": "Emitted when `value` tokens are moved from one account (`from`) to another (`to`). Note that `value` may be zero."
      }
    },
    "kind": "dev",
    "methods": {
      "allowance(address,address)": {
        "details": "See {IERC20-allowance}."
      },
      "allowanceEncrypted(address,(bytes32,bytes))": {
        "details": "Returns the remaining number of tokens that `spender` will be allowed to spend on behalf of `owner` through {transferFrom}. This is zero by default. This value changes when {approve} or {transferFrom} are called."
      },
      "approve(address,uint256)": {
        "details": "See {IERC20-approve}. NOTE: If `value` is the maximum `uint256`, the allowance is not updated on `transferFrom`. This is semantically equivalent to an infinite approval. Requirements: - `spender` cannot be the zero address."
      },
      "approveEncrypted(address,(bytes))": {
        "details": "Sets a `value` amount of tokens as the allowance of `spender` over the caller's tokens. Returns a boolean value indicating whether the operation succeeded. IMPORTANT: Beware that changing an allowance with this method brings the risk that someone may use both the old and the new allowance by unfortunate transaction ordering. One possible solution to mitigate this race condition is to first reduce the spender's allowance to 0 and set the desired value afterwards: https://github.com/ethereum/EIPs/issues/20#issuecomment-263524729 Emits an {ApprovalEncrypted} event."
      },
      "balanceOf(address)": {
        "details": "See {IERC20-balanceOf}."
      },
      "balanceOfEncrypted(address,(bytes32,bytes))": {
        "details": "Returns the value of tokens owned by `account`, sealed and encrypted for the caller."
      },
      "decimals()": {
        "details": "Returns the number of decimals used to get its user representation. For example, if `decimals` equals `2`, a balance of `505` tokens should be displayed to a user as `5.05` (`505 / 10 ** 2`). Tokens usually opt for a value of 18, imitating the relationship between Ether and Wei. This is the default value returned by this function, unless it's overridden. NOTE: This information is only used for _display_ purposes: it in no way affects any of the arithmetic of the contract, including {IERC20-balanceOf} and {IERC20-transfer}."
      },
      "eip712Domain()": {
        "details": "See {IERC-5267}."
      },
      "getRoleAdmin(bytes32)": {
        "details": "Returns the admin role that controls `role`. See {grantRole} and {revokeRole}. To change a role's admin, use {_setRoleAdmin}."
      },
      "grantRole(bytes32,address)": {
        "details": "Grants `role` to `account`. If `account` had not been already granted `role`, emits a {RoleGranted} event. Requirements: - the caller must have ``role``'s admin role. May emit a {RoleGranted} event."
      },
      "hasRole(bytes32,address)": {
        "details": "Returns `true` if `account` has been granted `role`."
      },
      "name()": {
        "details": "Returns the name of the token."
      },
      "renounceRole(bytes32,address)": {
        "details": "Revokes `role` from the calling account. Roles are often managed via {grantRole} and {revokeRole}: this function's purpose is to provide a mechanism for accounts to lose their privileges if they are compromised (such as when a trusted device is misplaced). If the calling account had been revoked `role`, emits a {RoleRevoked} event. Requirements: - the caller must be `callerConfirmation`. May emit a {RoleRevoked} event."
      },
      "revokeRole(bytes32,address)": {
        "details": "Revokes `role` from `account`. If `account` had been granted `role`, emits a {RoleRevoked} event. Requirements: - the caller must have ``role``'s admin role. May emit a {RoleRevoked} event."
      },
      "supportsInterface(bytes4)": {
        "details": "See {IERC165-supportsInterface}."
      },
      "symbol()": {
        "details": "Returns the symbol of the token, usually a shorter version of the name."
      },
      "totalSupply()": {
        "details": "See {IERC20-totalSupply}."
      },
      "transfer(address,uint256)": {
        "details": "See {IERC20-transfer}. Requirements: - `to` cannot be the zero address. - the caller must have a balance of at least `value`."
      },
      "transferFrom(address,address,uint256)": {
        "details": "See {IERC20-transferFrom}. Emits an {Approval} event indicating the updated allowance. This is not required by the EIP. See the note at the beginning of {ERC20}. NOTE: Does not update the allowance if the current allowance is the maximum `uint256`. Requirements: - `from` and `to` cannot be the zero address. - `from` must have a balance of at least `value`. - the caller must have allowance for ``from``'s tokens of at least `value`."
      },
      "transferFromEncrypted(address,address,(bytes))": {
        "details": "Moves a `value` amount of tokens from `from` to `to` using the allowance mechanism. `value` is then deducted from the caller's allowance. Returns a boolean value indicating whether the operation succeeded. Emits a {TransferEncrypted} event."
      }
    },
    "version": 1
  },
  "userdoc": {
    "errors": {
      "SignerNotMessageSender()": [
        {
          "notice": "Emitted when the signer is not the message sender"
        }
      ],
      "SignerNotOwner()": [
        {
          "notice": "Emitted when the signer is not the specified owner"
        }
      ]
    },
    "kind": "user",
    "methods": {},
    "version": 1
  },
  "storageLayout": {
    "storage": [
      {
        "astId": 9366,
        "contract": "contracts/ExampleToken.sol:ExampleToken",
        "label": "_balances",
        "offset": 0,
        "slot": "0",
        "type": "t_mapping(t_address,t_uint256)"
      },
      {
        "astId": 9372,
        "contract": "contracts/ExampleToken.sol:ExampleToken",
        "label": "_allowances",
        "offset": 0,
        "slot": "1",
        "type": "t_mapping(t_address,t_mapping(t_address,t_uint256))"
      },
      {
        "astId": 9374,
        "contract": "contracts/ExampleToken.sol:ExampleToken",
        "label": "_totalSupply",
        "offset": 0,
        "slot": "2",
        "type": "t_uint256"
      },
      {
        "astId": 9376,
        "contract": "contracts/ExampleToken.sol:ExampleToken",
        "label": "_name",
        "offset": 0,
        "slot": "3",
        "type": "t_string_storage"
      },
      {
        "astId": 9378,
        "contract": "contracts/ExampleToken.sol:ExampleToken",
        "label": "_symbol",
        "offset": 0,
        "slot": "4",
        "type": "t_string_storage"
      },
      {
        "astId": 10959,
        "contract": "contracts/ExampleToken.sol:ExampleToken",
        "label": "_nameFallback",
        "offset": 0,
        "slot": "5",
        "type": "t_string_storage"
      },
      {
        "astId": 10961,
        "contract": "contracts/ExampleToken.sol:ExampleToken",
        "label": "_versionFallback",
        "offset": 0,
        "slot": "6",
        "type": "t_string_storage"
      },
      {
        "astId": 13731,
        "contract": "contracts/ExampleToken.sol:ExampleToken",
        "label": "_encBalances",
        "offset": 0,
        "slot": "7",
        "type": "t_mapping(t_address,t_userDefinedValueType(euint32)12)"
      },
      {
        "astId": 13738,
        "contract": "contracts/ExampleToken.sol:ExampleToken",
        "label": "_allowed",
        "offset": 0,
        "slot": "8",
        "type": "t_mapping(t_address,t_mapping(t_address,t_userDefinedValueType(euint32)12))"
      },
      {
        "astId": 13745,
        "contract": "contracts/ExampleToken.sol:ExampleToken",
        "label": "totalEncryptedSupply",
        "offset": 0,
        "slot": "9",
        "type": "t_userDefinedValueType(euint32)12"
      },
      {
        "astId": 8829,
        "contract": "contracts/ExampleToken.sol:ExampleToken",
        "label": "_roles",
        "offset": 0,
        "slot": "10",
        "type": "t_mapping(t_bytes32,t_struct(RoleData)8824_storage)"
      }
    ],
    "types": {
      "t_address": {
        "encoding": "inplace",
        "label": "address",
        "numberOfBytes": "20"
      },
      "t_bool": {
        "encoding": "inplace",
        "label": "bool",
        "numberOfBytes": "1"
      },
      "t_bytes32": {
        "encoding": "inplace",
        "label": "bytes32",
        "numberOfBytes": "32"
      },
      "t_mapping(t_address,t_bool)": {
        "encoding": "mapping",
        "key": "t_address",
        "label": "mapping(address => bool)",
        "numberOfBytes": "32",
        "value": "t_bool"
      },
      "t_mapping(t_address,t_mapping(t_address,t_uint256))": {
        "encoding": "mapping",
        "key": "t_address",
        "label": "mapping(address => mapping(address => uint256))",
        "numberOfBytes": "32",
        "value": "t_mapping(t_address,t_uint256)"
      },
      "t_mapping(t_address,t_mapping(t_address,t_userDefinedValueType(euint32)12))": {
        "encoding": "mapping",
        "key": "t_address",
        "label": "mapping(address => mapping(address => euint32))",
        "numberOfBytes": "32",
        "value": "t_mapping(t_address,t_userDefinedValueType(euint32)12)"
      },
      "t_mapping(t_address,t_uint256)": {
        "encoding": "mapping",
        "key": "t_address",
        "label": "mapping(address => uint256)",
        "numberOfBytes": "32",
        "value": "t_uint256"
      },
      "t_mapping(t_address,t_userDefinedValueType(euint32)12)": {
        "encoding": "mapping",
        "key": "t_address",
        "label": "mapping(address => euint32)",
        "numberOfBytes": "32",
        "value": "t_userDefinedValueType(euint32)12"
      },
      "t_mapping(t_bytes32,t_struct(RoleData)8824_storage)": {
        "encoding": "mapping",
        "key": "t_bytes32",
        "label": "mapping(bytes32 => struct AccessControl.RoleData)",
        "numberOfBytes": "32",
        "value": "t_struct(RoleData)8824_storage"
      },
      "t_string_storage": {
        "encoding": "bytes",
        "label": "string",
        "numberOfBytes": "32"
      },
      "t_struct(RoleData)8824_storage": {
        "encoding": "inplace",
        "label": "struct AccessControl.RoleData",
        "members": [
          {
            "astId": 8821,
            "contract": "contracts/ExampleToken.sol:ExampleToken",
            "label": "hasRole",
            "offset": 0,
            "slot": "0",
            "type": "t_mapping(t_address,t_bool)"
          },
          {
            "astId": 8823,
            "contract": "contracts/ExampleToken.sol:ExampleToken",
            "label": "adminRole",
            "offset": 0,
            "slot": "1",
            "type": "t_bytes32"
          }
        ],
        "numberOfBytes": "64"
      },
      "t_uint256": {
        "encoding": "inplace",
        "label": "uint256",
        "numberOfBytes": "32"
      },
      "t_userDefinedValueType(euint32)12": {
        "encoding": "inplace",
        "label": "euint32",
        "numberOfBytes": "32"
      }
    }
  }
}