{
  "_format": "hh-sol-artifact-1",
  "contractName": "ExampleToken",
  "sourceName": "contracts/ExampleToken.sol",
  "abi": [
    {
      "inputs": [
        {
          "internalType": "string",
          "name": "name",
          "type": "string"
        },
        {
          "internalType": "string",
          "name": "symbol",
          "type": "string"
        }
      ],
      "stateMutability": "nonpayable",
      "type": "constructor"
    },
    {
      "inputs": [],
      "name": "ECDSAInvalidSignature",
      "type": "error"
    },
    {
      "inputs": [
        {
          "internalType": "uint256",
          "name": "length",
          "type": "uint256"
        }
      ],
      "name": "ECDSAInvalidSignatureLength",
      "type": "error"
    },
    {
      "inputs": [
        {
          "internalType": "bytes32",
          "name": "s",
          "type": "bytes32"
        }
      ],
      "name": "ECDSAInvalidSignatureS",
      "type": "error"
    },
    {
      "inputs": [
        {
          "internalType": "address",
          "name": "spender",
          "type": "address"
        },
        {
          "internalType": "uint256",
          "name": "allowance",
          "type": "uint256"
        },
        {
          "internalType": "uint256",
          "name": "needed",
          "type": "uint256"
        }
      ],
      "name": "ERC20InsufficientAllowance",
      "type": "error"
    },
    {
      "inputs": [
        {
          "internalType": "address",
          "name": "sender",
          "type": "address"
        },
        {
          "internalType": "uint256",
          "name": "balance",
          "type": "uint256"
        },
        {
          "internalType": "uint256",
          "name": "needed",
          "type": "uint256"
        }
      ],
      "name": "ERC20InsufficientBalance",
      "type": "error"
    },
    {
      "inputs": [
        {
          "internalType": "address",
          "name": "approver",
          "type": "address"
        }
      ],
      "name": "ERC20InvalidApprover",
      "type": "error"
    },
    {
      "inputs": [
        {
          "internalType": "address",
          "name": "receiver",
          "type": "address"
        }
      ],
      "name": "ERC20InvalidReceiver",
      "type": "error"
    },
    {
      "inputs": [
        {
          "internalType": "address",
          "name": "sender",
          "type": "address"
        }
      ],
      "name": "ERC20InvalidSender",
      "type": "error"
    },
    {
      "inputs": [
        {
          "internalType": "address",
          "name": "spender",
          "type": "address"
        }
      ],
      "name": "ERC20InvalidSpender",
      "type": "error"
    },
    {
      "inputs": [],
      "name": "ErrorInsufficientFunds",
      "type": "error"
    },
    {
      "inputs": [],
      "name": "InvalidShortString",
      "type": "error"
    },
    {
      "inputs": [],
      "name": "SignerNotMessageSender",
      "type": "error"
    },
    {
      "inputs": [],
      "name": "SignerNotOwner",
      "type": "error"
    },
    {
      "inputs": [
        {
          "internalType": "string",
          "name": "str",
          "type": "string"
        }
      ],
      "name": "StringTooLong",
      "type": "error"
    },
    {
      "anonymous": false,
      "inputs": [
        {
          "indexed": true,
          "internalType": "address",
          "name": "owner",
          "type": "address"
        },
        {
          "indexed": true,
          "internalType": "address",
          "name": "spender",
          "type": "address"
        },
        {
          "indexed": false,
          "internalType": "uint256",
          "name": "value",
          "type": "uint256"
        }
      ],
      "name": "Approval",
      "type": "event"
    },
    {
      "anonymous": false,
      "inputs": [
        {
          "indexed": true,
          "internalType": "address",
          "name": "owner",
          "type": "address"
        },
        {
          "indexed": true,
          "internalType": "address",
          "name": "spender",
          "type": "address"
        }
      ],
      "name": "ApprovalEncrypted",
      "type": "event"
    },
    {
      "anonymous": false,
      "inputs": [],
      "name": "EIP712DomainChanged",
      "type": "event"
    },
    {
      "anonymous": false,
      "inputs": [
        {
          "indexed": true,
          "internalType": "address",
          "name": "from",
          "type": "address"
        },
        {
          "indexed": true,
          "internalType": "address",
          "name": "to",
          "type": "address"
        },
        {
          "indexed": false,
          "internalType": "uint256",
          "name": "value",
          "type": "uint256"
        }
      ],
      "name": "Transfer",
      "type": "event"
    },
    {
      "anonymous": false,
      "inputs": [
        {
          "indexed": true,
          "internalType": "address",
          "name": "from",
          "type": "address"
        },
        {
          "indexed": true,
          "internalType": "address",
          "name": "to",
          "type": "address"
        }
      ],
      "name": "TransferEncrypted",
      "type": "event"
    },
    {
      "inputs": [
        {
          "internalType": "address",
          "name": "owner",
          "type": "address"
        },
        {
          "internalType": "address",
          "name": "spender",
          "type": "address"
        }
      ],
      "name": "_allowanceEncrypted",
      "outputs": [
        {
          "internalType": "euint32",
          "name": "",
          "type": "uint256"
        }
      ],
      "stateMutability": "view",
      "type": "function"
    },
    {
      "inputs": [
        {
          "internalType": "address",
          "name": "owner",
          "type": "address"
        },
        {
          "internalType": "address",
          "name": "spender",
          "type": "address"
        }
      ],
      "name": "allowance",
      "outputs": [
        {
          "internalType": "uint256",
          "name": "",
          "type": "uint256"
        }
      ],
      "stateMutability": "view",
      "type": "function"
    },
    {
      "inputs": [
        {
          "internalType": "address",
          "name": "spender",
          "type": "address"
        },
        {
          "components": [
            {
              "internalType": "bytes32",
              "name": "publicKey",
              "type": "bytes32"
            },
            {
              "internalType": "bytes",
              "name": "signature",
              "type": "bytes"
            }
          ],
          "internalType": "struct Permission",
          "name": "permission",
          "type": "tuple"
        }
      ],
      "name": "allowanceEncrypted",
      "outputs": [
        {
          "internalType": "string",
          "name": "",
          "type": "string"
        }
      ],
      "stateMutability": "view",
      "type": "function"
    },
    {
      "inputs": [
        {
          "internalType": "address",
          "name": "spender",
          "type": "address"
        },
        {
          "internalType": "uint256",
          "name": "value",
          "type": "uint256"
        }
      ],
      "name": "approve",
      "outputs": [
        {
          "internalType": "bool",
          "name": "",
          "type": "bool"
        }
      ],
      "stateMutability": "nonpayable",
      "type": "function"
    },
    {
      "inputs": [
        {
          "internalType": "address",
          "name": "spender",
          "type": "address"
        },
        {
          "components": [
            {
              "internalType": "bytes",
              "name": "data",
              "type": "bytes"
            }
          ],
          "internalType": "struct inEuint32",
          "name": "value",
          "type": "tuple"
        }
      ],
      "name": "approveEncrypted",
      "outputs": [
        {
          "internalType": "bool",
          "name": "",
          "type": "bool"
        }
      ],
      "stateMutability": "nonpayable",
      "type": "function"
    },
    {
      "inputs": [
        {
          "internalType": "address",
          "name": "account",
          "type": "address"
        }
      ],
      "name": "balanceOf",
      "outputs": [
        {
          "internalType": "uint256",
          "name": "",
          "type": "uint256"
        }
      ],
      "stateMutability": "view",
      "type": "function"
    },
    {
      "inputs": [
        {
          "internalType": "address",
          "name": "account",
          "type": "address"
        },
        {
          "components": [
            {
              "internalType": "bytes32",
              "name": "publicKey",
              "type": "bytes32"
            },
            {
              "internalType": "bytes",
              "name": "signature",
              "type": "bytes"
            }
          ],
          "internalType": "struct Permission",
          "name": "auth",
          "type": "tuple"
        }
      ],
      "name": "balanceOfEncrypted",
      "outputs": [
        {
          "internalType": "string",
          "name": "",
          "type": "string"
        }
      ],
      "stateMutability": "view",
      "type": "function"
    },
    {
      "inputs": [],
      "name": "decimals",
      "outputs": [
        {
          "internalType": "uint8",
          "name": "",
          "type": "uint8"
        }
      ],
      "stateMutability": "view",
      "type": "function"
    },
    {
      "inputs": [],
      "name": "eip712Domain",
      "outputs": [
        {
          "internalType": "bytes1",
          "name": "fields",
          "type": "bytes1"
        },
        {
          "internalType": "string",
          "name": "name",
          "type": "string"
        },
        {
          "internalType": "string",
          "name": "version",
          "type": "string"
        },
        {
          "internalType": "uint256",
          "name": "chainId",
          "type": "uint256"
        },
        {
          "internalType": "address",
          "name": "verifyingContract",
          "type": "address"
        },
        {
          "internalType": "bytes32",
          "name": "salt",
          "type": "bytes32"
        },
        {
          "internalType": "uint256[]",
          "name": "extensions",
          "type": "uint256[]"
        }
      ],
      "stateMutability": "view",
      "type": "function"
    },
    {
      "inputs": [
        {
          "internalType": "uint256",
          "name": "amount",
          "type": "uint256"
        }
      ],
      "name": "mint",
      "outputs": [],
      "stateMutability": "nonpayable",
      "type": "function"
    },
    {
      "inputs": [
        {
          "components": [
            {
              "internalType": "bytes",
              "name": "data",
              "type": "bytes"
            }
          ],
          "internalType": "struct inEuint32",
          "name": "encryptedAmount",
          "type": "tuple"
        }
      ],
      "name": "mintEncrypted",
      "outputs": [],
      "stateMutability": "nonpayable",
      "type": "function"
    },
    {
      "inputs": [],
      "name": "name",
      "outputs": [
        {
          "internalType": "string",
          "name": "",
          "type": "string"
        }
      ],
      "stateMutability": "view",
      "type": "function"
    },
    {
      "inputs": [],
      "name": "symbol",
      "outputs": [
        {
          "internalType": "string",
          "name": "",
          "type": "string"
        }
      ],
      "stateMutability": "view",
      "type": "function"
    },
    {
      "inputs": [],
      "name": "totalSupply",
      "outputs": [
        {
          "internalType": "uint256",
          "name": "",
          "type": "uint256"
        }
      ],
      "stateMutability": "view",
      "type": "function"
    },
    {
      "inputs": [
        {
          "internalType": "address",
          "name": "to",
          "type": "address"
        },
        {
          "internalType": "uint256",
          "name": "value",
          "type": "uint256"
        }
      ],
      "name": "transfer",
      "outputs": [
        {
          "internalType": "bool",
          "name": "",
          "type": "bool"
        }
      ],
      "stateMutability": "nonpayable",
      "type": "function"
    },
    {
      "inputs": [
        {
          "internalType": "address",
          "name": "to",
          "type": "address"
        },
        {
          "components": [
            {
              "internalType": "bytes",
              "name": "data",
              "type": "bytes"
            }
          ],
          "internalType": "struct inEuint32",
          "name": "encryptedAmount",
          "type": "tuple"
        }
      ],
      "name": "transferEncrypted",
      "outputs": [
        {
          "internalType": "euint32",
          "name": "",
          "type": "uint256"
        }
      ],
      "stateMutability": "nonpayable",
      "type": "function"
    },
    {
      "inputs": [
        {
          "internalType": "address",
          "name": "to",
          "type": "address"
        },
        {
          "internalType": "euint32",
          "name": "amount",
          "type": "uint256"
        }
      ],
      "name": "transferEncrypted",
      "outputs": [
        {
          "internalType": "euint32",
          "name": "",
          "type": "uint256"
        }
      ],
      "stateMutability": "nonpayable",
      "type": "function"
    },
    {
      "inputs": [
        {
          "internalType": "address",
          "name": "from",
          "type": "address"
        },
        {
          "internalType": "address",
          "name": "to",
          "type": "address"
        },
        {
          "internalType": "uint256",
          "name": "value",
          "type": "uint256"
        }
      ],
      "name": "transferFrom",
      "outputs": [
        {
          "internalType": "bool",
          "name": "",
          "type": "bool"
        }
      ],
      "stateMutability": "nonpayable",
      "type": "function"
    },
    {
      "inputs": [
        {
          "internalType": "address",
          "name": "from",
          "type": "address"
        },
        {
          "internalType": "address",
          "name": "to",
          "type": "address"
        },
        {
          "components": [
            {
              "internalType": "bytes",
              "name": "data",
              "type": "bytes"
            }
          ],
          "internalType": "struct inEuint32",
          "name": "value",
          "type": "tuple"
        }
      ],
      "name": "transferFromEncrypted",
      "outputs": [
        {
          "internalType": "euint32",
          "name": "",
          "type": "uint256"
        }
      ],
      "stateMutability": "nonpayable",
      "type": "function"
    },
    {
      "inputs": [
        {
          "internalType": "address",
          "name": "from",
          "type": "address"
        },
        {
          "internalType": "address",
          "name": "to",
          "type": "address"
        },
        {
          "internalType": "euint32",
          "name": "value",
          "type": "uint256"
        }
      ],
      "name": "transferFromEncrypted",
      "outputs": [
        {
          "internalType": "euint32",
          "name": "",
          "type": "uint256"
        }
      ],
      "stateMutability": "nonpayable",
      "type": "function"
    },
    {
      "inputs": [
        {
          "internalType": "uint32",
          "name": "amount",
          "type": "uint32"
        }
      ],
      "name": "unwrap",
      "outputs": [],
      "stateMutability": "nonpayable",
      "type": "function"
    },
    {
      "inputs": [
        {
          "internalType": "uint32",
          "name": "amount",
          "type": "uint32"
        }
      ],
      "name": "wrap",
      "outputs": [],
      "stateMutability": "nonpayable",
      "type": "function"
    }
  ],
  "bytecode": "0x6101606040526200001760006200022b60201b60201c565b6009553480156200002757600080fd5b50604051620045f8380380620045f883398181016040528101906200004d91906200062c565b60008251146200005e578162000095565b6040518060400160405280600981526020017f46484520546f6b656e00000000000000000000000000000000000000000000008152505b6000825114620000a65781620000dd565b6040518060400160405280600381526020017f46484500000000000000000000000000000000000000000000000000000000008152505b6040518060400160405280601181526020017f4668656e6978205065726d697373696f6e0000000000000000000000000000008152506040518060400160405280600381526020017f312e300000000000000000000000000000000000000000000000000000000000815250838381600390816200015c9190620008fc565b5080600490816200016e9190620008fc565b505050620001876005836200024760201b90919060201c565b6101208181525050620001a56006826200024760201b90919060201c565b6101408181525050818051906020012060e08181525050808051906020012061010081815250504660a08181525050620001e46200029f60201b60201c565b608081815250503073ffffffffffffffffffffffffffffffffffffffff1660c08173ffffffffffffffffffffffffffffffffffffffff168152505050505050505062000d72565b600062000240826002620002fc60201b60201c565b9050919050565b60006020835110156200026d576200026583620003b360201b60201c565b905062000299565b826200027f836200042060201b60201c565b6000019081620002909190620008fc565b5060ff60001b90505b92915050565b60007f8b73c3c69bb8fe3d512ecc4cf759cc79239f7b179b0ffacaa9a75d522b39400f60e051610100514630604051602001620002e195949392919062000a54565b60405160208183030381529060405280519060200120905090565b60006060608073ffffffffffffffffffffffffffffffffffffffff166319e1c5c46200032e866200042a60201b60201c565b856040518363ffffffff1660e01b81526004016200034e92919062000b2c565b600060405180830381865afa1580156200036c573d6000803e3d6000fd5b505050506040513d6000823e3d601f19601f8201168201806040525081019062000397919062000c14565b9050620003aa816200048b60201b60201c565b91505092915050565b600080829050601f815111156200040357826040517f305a27a9000000000000000000000000000000000000000000000000000000008152600401620003fa919062000cb7565b60405180910390fd5b805181620004119062000d02565b60001c1760001b915050919050565b6000819050919050565b6060602067ffffffffffffffff8111156200044a5762000449620004c8565b5b6040519080825280601f01601f1916602001820160405280156200047d5781602001600182028036833780820191505090505b509050816020820152919050565b600060208201519050919050565b6000604051905090565b600080fd5b600080fd5b600080fd5b600080fd5b6000601f19601f8301169050919050565b7f4e487b7100000000000000000000000000000000000000000000000000000000600052604160045260246000fd5b6200050282620004b7565b810181811067ffffffffffffffff82111715620005245762000523620004c8565b5b80604052505050565b60006200053962000499565b9050620005478282620004f7565b919050565b600067ffffffffffffffff8211156200056a5762000569620004c8565b5b6200057582620004b7565b9050602081019050919050565b60005b83811015620005a257808201518184015260208101905062000585565b60008484015250505050565b6000620005c5620005bf846200054c565b6200052d565b905082815260208101848484011115620005e457620005e3620004b2565b5b620005f184828562000582565b509392505050565b600082601f830112620006115762000610620004ad565b5b815162000623848260208601620005ae565b91505092915050565b60008060408385031215620006465762000645620004a3565b5b600083015167ffffffffffffffff811115620006675762000666620004a8565b5b6200067585828601620005f9565b925050602083015167ffffffffffffffff811115620006995762000698620004a8565b5b620006a785828601620005f9565b9150509250929050565b600081519050919050565b7f4e487b7100000000000000000000000000000000000000000000000000000000600052602260045260246000fd5b600060028204905060018216806200070457607f821691505b6020821081036200071a5762000719620006bc565b5b50919050565b60008190508160005260206000209050919050565b60006020601f8301049050919050565b600082821b905092915050565b600060088302620007847fffffffffffffffffffffffffffffffffffffffffffffffffffffffffffffffff8262000745565b62000790868362000745565b95508019841693508086168417925050509392505050565b6000819050919050565b6000819050919050565b6000620007dd620007d7620007d184620007a8565b620007b2565b620007a8565b9050919050565b6000819050919050565b620007f983620007bc565b620008116200080882620007e4565b84845462000752565b825550505050565b600090565b6200082862000819565b62000835818484620007ee565b505050565b5b818110156200085d57620008516000826200081e565b6001810190506200083b565b5050565b601f821115620008ac57620008768162000720565b620008818462000735565b8101602085101562000891578190505b620008a9620008a08562000735565b8301826200083a565b50505b505050565b600082821c905092915050565b6000620008d160001984600802620008b1565b1980831691505092915050565b6000620008ec8383620008be565b9150826002028217905092915050565b6200090782620006b1565b67ffffffffffffffff811115620009235762000922620004c8565b5b6200092f8254620006eb565b6200093c82828562000861565b600060209050601f8311600181146200097457600084156200095f578287015190505b6200096b8582620008de565b865550620009db565b601f198416620009848662000720565b60005b82811015620009ae5784890151825560018201915060208501945060208101905062000987565b86831015620009ce5784890151620009ca601f891682620008be565b8355505b6001600288020188555050505b505050505050565b6000819050919050565b620009f881620009e3565b82525050565b62000a0981620007a8565b82525050565b600073ffffffffffffffffffffffffffffffffffffffff82169050919050565b600062000a3c8262000a0f565b9050919050565b62000a4e8162000a2f565b82525050565b600060a08201905062000a6b6000830188620009ed565b62000a7a6020830187620009ed565b62000a896040830186620009ed565b62000a986060830185620009fe565b62000aa7608083018462000a43565b9695505050505050565b600081519050919050565b600082825260208201905092915050565b600062000ada8262000ab1565b62000ae6818562000abc565b935062000af881856020860162000582565b62000b0381620004b7565b840191505092915050565b600060ff82169050919050565b62000b268162000b0e565b82525050565b6000604082019050818103600083015262000b48818562000acd565b905062000b59602083018462000b1b565b9392505050565b600067ffffffffffffffff82111562000b7e5762000b7d620004c8565b5b62000b8982620004b7565b9050602081019050919050565b600062000bad62000ba78462000b60565b6200052d565b90508281526020810184848401111562000bcc5762000bcb620004b2565b5b62000bd984828562000582565b509392505050565b600082601f83011262000bf95762000bf8620004ad565b5b815162000c0b84826020860162000b96565b91505092915050565b60006020828403121562000c2d5762000c2c620004a3565b5b600082015167ffffffffffffffff81111562000c4e5762000c4d620004a8565b5b62000c5c8482850162000be1565b91505092915050565b600082825260208201905092915050565b600062000c8382620006b1565b62000c8f818562000c65565b935062000ca181856020860162000582565b62000cac81620004b7565b840191505092915050565b6000602082019050818103600083015262000cd3818462000c76565b905092915050565b6000819050602082019050919050565b600062000cf98251620009e3565b80915050919050565b600062000d0f8262000ab1565b8262000d1b8462000cdb565b905062000d288162000ceb565b9250602082101562000d6b5762000d667fffffffffffffffffffffffffffffffffffffffffffffffffffffffffffffffff8360200360080262000745565b831692505b5050919050565b60805160a05160c05160e05161010051610120516101405161382b62000dcd600039600061139a0152600061135f0152600061248a0152600061246901526000611bb701526000611c0d01526000611c36015261382b6000f3fe608060405234801561001057600080fd5b50600436106101425760003560e01c806384b0196e116100b8578063a9059cbb1161007c578063a9059cbb146103b7578063af575a00146103e7578063c4224c1914610417578063d918156e14610447578063dd62ed3e14610477578063f4b8ef15146104a757610142565b806384b0196e1461030d5780638624a3491461033157806395d89b41146103615780639f284be71461037f578063a0712d681461039b57610142565b8063313ce5671161010a578063313ce5671461021357806339c217f7146102315780635356c4291461026157806360277204146102915780636e0505e1146102c157806370a08231146102dd57610142565b806306fdde0314610147578063095ea7b31461016557806318160ddd1461019557806323b872dd146101b357806323db9354146101e3575b600080fd5b61014f6104c3565b60405161015c919061284b565b60405180910390f35b61017f600480360381019061017a9190612915565b610555565b60405161018c9190612970565b60405180910390f35b61019d610578565b6040516101aa919061299a565b60405180910390f35b6101cd60048036038101906101c891906129b5565b610582565b6040516101da9190612970565b60405180910390f35b6101fd60048036038101906101f89190612a08565b6105b1565b60405161020a9190612a83565b60405180910390f35b61021b610638565b6040516102289190612aba565b60405180910390f35b61024b60048036038101906102469190612af9565b610641565b6040516102589190612a83565b60405180910390f35b61027b60048036038101906102769190612b74565b610666565b604051610288919061284b565b60405180910390f35b6102ab60048036038101906102a69190612db1565b610764565b6040516102b8919061284b565b60405180910390f35b6102db60048036038101906102d69190612e49565b61089a565b005b6102f760048036038101906102f29190612e76565b6109d1565b604051610304919061299a565b60405180910390f35b610315610a19565b6040516103289796959493929190612fba565b60405180910390f35b61034b6004803603810190610346919061303e565b610ac3565b6040516103589190612a83565b60405180910390f35b610369610b01565b604051610376919061284b565b60405180910390f35b61039960048036038101906103949190612e49565b610b93565b005b6103b560048036038101906103b091906130ad565b610ca0565b005b6103d160048036038101906103cc9190612915565b610cad565b6040516103de9190612970565b60405180910390f35b61040160048036038101906103fc9190613106565b610cd0565b60405161040e9190612a83565b60405180910390f35b610431600480360381019061042c9190613159565b610cfd565b60405161043e9190612a83565b60405180910390f35b610461600480360381019061045c9190612af9565b610d12565b60405161046e9190612970565b60405180910390f35b610491600480360381019061048c9190612a08565b610d3a565b60405161049e919061299a565b60405180910390f35b6104c160048036038101906104bc9190613199565b610dc1565b005b6060600380546104d290613211565b80601f01602080910402602001604051908101604052809291908181526020018280546104fe90613211565b801561054b5780601f106105205761010080835404028352916020019161054b565b820191906000526020600020905b81548152906001019060200180831161052e57829003601f168201915b5050505050905090565b600080610560610f0f565b905061056d818585610f17565b600191505092915050565b6000600254905090565b60008061058d610f0f565b905061059a858285610f29565b6105a5858585610fbd565b60019150509392505050565b6000600860008473ffffffffffffffffffffffffffffffffffffffff1673ffffffffffffffffffffffffffffffffffffffff16815260200190815260200160002060008373ffffffffffffffffffffffffffffffffffffffff1673ffffffffffffffffffffffffffffffffffffffff16815260200190815260200160002054905092915050565b60006012905090565b600061065e83610659846106549061329a565b6110b1565b610cfd565b905092915050565b606081610672906132ad565b60006106c97f6bdaeb2d29561f159c7ef98b16b27015fb2aeb87209c7ee656226d912f59927d83600001516040516020016106ae9291906132c0565b604051602081830303815290604052805190602001206110c7565b905060006106db8284602001516110e1565b90503373ffffffffffffffffffffffffffffffffffffffff168173ffffffffffffffffffffffffffffffffffffffff1614610742576040517f3093a27700000000000000000000000000000000000000000000000000000000815260040160405180910390fd5b61075961074f33886105b1565b866000013561110d565b935050505092915050565b6060818360006107bf7f6bdaeb2d29561f159c7ef98b16b27015fb2aeb87209c7ee656226d912f59927d84600001516040516020016107a49291906132c0565b604051602081830303815290604052805190602001206110c7565b905060006107d18285602001516110e1565b90508273ffffffffffffffffffffffffffffffffffffffff168173ffffffffffffffffffffffffffffffffffffffff1614610838576040517f51c65eae00000000000000000000000000000000000000000000000000000000815260040160405180910390fd5b61088e8660000151600760008a73ffffffffffffffffffffffffffffffffffffffff1673ffffffffffffffffffffffffffffffffffffffff1681526020019081526020016000205461114390919063ffffffff16565b94505050505092915050565b60006108ab8263ffffffff16611157565b9050600061091461090483600760003373ffffffffffffffffffffffffffffffffffffffff1673ffffffffffffffffffffffffffffffffffffffff1681526020019081526020016000205461116b90919063ffffffff16565b61090e6000611157565b8461117f565b905061095f600760003373ffffffffffffffffffffffffffffffffffffffff1673ffffffffffffffffffffffffffffffffffffffff16815260200190815260200160002054826111fd565b600760003373ffffffffffffffffffffffffffffffffffffffff1673ffffffffffffffffffffffffffffffffffffffff168152602001908152602001600020819055506109ae600954826111fd565b6009819055506109cc336109c183611211565b63ffffffff166112d4565b505050565b60008060008373ffffffffffffffffffffffffffffffffffffffff1673ffffffffffffffffffffffffffffffffffffffff168152602001908152602001600020549050919050565b600060608060008060006060610a2d611356565b610a35611391565b46306000801b600067ffffffffffffffff811115610a5657610a55612bd5565b5b604051908082528060200260200182016040528015610a845781602001602082028036833780820191505090505b507f0f00000000000000000000000000000000000000000000000000000000000000959493929190965096509650965096509650965090919293949596565b600080610ad883610ad39061329a565b6110b1565b90506000610ae78633846113cc565b9050610af4868683611409565b5080925050509392505050565b606060048054610b1090613211565b80601f0160208091040260200160405190810160405280929190818152602001828054610b3c90613211565b8015610b895780601f10610b5e57610100808354040283529160200191610b89565b820191906000526020600020905b815481529060010190602001808311610b6c57829003601f168201915b5050505050905090565b8063ffffffff16610ba3336109d1565b1015610bdb576040517ffda7bbda00000000000000000000000000000000000000000000000000000000815260040160405180910390fd5b610beb338263ffffffff16611596565b6000610bfc8263ffffffff16611157565b9050610c47600760003373ffffffffffffffffffffffffffffffffffffffff1673ffffffffffffffffffffffffffffffffffffffff1681526020019081526020016000205482611618565b600760003373ffffffffffffffffffffffffffffffffffffffff1673ffffffffffffffffffffffffffffffffffffffff16815260200190815260200160002081905550610c9660095482611618565b6009819055505050565b610caa33826112d4565b50565b600080610cb8610f0f565b9050610cc5818585610fbd565b600191505092915050565b6000808290506000610ce38633846113cc565b9050610cf0868683611409565b5080925050509392505050565b6000610d0a338484611409565b905092915050565b6000610d303384610d2b85610d269061329a565b6110b1565b61162c565b6001905092915050565b6000600160008473ffffffffffffffffffffffffffffffffffffffff1673ffffffffffffffffffffffffffffffffffffffff16815260200190815260200160002060008373ffffffffffffffffffffffffffffffffffffffff1673ffffffffffffffffffffffffffffffffffffffff16815260200190815260200160002054905092915050565b6000610dd582610dd09061329a565b6110b1565b9050610e1f600760003373ffffffffffffffffffffffffffffffffffffffff1673ffffffffffffffffffffffffffffffffffffffff16815260200190815260200160002054611796565b610e6c5780600760003373ffffffffffffffffffffffffffffffffffffffff1673ffffffffffffffffffffffffffffffffffffffff16815260200190815260200160002081905550610ef9565b610eb5600760003373ffffffffffffffffffffffffffffffffffffffff1673ffffffffffffffffffffffffffffffffffffffff1681526020019081526020016000205482611618565b600760003373ffffffffffffffffffffffffffffffffffffffff1673ffffffffffffffffffffffffffffffffffffffff168152602001908152602001600020819055505b610f0560095482611618565b6009819055505050565b600033905090565b610f2483838360016117a3565b505050565b6000610f358484610d3a565b90507fffffffffffffffffffffffffffffffffffffffffffffffffffffffffffffffff8114610fb75781811015610fa7578281836040517ffb8f41b2000000000000000000000000000000000000000000000000000000008152600401610f9e939291906132e9565b60405180910390fd5b610fb6848484840360006117a3565b5b50505050565b600073ffffffffffffffffffffffffffffffffffffffff168373ffffffffffffffffffffffffffffffffffffffff160361102f5760006040517f96c6fd1e0000000000000000000000000000000000000000000000000000000081526004016110269190613320565b60405180910390fd5b600073ffffffffffffffffffffffffffffffffffffffff168273ffffffffffffffffffffffffffffffffffffffff16036110a15760006040517fec442f050000000000000000000000000000000000000000000000000000000081526004016110989190613320565b60405180910390fd5b6110ac83838361197a565b505050565b60006110c08260000151611b9f565b9050919050565b60006110da6110d4611bb3565b83611c6a565b9050919050565b6000806000806110f18686611cab565b9250925092506111018282611d07565b82935050505092915050565b606061111883611796565b611129576111266000611157565b92505b600083905061113a60028285611e6b565b91505092915050565b606061114f838361110d565b905092915050565b6000611164826002611f21565b9050919050565b60006111778383611fc3565b905092915050565b600061118a8461203c565b61119b576111986000612049565b93505b6111a483611796565b6111b5576111b26000611157565b92505b6111be82611796565b6111cf576111cc6000611157565b91505b60008490506000849050600084905060006111ed600285858561205d565b9050809450505050509392505050565b60006112098383612115565b905092915050565b600061121c82611796565b61122d5761122a6000611157565b91505b6000829050600061123d8261218e565b90506000608073ffffffffffffffffffffffffffffffffffffffff166373cc01546002846040518363ffffffff1660e01b815260040161127e929190613390565b602060405180830381865afa15801561129b573d6000803e3d6000fd5b505050506040513d601f19601f820116820180604052508101906112bf91906133d5565b90506112ca816121eb565b9350505050919050565b600073ffffffffffffffffffffffffffffffffffffffff168273ffffffffffffffffffffffffffffffffffffffff16036113465760006040517fec442f0500000000000000000000000000000000000000000000000000000000815260040161133d9190613320565b60405180910390fd5b6113526000838361197a565b5050565b606061138c60057f00000000000000000000000000000000000000000000000000000000000000006121f590919063ffffffff16565b905090565b60606113c760067f00000000000000000000000000000000000000000000000000000000000000006121f590919063ffffffff16565b905090565b6000806113d985856105b1565b905060006113e782856122a5565b90506113fd86866113f885856111fd565b61162c565b80925050509392505050565b600080611471611461600760008873ffffffffffffffffffffffffffffffffffffffff1673ffffffffffffffffffffffffffffffffffffffff168152602001908152602001600020548561231e90919063ffffffff16565b8461146c6000611157565b61117f565b90506114bc600760008673ffffffffffffffffffffffffffffffffffffffff1673ffffffffffffffffffffffffffffffffffffffff1681526020019081526020016000205482611618565b600760008673ffffffffffffffffffffffffffffffffffffffff1673ffffffffffffffffffffffffffffffffffffffff16815260200190815260200160002081905550611548600760008773ffffffffffffffffffffffffffffffffffffffff1673ffffffffffffffffffffffffffffffffffffffff16815260200190815260200160002054826111fd565b600760008773ffffffffffffffffffffffffffffffffffffffff1673ffffffffffffffffffffffffffffffffffffffff16815260200190815260200160002081905550809150509392505050565b600073ffffffffffffffffffffffffffffffffffffffff168273ffffffffffffffffffffffffffffffffffffffff16036116085760006040517f96c6fd1e0000000000000000000000000000000000000000000000000000000081526004016115ff9190613320565b60405180910390fd5b6116148260008361197a565b5050565b60006116248383612332565b905092915050565b600073ffffffffffffffffffffffffffffffffffffffff168373ffffffffffffffffffffffffffffffffffffffff160361169e5760006040517fe602df050000000000000000000000000000000000000000000000000000000081526004016116959190613320565b60405180910390fd5b600073ffffffffffffffffffffffffffffffffffffffff168273ffffffffffffffffffffffffffffffffffffffff16036117105760006040517f94280d620000000000000000000000000000000000000000000000000000000081526004016117079190613320565b60405180910390fd5b80600860008573ffffffffffffffffffffffffffffffffffffffff1673ffffffffffffffffffffffffffffffffffffffff16815260200190815260200160002060008473ffffffffffffffffffffffffffffffffffffffff1673ffffffffffffffffffffffffffffffffffffffff16815260200190815260200160002081905550505050565b6000808214159050919050565b600073ffffffffffffffffffffffffffffffffffffffff168473ffffffffffffffffffffffffffffffffffffffff16036118155760006040517fe602df0500000000000000000000000000000000000000000000000000000000815260040161180c9190613320565b60405180910390fd5b600073ffffffffffffffffffffffffffffffffffffffff168373ffffffffffffffffffffffffffffffffffffffff16036118875760006040517f94280d6200000000000000000000000000000000000000000000000000000000815260040161187e9190613320565b60405180910390fd5b81600160008673ffffffffffffffffffffffffffffffffffffffff1673ffffffffffffffffffffffffffffffffffffffff16815260200190815260200160002060008573ffffffffffffffffffffffffffffffffffffffff1673ffffffffffffffffffffffffffffffffffffffff168152602001908152602001600020819055508015611974578273ffffffffffffffffffffffffffffffffffffffff168473ffffffffffffffffffffffffffffffffffffffff167f8c5be1e5ebec7d5bd14f71427d1e84f3dd0314c0f7b2291e5b200ac8c7c3b9258460405161196b919061299a565b60405180910390a35b50505050565b600073ffffffffffffffffffffffffffffffffffffffff168373ffffffffffffffffffffffffffffffffffffffff16036119cc5780600260008282546119c09190613431565b92505081905550611a9f565b60008060008573ffffffffffffffffffffffffffffffffffffffff1673ffffffffffffffffffffffffffffffffffffffff16815260200190815260200160002054905081811015611a58578381836040517fe450d38c000000000000000000000000000000000000000000000000000000008152600401611a4f939291906132e9565b60405180910390fd5b8181036000808673ffffffffffffffffffffffffffffffffffffffff1673ffffffffffffffffffffffffffffffffffffffff16815260200190815260200160002081905550505b600073ffffffffffffffffffffffffffffffffffffffff168273ffffffffffffffffffffffffffffffffffffffff1603611ae85780600260008282540392505081905550611b35565b806000808473ffffffffffffffffffffffffffffffffffffffff1673ffffffffffffffffffffffffffffffffffffffff168152602001908152602001600020600082825401925050819055505b8173ffffffffffffffffffffffffffffffffffffffff168373ffffffffffffffffffffffffffffffffffffffff167fddf252ad1be2c89b69c2b068fc378daa952ba7f163c4a11628f55a4df523b3ef83604051611b92919061299a565b60405180910390a3505050565b6000611bac8260026123aa565b9050919050565b60007f000000000000000000000000000000000000000000000000000000000000000073ffffffffffffffffffffffffffffffffffffffff163073ffffffffffffffffffffffffffffffffffffffff16148015611c2f57507f000000000000000000000000000000000000000000000000000000000000000046145b15611c5c577f00000000000000000000000000000000000000000000000000000000000000009050611c67565b611c64612444565b90505b90565b60006040517f190100000000000000000000000000000000000000000000000000000000000081528360028201528260228201526042812091505092915050565b60008060006041845103611cf05760008060006020870151925060408701519150606087015160001a9050611ce2888285856124da565b955095509550505050611d00565b60006002855160001b9250925092505b9250925092565b60006003811115611d1b57611d1a613465565b5b826003811115611d2e57611d2d613465565b5b0315611e675760016003811115611d4857611d47613465565b5b826003811115611d5b57611d5a613465565b5b03611d92576040517ff645eedf00000000000000000000000000000000000000000000000000000000815260040160405180910390fd5b60026003811115611da657611da5613465565b5b826003811115611db957611db8613465565b5b03611dfe578060001c6040517ffce698f7000000000000000000000000000000000000000000000000000000008152600401611df5919061299a565b60405180910390fd5b600380811115611e1157611e10613465565b5b826003811115611e2457611e23613465565b5b03611e6657806040517fd78bce0c000000000000000000000000000000000000000000000000000000008152600401611e5d9190613494565b60405180910390fd5b5b5050565b6060608073ffffffffffffffffffffffffffffffffffffffff1663a1848ff385611e948661218e565b85604051602001611ea591906134d0565b6040516020818303038152906040526040518463ffffffff1660e01b8152600401611ed2939291906134eb565b600060405180830381865afa158015611eef573d6000803e3d6000fd5b505050506040513d6000823e3d601f19601f82011682018060405250810190611f1891906135d1565b90509392505050565b60006060608073ffffffffffffffffffffffffffffffffffffffff166319e1c5c4611f4b8661218e565b856040518363ffffffff1660e01b8152600401611f6992919061361a565b600060405180830381865afa158015611f86573d6000803e3d6000fd5b505050506040513d6000823e3d601f19601f82011682018060405250810190611faf91906136ba565b9050611fba816125ce565b91505092915050565b6000611fce83611796565b611fdf57611fdc6000611157565b92505b611fe882611796565b611ff957611ff66000611157565b91505b60008390506000839050600061202e60028484608073ffffffffffffffffffffffffffffffffffffffff1663b9c7a54b6125dc565b905080935050505092915050565b6000808214159050919050565b600061205682600d611f21565b9050919050565b60006060608073ffffffffffffffffffffffffffffffffffffffff1663c2d96952876120888861218e565b6120918861218e565b61209a8861218e565b6040518563ffffffff1660e01b81526004016120b99493929190613703565b600060405180830381865afa1580156120d6573d6000803e3d6000fd5b505050506040513d6000823e3d601f19601f820116820180604052508101906120ff91906136ba565b905061210a816125ce565b915050949350505050565b600061212083611796565b6121315761212e6000611157565b92505b61213a82611796565b61214b576121486000611157565b91505b60008390506000839050600061218060028484608073ffffffffffffffffffffffffffffffffffffffff1663cc2cbeff6125dc565b905080935050505092915050565b6060602067ffffffffffffffff8111156121ab576121aa612bd5565b5b6040519080825280601f01601f1916602001820160405280156121dd5781602001600182028036833780820191505090505b509050816020820152919050565b6000819050919050565b606060ff60001b83146122125761220b83612670565b905061229f565b81805461221e90613211565b80601f016020809104026020016040519081016040528092919081815260200182805461224a90613211565b80156122975780601f1061226c57610100808354040283529160200191612297565b820191906000526020600020905b81548152906001019060200180831161227a57829003601f168201915b505050505090505b92915050565b60006122b083611796565b6122c1576122be6000611157565b92505b6122ca82611796565b6122db576122d86000611157565b91505b60008390506000839050600061231060028484608073ffffffffffffffffffffffffffffffffffffffff16635211c6796125dc565b905080935050505092915050565b600061232a83836126e4565b905092915050565b600061233d83611796565b61234e5761234b6000611157565b92505b61235782611796565b612368576123656000611157565b91505b60008390506000839050600061239c60028484608073ffffffffffffffffffffffffffffffffffffffff16622df6196125dc565b905080935050505092915050565b60006060608073ffffffffffffffffffffffffffffffffffffffff16635fa55ca784866040518363ffffffff1660e01b81526004016123ea929190613390565b600060405180830381865afa158015612407573d6000803e3d6000fd5b505050506040513d6000823e3d601f19601f8201168201806040525081019061243091906136ba565b905061243b816125ce565b91505092915050565b60007f8b73c3c69bb8fe3d512ecc4cf759cc79239f7b179b0ffacaa9a75d522b39400f7f00000000000000000000000000000000000000000000000000000000000000007f000000000000000000000000000000000000000000000000000000000000000046306040516020016124bf95949392919061375d565b60405160208183030381529060405280519060200120905090565b60008060007f7fffffffffffffffffffffffffffffff5d576e7357a4501ddfe92f46681b20a08460001c111561251a5760006003859250925092506125c4565b60006001888888886040516000815260200160405260405161253f94939291906137b0565b6020604051602081039080840390855afa158015612561573d6000803e3d6000fd5b505050602060405103519050600073ffffffffffffffffffffffffffffffffffffffff168173ffffffffffffffffffffffffffffffffffffffff16036125b557600060016000801b935093509350506125c4565b8060008060001b935093509350505b9450945094915050565b600060208201519050919050565b600060608383886125ec8961218e565b6125f58961218e565b6040518463ffffffff1660e01b8152600401612613939291906134eb565b600060405180830381865afa158015612630573d6000803e3d6000fd5b505050506040513d6000823e3d601f19601f8201168201806040525081019061265991906136ba565b90506126648161275d565b91505095945050505050565b6060600061267d8361276b565b90506000602067ffffffffffffffff81111561269c5761269b612bd5565b5b6040519080825280601f01601f1916602001820160405280156126ce5781602001600182028036833780820191505090505b5090508181528360208201528092505050919050565b60006126ef83611796565b612700576126fd6000611157565b92505b61270982611796565b61271a576127176000611157565b91505b60008390506000839050600061274f60028484608073ffffffffffffffffffffffffffffffffffffffff1663eb274b776125dc565b905080935050505092915050565b600060208201519050919050565b60008060ff8360001c169050601f8111156127b2576040517fb3512b0c00000000000000000000000000000000000000000000000000000000815260040160405180910390fd5b80915050919050565b600081519050919050565b600082825260208201905092915050565b60005b838110156127f55780820151818401526020810190506127da565b60008484015250505050565b6000601f19601f8301169050919050565b600061281d826127bb565b61282781856127c6565b93506128378185602086016127d7565b61284081612801565b840191505092915050565b600060208201905081810360008301526128658184612812565b905092915050565b6000604051905090565b600080fd5b600080fd5b600073ffffffffffffffffffffffffffffffffffffffff82169050919050565b60006128ac82612881565b9050919050565b6128bc816128a1565b81146128c757600080fd5b50565b6000813590506128d9816128b3565b92915050565b6000819050919050565b6128f2816128df565b81146128fd57600080fd5b50565b60008135905061290f816128e9565b92915050565b6000806040838503121561292c5761292b612877565b5b600061293a858286016128ca565b925050602061294b85828601612900565b9150509250929050565b60008115159050919050565b61296a81612955565b82525050565b60006020820190506129856000830184612961565b92915050565b612994816128df565b82525050565b60006020820190506129af600083018461298b565b92915050565b6000806000606084860312156129ce576129cd612877565b5b60006129dc868287016128ca565b93505060206129ed868287016128ca565b92505060406129fe86828701612900565b9150509250925092565b60008060408385031215612a1f57612a1e612877565b5b6000612a2d858286016128ca565b9250506020612a3e858286016128ca565b9150509250929050565b6000819050919050565b6000612a6d612a68612a63846128df565b612a48565b6128df565b9050919050565b612a7d81612a52565b82525050565b6000602082019050612a986000830184612a74565b92915050565b600060ff82169050919050565b612ab481612a9e565b82525050565b6000602082019050612acf6000830184612aab565b92915050565b600080fd5b600060208284031215612af057612aef612ad5565b5b81905092915050565b60008060408385031215612b1057612b0f612877565b5b6000612b1e858286016128ca565b925050602083013567ffffffffffffffff811115612b3f57612b3e61287c565b5b612b4b85828601612ada565b9150509250929050565b600060408284031215612b6b57612b6a612ad5565b5b81905092915050565b60008060408385031215612b8b57612b8a612877565b5b6000612b99858286016128ca565b925050602083013567ffffffffffffffff811115612bba57612bb961287c565b5b612bc685828601612b55565b9150509250929050565b600080fd5b7f4e487b7100000000000000000000000000000000000000000000000000000000600052604160045260246000fd5b612c0d82612801565b810181811067ffffffffffffffff82111715612c2c57612c2b612bd5565b5b80604052505050565b6000612c3f61286d565b9050612c4b8282612c04565b919050565b600080fd5b6000819050919050565b612c6881612c55565b8114612c7357600080fd5b50565b600081359050612c8581612c5f565b92915050565b600080fd5b600080fd5b600067ffffffffffffffff821115612cb057612caf612bd5565b5b612cb982612801565b9050602081019050919050565b82818337600083830152505050565b6000612ce8612ce384612c95565b612c35565b905082815260208101848484011115612d0457612d03612c90565b5b612d0f848285612cc6565b509392505050565b600082601f830112612d2c57612d2b612c8b565b5b8135612d3c848260208601612cd5565b91505092915050565b600060408284031215612d5b57612d5a612bd0565b5b612d656040612c35565b90506000612d7584828501612c76565b600083015250602082013567ffffffffffffffff811115612d9957612d98612c50565b5b612da584828501612d17565b60208301525092915050565b60008060408385031215612dc857612dc7612877565b5b6000612dd6858286016128ca565b925050602083013567ffffffffffffffff811115612df757612df661287c565b5b612e0385828601612d45565b9150509250929050565b600063ffffffff82169050919050565b612e2681612e0d565b8114612e3157600080fd5b50565b600081359050612e4381612e1d565b92915050565b600060208284031215612e5f57612e5e612877565b5b6000612e6d84828501612e34565b91505092915050565b600060208284031215612e8c57612e8b612877565b5b6000612e9a848285016128ca565b91505092915050565b60007fff0000000000000000000000000000000000000000000000000000000000000082169050919050565b612ed881612ea3565b82525050565b612ee7816128a1565b82525050565b612ef681612c55565b82525050565b600081519050919050565b600082825260208201905092915050565b6000819050602082019050919050565b612f31816128df565b82525050565b6000612f438383612f28565b60208301905092915050565b6000602082019050919050565b6000612f6782612efc565b612f718185612f07565b9350612f7c83612f18565b8060005b83811015612fad578151612f948882612f37565b9750612f9f83612f4f565b925050600181019050612f80565b5085935050505092915050565b600060e082019050612fcf600083018a612ecf565b8181036020830152612fe18189612812565b90508181036040830152612ff58188612812565b9050613004606083018761298b565b6130116080830186612ede565b61301e60a0830185612eed565b81810360c08301526130308184612f5c565b905098975050505050505050565b60008060006060848603121561305757613056612877565b5b6000613065868287016128ca565b9350506020613076868287016128ca565b925050604084013567ffffffffffffffff8111156130975761309661287c565b5b6130a386828701612ada565b9150509250925092565b6000602082840312156130c3576130c2612877565b5b60006130d184828501612900565b91505092915050565b6130e3816128df565b81146130ee57600080fd5b50565b600081359050613100816130da565b92915050565b60008060006060848603121561311f5761311e612877565b5b600061312d868287016128ca565b935050602061313e868287016128ca565b925050604061314f868287016130f1565b9150509250925092565b600080604083850312156131705761316f612877565b5b600061317e858286016128ca565b925050602061318f858286016130f1565b9150509250929050565b6000602082840312156131af576131ae612877565b5b600082013567ffffffffffffffff8111156131cd576131cc61287c565b5b6131d984828501612ada565b91505092915050565b7f4e487b7100000000000000000000000000000000000000000000000000000000600052602260045260246000fd5b6000600282049050600182168061322957607f821691505b60208210810361323c5761323b6131e2565b5b50919050565b60006020828403121561325857613257612bd0565b5b6132626020612c35565b9050600082013567ffffffffffffffff81111561328257613281612c50565b5b61328e84828501612d17565b60008301525092915050565b60006132a63683613242565b9050919050565b60006132b93683612d45565b9050919050565b60006040820190506132d56000830185612eed565b6132e26020830184612eed565b9392505050565b60006060820190506132fe6000830186612ede565b61330b602083018561298b565b613318604083018461298b565b949350505050565b60006020820190506133356000830184612ede565b92915050565b600081519050919050565b600082825260208201905092915050565b60006133628261333b565b61336c8185613346565b935061337c8185602086016127d7565b61338581612801565b840191505092915050565b60006040820190506133a56000830185612aab565b81810360208301526133b78184613357565b90509392505050565b6000815190506133cf816128e9565b92915050565b6000602082840312156133eb576133ea612877565b5b60006133f9848285016133c0565b91505092915050565b7f4e487b7100000000000000000000000000000000000000000000000000000000600052601160045260246000fd5b600061343c826128df565b9150613447836128df565b925082820190508082111561345f5761345e613402565b5b92915050565b7f4e487b7100000000000000000000000000000000000000000000000000000000600052602160045260246000fd5b60006020820190506134a96000830184612eed565b92915050565b6000819050919050565b6134ca6134c582612c55565b6134af565b82525050565b60006134dc82846134b9565b60208201915081905092915050565b60006060820190506135006000830186612aab565b81810360208301526135128185613357565b905081810360408301526135268184613357565b9050949350505050565b600067ffffffffffffffff82111561354b5761354a612bd5565b5b61355482612801565b9050602081019050919050565b600061357461356f84613530565b612c35565b9050828152602081018484840111156135905761358f612c90565b5b61359b8482856127d7565b509392505050565b600082601f8301126135b8576135b7612c8b565b5b81516135c8848260208601613561565b91505092915050565b6000602082840312156135e7576135e6612877565b5b600082015167ffffffffffffffff8111156136055761360461287c565b5b613611848285016135a3565b91505092915050565b600060408201905081810360008301526136348185613357565b90506136436020830184612aab565b9392505050565b600061365d61365884612c95565b612c35565b90508281526020810184848401111561367957613678612c90565b5b6136848482856127d7565b509392505050565b600082601f8301126136a1576136a0612c8b565b5b81516136b184826020860161364a565b91505092915050565b6000602082840312156136d0576136cf612877565b5b600082015167ffffffffffffffff8111156136ee576136ed61287c565b5b6136fa8482850161368c565b91505092915050565b60006080820190506137186000830187612aab565b818103602083015261372a8186613357565b9050818103604083015261373e8185613357565b905081810360608301526137528184613357565b905095945050505050565b600060a0820190506137726000830188612eed565b61377f6020830187612eed565b61378c6040830186612eed565b613799606083018561298b565b6137a66080830184612ede565b9695505050505050565b60006080820190506137c56000830187612eed565b6137d26020830186612aab565b6137df6040830185612eed565b6137ec6060830184612eed565b9594505050505056fea2646970667358221220fa99829782beb337dd357b1db319e746d82141fc6cc76b97fbb6bf94bb3c840764736f6c63430008140033",
  "linkReferences": {},
  "deployedLinkReferences": {}
}