{
  "_format": "hh-sol-artifact-1",
  "contractName": "ExampleToken",
  "sourceName": "contracts/ExampleToken.sol",
  "abi": [
    {
      "inputs": [
        {
          "internalType": "string",
          "name": "name",
          "type": "string"
        },
        {
          "internalType": "string",
          "name": "symbol",
          "type": "string"
        },
        {
          "internalType": "uint256",
          "name": "initialBalance",
          "type": "uint256"
        },
        {
          "components": [
            {
              "internalType": "bytes",
              "name": "data",
              "type": "bytes"
            }
          ],
          "internalType": "struct inEuint32",
          "name": "encryptedBalance",
          "type": "tuple"
        }
      ],
      "stateMutability": "nonpayable",
      "type": "constructor"
    },
    {
      "inputs": [],
      "name": "AccessControlBadConfirmation",
      "type": "error"
    },
    {
      "inputs": [
        {
          "internalType": "address",
          "name": "account",
          "type": "address"
        },
        {
          "internalType": "bytes32",
          "name": "neededRole",
          "type": "bytes32"
        }
      ],
      "name": "AccessControlUnauthorizedAccount",
      "type": "error"
    },
    {
      "inputs": [],
      "name": "ECDSAInvalidSignature",
      "type": "error"
    },
    {
      "inputs": [
        {
          "internalType": "uint256",
          "name": "length",
          "type": "uint256"
        }
      ],
      "name": "ECDSAInvalidSignatureLength",
      "type": "error"
    },
    {
      "inputs": [
        {
          "internalType": "bytes32",
          "name": "s",
          "type": "bytes32"
        }
      ],
      "name": "ECDSAInvalidSignatureS",
      "type": "error"
    },
    {
      "inputs": [
        {
          "internalType": "address",
          "name": "spender",
          "type": "address"
        },
        {
          "internalType": "uint256",
          "name": "allowance",
          "type": "uint256"
        },
        {
          "internalType": "uint256",
          "name": "needed",
          "type": "uint256"
        }
      ],
      "name": "ERC20InsufficientAllowance",
      "type": "error"
    },
    {
      "inputs": [
        {
          "internalType": "address",
          "name": "sender",
          "type": "address"
        },
        {
          "internalType": "uint256",
          "name": "balance",
          "type": "uint256"
        },
        {
          "internalType": "uint256",
          "name": "needed",
          "type": "uint256"
        }
      ],
      "name": "ERC20InsufficientBalance",
      "type": "error"
    },
    {
      "inputs": [
        {
          "internalType": "address",
          "name": "approver",
          "type": "address"
        }
      ],
      "name": "ERC20InvalidApprover",
      "type": "error"
    },
    {
      "inputs": [
        {
          "internalType": "address",
          "name": "receiver",
          "type": "address"
        }
      ],
      "name": "ERC20InvalidReceiver",
      "type": "error"
    },
    {
      "inputs": [
        {
          "internalType": "address",
          "name": "sender",
          "type": "address"
        }
      ],
      "name": "ERC20InvalidSender",
      "type": "error"
    },
    {
      "inputs": [
        {
          "internalType": "address",
          "name": "spender",
          "type": "address"
        }
      ],
      "name": "ERC20InvalidSpender",
      "type": "error"
    },
    {
      "inputs": [],
      "name": "ErrorInsufficientFunds",
      "type": "error"
    },
    {
      "inputs": [],
      "name": "InvalidShortString",
      "type": "error"
    },
    {
      "inputs": [],
      "name": "SignerNotMessageSender",
      "type": "error"
    },
    {
      "inputs": [],
      "name": "SignerNotOwner",
      "type": "error"
    },
    {
      "inputs": [
        {
          "internalType": "string",
          "name": "str",
          "type": "string"
        }
      ],
      "name": "StringTooLong",
      "type": "error"
    },
    {
      "anonymous": false,
      "inputs": [
        {
          "indexed": true,
          "internalType": "address",
          "name": "owner",
          "type": "address"
        },
        {
          "indexed": true,
          "internalType": "address",
          "name": "spender",
          "type": "address"
        },
        {
          "indexed": false,
          "internalType": "uint256",
          "name": "value",
          "type": "uint256"
        }
      ],
      "name": "Approval",
      "type": "event"
    },
    {
      "anonymous": false,
      "inputs": [
        {
          "indexed": true,
          "internalType": "address",
          "name": "owner",
          "type": "address"
        },
        {
          "indexed": true,
          "internalType": "address",
          "name": "spender",
          "type": "address"
        }
      ],
      "name": "ApprovalEncrypted",
      "type": "event"
    },
    {
      "anonymous": false,
      "inputs": [],
      "name": "EIP712DomainChanged",
      "type": "event"
    },
    {
      "anonymous": false,
      "inputs": [
        {
          "indexed": true,
          "internalType": "bytes32",
          "name": "role",
          "type": "bytes32"
        },
        {
          "indexed": true,
          "internalType": "bytes32",
          "name": "previousAdminRole",
          "type": "bytes32"
        },
        {
          "indexed": true,
          "internalType": "bytes32",
          "name": "newAdminRole",
          "type": "bytes32"
        }
      ],
      "name": "RoleAdminChanged",
      "type": "event"
    },
    {
      "anonymous": false,
      "inputs": [
        {
          "indexed": true,
          "internalType": "bytes32",
          "name": "role",
          "type": "bytes32"
        },
        {
          "indexed": true,
          "internalType": "address",
          "name": "account",
          "type": "address"
        },
        {
          "indexed": true,
          "internalType": "address",
          "name": "sender",
          "type": "address"
        }
      ],
      "name": "RoleGranted",
      "type": "event"
    },
    {
      "anonymous": false,
      "inputs": [
        {
          "indexed": true,
          "internalType": "bytes32",
          "name": "role",
          "type": "bytes32"
        },
        {
          "indexed": true,
          "internalType": "address",
          "name": "account",
          "type": "address"
        },
        {
          "indexed": true,
          "internalType": "address",
          "name": "sender",
          "type": "address"
        }
      ],
      "name": "RoleRevoked",
      "type": "event"
    },
    {
      "anonymous": false,
      "inputs": [
        {
          "indexed": true,
          "internalType": "address",
          "name": "from",
          "type": "address"
        },
        {
          "indexed": true,
          "internalType": "address",
          "name": "to",
          "type": "address"
        },
        {
          "indexed": false,
          "internalType": "uint256",
          "name": "value",
          "type": "uint256"
        }
      ],
      "name": "Transfer",
      "type": "event"
    },
    {
      "anonymous": false,
      "inputs": [
        {
          "indexed": true,
          "internalType": "address",
          "name": "from",
          "type": "address"
        },
        {
          "indexed": true,
          "internalType": "address",
          "name": "to",
          "type": "address"
        }
      ],
      "name": "TransferEncrypted",
      "type": "event"
    },
    {
      "inputs": [],
      "name": "DEFAULT_ADMIN_ROLE",
      "outputs": [
        {
          "internalType": "bytes32",
          "name": "",
          "type": "bytes32"
        }
      ],
      "stateMutability": "view",
      "type": "function"
    },
    {
      "inputs": [],
      "name": "MINTER_ROLE",
      "outputs": [
        {
          "internalType": "bytes32",
          "name": "",
          "type": "bytes32"
        }
      ],
      "stateMutability": "view",
      "type": "function"
    },
    {
      "inputs": [
        {
          "internalType": "address",
          "name": "owner",
          "type": "address"
        },
        {
          "internalType": "address",
          "name": "spender",
          "type": "address"
        }
      ],
      "name": "_allowanceEncrypted",
      "outputs": [
        {
          "internalType": "euint32",
          "name": "",
          "type": "uint256"
        }
      ],
      "stateMutability": "view",
      "type": "function"
    },
    {
      "inputs": [
        {
          "internalType": "address",
          "name": "owner",
          "type": "address"
        },
        {
          "internalType": "address",
          "name": "spender",
          "type": "address"
        }
      ],
      "name": "allowance",
      "outputs": [
        {
          "internalType": "uint256",
          "name": "",
          "type": "uint256"
        }
      ],
      "stateMutability": "view",
      "type": "function"
    },
    {
      "inputs": [
        {
          "internalType": "address",
          "name": "spender",
          "type": "address"
        },
        {
          "components": [
            {
              "internalType": "bytes32",
              "name": "publicKey",
              "type": "bytes32"
            },
            {
              "internalType": "bytes",
              "name": "signature",
              "type": "bytes"
            }
          ],
          "internalType": "struct Permission",
          "name": "permission",
          "type": "tuple"
        }
      ],
      "name": "allowanceEncrypted",
      "outputs": [
        {
          "internalType": "bytes",
          "name": "",
          "type": "bytes"
        }
      ],
      "stateMutability": "view",
      "type": "function"
    },
    {
      "inputs": [
        {
          "internalType": "address",
          "name": "spender",
          "type": "address"
        },
        {
          "internalType": "uint256",
          "name": "value",
          "type": "uint256"
        }
      ],
      "name": "approve",
      "outputs": [
        {
          "internalType": "bool",
          "name": "",
          "type": "bool"
        }
      ],
      "stateMutability": "nonpayable",
      "type": "function"
    },
    {
      "inputs": [
        {
          "internalType": "address",
          "name": "spender",
          "type": "address"
        },
        {
          "components": [
            {
              "internalType": "bytes",
              "name": "data",
              "type": "bytes"
            }
          ],
          "internalType": "struct inEuint32",
          "name": "value",
          "type": "tuple"
        }
      ],
      "name": "approveEncrypted",
      "outputs": [
        {
          "internalType": "bool",
          "name": "",
          "type": "bool"
        }
      ],
      "stateMutability": "nonpayable",
      "type": "function"
    },
    {
      "inputs": [
        {
          "internalType": "address",
          "name": "account",
          "type": "address"
        }
      ],
      "name": "balanceOf",
      "outputs": [
        {
          "internalType": "uint256",
          "name": "",
          "type": "uint256"
        }
      ],
      "stateMutability": "view",
      "type": "function"
    },
    {
      "inputs": [
        {
          "internalType": "address",
          "name": "account",
          "type": "address"
        },
        {
          "components": [
            {
              "internalType": "bytes32",
              "name": "publicKey",
              "type": "bytes32"
            },
            {
              "internalType": "bytes",
              "name": "signature",
              "type": "bytes"
            }
          ],
          "internalType": "struct Permission",
          "name": "auth",
          "type": "tuple"
        }
      ],
      "name": "balanceOfEncrypted",
      "outputs": [
        {
          "internalType": "bytes",
          "name": "",
          "type": "bytes"
        }
      ],
      "stateMutability": "view",
      "type": "function"
    },
    {
      "inputs": [],
      "name": "decimals",
      "outputs": [
        {
          "internalType": "uint8",
          "name": "",
          "type": "uint8"
        }
      ],
      "stateMutability": "view",
      "type": "function"
    },
    {
      "inputs": [],
      "name": "eip712Domain",
      "outputs": [
        {
          "internalType": "bytes1",
          "name": "fields",
          "type": "bytes1"
        },
        {
          "internalType": "string",
          "name": "name",
          "type": "string"
        },
        {
          "internalType": "string",
          "name": "version",
          "type": "string"
        },
        {
          "internalType": "uint256",
          "name": "chainId",
          "type": "uint256"
        },
        {
          "internalType": "address",
          "name": "verifyingContract",
          "type": "address"
        },
        {
          "internalType": "bytes32",
          "name": "salt",
          "type": "bytes32"
        },
        {
          "internalType": "uint256[]",
          "name": "extensions",
          "type": "uint256[]"
        }
      ],
      "stateMutability": "view",
      "type": "function"
    },
    {
      "inputs": [
        {
          "internalType": "bytes32",
          "name": "role",
          "type": "bytes32"
        }
      ],
      "name": "getRoleAdmin",
      "outputs": [
        {
          "internalType": "bytes32",
          "name": "",
          "type": "bytes32"
        }
      ],
      "stateMutability": "view",
      "type": "function"
    },
    {
      "inputs": [
        {
          "internalType": "bytes32",
          "name": "role",
          "type": "bytes32"
        },
        {
          "internalType": "address",
          "name": "account",
          "type": "address"
        }
      ],
      "name": "grantRole",
      "outputs": [],
      "stateMutability": "nonpayable",
      "type": "function"
    },
    {
      "inputs": [
        {
          "internalType": "bytes32",
          "name": "role",
          "type": "bytes32"
        },
        {
          "internalType": "address",
          "name": "account",
          "type": "address"
        }
      ],
      "name": "hasRole",
      "outputs": [
        {
          "internalType": "bool",
          "name": "",
          "type": "bool"
        }
      ],
      "stateMutability": "view",
      "type": "function"
    },
    {
      "inputs": [
        {
          "internalType": "address",
          "name": "recipient",
          "type": "address"
        },
        {
          "components": [
            {
              "internalType": "bytes",
              "name": "data",
              "type": "bytes"
            }
          ],
          "internalType": "struct inEuint32",
          "name": "amount",
          "type": "tuple"
        }
      ],
      "name": "mintEncrypted",
      "outputs": [],
      "stateMutability": "nonpayable",
      "type": "function"
    },
    {
      "inputs": [],
      "name": "name",
      "outputs": [
        {
          "internalType": "string",
          "name": "",
          "type": "string"
        }
      ],
      "stateMutability": "view",
      "type": "function"
    },
    {
      "inputs": [
        {
          "internalType": "bytes32",
          "name": "role",
          "type": "bytes32"
        },
        {
          "internalType": "address",
          "name": "callerConfirmation",
          "type": "address"
        }
      ],
      "name": "renounceRole",
      "outputs": [],
      "stateMutability": "nonpayable",
      "type": "function"
    },
    {
      "inputs": [
        {
          "internalType": "bytes32",
          "name": "role",
          "type": "bytes32"
        },
        {
          "internalType": "address",
          "name": "account",
          "type": "address"
        }
      ],
      "name": "revokeRole",
      "outputs": [],
      "stateMutability": "nonpayable",
      "type": "function"
    },
    {
      "inputs": [
        {
          "internalType": "bytes4",
          "name": "interfaceId",
          "type": "bytes4"
        }
      ],
      "name": "supportsInterface",
      "outputs": [
        {
          "internalType": "bool",
          "name": "",
          "type": "bool"
        }
      ],
      "stateMutability": "view",
      "type": "function"
    },
    {
      "inputs": [],
      "name": "symbol",
      "outputs": [
        {
          "internalType": "string",
          "name": "",
          "type": "string"
        }
      ],
      "stateMutability": "view",
      "type": "function"
    },
    {
      "inputs": [],
      "name": "totalSupply",
      "outputs": [
        {
          "internalType": "uint256",
          "name": "",
          "type": "uint256"
        }
      ],
      "stateMutability": "view",
      "type": "function"
    },
    {
      "inputs": [
        {
          "internalType": "address",
          "name": "to",
          "type": "address"
        },
        {
          "internalType": "uint256",
          "name": "value",
          "type": "uint256"
        }
      ],
      "name": "transfer",
      "outputs": [
        {
          "internalType": "bool",
          "name": "",
          "type": "bool"
        }
      ],
      "stateMutability": "nonpayable",
      "type": "function"
    },
    {
      "inputs": [
        {
          "internalType": "address",
          "name": "to",
          "type": "address"
        },
        {
          "components": [
            {
              "internalType": "bytes",
              "name": "data",
              "type": "bytes"
            }
          ],
          "internalType": "struct inEuint32",
          "name": "encryptedAmount",
          "type": "tuple"
        }
      ],
      "name": "transferEncrypted",
      "outputs": [
        {
          "internalType": "euint32",
          "name": "",
          "type": "uint256"
        }
      ],
      "stateMutability": "nonpayable",
      "type": "function"
    },
    {
      "inputs": [
        {
          "internalType": "address",
          "name": "to",
          "type": "address"
        },
        {
          "internalType": "euint32",
          "name": "amount",
          "type": "uint256"
        }
      ],
      "name": "transferEncrypted",
      "outputs": [
        {
          "internalType": "euint32",
          "name": "",
          "type": "uint256"
        }
      ],
      "stateMutability": "nonpayable",
      "type": "function"
    },
    {
      "inputs": [
        {
          "internalType": "address",
          "name": "from",
          "type": "address"
        },
        {
          "internalType": "address",
          "name": "to",
          "type": "address"
        },
        {
          "internalType": "uint256",
          "name": "value",
          "type": "uint256"
        }
      ],
      "name": "transferFrom",
      "outputs": [
        {
          "internalType": "bool",
          "name": "",
          "type": "bool"
        }
      ],
      "stateMutability": "nonpayable",
      "type": "function"
    },
    {
      "inputs": [
        {
          "internalType": "address",
          "name": "from",
          "type": "address"
        },
        {
          "internalType": "address",
          "name": "to",
          "type": "address"
        },
        {
          "components": [
            {
              "internalType": "bytes",
              "name": "data",
              "type": "bytes"
            }
          ],
          "internalType": "struct inEuint32",
          "name": "value",
          "type": "tuple"
        }
      ],
      "name": "transferFromEncrypted",
      "outputs": [
        {
          "internalType": "euint32",
          "name": "",
          "type": "uint256"
        }
      ],
      "stateMutability": "nonpayable",
      "type": "function"
    },
    {
      "inputs": [
        {
          "internalType": "address",
          "name": "from",
          "type": "address"
        },
        {
          "internalType": "address",
          "name": "to",
          "type": "address"
        },
        {
          "internalType": "euint32",
          "name": "value",
          "type": "uint256"
        }
      ],
      "name": "transferFromEncrypted",
      "outputs": [
        {
          "internalType": "euint32",
          "name": "",
          "type": "uint256"
        }
      ],
      "stateMutability": "nonpayable",
      "type": "function"
    },
    {
      "inputs": [
        {
          "internalType": "uint32",
          "name": "amount",
          "type": "uint32"
        }
      ],
      "name": "unwrap",
      "outputs": [],
      "stateMutability": "nonpayable",
      "type": "function"
    },
    {
      "inputs": [
        {
          "internalType": "uint32",
          "name": "amount",
          "type": "uint32"
        }
      ],
      "name": "wrap",
      "outputs": [],
      "stateMutability": "nonpayable",
      "type": "function"
    }
  ],
  "bytecode": "0x610160604052620000176000620001f660201b60201c565b6009553480156200002757600080fd5b50604051620055653803806200556583398181016040528101906200004d919062000ead565b83836040518060400160405280601181526020017f4668656e6978205065726d697373696f6e0000000000000000000000000000008152506040518060400160405280600381526020017f312e30000000000000000000000000000000000000000000000000000000000081525083838160039081620000ce9190620011bd565b508060049081620000e09190620011bd565b505050620000f96005836200021260201b90919060201c565b6101208181525050620001176006826200021260201b90919060201c565b6101408181525050818051906020012060e08181525050808051906020012061010081815250504660a08181525050620001566200026a60201b60201c565b608081815250503073ffffffffffffffffffffffffffffffffffffffff1660c08173ffffffffffffffffffffffffffffffffffffffff168152505050505050620001a73383620002c760201b60201c565b620001b933826200035460201b60201c565b620001eb7f9f2df0fed2c77648de5860a4cc508cd0818c85b8b8a1ab4ceeef8d981c8956a6336200041060201b60201c565b5050505050620016df565b60006200020b8260026200051460201b60201c565b9050919050565b600060208351101562000238576200023083620005cb60201b60201c565b905062000264565b826200024a836200063860201b60201c565b60000190816200025b9190620011bd565b5060ff60001b90505b92915050565b60007f8b73c3c69bb8fe3d512ecc4cf759cc79239f7b179b0ffacaa9a75d522b39400f60e051610100514630604051602001620002ac95949392919062001315565b60405160208183030381529060405280519060200120905090565b600073ffffffffffffffffffffffffffffffffffffffff168273ffffffffffffffffffffffffffffffffffffffff16036200033c5760006040517fec442f0500000000000000000000000000000000000000000000000000000000815260040162000333919062001372565b60405180910390fd5b62000350600083836200064260201b60201c565b5050565b600062000367826200087260201b60201c565b9050620003b4600760008573ffffffffffffffffffffffffffffffffffffffff1673ffffffffffffffffffffffffffffffffffffffff168152602001908152602001600020548262000890565b600760008573ffffffffffffffffffffffffffffffffffffffff1673ffffffffffffffffffffffffffffffffffffffff16815260200190815260200160002081905550620004056009548262000890565b600981905550505050565b6000620004248383620008ac60201b60201c565b62000509576001600a600085815260200190815260200160002060000160008473ffffffffffffffffffffffffffffffffffffffff1673ffffffffffffffffffffffffffffffffffffffff16815260200190815260200160002060006101000a81548160ff021916908315150217905550620004a56200091760201b60201c565b73ffffffffffffffffffffffffffffffffffffffff168273ffffffffffffffffffffffffffffffffffffffff16847f2f8788117e7eff1d82e926ec794901d17c78024a50270940304540a733656f0d60405160405180910390a4600190506200050e565b600090505b92915050565b60006060608073ffffffffffffffffffffffffffffffffffffffff166319e1c5c462000546866200091f60201b60201c565b856040518363ffffffff1660e01b8152600401620005669291906200140a565b600060405180830381865afa15801562000584573d6000803e3d6000fd5b505050506040513d6000823e3d601f19601f82011682018060405250810190620005af91906200143e565b9050620005c2816200098060201b60201c565b91505092915050565b600080829050601f815111156200061b57826040517f305a27a9000000000000000000000000000000000000000000000000000000008152600401620006129190620014e1565b60405180910390fd5b80518162000629906200152c565b60001c1760001b915050919050565b6000819050919050565b600073ffffffffffffffffffffffffffffffffffffffff168373ffffffffffffffffffffffffffffffffffffffff1603620006985780600260008282546200068b9190620015cb565b925050819055506200076e565b60008060008573ffffffffffffffffffffffffffffffffffffffff1673ffffffffffffffffffffffffffffffffffffffff1681526020019081526020016000205490508181101562000727578381836040517fe450d38c0000000000000000000000000000000000000000000000000000000081526004016200071e9392919062001606565b60405180910390fd5b8181036000808673ffffffffffffffffffffffffffffffffffffffff1673ffffffffffffffffffffffffffffffffffffffff16815260200190815260200160002081905550505b600073ffffffffffffffffffffffffffffffffffffffff168273ffffffffffffffffffffffffffffffffffffffff1603620007b9578060026000828254039250508190555062000806565b806000808473ffffffffffffffffffffffffffffffffffffffff1673ffffffffffffffffffffffffffffffffffffffff168152602001908152602001600020600082825401925050819055505b8173ffffffffffffffffffffffffffffffffffffffff168373ffffffffffffffffffffffffffffffffffffffff167fddf252ad1be2c89b69c2b068fc378daa952ba7f163c4a11628f55a4df523b3ef8360405162000865919062001643565b60405180910390a3505050565b60006200088982600001516200098e60201b60201c565b9050919050565b6000620008a48383620009aa60201b60201c565b905092915050565b6000600a600084815260200190815260200160002060000160008373ffffffffffffffffffffffffffffffffffffffff1673ffffffffffffffffffffffffffffffffffffffff16815260200190815260200160002060009054906101000a900460ff16905092915050565b600033905090565b6060602067ffffffffffffffff8111156200093f576200093e62000bee565b5b6040519080825280601f01601f191660200182016040528015620009725781602001600182028036833780820191505090505b509050816020820152919050565b600060208201519050919050565b6000620009a382600262000a4c60201b60201c565b9050919050565b6000620009bd8362000af360201b60201c565b620009d757620009d46000620001f660201b60201c565b92505b620009e88262000af360201b60201c565b62000a0257620009ff6000620001f660201b60201c565b91505b60008390506000839050600062000a3e60028484608073ffffffffffffffffffffffffffffffffffffffff16622df61962000b0060201b60201c565b905080935050505092915050565b60006060608073ffffffffffffffffffffffffffffffffffffffff16635fa55ca784866040518363ffffffff1660e01b815260040162000a8e92919062001660565b600060405180830381865afa15801562000aac573d6000803e3d6000fd5b505050506040513d6000823e3d601f19601f8201168201806040525081019062000ad791906200143e565b905062000aea816200098060201b60201c565b91505092915050565b6000808214159050919050565b6000606083838862000b18896200091f60201b60201c565b62000b29896200091f60201b60201c565b6040518463ffffffff1660e01b815260040162000b499392919062001694565b600060405180830381865afa15801562000b67573d6000803e3d6000fd5b505050506040513d6000823e3d601f19601f8201168201806040525081019062000b9291906200143e565b905062000ba58162000bb160201b60201c565b91505095945050505050565b600060208201519050919050565b6000604051905090565b600080fd5b600080fd5b600080fd5b600080fd5b6000601f19601f8301169050919050565b7f4e487b7100000000000000000000000000000000000000000000000000000000600052604160045260246000fd5b62000c288262000bdd565b810181811067ffffffffffffffff8211171562000c4a5762000c4962000bee565b5b80604052505050565b600062000c5f62000bbf565b905062000c6d828262000c1d565b919050565b600067ffffffffffffffff82111562000c905762000c8f62000bee565b5b62000c9b8262000bdd565b9050602081019050919050565b60005b8381101562000cc857808201518184015260208101905062000cab565b60008484015250505050565b600062000ceb62000ce58462000c72565b62000c53565b90508281526020810184848401111562000d0a5762000d0962000bd8565b5b62000d1784828562000ca8565b509392505050565b600082601f83011262000d375762000d3662000bd3565b5b815162000d4984826020860162000cd4565b91505092915050565b6000819050919050565b62000d678162000d52565b811462000d7357600080fd5b50565b60008151905062000d878162000d5c565b92915050565b600080fd5b600080fd5b600067ffffffffffffffff82111562000db55762000db462000bee565b5b62000dc08262000bdd565b9050602081019050919050565b600062000de462000dde8462000d97565b62000c53565b90508281526020810184848401111562000e035762000e0262000bd8565b5b62000e1084828562000ca8565b509392505050565b600082601f83011262000e305762000e2f62000bd3565b5b815162000e4284826020860162000dcd565b91505092915050565b60006020828403121562000e645762000e6362000d8d565b5b62000e70602062000c53565b9050600082015167ffffffffffffffff81111562000e935762000e9262000d92565b5b62000ea18482850162000e18565b60008301525092915050565b6000806000806080858703121562000eca5762000ec962000bc9565b5b600085015167ffffffffffffffff81111562000eeb5762000eea62000bce565b5b62000ef98782880162000d1f565b945050602085015167ffffffffffffffff81111562000f1d5762000f1c62000bce565b5b62000f2b8782880162000d1f565b935050604062000f3e8782880162000d76565b925050606085015167ffffffffffffffff81111562000f625762000f6162000bce565b5b62000f708782880162000e4b565b91505092959194509250565b600081519050919050565b7f4e487b7100000000000000000000000000000000000000000000000000000000600052602260045260246000fd5b6000600282049050600182168062000fcf57607f821691505b60208210810362000fe55762000fe462000f87565b5b50919050565b60008190508160005260206000209050919050565b60006020601f8301049050919050565b600082821b905092915050565b6000600883026200104f7fffffffffffffffffffffffffffffffffffffffffffffffffffffffffffffffff8262001010565b6200105b868362001010565b95508019841693508086168417925050509392505050565b6000819050919050565b60006200109e62001098620010928462000d52565b62001073565b62000d52565b9050919050565b6000819050919050565b620010ba836200107d565b620010d2620010c982620010a5565b8484546200101d565b825550505050565b600090565b620010e9620010da565b620010f6818484620010af565b505050565b5b818110156200111e5762001112600082620010df565b600181019050620010fc565b5050565b601f8211156200116d57620011378162000feb565b620011428462001000565b8101602085101562001152578190505b6200116a620011618562001000565b830182620010fb565b50505b505050565b600082821c905092915050565b6000620011926000198460080262001172565b1980831691505092915050565b6000620011ad83836200117f565b9150826002028217905092915050565b620011c88262000f7c565b67ffffffffffffffff811115620011e457620011e362000bee565b5b620011f0825462000fb6565b620011fd82828562001122565b600060209050601f83116001811462001235576000841562001220578287015190505b6200122c85826200119f565b8655506200129c565b601f198416620012458662000feb565b60005b828110156200126f5784890151825560018201915060208501945060208101905062001248565b868310156200128f57848901516200128b601f8916826200117f565b8355505b6001600288020188555050505b505050505050565b6000819050919050565b620012b981620012a4565b82525050565b620012ca8162000d52565b82525050565b600073ffffffffffffffffffffffffffffffffffffffff82169050919050565b6000620012fd82620012d0565b9050919050565b6200130f81620012f0565b82525050565b600060a0820190506200132c6000830188620012ae565b6200133b6020830187620012ae565b6200134a6040830186620012ae565b620013596060830185620012bf565b62001368608083018462001304565b9695505050505050565b600060208201905062001389600083018462001304565b92915050565b600081519050919050565b600082825260208201905092915050565b6000620013b8826200138f565b620013c481856200139a565b9350620013d681856020860162000ca8565b620013e18162000bdd565b840191505092915050565b600060ff82169050919050565b6200140481620013ec565b82525050565b60006040820190508181036000830152620014268185620013ab565b9050620014376020830184620013f9565b9392505050565b60006020828403121562001457576200145662000bc9565b5b600082015167ffffffffffffffff81111562001478576200147762000bce565b5b620014868482850162000e18565b91505092915050565b600082825260208201905092915050565b6000620014ad8262000f7c565b620014b981856200148f565b9350620014cb81856020860162000ca8565b620014d68162000bdd565b840191505092915050565b60006020820190508181036000830152620014fd8184620014a0565b905092915050565b6000819050602082019050919050565b6000620015238251620012a4565b80915050919050565b600062001539826200138f565b82620015458462001505565b9050620015528162001515565b925060208210156200159557620015907fffffffffffffffffffffffffffffffffffffffffffffffffffffffffffffffff8360200360080262001010565b831692505b5050919050565b7f4e487b7100000000000000000000000000000000000000000000000000000000600052601160045260246000fd5b6000620015d88262000d52565b9150620015e58362000d52565b92508282019050808211156200160057620015ff6200159c565b5b92915050565b60006060820190506200161d600083018662001304565b6200162c6020830185620012bf565b6200163b6040830184620012bf565b949350505050565b60006020820190506200165a6000830184620012bf565b92915050565b6000604082019050620016776000830185620013f9565b81810360208301526200168b8184620013ab565b90509392505050565b6000606082019050620016ab6000830186620013f9565b8181036020830152620016bf8185620013ab565b90508181036040830152620016d58184620013ab565b9050949350505050565b60805160a05160c05160e051610100516101205161014051613e2b6200173a6000396000611910015260006118d501526000612a5101526000612a3001526000612171015260006121c7015260006121f00152613e2b6000f3fe608060405234801561001057600080fd5b50600436106101cf5760003560e01c80636e0505e111610104578063a217fddf116100a2578063d539139311610071578063d5391393146105ba578063d547741f146105d8578063d918156e146105f4578063dd62ed3e14610624576101cf565b8063a217fddf1461050c578063a9059cbb1461052a578063af575a001461055a578063c4224c191461058a576101cf565b80638624a349116100de5780638624a3491461047257806391d14854146104a257806395d89b41146104d25780639f284be7146104f0576101cf565b80636e0505e11461040257806370a082311461041e57806384b0196e1461044e576101cf565b80632f2ff15d1161017157806339c217f71161014b57806339c217f7146103565780634e6db477146103865780635356c429146103a257806360277204146103d2576101cf565b80632f2ff15d14610300578063313ce5671461031c57806336568abe1461033a576101cf565b806318160ddd116101ad57806318160ddd1461025257806323b872dd1461027057806323db9354146102a0578063248a9ca3146102d0576101cf565b806301ffc9a7146101d457806306fdde0314610204578063095ea7b314610222575b600080fd5b6101ee60048036038101906101e99190612dee565b610654565b6040516101fb9190612e36565b60405180910390f35b61020c6106ce565b6040516102199190612ee1565b60405180910390f35b61023c60048036038101906102379190612f97565b610760565b6040516102499190612e36565b60405180910390f35b61025a610783565b6040516102679190612fe6565b60405180910390f35b61028a60048036038101906102859190613001565b61078d565b6040516102979190612e36565b60405180910390f35b6102ba60048036038101906102b59190613054565b6107bc565b6040516102c791906130cf565b60405180910390f35b6102ea60048036038101906102e59190613120565b610843565b6040516102f7919061315c565b60405180910390f35b61031a60048036038101906103159190613177565b610863565b005b610324610885565b60405161033191906131d3565b60405180910390f35b610354600480360381019061034f9190613177565b61088e565b005b610370600480360381019061036b9190613212565b610909565b60405161037d91906130cf565b60405180910390f35b6103a0600480360381019061039b9190613405565b61092e565b005b6103bc60048036038101906103b79190613480565b61096c565b6040516103c99190613531565b60405180910390f35b6103ec60048036038101906103e791906135bf565b610a6a565b6040516103f99190613531565b60405180910390f35b61041c60048036038101906104179190613657565b610ba0565b005b61043860048036038101906104339190613684565b610cd7565b6040516104459190612fe6565b60405180910390f35b610456610d1f565b60405161046997969594939291906137b9565b60405180910390f35b61048c6004803603810190610487919061383d565b610dc9565b60405161049991906130cf565b60405180910390f35b6104bc60048036038101906104b79190613177565b610e07565b6040516104c99190612e36565b60405180910390f35b6104da610e72565b6040516104e79190612ee1565b60405180910390f35b61050a60048036038101906105059190613657565b610f04565b005b610514611011565b604051610521919061315c565b60405180910390f35b610544600480360381019061053f9190612f97565b611018565b6040516105519190612e36565b60405180910390f35b610574600480360381019061056f91906138d8565b61103b565b60405161058191906130cf565b60405180910390f35b6105a4600480360381019061059f919061392b565b611068565b6040516105b191906130cf565b60405180910390f35b6105c261107d565b6040516105cf919061315c565b60405180910390f35b6105f260048036038101906105ed9190613177565b6110a1565b005b61060e60048036038101906106099190613212565b6110c3565b60405161061b9190612e36565b60405180910390f35b61063e60048036038101906106399190613054565b6110eb565b60405161064b9190612fe6565b60405180910390f35b60007f7965db0b000000000000000000000000000000000000000000000000000000007bffffffffffffffffffffffffffffffffffffffffffffffffffffffff1916827bffffffffffffffffffffffffffffffffffffffffffffffffffffffff191614806106c757506106c682611172565b5b9050919050565b6060600380546106dd9061399a565b80601f01602080910402602001604051908101604052809291908181526020018280546107099061399a565b80156107565780601f1061072b57610100808354040283529160200191610756565b820191906000526020600020905b81548152906001019060200180831161073957829003601f168201915b5050505050905090565b60008061076b6111dc565b90506107788185856111e4565b600191505092915050565b6000600254905090565b6000806107986111dc565b90506107a58582856111f6565b6107b085858561128a565b60019150509392505050565b6000600860008473ffffffffffffffffffffffffffffffffffffffff1673ffffffffffffffffffffffffffffffffffffffff16815260200190815260200160002060008373ffffffffffffffffffffffffffffffffffffffff1673ffffffffffffffffffffffffffffffffffffffff16815260200190815260200160002054905092915050565b6000600a6000838152602001908152602001600020600101549050919050565b61086c82610843565b6108758161137e565b61087f8383611392565b50505050565b60006012905090565b6108966111dc565b73ffffffffffffffffffffffffffffffffffffffff168173ffffffffffffffffffffffffffffffffffffffff16146108fa576040517f6697b23200000000000000000000000000000000000000000000000000000000815260040160405180910390fd5b6109048282611484565b505050565b6000610926836109218461091c906139cb565b611577565b611068565b905092915050565b6109587f9f2df0fed2c77648de5860a4cc508cd0818c85b8b8a1ab4ceeef8d981c8956a633610e07565b1561096857610967828261158d565b5b5050565b606081610978906139de565b60006109cf7f6bdaeb2d29561f159c7ef98b16b27015fb2aeb87209c7ee656226d912f59927d83600001516040516020016109b49291906139f1565b6040516020818303038152906040528051906020012061163d565b905060006109e1828460200151611657565b90503373ffffffffffffffffffffffffffffffffffffffff168173ffffffffffffffffffffffffffffffffffffffff1614610a48576040517f3093a27700000000000000000000000000000000000000000000000000000000815260040160405180910390fd5b610a5f610a5533886107bc565b8660000135611683565b935050505092915050565b606081836000610ac57f6bdaeb2d29561f159c7ef98b16b27015fb2aeb87209c7ee656226d912f59927d8460000151604051602001610aaa9291906139f1565b6040516020818303038152906040528051906020012061163d565b90506000610ad7828560200151611657565b90508273ffffffffffffffffffffffffffffffffffffffff168173ffffffffffffffffffffffffffffffffffffffff1614610b3e576040517f51c65eae00000000000000000000000000000000000000000000000000000000815260040160405180910390fd5b610b948660000151600760008a73ffffffffffffffffffffffffffffffffffffffff1673ffffffffffffffffffffffffffffffffffffffff168152602001908152602001600020546116b990919063ffffffff16565b94505050505092915050565b6000610bb18263ffffffff166116cd565b90506000610c1a610c0a83600760003373ffffffffffffffffffffffffffffffffffffffff1673ffffffffffffffffffffffffffffffffffffffff168152602001908152602001600020546116e190919063ffffffff16565b610c1460006116cd565b846116f5565b9050610c65600760003373ffffffffffffffffffffffffffffffffffffffff1673ffffffffffffffffffffffffffffffffffffffff1681526020019081526020016000205482611773565b600760003373ffffffffffffffffffffffffffffffffffffffff1673ffffffffffffffffffffffffffffffffffffffff16815260200190815260200160002081905550610cb460095482611773565b600981905550610cd233610cc783611787565b63ffffffff1661184a565b505050565b60008060008373ffffffffffffffffffffffffffffffffffffffff1673ffffffffffffffffffffffffffffffffffffffff168152602001908152602001600020549050919050565b600060608060008060006060610d336118cc565b610d3b611907565b46306000801b600067ffffffffffffffff811115610d5c57610d5b613273565b5b604051908082528060200260200182016040528015610d8a5781602001602082028036833780820191505090505b507f0f00000000000000000000000000000000000000000000000000000000000000959493929190965096509650965096509650965090919293949596565b600080610dde83610dd9906139cb565b611577565b90506000610ded863384611942565b9050610dfa86868361197f565b5080925050509392505050565b6000600a600084815260200190815260200160002060000160008373ffffffffffffffffffffffffffffffffffffffff1673ffffffffffffffffffffffffffffffffffffffff16815260200190815260200160002060009054906101000a900460ff16905092915050565b606060048054610e819061399a565b80601f0160208091040260200160405190810160405280929190818152602001828054610ead9061399a565b8015610efa5780601f10610ecf57610100808354040283529160200191610efa565b820191906000526020600020905b815481529060010190602001808311610edd57829003601f168201915b5050505050905090565b8063ffffffff16610f1433610cd7565b1015610f4c576040517ffda7bbda00000000000000000000000000000000000000000000000000000000815260040160405180910390fd5b610f5c338263ffffffff16611b0c565b6000610f6d8263ffffffff166116cd565b9050610fb8600760003373ffffffffffffffffffffffffffffffffffffffff1673ffffffffffffffffffffffffffffffffffffffff1681526020019081526020016000205482611b8e565b600760003373ffffffffffffffffffffffffffffffffffffffff1673ffffffffffffffffffffffffffffffffffffffff1681526020019081526020016000208190555061100760095482611b8e565b6009819055505050565b6000801b81565b6000806110236111dc565b905061103081858561128a565b600191505092915050565b600080829050600061104e863384611942565b905061105b86868361197f565b5080925050509392505050565b600061107533848461197f565b905092915050565b7f9f2df0fed2c77648de5860a4cc508cd0818c85b8b8a1ab4ceeef8d981c8956a681565b6110aa82610843565b6110b38161137e565b6110bd8383611484565b50505050565b60006110e133846110dc856110d7906139cb565b611577565b611ba2565b6001905092915050565b6000600160008473ffffffffffffffffffffffffffffffffffffffff1673ffffffffffffffffffffffffffffffffffffffff16815260200190815260200160002060008373ffffffffffffffffffffffffffffffffffffffff1673ffffffffffffffffffffffffffffffffffffffff16815260200190815260200160002054905092915050565b60007f01ffc9a7000000000000000000000000000000000000000000000000000000007bffffffffffffffffffffffffffffffffffffffffffffffffffffffff1916827bffffffffffffffffffffffffffffffffffffffffffffffffffffffff1916149050919050565b600033905090565b6111f18383836001611d0c565b505050565b600061120284846110eb565b90507fffffffffffffffffffffffffffffffffffffffffffffffffffffffffffffffff81146112845781811015611274578281836040517ffb8f41b200000000000000000000000000000000000000000000000000000000815260040161126b93929190613a1a565b60405180910390fd5b61128384848484036000611d0c565b5b50505050565b600073ffffffffffffffffffffffffffffffffffffffff168373ffffffffffffffffffffffffffffffffffffffff16036112fc5760006040517f96c6fd1e0000000000000000000000000000000000000000000000000000000081526004016112f39190613a51565b60405180910390fd5b600073ffffffffffffffffffffffffffffffffffffffff168273ffffffffffffffffffffffffffffffffffffffff160361136e5760006040517fec442f050000000000000000000000000000000000000000000000000000000081526004016113659190613a51565b60405180910390fd5b611379838383611ee3565b505050565b61138f8161138a6111dc565b612108565b50565b600061139e8383610e07565b611479576001600a600085815260200190815260200160002060000160008473ffffffffffffffffffffffffffffffffffffffff1673ffffffffffffffffffffffffffffffffffffffff16815260200190815260200160002060006101000a81548160ff0219169083151502179055506114166111dc565b73ffffffffffffffffffffffffffffffffffffffff168273ffffffffffffffffffffffffffffffffffffffff16847f2f8788117e7eff1d82e926ec794901d17c78024a50270940304540a733656f0d60405160405180910390a46001905061147e565b600090505b92915050565b60006114908383610e07565b1561156c576000600a600085815260200190815260200160002060000160008473ffffffffffffffffffffffffffffffffffffffff1673ffffffffffffffffffffffffffffffffffffffff16815260200190815260200160002060006101000a81548160ff0219169083151502179055506115096111dc565b73ffffffffffffffffffffffffffffffffffffffff168273ffffffffffffffffffffffffffffffffffffffff16847ff6391f5c32d9c69d2a47ea670b442974b53935d1edc7fd64eb21e047a839171b60405160405180910390a460019050611571565b600090505b92915050565b60006115868260000151612159565b9050919050565b600061159882611577565b90506115e3600760008573ffffffffffffffffffffffffffffffffffffffff1673ffffffffffffffffffffffffffffffffffffffff1681526020019081526020016000205482611b8e565b600760008573ffffffffffffffffffffffffffffffffffffffff1673ffffffffffffffffffffffffffffffffffffffff1681526020019081526020016000208190555061163260095482611b8e565b600981905550505050565b600061165061164a61216d565b83612224565b9050919050565b6000806000806116678686612265565b92509250925061167782826122c1565b82935050505092915050565b606061168e83612425565b61169f5761169c60006116cd565b92505b60008390506116b060028285612432565b91505092915050565b60606116c58383611683565b905092915050565b60006116da8260026124e8565b9050919050565b60006116ed838361258a565b905092915050565b600061170084612603565b6117115761170e6000612610565b93505b61171a83612425565b61172b5761172860006116cd565b92505b61173482612425565b6117455761174260006116cd565b91505b60008490506000849050600084905060006117636002858585612624565b9050809450505050509392505050565b600061177f83836126dc565b905092915050565b600061179282612425565b6117a3576117a060006116cd565b91505b600082905060006117b382612755565b90506000608073ffffffffffffffffffffffffffffffffffffffff166373cc01546002846040518363ffffffff1660e01b81526004016117f4929190613a6c565b602060405180830381865afa158015611811573d6000803e3d6000fd5b505050506040513d601f19601f820116820180604052508101906118359190613ab1565b9050611840816127b2565b9350505050919050565b600073ffffffffffffffffffffffffffffffffffffffff168273ffffffffffffffffffffffffffffffffffffffff16036118bc5760006040517fec442f050000000000000000000000000000000000000000000000000000000081526004016118b39190613a51565b60405180910390fd5b6118c860008383611ee3565b5050565b606061190260057f00000000000000000000000000000000000000000000000000000000000000006127bc90919063ffffffff16565b905090565b606061193d60067f00000000000000000000000000000000000000000000000000000000000000006127bc90919063ffffffff16565b905090565b60008061194f85856107bc565b9050600061195d828561286c565b9050611973868661196e8585611773565b611ba2565b80925050509392505050565b6000806119e76119d7600760008873ffffffffffffffffffffffffffffffffffffffff1673ffffffffffffffffffffffffffffffffffffffff16815260200190815260200160002054856128e590919063ffffffff16565b846119e260006116cd565b6116f5565b9050611a32600760008673ffffffffffffffffffffffffffffffffffffffff1673ffffffffffffffffffffffffffffffffffffffff1681526020019081526020016000205482611b8e565b600760008673ffffffffffffffffffffffffffffffffffffffff1673ffffffffffffffffffffffffffffffffffffffff16815260200190815260200160002081905550611abe600760008773ffffffffffffffffffffffffffffffffffffffff1673ffffffffffffffffffffffffffffffffffffffff1681526020019081526020016000205482611773565b600760008773ffffffffffffffffffffffffffffffffffffffff1673ffffffffffffffffffffffffffffffffffffffff16815260200190815260200160002081905550809150509392505050565b600073ffffffffffffffffffffffffffffffffffffffff168273ffffffffffffffffffffffffffffffffffffffff1603611b7e5760006040517f96c6fd1e000000000000000000000000000000000000000000000000000000008152600401611b759190613a51565b60405180910390fd5b611b8a82600083611ee3565b5050565b6000611b9a83836128f9565b905092915050565b600073ffffffffffffffffffffffffffffffffffffffff168373ffffffffffffffffffffffffffffffffffffffff1603611c145760006040517fe602df05000000000000000000000000000000000000000000000000000000008152600401611c0b9190613a51565b60405180910390fd5b600073ffffffffffffffffffffffffffffffffffffffff168273ffffffffffffffffffffffffffffffffffffffff1603611c865760006040517f94280d62000000000000000000000000000000000000000000000000000000008152600401611c7d9190613a51565b60405180910390fd5b80600860008573ffffffffffffffffffffffffffffffffffffffff1673ffffffffffffffffffffffffffffffffffffffff16815260200190815260200160002060008473ffffffffffffffffffffffffffffffffffffffff1673ffffffffffffffffffffffffffffffffffffffff16815260200190815260200160002081905550505050565b600073ffffffffffffffffffffffffffffffffffffffff168473ffffffffffffffffffffffffffffffffffffffff1603611d7e5760006040517fe602df05000000000000000000000000000000000000000000000000000000008152600401611d759190613a51565b60405180910390fd5b600073ffffffffffffffffffffffffffffffffffffffff168373ffffffffffffffffffffffffffffffffffffffff1603611df05760006040517f94280d62000000000000000000000000000000000000000000000000000000008152600401611de79190613a51565b60405180910390fd5b81600160008673ffffffffffffffffffffffffffffffffffffffff1673ffffffffffffffffffffffffffffffffffffffff16815260200190815260200160002060008573ffffffffffffffffffffffffffffffffffffffff1673ffffffffffffffffffffffffffffffffffffffff168152602001908152602001600020819055508015611edd578273ffffffffffffffffffffffffffffffffffffffff168473ffffffffffffffffffffffffffffffffffffffff167f8c5be1e5ebec7d5bd14f71427d1e84f3dd0314c0f7b2291e5b200ac8c7c3b92584604051611ed49190612fe6565b60405180910390a35b50505050565b600073ffffffffffffffffffffffffffffffffffffffff168373ffffffffffffffffffffffffffffffffffffffff1603611f35578060026000828254611f299190613b0d565b92505081905550612008565b60008060008573ffffffffffffffffffffffffffffffffffffffff1673ffffffffffffffffffffffffffffffffffffffff16815260200190815260200160002054905081811015611fc1578381836040517fe450d38c000000000000000000000000000000000000000000000000000000008152600401611fb893929190613a1a565b60405180910390fd5b8181036000808673ffffffffffffffffffffffffffffffffffffffff1673ffffffffffffffffffffffffffffffffffffffff16815260200190815260200160002081905550505b600073ffffffffffffffffffffffffffffffffffffffff168273ffffffffffffffffffffffffffffffffffffffff1603612051578060026000828254039250508190555061209e565b806000808473ffffffffffffffffffffffffffffffffffffffff1673ffffffffffffffffffffffffffffffffffffffff168152602001908152602001600020600082825401925050819055505b8173ffffffffffffffffffffffffffffffffffffffff168373ffffffffffffffffffffffffffffffffffffffff167fddf252ad1be2c89b69c2b068fc378daa952ba7f163c4a11628f55a4df523b3ef836040516120fb9190612fe6565b60405180910390a3505050565b6121128282610e07565b6121555780826040517fe2517d3f00000000000000000000000000000000000000000000000000000000815260040161214c929190613b41565b60405180910390fd5b5050565b6000612166826002612971565b9050919050565b60007f000000000000000000000000000000000000000000000000000000000000000073ffffffffffffffffffffffffffffffffffffffff163073ffffffffffffffffffffffffffffffffffffffff161480156121e957507f000000000000000000000000000000000000000000000000000000000000000046145b15612216577f00000000000000000000000000000000000000000000000000000000000000009050612221565b61221e612a0b565b90505b90565b60006040517f190100000000000000000000000000000000000000000000000000000000000081528360028201528260228201526042812091505092915050565b600080600060418451036122aa5760008060006020870151925060408701519150606087015160001a905061229c88828585612aa1565b9550955095505050506122ba565b60006002855160001b9250925092505b9250925092565b600060038111156122d5576122d4613b6a565b5b8260038111156122e8576122e7613b6a565b5b0315612421576001600381111561230257612301613b6a565b5b82600381111561231557612314613b6a565b5b0361234c576040517ff645eedf00000000000000000000000000000000000000000000000000000000815260040160405180910390fd5b600260038111156123605761235f613b6a565b5b82600381111561237357612372613b6a565b5b036123b8578060001c6040517ffce698f70000000000000000000000000000000000000000000000000000000081526004016123af9190612fe6565b60405180910390fd5b6003808111156123cb576123ca613b6a565b5b8260038111156123de576123dd613b6a565b5b0361242057806040517fd78bce0c000000000000000000000000000000000000000000000000000000008152600401612417919061315c565b60405180910390fd5b5b5050565b6000808214159050919050565b6060608073ffffffffffffffffffffffffffffffffffffffff1663a1848ff38561245b86612755565b8560405160200161246c9190613bba565b6040516020818303038152906040526040518463ffffffff1660e01b815260040161249993929190613bd5565b600060405180830381865afa1580156124b6573d6000803e3d6000fd5b505050506040513d6000823e3d601f19601f820116820180604052508101906124df9190613c8a565b90509392505050565b60006060608073ffffffffffffffffffffffffffffffffffffffff166319e1c5c461251286612755565b856040518363ffffffff1660e01b8152600401612530929190613cd3565b600060405180830381865afa15801561254d573d6000803e3d6000fd5b505050506040513d6000823e3d601f19601f820116820180604052508101906125769190613c8a565b905061258181612b95565b91505092915050565b600061259583612425565b6125a6576125a360006116cd565b92505b6125af82612425565b6125c0576125bd60006116cd565b91505b6000839050600083905060006125f560028484608073ffffffffffffffffffffffffffffffffffffffff1663874b1c10612ba3565b905080935050505092915050565b6000808214159050919050565b600061261d8260006124e8565b9050919050565b60006060608073ffffffffffffffffffffffffffffffffffffffff1663c2d969528761264f88612755565b61265888612755565b61266188612755565b6040518563ffffffff1660e01b81526004016126809493929190613d03565b600060405180830381865afa15801561269d573d6000803e3d6000fd5b505050506040513d6000823e3d601f19601f820116820180604052508101906126c69190613c8a565b90506126d181612b95565b915050949350505050565b60006126e783612425565b6126f8576126f560006116cd565b92505b61270182612425565b6127125761270f60006116cd565b91505b60008390506000839050600061274760028484608073ffffffffffffffffffffffffffffffffffffffff1663cc2cbeff612ba3565b905080935050505092915050565b6060602067ffffffffffffffff81111561277257612771613273565b5b6040519080825280601f01601f1916602001820160405280156127a45781602001600182028036833780820191505090505b509050816020820152919050565b6000819050919050565b606060ff60001b83146127d9576127d283612c37565b9050612866565b8180546127e59061399a565b80601f01602080910402602001604051908101604052809291908181526020018280546128119061399a565b801561285e5780601f106128335761010080835404028352916020019161285e565b820191906000526020600020905b81548152906001019060200180831161284157829003601f168201915b505050505090505b92915050565b600061287783612425565b6128885761288560006116cd565b92505b61289182612425565b6128a25761289f60006116cd565b91505b6000839050600083905060006128d760028484608073ffffffffffffffffffffffffffffffffffffffff16635211c679612ba3565b905080935050505092915050565b60006128f18383612cab565b905092915050565b600061290483612425565b6129155761291260006116cd565b92505b61291e82612425565b61292f5761292c60006116cd565b91505b60008390506000839050600061296360028484608073ffffffffffffffffffffffffffffffffffffffff16622df619612ba3565b905080935050505092915050565b60006060608073ffffffffffffffffffffffffffffffffffffffff16635fa55ca784866040518363ffffffff1660e01b81526004016129b1929190613a6c565b600060405180830381865afa1580156129ce573d6000803e3d6000fd5b505050506040513d6000823e3d601f19601f820116820180604052508101906129f79190613c8a565b9050612a0281612b95565b91505092915050565b60007f8b73c3c69bb8fe3d512ecc4cf759cc79239f7b179b0ffacaa9a75d522b39400f7f00000000000000000000000000000000000000000000000000000000000000007f00000000000000000000000000000000000000000000000000000000000000004630604051602001612a86959493929190613d5d565b60405160208183030381529060405280519060200120905090565b60008060007f7fffffffffffffffffffffffffffffff5d576e7357a4501ddfe92f46681b20a08460001c1115612ae1576000600385925092509250612b8b565b600060018888888860405160008152602001604052604051612b069493929190613db0565b6020604051602081039080840390855afa158015612b28573d6000803e3d6000fd5b505050602060405103519050600073ffffffffffffffffffffffffffffffffffffffff168173ffffffffffffffffffffffffffffffffffffffff1603612b7c57600060016000801b93509350935050612b8b565b8060008060001b935093509350505b9450945094915050565b600060208201519050919050565b60006060838388612bb389612755565b612bbc89612755565b6040518463ffffffff1660e01b8152600401612bda93929190613bd5565b600060405180830381865afa158015612bf7573d6000803e3d6000fd5b505050506040513d6000823e3d601f19601f82011682018060405250810190612c209190613c8a565b9050612c2b81612d24565b91505095945050505050565b60606000612c4483612d32565b90506000602067ffffffffffffffff811115612c6357612c62613273565b5b6040519080825280601f01601f191660200182016040528015612c955781602001600182028036833780820191505090505b5090508181528360208201528092505050919050565b6000612cb683612425565b612cc757612cc460006116cd565b92505b612cd082612425565b612ce157612cde60006116cd565b91505b600083905060008390506000612d1660028484608073ffffffffffffffffffffffffffffffffffffffff1663b9c7a54b612ba3565b905080935050505092915050565b600060208201519050919050565b60008060ff8360001c169050601f811115612d79576040517fb3512b0c00000000000000000000000000000000000000000000000000000000815260040160405180910390fd5b80915050919050565b6000604051905090565b600080fd5b600080fd5b60007fffffffff0000000000000000000000000000000000000000000000000000000082169050919050565b612dcb81612d96565b8114612dd657600080fd5b50565b600081359050612de881612dc2565b92915050565b600060208284031215612e0457612e03612d8c565b5b6000612e1284828501612dd9565b91505092915050565b60008115159050919050565b612e3081612e1b565b82525050565b6000602082019050612e4b6000830184612e27565b92915050565b600081519050919050565b600082825260208201905092915050565b60005b83811015612e8b578082015181840152602081019050612e70565b60008484015250505050565b6000601f19601f8301169050919050565b6000612eb382612e51565b612ebd8185612e5c565b9350612ecd818560208601612e6d565b612ed681612e97565b840191505092915050565b60006020820190508181036000830152612efb8184612ea8565b905092915050565b600073ffffffffffffffffffffffffffffffffffffffff82169050919050565b6000612f2e82612f03565b9050919050565b612f3e81612f23565b8114612f4957600080fd5b50565b600081359050612f5b81612f35565b92915050565b6000819050919050565b612f7481612f61565b8114612f7f57600080fd5b50565b600081359050612f9181612f6b565b92915050565b60008060408385031215612fae57612fad612d8c565b5b6000612fbc85828601612f4c565b9250506020612fcd85828601612f82565b9150509250929050565b612fe081612f61565b82525050565b6000602082019050612ffb6000830184612fd7565b92915050565b60008060006060848603121561301a57613019612d8c565b5b600061302886828701612f4c565b935050602061303986828701612f4c565b925050604061304a86828701612f82565b9150509250925092565b6000806040838503121561306b5761306a612d8c565b5b600061307985828601612f4c565b925050602061308a85828601612f4c565b9150509250929050565b6000819050919050565b60006130b96130b46130af84612f61565b613094565b612f61565b9050919050565b6130c98161309e565b82525050565b60006020820190506130e460008301846130c0565b92915050565b6000819050919050565b6130fd816130ea565b811461310857600080fd5b50565b60008135905061311a816130f4565b92915050565b60006020828403121561313657613135612d8c565b5b60006131448482850161310b565b91505092915050565b613156816130ea565b82525050565b6000602082019050613171600083018461314d565b92915050565b6000806040838503121561318e5761318d612d8c565b5b600061319c8582860161310b565b92505060206131ad85828601612f4c565b9150509250929050565b600060ff82169050919050565b6131cd816131b7565b82525050565b60006020820190506131e860008301846131c4565b92915050565b600080fd5b600060208284031215613209576132086131ee565b5b81905092915050565b6000806040838503121561322957613228612d8c565b5b600061323785828601612f4c565b925050602083013567ffffffffffffffff81111561325857613257612d91565b5b613264858286016131f3565b9150509250929050565b600080fd5b7f4e487b7100000000000000000000000000000000000000000000000000000000600052604160045260246000fd5b6132ab82612e97565b810181811067ffffffffffffffff821117156132ca576132c9613273565b5b80604052505050565b60006132dd612d82565b90506132e982826132a2565b919050565b600080fd5b600080fd5b600080fd5b600067ffffffffffffffff82111561331857613317613273565b5b61332182612e97565b9050602081019050919050565b82818337600083830152505050565b600061335061334b846132fd565b6132d3565b90508281526020810184848401111561336c5761336b6132f8565b5b61337784828561332e565b509392505050565b600082601f830112613394576133936132f3565b5b81356133a484826020860161333d565b91505092915050565b6000602082840312156133c3576133c261326e565b5b6133cd60206132d3565b9050600082013567ffffffffffffffff8111156133ed576133ec6132ee565b5b6133f98482850161337f565b60008301525092915050565b6000806040838503121561341c5761341b612d8c565b5b600061342a85828601612f4c565b925050602083013567ffffffffffffffff81111561344b5761344a612d91565b5b613457858286016133ad565b9150509250929050565b600060408284031215613477576134766131ee565b5b81905092915050565b6000806040838503121561349757613496612d8c565b5b60006134a585828601612f4c565b925050602083013567ffffffffffffffff8111156134c6576134c5612d91565b5b6134d285828601613461565b9150509250929050565b600081519050919050565b600082825260208201905092915050565b6000613503826134dc565b61350d81856134e7565b935061351d818560208601612e6d565b61352681612e97565b840191505092915050565b6000602082019050818103600083015261354b81846134f8565b905092915050565b6000604082840312156135695761356861326e565b5b61357360406132d3565b905060006135838482850161310b565b600083015250602082013567ffffffffffffffff8111156135a7576135a66132ee565b5b6135b38482850161337f565b60208301525092915050565b600080604083850312156135d6576135d5612d8c565b5b60006135e485828601612f4c565b925050602083013567ffffffffffffffff81111561360557613604612d91565b5b61361185828601613553565b9150509250929050565b600063ffffffff82169050919050565b6136348161361b565b811461363f57600080fd5b50565b6000813590506136518161362b565b92915050565b60006020828403121561366d5761366c612d8c565b5b600061367b84828501613642565b91505092915050565b60006020828403121561369a57613699612d8c565b5b60006136a884828501612f4c565b91505092915050565b60007fff0000000000000000000000000000000000000000000000000000000000000082169050919050565b6136e6816136b1565b82525050565b6136f581612f23565b82525050565b600081519050919050565b600082825260208201905092915050565b6000819050602082019050919050565b61373081612f61565b82525050565b60006137428383613727565b60208301905092915050565b6000602082019050919050565b6000613766826136fb565b6137708185613706565b935061377b83613717565b8060005b838110156137ac5781516137938882613736565b975061379e8361374e565b92505060018101905061377f565b5085935050505092915050565b600060e0820190506137ce600083018a6136dd565b81810360208301526137e08189612ea8565b905081810360408301526137f48188612ea8565b90506138036060830187612fd7565b61381060808301866136ec565b61381d60a083018561314d565b81810360c083015261382f818461375b565b905098975050505050505050565b60008060006060848603121561385657613855612d8c565b5b600061386486828701612f4c565b935050602061387586828701612f4c565b925050604084013567ffffffffffffffff81111561389657613895612d91565b5b6138a2868287016131f3565b9150509250925092565b6138b581612f61565b81146138c057600080fd5b50565b6000813590506138d2816138ac565b92915050565b6000806000606084860312156138f1576138f0612d8c565b5b60006138ff86828701612f4c565b935050602061391086828701612f4c565b9250506040613921868287016138c3565b9150509250925092565b6000806040838503121561394257613941612d8c565b5b600061395085828601612f4c565b9250506020613961858286016138c3565b9150509250929050565b7f4e487b7100000000000000000000000000000000000000000000000000000000600052602260045260246000fd5b600060028204905060018216806139b257607f821691505b6020821081036139c5576139c461396b565b5b50919050565b60006139d736836133ad565b9050919050565b60006139ea3683613553565b9050919050565b6000604082019050613a06600083018561314d565b613a13602083018461314d565b9392505050565b6000606082019050613a2f60008301866136ec565b613a3c6020830185612fd7565b613a496040830184612fd7565b949350505050565b6000602082019050613a6660008301846136ec565b92915050565b6000604082019050613a8160008301856131c4565b8181036020830152613a9381846134f8565b90509392505050565b600081519050613aab81612f6b565b92915050565b600060208284031215613ac757613ac6612d8c565b5b6000613ad584828501613a9c565b91505092915050565b7f4e487b7100000000000000000000000000000000000000000000000000000000600052601160045260246000fd5b6000613b1882612f61565b9150613b2383612f61565b9250828201905080821115613b3b57613b3a613ade565b5b92915050565b6000604082019050613b5660008301856136ec565b613b63602083018461314d565b9392505050565b7f4e487b7100000000000000000000000000000000000000000000000000000000600052602160045260246000fd5b6000819050919050565b613bb4613baf826130ea565b613b99565b82525050565b6000613bc68284613ba3565b60208201915081905092915050565b6000606082019050613bea60008301866131c4565b8181036020830152613bfc81856134f8565b90508181036040830152613c1081846134f8565b9050949350505050565b6000613c2d613c28846132fd565b6132d3565b905082815260208101848484011115613c4957613c486132f8565b5b613c54848285612e6d565b509392505050565b600082601f830112613c7157613c706132f3565b5b8151613c81848260208601613c1a565b91505092915050565b600060208284031215613ca057613c9f612d8c565b5b600082015167ffffffffffffffff811115613cbe57613cbd612d91565b5b613cca84828501613c5c565b91505092915050565b60006040820190508181036000830152613ced81856134f8565b9050613cfc60208301846131c4565b9392505050565b6000608082019050613d1860008301876131c4565b8181036020830152613d2a81866134f8565b90508181036040830152613d3e81856134f8565b90508181036060830152613d5281846134f8565b905095945050505050565b600060a082019050613d72600083018861314d565b613d7f602083018761314d565b613d8c604083018661314d565b613d996060830185612fd7565b613da660808301846136ec565b9695505050505050565b6000608082019050613dc5600083018761314d565b613dd260208301866131c4565b613ddf604083018561314d565b613dec606083018461314d565b9594505050505056fea2646970667358221220ba9f69cef7d06a140d51e68badff481b47eb7ac75dbf8b370afa86c2c0065a5d64736f6c63430008140033",
  "linkReferences": {},
  "deployedLinkReferences": {}
}