{
  "address": "0xbeb4eF1fcEa618C6ca38e3828B00f8D481EC2CC2",
  "abi": [
    {
      "inputs": [
        {
          "internalType": "string",
          "name": "name",
          "type": "string"
        },
        {
          "internalType": "string",
          "name": "symbol",
          "type": "string"
        },
        {
          "internalType": "uint256",
          "name": "initialBalance",
          "type": "uint256"
        },
        {
          "components": [
            {
              "internalType": "bytes",
              "name": "data",
              "type": "bytes"
            }
          ],
          "internalType": "struct inEuint32",
          "name": "encryptedBalance",
          "type": "tuple"
        }
      ],
      "stateMutability": "nonpayable",
      "type": "constructor"
    },
    {
      "inputs": [],
      "name": "AccessControlBadConfirmation",
      "type": "error"
    },
    {
      "inputs": [
        {
          "internalType": "address",
          "name": "account",
          "type": "address"
        },
        {
          "internalType": "bytes32",
          "name": "neededRole",
          "type": "bytes32"
        }
      ],
      "name": "AccessControlUnauthorizedAccount",
      "type": "error"
    },
    {
      "inputs": [],
      "name": "ECDSAInvalidSignature",
      "type": "error"
    },
    {
      "inputs": [
        {
          "internalType": "uint256",
          "name": "length",
          "type": "uint256"
        }
      ],
      "name": "ECDSAInvalidSignatureLength",
      "type": "error"
    },
    {
      "inputs": [
        {
          "internalType": "bytes32",
          "name": "s",
          "type": "bytes32"
        }
      ],
      "name": "ECDSAInvalidSignatureS",
      "type": "error"
    },
    {
      "inputs": [
        {
          "internalType": "address",
          "name": "spender",
          "type": "address"
        },
        {
          "internalType": "uint256",
          "name": "allowance",
          "type": "uint256"
        },
        {
          "internalType": "uint256",
          "name": "needed",
          "type": "uint256"
        }
      ],
      "name": "ERC20InsufficientAllowance",
      "type": "error"
    },
    {
      "inputs": [
        {
          "internalType": "address",
          "name": "sender",
          "type": "address"
        },
        {
          "internalType": "uint256",
          "name": "balance",
          "type": "uint256"
        },
        {
          "internalType": "uint256",
          "name": "needed",
          "type": "uint256"
        }
      ],
      "name": "ERC20InsufficientBalance",
      "type": "error"
    },
    {
      "inputs": [
        {
          "internalType": "address",
          "name": "approver",
          "type": "address"
        }
      ],
      "name": "ERC20InvalidApprover",
      "type": "error"
    },
    {
      "inputs": [
        {
          "internalType": "address",
          "name": "receiver",
          "type": "address"
        }
      ],
      "name": "ERC20InvalidReceiver",
      "type": "error"
    },
    {
      "inputs": [
        {
          "internalType": "address",
          "name": "sender",
          "type": "address"
        }
      ],
      "name": "ERC20InvalidSender",
      "type": "error"
    },
    {
      "inputs": [
        {
          "internalType": "address",
          "name": "spender",
          "type": "address"
        }
      ],
      "name": "ERC20InvalidSpender",
      "type": "error"
    },
    {
      "inputs": [],
      "name": "ErrorInsufficientFunds",
      "type": "error"
    },
    {
      "inputs": [],
      "name": "InvalidShortString",
      "type": "error"
    },
    {
      "inputs": [],
      "name": "SignerNotMessageSender",
      "type": "error"
    },
    {
      "inputs": [],
      "name": "SignerNotOwner",
      "type": "error"
    },
    {
      "inputs": [
        {
          "internalType": "string",
          "name": "str",
          "type": "string"
        }
      ],
      "name": "StringTooLong",
      "type": "error"
    },
    {
      "anonymous": false,
      "inputs": [
        {
          "indexed": true,
          "internalType": "address",
          "name": "owner",
          "type": "address"
        },
        {
          "indexed": true,
          "internalType": "address",
          "name": "spender",
          "type": "address"
        },
        {
          "indexed": false,
          "internalType": "uint256",
          "name": "value",
          "type": "uint256"
        }
      ],
      "name": "Approval",
      "type": "event"
    },
    {
      "anonymous": false,
      "inputs": [
        {
          "indexed": true,
          "internalType": "address",
          "name": "owner",
          "type": "address"
        },
        {
          "indexed": true,
          "internalType": "address",
          "name": "spender",
          "type": "address"
        }
      ],
      "name": "ApprovalEncrypted",
      "type": "event"
    },
    {
      "anonymous": false,
      "inputs": [],
      "name": "EIP712DomainChanged",
      "type": "event"
    },
    {
      "anonymous": false,
      "inputs": [
        {
          "indexed": true,
          "internalType": "bytes32",
          "name": "role",
          "type": "bytes32"
        },
        {
          "indexed": true,
          "internalType": "bytes32",
          "name": "previousAdminRole",
          "type": "bytes32"
        },
        {
          "indexed": true,
          "internalType": "bytes32",
          "name": "newAdminRole",
          "type": "bytes32"
        }
      ],
      "name": "RoleAdminChanged",
      "type": "event"
    },
    {
      "anonymous": false,
      "inputs": [
        {
          "indexed": true,
          "internalType": "bytes32",
          "name": "role",
          "type": "bytes32"
        },
        {
          "indexed": true,
          "internalType": "address",
          "name": "account",
          "type": "address"
        },
        {
          "indexed": true,
          "internalType": "address",
          "name": "sender",
          "type": "address"
        }
      ],
      "name": "RoleGranted",
      "type": "event"
    },
    {
      "anonymous": false,
      "inputs": [
        {
          "indexed": true,
          "internalType": "bytes32",
          "name": "role",
          "type": "bytes32"
        },
        {
          "indexed": true,
          "internalType": "address",
          "name": "account",
          "type": "address"
        },
        {
          "indexed": true,
          "internalType": "address",
          "name": "sender",
          "type": "address"
        }
      ],
      "name": "RoleRevoked",
      "type": "event"
    },
    {
      "anonymous": false,
      "inputs": [
        {
          "indexed": true,
          "internalType": "address",
          "name": "from",
          "type": "address"
        },
        {
          "indexed": true,
          "internalType": "address",
          "name": "to",
          "type": "address"
        },
        {
          "indexed": false,
          "internalType": "uint256",
          "name": "value",
          "type": "uint256"
        }
      ],
      "name": "Transfer",
      "type": "event"
    },
    {
      "anonymous": false,
      "inputs": [
        {
          "indexed": true,
          "internalType": "address",
          "name": "from",
          "type": "address"
        },
        {
          "indexed": true,
          "internalType": "address",
          "name": "to",
          "type": "address"
        }
      ],
      "name": "TransferEncrypted",
      "type": "event"
    },
    {
      "inputs": [],
      "name": "DEFAULT_ADMIN_ROLE",
      "outputs": [
        {
          "internalType": "bytes32",
          "name": "",
          "type": "bytes32"
        }
      ],
      "stateMutability": "view",
      "type": "function"
    },
    {
      "inputs": [],
      "name": "MINTER_ROLE",
      "outputs": [
        {
          "internalType": "bytes32",
          "name": "",
          "type": "bytes32"
        }
      ],
      "stateMutability": "view",
      "type": "function"
    },
    {
      "inputs": [
        {
          "internalType": "address",
          "name": "owner",
          "type": "address"
        },
        {
          "internalType": "address",
          "name": "spender",
          "type": "address"
        }
      ],
      "name": "_allowanceEncrypted",
      "outputs": [
        {
          "internalType": "euint32",
          "name": "",
          "type": "uint256"
        }
      ],
      "stateMutability": "view",
      "type": "function"
    },
    {
      "inputs": [
        {
          "internalType": "address",
          "name": "owner",
          "type": "address"
        },
        {
          "internalType": "address",
          "name": "spender",
          "type": "address"
        }
      ],
      "name": "allowance",
      "outputs": [
        {
          "internalType": "uint256",
          "name": "",
          "type": "uint256"
        }
      ],
      "stateMutability": "view",
      "type": "function"
    },
    {
      "inputs": [
        {
          "internalType": "address",
          "name": "spender",
          "type": "address"
        },
        {
          "components": [
            {
              "internalType": "bytes32",
              "name": "publicKey",
              "type": "bytes32"
            },
            {
              "internalType": "bytes",
              "name": "signature",
              "type": "bytes"
            }
          ],
          "internalType": "struct Permission",
          "name": "permission",
          "type": "tuple"
        }
      ],
      "name": "allowanceEncrypted",
      "outputs": [
        {
          "internalType": "bytes",
          "name": "",
          "type": "bytes"
        }
      ],
      "stateMutability": "view",
      "type": "function"
    },
    {
      "inputs": [
        {
          "internalType": "address",
          "name": "spender",
          "type": "address"
        },
        {
          "internalType": "uint256",
          "name": "value",
          "type": "uint256"
        }
      ],
      "name": "approve",
      "outputs": [
        {
          "internalType": "bool",
          "name": "",
          "type": "bool"
        }
      ],
      "stateMutability": "nonpayable",
      "type": "function"
    },
    {
      "inputs": [
        {
          "internalType": "address",
          "name": "spender",
          "type": "address"
        },
        {
          "components": [
            {
              "internalType": "bytes",
              "name": "data",
              "type": "bytes"
            }
          ],
          "internalType": "struct inEuint32",
          "name": "value",
          "type": "tuple"
        }
      ],
      "name": "approveEncrypted",
      "outputs": [
        {
          "internalType": "bool",
          "name": "",
          "type": "bool"
        }
      ],
      "stateMutability": "nonpayable",
      "type": "function"
    },
    {
      "inputs": [
        {
          "internalType": "address",
          "name": "account",
          "type": "address"
        }
      ],
      "name": "balanceOf",
      "outputs": [
        {
          "internalType": "uint256",
          "name": "",
          "type": "uint256"
        }
      ],
      "stateMutability": "view",
      "type": "function"
    },
    {
      "inputs": [
        {
          "internalType": "address",
          "name": "account",
          "type": "address"
        },
        {
          "components": [
            {
              "internalType": "bytes32",
              "name": "publicKey",
              "type": "bytes32"
            },
            {
              "internalType": "bytes",
              "name": "signature",
              "type": "bytes"
            }
          ],
          "internalType": "struct Permission",
          "name": "auth",
          "type": "tuple"
        }
      ],
      "name": "balanceOfEncrypted",
      "outputs": [
        {
          "internalType": "bytes",
          "name": "",
          "type": "bytes"
        }
      ],
      "stateMutability": "view",
      "type": "function"
    },
    {
      "inputs": [],
      "name": "decimals",
      "outputs": [
        {
          "internalType": "uint8",
          "name": "",
          "type": "uint8"
        }
      ],
      "stateMutability": "view",
      "type": "function"
    },
    {
      "inputs": [],
      "name": "eip712Domain",
      "outputs": [
        {
          "internalType": "bytes1",
          "name": "fields",
          "type": "bytes1"
        },
        {
          "internalType": "string",
          "name": "name",
          "type": "string"
        },
        {
          "internalType": "string",
          "name": "version",
          "type": "string"
        },
        {
          "internalType": "uint256",
          "name": "chainId",
          "type": "uint256"
        },
        {
          "internalType": "address",
          "name": "verifyingContract",
          "type": "address"
        },
        {
          "internalType": "bytes32",
          "name": "salt",
          "type": "bytes32"
        },
        {
          "internalType": "uint256[]",
          "name": "extensions",
          "type": "uint256[]"
        }
      ],
      "stateMutability": "view",
      "type": "function"
    },
    {
      "inputs": [
        {
          "internalType": "bytes32",
          "name": "role",
          "type": "bytes32"
        }
      ],
      "name": "getRoleAdmin",
      "outputs": [
        {
          "internalType": "bytes32",
          "name": "",
          "type": "bytes32"
        }
      ],
      "stateMutability": "view",
      "type": "function"
    },
    {
      "inputs": [
        {
          "internalType": "bytes32",
          "name": "role",
          "type": "bytes32"
        },
        {
          "internalType": "address",
          "name": "account",
          "type": "address"
        }
      ],
      "name": "grantRole",
      "outputs": [],
      "stateMutability": "nonpayable",
      "type": "function"
    },
    {
      "inputs": [
        {
          "internalType": "bytes32",
          "name": "role",
          "type": "bytes32"
        },
        {
          "internalType": "address",
          "name": "account",
          "type": "address"
        }
      ],
      "name": "hasRole",
      "outputs": [
        {
          "internalType": "bool",
          "name": "",
          "type": "bool"
        }
      ],
      "stateMutability": "view",
      "type": "function"
    },
    {
      "inputs": [
        {
          "internalType": "address",
          "name": "recipient",
          "type": "address"
        },
        {
          "components": [
            {
              "internalType": "bytes",
              "name": "data",
              "type": "bytes"
            }
          ],
          "internalType": "struct inEuint32",
          "name": "amount",
          "type": "tuple"
        }
      ],
      "name": "mintEncrypted",
      "outputs": [],
      "stateMutability": "nonpayable",
      "type": "function"
    },
    {
      "inputs": [
        {
          "components": [
            {
              "internalType": "bytes",
              "name": "data",
              "type": "bytes"
            }
          ],
          "internalType": "struct inEuint32",
          "name": "amount",
          "type": "tuple"
        }
      ],
      "name": "mintEncryptedDebug",
      "outputs": [],
      "stateMutability": "nonpayable",
      "type": "function"
    },
    {
      "inputs": [],
      "name": "name",
      "outputs": [
        {
          "internalType": "string",
          "name": "",
          "type": "string"
        }
      ],
      "stateMutability": "view",
      "type": "function"
    },
    {
      "inputs": [
        {
          "internalType": "bytes32",
          "name": "role",
          "type": "bytes32"
        },
        {
          "internalType": "address",
          "name": "callerConfirmation",
          "type": "address"
        }
      ],
      "name": "renounceRole",
      "outputs": [],
      "stateMutability": "nonpayable",
      "type": "function"
    },
    {
      "inputs": [
        {
          "internalType": "bytes32",
          "name": "role",
          "type": "bytes32"
        },
        {
          "internalType": "address",
          "name": "account",
          "type": "address"
        }
      ],
      "name": "revokeRole",
      "outputs": [],
      "stateMutability": "nonpayable",
      "type": "function"
    },
    {
      "inputs": [
        {
          "internalType": "bytes4",
          "name": "interfaceId",
          "type": "bytes4"
        }
      ],
      "name": "supportsInterface",
      "outputs": [
        {
          "internalType": "bool",
          "name": "",
          "type": "bool"
        }
      ],
      "stateMutability": "view",
      "type": "function"
    },
    {
      "inputs": [],
      "name": "symbol",
      "outputs": [
        {
          "internalType": "string",
          "name": "",
          "type": "string"
        }
      ],
      "stateMutability": "view",
      "type": "function"
    },
    {
      "inputs": [],
      "name": "totalSupply",
      "outputs": [
        {
          "internalType": "uint256",
          "name": "",
          "type": "uint256"
        }
      ],
      "stateMutability": "view",
      "type": "function"
    },
    {
      "inputs": [
        {
          "internalType": "address",
          "name": "to",
          "type": "address"
        },
        {
          "internalType": "uint256",
          "name": "value",
          "type": "uint256"
        }
      ],
      "name": "transfer",
      "outputs": [
        {
          "internalType": "bool",
          "name": "",
          "type": "bool"
        }
      ],
      "stateMutability": "nonpayable",
      "type": "function"
    },
    {
      "inputs": [
        {
          "internalType": "address",
          "name": "to",
          "type": "address"
        },
        {
          "components": [
            {
              "internalType": "bytes",
              "name": "data",
              "type": "bytes"
            }
          ],
          "internalType": "struct inEuint32",
          "name": "encryptedAmount",
          "type": "tuple"
        }
      ],
      "name": "transferEncrypted",
      "outputs": [
        {
          "internalType": "euint32",
          "name": "",
          "type": "uint256"
        }
      ],
      "stateMutability": "nonpayable",
      "type": "function"
    },
    {
      "inputs": [
        {
          "internalType": "address",
          "name": "to",
          "type": "address"
        },
        {
          "internalType": "euint32",
          "name": "amount",
          "type": "uint256"
        }
      ],
      "name": "transferEncrypted",
      "outputs": [
        {
          "internalType": "euint32",
          "name": "",
          "type": "uint256"
        }
      ],
      "stateMutability": "nonpayable",
      "type": "function"
    },
    {
      "inputs": [
        {
          "internalType": "address",
          "name": "from",
          "type": "address"
        },
        {
          "internalType": "address",
          "name": "to",
          "type": "address"
        },
        {
          "internalType": "uint256",
          "name": "value",
          "type": "uint256"
        }
      ],
      "name": "transferFrom",
      "outputs": [
        {
          "internalType": "bool",
          "name": "",
          "type": "bool"
        }
      ],
      "stateMutability": "nonpayable",
      "type": "function"
    },
    {
      "inputs": [
        {
          "internalType": "address",
          "name": "from",
          "type": "address"
        },
        {
          "internalType": "address",
          "name": "to",
          "type": "address"
        },
        {
          "components": [
            {
              "internalType": "bytes",
              "name": "data",
              "type": "bytes"
            }
          ],
          "internalType": "struct inEuint32",
          "name": "value",
          "type": "tuple"
        }
      ],
      "name": "transferFromEncrypted",
      "outputs": [
        {
          "internalType": "euint32",
          "name": "",
          "type": "uint256"
        }
      ],
      "stateMutability": "nonpayable",
      "type": "function"
    },
    {
      "inputs": [
        {
          "internalType": "address",
          "name": "from",
          "type": "address"
        },
        {
          "internalType": "address",
          "name": "to",
          "type": "address"
        },
        {
          "internalType": "euint32",
          "name": "value",
          "type": "uint256"
        }
      ],
      "name": "transferFromEncrypted",
      "outputs": [
        {
          "internalType": "euint32",
          "name": "",
          "type": "uint256"
        }
      ],
      "stateMutability": "nonpayable",
      "type": "function"
    },
    {
      "inputs": [
        {
          "internalType": "uint32",
          "name": "amount",
          "type": "uint32"
        }
      ],
      "name": "unwrap",
      "outputs": [],
      "stateMutability": "nonpayable",
      "type": "function"
    },
    {
      "inputs": [
        {
          "internalType": "uint32",
          "name": "amount",
          "type": "uint32"
        }
      ],
      "name": "wrap",
      "outputs": [],
      "stateMutability": "nonpayable",
      "type": "function"
    }
  ],
  "transactionHash": "0x07b07b9eab0f6672e6036fa197cb221b4a2d847e57bd9f32e3a4efda21a14725",
  "args": [
    "token",
    "FHE",
    10000000,
    {
      "data": {
        "0": 4,
        "1": 8,
        "2": 0,
        "3": 0,
        "4": 0,
        "5": 0,
        "6": 0,
        "7": 0,
        "8": 15,
        "9": 181,
        "10": 124,
        "11": 99,
        "12": 222,
        "13": 69,
        "14": 194,
        "15": 163,
        "16": 154,
        "17": 0,
        "18": 25,
        "19": 91,
        "20": 148,
        "21": 9,
        "22": 183,
        "23": 155,
        "24": 67,
        "25": 61,
        "26": 150,
        "27": 132,
        "28": 178,
        "29": 248,
        "30": 176,
        "31": 152,
        "32": 248,
        "33": 193,
        "34": 13,
        "35": 2,
        "36": 68,
        "37": 92,
        "38": 162,
        "39": 31,
        "40": 189,
        "41": 20,
        "42": 241,
        "43": 172,
        "44": 44,
        "45": 158,
        "46": 197,
        "47": 234,
        "48": 43,
        "49": 199,
        "50": 57,
        "51": 85,
        "52": 223,
        "53": 180,
        "54": 236,
        "55": 238,
        "56": 41,
        "57": 113,
        "58": 143,
        "59": 14,
        "60": 249,
        "61": 25,
        "62": 62,
        "63": 87,
        "64": 15,
        "65": 109,
        "66": 104,
        "67": 220,
        "68": 17,
        "69": 123,
        "70": 104,
        "71": 209,
        "72": 63,
        "73": 251,
        "74": 186,
        "75": 138,
        "76": 22,
        "77": 240,
        "78": 14,
        "79": 206,
        "80": 247,
        "81": 89,
        "82": 35,
        "83": 108,
        "84": 197,
        "85": 154,
        "86": 40,
        "87": 95,
        "88": 13,
        "89": 87,
        "90": 225,
        "91": 162,
        "92": 154,
        "93": 54,
        "94": 210,
        "95": 251,
        "96": 155,
        "97": 1,
        "98": 78,
        "99": 50,
        "100": 69,
        "101": 183,
        "102": 252,
        "103": 98,
        "104": 11,
        "105": 254,
        "106": 229,
        "107": 225,
        "108": 234,
        "109": 160,
        "110": 80,
        "111": 6,
        "112": 223,
        "113": 79,
        "114": 89,
        "115": 15,
        "116": 103,
        "117": 116,
        "118": 113,
        "119": 26,
        "120": 16,
        "121": 43,
        "122": 30,
        "123": 137,
        "124": 1,
        "125": 240,
        "126": 239,
        "127": 75,
        "128": 247,
        "129": 26,
        "130": 34,
        "131": 55,
        "132": 214,
        "133": 171,
        "134": 179,
        "135": 219,
        "136": 241,
        "137": 155,
        "138": 54,
        "139": 193,
        "140": 40,
        "141": 178,
        "142": 235,
        "143": 95,
        "144": 43,
        "145": 39,
        "146": 229,
        "147": 84,
        "148": 214,
        "149": 63,
        "150": 228,
        "151": 89,
        "152": 168,
        "153": 183,
        "154": 134,
        "155": 106,
        "156": 156,
        "157": 189,
        "158": 71,
        "159": 126,
        "160": 13,
        "161": 153,
        "162": 96,
        "163": 113,
        "164": 9,
        "165": 115,
        "166": 20,
        "167": 175,
        "168": 3,
        "169": 101,
        "170": 218,
        "171": 125,
        "172": 155,
        "173": 119,
        "174": 11,
        "175": 52,
        "176": 146,
        "177": 15,
        "178": 98,
        "179": 111,
        "180": 233,
        "181": 9,
        "182": 170,
        "183": 214,
        "184": 36,
        "185": 246,
        "186": 245,
        "187": 190,
        "188": 250,
        "189": 166,
        "190": 128,
        "191": 106,
        "192": 246,
        "193": 245,
        "194": 189,
        "195": 251,
        "196": 126,
        "197": 151,
        "198": 98,
        "199": 145,
        "200": 102,
        "201": 220,
        "202": 143,
        "203": 229,
        "204": 246,
        "205": 185,
        "206": 223,
        "207": 117,
        "208": 153,
        "209": 219,
        "210": 222,
        "211": 3,
        "212": 237,
        "213": 150,
        "214": 168,
        "215": 147,
        "216": 159,
        "217": 15,
        "218": 81,
        "219": 116,
        "220": 201,
        "221": 96,
        "222": 102,
        "223": 232,
        "224": 3,
        "225": 90,
        "226": 128,
        "227": 4,
        "228": 253,
        "229": 193,
        "230": 154,
        "231": 106,
        "232": 103,
        "233": 110,
        "234": 74,
        "235": 150,
        "236": 125,
        "237": 86,
        "238": 30,
        "239": 112,
        "240": 96,
        "241": 53,
        "242": 3,
        "243": 140,
        "244": 145,
        "245": 119,
        "246": 203,
        "247": 86,
        "248": 208,
        "249": 72,
        "250": 60,
        "251": 209,
        "252": 99,
        "253": 62,
        "254": 157,
        "255": 71,
        "256": 136,
        "257": 28,
        "258": 208,
        "259": 124,
        "260": 122,
        "261": 92,
        "262": 119,
        "263": 65,
        "264": 135,
        "265": 122,
        "266": 8,
        "267": 115,
        "268": 172,
        "269": 124,
        "270": 53,
        "271": 69,
        "272": 197,
        "273": 127,
        "274": 15,
        "275": 203,
        "276": 73,
        "277": 184,
        "278": 12,
        "279": 102,
        "280": 87,
        "281": 64,
        "282": 11,
        "283": 133,
        "284": 33,
        "285": 123,
        "286": 217,
        "287": 225,
        "288": 17,
        "289": 192,
        "290": 111,
        "291": 98,
        "292": 169,
        "293": 125,
        "294": 121,
        "295": 77,
        "296": 128,
        "297": 251,
        "298": 138,
        "299": 247,
        "300": 46,
        "301": 226,
        "302": 36,
        "303": 65,
        "304": 151,
        "305": 17,
        "306": 145,
        "307": 41,
        "308": 54,
        "309": 117,
        "310": 228,
        "311": 120,
        "312": 22,
        "313": 183,
        "314": 144,
        "315": 203,
        "316": 241,
        "317": 109,
        "318": 106,
        "319": 143,
        "320": 190,
        "321": 233,
        "322": 232,
        "323": 19,
        "324": 223,
        "325": 118,
        "326": 147,
        "327": 176,
        "328": 72,
        "329": 118,
        "330": 28,
        "331": 31,
        "332": 23,
        "333": 24,
        "334": 207,
        "335": 58,
        "336": 253,
        "337": 77,
        "338": 55,
        "339": 45,
        "340": 116,
        "341": 22,
        "342": 68,
        "343": 109,
        "344": 134,
        "345": 247,
        "346": 253,
        "347": 76,
        "348": 24,
        "349": 23,
        "350": 115,
        "351": 160,
        "352": 103,
        "353": 3,
        "354": 23,
        "355": 153,
        "356": 181,
        "357": 23,
        "358": 56,
        "359": 15,
        "360": 46,
        "361": 23,
        "362": 217,
        "363": 125,
        "364": 194,
        "365": 174,
        "366": 4,
        "367": 74,
        "368": 187,
        "369": 61,
        "370": 188,
        "371": 111,
        "372": 220,
        "373": 7,
        "374": 126,
        "375": 12,
        "376": 38,
        "377": 95,
        "378": 74,
        "379": 82,
        "380": 84,
        "381": 190,
        "382": 50,
        "383": 110,
        "384": 253,
        "385": 251,
        "386": 141,
        "387": 198,
        "388": 124,
        "389": 152,
        "390": 62,
        "391": 58,
        "392": 13,
        "393": 56,
        "394": 173,
        "395": 138,
        "396": 7,
        "397": 204,
        "398": 240,
        "399": 142,
        "400": 14,
        "401": 211,
        "402": 31,
        "403": 116,
        "404": 218,
        "405": 19,
        "406": 91,
        "407": 71,
        "408": 69,
        "409": 96,
        "410": 50,
        "411": 81,
        "412": 125,
        "413": 57,
        "414": 177,
        "415": 248,
        "416": 188,
        "417": 248,
        "418": 20,
        "419": 24,
        "420": 208,
        "421": 48,
        "422": 61,
        "423": 190,
        "424": 247,
        "425": 228,
        "426": 168,
        "427": 104,
        "428": 155,
        "429": 194,
        "430": 21,
        "431": 253,
        "432": 199,
        "433": 10,
        "434": 229,
        "435": 150,
        "436": 87,
        "437": 191,
        "438": 119,
        "439": 70,
        "440": 161,
        "441": 153,
        "442": 107,
        "443": 106,
        "444": 21,
        "445": 243,
        "446": 66,
        "447": 56,
        "448": 85,
        "449": 0,
        "450": 110,
        "451": 105,
        "452": 175,
        "453": 74,
        "454": 165,
        "455": 200,
        "456": 195,
        "457": 67,
        "458": 91,
        "459": 128,
        "460": 76,
        "461": 109,
        "462": 244,
        "463": 54,
        "464": 93,
        "465": 170,
        "466": 118,
        "467": 22,
        "468": 220,
        "469": 201,
        "470": 249,
        "471": 85,
        "472": 183,
        "473": 91,
        "474": 112,
        "475": 233,
        "476": 211,
        "477": 39,
        "478": 202,
        "479": 52,
        "480": 50,
        "481": 96,
        "482": 140,
        "483": 99,
        "484": 12,
        "485": 171,
        "486": 242,
        "487": 67,
        "488": 156,
        "489": 181,
        "490": 253,
        "491": 64,
        "492": 129,
        "493": 185,
        "494": 33,
        "495": 176,
        "496": 30,
        "497": 15,
        "498": 13,
        "499": 67,
        "500": 12,
        "501": 243,
        "502": 242,
        "503": 198,
        "504": 154,
        "505": 162,
        "506": 88,
        "507": 214,
        "508": 110,
        "509": 208,
        "510": 55,
        "511": 144,
        "512": 39,
        "513": 63,
        "514": 232,
        "515": 40,
        "516": 108,
        "517": 65,
        "518": 255,
        "519": 144,
        "520": 201,
        "521": 196,
        "522": 24,
        "523": 173,
        "524": 194,
        "525": 148,
        "526": 126,
        "527": 201,
        "528": 186,
        "529": 236,
        "530": 114,
        "531": 1,
        "532": 188,
        "533": 60,
        "534": 248,
        "535": 57,
        "536": 179,
        "537": 14,
        "538": 193,
        "539": 41,
        "540": 253,
        "541": 7,
        "542": 252,
        "543": 45,
        "544": 79,
        "545": 35,
        "546": 3,
        "547": 255,
        "548": 155,
        "549": 192,
        "550": 75,
        "551": 47,
        "552": 251,
        "553": 59,
        "554": 244,
        "555": 181,
        "556": 26,
        "557": 168,
        "558": 173,
        "559": 165,
        "560": 175,
        "561": 189,
        "562": 64,
        "563": 2,
        "564": 25,
        "565": 159,
        "566": 164,
        "567": 199,
        "568": 49,
        "569": 202,
        "570": 203,
        "571": 36,
        "572": 79,
        "573": 146,
        "574": 206,
        "575": 154,
        "576": 103,
        "577": 172,
        "578": 67,
        "579": 160,
        "580": 35,
        "581": 186,
        "582": 170,
        "583": 83,
        "584": 72,
        "585": 184,
        "586": 225,
        "587": 190,
        "588": 103,
        "589": 181,
        "590": 217,
        "591": 24,
        "592": 152,
        "593": 90,
        "594": 230,
        "595": 43,
        "596": 73,
        "597": 39,
        "598": 224,
        "599": 160,
        "600": 72,
        "601": 95,
        "602": 21,
        "603": 103,
        "604": 225,
        "605": 120,
        "606": 140,
        "607": 53,
        "608": 168,
        "609": 230,
        "610": 205,
        "611": 158,
        "612": 227,
        "613": 89,
        "614": 93,
        "615": 241,
        "616": 229,
        "617": 172,
        "618": 227,
        "619": 58,
        "620": 244,
        "621": 72,
        "622": 212,
        "623": 101,
        "624": 238,
        "625": 108,
        "626": 27,
        "627": 252,
        "628": 220,
        "629": 89,
        "630": 227,
        "631": 17,
        "632": 201,
        "633": 54,
        "634": 157,
        "635": 160,
        "636": 83,
        "637": 154,
        "638": 130,
        "639": 244,
        "640": 11,
        "641": 229,
        "642": 27,
        "643": 219,
        "644": 254,
        "645": 51,
        "646": 134,
        "647": 29,
        "648": 210,
        "649": 73,
        "650": 29,
        "651": 97,
        "652": 151,
        "653": 136,
        "654": 118,
        "655": 110,
        "656": 171,
        "657": 206,
        "658": 160,
        "659": 203,
        "660": 236,
        "661": 89,
        "662": 174,
        "663": 160,
        "664": 143,
        "665": 43,
        "666": 41,
        "667": 44,
        "668": 145,
        "669": 35,
        "670": 219,
        "671": 42,
        "672": 166,
        "673": 171,
        "674": 86,
        "675": 238,
        "676": 127,
        "677": 0,
        "678": 72,
        "679": 89,
        "680": 211,
        "681": 209,
        "682": 78,
        "683": 208,
        "684": 72,
        "685": 125,
        "686": 5,
        "687": 144,
        "688": 205,
        "689": 143,
        "690": 91,
        "691": 223,
        "692": 196,
        "693": 36,
        "694": 143,
        "695": 157,
        "696": 95,
        "697": 111,
        "698": 86,
        "699": 166,
        "700": 120,
        "701": 75,
        "702": 245,
        "703": 65,
        "704": 33,
        "705": 178,
        "706": 241,
        "707": 10,
        "708": 214,
        "709": 15,
        "710": 101,
        "711": 68,
        "712": 122,
        "713": 78,
        "714": 51,
        "715": 65,
        "716": 6,
        "717": 195,
        "718": 109,
        "719": 33,
        "720": 71,
        "721": 44,
        "722": 33,
        "723": 137,
        "724": 222,
        "725": 100,
        "726": 94,
        "727": 220,
        "728": 180,
        "729": 247,
        "730": 106,
        "731": 191,
        "732": 222,
        "733": 48,
        "734": 107,
        "735": 85,
        "736": 252,
        "737": 150,
        "738": 48,
        "739": 79,
        "740": 242,
        "741": 54,
        "742": 237,
        "743": 249,
        "744": 35,
        "745": 104,
        "746": 235,
        "747": 108,
        "748": 246,
        "749": 44,
        "750": 68,
        "751": 158,
        "752": 1,
        "753": 128,
        "754": 252,
        "755": 217,
        "756": 92,
        "757": 166,
        "758": 253,
        "759": 24,
        "760": 135,
        "761": 140,
        "762": 51,
        "763": 238,
        "764": 126,
        "765": 64,
        "766": 65,
        "767": 52,
        "768": 39,
        "769": 148,
        "770": 167,
        "771": 246,
        "772": 102,
        "773": 223,
        "774": 240,
        "775": 54,
        "776": 250,
        "777": 50,
        "778": 255,
        "779": 250,
        "780": 39,
        "781": 74,
        "782": 40,
        "783": 63,
        "784": 35,
        "785": 109,
        "786": 225,
        "787": 3,
        "788": 143,
        "789": 55,
        "790": 128,
        "791": 99,
        "792": 50,
        "793": 199,
        "794": 63,
        "795": 180,
        "796": 73,
        "797": 20,
        "798": 107,
        "799": 249,
        "800": 49,
        "801": 23,
        "802": 75,
        "803": 73,
        "804": 51,
        "805": 31,
        "806": 244,
        "807": 55,
        "808": 90,
        "809": 0,
        "810": 61,
        "811": 250,
        "812": 23,
        "813": 93,
        "814": 193,
        "815": 140,
        "816": 247,
        "817": 143,
        "818": 165,
        "819": 238,
        "820": 212,
        "821": 52,
        "822": 74,
        "823": 232,
        "824": 131,
        "825": 179,
        "826": 193,
        "827": 77,
        "828": 174,
        "829": 102,
        "830": 149,
        "831": 186,
        "832": 92,
        "833": 99,
        "834": 31,
        "835": 0,
        "836": 250,
        "837": 255,
        "838": 185,
        "839": 155,
        "840": 34,
        "841": 140,
        "842": 171,
        "843": 20,
        "844": 67,
        "845": 59,
        "846": 102,
        "847": 154,
        "848": 162,
        "849": 87,
        "850": 88,
        "851": 115,
        "852": 188,
        "853": 136,
        "854": 143,
        "855": 206,
        "856": 228,
        "857": 36,
        "858": 36,
        "859": 95,
        "860": 101,
        "861": 149,
        "862": 180,
        "863": 191,
        "864": 51,
        "865": 49,
        "866": 124,
        "867": 40,
        "868": 118,
        "869": 211,
        "870": 5,
        "871": 145,
        "872": 60,
        "873": 134,
        "874": 40,
        "875": 10,
        "876": 150,
        "877": 54,
        "878": 42,
        "879": 153,
        "880": 195,
        "881": 73,
        "882": 85,
        "883": 68,
        "884": 9,
        "885": 57,
        "886": 148,
        "887": 252,
        "888": 167,
        "889": 63,
        "890": 43,
        "891": 226,
        "892": 76,
        "893": 29,
        "894": 171,
        "895": 105,
        "896": 145,
        "897": 32,
        "898": 142,
        "899": 211,
        "900": 163,
        "901": 3,
        "902": 129,
        "903": 215,
        "904": 99,
        "905": 166,
        "906": 255,
        "907": 127,
        "908": 221,
        "909": 94,
        "910": 141,
        "911": 64,
        "912": 110,
        "913": 247,
        "914": 144,
        "915": 156,
        "916": 138,
        "917": 255,
        "918": 177,
        "919": 49,
        "920": 206,
        "921": 81,
        "922": 249,
        "923": 191,
        "924": 128,
        "925": 175,
        "926": 58,
        "927": 75,
        "928": 195,
        "929": 167,
        "930": 84,
        "931": 246,
        "932": 98,
        "933": 176,
        "934": 156,
        "935": 22,
        "936": 222,
        "937": 209,
        "938": 152,
        "939": 166,
        "940": 7,
        "941": 113,
        "942": 218,
        "943": 132,
        "944": 154,
        "945": 38,
        "946": 146,
        "947": 204,
        "948": 133,
        "949": 193,
        "950": 66,
        "951": 223,
        "952": 193,
        "953": 27,
        "954": 53,
        "955": 122,
        "956": 40,
        "957": 143,
        "958": 134,
        "959": 250,
        "960": 228,
        "961": 92,
        "962": 81,
        "963": 118,
        "964": 40,
        "965": 69,
        "966": 15,
        "967": 64,
        "968": 122,
        "969": 45,
        "970": 13,
        "971": 249,
        "972": 19,
        "973": 113,
        "974": 165,
        "975": 123,
        "976": 78,
        "977": 168,
        "978": 19,
        "979": 41,
        "980": 237,
        "981": 44,
        "982": 226,
        "983": 1,
        "984": 160,
        "985": 36,
        "986": 165,
        "987": 54,
        "988": 112,
        "989": 228,
        "990": 79,
        "991": 123,
        "992": 118,
        "993": 76,
        "994": 220,
        "995": 54,
        "996": 77,
        "997": 8,
        "998": 162,
        "999": 115,
        "1000": 217,
        "1001": 250,
        "1002": 75,
        "1003": 178,
        "1004": 250,
        "1005": 167,
        "1006": 41,
        "1007": 217,
        "1008": 61,
        "1009": 35,
        "1010": 43,
        "1011": 251,
        "1012": 99,
        "1013": 144,
        "1014": 127,
        "1015": 226,
        "1016": 245,
        "1017": 38,
        "1018": 246,
        "1019": 184,
        "1020": 130,
        "1021": 192,
        "1022": 231,
        "1023": 34,
        "1024": 190,
        "1025": 7,
        "1026": 20,
        "1027": 59,
        "1028": 107,
        "1029": 181,
        "1030": 70,
        "1031": 65,
        "1032": 206,
        "1033": 94,
        "1034": 70,
        "1035": 230,
        "1036": 214,
        "1037": 37,
        "1038": 152,
        "1039": 216,
        "1040": 89,
        "1041": 135,
        "1042": 147,
        "1043": 217,
        "1044": 11,
        "1045": 45,
        "1046": 5,
        "1047": 33,
        "1048": 65,
        "1049": 225,
        "1050": 27,
        "1051": 227,
        "1052": 252,
        "1053": 48,
        "1054": 230,
        "1055": 241,
        "1056": 166,
        "1057": 52,
        "1058": 110,
        "1059": 116,
        "1060": 59,
        "1061": 241,
        "1062": 51,
        "1063": 120,
        "1064": 109,
        "1065": 131,
        "1066": 53,
        "1067": 74,
        "1068": 101,
        "1069": 63,
        "1070": 147,
        "1071": 7,
        "1072": 71,
        "1073": 100,
        "1074": 107,
        "1075": 23,
        "1076": 125,
        "1077": 98,
        "1078": 227,
        "1079": 73,
        "1080": 59,
        "1081": 6,
        "1082": 177,
        "1083": 219,
        "1084": 121,
        "1085": 139,
        "1086": 157,
        "1087": 130,
        "1088": 123,
        "1089": 62,
        "1090": 247,
        "1091": 193,
        "1092": 61,
        "1093": 29,
        "1094": 177,
        "1095": 226,
        "1096": 209,
        "1097": 223,
        "1098": 8,
        "1099": 123,
        "1100": 34,
        "1101": 131,
        "1102": 134,
        "1103": 15,
        "1104": 80,
        "1105": 143,
        "1106": 49,
        "1107": 247,
        "1108": 238,
        "1109": 231,
        "1110": 31,
        "1111": 192,
        "1112": 185,
        "1113": 183,
        "1114": 156,
        "1115": 73,
        "1116": 128,
        "1117": 62,
        "1118": 48,
        "1119": 193,
        "1120": 101,
        "1121": 18,
        "1122": 156,
        "1123": 252,
        "1124": 206,
        "1125": 223,
        "1126": 173,
        "1127": 18,
        "1128": 216,
        "1129": 8,
        "1130": 197,
        "1131": 230,
        "1132": 198,
        "1133": 234,
        "1134": 71,
        "1135": 233,
        "1136": 66,
        "1137": 132,
        "1138": 254,
        "1139": 88,
        "1140": 48,
        "1141": 149,
        "1142": 173,
        "1143": 217,
        "1144": 155,
        "1145": 225,
        "1146": 81,
        "1147": 181,
        "1148": 106,
        "1149": 155,
        "1150": 242,
        "1151": 186,
        "1152": 152,
        "1153": 152,
        "1154": 137,
        "1155": 21,
        "1156": 143,
        "1157": 13,
        "1158": 20,
        "1159": 121,
        "1160": 223,
        "1161": 110,
        "1162": 255,
        "1163": 192,
        "1164": 193,
        "1165": 95,
        "1166": 71,
        "1167": 115,
        "1168": 81,
        "1169": 207,
        "1170": 208,
        "1171": 1,
        "1172": 168,
        "1173": 162,
        "1174": 220,
        "1175": 220,
        "1176": 218,
        "1177": 19,
        "1178": 191,
        "1179": 5,
        "1180": 128,
        "1181": 147,
        "1182": 117,
        "1183": 212,
        "1184": 185,
        "1185": 97,
        "1186": 179,
        "1187": 75,
        "1188": 171,
        "1189": 98,
        "1190": 145,
        "1191": 5,
        "1192": 94,
        "1193": 125,
        "1194": 190,
        "1195": 16,
        "1196": 80,
        "1197": 60,
        "1198": 57,
        "1199": 245,
        "1200": 103,
        "1201": 223,
        "1202": 93,
        "1203": 101,
        "1204": 218,
        "1205": 136,
        "1206": 223,
        "1207": 145,
        "1208": 25,
        "1209": 209,
        "1210": 80,
        "1211": 158,
        "1212": 199,
        "1213": 17,
        "1214": 214,
        "1215": 101,
        "1216": 44,
        "1217": 252,
        "1218": 207,
        "1219": 188,
        "1220": 169,
        "1221": 193,
        "1222": 184,
        "1223": 169,
        "1224": 188,
        "1225": 104,
        "1226": 211,
        "1227": 211,
        "1228": 87,
        "1229": 6,
        "1230": 5,
        "1231": 133,
        "1232": 252,
        "1233": 129,
        "1234": 80,
        "1235": 252,
        "1236": 55,
        "1237": 214,
        "1238": 203,
        "1239": 167,
        "1240": 127,
        "1241": 62,
        "1242": 40,
        "1243": 75,
        "1244": 107,
        "1245": 71,
        "1246": 179,
        "1247": 14,
        "1248": 198,
        "1249": 64,
        "1250": 135,
        "1251": 185,
        "1252": 15,
        "1253": 2,
        "1254": 107,
        "1255": 122,
        "1256": 105,
        "1257": 200,
        "1258": 142,
        "1259": 40,
        "1260": 87,
        "1261": 1,
        "1262": 212,
        "1263": 146,
        "1264": 122,
        "1265": 128,
        "1266": 176,
        "1267": 161,
        "1268": 128,
        "1269": 39,
        "1270": 59,
        "1271": 159,
        "1272": 119,
        "1273": 45,
        "1274": 85,
        "1275": 143,
        "1276": 170,
        "1277": 212,
        "1278": 191,
        "1279": 195,
        "1280": 105,
        "1281": 131,
        "1282": 163,
        "1283": 31,
        "1284": 20,
        "1285": 43,
        "1286": 110,
        "1287": 178,
        "1288": 180,
        "1289": 193,
        "1290": 72,
        "1291": 225,
        "1292": 61,
        "1293": 143,
        "1294": 124,
        "1295": 228,
        "1296": 47,
        "1297": 10,
        "1298": 33,
        "1299": 112,
        "1300": 171,
        "1301": 35,
        "1302": 23,
        "1303": 7,
        "1304": 239,
        "1305": 206,
        "1306": 107,
        "1307": 151,
        "1308": 252,
        "1309": 49,
        "1310": 79,
        "1311": 95,
        "1312": 245,
        "1313": 42,
        "1314": 17,
        "1315": 150,
        "1316": 27,
        "1317": 166,
        "1318": 96,
        "1319": 177,
        "1320": 102,
        "1321": 199,
        "1322": 31,
        "1323": 163,
        "1324": 40,
        "1325": 213,
        "1326": 246,
        "1327": 163,
        "1328": 183,
        "1329": 206,
        "1330": 177,
        "1331": 150,
        "1332": 128,
        "1333": 80,
        "1334": 114,
        "1335": 99,
        "1336": 185,
        "1337": 124,
        "1338": 221,
        "1339": 186,
        "1340": 150,
        "1341": 40,
        "1342": 217,
        "1343": 148,
        "1344": 77,
        "1345": 231,
        "1346": 81,
        "1347": 77,
        "1348": 21,
        "1349": 206,
        "1350": 129,
        "1351": 251,
        "1352": 191,
        "1353": 242,
        "1354": 219,
        "1355": 170,
        "1356": 215,
        "1357": 246,
        "1358": 222,
        "1359": 60,
        "1360": 79,
        "1361": 2,
        "1362": 238,
        "1363": 220,
        "1364": 85,
        "1365": 0,
        "1366": 134,
        "1367": 159,
        "1368": 169,
        "1369": 220,
        "1370": 63,
        "1371": 181,
        "1372": 148,
        "1373": 20,
        "1374": 86,
        "1375": 201,
        "1376": 54,
        "1377": 173,
        "1378": 193,
        "1379": 94,
        "1380": 142,
        "1381": 238,
        "1382": 190,
        "1383": 72,
        "1384": 249,
        "1385": 69,
        "1386": 71,
        "1387": 136,
        "1388": 82,
        "1389": 118,
        "1390": 210,
        "1391": 78,
        "1392": 59,
        "1393": 82,
        "1394": 180,
        "1395": 136,
        "1396": 168,
        "1397": 10,
        "1398": 24,
        "1399": 239,
        "1400": 247,
        "1401": 114,
        "1402": 50,
        "1403": 67,
        "1404": 156,
        "1405": 1,
        "1406": 205,
        "1407": 174,
        "1408": 44,
        "1409": 216,
        "1410": 127,
        "1411": 124,
        "1412": 142,
        "1413": 98,
        "1414": 240,
        "1415": 153,
        "1416": 92,
        "1417": 137,
        "1418": 135,
        "1419": 158,
        "1420": 184,
        "1421": 163,
        "1422": 25,
        "1423": 159,
        "1424": 237,
        "1425": 47,
        "1426": 87,
        "1427": 187,
        "1428": 250,
        "1429": 60,
        "1430": 76,
        "1431": 41,
        "1432": 181,
        "1433": 170,
        "1434": 22,
        "1435": 197,
        "1436": 167,
        "1437": 229,
        "1438": 131,
        "1439": 102,
        "1440": 38,
        "1441": 1,
        "1442": 12,
        "1443": 8,
        "1444": 184,
        "1445": 28,
        "1446": 13,
        "1447": 85,
        "1448": 195,
        "1449": 102,
        "1450": 151,
        "1451": 253,
        "1452": 51,
        "1453": 134,
        "1454": 249,
        "1455": 158,
        "1456": 71,
        "1457": 100,
        "1458": 36,
        "1459": 60,
        "1460": 227,
        "1461": 255,
        "1462": 74,
        "1463": 96,
        "1464": 106,
        "1465": 216,
        "1466": 197,
        "1467": 244,
        "1468": 67,
        "1469": 145,
        "1470": 248,
        "1471": 189,
        "1472": 216,
        "1473": 6,
        "1474": 4,
        "1475": 203,
        "1476": 83,
        "1477": 61,
        "1478": 181,
        "1479": 190,
        "1480": 92,
        "1481": 153,
        "1482": 33,
        "1483": 23,
        "1484": 210,
        "1485": 236,
        "1486": 77,
        "1487": 96,
        "1488": 197,
        "1489": 7,
        "1490": 69,
        "1491": 110,
        "1492": 165,
        "1493": 219,
        "1494": 100,
        "1495": 226,
        "1496": 66,
        "1497": 36,
        "1498": 237,
        "1499": 249,
        "1500": 86,
        "1501": 219,
        "1502": 134,
        "1503": 119,
        "1504": 13,
        "1505": 97,
        "1506": 46,
        "1507": 105,
        "1508": 200,
        "1509": 104,
        "1510": 17,
        "1511": 180,
        "1512": 236,
        "1513": 141,
        "1514": 38,
        "1515": 205,
        "1516": 165,
        "1517": 255,
        "1518": 170,
        "1519": 87,
        "1520": 63,
        "1521": 121,
        "1522": 102,
        "1523": 14,
        "1524": 103,
        "1525": 51,
        "1526": 166,
        "1527": 119,
        "1528": 123,
        "1529": 118,
        "1530": 146,
        "1531": 25,
        "1532": 71,
        "1533": 115,
        "1534": 115,
        "1535": 250,
        "1536": 214,
        "1537": 57,
        "1538": 13,
        "1539": 138,
        "1540": 194,
        "1541": 122,
        "1542": 60,
        "1543": 172,
        "1544": 233,
        "1545": 50,
        "1546": 185,
        "1547": 71,
        "1548": 202,
        "1549": 24,
        "1550": 59,
        "1551": 123,
        "1552": 6,
        "1553": 86,
        "1554": 57,
        "1555": 214,
        "1556": 179,
        "1557": 53,
        "1558": 129,
        "1559": 122,
        "1560": 57,
        "1561": 70,
        "1562": 241,
        "1563": 139,
        "1564": 66,
        "1565": 192,
        "1566": 219,
        "1567": 229,
        "1568": 197,
        "1569": 41,
        "1570": 181,
        "1571": 143,
        "1572": 4,
        "1573": 130,
        "1574": 146,
        "1575": 101,
        "1576": 217,
        "1577": 251,
        "1578": 178,
        "1579": 242,
        "1580": 131,
        "1581": 215,
        "1582": 43,
        "1583": 71,
        "1584": 45,
        "1585": 76,
        "1586": 43,
        "1587": 237,
        "1588": 76,
        "1589": 147,
        "1590": 140,
        "1591": 110,
        "1592": 0,
        "1593": 138,
        "1594": 30,
        "1595": 163,
        "1596": 25,
        "1597": 205,
        "1598": 196,
        "1599": 69,
        "1600": 208,
        "1601": 252,
        "1602": 96,
        "1603": 154,
        "1604": 138,
        "1605": 216,
        "1606": 151,
        "1607": 233,
        "1608": 0,
        "1609": 201,
        "1610": 189,
        "1611": 175,
        "1612": 68,
        "1613": 166,
        "1614": 125,
        "1615": 215,
        "1616": 122,
        "1617": 133,
        "1618": 220,
        "1619": 12,
        "1620": 206,
        "1621": 67,
        "1622": 134,
        "1623": 175,
        "1624": 104,
        "1625": 143,
        "1626": 85,
        "1627": 112,
        "1628": 157,
        "1629": 161,
        "1630": 47,
        "1631": 223,
        "1632": 6,
        "1633": 60,
        "1634": 93,
        "1635": 137,
        "1636": 143,
        "1637": 6,
        "1638": 38,
        "1639": 185,
        "1640": 221,
        "1641": 226,
        "1642": 26,
        "1643": 121,
        "1644": 168,
        "1645": 28,
        "1646": 174,
        "1647": 179,
        "1648": 92,
        "1649": 48,
        "1650": 181,
        "1651": 51,
        "1652": 156,
        "1653": 247,
        "1654": 120,
        "1655": 137,
        "1656": 9,
        "1657": 110,
        "1658": 244,
        "1659": 228,
        "1660": 243,
        "1661": 112,
        "1662": 220,
        "1663": 145,
        "1664": 193,
        "1665": 147,
        "1666": 99,
        "1667": 65,
        "1668": 109,
        "1669": 76,
        "1670": 139,
        "1671": 179,
        "1672": 235,
        "1673": 213,
        "1674": 44,
        "1675": 155,
        "1676": 189,
        "1677": 220,
        "1678": 126,
        "1679": 31,
        "1680": 193,
        "1681": 133,
        "1682": 35,
        "1683": 75,
        "1684": 61,
        "1685": 198,
        "1686": 13,
        "1687": 47,
        "1688": 138,
        "1689": 102,
        "1690": 96,
        "1691": 237,
        "1692": 190,
        "1693": 118,
        "1694": 69,
        "1695": 101,
        "1696": 92,
        "1697": 0,
        "1698": 103,
        "1699": 158,
        "1700": 237,
        "1701": 150,
        "1702": 180,
        "1703": 95,
        "1704": 5,
        "1705": 178,
        "1706": 170,
        "1707": 207,
        "1708": 96,
        "1709": 116,
        "1710": 62,
        "1711": 39,
        "1712": 122,
        "1713": 144,
        "1714": 191,
        "1715": 83,
        "1716": 124,
        "1717": 27,
        "1718": 62,
        "1719": 249,
        "1720": 17,
        "1721": 27,
        "1722": 239,
        "1723": 144,
        "1724": 155,
        "1725": 56,
        "1726": 97,
        "1727": 148,
        "1728": 114,
        "1729": 247,
        "1730": 55,
        "1731": 240,
        "1732": 152,
        "1733": 165,
        "1734": 127,
        "1735": 32,
        "1736": 65,
        "1737": 167,
        "1738": 7,
        "1739": 16,
        "1740": 206,
        "1741": 214,
        "1742": 22,
        "1743": 48,
        "1744": 127,
        "1745": 140,
        "1746": 80,
        "1747": 128,
        "1748": 222,
        "1749": 125,
        "1750": 254,
        "1751": 217,
        "1752": 4,
        "1753": 174,
        "1754": 231,
        "1755": 40,
        "1756": 152,
        "1757": 57,
        "1758": 154,
        "1759": 88,
        "1760": 153,
        "1761": 115,
        "1762": 2,
        "1763": 155,
        "1764": 220,
        "1765": 156,
        "1766": 190,
        "1767": 20,
        "1768": 55,
        "1769": 101,
        "1770": 173,
        "1771": 61,
        "1772": 168,
        "1773": 209,
        "1774": 75,
        "1775": 100,
        "1776": 28,
        "1777": 16,
        "1778": 9,
        "1779": 154,
        "1780": 242,
        "1781": 153,
        "1782": 186,
        "1783": 246,
        "1784": 12,
        "1785": 156,
        "1786": 184,
        "1787": 236,
        "1788": 220,
        "1789": 201,
        "1790": 140,
        "1791": 17,
        "1792": 246,
        "1793": 98,
        "1794": 208,
        "1795": 171,
        "1796": 245,
        "1797": 58,
        "1798": 126,
        "1799": 0,
        "1800": 177,
        "1801": 59,
        "1802": 114,
        "1803": 152,
        "1804": 238,
        "1805": 61,
        "1806": 208,
        "1807": 213,
        "1808": 216,
        "1809": 157,
        "1810": 32,
        "1811": 10,
        "1812": 200,
        "1813": 192,
        "1814": 102,
        "1815": 76,
        "1816": 72,
        "1817": 224,
        "1818": 200,
        "1819": 110,
        "1820": 243,
        "1821": 60,
        "1822": 65,
        "1823": 193,
        "1824": 192,
        "1825": 184,
        "1826": 166,
        "1827": 82,
        "1828": 17,
        "1829": 98,
        "1830": 144,
        "1831": 95,
        "1832": 55,
        "1833": 149,
        "1834": 104,
        "1835": 253,
        "1836": 155,
        "1837": 21,
        "1838": 43,
        "1839": 93,
        "1840": 93,
        "1841": 53,
        "1842": 45,
        "1843": 143,
        "1844": 125,
        "1845": 85,
        "1846": 210,
        "1847": 185,
        "1848": 230,
        "1849": 197,
        "1850": 23,
        "1851": 147,
        "1852": 84,
        "1853": 48,
        "1854": 130,
        "1855": 37,
        "1856": 122,
        "1857": 184,
        "1858": 78,
        "1859": 218,
        "1860": 88,
        "1861": 57,
        "1862": 225,
        "1863": 9,
        "1864": 142,
        "1865": 167,
        "1866": 52,
        "1867": 224,
        "1868": 79,
        "1869": 243,
        "1870": 109,
        "1871": 108,
        "1872": 69,
        "1873": 29,
        "1874": 159,
        "1875": 66,
        "1876": 70,
        "1877": 176,
        "1878": 90,
        "1879": 26,
        "1880": 216,
        "1881": 204,
        "1882": 81,
        "1883": 235,
        "1884": 193,
        "1885": 121,
        "1886": 171,
        "1887": 49,
        "1888": 242,
        "1889": 245,
        "1890": 26,
        "1891": 253,
        "1892": 247,
        "1893": 10,
        "1894": 20,
        "1895": 116,
        "1896": 198,
        "1897": 56,
        "1898": 135,
        "1899": 46,
        "1900": 46,
        "1901": 119,
        "1902": 33,
        "1903": 105,
        "1904": 45,
        "1905": 174,
        "1906": 72,
        "1907": 143,
        "1908": 187,
        "1909": 243,
        "1910": 255,
        "1911": 36,
        "1912": 146,
        "1913": 61,
        "1914": 111,
        "1915": 83,
        "1916": 28,
        "1917": 205,
        "1918": 98,
        "1919": 45,
        "1920": 56,
        "1921": 196,
        "1922": 98,
        "1923": 182,
        "1924": 103,
        "1925": 250,
        "1926": 9,
        "1927": 144,
        "1928": 9,
        "1929": 159,
        "1930": 40,
        "1931": 149,
        "1932": 9,
        "1933": 137,
        "1934": 71,
        "1935": 218,
        "1936": 84,
        "1937": 103,
        "1938": 211,
        "1939": 247,
        "1940": 153,
        "1941": 49,
        "1942": 128,
        "1943": 134,
        "1944": 48,
        "1945": 90,
        "1946": 201,
        "1947": 138,
        "1948": 233,
        "1949": 45,
        "1950": 118,
        "1951": 193,
        "1952": 84,
        "1953": 106,
        "1954": 76,
        "1955": 205,
        "1956": 159,
        "1957": 212,
        "1958": 106,
        "1959": 112,
        "1960": 173,
        "1961": 166,
        "1962": 63,
        "1963": 234,
        "1964": 56,
        "1965": 92,
        "1966": 190,
        "1967": 188,
        "1968": 235,
        "1969": 228,
        "1970": 241,
        "1971": 92,
        "1972": 170,
        "1973": 116,
        "1974": 42,
        "1975": 63,
        "1976": 197,
        "1977": 177,
        "1978": 227,
        "1979": 207,
        "1980": 185,
        "1981": 36,
        "1982": 95,
        "1983": 126,
        "1984": 86,
        "1985": 79,
        "1986": 223,
        "1987": 172,
        "1988": 193,
        "1989": 209,
        "1990": 186,
        "1991": 170,
        "1992": 35,
        "1993": 108,
        "1994": 54,
        "1995": 31,
        "1996": 59,
        "1997": 132,
        "1998": 188,
        "1999": 10,
        "2000": 225,
        "2001": 70,
        "2002": 173,
        "2003": 125,
        "2004": 69,
        "2005": 78,
        "2006": 181,
        "2007": 186,
        "2008": 242,
        "2009": 45,
        "2010": 24,
        "2011": 106,
        "2012": 160,
        "2013": 108,
        "2014": 152,
        "2015": 59,
        "2016": 242,
        "2017": 64,
        "2018": 53,
        "2019": 57,
        "2020": 104,
        "2021": 126,
        "2022": 59,
        "2023": 78,
        "2024": 45,
        "2025": 49,
        "2026": 16,
        "2027": 240,
        "2028": 173,
        "2029": 30,
        "2030": 41,
        "2031": 149,
        "2032": 204,
        "2033": 118,
        "2034": 251,
        "2035": 58,
        "2036": 210,
        "2037": 135,
        "2038": 113,
        "2039": 138,
        "2040": 169,
        "2041": 15,
        "2042": 107,
        "2043": 62,
        "2044": 42,
        "2045": 169,
        "2046": 110,
        "2047": 213,
        "2048": 64,
        "2049": 136,
        "2050": 205,
        "2051": 24,
        "2052": 40,
        "2053": 152,
        "2054": 115,
        "2055": 218,
        "2056": 215,
        "2057": 69,
        "2058": 182,
        "2059": 103,
        "2060": 228,
        "2061": 59,
        "2062": 113,
        "2063": 214,
        "2064": 86,
        "2065": 39,
        "2066": 163,
        "2067": 133,
        "2068": 206,
        "2069": 6,
        "2070": 155,
        "2071": 55,
        "2072": 143,
        "2073": 216,
        "2074": 129,
        "2075": 17,
        "2076": 125,
        "2077": 100,
        "2078": 142,
        "2079": 108,
        "2080": 175,
        "2081": 48,
        "2082": 211,
        "2083": 101,
        "2084": 242,
        "2085": 69,
        "2086": 54,
        "2087": 140,
        "2088": 178,
        "2089": 216,
        "2090": 213,
        "2091": 162,
        "2092": 131,
        "2093": 54,
        "2094": 158,
        "2095": 196,
        "2096": 240,
        "2097": 38,
        "2098": 203,
        "2099": 116,
        "2100": 156,
        "2101": 244,
        "2102": 93,
        "2103": 229,
        "2104": 42,
        "2105": 238,
        "2106": 173,
        "2107": 203,
        "2108": 180,
        "2109": 211,
        "2110": 137,
        "2111": 135,
        "2112": 234,
        "2113": 205,
        "2114": 225,
        "2115": 71,
        "2116": 1,
        "2117": 71,
        "2118": 193,
        "2119": 220,
        "2120": 122,
        "2121": 88,
        "2122": 38,
        "2123": 135,
        "2124": 56,
        "2125": 108,
        "2126": 128,
        "2127": 23,
        "2128": 186,
        "2129": 196,
        "2130": 83,
        "2131": 167,
        "2132": 175,
        "2133": 34,
        "2134": 148,
        "2135": 162,
        "2136": 56,
        "2137": 217,
        "2138": 33,
        "2139": 143,
        "2140": 189,
        "2141": 41,
        "2142": 39,
        "2143": 181,
        "2144": 177,
        "2145": 90,
        "2146": 117,
        "2147": 100,
        "2148": 16,
        "2149": 80,
        "2150": 148,
        "2151": 32,
        "2152": 174,
        "2153": 166,
        "2154": 193,
        "2155": 192,
        "2156": 196,
        "2157": 69,
        "2158": 196,
        "2159": 166,
        "2160": 126,
        "2161": 201,
        "2162": 166,
        "2163": 48,
        "2164": 88,
        "2165": 172,
        "2166": 2,
        "2167": 166,
        "2168": 216,
        "2169": 20,
        "2170": 205,
        "2171": 185,
        "2172": 184,
        "2173": 165,
        "2174": 48,
        "2175": 181,
        "2176": 78,
        "2177": 10,
        "2178": 42,
        "2179": 222,
        "2180": 234,
        "2181": 91,
        "2182": 64,
        "2183": 74,
        "2184": 177,
        "2185": 71,
        "2186": 52,
        "2187": 166,
        "2188": 230,
        "2189": 104,
        "2190": 228,
        "2191": 101,
        "2192": 164,
        "2193": 132,
        "2194": 184,
        "2195": 151,
        "2196": 174,
        "2197": 193,
        "2198": 168,
        "2199": 150,
        "2200": 35,
        "2201": 85,
        "2202": 232,
        "2203": 174,
        "2204": 109,
        "2205": 231,
        "2206": 133,
        "2207": 23,
        "2208": 65,
        "2209": 12,
        "2210": 206,
        "2211": 216,
        "2212": 217,
        "2213": 45,
        "2214": 10,
        "2215": 233,
        "2216": 124,
        "2217": 169,
        "2218": 225,
        "2219": 197,
        "2220": 206,
        "2221": 230,
        "2222": 41,
        "2223": 45,
        "2224": 229,
        "2225": 156,
        "2226": 44,
        "2227": 245,
        "2228": 245,
        "2229": 98,
        "2230": 79,
        "2231": 213,
        "2232": 23,
        "2233": 229,
        "2234": 120,
        "2235": 14,
        "2236": 22,
        "2237": 91,
        "2238": 79,
        "2239": 70,
        "2240": 3,
        "2241": 137,
        "2242": 106,
        "2243": 68,
        "2244": 82,
        "2245": 176,
        "2246": 178,
        "2247": 145,
        "2248": 165,
        "2249": 1,
        "2250": 200,
        "2251": 226,
        "2252": 5,
        "2253": 225,
        "2254": 190,
        "2255": 92,
        "2256": 71,
        "2257": 241,
        "2258": 75,
        "2259": 225,
        "2260": 235,
        "2261": 104,
        "2262": 191,
        "2263": 120,
        "2264": 220,
        "2265": 71,
        "2266": 150,
        "2267": 70,
        "2268": 41,
        "2269": 249,
        "2270": 17,
        "2271": 233,
        "2272": 106,
        "2273": 145,
        "2274": 14,
        "2275": 131,
        "2276": 228,
        "2277": 235,
        "2278": 5,
        "2279": 146,
        "2280": 82,
        "2281": 26,
        "2282": 90,
        "2283": 199,
        "2284": 58,
        "2285": 68,
        "2286": 101,
        "2287": 97,
        "2288": 32,
        "2289": 9,
        "2290": 58,
        "2291": 90,
        "2292": 238,
        "2293": 35,
        "2294": 119,
        "2295": 222,
        "2296": 52,
        "2297": 239,
        "2298": 24,
        "2299": 219,
        "2300": 178,
        "2301": 85,
        "2302": 226,
        "2303": 69,
        "2304": 126,
        "2305": 95,
        "2306": 86,
        "2307": 165,
        "2308": 1,
        "2309": 86,
        "2310": 62,
        "2311": 43,
        "2312": 23,
        "2313": 27,
        "2314": 119,
        "2315": 92,
        "2316": 162,
        "2317": 33,
        "2318": 153,
        "2319": 82,
        "2320": 40,
        "2321": 28,
        "2322": 99,
        "2323": 131,
        "2324": 199,
        "2325": 24,
        "2326": 168,
        "2327": 240,
        "2328": 224,
        "2329": 158,
        "2330": 27,
        "2331": 130,
        "2332": 244,
        "2333": 56,
        "2334": 229,
        "2335": 8,
        "2336": 24,
        "2337": 52,
        "2338": 254,
        "2339": 59,
        "2340": 216,
        "2341": 69,
        "2342": 255,
        "2343": 119,
        "2344": 111,
        "2345": 227,
        "2346": 107,
        "2347": 228,
        "2348": 90,
        "2349": 111,
        "2350": 117,
        "2351": 185,
        "2352": 109,
        "2353": 20,
        "2354": 3,
        "2355": 189,
        "2356": 237,
        "2357": 146,
        "2358": 179,
        "2359": 40,
        "2360": 175,
        "2361": 196,
        "2362": 92,
        "2363": 152,
        "2364": 197,
        "2365": 138,
        "2366": 46,
        "2367": 94,
        "2368": 119,
        "2369": 210,
        "2370": 183,
        "2371": 97,
        "2372": 124,
        "2373": 151,
        "2374": 211,
        "2375": 208,
        "2376": 156,
        "2377": 10,
        "2378": 93,
        "2379": 207,
        "2380": 175,
        "2381": 73,
        "2382": 237,
        "2383": 125,
        "2384": 95,
        "2385": 162,
        "2386": 177,
        "2387": 22,
        "2388": 204,
        "2389": 52,
        "2390": 157,
        "2391": 27,
        "2392": 168,
        "2393": 217,
        "2394": 150,
        "2395": 18,
        "2396": 78,
        "2397": 76,
        "2398": 231,
        "2399": 184,
        "2400": 240,
        "2401": 71,
        "2402": 58,
        "2403": 89,
        "2404": 229,
        "2405": 115,
        "2406": 24,
        "2407": 27,
        "2408": 159,
        "2409": 158,
        "2410": 131,
        "2411": 22,
        "2412": 169,
        "2413": 61,
        "2414": 170,
        "2415": 55,
        "2416": 7,
        "2417": 158,
        "2418": 33,
        "2419": 115,
        "2420": 104,
        "2421": 59,
        "2422": 164,
        "2423": 155,
        "2424": 149,
        "2425": 182,
        "2426": 243,
        "2427": 136,
        "2428": 70,
        "2429": 126,
        "2430": 80,
        "2431": 88,
        "2432": 27,
        "2433": 225,
        "2434": 126,
        "2435": 134,
        "2436": 73,
        "2437": 176,
        "2438": 64,
        "2439": 255,
        "2440": 159,
        "2441": 76,
        "2442": 160,
        "2443": 231,
        "2444": 129,
        "2445": 64,
        "2446": 31,
        "2447": 43,
        "2448": 153,
        "2449": 178,
        "2450": 71,
        "2451": 121,
        "2452": 49,
        "2453": 253,
        "2454": 10,
        "2455": 166,
        "2456": 142,
        "2457": 25,
        "2458": 9,
        "2459": 2,
        "2460": 96,
        "2461": 35,
        "2462": 151,
        "2463": 7,
        "2464": 207,
        "2465": 249,
        "2466": 253,
        "2467": 141,
        "2468": 224,
        "2469": 203,
        "2470": 19,
        "2471": 247,
        "2472": 95,
        "2473": 142,
        "2474": 133,
        "2475": 175,
        "2476": 182,
        "2477": 6,
        "2478": 194,
        "2479": 35,
        "2480": 75,
        "2481": 213,
        "2482": 19,
        "2483": 220,
        "2484": 152,
        "2485": 49,
        "2486": 92,
        "2487": 197,
        "2488": 182,
        "2489": 74,
        "2490": 49,
        "2491": 59,
        "2492": 190,
        "2493": 225,
        "2494": 228,
        "2495": 225,
        "2496": 183,
        "2497": 132,
        "2498": 232,
        "2499": 141,
        "2500": 200,
        "2501": 73,
        "2502": 19,
        "2503": 194,
        "2504": 123,
        "2505": 144,
        "2506": 114,
        "2507": 161,
        "2508": 202,
        "2509": 22,
        "2510": 181,
        "2511": 75,
        "2512": 55,
        "2513": 251,
        "2514": 31,
        "2515": 245,
        "2516": 239,
        "2517": 56,
        "2518": 146,
        "2519": 115,
        "2520": 179,
        "2521": 5,
        "2522": 68,
        "2523": 96,
        "2524": 154,
        "2525": 55,
        "2526": 208,
        "2527": 234,
        "2528": 145,
        "2529": 57,
        "2530": 241,
        "2531": 81,
        "2532": 182,
        "2533": 214,
        "2534": 229,
        "2535": 39,
        "2536": 118,
        "2537": 83,
        "2538": 253,
        "2539": 102,
        "2540": 183,
        "2541": 15,
        "2542": 185,
        "2543": 241,
        "2544": 187,
        "2545": 233,
        "2546": 32,
        "2547": 212,
        "2548": 137,
        "2549": 19,
        "2550": 43,
        "2551": 229,
        "2552": 195,
        "2553": 245,
        "2554": 103,
        "2555": 246,
        "2556": 166,
        "2557": 154,
        "2558": 73,
        "2559": 56,
        "2560": 157,
        "2561": 206,
        "2562": 47,
        "2563": 211,
        "2564": 199,
        "2565": 32,
        "2566": 26,
        "2567": 172,
        "2568": 111,
        "2569": 94,
        "2570": 179,
        "2571": 224,
        "2572": 200,
        "2573": 40,
        "2574": 221,
        "2575": 169,
        "2576": 134,
        "2577": 108,
        "2578": 52,
        "2579": 191,
        "2580": 142,
        "2581": 206,
        "2582": 58,
        "2583": 136,
        "2584": 207,
        "2585": 162,
        "2586": 122,
        "2587": 131,
        "2588": 125,
        "2589": 18,
        "2590": 139,
        "2591": 113,
        "2592": 79,
        "2593": 148,
        "2594": 252,
        "2595": 247,
        "2596": 107,
        "2597": 154,
        "2598": 30,
        "2599": 55,
        "2600": 141,
        "2601": 192,
        "2602": 117,
        "2603": 221,
        "2604": 225,
        "2605": 53,
        "2606": 33,
        "2607": 212,
        "2608": 134,
        "2609": 174,
        "2610": 251,
        "2611": 163,
        "2612": 208,
        "2613": 182,
        "2614": 32,
        "2615": 76,
        "2616": 79,
        "2617": 71,
        "2618": 64,
        "2619": 50,
        "2620": 142,
        "2621": 17,
        "2622": 238,
        "2623": 28,
        "2624": 37,
        "2625": 60,
        "2626": 244,
        "2627": 115,
        "2628": 210,
        "2629": 61,
        "2630": 28,
        "2631": 54,
        "2632": 214,
        "2633": 48,
        "2634": 83,
        "2635": 31,
        "2636": 104,
        "2637": 188,
        "2638": 17,
        "2639": 249,
        "2640": 201,
        "2641": 56,
        "2642": 133,
        "2643": 255,
        "2644": 130,
        "2645": 255,
        "2646": 177,
        "2647": 87,
        "2648": 95,
        "2649": 109,
        "2650": 196,
        "2651": 196,
        "2652": 140,
        "2653": 171,
        "2654": 62,
        "2655": 221,
        "2656": 101,
        "2657": 192,
        "2658": 5,
        "2659": 136,
        "2660": 2,
        "2661": 57,
        "2662": 118,
        "2663": 21,
        "2664": 172,
        "2665": 223,
        "2666": 108,
        "2667": 193,
        "2668": 96,
        "2669": 71,
        "2670": 74,
        "2671": 172,
        "2672": 170,
        "2673": 24,
        "2674": 225,
        "2675": 236,
        "2676": 65,
        "2677": 213,
        "2678": 252,
        "2679": 249,
        "2680": 252,
        "2681": 161,
        "2682": 148,
        "2683": 118,
        "2684": 237,
        "2685": 36,
        "2686": 144,
        "2687": 226,
        "2688": 19,
        "2689": 24,
        "2690": 208,
        "2691": 211,
        "2692": 128,
        "2693": 16,
        "2694": 144,
        "2695": 91,
        "2696": 247,
        "2697": 49,
        "2698": 119,
        "2699": 224,
        "2700": 224,
        "2701": 57,
        "2702": 40,
        "2703": 128,
        "2704": 121,
        "2705": 49,
        "2706": 255,
        "2707": 255,
        "2708": 159,
        "2709": 167,
        "2710": 122,
        "2711": 41,
        "2712": 106,
        "2713": 244,
        "2714": 27,
        "2715": 214,
        "2716": 145,
        "2717": 19,
        "2718": 25,
        "2719": 229,
        "2720": 172,
        "2721": 36,
        "2722": 35,
        "2723": 123,
        "2724": 91,
        "2725": 224,
        "2726": 243,
        "2727": 119,
        "2728": 237,
        "2729": 159,
        "2730": 155,
        "2731": 192,
        "2732": 36,
        "2733": 67,
        "2734": 175,
        "2735": 18,
        "2736": 57,
        "2737": 6,
        "2738": 125,
        "2739": 132,
        "2740": 3,
        "2741": 109,
        "2742": 7,
        "2743": 205,
        "2744": 13,
        "2745": 84,
        "2746": 238,
        "2747": 158,
        "2748": 71,
        "2749": 214,
        "2750": 35,
        "2751": 236,
        "2752": 117,
        "2753": 238,
        "2754": 80,
        "2755": 87,
        "2756": 189,
        "2757": 14,
        "2758": 159,
        "2759": 137,
        "2760": 109,
        "2761": 89,
        "2762": 239,
        "2763": 7,
        "2764": 172,
        "2765": 230,
        "2766": 112,
        "2767": 219,
        "2768": 105,
        "2769": 54,
        "2770": 228,
        "2771": 15,
        "2772": 187,
        "2773": 134,
        "2774": 77,
        "2775": 89,
        "2776": 10,
        "2777": 249,
        "2778": 178,
        "2779": 37,
        "2780": 208,
        "2781": 20,
        "2782": 8,
        "2783": 255,
        "2784": 156,
        "2785": 240,
        "2786": 58,
        "2787": 57,
        "2788": 78,
        "2789": 108,
        "2790": 224,
        "2791": 143,
        "2792": 203,
        "2793": 103,
        "2794": 237,
        "2795": 206,
        "2796": 59,
        "2797": 196,
        "2798": 55,
        "2799": 33,
        "2800": 53,
        "2801": 101,
        "2802": 189,
        "2803": 58,
        "2804": 126,
        "2805": 50,
        "2806": 11,
        "2807": 178,
        "2808": 158,
        "2809": 154,
        "2810": 19,
        "2811": 241,
        "2812": 69,
        "2813": 230,
        "2814": 19,
        "2815": 96,
        "2816": 149,
        "2817": 40,
        "2818": 128,
        "2819": 39,
        "2820": 9,
        "2821": 79,
        "2822": 50,
        "2823": 135,
        "2824": 124,
        "2825": 107,
        "2826": 212,
        "2827": 211,
        "2828": 237,
        "2829": 60,
        "2830": 109,
        "2831": 107,
        "2832": 71,
        "2833": 53,
        "2834": 179,
        "2835": 200,
        "2836": 29,
        "2837": 215,
        "2838": 218,
        "2839": 136,
        "2840": 47,
        "2841": 99,
        "2842": 108,
        "2843": 3,
        "2844": 69,
        "2845": 39,
        "2846": 170,
        "2847": 140,
        "2848": 255,
        "2849": 169,
        "2850": 73,
        "2851": 6,
        "2852": 156,
        "2853": 235,
        "2854": 107,
        "2855": 65,
        "2856": 185,
        "2857": 218,
        "2858": 0,
        "2859": 29,
        "2860": 123,
        "2861": 117,
        "2862": 162,
        "2863": 95,
        "2864": 99,
        "2865": 217,
        "2866": 37,
        "2867": 64,
        "2868": 62,
        "2869": 67,
        "2870": 55,
        "2871": 191,
        "2872": 24,
        "2873": 21,
        "2874": 67,
        "2875": 103,
        "2876": 128,
        "2877": 183,
        "2878": 188,
        "2879": 48,
        "2880": 64,
        "2881": 191,
        "2882": 108,
        "2883": 127,
        "2884": 44,
        "2885": 116,
        "2886": 121,
        "2887": 5,
        "2888": 190,
        "2889": 243,
        "2890": 19,
        "2891": 30,
        "2892": 38,
        "2893": 236,
        "2894": 156,
        "2895": 201,
        "2896": 69,
        "2897": 72,
        "2898": 132,
        "2899": 210,
        "2900": 225,
        "2901": 32,
        "2902": 13,
        "2903": 109,
        "2904": 24,
        "2905": 196,
        "2906": 77,
        "2907": 196,
        "2908": 216,
        "2909": 29,
        "2910": 201,
        "2911": 179,
        "2912": 98,
        "2913": 105,
        "2914": 184,
        "2915": 149,
        "2916": 1,
        "2917": 45,
        "2918": 90,
        "2919": 45,
        "2920": 187,
        "2921": 111,
        "2922": 115,
        "2923": 9,
        "2924": 205,
        "2925": 82,
        "2926": 224,
        "2927": 41,
        "2928": 114,
        "2929": 76,
        "2930": 184,
        "2931": 65,
        "2932": 6,
        "2933": 180,
        "2934": 198,
        "2935": 78,
        "2936": 190,
        "2937": 113,
        "2938": 81,
        "2939": 235,
        "2940": 154,
        "2941": 91,
        "2942": 157,
        "2943": 72,
        "2944": 46,
        "2945": 193,
        "2946": 233,
        "2947": 156,
        "2948": 64,
        "2949": 28,
        "2950": 220,
        "2951": 57,
        "2952": 244,
        "2953": 129,
        "2954": 58,
        "2955": 135,
        "2956": 47,
        "2957": 111,
        "2958": 155,
        "2959": 190,
        "2960": 148,
        "2961": 125,
        "2962": 216,
        "2963": 205,
        "2964": 52,
        "2965": 223,
        "2966": 67,
        "2967": 204,
        "2968": 233,
        "2969": 140,
        "2970": 236,
        "2971": 136,
        "2972": 57,
        "2973": 195,
        "2974": 60,
        "2975": 166,
        "2976": 78,
        "2977": 127,
        "2978": 50,
        "2979": 112,
        "2980": 191,
        "2981": 119,
        "2982": 151,
        "2983": 6,
        "2984": 75,
        "2985": 157,
        "2986": 184,
        "2987": 135,
        "2988": 63,
        "2989": 138,
        "2990": 18,
        "2991": 98,
        "2992": 252,
        "2993": 126,
        "2994": 140,
        "2995": 133,
        "2996": 192,
        "2997": 244,
        "2998": 228,
        "2999": 113,
        "3000": 145,
        "3001": 51,
        "3002": 19,
        "3003": 178,
        "3004": 18,
        "3005": 116,
        "3006": 4,
        "3007": 234,
        "3008": 76,
        "3009": 92,
        "3010": 207,
        "3011": 154,
        "3012": 1,
        "3013": 89,
        "3014": 81,
        "3015": 115,
        "3016": 109,
        "3017": 33,
        "3018": 16,
        "3019": 234,
        "3020": 21,
        "3021": 76,
        "3022": 60,
        "3023": 126,
        "3024": 107,
        "3025": 240,
        "3026": 231,
        "3027": 212,
        "3028": 83,
        "3029": 164,
        "3030": 202,
        "3031": 187,
        "3032": 143,
        "3033": 196,
        "3034": 37,
        "3035": 254,
        "3036": 63,
        "3037": 138,
        "3038": 146,
        "3039": 196,
        "3040": 47,
        "3041": 77,
        "3042": 5,
        "3043": 209,
        "3044": 15,
        "3045": 100,
        "3046": 36,
        "3047": 64,
        "3048": 43,
        "3049": 81,
        "3050": 105,
        "3051": 46,
        "3052": 213,
        "3053": 247,
        "3054": 134,
        "3055": 137,
        "3056": 115,
        "3057": 196,
        "3058": 52,
        "3059": 126,
        "3060": 40,
        "3061": 53,
        "3062": 49,
        "3063": 232,
        "3064": 169,
        "3065": 160,
        "3066": 167,
        "3067": 110,
        "3068": 170,
        "3069": 36,
        "3070": 104,
        "3071": 112,
        "3072": 185,
        "3073": 251,
        "3074": 29,
        "3075": 36,
        "3076": 226,
        "3077": 171,
        "3078": 171,
        "3079": 84,
        "3080": 168,
        "3081": 84,
        "3082": 20,
        "3083": 117,
        "3084": 131,
        "3085": 42,
        "3086": 51,
        "3087": 199,
        "3088": 145,
        "3089": 69,
        "3090": 128,
        "3091": 48,
        "3092": 217,
        "3093": 52,
        "3094": 255,
        "3095": 213,
        "3096": 137,
        "3097": 190,
        "3098": 248,
        "3099": 52,
        "3100": 111,
        "3101": 220,
        "3102": 217,
        "3103": 110,
        "3104": 85,
        "3105": 2,
        "3106": 237,
        "3107": 121,
        "3108": 249,
        "3109": 147,
        "3110": 176,
        "3111": 171,
        "3112": 80,
        "3113": 3,
        "3114": 29,
        "3115": 11,
        "3116": 64,
        "3117": 61,
        "3118": 183,
        "3119": 182,
        "3120": 26,
        "3121": 240,
        "3122": 242,
        "3123": 89,
        "3124": 234,
        "3125": 108,
        "3126": 171,
        "3127": 5,
        "3128": 186,
        "3129": 224,
        "3130": 85,
        "3131": 219,
        "3132": 242,
        "3133": 24,
        "3134": 129,
        "3135": 135,
        "3136": 73,
        "3137": 216,
        "3138": 11,
        "3139": 98,
        "3140": 79,
        "3141": 148,
        "3142": 197,
        "3143": 203,
        "3144": 187,
        "3145": 11,
        "3146": 241,
        "3147": 241,
        "3148": 212,
        "3149": 221,
        "3150": 134,
        "3151": 174,
        "3152": 50,
        "3153": 1,
        "3154": 12,
        "3155": 46,
        "3156": 194,
        "3157": 18,
        "3158": 89,
        "3159": 167,
        "3160": 98,
        "3161": 198,
        "3162": 144,
        "3163": 251,
        "3164": 220,
        "3165": 96,
        "3166": 231,
        "3167": 82,
        "3168": 10,
        "3169": 84,
        "3170": 233,
        "3171": 26,
        "3172": 104,
        "3173": 193,
        "3174": 130,
        "3175": 155,
        "3176": 236,
        "3177": 102,
        "3178": 93,
        "3179": 239,
        "3180": 75,
        "3181": 136,
        "3182": 23,
        "3183": 63,
        "3184": 32,
        "3185": 127,
        "3186": 33,
        "3187": 221,
        "3188": 75,
        "3189": 69,
        "3190": 251,
        "3191": 167,
        "3192": 28,
        "3193": 71,
        "3194": 206,
        "3195": 197,
        "3196": 158,
        "3197": 93,
        "3198": 49,
        "3199": 52,
        "3200": 70,
        "3201": 194,
        "3202": 134,
        "3203": 135,
        "3204": 80,
        "3205": 58,
        "3206": 76,
        "3207": 32,
        "3208": 34,
        "3209": 70,
        "3210": 6,
        "3211": 119,
        "3212": 0,
        "3213": 152,
        "3214": 58,
        "3215": 88,
        "3216": 174,
        "3217": 212,
        "3218": 84,
        "3219": 7,
        "3220": 215,
        "3221": 29,
        "3222": 222,
        "3223": 224,
        "3224": 96,
        "3225": 120,
        "3226": 100,
        "3227": 202,
        "3228": 139,
        "3229": 12,
        "3230": 168,
        "3231": 145,
        "3232": 221,
        "3233": 47,
        "3234": 173,
        "3235": 92,
        "3236": 2,
        "3237": 124,
        "3238": 195,
        "3239": 110,
        "3240": 145,
        "3241": 224,
        "3242": 100,
        "3243": 166,
        "3244": 33,
        "3245": 155,
        "3246": 199,
        "3247": 100,
        "3248": 113,
        "3249": 237,
        "3250": 93,
        "3251": 8,
        "3252": 3,
        "3253": 53,
        "3254": 218,
        "3255": 20,
        "3256": 15,
        "3257": 6,
        "3258": 35,
        "3259": 102,
        "3260": 183,
        "3261": 130,
        "3262": 204,
        "3263": 28,
        "3264": 12,
        "3265": 113,
        "3266": 223,
        "3267": 1,
        "3268": 162,
        "3269": 71,
        "3270": 188,
        "3271": 25,
        "3272": 149,
        "3273": 223,
        "3274": 221,
        "3275": 39,
        "3276": 172,
        "3277": 35,
        "3278": 111,
        "3279": 169,
        "3280": 120,
        "3281": 25,
        "3282": 244,
        "3283": 129,
        "3284": 121,
        "3285": 84,
        "3286": 56,
        "3287": 145,
        "3288": 235,
        "3289": 57,
        "3290": 204,
        "3291": 173,
        "3292": 66,
        "3293": 145,
        "3294": 241,
        "3295": 193,
        "3296": 247,
        "3297": 211,
        "3298": 212,
        "3299": 137,
        "3300": 36,
        "3301": 64,
        "3302": 131,
        "3303": 116,
        "3304": 199,
        "3305": 245,
        "3306": 174,
        "3307": 44,
        "3308": 131,
        "3309": 174,
        "3310": 108,
        "3311": 156,
        "3312": 179,
        "3313": 76,
        "3314": 121,
        "3315": 59,
        "3316": 222,
        "3317": 145,
        "3318": 129,
        "3319": 126,
        "3320": 74,
        "3321": 107,
        "3322": 27,
        "3323": 42,
        "3324": 46,
        "3325": 191,
        "3326": 5,
        "3327": 249,
        "3328": 118,
        "3329": 188,
        "3330": 125,
        "3331": 5,
        "3332": 160,
        "3333": 179,
        "3334": 17,
        "3335": 32,
        "3336": 2,
        "3337": 1,
        "3338": 77,
        "3339": 66,
        "3340": 16,
        "3341": 1,
        "3342": 88,
        "3343": 240,
        "3344": 170,
        "3345": 25,
        "3346": 19,
        "3347": 10,
        "3348": 163,
        "3349": 121,
        "3350": 211,
        "3351": 36,
        "3352": 46,
        "3353": 66,
        "3354": 164,
        "3355": 142,
        "3356": 95,
        "3357": 194,
        "3358": 167,
        "3359": 248,
        "3360": 151,
        "3361": 64,
        "3362": 248,
        "3363": 238,
        "3364": 220,
        "3365": 168,
        "3366": 127,
        "3367": 194,
        "3368": 22,
        "3369": 232,
        "3370": 160,
        "3371": 14,
        "3372": 227,
        "3373": 53,
        "3374": 14,
        "3375": 151,
        "3376": 12,
        "3377": 130,
        "3378": 249,
        "3379": 186,
        "3380": 141,
        "3381": 67,
        "3382": 181,
        "3383": 89,
        "3384": 6,
        "3385": 252,
        "3386": 234,
        "3387": 217,
        "3388": 153,
        "3389": 26,
        "3390": 19,
        "3391": 135,
        "3392": 9,
        "3393": 135,
        "3394": 150,
        "3395": 166,
        "3396": 232,
        "3397": 92,
        "3398": 150,
        "3399": 40,
        "3400": 21,
        "3401": 141,
        "3402": 69,
        "3403": 93,
        "3404": 209,
        "3405": 29,
        "3406": 120,
        "3407": 141,
        "3408": 50,
        "3409": 82,
        "3410": 120,
        "3411": 91,
        "3412": 208,
        "3413": 126,
        "3414": 116,
        "3415": 126,
        "3416": 174,
        "3417": 27,
        "3418": 73,
        "3419": 61,
        "3420": 0,
        "3421": 103,
        "3422": 57,
        "3423": 235,
        "3424": 29,
        "3425": 83,
        "3426": 162,
        "3427": 17,
        "3428": 245,
        "3429": 138,
        "3430": 72,
        "3431": 156,
        "3432": 163,
        "3433": 29,
        "3434": 153,
        "3435": 141,
        "3436": 165,
        "3437": 194,
        "3438": 53,
        "3439": 128,
        "3440": 24,
        "3441": 113,
        "3442": 203,
        "3443": 79,
        "3444": 225,
        "3445": 120,
        "3446": 17,
        "3447": 218,
        "3448": 178,
        "3449": 198,
        "3450": 147,
        "3451": 224,
        "3452": 43,
        "3453": 125,
        "3454": 134,
        "3455": 184,
        "3456": 69,
        "3457": 199,
        "3458": 204,
        "3459": 74,
        "3460": 234,
        "3461": 81,
        "3462": 82,
        "3463": 139,
        "3464": 220,
        "3465": 80,
        "3466": 162,
        "3467": 217,
        "3468": 107,
        "3469": 196,
        "3470": 195,
        "3471": 121,
        "3472": 143,
        "3473": 185,
        "3474": 122,
        "3475": 10,
        "3476": 254,
        "3477": 236,
        "3478": 35,
        "3479": 201,
        "3480": 222,
        "3481": 81,
        "3482": 203,
        "3483": 184,
        "3484": 181,
        "3485": 123,
        "3486": 60,
        "3487": 21,
        "3488": 205,
        "3489": 43,
        "3490": 72,
        "3491": 28,
        "3492": 166,
        "3493": 116,
        "3494": 127,
        "3495": 4,
        "3496": 78,
        "3497": 172,
        "3498": 138,
        "3499": 136,
        "3500": 187,
        "3501": 83,
        "3502": 239,
        "3503": 96,
        "3504": 171,
        "3505": 57,
        "3506": 53,
        "3507": 116,
        "3508": 38,
        "3509": 202,
        "3510": 223,
        "3511": 114,
        "3512": 239,
        "3513": 115,
        "3514": 111,
        "3515": 244,
        "3516": 45,
        "3517": 212,
        "3518": 58,
        "3519": 217,
        "3520": 12,
        "3521": 59,
        "3522": 199,
        "3523": 127,
        "3524": 65,
        "3525": 222,
        "3526": 109,
        "3527": 205,
        "3528": 45,
        "3529": 150,
        "3530": 143,
        "3531": 149,
        "3532": 223,
        "3533": 236,
        "3534": 131,
        "3535": 34,
        "3536": 2,
        "3537": 2,
        "3538": 168,
        "3539": 109,
        "3540": 5,
        "3541": 1,
        "3542": 213,
        "3543": 40,
        "3544": 128,
        "3545": 195,
        "3546": 139,
        "3547": 157,
        "3548": 5,
        "3549": 16,
        "3550": 225,
        "3551": 55,
        "3552": 17,
        "3553": 52,
        "3554": 86,
        "3555": 134,
        "3556": 23,
        "3557": 242,
        "3558": 218,
        "3559": 0,
        "3560": 210,
        "3561": 188,
        "3562": 128,
        "3563": 5,
        "3564": 250,
        "3565": 26,
        "3566": 66,
        "3567": 182,
        "3568": 113,
        "3569": 150,
        "3570": 55,
        "3571": 162,
        "3572": 150,
        "3573": 120,
        "3574": 209,
        "3575": 211,
        "3576": 165,
        "3577": 150,
        "3578": 167,
        "3579": 10,
        "3580": 77,
        "3581": 52,
        "3582": 123,
        "3583": 36,
        "3584": 27,
        "3585": 4,
        "3586": 181,
        "3587": 238,
        "3588": 138,
        "3589": 16,
        "3590": 89,
        "3591": 8,
        "3592": 20,
        "3593": 103,
        "3594": 40,
        "3595": 216,
        "3596": 25,
        "3597": 160,
        "3598": 21,
        "3599": 71,
        "3600": 150,
        "3601": 247,
        "3602": 224,
        "3603": 201,
        "3604": 105,
        "3605": 29,
        "3606": 96,
        "3607": 251,
        "3608": 93,
        "3609": 28,
        "3610": 24,
        "3611": 39,
        "3612": 163,
        "3613": 174,
        "3614": 161,
        "3615": 35,
        "3616": 63,
        "3617": 181,
        "3618": 144,
        "3619": 247,
        "3620": 83,
        "3621": 218,
        "3622": 100,
        "3623": 116,
        "3624": 167,
        "3625": 156,
        "3626": 38,
        "3627": 82,
        "3628": 10,
        "3629": 255,
        "3630": 213,
        "3631": 199,
        "3632": 177,
        "3633": 187,
        "3634": 155,
        "3635": 163,
        "3636": 248,
        "3637": 136,
        "3638": 86,
        "3639": 232,
        "3640": 123,
        "3641": 238,
        "3642": 240,
        "3643": 233,
        "3644": 29,
        "3645": 224,
        "3646": 223,
        "3647": 55,
        "3648": 53,
        "3649": 197,
        "3650": 180,
        "3651": 172,
        "3652": 184,
        "3653": 157,
        "3654": 194,
        "3655": 96,
        "3656": 137,
        "3657": 10,
        "3658": 169,
        "3659": 186,
        "3660": 68,
        "3661": 254,
        "3662": 214,
        "3663": 148,
        "3664": 114,
        "3665": 102,
        "3666": 161,
        "3667": 235,
        "3668": 99,
        "3669": 169,
        "3670": 29,
        "3671": 98,
        "3672": 128,
        "3673": 4,
        "3674": 123,
        "3675": 42,
        "3676": 185,
        "3677": 158,
        "3678": 90,
        "3679": 25,
        "3680": 184,
        "3681": 207,
        "3682": 114,
        "3683": 129,
        "3684": 181,
        "3685": 4,
        "3686": 121,
        "3687": 219,
        "3688": 161,
        "3689": 197,
        "3690": 89,
        "3691": 175,
        "3692": 39,
        "3693": 224,
        "3694": 169,
        "3695": 11,
        "3696": 120,
        "3697": 221,
        "3698": 94,
        "3699": 84,
        "3700": 110,
        "3701": 99,
        "3702": 147,
        "3703": 81,
        "3704": 38,
        "3705": 77,
        "3706": 18,
        "3707": 235,
        "3708": 182,
        "3709": 94,
        "3710": 145,
        "3711": 213,
        "3712": 187,
        "3713": 183,
        "3714": 97,
        "3715": 89,
        "3716": 91,
        "3717": 53,
        "3718": 64,
        "3719": 6,
        "3720": 236,
        "3721": 219,
        "3722": 37,
        "3723": 126,
        "3724": 26,
        "3725": 107,
        "3726": 159,
        "3727": 70,
        "3728": 87,
        "3729": 53,
        "3730": 189,
        "3731": 97,
        "3732": 118,
        "3733": 14,
        "3734": 241,
        "3735": 169,
        "3736": 40,
        "3737": 54,
        "3738": 216,
        "3739": 202,
        "3740": 80,
        "3741": 68,
        "3742": 160,
        "3743": 98,
        "3744": 176,
        "3745": 208,
        "3746": 252,
        "3747": 252,
        "3748": 65,
        "3749": 98,
        "3750": 149,
        "3751": 223,
        "3752": 142,
        "3753": 214,
        "3754": 112,
        "3755": 139,
        "3756": 205,
        "3757": 215,
        "3758": 39,
        "3759": 156,
        "3760": 57,
        "3761": 67,
        "3762": 46,
        "3763": 18,
        "3764": 88,
        "3765": 241,
        "3766": 107,
        "3767": 189,
        "3768": 206,
        "3769": 87,
        "3770": 85,
        "3771": 234,
        "3772": 189,
        "3773": 119,
        "3774": 152,
        "3775": 182,
        "3776": 28,
        "3777": 18,
        "3778": 100,
        "3779": 180,
        "3780": 203,
        "3781": 211,
        "3782": 42,
        "3783": 143,
        "3784": 109,
        "3785": 162,
        "3786": 37,
        "3787": 186,
        "3788": 184,
        "3789": 18,
        "3790": 178,
        "3791": 213,
        "3792": 208,
        "3793": 176,
        "3794": 179,
        "3795": 117,
        "3796": 19,
        "3797": 49,
        "3798": 158,
        "3799": 247,
        "3800": 112,
        "3801": 59,
        "3802": 212,
        "3803": 215,
        "3804": 128,
        "3805": 10,
        "3806": 180,
        "3807": 212,
        "3808": 54,
        "3809": 254,
        "3810": 70,
        "3811": 93,
        "3812": 20,
        "3813": 211,
        "3814": 44,
        "3815": 39,
        "3816": 193,
        "3817": 5,
        "3818": 98,
        "3819": 226,
        "3820": 42,
        "3821": 188,
        "3822": 176,
        "3823": 161,
        "3824": 176,
        "3825": 65,
        "3826": 160,
        "3827": 118,
        "3828": 141,
        "3829": 168,
        "3830": 119,
        "3831": 18,
        "3832": 177,
        "3833": 66,
        "3834": 20,
        "3835": 232,
        "3836": 154,
        "3837": 179,
        "3838": 205,
        "3839": 202,
        "3840": 88,
        "3841": 18,
        "3842": 69,
        "3843": 134,
        "3844": 246,
        "3845": 210,
        "3846": 239,
        "3847": 18,
        "3848": 116,
        "3849": 84,
        "3850": 210,
        "3851": 239,
        "3852": 213,
        "3853": 139,
        "3854": 156,
        "3855": 144,
        "3856": 9,
        "3857": 195,
        "3858": 212,
        "3859": 218,
        "3860": 195,
        "3861": 40,
        "3862": 68,
        "3863": 28,
        "3864": 187,
        "3865": 249,
        "3866": 250,
        "3867": 32,
        "3868": 189,
        "3869": 104,
        "3870": 168,
        "3871": 136,
        "3872": 234,
        "3873": 192,
        "3874": 179,
        "3875": 189,
        "3876": 72,
        "3877": 148,
        "3878": 43,
        "3879": 156,
        "3880": 163,
        "3881": 62,
        "3882": 166,
        "3883": 214,
        "3884": 186,
        "3885": 80,
        "3886": 161,
        "3887": 114,
        "3888": 35,
        "3889": 198,
        "3890": 155,
        "3891": 228,
        "3892": 249,
        "3893": 79,
        "3894": 65,
        "3895": 153,
        "3896": 174,
        "3897": 160,
        "3898": 11,
        "3899": 182,
        "3900": 150,
        "3901": 34,
        "3902": 89,
        "3903": 49,
        "3904": 2,
        "3905": 32,
        "3906": 210,
        "3907": 151,
        "3908": 42,
        "3909": 231,
        "3910": 148,
        "3911": 11,
        "3912": 32,
        "3913": 126,
        "3914": 181,
        "3915": 241,
        "3916": 143,
        "3917": 194,
        "3918": 90,
        "3919": 246,
        "3920": 231,
        "3921": 181,
        "3922": 139,
        "3923": 45,
        "3924": 49,
        "3925": 180,
        "3926": 82,
        "3927": 127,
        "3928": 151,
        "3929": 7,
        "3930": 159,
        "3931": 241,
        "3932": 234,
        "3933": 82,
        "3934": 196,
        "3935": 29,
        "3936": 226,
        "3937": 166,
        "3938": 192,
        "3939": 193,
        "3940": 234,
        "3941": 62,
        "3942": 209,
        "3943": 102,
        "3944": 69,
        "3945": 29,
        "3946": 71,
        "3947": 61,
        "3948": 209,
        "3949": 8,
        "3950": 182,
        "3951": 9,
        "3952": 213,
        "3953": 166,
        "3954": 181,
        "3955": 55,
        "3956": 103,
        "3957": 118,
        "3958": 11,
        "3959": 111,
        "3960": 238,
        "3961": 128,
        "3962": 229,
        "3963": 139,
        "3964": 170,
        "3965": 74,
        "3966": 68,
        "3967": 29,
        "3968": 91,
        "3969": 66,
        "3970": 8,
        "3971": 154,
        "3972": 76,
        "3973": 19,
        "3974": 152,
        "3975": 147,
        "3976": 141,
        "3977": 93,
        "3978": 146,
        "3979": 62,
        "3980": 60,
        "3981": 119,
        "3982": 116,
        "3983": 41,
        "3984": 182,
        "3985": 40,
        "3986": 87,
        "3987": 185,
        "3988": 102,
        "3989": 171,
        "3990": 87,
        "3991": 61,
        "3992": 245,
        "3993": 133,
        "3994": 183,
        "3995": 85,
        "3996": 250,
        "3997": 95,
        "3998": 87,
        "3999": 54,
        "4000": 194,
        "4001": 206,
        "4002": 175,
        "4003": 82,
        "4004": 187,
        "4005": 111,
        "4006": 20,
        "4007": 19,
        "4008": 49,
        "4009": 141,
        "4010": 19,
        "4011": 244,
        "4012": 131,
        "4013": 213,
        "4014": 108,
        "4015": 163,
        "4016": 40,
        "4017": 71,
        "4018": 52,
        "4019": 233,
        "4020": 195,
        "4021": 218,
        "4022": 174,
        "4023": 121,
        "4024": 24,
        "4025": 135,
        "4026": 20,
        "4027": 172,
        "4028": 173,
        "4029": 120,
        "4030": 170,
        "4031": 152,
        "4032": 64,
        "4033": 128,
        "4034": 205,
        "4035": 40,
        "4036": 11,
        "4037": 38,
        "4038": 154,
        "4039": 124,
        "4040": 42,
        "4041": 177,
        "4042": 69,
        "4043": 118,
        "4044": 74,
        "4045": 59,
        "4046": 3,
        "4047": 233,
        "4048": 211,
        "4049": 242,
        "4050": 197,
        "4051": 44,
        "4052": 185,
        "4053": 201,
        "4054": 167,
        "4055": 63,
        "4056": 179,
        "4057": 170,
        "4058": 23,
        "4059": 80,
        "4060": 152,
        "4061": 210,
        "4062": 238,
        "4063": 109,
        "4064": 69,
        "4065": 140,
        "4066": 52,
        "4067": 216,
        "4068": 82,
        "4069": 75,
        "4070": 210,
        "4071": 200,
        "4072": 45,
        "4073": 163,
        "4074": 17,
        "4075": 60,
        "4076": 160,
        "4077": 130,
        "4078": 1,
        "4079": 59,
        "4080": 175,
        "4081": 83,
        "4082": 198,
        "4083": 51,
        "4084": 52,
        "4085": 161,
        "4086": 119,
        "4087": 94,
        "4088": 123,
        "4089": 67,
        "4090": 216,
        "4091": 168,
        "4092": 93,
        "4093": 186,
        "4094": 108,
        "4095": 45,
        "4096": 241,
        "4097": 5,
        "4098": 5,
        "4099": 113,
        "4100": 99,
        "4101": 148,
        "4102": 253,
        "4103": 190,
        "4104": 157,
        "4105": 250,
        "4106": 127,
        "4107": 232,
        "4108": 189,
        "4109": 26,
        "4110": 103,
        "4111": 73,
        "4112": 229,
        "4113": 170,
        "4114": 188,
        "4115": 26,
        "4116": 242,
        "4117": 236,
        "4118": 220,
        "4119": 129,
        "4120": 115,
        "4121": 95,
        "4122": 162,
        "4123": 220,
        "4124": 14,
        "4125": 6,
        "4126": 34,
        "4127": 149,
        "4128": 4,
        "4129": 93,
        "4130": 144,
        "4131": 249,
        "4132": 188,
        "4133": 90,
        "4134": 173,
        "4135": 175,
        "4136": 225,
        "4137": 118,
        "4138": 113,
        "4139": 99,
        "4140": 229,
        "4141": 122,
        "4142": 17,
        "4143": 193,
        "4144": 223,
        "4145": 75,
        "4146": 250,
        "4147": 3,
        "4148": 163,
        "4149": 17,
        "4150": 155,
        "4151": 241,
        "4152": 120,
        "4153": 118,
        "4154": 66,
        "4155": 253,
        "4156": 5,
        "4157": 58,
        "4158": 102,
        "4159": 152,
        "4160": 110,
        "4161": 117,
        "4162": 130,
        "4163": 89,
        "4164": 25,
        "4165": 227,
        "4166": 162,
        "4167": 224,
        "4168": 14,
        "4169": 1,
        "4170": 106,
        "4171": 120,
        "4172": 127,
        "4173": 21,
        "4174": 234,
        "4175": 15,
        "4176": 28,
        "4177": 40,
        "4178": 192,
        "4179": 40,
        "4180": 143,
        "4181": 246,
        "4182": 254,
        "4183": 92,
        "4184": 58,
        "4185": 195,
        "4186": 254,
        "4187": 83,
        "4188": 21,
        "4189": 72,
        "4190": 152,
        "4191": 202,
        "4192": 93,
        "4193": 117,
        "4194": 40,
        "4195": 230,
        "4196": 144,
        "4197": 90,
        "4198": 107,
        "4199": 115,
        "4200": 31,
        "4201": 13,
        "4202": 119,
        "4203": 161,
        "4204": 149,
        "4205": 176,
        "4206": 51,
        "4207": 163,
        "4208": 171,
        "4209": 229,
        "4210": 52,
        "4211": 70,
        "4212": 119,
        "4213": 116,
        "4214": 136,
        "4215": 221,
        "4216": 59,
        "4217": 174,
        "4218": 211,
        "4219": 3,
        "4220": 243,
        "4221": 210,
        "4222": 166,
        "4223": 62,
        "4224": 209,
        "4225": 115,
        "4226": 181,
        "4227": 207,
        "4228": 169,
        "4229": 112,
        "4230": 203,
        "4231": 238,
        "4232": 4,
        "4233": 9,
        "4234": 38,
        "4235": 215,
        "4236": 35,
        "4237": 46,
        "4238": 221,
        "4239": 150,
        "4240": 47,
        "4241": 173,
        "4242": 115,
        "4243": 145,
        "4244": 79,
        "4245": 113,
        "4246": 85,
        "4247": 167,
        "4248": 131,
        "4249": 131,
        "4250": 201,
        "4251": 176,
        "4252": 33,
        "4253": 126,
        "4254": 174,
        "4255": 225,
        "4256": 169,
        "4257": 95,
        "4258": 134,
        "4259": 31,
        "4260": 171,
        "4261": 137,
        "4262": 247,
        "4263": 31,
        "4264": 102,
        "4265": 101,
        "4266": 219,
        "4267": 143,
        "4268": 22,
        "4269": 164,
        "4270": 121,
        "4271": 140,
        "4272": 225,
        "4273": 18,
        "4274": 174,
        "4275": 105,
        "4276": 104,
        "4277": 189,
        "4278": 120,
        "4279": 189,
        "4280": 179,
        "4281": 96,
        "4282": 9,
        "4283": 186,
        "4284": 39,
        "4285": 7,
        "4286": 17,
        "4287": 153,
        "4288": 169,
        "4289": 143,
        "4290": 194,
        "4291": 191,
        "4292": 150,
        "4293": 249,
        "4294": 150,
        "4295": 68,
        "4296": 30,
        "4297": 194,
        "4298": 78,
        "4299": 121,
        "4300": 145,
        "4301": 116,
        "4302": 254,
        "4303": 108,
        "4304": 183,
        "4305": 169,
        "4306": 110,
        "4307": 231,
        "4308": 80,
        "4309": 200,
        "4310": 5,
        "4311": 36,
        "4312": 231,
        "4313": 186,
        "4314": 113,
        "4315": 75,
        "4316": 30,
        "4317": 113,
        "4318": 195,
        "4319": 205,
        "4320": 232,
        "4321": 137,
        "4322": 174,
        "4323": 140,
        "4324": 79,
        "4325": 240,
        "4326": 86,
        "4327": 194,
        "4328": 243,
        "4329": 168,
        "4330": 205,
        "4331": 134,
        "4332": 69,
        "4333": 21,
        "4334": 245,
        "4335": 228,
        "4336": 194,
        "4337": 0,
        "4338": 27,
        "4339": 74,
        "4340": 90,
        "4341": 121,
        "4342": 206,
        "4343": 205,
        "4344": 76,
        "4345": 112,
        "4346": 85,
        "4347": 185,
        "4348": 136,
        "4349": 162,
        "4350": 184,
        "4351": 101,
        "4352": 249,
        "4353": 163,
        "4354": 178,
        "4355": 170,
        "4356": 13,
        "4357": 214,
        "4358": 235,
        "4359": 229,
        "4360": 78,
        "4361": 13,
        "4362": 171,
        "4363": 53,
        "4364": 42,
        "4365": 5,
        "4366": 26,
        "4367": 97,
        "4368": 199,
        "4369": 109,
        "4370": 96,
        "4371": 175,
        "4372": 249,
        "4373": 120,
        "4374": 223,
        "4375": 162,
        "4376": 194,
        "4377": 139,
        "4378": 14,
        "4379": 103,
        "4380": 165,
        "4381": 238,
        "4382": 124,
        "4383": 39,
        "4384": 246,
        "4385": 49,
        "4386": 90,
        "4387": 123,
        "4388": 95,
        "4389": 23,
        "4390": 249,
        "4391": 50,
        "4392": 147,
        "4393": 13,
        "4394": 156,
        "4395": 170,
        "4396": 6,
        "4397": 129,
        "4398": 241,
        "4399": 163,
        "4400": 71,
        "4401": 127,
        "4402": 116,
        "4403": 11,
        "4404": 226,
        "4405": 127,
        "4406": 187,
        "4407": 68,
        "4408": 208,
        "4409": 147,
        "4410": 131,
        "4411": 158,
        "4412": 86,
        "4413": 245,
        "4414": 102,
        "4415": 232,
        "4416": 247,
        "4417": 137,
        "4418": 241,
        "4419": 181,
        "4420": 1,
        "4421": 137,
        "4422": 60,
        "4423": 128,
        "4424": 65,
        "4425": 181,
        "4426": 189,
        "4427": 187,
        "4428": 47,
        "4429": 32,
        "4430": 128,
        "4431": 3,
        "4432": 120,
        "4433": 134,
        "4434": 24,
        "4435": 231,
        "4436": 80,
        "4437": 177,
        "4438": 153,
        "4439": 43,
        "4440": 197,
        "4441": 88,
        "4442": 78,
        "4443": 165,
        "4444": 160,
        "4445": 26,
        "4446": 80,
        "4447": 106,
        "4448": 136,
        "4449": 131,
        "4450": 183,
        "4451": 174,
        "4452": 176,
        "4453": 56,
        "4454": 117,
        "4455": 116,
        "4456": 202,
        "4457": 230,
        "4458": 243,
        "4459": 49,
        "4460": 159,
        "4461": 196,
        "4462": 36,
        "4463": 166,
        "4464": 13,
        "4465": 204,
        "4466": 104,
        "4467": 181,
        "4468": 163,
        "4469": 81,
        "4470": 158,
        "4471": 85,
        "4472": 202,
        "4473": 226,
        "4474": 107,
        "4475": 86,
        "4476": 88,
        "4477": 97,
        "4478": 198,
        "4479": 93,
        "4480": 76,
        "4481": 202,
        "4482": 61,
        "4483": 155,
        "4484": 116,
        "4485": 235,
        "4486": 43,
        "4487": 255,
        "4488": 150,
        "4489": 1,
        "4490": 28,
        "4491": 250,
        "4492": 33,
        "4493": 91,
        "4494": 37,
        "4495": 67,
        "4496": 183,
        "4497": 135,
        "4498": 245,
        "4499": 46,
        "4500": 188,
        "4501": 55,
        "4502": 167,
        "4503": 235,
        "4504": 34,
        "4505": 139,
        "4506": 76,
        "4507": 245,
        "4508": 10,
        "4509": 15,
        "4510": 78,
        "4511": 83,
        "4512": 170,
        "4513": 35,
        "4514": 1,
        "4515": 218,
        "4516": 93,
        "4517": 180,
        "4518": 35,
        "4519": 22,
        "4520": 185,
        "4521": 129,
        "4522": 136,
        "4523": 117,
        "4524": 29,
        "4525": 40,
        "4526": 247,
        "4527": 122,
        "4528": 112,
        "4529": 173,
        "4530": 155,
        "4531": 98,
        "4532": 192,
        "4533": 104,
        "4534": 251,
        "4535": 60,
        "4536": 237,
        "4537": 151,
        "4538": 108,
        "4539": 95,
        "4540": 170,
        "4541": 195,
        "4542": 243,
        "4543": 0,
        "4544": 82,
        "4545": 54,
        "4546": 141,
        "4547": 253,
        "4548": 184,
        "4549": 177,
        "4550": 138,
        "4551": 240,
        "4552": 42,
        "4553": 145,
        "4554": 192,
        "4555": 96,
        "4556": 106,
        "4557": 125,
        "4558": 114,
        "4559": 79,
        "4560": 187,
        "4561": 247,
        "4562": 175,
        "4563": 107,
        "4564": 77,
        "4565": 148,
        "4566": 236,
        "4567": 198,
        "4568": 249,
        "4569": 142,
        "4570": 164,
        "4571": 94,
        "4572": 172,
        "4573": 57,
        "4574": 217,
        "4575": 248,
        "4576": 91,
        "4577": 14,
        "4578": 226,
        "4579": 169,
        "4580": 226,
        "4581": 191,
        "4582": 212,
        "4583": 253,
        "4584": 242,
        "4585": 204,
        "4586": 242,
        "4587": 212,
        "4588": 186,
        "4589": 102,
        "4590": 118,
        "4591": 132,
        "4592": 35,
        "4593": 162,
        "4594": 124,
        "4595": 254,
        "4596": 228,
        "4597": 161,
        "4598": 191,
        "4599": 1,
        "4600": 30,
        "4601": 212,
        "4602": 83,
        "4603": 253,
        "4604": 207,
        "4605": 59,
        "4606": 91,
        "4607": 37,
        "4608": 137,
        "4609": 25,
        "4610": 18,
        "4611": 168,
        "4612": 195,
        "4613": 121,
        "4614": 113,
        "4615": 170,
        "4616": 188,
        "4617": 151,
        "4618": 198,
        "4619": 108,
        "4620": 156,
        "4621": 142,
        "4622": 125,
        "4623": 153,
        "4624": 53,
        "4625": 231,
        "4626": 250,
        "4627": 1,
        "4628": 217,
        "4629": 223,
        "4630": 66,
        "4631": 211,
        "4632": 39,
        "4633": 5,
        "4634": 35,
        "4635": 213,
        "4636": 174,
        "4637": 204,
        "4638": 0,
        "4639": 247,
        "4640": 8,
        "4641": 231,
        "4642": 204,
        "4643": 82,
        "4644": 1,
        "4645": 207,
        "4646": 208,
        "4647": 24,
        "4648": 71,
        "4649": 170,
        "4650": 99,
        "4651": 251,
        "4652": 214,
        "4653": 250,
        "4654": 194,
        "4655": 198,
        "4656": 50,
        "4657": 68,
        "4658": 3,
        "4659": 208,
        "4660": 128,
        "4661": 31,
        "4662": 235,
        "4663": 54,
        "4664": 6,
        "4665": 254,
        "4666": 214,
        "4667": 21,
        "4668": 21,
        "4669": 134,
        "4670": 216,
        "4671": 172,
        "4672": 206,
        "4673": 243,
        "4674": 162,
        "4675": 244,
        "4676": 141,
        "4677": 203,
        "4678": 26,
        "4679": 222,
        "4680": 172,
        "4681": 156,
        "4682": 11,
        "4683": 1,
        "4684": 104,
        "4685": 29,
        "4686": 11,
        "4687": 3,
        "4688": 193,
        "4689": 52,
        "4690": 76,
        "4691": 215,
        "4692": 253,
        "4693": 170,
        "4694": 30,
        "4695": 61,
        "4696": 164,
        "4697": 180,
        "4698": 24,
        "4699": 3,
        "4700": 144,
        "4701": 146,
        "4702": 134,
        "4703": 238,
        "4704": 61,
        "4705": 14,
        "4706": 63,
        "4707": 237,
        "4708": 238,
        "4709": 221,
        "4710": 227,
        "4711": 210,
        "4712": 214,
        "4713": 222,
        "4714": 149,
        "4715": 244,
        "4716": 134,
        "4717": 152,
        "4718": 90,
        "4719": 8,
        "4720": 59,
        "4721": 146,
        "4722": 245,
        "4723": 217,
        "4724": 160,
        "4725": 52,
        "4726": 199,
        "4727": 2,
        "4728": 65,
        "4729": 97,
        "4730": 87,
        "4731": 189,
        "4732": 40,
        "4733": 85,
        "4734": 46,
        "4735": 38,
        "4736": 117,
        "4737": 218,
        "4738": 210,
        "4739": 107,
        "4740": 185,
        "4741": 217,
        "4742": 101,
        "4743": 61,
        "4744": 144,
        "4745": 99,
        "4746": 45,
        "4747": 43,
        "4748": 65,
        "4749": 236,
        "4750": 126,
        "4751": 245,
        "4752": 2,
        "4753": 115,
        "4754": 167,
        "4755": 94,
        "4756": 115,
        "4757": 33,
        "4758": 35,
        "4759": 168,
        "4760": 224,
        "4761": 91,
        "4762": 244,
        "4763": 165,
        "4764": 2,
        "4765": 63,
        "4766": 101,
        "4767": 55,
        "4768": 90,
        "4769": 141,
        "4770": 40,
        "4771": 101,
        "4772": 16,
        "4773": 210,
        "4774": 124,
        "4775": 139,
        "4776": 192,
        "4777": 233,
        "4778": 91,
        "4779": 179,
        "4780": 149,
        "4781": 80,
        "4782": 247,
        "4783": 193,
        "4784": 11,
        "4785": 37,
        "4786": 93,
        "4787": 222,
        "4788": 246,
        "4789": 81,
        "4790": 58,
        "4791": 91,
        "4792": 179,
        "4793": 175,
        "4794": 251,
        "4795": 195,
        "4796": 98,
        "4797": 187,
        "4798": 172,
        "4799": 121,
        "4800": 137,
        "4801": 26,
        "4802": 201,
        "4803": 52,
        "4804": 44,
        "4805": 71,
        "4806": 66,
        "4807": 60,
        "4808": 1,
        "4809": 82,
        "4810": 227,
        "4811": 109,
        "4812": 221,
        "4813": 121,
        "4814": 109,
        "4815": 26,
        "4816": 155,
        "4817": 80,
        "4818": 255,
        "4819": 32,
        "4820": 91,
        "4821": 210,
        "4822": 11,
        "4823": 147,
        "4824": 61,
        "4825": 162,
        "4826": 20,
        "4827": 20,
        "4828": 220,
        "4829": 251,
        "4830": 214,
        "4831": 248,
        "4832": 121,
        "4833": 123,
        "4834": 104,
        "4835": 155,
        "4836": 125,
        "4837": 107,
        "4838": 146,
        "4839": 101,
        "4840": 206,
        "4841": 218,
        "4842": 61,
        "4843": 82,
        "4844": 8,
        "4845": 215,
        "4846": 149,
        "4847": 75,
        "4848": 190,
        "4849": 189,
        "4850": 170,
        "4851": 244,
        "4852": 113,
        "4853": 12,
        "4854": 5,
        "4855": 50,
        "4856": 27,
        "4857": 206,
        "4858": 214,
        "4859": 92,
        "4860": 37,
        "4861": 209,
        "4862": 0,
        "4863": 108,
        "4864": 110,
        "4865": 86,
        "4866": 169,
        "4867": 63,
        "4868": 106,
        "4869": 155,
        "4870": 170,
        "4871": 166,
        "4872": 250,
        "4873": 71,
        "4874": 150,
        "4875": 202,
        "4876": 20,
        "4877": 162,
        "4878": 43,
        "4879": 183,
        "4880": 35,
        "4881": 38,
        "4882": 226,
        "4883": 179,
        "4884": 83,
        "4885": 143,
        "4886": 153,
        "4887": 31,
        "4888": 141,
        "4889": 160,
        "4890": 211,
        "4891": 88,
        "4892": 78,
        "4893": 48,
        "4894": 16,
        "4895": 78,
        "4896": 121,
        "4897": 113,
        "4898": 131,
        "4899": 79,
        "4900": 113,
        "4901": 17,
        "4902": 84,
        "4903": 127,
        "4904": 82,
        "4905": 26,
        "4906": 113,
        "4907": 109,
        "4908": 53,
        "4909": 124,
        "4910": 116,
        "4911": 172,
        "4912": 18,
        "4913": 141,
        "4914": 178,
        "4915": 135,
        "4916": 144,
        "4917": 15,
        "4918": 0,
        "4919": 1,
        "4920": 68,
        "4921": 180,
        "4922": 165,
        "4923": 22,
        "4924": 1,
        "4925": 66,
        "4926": 136,
        "4927": 44,
        "4928": 72,
        "4929": 147,
        "4930": 181,
        "4931": 188,
        "4932": 236,
        "4933": 244,
        "4934": 195,
        "4935": 22,
        "4936": 181,
        "4937": 30,
        "4938": 235,
        "4939": 81,
        "4940": 177,
        "4941": 111,
        "4942": 81,
        "4943": 122,
        "4944": 54,
        "4945": 94,
        "4946": 210,
        "4947": 164,
        "4948": 157,
        "4949": 114,
        "4950": 155,
        "4951": 208,
        "4952": 219,
        "4953": 251,
        "4954": 193,
        "4955": 159,
        "4956": 72,
        "4957": 212,
        "4958": 201,
        "4959": 139,
        "4960": 14,
        "4961": 248,
        "4962": 102,
        "4963": 227,
        "4964": 243,
        "4965": 112,
        "4966": 231,
        "4967": 81,
        "4968": 164,
        "4969": 125,
        "4970": 172,
        "4971": 245,
        "4972": 76,
        "4973": 39,
        "4974": 169,
        "4975": 66,
        "4976": 56,
        "4977": 160,
        "4978": 254,
        "4979": 120,
        "4980": 153,
        "4981": 57,
        "4982": 208,
        "4983": 64,
        "4984": 190,
        "4985": 58,
        "4986": 190,
        "4987": 115,
        "4988": 119,
        "4989": 118,
        "4990": 143,
        "4991": 84,
        "4992": 239,
        "4993": 71,
        "4994": 42,
        "4995": 53,
        "4996": 79,
        "4997": 150,
        "4998": 228,
        "4999": 218,
        "5000": 217,
        "5001": 184,
        "5002": 156,
        "5003": 236,
        "5004": 217,
        "5005": 217,
        "5006": 192,
        "5007": 124,
        "5008": 225,
        "5009": 224,
        "5010": 103,
        "5011": 127,
        "5012": 123,
        "5013": 139,
        "5014": 165,
        "5015": 42,
        "5016": 55,
        "5017": 201,
        "5018": 110,
        "5019": 248,
        "5020": 235,
        "5021": 253,
        "5022": 170,
        "5023": 215,
        "5024": 38,
        "5025": 207,
        "5026": 28,
        "5027": 1,
        "5028": 123,
        "5029": 219,
        "5030": 186,
        "5031": 130,
        "5032": 176,
        "5033": 98,
        "5034": 230,
        "5035": 96,
        "5036": 22,
        "5037": 89,
        "5038": 113,
        "5039": 205,
        "5040": 77,
        "5041": 254,
        "5042": 214,
        "5043": 52,
        "5044": 175,
        "5045": 156,
        "5046": 14,
        "5047": 121,
        "5048": 246,
        "5049": 13,
        "5050": 209,
        "5051": 83,
        "5052": 118,
        "5053": 26,
        "5054": 132,
        "5055": 80,
        "5056": 152,
        "5057": 81,
        "5058": 183,
        "5059": 218,
        "5060": 172,
        "5061": 249,
        "5062": 28,
        "5063": 144,
        "5064": 180,
        "5065": 143,
        "5066": 64,
        "5067": 16,
        "5068": 168,
        "5069": 86,
        "5070": 59,
        "5071": 113,
        "5072": 18,
        "5073": 101,
        "5074": 246,
        "5075": 155,
        "5076": 34,
        "5077": 214,
        "5078": 239,
        "5079": 143,
        "5080": 167,
        "5081": 171,
        "5082": 6,
        "5083": 98,
        "5084": 191,
        "5085": 185,
        "5086": 165,
        "5087": 8,
        "5088": 130,
        "5089": 134,
        "5090": 205,
        "5091": 56,
        "5092": 188,
        "5093": 133,
        "5094": 148,
        "5095": 239,
        "5096": 72,
        "5097": 1,
        "5098": 55,
        "5099": 238,
        "5100": 189,
        "5101": 26,
        "5102": 231,
        "5103": 67,
        "5104": 248,
        "5105": 79,
        "5106": 190,
        "5107": 235,
        "5108": 167,
        "5109": 199,
        "5110": 183,
        "5111": 222,
        "5112": 130,
        "5113": 247,
        "5114": 205,
        "5115": 144,
        "5116": 148,
        "5117": 82,
        "5118": 192,
        "5119": 186,
        "5120": 23,
        "5121": 37,
        "5122": 199,
        "5123": 137,
        "5124": 82,
        "5125": 221,
        "5126": 53,
        "5127": 114,
        "5128": 234,
        "5129": 170,
        "5130": 70,
        "5131": 25,
        "5132": 95,
        "5133": 45,
        "5134": 63,
        "5135": 60,
        "5136": 4,
        "5137": 233,
        "5138": 131,
        "5139": 205,
        "5140": 27,
        "5141": 249,
        "5142": 130,
        "5143": 167,
        "5144": 92,
        "5145": 15,
        "5146": 60,
        "5147": 9,
        "5148": 93,
        "5149": 164,
        "5150": 233,
        "5151": 8,
        "5152": 215,
        "5153": 207,
        "5154": 135,
        "5155": 78,
        "5156": 158,
        "5157": 124,
        "5158": 172,
        "5159": 108,
        "5160": 224,
        "5161": 214,
        "5162": 246,
        "5163": 241,
        "5164": 16,
        "5165": 189,
        "5166": 114,
        "5167": 51,
        "5168": 91,
        "5169": 221,
        "5170": 229,
        "5171": 158,
        "5172": 95,
        "5173": 102,
        "5174": 64,
        "5175": 85,
        "5176": 70,
        "5177": 39,
        "5178": 160,
        "5179": 216,
        "5180": 132,
        "5181": 215,
        "5182": 35,
        "5183": 126,
        "5184": 168,
        "5185": 65,
        "5186": 85,
        "5187": 165,
        "5188": 47,
        "5189": 166,
        "5190": 218,
        "5191": 95,
        "5192": 188,
        "5193": 109,
        "5194": 24,
        "5195": 10,
        "5196": 88,
        "5197": 20,
        "5198": 87,
        "5199": 199,
        "5200": 239,
        "5201": 132,
        "5202": 188,
        "5203": 109,
        "5204": 53,
        "5205": 205,
        "5206": 136,
        "5207": 240,
        "5208": 80,
        "5209": 242,
        "5210": 33,
        "5211": 254,
        "5212": 195,
        "5213": 0,
        "5214": 33,
        "5215": 213,
        "5216": 120,
        "5217": 104,
        "5218": 236,
        "5219": 241,
        "5220": 55,
        "5221": 42,
        "5222": 160,
        "5223": 1,
        "5224": 78,
        "5225": 81,
        "5226": 154,
        "5227": 93,
        "5228": 169,
        "5229": 121,
        "5230": 29,
        "5231": 6,
        "5232": 2,
        "5233": 30,
        "5234": 2,
        "5235": 248,
        "5236": 38,
        "5237": 51,
        "5238": 228,
        "5239": 228,
        "5240": 90,
        "5241": 233,
        "5242": 52,
        "5243": 46,
        "5244": 34,
        "5245": 115,
        "5246": 35,
        "5247": 83,
        "5248": 53,
        "5249": 216,
        "5250": 64,
        "5251": 164,
        "5252": 23,
        "5253": 107,
        "5254": 0,
        "5255": 109,
        "5256": 238,
        "5257": 17,
        "5258": 209,
        "5259": 70,
        "5260": 230,
        "5261": 197,
        "5262": 152,
        "5263": 84,
        "5264": 235,
        "5265": 50,
        "5266": 42,
        "5267": 140,
        "5268": 234,
        "5269": 26,
        "5270": 245,
        "5271": 198,
        "5272": 94,
        "5273": 178,
        "5274": 91,
        "5275": 216,
        "5276": 192,
        "5277": 190,
        "5278": 255,
        "5279": 70,
        "5280": 155,
        "5281": 122,
        "5282": 113,
        "5283": 211,
        "5284": 224,
        "5285": 181,
        "5286": 6,
        "5287": 106,
        "5288": 67,
        "5289": 164,
        "5290": 108,
        "5291": 158,
        "5292": 42,
        "5293": 208,
        "5294": 6,
        "5295": 117,
        "5296": 9,
        "5297": 116,
        "5298": 181,
        "5299": 234,
        "5300": 42,
        "5301": 211,
        "5302": 107,
        "5303": 196,
        "5304": 238,
        "5305": 105,
        "5306": 56,
        "5307": 28,
        "5308": 93,
        "5309": 215,
        "5310": 154,
        "5311": 73,
        "5312": 208,
        "5313": 106,
        "5314": 178,
        "5315": 54,
        "5316": 68,
        "5317": 22,
        "5318": 58,
        "5319": 161,
        "5320": 1,
        "5321": 179,
        "5322": 41,
        "5323": 87,
        "5324": 113,
        "5325": 145,
        "5326": 157,
        "5327": 13,
        "5328": 5,
        "5329": 89,
        "5330": 162,
        "5331": 9,
        "5332": 41,
        "5333": 191,
        "5334": 18,
        "5335": 25,
        "5336": 232,
        "5337": 82,
        "5338": 109,
        "5339": 188,
        "5340": 206,
        "5341": 162,
        "5342": 135,
        "5343": 117,
        "5344": 105,
        "5345": 121,
        "5346": 134,
        "5347": 113,
        "5348": 68,
        "5349": 6,
        "5350": 253,
        "5351": 219,
        "5352": 123,
        "5353": 3,
        "5354": 135,
        "5355": 112,
        "5356": 189,
        "5357": 163,
        "5358": 6,
        "5359": 69,
        "5360": 79,
        "5361": 161,
        "5362": 148,
        "5363": 87,
        "5364": 90,
        "5365": 31,
        "5366": 246,
        "5367": 193,
        "5368": 140,
        "5369": 89,
        "5370": 31,
        "5371": 96,
        "5372": 104,
        "5373": 24,
        "5374": 185,
        "5375": 177,
        "5376": 244,
        "5377": 21,
        "5378": 189,
        "5379": 3,
        "5380": 146,
        "5381": 155,
        "5382": 214,
        "5383": 223,
        "5384": 196,
        "5385": 55,
        "5386": 147,
        "5387": 243,
        "5388": 246,
        "5389": 64,
        "5390": 229,
        "5391": 119,
        "5392": 199,
        "5393": 139,
        "5394": 177,
        "5395": 165,
        "5396": 52,
        "5397": 178,
        "5398": 172,
        "5399": 222,
        "5400": 68,
        "5401": 164,
        "5402": 206,
        "5403": 241,
        "5404": 187,
        "5405": 158,
        "5406": 93,
        "5407": 56,
        "5408": 169,
        "5409": 41,
        "5410": 24,
        "5411": 188,
        "5412": 154,
        "5413": 22,
        "5414": 46,
        "5415": 173,
        "5416": 86,
        "5417": 3,
        "5418": 182,
        "5419": 59,
        "5420": 201,
        "5421": 15,
        "5422": 165,
        "5423": 72,
        "5424": 124,
        "5425": 175,
        "5426": 22,
        "5427": 53,
        "5428": 41,
        "5429": 28,
        "5430": 203,
        "5431": 118,
        "5432": 149,
        "5433": 11,
        "5434": 220,
        "5435": 166,
        "5436": 57,
        "5437": 254,
        "5438": 222,
        "5439": 194,
        "5440": 229,
        "5441": 220,
        "5442": 249,
        "5443": 162,
        "5444": 173,
        "5445": 70,
        "5446": 240,
        "5447": 235,
        "5448": 83,
        "5449": 217,
        "5450": 198,
        "5451": 17,
        "5452": 228,
        "5453": 73,
        "5454": 172,
        "5455": 12,
        "5456": 119,
        "5457": 142,
        "5458": 171,
        "5459": 33,
        "5460": 54,
        "5461": 143,
        "5462": 221,
        "5463": 111,
        "5464": 107,
        "5465": 12,
        "5466": 58,
        "5467": 176,
        "5468": 93,
        "5469": 100,
        "5470": 77,
        "5471": 196,
        "5472": 109,
        "5473": 118,
        "5474": 85,
        "5475": 101,
        "5476": 180,
        "5477": 96,
        "5478": 219,
        "5479": 212,
        "5480": 90,
        "5481": 222,
        "5482": 54,
        "5483": 9,
        "5484": 146,
        "5485": 247,
        "5486": 224,
        "5487": 134,
        "5488": 140,
        "5489": 245,
        "5490": 206,
        "5491": 155,
        "5492": 6,
        "5493": 4,
        "5494": 229,
        "5495": 84,
        "5496": 210,
        "5497": 211,
        "5498": 217,
        "5499": 56,
        "5500": 173,
        "5501": 232,
        "5502": 187,
        "5503": 23,
        "5504": 192,
        "5505": 243,
        "5506": 93,
        "5507": 199,
        "5508": 206,
        "5509": 108,
        "5510": 246,
        "5511": 231,
        "5512": 59,
        "5513": 118,
        "5514": 144,
        "5515": 44,
        "5516": 154,
        "5517": 95,
        "5518": 195,
        "5519": 28,
        "5520": 88,
        "5521": 135,
        "5522": 137,
        "5523": 106,
        "5524": 82,
        "5525": 127,
        "5526": 116,
        "5527": 41,
        "5528": 185,
        "5529": 24,
        "5530": 177,
        "5531": 234,
        "5532": 26,
        "5533": 234,
        "5534": 58,
        "5535": 251,
        "5536": 210,
        "5537": 237,
        "5538": 248,
        "5539": 187,
        "5540": 231,
        "5541": 242,
        "5542": 87,
        "5543": 12,
        "5544": 126,
        "5545": 76,
        "5546": 31,
        "5547": 30,
        "5548": 131,
        "5549": 204,
        "5550": 8,
        "5551": 82,
        "5552": 64,
        "5553": 64,
        "5554": 212,
        "5555": 113,
        "5556": 139,
        "5557": 87,
        "5558": 214,
        "5559": 11,
        "5560": 216,
        "5561": 212,
        "5562": 186,
        "5563": 28,
        "5564": 102,
        "5565": 77,
        "5566": 255,
        "5567": 103,
        "5568": 163,
        "5569": 203,
        "5570": 75,
        "5571": 222,
        "5572": 165,
        "5573": 32,
        "5574": 113,
        "5575": 221,
        "5576": 166,
        "5577": 18,
        "5578": 217,
        "5579": 41,
        "5580": 221,
        "5581": 173,
        "5582": 28,
        "5583": 98,
        "5584": 57,
        "5585": 167,
        "5586": 234,
        "5587": 167,
        "5588": 222,
        "5589": 82,
        "5590": 97,
        "5591": 141,
        "5592": 19,
        "5593": 180,
        "5594": 64,
        "5595": 11,
        "5596": 14,
        "5597": 181,
        "5598": 34,
        "5599": 20,
        "5600": 138,
        "5601": 229,
        "5602": 61,
        "5603": 154,
        "5604": 59,
        "5605": 74,
        "5606": 0,
        "5607": 142,
        "5608": 62,
        "5609": 12,
        "5610": 40,
        "5611": 171,
        "5612": 14,
        "5613": 117,
        "5614": 19,
        "5615": 237,
        "5616": 163,
        "5617": 232,
        "5618": 27,
        "5619": 206,
        "5620": 45,
        "5621": 70,
        "5622": 101,
        "5623": 127,
        "5624": 48,
        "5625": 123,
        "5626": 89,
        "5627": 172,
        "5628": 22,
        "5629": 251,
        "5630": 224,
        "5631": 104,
        "5632": 20,
        "5633": 162,
        "5634": 188,
        "5635": 117,
        "5636": 206,
        "5637": 142,
        "5638": 150,
        "5639": 119,
        "5640": 175,
        "5641": 155,
        "5642": 199,
        "5643": 100,
        "5644": 13,
        "5645": 229,
        "5646": 158,
        "5647": 225,
        "5648": 166,
        "5649": 212,
        "5650": 129,
        "5651": 205,
        "5652": 125,
        "5653": 190,
        "5654": 84,
        "5655": 216,
        "5656": 19,
        "5657": 77,
        "5658": 114,
        "5659": 15,
        "5660": 142,
        "5661": 129,
        "5662": 229,
        "5663": 194,
        "5664": 171,
        "5665": 57,
        "5666": 90,
        "5667": 104,
        "5668": 198,
        "5669": 40,
        "5670": 86,
        "5671": 71,
        "5672": 61,
        "5673": 87,
        "5674": 246,
        "5675": 49,
        "5676": 192,
        "5677": 101,
        "5678": 248,
        "5679": 254,
        "5680": 95,
        "5681": 239,
        "5682": 143,
        "5683": 44,
        "5684": 86,
        "5685": 91,
        "5686": 36,
        "5687": 219,
        "5688": 144,
        "5689": 204,
        "5690": 177,
        "5691": 220,
        "5692": 148,
        "5693": 158,
        "5694": 151,
        "5695": 32,
        "5696": 54,
        "5697": 56,
        "5698": 103,
        "5699": 114,
        "5700": 17,
        "5701": 254,
        "5702": 214,
        "5703": 5,
        "5704": 18,
        "5705": 184,
        "5706": 149,
        "5707": 185,
        "5708": 77,
        "5709": 203,
        "5710": 206,
        "5711": 238,
        "5712": 216,
        "5713": 173,
        "5714": 45,
        "5715": 46,
        "5716": 231,
        "5717": 213,
        "5718": 20,
        "5719": 176,
        "5720": 158,
        "5721": 33,
        "5722": 180,
        "5723": 123,
        "5724": 27,
        "5725": 243,
        "5726": 39,
        "5727": 234,
        "5728": 133,
        "5729": 38,
        "5730": 87,
        "5731": 175,
        "5732": 163,
        "5733": 237,
        "5734": 54,
        "5735": 183,
        "5736": 139,
        "5737": 65,
        "5738": 96,
        "5739": 13,
        "5740": 194,
        "5741": 0,
        "5742": 76,
        "5743": 245,
        "5744": 158,
        "5745": 111,
        "5746": 56,
        "5747": 188,
        "5748": 96,
        "5749": 31,
        "5750": 200,
        "5751": 180,
        "5752": 144,
        "5753": 240,
        "5754": 196,
        "5755": 34,
        "5756": 39,
        "5757": 228,
        "5758": 6,
        "5759": 169,
        "5760": 145,
        "5761": 49,
        "5762": 157,
        "5763": 51,
        "5764": 17,
        "5765": 120,
        "5766": 136,
        "5767": 33,
        "5768": 36,
        "5769": 23,
        "5770": 164,
        "5771": 133,
        "5772": 117,
        "5773": 176,
        "5774": 19,
        "5775": 151,
        "5776": 206,
        "5777": 67,
        "5778": 37,
        "5779": 215,
        "5780": 188,
        "5781": 158,
        "5782": 242,
        "5783": 201,
        "5784": 98,
        "5785": 27,
        "5786": 14,
        "5787": 91,
        "5788": 191,
        "5789": 10,
        "5790": 43,
        "5791": 199,
        "5792": 230,
        "5793": 97,
        "5794": 194,
        "5795": 170,
        "5796": 104,
        "5797": 198,
        "5798": 47,
        "5799": 126,
        "5800": 249,
        "5801": 201,
        "5802": 82,
        "5803": 146,
        "5804": 210,
        "5805": 142,
        "5806": 126,
        "5807": 9,
        "5808": 36,
        "5809": 239,
        "5810": 247,
        "5811": 55,
        "5812": 125,
        "5813": 206,
        "5814": 18,
        "5815": 72,
        "5816": 127,
        "5817": 39,
        "5818": 52,
        "5819": 233,
        "5820": 149,
        "5821": 103,
        "5822": 221,
        "5823": 1,
        "5824": 176,
        "5825": 195,
        "5826": 202,
        "5827": 13,
        "5828": 31,
        "5829": 130,
        "5830": 74,
        "5831": 249,
        "5832": 23,
        "5833": 249,
        "5834": 109,
        "5835": 189,
        "5836": 227,
        "5837": 52,
        "5838": 180,
        "5839": 15,
        "5840": 126,
        "5841": 224,
        "5842": 234,
        "5843": 114,
        "5844": 239,
        "5845": 39,
        "5846": 128,
        "5847": 127,
        "5848": 236,
        "5849": 245,
        "5850": 224,
        "5851": 136,
        "5852": 17,
        "5853": 118,
        "5854": 1,
        "5855": 221,
        "5856": 94,
        "5857": 225,
        "5858": 207,
        "5859": 164,
        "5860": 22,
        "5861": 162,
        "5862": 196,
        "5863": 250,
        "5864": 33,
        "5865": 204,
        "5866": 105,
        "5867": 184,
        "5868": 190,
        "5869": 91,
        "5870": 12,
        "5871": 167,
        "5872": 30,
        "5873": 143,
        "5874": 2,
        "5875": 52,
        "5876": 168,
        "5877": 44,
        "5878": 34,
        "5879": 120,
        "5880": 242,
        "5881": 45,
        "5882": 255,
        "5883": 51,
        "5884": 2,
        "5885": 66,
        "5886": 223,
        "5887": 111,
        "5888": 37,
        "5889": 100,
        "5890": 2,
        "5891": 209,
        "5892": 200,
        "5893": 18,
        "5894": 9,
        "5895": 226,
        "5896": 126,
        "5897": 71,
        "5898": 141,
        "5899": 127,
        "5900": 29,
        "5901": 180,
        "5902": 125,
        "5903": 145,
        "5904": 52,
        "5905": 195,
        "5906": 72,
        "5907": 221,
        "5908": 48,
        "5909": 87,
        "5910": 239,
        "5911": 226,
        "5912": 87,
        "5913": 145,
        "5914": 16,
        "5915": 219,
        "5916": 67,
        "5917": 50,
        "5918": 90,
        "5919": 175,
        "5920": 148,
        "5921": 226,
        "5922": 26,
        "5923": 157,
        "5924": 235,
        "5925": 243,
        "5926": 26,
        "5927": 80,
        "5928": 214,
        "5929": 180,
        "5930": 39,
        "5931": 33,
        "5932": 67,
        "5933": 169,
        "5934": 225,
        "5935": 208,
        "5936": 128,
        "5937": 170,
        "5938": 228,
        "5939": 247,
        "5940": 38,
        "5941": 23,
        "5942": 250,
        "5943": 20,
        "5944": 255,
        "5945": 162,
        "5946": 213,
        "5947": 89,
        "5948": 62,
        "5949": 186,
        "5950": 203,
        "5951": 173,
        "5952": 107,
        "5953": 203,
        "5954": 239,
        "5955": 41,
        "5956": 78,
        "5957": 194,
        "5958": 42,
        "5959": 103,
        "5960": 3,
        "5961": 170,
        "5962": 107,
        "5963": 88,
        "5964": 136,
        "5965": 12,
        "5966": 116,
        "5967": 222,
        "5968": 248,
        "5969": 211,
        "5970": 63,
        "5971": 161,
        "5972": 20,
        "5973": 137,
        "5974": 39,
        "5975": 181,
        "5976": 183,
        "5977": 140,
        "5978": 79,
        "5979": 81,
        "5980": 161,
        "5981": 47,
        "5982": 20,
        "5983": 118,
        "5984": 243,
        "5985": 59,
        "5986": 247,
        "5987": 216,
        "5988": 213,
        "5989": 180,
        "5990": 103,
        "5991": 138,
        "5992": 8,
        "5993": 231,
        "5994": 182,
        "5995": 248,
        "5996": 208,
        "5997": 125,
        "5998": 8,
        "5999": 100,
        "6000": 151,
        "6001": 115,
        "6002": 49,
        "6003": 16,
        "6004": 177,
        "6005": 92,
        "6006": 134,
        "6007": 182,
        "6008": 7,
        "6009": 221,
        "6010": 88,
        "6011": 28,
        "6012": 201,
        "6013": 170,
        "6014": 75,
        "6015": 242,
        "6016": 216,
        "6017": 118,
        "6018": 31,
        "6019": 130,
        "6020": 141,
        "6021": 152,
        "6022": 19,
        "6023": 197,
        "6024": 187,
        "6025": 172,
        "6026": 40,
        "6027": 38,
        "6028": 126,
        "6029": 50,
        "6030": 39,
        "6031": 83,
        "6032": 254,
        "6033": 6,
        "6034": 168,
        "6035": 100,
        "6036": 75,
        "6037": 152,
        "6038": 68,
        "6039": 29,
        "6040": 147,
        "6041": 195,
        "6042": 239,
        "6043": 121,
        "6044": 136,
        "6045": 238,
        "6046": 238,
        "6047": 196,
        "6048": 39,
        "6049": 54,
        "6050": 113,
        "6051": 239,
        "6052": 158,
        "6053": 21,
        "6054": 198,
        "6055": 91,
        "6056": 233,
        "6057": 62,
        "6058": 47,
        "6059": 83,
        "6060": 199,
        "6061": 40,
        "6062": 74,
        "6063": 35,
        "6064": 162,
        "6065": 188,
        "6066": 251,
        "6067": 46,
        "6068": 93,
        "6069": 181,
        "6070": 169,
        "6071": 156,
        "6072": 237,
        "6073": 223,
        "6074": 107,
        "6075": 11,
        "6076": 238,
        "6077": 39,
        "6078": 188,
        "6079": 77,
        "6080": 14,
        "6081": 118,
        "6082": 22,
        "6083": 139,
        "6084": 12,
        "6085": 130,
        "6086": 235,
        "6087": 175,
        "6088": 0,
        "6089": 82,
        "6090": 15,
        "6091": 157,
        "6092": 59,
        "6093": 139,
        "6094": 34,
        "6095": 201,
        "6096": 75,
        "6097": 198,
        "6098": 38,
        "6099": 225,
        "6100": 69,
        "6101": 224,
        "6102": 11,
        "6103": 166,
        "6104": 12,
        "6105": 41,
        "6106": 209,
        "6107": 248,
        "6108": 79,
        "6109": 206,
        "6110": 55,
        "6111": 201,
        "6112": 21,
        "6113": 252,
        "6114": 176,
        "6115": 2,
        "6116": 227,
        "6117": 140,
        "6118": 252,
        "6119": 176,
        "6120": 2,
        "6121": 137,
        "6122": 107,
        "6123": 198,
        "6124": 34,
        "6125": 183,
        "6126": 31,
        "6127": 42,
        "6128": 126,
        "6129": 244,
        "6130": 37,
        "6131": 29,
        "6132": 124,
        "6133": 9,
        "6134": 82,
        "6135": 189,
        "6136": 135,
        "6137": 255,
        "6138": 190,
        "6139": 70,
        "6140": 21,
        "6141": 159,
        "6142": 132,
        "6143": 216,
        "6144": 115,
        "6145": 149,
        "6146": 129,
        "6147": 161,
        "6148": 122,
        "6149": 77,
        "6150": 171,
        "6151": 150,
        "6152": 48,
        "6153": 232,
        "6154": 161,
        "6155": 154,
        "6156": 211,
        "6157": 179,
        "6158": 40,
        "6159": 218,
        "6160": 62,
        "6161": 15,
        "6162": 161,
        "6163": 204,
        "6164": 189,
        "6165": 24,
        "6166": 119,
        "6167": 25,
        "6168": 125,
        "6169": 222,
        "6170": 155,
        "6171": 14,
        "6172": 189,
        "6173": 95,
        "6174": 145,
        "6175": 135,
        "6176": 94,
        "6177": 241,
        "6178": 39,
        "6179": 123,
        "6180": 88,
        "6181": 233,
        "6182": 124,
        "6183": 41,
        "6184": 225,
        "6185": 210,
        "6186": 90,
        "6187": 77,
        "6188": 108,
        "6189": 121,
        "6190": 157,
        "6191": 243,
        "6192": 72,
        "6193": 239,
        "6194": 161,
        "6195": 21,
        "6196": 5,
        "6197": 15,
        "6198": 218,
        "6199": 171,
        "6200": 247,
        "6201": 98,
        "6202": 81,
        "6203": 106,
        "6204": 68,
        "6205": 91,
        "6206": 113,
        "6207": 123,
        "6208": 156,
        "6209": 100,
        "6210": 7,
        "6211": 177,
        "6212": 24,
        "6213": 23,
        "6214": 214,
        "6215": 32,
        "6216": 39,
        "6217": 13,
        "6218": 189,
        "6219": 157,
        "6220": 211,
        "6221": 1,
        "6222": 234,
        "6223": 118,
        "6224": 55,
        "6225": 192,
        "6226": 43,
        "6227": 165,
        "6228": 116,
        "6229": 112,
        "6230": 57,
        "6231": 93,
        "6232": 93,
        "6233": 71,
        "6234": 251,
        "6235": 81,
        "6236": 91,
        "6237": 141,
        "6238": 14,
        "6239": 42,
        "6240": 84,
        "6241": 249,
        "6242": 219,
        "6243": 159,
        "6244": 87,
        "6245": 92,
        "6246": 122,
        "6247": 89,
        "6248": 119,
        "6249": 110,
        "6250": 31,
        "6251": 144,
        "6252": 151,
        "6253": 161,
        "6254": 253,
        "6255": 169,
        "6256": 202,
        "6257": 9,
        "6258": 61,
        "6259": 149,
        "6260": 204,
        "6261": 199,
        "6262": 129,
        "6263": 239,
        "6264": 53,
        "6265": 133,
        "6266": 73,
        "6267": 233,
        "6268": 115,
        "6269": 138,
        "6270": 116,
        "6271": 146,
        "6272": 254,
        "6273": 130,
        "6274": 160,
        "6275": 252,
        "6276": 225,
        "6277": 61,
        "6278": 55,
        "6279": 32,
        "6280": 114,
        "6281": 38,
        "6282": 60,
        "6283": 100,
        "6284": 143,
        "6285": 133,
        "6286": 225,
        "6287": 24,
        "6288": 94,
        "6289": 255,
        "6290": 61,
        "6291": 138,
        "6292": 146,
        "6293": 170,
        "6294": 97,
        "6295": 224,
        "6296": 131,
        "6297": 40,
        "6298": 81,
        "6299": 231,
        "6300": 171,
        "6301": 68,
        "6302": 4,
        "6303": 228,
        "6304": 165,
        "6305": 190,
        "6306": 231,
        "6307": 61,
        "6308": 213,
        "6309": 165,
        "6310": 194,
        "6311": 246,
        "6312": 170,
        "6313": 108,
        "6314": 64,
        "6315": 116,
        "6316": 105,
        "6317": 149,
        "6318": 210,
        "6319": 190,
        "6320": 122,
        "6321": 112,
        "6322": 237,
        "6323": 68,
        "6324": 31,
        "6325": 83,
        "6326": 188,
        "6327": 38,
        "6328": 152,
        "6329": 47,
        "6330": 36,
        "6331": 135,
        "6332": 52,
        "6333": 14,
        "6334": 237,
        "6335": 48,
        "6336": 106,
        "6337": 160,
        "6338": 113,
        "6339": 109,
        "6340": 225,
        "6341": 27,
        "6342": 40,
        "6343": 105,
        "6344": 111,
        "6345": 223,
        "6346": 207,
        "6347": 173,
        "6348": 197,
        "6349": 122,
        "6350": 12,
        "6351": 71,
        "6352": 237,
        "6353": 17,
        "6354": 120,
        "6355": 186,
        "6356": 53,
        "6357": 228,
        "6358": 224,
        "6359": 213,
        "6360": 32,
        "6361": 196,
        "6362": 16,
        "6363": 56,
        "6364": 118,
        "6365": 227,
        "6366": 250,
        "6367": 7,
        "6368": 50,
        "6369": 4,
        "6370": 147,
        "6371": 64,
        "6372": 42,
        "6373": 31,
        "6374": 170,
        "6375": 84,
        "6376": 181,
        "6377": 139,
        "6378": 47,
        "6379": 165,
        "6380": 2,
        "6381": 43,
        "6382": 117,
        "6383": 246,
        "6384": 232,
        "6385": 171,
        "6386": 221,
        "6387": 111,
        "6388": 242,
        "6389": 26,
        "6390": 161,
        "6391": 180,
        "6392": 236,
        "6393": 98,
        "6394": 202,
        "6395": 160,
        "6396": 15,
        "6397": 246,
        "6398": 173,
        "6399": 124,
        "6400": 96,
        "6401": 198,
        "6402": 89,
        "6403": 37,
        "6404": 147,
        "6405": 9,
        "6406": 91,
        "6407": 152,
        "6408": 22,
        "6409": 163,
        "6410": 64,
        "6411": 159,
        "6412": 153,
        "6413": 221,
        "6414": 94,
        "6415": 192,
        "6416": 3,
        "6417": 149,
        "6418": 74,
        "6419": 210,
        "6420": 225,
        "6421": 180,
        "6422": 112,
        "6423": 168,
        "6424": 65,
        "6425": 187,
        "6426": 104,
        "6427": 250,
        "6428": 226,
        "6429": 119,
        "6430": 125,
        "6431": 4,
        "6432": 222,
        "6433": 152,
        "6434": 125,
        "6435": 58,
        "6436": 30,
        "6437": 245,
        "6438": 133,
        "6439": 115,
        "6440": 106,
        "6441": 165,
        "6442": 196,
        "6443": 0,
        "6444": 5,
        "6445": 32,
        "6446": 198,
        "6447": 182,
        "6448": 227,
        "6449": 25,
        "6450": 157,
        "6451": 164,
        "6452": 196,
        "6453": 124,
        "6454": 86,
        "6455": 250,
        "6456": 210,
        "6457": 14,
        "6458": 100,
        "6459": 120,
        "6460": 73,
        "6461": 158,
        "6462": 188,
        "6463": 137,
        "6464": 112,
        "6465": 239,
        "6466": 178,
        "6467": 95,
        "6468": 173,
        "6469": 180,
        "6470": 78,
        "6471": 121,
        "6472": 165,
        "6473": 83,
        "6474": 228,
        "6475": 4,
        "6476": 132,
        "6477": 230,
        "6478": 38,
        "6479": 178,
        "6480": 49,
        "6481": 159,
        "6482": 23,
        "6483": 80,
        "6484": 46,
        "6485": 112,
        "6486": 238,
        "6487": 169,
        "6488": 35,
        "6489": 147,
        "6490": 120,
        "6491": 43,
        "6492": 136,
        "6493": 179,
        "6494": 205,
        "6495": 190,
        "6496": 94,
        "6497": 46,
        "6498": 21,
        "6499": 242,
        "6500": 82,
        "6501": 247,
        "6502": 68,
        "6503": 225,
        "6504": 113,
        "6505": 168,
        "6506": 133,
        "6507": 0,
        "6508": 92,
        "6509": 82,
        "6510": 5,
        "6511": 242,
        "6512": 245,
        "6513": 17,
        "6514": 206,
        "6515": 184,
        "6516": 2,
        "6517": 170,
        "6518": 115,
        "6519": 22,
        "6520": 198,
        "6521": 221,
        "6522": 173,
        "6523": 105,
        "6524": 177,
        "6525": 83,
        "6526": 137,
        "6527": 123,
        "6528": 20,
        "6529": 149,
        "6530": 83,
        "6531": 15,
        "6532": 145,
        "6533": 134,
        "6534": 146,
        "6535": 107,
        "6536": 92,
        "6537": 124,
        "6538": 204,
        "6539": 110,
        "6540": 177,
        "6541": 118,
        "6542": 162,
        "6543": 68,
        "6544": 201,
        "6545": 195,
        "6546": 194,
        "6547": 228,
        "6548": 148,
        "6549": 194,
        "6550": 34,
        "6551": 200,
        "6552": 242,
        "6553": 122,
        "6554": 28,
        "6555": 28,
        "6556": 219,
        "6557": 245,
        "6558": 87,
        "6559": 194,
        "6560": 6,
        "6561": 196,
        "6562": 122,
        "6563": 2,
        "6564": 56,
        "6565": 86,
        "6566": 78,
        "6567": 73,
        "6568": 1,
        "6569": 251,
        "6570": 58,
        "6571": 67,
        "6572": 27,
        "6573": 42,
        "6574": 50,
        "6575": 204,
        "6576": 121,
        "6577": 231,
        "6578": 205,
        "6579": 100,
        "6580": 32,
        "6581": 180,
        "6582": 48,
        "6583": 175,
        "6584": 112,
        "6585": 141,
        "6586": 133,
        "6587": 123,
        "6588": 58,
        "6589": 87,
        "6590": 84,
        "6591": 40,
        "6592": 98,
        "6593": 174,
        "6594": 101,
        "6595": 22,
        "6596": 244,
        "6597": 237,
        "6598": 30,
        "6599": 135,
        "6600": 241,
        "6601": 150,
        "6602": 80,
        "6603": 127,
        "6604": 71,
        "6605": 135,
        "6606": 37,
        "6607": 177,
        "6608": 157,
        "6609": 74,
        "6610": 205,
        "6611": 130,
        "6612": 72,
        "6613": 203,
        "6614": 26,
        "6615": 98,
        "6616": 46,
        "6617": 213,
        "6618": 211,
        "6619": 150,
        "6620": 214,
        "6621": 240,
        "6622": 217,
        "6623": 32,
        "6624": 235,
        "6625": 223,
        "6626": 140,
        "6627": 22,
        "6628": 64,
        "6629": 127,
        "6630": 194,
        "6631": 140,
        "6632": 117,
        "6633": 45,
        "6634": 140,
        "6635": 54,
        "6636": 150,
        "6637": 197,
        "6638": 114,
        "6639": 248,
        "6640": 151,
        "6641": 162,
        "6642": 182,
        "6643": 117,
        "6644": 8,
        "6645": 243,
        "6646": 66,
        "6647": 132,
        "6648": 43,
        "6649": 255,
        "6650": 63,
        "6651": 67,
        "6652": 60,
        "6653": 177,
        "6654": 124,
        "6655": 102,
        "6656": 74,
        "6657": 99,
        "6658": 57,
        "6659": 68,
        "6660": 56,
        "6661": 185,
        "6662": 147,
        "6663": 227,
        "6664": 121,
        "6665": 234,
        "6666": 72,
        "6667": 87,
        "6668": 46,
        "6669": 158,
        "6670": 50,
        "6671": 63,
        "6672": 192,
        "6673": 88,
        "6674": 128,
        "6675": 211,
        "6676": 106,
        "6677": 113,
        "6678": 91,
        "6679": 81,
        "6680": 45,
        "6681": 203,
        "6682": 215,
        "6683": 244,
        "6684": 217,
        "6685": 130,
        "6686": 108,
        "6687": 139,
        "6688": 123,
        "6689": 120,
        "6690": 223,
        "6691": 49,
        "6692": 222,
        "6693": 44,
        "6694": 19,
        "6695": 192,
        "6696": 182,
        "6697": 22,
        "6698": 164,
        "6699": 114,
        "6700": 151,
        "6701": 15,
        "6702": 65,
        "6703": 123,
        "6704": 118,
        "6705": 29,
        "6706": 225,
        "6707": 122,
        "6708": 173,
        "6709": 107,
        "6710": 60,
        "6711": 206,
        "6712": 128,
        "6713": 238,
        "6714": 110,
        "6715": 153,
        "6716": 109,
        "6717": 5,
        "6718": 71,
        "6719": 207,
        "6720": 54,
        "6721": 27,
        "6722": 8,
        "6723": 34,
        "6724": 70,
        "6725": 27,
        "6726": 24,
        "6727": 131,
        "6728": 30,
        "6729": 216,
        "6730": 12,
        "6731": 17,
        "6732": 66,
        "6733": 31,
        "6734": 55,
        "6735": 229,
        "6736": 78,
        "6737": 83,
        "6738": 117,
        "6739": 34,
        "6740": 25,
        "6741": 204,
        "6742": 140,
        "6743": 163,
        "6744": 13,
        "6745": 168,
        "6746": 239,
        "6747": 137,
        "6748": 35,
        "6749": 2,
        "6750": 87,
        "6751": 190,
        "6752": 166,
        "6753": 96,
        "6754": 86,
        "6755": 123,
        "6756": 37,
        "6757": 55,
        "6758": 34,
        "6759": 84,
        "6760": 37,
        "6761": 194,
        "6762": 71,
        "6763": 34,
        "6764": 170,
        "6765": 230,
        "6766": 54,
        "6767": 57,
        "6768": 167,
        "6769": 136,
        "6770": 180,
        "6771": 73,
        "6772": 207,
        "6773": 249,
        "6774": 159,
        "6775": 72,
        "6776": 161,
        "6777": 165,
        "6778": 197,
        "6779": 76,
        "6780": 91,
        "6781": 237,
        "6782": 139,
        "6783": 252,
        "6784": 11,
        "6785": 219,
        "6786": 167,
        "6787": 149,
        "6788": 181,
        "6789": 196,
        "6790": 207,
        "6791": 54,
        "6792": 109,
        "6793": 1,
        "6794": 7,
        "6795": 246,
        "6796": 49,
        "6797": 140,
        "6798": 109,
        "6799": 145,
        "6800": 244,
        "6801": 124,
        "6802": 7,
        "6803": 175,
        "6804": 48,
        "6805": 141,
        "6806": 47,
        "6807": 90,
        "6808": 154,
        "6809": 131,
        "6810": 169,
        "6811": 189,
        "6812": 171,
        "6813": 240,
        "6814": 250,
        "6815": 0,
        "6816": 10,
        "6817": 75,
        "6818": 168,
        "6819": 222,
        "6820": 77,
        "6821": 174,
        "6822": 3,
        "6823": 235,
        "6824": 45,
        "6825": 65,
        "6826": 72,
        "6827": 85,
        "6828": 216,
        "6829": 188,
        "6830": 213,
        "6831": 114,
        "6832": 134,
        "6833": 160,
        "6834": 250,
        "6835": 101,
        "6836": 144,
        "6837": 212,
        "6838": 245,
        "6839": 175,
        "6840": 158,
        "6841": 167,
        "6842": 150,
        "6843": 226,
        "6844": 240,
        "6845": 249,
        "6846": 54,
        "6847": 52,
        "6848": 31,
        "6849": 125,
        "6850": 156,
        "6851": 252,
        "6852": 117,
        "6853": 173,
        "6854": 198,
        "6855": 73,
        "6856": 165,
        "6857": 237,
        "6858": 254,
        "6859": 146,
        "6860": 254,
        "6861": 240,
        "6862": 140,
        "6863": 0,
        "6864": 80,
        "6865": 241,
        "6866": 75,
        "6867": 0,
        "6868": 219,
        "6869": 134,
        "6870": 14,
        "6871": 199,
        "6872": 169,
        "6873": 88,
        "6874": 252,
        "6875": 21,
        "6876": 195,
        "6877": 76,
        "6878": 228,
        "6879": 72,
        "6880": 1,
        "6881": 127,
        "6882": 59,
        "6883": 49,
        "6884": 3,
        "6885": 1,
        "6886": 138,
        "6887": 49,
        "6888": 25,
        "6889": 132,
        "6890": 172,
        "6891": 48,
        "6892": 138,
        "6893": 26,
        "6894": 113,
        "6895": 136,
        "6896": 71,
        "6897": 116,
        "6898": 165,
        "6899": 112,
        "6900": 111,
        "6901": 26,
        "6902": 16,
        "6903": 150,
        "6904": 198,
        "6905": 136,
        "6906": 102,
        "6907": 95,
        "6908": 131,
        "6909": 30,
        "6910": 223,
        "6911": 89,
        "6912": 53,
        "6913": 194,
        "6914": 53,
        "6915": 221,
        "6916": 242,
        "6917": 141,
        "6918": 228,
        "6919": 78,
        "6920": 229,
        "6921": 179,
        "6922": 52,
        "6923": 73,
        "6924": 129,
        "6925": 183,
        "6926": 194,
        "6927": 241,
        "6928": 58,
        "6929": 88,
        "6930": 178,
        "6931": 203,
        "6932": 169,
        "6933": 212,
        "6934": 183,
        "6935": 246,
        "6936": 39,
        "6937": 253,
        "6938": 250,
        "6939": 255,
        "6940": 210,
        "6941": 83,
        "6942": 109,
        "6943": 158,
        "6944": 131,
        "6945": 151,
        "6946": 125,
        "6947": 234,
        "6948": 24,
        "6949": 250,
        "6950": 8,
        "6951": 173,
        "6952": 102,
        "6953": 202,
        "6954": 84,
        "6955": 135,
        "6956": 213,
        "6957": 220,
        "6958": 161,
        "6959": 122,
        "6960": 202,
        "6961": 199,
        "6962": 249,
        "6963": 143,
        "6964": 35,
        "6965": 125,
        "6966": 224,
        "6967": 235,
        "6968": 136,
        "6969": 182,
        "6970": 46,
        "6971": 127,
        "6972": 163,
        "6973": 75,
        "6974": 48,
        "6975": 31,
        "6976": 50,
        "6977": 114,
        "6978": 78,
        "6979": 113,
        "6980": 233,
        "6981": 101,
        "6982": 100,
        "6983": 199,
        "6984": 89,
        "6985": 35,
        "6986": 34,
        "6987": 5,
        "6988": 94,
        "6989": 155,
        "6990": 225,
        "6991": 14,
        "6992": 239,
        "6993": 130,
        "6994": 181,
        "6995": 82,
        "6996": 15,
        "6997": 3,
        "6998": 34,
        "6999": 131,
        "7000": 130,
        "7001": 117,
        "7002": 101,
        "7003": 4,
        "7004": 201,
        "7005": 235,
        "7006": 212,
        "7007": 172,
        "7008": 166,
        "7009": 6,
        "7010": 77,
        "7011": 20,
        "7012": 247,
        "7013": 19,
        "7014": 43,
        "7015": 232,
        "7016": 139,
        "7017": 165,
        "7018": 218,
        "7019": 88,
        "7020": 78,
        "7021": 85,
        "7022": 100,
        "7023": 58,
        "7024": 72,
        "7025": 94,
        "7026": 132,
        "7027": 139,
        "7028": 168,
        "7029": 221,
        "7030": 131,
        "7031": 143,
        "7032": 203,
        "7033": 232,
        "7034": 99,
        "7035": 3,
        "7036": 82,
        "7037": 209,
        "7038": 74,
        "7039": 197,
        "7040": 132,
        "7041": 248,
        "7042": 57,
        "7043": 81,
        "7044": 72,
        "7045": 55,
        "7046": 233,
        "7047": 70,
        "7048": 186,
        "7049": 86,
        "7050": 102,
        "7051": 110,
        "7052": 189,
        "7053": 142,
        "7054": 168,
        "7055": 84,
        "7056": 42,
        "7057": 83,
        "7058": 218,
        "7059": 76,
        "7060": 245,
        "7061": 194,
        "7062": 96,
        "7063": 97,
        "7064": 19,
        "7065": 47,
        "7066": 76,
        "7067": 118,
        "7068": 119,
        "7069": 71,
        "7070": 68,
        "7071": 204,
        "7072": 242,
        "7073": 207,
        "7074": 160,
        "7075": 140,
        "7076": 201,
        "7077": 253,
        "7078": 133,
        "7079": 36,
        "7080": 88,
        "7081": 147,
        "7082": 214,
        "7083": 138,
        "7084": 116,
        "7085": 179,
        "7086": 96,
        "7087": 202,
        "7088": 70,
        "7089": 239,
        "7090": 236,
        "7091": 105,
        "7092": 245,
        "7093": 181,
        "7094": 190,
        "7095": 17,
        "7096": 185,
        "7097": 203,
        "7098": 228,
        "7099": 248,
        "7100": 17,
        "7101": 58,
        "7102": 64,
        "7103": 249,
        "7104": 199,
        "7105": 136,
        "7106": 74,
        "7107": 146,
        "7108": 59,
        "7109": 123,
        "7110": 193,
        "7111": 65,
        "7112": 139,
        "7113": 148,
        "7114": 93,
        "7115": 95,
        "7116": 22,
        "7117": 214,
        "7118": 73,
        "7119": 132,
        "7120": 120,
        "7121": 46,
        "7122": 161,
        "7123": 87,
        "7124": 229,
        "7125": 127,
        "7126": 140,
        "7127": 235,
        "7128": 245,
        "7129": 81,
        "7130": 218,
        "7131": 127,
        "7132": 119,
        "7133": 147,
        "7134": 95,
        "7135": 245,
        "7136": 88,
        "7137": 168,
        "7138": 177,
        "7139": 67,
        "7140": 19,
        "7141": 231,
        "7142": 226,
        "7143": 126,
        "7144": 214,
        "7145": 102,
        "7146": 228,
        "7147": 82,
        "7148": 211,
        "7149": 21,
        "7150": 147,
        "7151": 117,
        "7152": 10,
        "7153": 228,
        "7154": 202,
        "7155": 247,
        "7156": 219,
        "7157": 172,
        "7158": 9,
        "7159": 56,
        "7160": 232,
        "7161": 21,
        "7162": 38,
        "7163": 106,
        "7164": 248,
        "7165": 161,
        "7166": 61,
        "7167": 189,
        "7168": 204,
        "7169": 119,
        "7170": 214,
        "7171": 197,
        "7172": 101,
        "7173": 115,
        "7174": 134,
        "7175": 158,
        "7176": 8,
        "7177": 204,
        "7178": 154,
        "7179": 253,
        "7180": 138,
        "7181": 81,
        "7182": 35,
        "7183": 19,
        "7184": 31,
        "7185": 183,
        "7186": 33,
        "7187": 135,
        "7188": 49,
        "7189": 203,
        "7190": 33,
        "7191": 249,
        "7192": 47,
        "7193": 0,
        "7194": 89,
        "7195": 80,
        "7196": 228,
        "7197": 65,
        "7198": 233,
        "7199": 151,
        "7200": 171,
        "7201": 60,
        "7202": 158,
        "7203": 211,
        "7204": 197,
        "7205": 215,
        "7206": 158,
        "7207": 225,
        "7208": 253,
        "7209": 243,
        "7210": 187,
        "7211": 241,
        "7212": 155,
        "7213": 120,
        "7214": 66,
        "7215": 37,
        "7216": 94,
        "7217": 137,
        "7218": 146,
        "7219": 6,
        "7220": 19,
        "7221": 37,
        "7222": 220,
        "7223": 151,
        "7224": 104,
        "7225": 146,
        "7226": 193,
        "7227": 218,
        "7228": 226,
        "7229": 239,
        "7230": 229,
        "7231": 20,
        "7232": 69,
        "7233": 116,
        "7234": 62,
        "7235": 173,
        "7236": 159,
        "7237": 242,
        "7238": 4,
        "7239": 135,
        "7240": 46,
        "7241": 136,
        "7242": 24,
        "7243": 241,
        "7244": 158,
        "7245": 94,
        "7246": 106,
        "7247": 35,
        "7248": 188,
        "7249": 93,
        "7250": 2,
        "7251": 150,
        "7252": 206,
        "7253": 158,
        "7254": 81,
        "7255": 191,
        "7256": 155,
        "7257": 181,
        "7258": 170,
        "7259": 116,
        "7260": 35,
        "7261": 212,
        "7262": 159,
        "7263": 8,
        "7264": 138,
        "7265": 254,
        "7266": 180,
        "7267": 68,
        "7268": 43,
        "7269": 8,
        "7270": 227,
        "7271": 0,
        "7272": 22,
        "7273": 125,
        "7274": 131,
        "7275": 93,
        "7276": 75,
        "7277": 15,
        "7278": 228,
        "7279": 132,
        "7280": 148,
        "7281": 72,
        "7282": 202,
        "7283": 220,
        "7284": 168,
        "7285": 152,
        "7286": 230,
        "7287": 179,
        "7288": 139,
        "7289": 77,
        "7290": 161,
        "7291": 76,
        "7292": 30,
        "7293": 135,
        "7294": 5,
        "7295": 117,
        "7296": 36,
        "7297": 61,
        "7298": 167,
        "7299": 211,
        "7300": 184,
        "7301": 185,
        "7302": 62,
        "7303": 44,
        "7304": 238,
        "7305": 64,
        "7306": 115,
        "7307": 85,
        "7308": 252,
        "7309": 112,
        "7310": 108,
        "7311": 98,
        "7312": 196,
        "7313": 220,
        "7314": 82,
        "7315": 101,
        "7316": 221,
        "7317": 249,
        "7318": 115,
        "7319": 226,
        "7320": 44,
        "7321": 190,
        "7322": 178,
        "7323": 180,
        "7324": 10,
        "7325": 153,
        "7326": 180,
        "7327": 186,
        "7328": 19,
        "7329": 203,
        "7330": 154,
        "7331": 61,
        "7332": 134,
        "7333": 159,
        "7334": 65,
        "7335": 71,
        "7336": 189,
        "7337": 141,
        "7338": 169,
        "7339": 150,
        "7340": 87,
        "7341": 175,
        "7342": 176,
        "7343": 132,
        "7344": 102,
        "7345": 91,
        "7346": 131,
        "7347": 26,
        "7348": 14,
        "7349": 131,
        "7350": 143,
        "7351": 183,
        "7352": 240,
        "7353": 239,
        "7354": 156,
        "7355": 58,
        "7356": 151,
        "7357": 138,
        "7358": 93,
        "7359": 107,
        "7360": 35,
        "7361": 26,
        "7362": 13,
        "7363": 92,
        "7364": 237,
        "7365": 33,
        "7366": 72,
        "7367": 187,
        "7368": 48,
        "7369": 70,
        "7370": 3,
        "7371": 187,
        "7372": 144,
        "7373": 243,
        "7374": 31,
        "7375": 162,
        "7376": 80,
        "7377": 64,
        "7378": 190,
        "7379": 23,
        "7380": 238,
        "7381": 181,
        "7382": 3,
        "7383": 131,
        "7384": 78,
        "7385": 78,
        "7386": 83,
        "7387": 108,
        "7388": 60,
        "7389": 24,
        "7390": 134,
        "7391": 203,
        "7392": 154,
        "7393": 146,
        "7394": 15,
        "7395": 103,
        "7396": 9,
        "7397": 175,
        "7398": 55,
        "7399": 128,
        "7400": 141,
        "7401": 172,
        "7402": 161,
        "7403": 23,
        "7404": 226,
        "7405": 42,
        "7406": 67,
        "7407": 188,
        "7408": 123,
        "7409": 120,
        "7410": 244,
        "7411": 204,
        "7412": 229,
        "7413": 209,
        "7414": 234,
        "7415": 197,
        "7416": 83,
        "7417": 114,
        "7418": 40,
        "7419": 216,
        "7420": 221,
        "7421": 192,
        "7422": 31,
        "7423": 170,
        "7424": 89,
        "7425": 230,
        "7426": 64,
        "7427": 117,
        "7428": 108,
        "7429": 232,
        "7430": 179,
        "7431": 58,
        "7432": 188,
        "7433": 108,
        "7434": 61,
        "7435": 91,
        "7436": 92,
        "7437": 180,
        "7438": 62,
        "7439": 97,
        "7440": 236,
        "7441": 1,
        "7442": 45,
        "7443": 72,
        "7444": 82,
        "7445": 236,
        "7446": 37,
        "7447": 139,
        "7448": 235,
        "7449": 77,
        "7450": 250,
        "7451": 6,
        "7452": 175,
        "7453": 216,
        "7454": 166,
        "7455": 136,
        "7456": 25,
        "7457": 212,
        "7458": 63,
        "7459": 7,
        "7460": 188,
        "7461": 61,
        "7462": 161,
        "7463": 39,
        "7464": 152,
        "7465": 24,
        "7466": 185,
        "7467": 189,
        "7468": 223,
        "7469": 176,
        "7470": 78,
        "7471": 130,
        "7472": 208,
        "7473": 103,
        "7474": 116,
        "7475": 94,
        "7476": 206,
        "7477": 105,
        "7478": 246,
        "7479": 223,
        "7480": 211,
        "7481": 85,
        "7482": 230,
        "7483": 192,
        "7484": 98,
        "7485": 148,
        "7486": 144,
        "7487": 220,
        "7488": 228,
        "7489": 174,
        "7490": 227,
        "7491": 68,
        "7492": 198,
        "7493": 33,
        "7494": 218,
        "7495": 42,
        "7496": 72,
        "7497": 151,
        "7498": 184,
        "7499": 95,
        "7500": 78,
        "7501": 138,
        "7502": 10,
        "7503": 96,
        "7504": 27,
        "7505": 232,
        "7506": 25,
        "7507": 13,
        "7508": 212,
        "7509": 2,
        "7510": 83,
        "7511": 184,
        "7512": 232,
        "7513": 172,
        "7514": 41,
        "7515": 63,
        "7516": 209,
        "7517": 75,
        "7518": 163,
        "7519": 64,
        "7520": 132,
        "7521": 114,
        "7522": 209,
        "7523": 68,
        "7524": 255,
        "7525": 80,
        "7526": 171,
        "7527": 18,
        "7528": 71,
        "7529": 68,
        "7530": 171,
        "7531": 222,
        "7532": 149,
        "7533": 98,
        "7534": 222,
        "7535": 202,
        "7536": 246,
        "7537": 59,
        "7538": 122,
        "7539": 97,
        "7540": 131,
        "7541": 243,
        "7542": 148,
        "7543": 127,
        "7544": 57,
        "7545": 198,
        "7546": 199,
        "7547": 64,
        "7548": 239,
        "7549": 226,
        "7550": 224,
        "7551": 236,
        "7552": 68,
        "7553": 176,
        "7554": 135,
        "7555": 231,
        "7556": 197,
        "7557": 81,
        "7558": 111,
        "7559": 97,
        "7560": 26,
        "7561": 246,
        "7562": 155,
        "7563": 160,
        "7564": 63,
        "7565": 79,
        "7566": 6,
        "7567": 47,
        "7568": 55,
        "7569": 209,
        "7570": 95,
        "7571": 86,
        "7572": 109,
        "7573": 9,
        "7574": 31,
        "7575": 240,
        "7576": 132,
        "7577": 171,
        "7578": 218,
        "7579": 159,
        "7580": 174,
        "7581": 54,
        "7582": 92,
        "7583": 190,
        "7584": 5,
        "7585": 241,
        "7586": 70,
        "7587": 18,
        "7588": 59,
        "7589": 175,
        "7590": 177,
        "7591": 147,
        "7592": 250,
        "7593": 49,
        "7594": 232,
        "7595": 151,
        "7596": 176,
        "7597": 34,
        "7598": 163,
        "7599": 33,
        "7600": 151,
        "7601": 219,
        "7602": 136,
        "7603": 84,
        "7604": 108,
        "7605": 254,
        "7606": 235,
        "7607": 207,
        "7608": 177,
        "7609": 146,
        "7610": 13,
        "7611": 139,
        "7612": 105,
        "7613": 2,
        "7614": 61,
        "7615": 188,
        "7616": 242,
        "7617": 209,
        "7618": 34,
        "7619": 107,
        "7620": 87,
        "7621": 12,
        "7622": 227,
        "7623": 61,
        "7624": 121,
        "7625": 81,
        "7626": 179,
        "7627": 102,
        "7628": 89,
        "7629": 245,
        "7630": 157,
        "7631": 85,
        "7632": 75,
        "7633": 145,
        "7634": 212,
        "7635": 194,
        "7636": 127,
        "7637": 123,
        "7638": 55,
        "7639": 114,
        "7640": 249,
        "7641": 232,
        "7642": 19,
        "7643": 95,
        "7644": 158,
        "7645": 18,
        "7646": 0,
        "7647": 95,
        "7648": 36,
        "7649": 192,
        "7650": 208,
        "7651": 156,
        "7652": 99,
        "7653": 174,
        "7654": 48,
        "7655": 213,
        "7656": 70,
        "7657": 3,
        "7658": 90,
        "7659": 151,
        "7660": 70,
        "7661": 178,
        "7662": 132,
        "7663": 140,
        "7664": 119,
        "7665": 15,
        "7666": 106,
        "7667": 157,
        "7668": 27,
        "7669": 85,
        "7670": 68,
        "7671": 96,
        "7672": 13,
        "7673": 160,
        "7674": 132,
        "7675": 98,
        "7676": 59,
        "7677": 88,
        "7678": 127,
        "7679": 190,
        "7680": 198,
        "7681": 17,
        "7682": 224,
        "7683": 143,
        "7684": 120,
        "7685": 85,
        "7686": 205,
        "7687": 170,
        "7688": 73,
        "7689": 71,
        "7690": 164,
        "7691": 67,
        "7692": 225,
        "7693": 37,
        "7694": 152,
        "7695": 178,
        "7696": 133,
        "7697": 237,
        "7698": 186,
        "7699": 122,
        "7700": 247,
        "7701": 23,
        "7702": 206,
        "7703": 165,
        "7704": 253,
        "7705": 231,
        "7706": 21,
        "7707": 179,
        "7708": 143,
        "7709": 150,
        "7710": 241,
        "7711": 241,
        "7712": 62,
        "7713": 169,
        "7714": 117,
        "7715": 219,
        "7716": 7,
        "7717": 166,
        "7718": 38,
        "7719": 141,
        "7720": 146,
        "7721": 84,
        "7722": 95,
        "7723": 197,
        "7724": 225,
        "7725": 78,
        "7726": 27,
        "7727": 173,
        "7728": 235,
        "7729": 112,
        "7730": 19,
        "7731": 13,
        "7732": 203,
        "7733": 58,
        "7734": 250,
        "7735": 155,
        "7736": 126,
        "7737": 16,
        "7738": 15,
        "7739": 234,
        "7740": 136,
        "7741": 2,
        "7742": 192,
        "7743": 44,
        "7744": 25,
        "7745": 130,
        "7746": 152,
        "7747": 18,
        "7748": 71,
        "7749": 142,
        "7750": 181,
        "7751": 137,
        "7752": 189,
        "7753": 82,
        "7754": 245,
        "7755": 37,
        "7756": 232,
        "7757": 32,
        "7758": 98,
        "7759": 156,
        "7760": 32,
        "7761": 28,
        "7762": 141,
        "7763": 6,
        "7764": 211,
        "7765": 40,
        "7766": 109,
        "7767": 159,
        "7768": 140,
        "7769": 42,
        "7770": 223,
        "7771": 201,
        "7772": 104,
        "7773": 54,
        "7774": 27,
        "7775": 3,
        "7776": 130,
        "7777": 59,
        "7778": 75,
        "7779": 80,
        "7780": 17,
        "7781": 109,
        "7782": 29,
        "7783": 5,
        "7784": 134,
        "7785": 85,
        "7786": 153,
        "7787": 219,
        "7788": 186,
        "7789": 88,
        "7790": 104,
        "7791": 176,
        "7792": 54,
        "7793": 138,
        "7794": 143,
        "7795": 25,
        "7796": 180,
        "7797": 131,
        "7798": 207,
        "7799": 162,
        "7800": 54,
        "7801": 75,
        "7802": 26,
        "7803": 136,
        "7804": 232,
        "7805": 144,
        "7806": 85,
        "7807": 84,
        "7808": 107,
        "7809": 114,
        "7810": 95,
        "7811": 21,
        "7812": 150,
        "7813": 0,
        "7814": 244,
        "7815": 112,
        "7816": 108,
        "7817": 98,
        "7818": 185,
        "7819": 255,
        "7820": 222,
        "7821": 228,
        "7822": 172,
        "7823": 63,
        "7824": 36,
        "7825": 174,
        "7826": 128,
        "7827": 164,
        "7828": 56,
        "7829": 21,
        "7830": 68,
        "7831": 149,
        "7832": 147,
        "7833": 149,
        "7834": 209,
        "7835": 189,
        "7836": 216,
        "7837": 167,
        "7838": 214,
        "7839": 143,
        "7840": 194,
        "7841": 139,
        "7842": 123,
        "7843": 65,
        "7844": 163,
        "7845": 143,
        "7846": 60,
        "7847": 108,
        "7848": 124,
        "7849": 79,
        "7850": 94,
        "7851": 231,
        "7852": 109,
        "7853": 148,
        "7854": 128,
        "7855": 240,
        "7856": 115,
        "7857": 166,
        "7858": 124,
        "7859": 242,
        "7860": 246,
        "7861": 113,
        "7862": 253,
        "7863": 119,
        "7864": 95,
        "7865": 190,
        "7866": 79,
        "7867": 71,
        "7868": 146,
        "7869": 34,
        "7870": 55,
        "7871": 119,
        "7872": 68,
        "7873": 161,
        "7874": 32,
        "7875": 228,
        "7876": 254,
        "7877": 36,
        "7878": 149,
        "7879": 250,
        "7880": 111,
        "7881": 132,
        "7882": 245,
        "7883": 220,
        "7884": 122,
        "7885": 30,
        "7886": 157,
        "7887": 78,
        "7888": 100,
        "7889": 197,
        "7890": 181,
        "7891": 170,
        "7892": 25,
        "7893": 110,
        "7894": 198,
        "7895": 104,
        "7896": 182,
        "7897": 3,
        "7898": 97,
        "7899": 60,
        "7900": 248,
        "7901": 193,
        "7902": 194,
        "7903": 239,
        "7904": 94,
        "7905": 128,
        "7906": 196,
        "7907": 143,
        "7908": 43,
        "7909": 104,
        "7910": 150,
        "7911": 154,
        "7912": 157,
        "7913": 13,
        "7914": 103,
        "7915": 250,
        "7916": 215,
        "7917": 150,
        "7918": 228,
        "7919": 159,
        "7920": 194,
        "7921": 170,
        "7922": 164,
        "7923": 110,
        "7924": 208,
        "7925": 251,
        "7926": 10,
        "7927": 241,
        "7928": 248,
        "7929": 195,
        "7930": 192,
        "7931": 121,
        "7932": 224,
        "7933": 97,
        "7934": 150,
        "7935": 157,
        "7936": 86,
        "7937": 203,
        "7938": 1,
        "7939": 2,
        "7940": 44,
        "7941": 163,
        "7942": 106,
        "7943": 159,
        "7944": 221,
        "7945": 162,
        "7946": 111,
        "7947": 177,
        "7948": 23,
        "7949": 120,
        "7950": 70,
        "7951": 123,
        "7952": 223,
        "7953": 98,
        "7954": 109,
        "7955": 174,
        "7956": 229,
        "7957": 87,
        "7958": 38,
        "7959": 85,
        "7960": 75,
        "7961": 56,
        "7962": 155,
        "7963": 240,
        "7964": 5,
        "7965": 251,
        "7966": 55,
        "7967": 171,
        "7968": 115,
        "7969": 76,
        "7970": 137,
        "7971": 156,
        "7972": 199,
        "7973": 7,
        "7974": 226,
        "7975": 155,
        "7976": 187,
        "7977": 143,
        "7978": 148,
        "7979": 239,
        "7980": 109,
        "7981": 167,
        "7982": 27,
        "7983": 1,
        "7984": 245,
        "7985": 98,
        "7986": 67,
        "7987": 78,
        "7988": 22,
        "7989": 240,
        "7990": 120,
        "7991": 199,
        "7992": 87,
        "7993": 128,
        "7994": 112,
        "7995": 156,
        "7996": 61,
        "7997": 6,
        "7998": 220,
        "7999": 236,
        "8000": 100,
        "8001": 71,
        "8002": 36,
        "8003": 219,
        "8004": 134,
        "8005": 43,
        "8006": 176,
        "8007": 255,
        "8008": 235,
        "8009": 225,
        "8010": 98,
        "8011": 90,
        "8012": 10,
        "8013": 23,
        "8014": 203,
        "8015": 87,
        "8016": 20,
        "8017": 240,
        "8018": 28,
        "8019": 228,
        "8020": 21,
        "8021": 98,
        "8022": 85,
        "8023": 110,
        "8024": 152,
        "8025": 150,
        "8026": 239,
        "8027": 77,
        "8028": 61,
        "8029": 239,
        "8030": 185,
        "8031": 139,
        "8032": 74,
        "8033": 52,
        "8034": 165,
        "8035": 211,
        "8036": 196,
        "8037": 83,
        "8038": 161,
        "8039": 8,
        "8040": 187,
        "8041": 194,
        "8042": 121,
        "8043": 136,
        "8044": 201,
        "8045": 68,
        "8046": 8,
        "8047": 209,
        "8048": 129,
        "8049": 168,
        "8050": 0,
        "8051": 100,
        "8052": 246,
        "8053": 248,
        "8054": 21,
        "8055": 236,
        "8056": 222,
        "8057": 21,
        "8058": 194,
        "8059": 36,
        "8060": 250,
        "8061": 47,
        "8062": 247,
        "8063": 173,
        "8064": 135,
        "8065": 78,
        "8066": 221,
        "8067": 227,
        "8068": 83,
        "8069": 17,
        "8070": 6,
        "8071": 240,
        "8072": 76,
        "8073": 123,
        "8074": 147,
        "8075": 167,
        "8076": 184,
        "8077": 160,
        "8078": 92,
        "8079": 81,
        "8080": 193,
        "8081": 128,
        "8082": 137,
        "8083": 187,
        "8084": 159,
        "8085": 65,
        "8086": 36,
        "8087": 2,
        "8088": 148,
        "8089": 133,
        "8090": 203,
        "8091": 112,
        "8092": 64,
        "8093": 37,
        "8094": 72,
        "8095": 58,
        "8096": 160,
        "8097": 122,
        "8098": 5,
        "8099": 121,
        "8100": 184,
        "8101": 129,
        "8102": 248,
        "8103": 117,
        "8104": 58,
        "8105": 23,
        "8106": 157,
        "8107": 76,
        "8108": 251,
        "8109": 98,
        "8110": 87,
        "8111": 139,
        "8112": 101,
        "8113": 199,
        "8114": 126,
        "8115": 194,
        "8116": 119,
        "8117": 10,
        "8118": 138,
        "8119": 96,
        "8120": 55,
        "8121": 203,
        "8122": 41,
        "8123": 172,
        "8124": 107,
        "8125": 33,
        "8126": 200,
        "8127": 192,
        "8128": 232,
        "8129": 216,
        "8130": 230,
        "8131": 46,
        "8132": 147,
        "8133": 247,
        "8134": 22,
        "8135": 176,
        "8136": 236,
        "8137": 79,
        "8138": 22,
        "8139": 145,
        "8140": 36,
        "8141": 101,
        "8142": 79,
        "8143": 250,
        "8144": 171,
        "8145": 35,
        "8146": 0,
        "8147": 117,
        "8148": 240,
        "8149": 45,
        "8150": 198,
        "8151": 58,
        "8152": 230,
        "8153": 161,
        "8154": 150,
        "8155": 234,
        "8156": 198,
        "8157": 128,
        "8158": 250,
        "8159": 232,
        "8160": 177,
        "8161": 93,
        "8162": 161,
        "8163": 71,
        "8164": 52,
        "8165": 204,
        "8166": 49,
        "8167": 14,
        "8168": 4,
        "8169": 37,
        "8170": 77,
        "8171": 94,
        "8172": 127,
        "8173": 63,
        "8174": 233,
        "8175": 59,
        "8176": 116,
        "8177": 13,
        "8178": 86,
        "8179": 1,
        "8180": 247,
        "8181": 228,
        "8182": 109,
        "8183": 111,
        "8184": 247,
        "8185": 221,
        "8186": 61,
        "8187": 217,
        "8188": 233,
        "8189": 136,
        "8190": 16,
        "8191": 215,
        "8192": 27,
        "8193": 122,
        "8194": 91,
        "8195": 104,
        "8196": 175,
        "8197": 248,
        "8198": 134,
        "8199": 226,
        "8200": 97,
        "8201": 57,
        "8202": 106,
        "8203": 7,
        "8204": 56,
        "8205": 252,
        "8206": 179,
        "8207": 250,
        "8208": 213,
        "8209": 214,
        "8210": 54,
        "8211": 200,
        "8212": 173,
        "8213": 220,
        "8214": 225,
        "8215": 98,
        "8216": 2,
        "8217": 180,
        "8218": 154,
        "8219": 67,
        "8220": 203,
        "8221": 254,
        "8222": 69,
        "8223": 125,
        "8224": 86,
        "8225": 35,
        "8226": 239,
        "8227": 78,
        "8228": 243,
        "8229": 68,
        "8230": 70,
        "8231": 247,
        "8232": 91,
        "8233": 69,
        "8234": 96,
        "8235": 160,
        "8236": 130,
        "8237": 56,
        "8238": 203,
        "8239": 188,
        "8240": 64,
        "8241": 96,
        "8242": 232,
        "8243": 203,
        "8244": 179,
        "8245": 228,
        "8246": 156,
        "8247": 150,
        "8248": 57,
        "8249": 151,
        "8250": 6,
        "8251": 246,
        "8252": 145,
        "8253": 200,
        "8254": 201,
        "8255": 139,
        "8256": 141,
        "8257": 50,
        "8258": 249,
        "8259": 59,
        "8260": 250,
        "8261": 229,
        "8262": 97,
        "8263": 191,
        "8264": 70,
        "8265": 89,
        "8266": 91,
        "8267": 162,
        "8268": 122,
        "8269": 32,
        "8270": 184,
        "8271": 100,
        "8272": 161,
        "8273": 254,
        "8274": 111,
        "8275": 197,
        "8276": 34,
        "8277": 207,
        "8278": 204,
        "8279": 49,
        "8280": 96,
        "8281": 1,
        "8282": 60,
        "8283": 126,
        "8284": 250,
        "8285": 189,
        "8286": 42,
        "8287": 177,
        "8288": 209,
        "8289": 84,
        "8290": 221,
        "8291": 53,
        "8292": 134,
        "8293": 22,
        "8294": 206,
        "8295": 6,
        "8296": 68,
        "8297": 92,
        "8298": 69,
        "8299": 179,
        "8300": 91,
        "8301": 231,
        "8302": 125,
        "8303": 69,
        "8304": 66,
        "8305": 205,
        "8306": 58,
        "8307": 233,
        "8308": 237,
        "8309": 20,
        "8310": 57,
        "8311": 239,
        "8312": 54,
        "8313": 108,
        "8314": 237,
        "8315": 135,
        "8316": 65,
        "8317": 24,
        "8318": 161,
        "8319": 69,
        "8320": 11,
        "8321": 64,
        "8322": 182,
        "8323": 251,
        "8324": 255,
        "8325": 98,
        "8326": 32,
        "8327": 150,
        "8328": 199,
        "8329": 154,
        "8330": 82,
        "8331": 117,
        "8332": 18,
        "8333": 219,
        "8334": 190,
        "8335": 180,
        "8336": 254,
        "8337": 95,
        "8338": 10,
        "8339": 254,
        "8340": 40,
        "8341": 247,
        "8342": 106,
        "8343": 193,
        "8344": 231,
        "8345": 159,
        "8346": 54,
        "8347": 7,
        "8348": 29,
        "8349": 211,
        "8350": 254,
        "8351": 213,
        "8352": 13,
        "8353": 63,
        "8354": 44,
        "8355": 214,
        "8356": 167,
        "8357": 110,
        "8358": 207,
        "8359": 188,
        "8360": 0,
        "8361": 251,
        "8362": 17,
        "8363": 12,
        "8364": 52,
        "8365": 66,
        "8366": 236,
        "8367": 73,
        "8368": 241,
        "8369": 151,
        "8370": 136,
        "8371": 90,
        "8372": 172,
        "8373": 14,
        "8374": 202,
        "8375": 239,
        "8376": 6,
        "8377": 193,
        "8378": 175,
        "8379": 212,
        "8380": 124,
        "8381": 183,
        "8382": 10,
        "8383": 177,
        "8384": 241,
        "8385": 32,
        "8386": 106,
        "8387": 216,
        "8388": 176,
        "8389": 86,
        "8390": 206,
        "8391": 138,
        "8392": 93,
        "8393": 132,
        "8394": 25,
        "8395": 60,
        "8396": 61,
        "8397": 64,
        "8398": 38,
        "8399": 157,
        "8400": 254,
        "8401": 158,
        "8402": 81,
        "8403": 34,
        "8404": 34,
        "8405": 235,
        "8406": 193,
        "8407": 106,
        "8408": 204,
        "8409": 160,
        "8410": 208,
        "8411": 244,
        "8412": 150,
        "8413": 238,
        "8414": 131,
        "8415": 5,
        "8416": 106,
        "8417": 214,
        "8418": 160,
        "8419": 5,
        "8420": 3,
        "8421": 0,
        "8422": 70,
        "8423": 190,
        "8424": 229,
        "8425": 31,
        "8426": 218,
        "8427": 128,
        "8428": 164,
        "8429": 201,
        "8430": 9,
        "8431": 20,
        "8432": 43,
        "8433": 108,
        "8434": 102,
        "8435": 40,
        "8436": 169,
        "8437": 52,
        "8438": 84,
        "8439": 31,
        "8440": 127,
        "8441": 206,
        "8442": 199,
        "8443": 91,
        "8444": 1,
        "8445": 144,
        "8446": 237,
        "8447": 56,
        "8448": 94,
        "8449": 115,
        "8450": 187,
        "8451": 109,
        "8452": 52,
        "8453": 153,
        "8454": 174,
        "8455": 104,
        "8456": 175,
        "8457": 109,
        "8458": 136,
        "8459": 93,
        "8460": 164,
        "8461": 68,
        "8462": 187,
        "8463": 84,
        "8464": 116,
        "8465": 48,
        "8466": 18,
        "8467": 225,
        "8468": 77,
        "8469": 118,
        "8470": 242,
        "8471": 187,
        "8472": 189,
        "8473": 6,
        "8474": 18,
        "8475": 72,
        "8476": 49,
        "8477": 168,
        "8478": 220,
        "8479": 154,
        "8480": 130,
        "8481": 215,
        "8482": 39,
        "8483": 65,
        "8484": 217,
        "8485": 60,
        "8486": 43,
        "8487": 178,
        "8488": 14,
        "8489": 152,
        "8490": 91,
        "8491": 105,
        "8492": 73,
        "8493": 93,
        "8494": 77,
        "8495": 236,
        "8496": 237,
        "8497": 39,
        "8498": 65,
        "8499": 104,
        "8500": 196,
        "8501": 181,
        "8502": 230,
        "8503": 5,
        "8504": 120,
        "8505": 102,
        "8506": 184,
        "8507": 104,
        "8508": 194,
        "8509": 46,
        "8510": 227,
        "8511": 198,
        "8512": 172,
        "8513": 38,
        "8514": 137,
        "8515": 137,
        "8516": 133,
        "8517": 16,
        "8518": 85,
        "8519": 121,
        "8520": 163,
        "8521": 73,
        "8522": 87,
        "8523": 128,
        "8524": 9,
        "8525": 213,
        "8526": 85,
        "8527": 10,
        "8528": 18,
        "8529": 15,
        "8530": 200,
        "8531": 95,
        "8532": 156,
        "8533": 7,
        "8534": 22,
        "8535": 46,
        "8536": 0,
        "8537": 146,
        "8538": 90,
        "8539": 65,
        "8540": 76,
        "8541": 189,
        "8542": 170,
        "8543": 154,
        "8544": 159,
        "8545": 158,
        "8546": 244,
        "8547": 168,
        "8548": 179,
        "8549": 238,
        "8550": 244,
        "8551": 125,
        "8552": 189,
        "8553": 82,
        "8554": 113,
        "8555": 113,
        "8556": 129,
        "8557": 165,
        "8558": 168,
        "8559": 120,
        "8560": 8,
        "8561": 35,
        "8562": 200,
        "8563": 236,
        "8564": 210,
        "8565": 113,
        "8566": 216,
        "8567": 17,
        "8568": 193,
        "8569": 140,
        "8570": 149,
        "8571": 110,
        "8572": 130,
        "8573": 148,
        "8574": 241,
        "8575": 172,
        "8576": 52,
        "8577": 207,
        "8578": 217,
        "8579": 74,
        "8580": 118,
        "8581": 198,
        "8582": 100,
        "8583": 131,
        "8584": 83,
        "8585": 113,
        "8586": 251,
        "8587": 119,
        "8588": 235,
        "8589": 161,
        "8590": 34,
        "8591": 91,
        "8592": 86,
        "8593": 69,
        "8594": 22,
        "8595": 185,
        "8596": 66,
        "8597": 101,
        "8598": 226,
        "8599": 146,
        "8600": 123,
        "8601": 166,
        "8602": 145,
        "8603": 36,
        "8604": 217,
        "8605": 240,
        "8606": 180,
        "8607": 85,
        "8608": 229,
        "8609": 190,
        "8610": 172,
        "8611": 16,
        "8612": 20,
        "8613": 206,
        "8614": 66,
        "8615": 83,
        "8616": 9,
        "8617": 133,
        "8618": 17,
        "8619": 87,
        "8620": 72,
        "8621": 110,
        "8622": 9,
        "8623": 48,
        "8624": 98,
        "8625": 122,
        "8626": 52,
        "8627": 26,
        "8628": 109,
        "8629": 137,
        "8630": 242,
        "8631": 63,
        "8632": 9,
        "8633": 45,
        "8634": 19,
        "8635": 80,
        "8636": 87,
        "8637": 35,
        "8638": 58,
        "8639": 107,
        "8640": 207,
        "8641": 170,
        "8642": 134,
        "8643": 34,
        "8644": 246,
        "8645": 26,
        "8646": 251,
        "8647": 26,
        "8648": 233,
        "8649": 37,
        "8650": 188,
        "8651": 39,
        "8652": 150,
        "8653": 148,
        "8654": 87,
        "8655": 113,
        "8656": 165,
        "8657": 104,
        "8658": 57,
        "8659": 116,
        "8660": 99,
        "8661": 89,
        "8662": 34,
        "8663": 122,
        "8664": 53,
        "8665": 112,
        "8666": 21,
        "8667": 60,
        "8668": 38,
        "8669": 86,
        "8670": 25,
        "8671": 232,
        "8672": 186,
        "8673": 115,
        "8674": 71,
        "8675": 85,
        "8676": 187,
        "8677": 45,
        "8678": 238,
        "8679": 235,
        "8680": 149,
        "8681": 199,
        "8682": 219,
        "8683": 220,
        "8684": 50,
        "8685": 175,
        "8686": 158,
        "8687": 65,
        "8688": 196,
        "8689": 183,
        "8690": 165,
        "8691": 90,
        "8692": 86,
        "8693": 84,
        "8694": 127,
        "8695": 124,
        "8696": 204,
        "8697": 152,
        "8698": 40,
        "8699": 108,
        "8700": 41,
        "8701": 208,
        "8702": 247,
        "8703": 248,
        "8704": 244,
        "8705": 23,
        "8706": 207,
        "8707": 50,
        "8708": 211,
        "8709": 129,
        "8710": 81,
        "8711": 37,
        "8712": 201,
        "8713": 51,
        "8714": 117,
        "8715": 221,
        "8716": 91,
        "8717": 9,
        "8718": 8,
        "8719": 77,
        "8720": 120,
        "8721": 63,
        "8722": 40,
        "8723": 247,
        "8724": 125,
        "8725": 197,
        "8726": 182,
        "8727": 141,
        "8728": 164,
        "8729": 200,
        "8730": 120,
        "8731": 213,
        "8732": 112,
        "8733": 41,
        "8734": 28,
        "8735": 190,
        "8736": 119,
        "8737": 233,
        "8738": 237,
        "8739": 174,
        "8740": 250,
        "8741": 254,
        "8742": 51,
        "8743": 37,
        "8744": 121,
        "8745": 147,
        "8746": 127,
        "8747": 38,
        "8748": 229,
        "8749": 68,
        "8750": 143,
        "8751": 159,
        "8752": 224,
        "8753": 15,
        "8754": 106,
        "8755": 123,
        "8756": 199,
        "8757": 35,
        "8758": 115,
        "8759": 225,
        "8760": 172,
        "8761": 233,
        "8762": 230,
        "8763": 229,
        "8764": 88,
        "8765": 92,
        "8766": 247,
        "8767": 1,
        "8768": 87,
        "8769": 182,
        "8770": 161,
        "8771": 175,
        "8772": 219,
        "8773": 112,
        "8774": 248,
        "8775": 137,
        "8776": 31,
        "8777": 1,
        "8778": 51,
        "8779": 59,
        "8780": 248,
        "8781": 177,
        "8782": 219,
        "8783": 237,
        "8784": 164,
        "8785": 166,
        "8786": 64,
        "8787": 164,
        "8788": 56,
        "8789": 32,
        "8790": 123,
        "8791": 196,
        "8792": 35,
        "8793": 78,
        "8794": 118,
        "8795": 210,
        "8796": 5,
        "8797": 76,
        "8798": 236,
        "8799": 228,
        "8800": 78,
        "8801": 131,
        "8802": 105,
        "8803": 156,
        "8804": 181,
        "8805": 69,
        "8806": 25,
        "8807": 41,
        "8808": 66,
        "8809": 204,
        "8810": 202,
        "8811": 243,
        "8812": 133,
        "8813": 221,
        "8814": 139,
        "8815": 140,
        "8816": 100,
        "8817": 116,
        "8818": 149,
        "8819": 135,
        "8820": 137,
        "8821": 5,
        "8822": 172,
        "8823": 240,
        "8824": 105,
        "8825": 165,
        "8826": 226,
        "8827": 23,
        "8828": 47,
        "8829": 157,
        "8830": 57,
        "8831": 15,
        "8832": 114,
        "8833": 136,
        "8834": 232,
        "8835": 145,
        "8836": 64,
        "8837": 147,
        "8838": 50,
        "8839": 78,
        "8840": 249,
        "8841": 30,
        "8842": 202,
        "8843": 77,
        "8844": 90,
        "8845": 21,
        "8846": 98,
        "8847": 108,
        "8848": 69,
        "8849": 69,
        "8850": 161,
        "8851": 66,
        "8852": 215,
        "8853": 25,
        "8854": 18,
        "8855": 150,
        "8856": 210,
        "8857": 104,
        "8858": 117,
        "8859": 200,
        "8860": 89,
        "8861": 211,
        "8862": 140,
        "8863": 107,
        "8864": 141,
        "8865": 166,
        "8866": 249,
        "8867": 255,
        "8868": 77,
        "8869": 203,
        "8870": 96,
        "8871": 49,
        "8872": 225,
        "8873": 3,
        "8874": 44,
        "8875": 9,
        "8876": 235,
        "8877": 3,
        "8878": 5,
        "8879": 243,
        "8880": 105,
        "8881": 8,
        "8882": 229,
        "8883": 132,
        "8884": 107,
        "8885": 227,
        "8886": 97,
        "8887": 53,
        "8888": 100,
        "8889": 158,
        "8890": 122,
        "8891": 145,
        "8892": 39,
        "8893": 150,
        "8894": 201,
        "8895": 30,
        "8896": 59,
        "8897": 15,
        "8898": 41,
        "8899": 89,
        "8900": 135,
        "8901": 138,
        "8902": 126,
        "8903": 71,
        "8904": 214,
        "8905": 5,
        "8906": 228,
        "8907": 134,
        "8908": 144,
        "8909": 53,
        "8910": 124,
        "8911": 4,
        "8912": 2,
        "8913": 1,
        "8914": 234,
        "8915": 183,
        "8916": 244,
        "8917": 211,
        "8918": 96,
        "8919": 29,
        "8920": 223,
        "8921": 118,
        "8922": 155,
        "8923": 21,
        "8924": 201,
        "8925": 93,
        "8926": 97,
        "8927": 253,
        "8928": 62,
        "8929": 237,
        "8930": 19,
        "8931": 121,
        "8932": 33,
        "8933": 171,
        "8934": 52,
        "8935": 75,
        "8936": 82,
        "8937": 168,
        "8938": 254,
        "8939": 110,
        "8940": 92,
        "8941": 215,
        "8942": 63,
        "8943": 65,
        "8944": 243,
        "8945": 100,
        "8946": 213,
        "8947": 162,
        "8948": 86,
        "8949": 241,
        "8950": 15,
        "8951": 161,
        "8952": 140,
        "8953": 49,
        "8954": 179,
        "8955": 218,
        "8956": 243,
        "8957": 240,
        "8958": 87,
        "8959": 91,
        "8960": 240,
        "8961": 209,
        "8962": 235,
        "8963": 218,
        "8964": 1,
        "8965": 67,
        "8966": 241,
        "8967": 76,
        "8968": 19,
        "8969": 135,
        "8970": 236,
        "8971": 181,
        "8972": 186,
        "8973": 171,
        "8974": 172,
        "8975": 76,
        "8976": 61,
        "8977": 9,
        "8978": 226,
        "8979": 139,
        "8980": 61,
        "8981": 156,
        "8982": 207,
        "8983": 207,
        "8984": 173,
        "8985": 165,
        "8986": 196,
        "8987": 122,
        "8988": 214,
        "8989": 231,
        "8990": 22,
        "8991": 62,
        "8992": 57,
        "8993": 76,
        "8994": 9,
        "8995": 39,
        "8996": 115,
        "8997": 64,
        "8998": 247,
        "8999": 77,
        "9000": 179,
        "9001": 141,
        "9002": 178,
        "9003": 227,
        "9004": 150,
        "9005": 192,
        "9006": 7,
        "9007": 161,
        "9008": 175,
        "9009": 123,
        "9010": 252,
        "9011": 216,
        "9012": 135,
        "9013": 138,
        "9014": 223,
        "9015": 55,
        "9016": 30,
        "9017": 80,
        "9018": 3,
        "9019": 128,
        "9020": 209,
        "9021": 45,
        "9022": 191,
        "9023": 102,
        "9024": 69,
        "9025": 196,
        "9026": 243,
        "9027": 165,
        "9028": 161,
        "9029": 217,
        "9030": 199,
        "9031": 141,
        "9032": 217,
        "9033": 240,
        "9034": 226,
        "9035": 28,
        "9036": 199,
        "9037": 230,
        "9038": 83,
        "9039": 80,
        "9040": 109,
        "9041": 179,
        "9042": 146,
        "9043": 85,
        "9044": 222,
        "9045": 26,
        "9046": 136,
        "9047": 204,
        "9048": 225,
        "9049": 204,
        "9050": 59,
        "9051": 24,
        "9052": 40,
        "9053": 247,
        "9054": 15,
        "9055": 123,
        "9056": 133,
        "9057": 82,
        "9058": 189,
        "9059": 117,
        "9060": 216,
        "9061": 206,
        "9062": 88,
        "9063": 123,
        "9064": 123,
        "9065": 161,
        "9066": 90,
        "9067": 9,
        "9068": 253,
        "9069": 88,
        "9070": 57,
        "9071": 8,
        "9072": 100,
        "9073": 3,
        "9074": 150,
        "9075": 164,
        "9076": 230,
        "9077": 29,
        "9078": 192,
        "9079": 71,
        "9080": 92,
        "9081": 158,
        "9082": 192,
        "9083": 101,
        "9084": 99,
        "9085": 91,
        "9086": 152,
        "9087": 197,
        "9088": 6,
        "9089": 36,
        "9090": 237,
        "9091": 166,
        "9092": 215,
        "9093": 64,
        "9094": 16,
        "9095": 68,
        "9096": 55,
        "9097": 165,
        "9098": 149,
        "9099": 162,
        "9100": 196,
        "9101": 237,
        "9102": 158,
        "9103": 175,
        "9104": 166,
        "9105": 176,
        "9106": 238,
        "9107": 29,
        "9108": 245,
        "9109": 157,
        "9110": 190,
        "9111": 30,
        "9112": 65,
        "9113": 120,
        "9114": 84,
        "9115": 217,
        "9116": 156,
        "9117": 203,
        "9118": 82,
        "9119": 231,
        "9120": 36,
        "9121": 224,
        "9122": 112,
        "9123": 169,
        "9124": 166,
        "9125": 224,
        "9126": 229,
        "9127": 95,
        "9128": 239,
        "9129": 214,
        "9130": 46,
        "9131": 218,
        "9132": 215,
        "9133": 95,
        "9134": 182,
        "9135": 151,
        "9136": 4,
        "9137": 215,
        "9138": 43,
        "9139": 38,
        "9140": 29,
        "9141": 62,
        "9142": 12,
        "9143": 81,
        "9144": 205,
        "9145": 6,
        "9146": 137,
        "9147": 75,
        "9148": 151,
        "9149": 197,
        "9150": 226,
        "9151": 110,
        "9152": 104,
        "9153": 101,
        "9154": 101,
        "9155": 210,
        "9156": 71,
        "9157": 193,
        "9158": 230,
        "9159": 125,
        "9160": 191,
        "9161": 58,
        "9162": 51,
        "9163": 27,
        "9164": 51,
        "9165": 39,
        "9166": 253,
        "9167": 80,
        "9168": 216,
        "9169": 219,
        "9170": 181,
        "9171": 189,
        "9172": 96,
        "9173": 238,
        "9174": 131,
        "9175": 205,
        "9176": 93,
        "9177": 51,
        "9178": 119,
        "9179": 130,
        "9180": 18,
        "9181": 249,
        "9182": 25,
        "9183": 208,
        "9184": 154,
        "9185": 131,
        "9186": 113,
        "9187": 235,
        "9188": 152,
        "9189": 237,
        "9190": 202,
        "9191": 89,
        "9192": 58,
        "9193": 217,
        "9194": 25,
        "9195": 39,
        "9196": 199,
        "9197": 20,
        "9198": 143,
        "9199": 144,
        "9200": 115,
        "9201": 119,
        "9202": 121,
        "9203": 100,
        "9204": 17,
        "9205": 122,
        "9206": 174,
        "9207": 16,
        "9208": 161,
        "9209": 165,
        "9210": 211,
        "9211": 187,
        "9212": 102,
        "9213": 15,
        "9214": 118,
        "9215": 29,
        "9216": 249,
        "9217": 152,
        "9218": 168,
        "9219": 124,
        "9220": 114,
        "9221": 81,
        "9222": 237,
        "9223": 32,
        "9224": 144,
        "9225": 211,
        "9226": 133,
        "9227": 82,
        "9228": 35,
        "9229": 201,
        "9230": 247,
        "9231": 113,
        "9232": 242,
        "9233": 97,
        "9234": 152,
        "9235": 64,
        "9236": 41,
        "9237": 89,
        "9238": 16,
        "9239": 109,
        "9240": 229,
        "9241": 11,
        "9242": 131,
        "9243": 223,
        "9244": 8,
        "9245": 192,
        "9246": 82,
        "9247": 229,
        "9248": 219,
        "9249": 217,
        "9250": 18,
        "9251": 176,
        "9252": 36,
        "9253": 216,
        "9254": 153,
        "9255": 113,
        "9256": 146,
        "9257": 147,
        "9258": 35,
        "9259": 110,
        "9260": 138,
        "9261": 8,
        "9262": 164,
        "9263": 191,
        "9264": 182,
        "9265": 50,
        "9266": 95,
        "9267": 14,
        "9268": 23,
        "9269": 73,
        "9270": 240,
        "9271": 246,
        "9272": 49,
        "9273": 255,
        "9274": 216,
        "9275": 249,
        "9276": 194,
        "9277": 95,
        "9278": 48,
        "9279": 241,
        "9280": 44,
        "9281": 194,
        "9282": 93,
        "9283": 2,
        "9284": 136,
        "9285": 233,
        "9286": 142,
        "9287": 214,
        "9288": 213,
        "9289": 151,
        "9290": 16,
        "9291": 42,
        "9292": 58,
        "9293": 161,
        "9294": 39,
        "9295": 81,
        "9296": 227,
        "9297": 96,
        "9298": 14,
        "9299": 27,
        "9300": 67,
        "9301": 208,
        "9302": 112,
        "9303": 178,
        "9304": 120,
        "9305": 168,
        "9306": 243,
        "9307": 11,
        "9308": 176,
        "9309": 88,
        "9310": 82,
        "9311": 3,
        "9312": 109,
        "9313": 152,
        "9314": 14,
        "9315": 153,
        "9316": 89,
        "9317": 133,
        "9318": 67,
        "9319": 96,
        "9320": 253,
        "9321": 51,
        "9322": 235,
        "9323": 236,
        "9324": 80,
        "9325": 30,
        "9326": 75,
        "9327": 251,
        "9328": 26,
        "9329": 22,
        "9330": 216,
        "9331": 35,
        "9332": 116,
        "9333": 166,
        "9334": 236,
        "9335": 100,
        "9336": 172,
        "9337": 11,
        "9338": 161,
        "9339": 191,
        "9340": 99,
        "9341": 4,
        "9342": 88,
        "9343": 123,
        "9344": 229,
        "9345": 182,
        "9346": 95,
        "9347": 115,
        "9348": 159,
        "9349": 155,
        "9350": 29,
        "9351": 169,
        "9352": 103,
        "9353": 225,
        "9354": 196,
        "9355": 180,
        "9356": 26,
        "9357": 67,
        "9358": 154,
        "9359": 0,
        "9360": 169,
        "9361": 172,
        "9362": 49,
        "9363": 188,
        "9364": 130,
        "9365": 135,
        "9366": 213,
        "9367": 26,
        "9368": 12,
        "9369": 136,
        "9370": 25,
        "9371": 65,
        "9372": 133,
        "9373": 250,
        "9374": 214,
        "9375": 15,
        "9376": 38,
        "9377": 52,
        "9378": 144,
        "9379": 165,
        "9380": 25,
        "9381": 178,
        "9382": 100,
        "9383": 252,
        "9384": 224,
        "9385": 59,
        "9386": 188,
        "9387": 184,
        "9388": 21,
        "9389": 68,
        "9390": 130,
        "9391": 77,
        "9392": 188,
        "9393": 72,
        "9394": 26,
        "9395": 216,
        "9396": 191,
        "9397": 5,
        "9398": 193,
        "9399": 27,
        "9400": 101,
        "9401": 170,
        "9402": 140,
        "9403": 254,
        "9404": 22,
        "9405": 254,
        "9406": 67,
        "9407": 218,
        "9408": 122,
        "9409": 139,
        "9410": 213,
        "9411": 216,
        "9412": 75,
        "9413": 156,
        "9414": 32,
        "9415": 35,
        "9416": 43,
        "9417": 195,
        "9418": 125,
        "9419": 32,
        "9420": 215,
        "9421": 25,
        "9422": 230,
        "9423": 87,
        "9424": 96,
        "9425": 97,
        "9426": 50,
        "9427": 217,
        "9428": 198,
        "9429": 187,
        "9430": 110,
        "9431": 118,
        "9432": 218,
        "9433": 160,
        "9434": 119,
        "9435": 221,
        "9436": 151,
        "9437": 162,
        "9438": 38,
        "9439": 144,
        "9440": 188,
        "9441": 238,
        "9442": 107,
        "9443": 38,
        "9444": 119,
        "9445": 26,
        "9446": 185,
        "9447": 182,
        "9448": 211,
        "9449": 106,
        "9450": 231,
        "9451": 152,
        "9452": 229,
        "9453": 116,
        "9454": 101,
        "9455": 232,
        "9456": 91,
        "9457": 40,
        "9458": 166,
        "9459": 243,
        "9460": 172,
        "9461": 10,
        "9462": 210,
        "9463": 129,
        "9464": 68,
        "9465": 254,
        "9466": 128,
        "9467": 64,
        "9468": 129,
        "9469": 124,
        "9470": 233,
        "9471": 173,
        "9472": 65,
        "9473": 191,
        "9474": 191,
        "9475": 145,
        "9476": 161,
        "9477": 247,
        "9478": 80,
        "9479": 67,
        "9480": 63,
        "9481": 24,
        "9482": 122,
        "9483": 160,
        "9484": 67,
        "9485": 97,
        "9486": 135,
        "9487": 58,
        "9488": 140,
        "9489": 0,
        "9490": 49,
        "9491": 240,
        "9492": 113,
        "9493": 57,
        "9494": 219,
        "9495": 182,
        "9496": 203,
        "9497": 250,
        "9498": 150,
        "9499": 202,
        "9500": 32,
        "9501": 230,
        "9502": 135,
        "9503": 44,
        "9504": 162,
        "9505": 81,
        "9506": 97,
        "9507": 224,
        "9508": 11,
        "9509": 231,
        "9510": 106,
        "9511": 4,
        "9512": 253,
        "9513": 153,
        "9514": 241,
        "9515": 46,
        "9516": 31,
        "9517": 201,
        "9518": 92,
        "9519": 251,
        "9520": 226,
        "9521": 33,
        "9522": 63,
        "9523": 118,
        "9524": 31,
        "9525": 120,
        "9526": 149,
        "9527": 90,
        "9528": 24,
        "9529": 249,
        "9530": 30,
        "9531": 228,
        "9532": 141,
        "9533": 66,
        "9534": 119,
        "9535": 24,
        "9536": 20,
        "9537": 165,
        "9538": 227,
        "9539": 234,
        "9540": 228,
        "9541": 126,
        "9542": 45,
        "9543": 224,
        "9544": 28,
        "9545": 101,
        "9546": 222,
        "9547": 168,
        "9548": 55,
        "9549": 229,
        "9550": 244,
        "9551": 50,
        "9552": 76,
        "9553": 238,
        "9554": 64,
        "9555": 234,
        "9556": 53,
        "9557": 187,
        "9558": 79,
        "9559": 75,
        "9560": 181,
        "9561": 68,
        "9562": 250,
        "9563": 100,
        "9564": 126,
        "9565": 212,
        "9566": 224,
        "9567": 55,
        "9568": 68,
        "9569": 117,
        "9570": 46,
        "9571": 55,
        "9572": 108,
        "9573": 158,
        "9574": 141,
        "9575": 175,
        "9576": 49,
        "9577": 51,
        "9578": 83,
        "9579": 160,
        "9580": 30,
        "9581": 0,
        "9582": 68,
        "9583": 198,
        "9584": 108,
        "9585": 57,
        "9586": 20,
        "9587": 206,
        "9588": 122,
        "9589": 90,
        "9590": 232,
        "9591": 55,
        "9592": 69,
        "9593": 251,
        "9594": 69,
        "9595": 180,
        "9596": 95,
        "9597": 2,
        "9598": 177,
        "9599": 72,
        "9600": 136,
        "9601": 135,
        "9602": 26,
        "9603": 118,
        "9604": 229,
        "9605": 250,
        "9606": 241,
        "9607": 190,
        "9608": 191,
        "9609": 226,
        "9610": 163,
        "9611": 48,
        "9612": 151,
        "9613": 113,
        "9614": 48,
        "9615": 151,
        "9616": 136,
        "9617": 44,
        "9618": 168,
        "9619": 247,
        "9620": 39,
        "9621": 134,
        "9622": 150,
        "9623": 175,
        "9624": 123,
        "9625": 79,
        "9626": 153,
        "9627": 37,
        "9628": 69,
        "9629": 91,
        "9630": 181,
        "9631": 15,
        "9632": 41,
        "9633": 74,
        "9634": 150,
        "9635": 164,
        "9636": 230,
        "9637": 55,
        "9638": 81,
        "9639": 244,
        "9640": 190,
        "9641": 124,
        "9642": 32,
        "9643": 88,
        "9644": 21,
        "9645": 56,
        "9646": 236,
        "9647": 133,
        "9648": 96,
        "9649": 116,
        "9650": 57,
        "9651": 241,
        "9652": 149,
        "9653": 89,
        "9654": 42,
        "9655": 151,
        "9656": 34,
        "9657": 69,
        "9658": 41,
        "9659": 105,
        "9660": 44,
        "9661": 25,
        "9662": 228,
        "9663": 74,
        "9664": 52,
        "9665": 89,
        "9666": 6,
        "9667": 170,
        "9668": 103,
        "9669": 26,
        "9670": 203,
        "9671": 0,
        "9672": 153,
        "9673": 4,
        "9674": 13,
        "9675": 242,
        "9676": 161,
        "9677": 9,
        "9678": 26,
        "9679": 234,
        "9680": 168,
        "9681": 239,
        "9682": 76,
        "9683": 25,
        "9684": 223,
        "9685": 83,
        "9686": 220,
        "9687": 177,
        "9688": 40,
        "9689": 249,
        "9690": 17,
        "9691": 30,
        "9692": 175,
        "9693": 185,
        "9694": 249,
        "9695": 40,
        "9696": 127,
        "9697": 123,
        "9698": 61,
        "9699": 199,
        "9700": 231,
        "9701": 15,
        "9702": 132,
        "9703": 249,
        "9704": 31,
        "9705": 73,
        "9706": 224,
        "9707": 117,
        "9708": 67,
        "9709": 137,
        "9710": 75,
        "9711": 109,
        "9712": 168,
        "9713": 142,
        "9714": 243,
        "9715": 196,
        "9716": 242,
        "9717": 144,
        "9718": 93,
        "9719": 18,
        "9720": 215,
        "9721": 169,
        "9722": 203,
        "9723": 6,
        "9724": 249,
        "9725": 201,
        "9726": 140,
        "9727": 92,
        "9728": 154,
        "9729": 215,
        "9730": 94,
        "9731": 156,
        "9732": 178,
        "9733": 253,
        "9734": 60,
        "9735": 84,
        "9736": 69,
        "9737": 1,
        "9738": 123,
        "9739": 255,
        "9740": 249,
        "9741": 164,
        "9742": 3,
        "9743": 145,
        "9744": 158,
        "9745": 255,
        "9746": 88,
        "9747": 16,
        "9748": 240,
        "9749": 229,
        "9750": 214,
        "9751": 79,
        "9752": 8,
        "9753": 166,
        "9754": 150,
        "9755": 26,
        "9756": 47,
        "9757": 177,
        "9758": 208,
        "9759": 172,
        "9760": 118,
        "9761": 38,
        "9762": 162,
        "9763": 99,
        "9764": 41,
        "9765": 26,
        "9766": 47,
        "9767": 184,
        "9768": 120,
        "9769": 176,
        "9770": 111,
        "9771": 234,
        "9772": 112,
        "9773": 198,
        "9774": 21,
        "9775": 43,
        "9776": 42,
        "9777": 85,
        "9778": 132,
        "9779": 211,
        "9780": 169,
        "9781": 190,
        "9782": 27,
        "9783": 11,
        "9784": 245,
        "9785": 88,
        "9786": 160,
        "9787": 130,
        "9788": 193,
        "9789": 180,
        "9790": 138,
        "9791": 96,
        "9792": 119,
        "9793": 168,
        "9794": 255,
        "9795": 147,
        "9796": 252,
        "9797": 211,
        "9798": 154,
        "9799": 135,
        "9800": 83,
        "9801": 226,
        "9802": 192,
        "9803": 122,
        "9804": 213,
        "9805": 1,
        "9806": 167,
        "9807": 134,
        "9808": 240,
        "9809": 191,
        "9810": 26,
        "9811": 87,
        "9812": 60,
        "9813": 134,
        "9814": 129,
        "9815": 29,
        "9816": 191,
        "9817": 219,
        "9818": 167,
        "9819": 4,
        "9820": 14,
        "9821": 253,
        "9822": 154,
        "9823": 23,
        "9824": 156,
        "9825": 63,
        "9826": 164,
        "9827": 119,
        "9828": 167,
        "9829": 68,
        "9830": 156,
        "9831": 48,
        "9832": 79,
        "9833": 166,
        "9834": 229,
        "9835": 104,
        "9836": 50,
        "9837": 102,
        "9838": 126,
        "9839": 180,
        "9840": 100,
        "9841": 142,
        "9842": 80,
        "9843": 203,
        "9844": 153,
        "9845": 65,
        "9846": 189,
        "9847": 191,
        "9848": 242,
        "9849": 239,
        "9850": 203,
        "9851": 187,
        "9852": 232,
        "9853": 20,
        "9854": 88,
        "9855": 160,
        "9856": 206,
        "9857": 2,
        "9858": 143,
        "9859": 26,
        "9860": 73,
        "9861": 220,
        "9862": 189,
        "9863": 27,
        "9864": 169,
        "9865": 184,
        "9866": 205,
        "9867": 159,
        "9868": 229,
        "9869": 152,
        "9870": 124,
        "9871": 113,
        "9872": 204,
        "9873": 155,
        "9874": 57,
        "9875": 191,
        "9876": 83,
        "9877": 243,
        "9878": 230,
        "9879": 116,
        "9880": 79,
        "9881": 155,
        "9882": 61,
        "9883": 101,
        "9884": 141,
        "9885": 69,
        "9886": 159,
        "9887": 114,
        "9888": 36,
        "9889": 149,
        "9890": 111,
        "9891": 194,
        "9892": 122,
        "9893": 159,
        "9894": 101,
        "9895": 233,
        "9896": 204,
        "9897": 112,
        "9898": 43,
        "9899": 92,
        "9900": 76,
        "9901": 94,
        "9902": 152,
        "9903": 197,
        "9904": 163,
        "9905": 163,
        "9906": 169,
        "9907": 51,
        "9908": 224,
        "9909": 20,
        "9910": 133,
        "9911": 133,
        "9912": 237,
        "9913": 136,
        "9914": 86,
        "9915": 188,
        "9916": 106,
        "9917": 74,
        "9918": 26,
        "9919": 237,
        "9920": 179,
        "9921": 190,
        "9922": 167,
        "9923": 186,
        "9924": 253,
        "9925": 211,
        "9926": 28,
        "9927": 28,
        "9928": 141,
        "9929": 81,
        "9930": 193,
        "9931": 147,
        "9932": 214,
        "9933": 3,
        "9934": 207,
        "9935": 110,
        "9936": 174,
        "9937": 33,
        "9938": 183,
        "9939": 97,
        "9940": 113,
        "9941": 168,
        "9942": 143,
        "9943": 59,
        "9944": 70,
        "9945": 2,
        "9946": 14,
        "9947": 171,
        "9948": 123,
        "9949": 40,
        "9950": 82,
        "9951": 253,
        "9952": 86,
        "9953": 4,
        "9954": 208,
        "9955": 102,
        "9956": 207,
        "9957": 49,
        "9958": 127,
        "9959": 95,
        "9960": 242,
        "9961": 29,
        "9962": 140,
        "9963": 173,
        "9964": 164,
        "9965": 19,
        "9966": 203,
        "9967": 123,
        "9968": 117,
        "9969": 172,
        "9970": 186,
        "9971": 102,
        "9972": 136,
        "9973": 210,
        "9974": 47,
        "9975": 142,
        "9976": 113,
        "9977": 31,
        "9978": 92,
        "9979": 139,
        "9980": 169,
        "9981": 238,
        "9982": 68,
        "9983": 44,
        "9984": 230,
        "9985": 189,
        "9986": 198,
        "9987": 191,
        "9988": 162,
        "9989": 38,
        "9990": 129,
        "9991": 34,
        "9992": 108,
        "9993": 56,
        "9994": 229,
        "9995": 10,
        "9996": 10,
        "9997": 132,
        "9998": 64,
        "9999": 208,
        "10000": 1,
        "10001": 160,
        "10002": 53,
        "10003": 10,
        "10004": 4,
        "10005": 194,
        "10006": 209,
        "10007": 56,
        "10008": 246,
        "10009": 89,
        "10010": 160,
        "10011": 166,
        "10012": 217,
        "10013": 210,
        "10014": 202,
        "10015": 58,
        "10016": 142,
        "10017": 102,
        "10018": 41,
        "10019": 242,
        "10020": 182,
        "10021": 72,
        "10022": 151,
        "10023": 143,
        "10024": 64,
        "10025": 188,
        "10026": 245,
        "10027": 220,
        "10028": 51,
        "10029": 148,
        "10030": 224,
        "10031": 42,
        "10032": 78,
        "10033": 166,
        "10034": 162,
        "10035": 64,
        "10036": 104,
        "10037": 45,
        "10038": 147,
        "10039": 122,
        "10040": 214,
        "10041": 122,
        "10042": 108,
        "10043": 142,
        "10044": 214,
        "10045": 166,
        "10046": 214,
        "10047": 106,
        "10048": 203,
        "10049": 167,
        "10050": 225,
        "10051": 248,
        "10052": 108,
        "10053": 227,
        "10054": 88,
        "10055": 184,
        "10056": 37,
        "10057": 106,
        "10058": 208,
        "10059": 185,
        "10060": 4,
        "10061": 54,
        "10062": 199,
        "10063": 72,
        "10064": 219,
        "10065": 49,
        "10066": 7,
        "10067": 114,
        "10068": 250,
        "10069": 202,
        "10070": 42,
        "10071": 89,
        "10072": 166,
        "10073": 18,
        "10074": 111,
        "10075": 149,
        "10076": 96,
        "10077": 228,
        "10078": 101,
        "10079": 69,
        "10080": 199,
        "10081": 68,
        "10082": 247,
        "10083": 227,
        "10084": 200,
        "10085": 251,
        "10086": 202,
        "10087": 61,
        "10088": 35,
        "10089": 67,
        "10090": 31,
        "10091": 36,
        "10092": 100,
        "10093": 18,
        "10094": 173,
        "10095": 211,
        "10096": 168,
        "10097": 197,
        "10098": 101,
        "10099": 254,
        "10100": 118,
        "10101": 198,
        "10102": 191,
        "10103": 100,
        "10104": 217,
        "10105": 218,
        "10106": 189,
        "10107": 151,
        "10108": 48,
        "10109": 107,
        "10110": 204,
        "10111": 141,
        "10112": 42,
        "10113": 159,
        "10114": 149,
        "10115": 57,
        "10116": 152,
        "10117": 7,
        "10118": 95,
        "10119": 64,
        "10120": 142,
        "10121": 80,
        "10122": 146,
        "10123": 72,
        "10124": 170,
        "10125": 132,
        "10126": 100,
        "10127": 161,
        "10128": 101,
        "10129": 43,
        "10130": 23,
        "10131": 223,
        "10132": 31,
        "10133": 207,
        "10134": 96,
        "10135": 47,
        "10136": 134,
        "10137": 226,
        "10138": 10,
        "10139": 98,
        "10140": 158,
        "10141": 136,
        "10142": 15,
        "10143": 7,
        "10144": 47,
        "10145": 55,
        "10146": 228,
        "10147": 245,
        "10148": 90,
        "10149": 20,
        "10150": 215,
        "10151": 0,
        "10152": 83,
        "10153": 3,
        "10154": 210,
        "10155": 94,
        "10156": 208,
        "10157": 43,
        "10158": 113,
        "10159": 54,
        "10160": 116,
        "10161": 74,
        "10162": 110,
        "10163": 237,
        "10164": 68,
        "10165": 104,
        "10166": 43,
        "10167": 82,
        "10168": 4,
        "10169": 20,
        "10170": 117,
        "10171": 150,
        "10172": 143,
        "10173": 38,
        "10174": 111,
        "10175": 9,
        "10176": 251,
        "10177": 67,
        "10178": 72,
        "10179": 231,
        "10180": 187,
        "10181": 238,
        "10182": 150,
        "10183": 242,
        "10184": 177,
        "10185": 148,
        "10186": 207,
        "10187": 164,
        "10188": 235,
        "10189": 66,
        "10190": 232,
        "10191": 255,
        "10192": 166,
        "10193": 221,
        "10194": 244,
        "10195": 144,
        "10196": 218,
        "10197": 229,
        "10198": 170,
        "10199": 41,
        "10200": 187,
        "10201": 87,
        "10202": 194,
        "10203": 43,
        "10204": 65,
        "10205": 104,
        "10206": 49,
        "10207": 84,
        "10208": 15,
        "10209": 103,
        "10210": 167,
        "10211": 45,
        "10212": 12,
        "10213": 66,
        "10214": 5,
        "10215": 202,
        "10216": 102,
        "10217": 69,
        "10218": 226,
        "10219": 103,
        "10220": 48,
        "10221": 186,
        "10222": 99,
        "10223": 141,
        "10224": 179,
        "10225": 144,
        "10226": 65,
        "10227": 186,
        "10228": 5,
        "10229": 221,
        "10230": 177,
        "10231": 46,
        "10232": 21,
        "10233": 36,
        "10234": 100,
        "10235": 222,
        "10236": 167,
        "10237": 35,
        "10238": 75,
        "10239": 246,
        "10240": 125,
        "10241": 190,
        "10242": 89,
        "10243": 15,
        "10244": 108,
        "10245": 74,
        "10246": 34,
        "10247": 183,
        "10248": 210,
        "10249": 128,
        "10250": 149,
        "10251": 101,
        "10252": 7,
        "10253": 35,
        "10254": 162,
        "10255": 193,
        "10256": 91,
        "10257": 211,
        "10258": 50,
        "10259": 30,
        "10260": 214,
        "10261": 169,
        "10262": 94,
        "10263": 236,
        "10264": 139,
        "10265": 177,
        "10266": 244,
        "10267": 210,
        "10268": 78,
        "10269": 200,
        "10270": 89,
        "10271": 203,
        "10272": 103,
        "10273": 184,
        "10274": 47,
        "10275": 132,
        "10276": 122,
        "10277": 75,
        "10278": 173,
        "10279": 147,
        "10280": 80,
        "10281": 80,
        "10282": 106,
        "10283": 230,
        "10284": 50,
        "10285": 97,
        "10286": 50,
        "10287": 230,
        "10288": 37,
        "10289": 154,
        "10290": 203,
        "10291": 103,
        "10292": 206,
        "10293": 167,
        "10294": 74,
        "10295": 180,
        "10296": 20,
        "10297": 183,
        "10298": 59,
        "10299": 109,
        "10300": 54,
        "10301": 60,
        "10302": 92,
        "10303": 204,
        "10304": 178,
        "10305": 236,
        "10306": 90,
        "10307": 243,
        "10308": 187,
        "10309": 86,
        "10310": 76,
        "10311": 62,
        "10312": 52,
        "10313": 142,
        "10314": 243,
        "10315": 192,
        "10316": 62,
        "10317": 6,
        "10318": 71,
        "10319": 184,
        "10320": 29,
        "10321": 100,
        "10322": 92,
        "10323": 60,
        "10324": 65,
        "10325": 219,
        "10326": 243,
        "10327": 118,
        "10328": 25,
        "10329": 34,
        "10330": 149,
        "10331": 115,
        "10332": 233,
        "10333": 145,
        "10334": 68,
        "10335": 65,
        "10336": 108,
        "10337": 190,
        "10338": 60,
        "10339": 171,
        "10340": 98,
        "10341": 162,
        "10342": 155,
        "10343": 120,
        "10344": 100,
        "10345": 76,
        "10346": 51,
        "10347": 16,
        "10348": 71,
        "10349": 19,
        "10350": 188,
        "10351": 79,
        "10352": 5,
        "10353": 197,
        "10354": 213,
        "10355": 86,
        "10356": 245,
        "10357": 110,
        "10358": 83,
        "10359": 60,
        "10360": 39,
        "10361": 124,
        "10362": 186,
        "10363": 199,
        "10364": 36,
        "10365": 64,
        "10366": 165,
        "10367": 13,
        "10368": 65,
        "10369": 117,
        "10370": 44,
        "10371": 136,
        "10372": 243,
        "10373": 17,
        "10374": 214,
        "10375": 158,
        "10376": 137,
        "10377": 202,
        "10378": 214,
        "10379": 15,
        "10380": 109,
        "10381": 5,
        "10382": 161,
        "10383": 93,
        "10384": 80,
        "10385": 251,
        "10386": 44,
        "10387": 60,
        "10388": 97,
        "10389": 197,
        "10390": 116,
        "10391": 229,
        "10392": 109,
        "10393": 233,
        "10394": 51,
        "10395": 142,
        "10396": 13,
        "10397": 6,
        "10398": 246,
        "10399": 217,
        "10400": 142,
        "10401": 160,
        "10402": 117,
        "10403": 170,
        "10404": 209,
        "10405": 211,
        "10406": 91,
        "10407": 100,
        "10408": 171,
        "10409": 79,
        "10410": 95,
        "10411": 84,
        "10412": 35,
        "10413": 142,
        "10414": 231,
        "10415": 131,
        "10416": 149,
        "10417": 189,
        "10418": 158,
        "10419": 5,
        "10420": 248,
        "10421": 230,
        "10422": 48,
        "10423": 252,
        "10424": 60,
        "10425": 113,
        "10426": 171,
        "10427": 159,
        "10428": 47,
        "10429": 201,
        "10430": 11,
        "10431": 243,
        "10432": 221,
        "10433": 19,
        "10434": 175,
        "10435": 149,
        "10436": 207,
        "10437": 124,
        "10438": 220,
        "10439": 73,
        "10440": 144,
        "10441": 187,
        "10442": 80,
        "10443": 175,
        "10444": 6,
        "10445": 181,
        "10446": 97,
        "10447": 197,
        "10448": 45,
        "10449": 16,
        "10450": 151,
        "10451": 69,
        "10452": 120,
        "10453": 188,
        "10454": 42,
        "10455": 209,
        "10456": 83,
        "10457": 7,
        "10458": 53,
        "10459": 65,
        "10460": 247,
        "10461": 65,
        "10462": 207,
        "10463": 95,
        "10464": 172,
        "10465": 9,
        "10466": 204,
        "10467": 139,
        "10468": 17,
        "10469": 184,
        "10470": 203,
        "10471": 86,
        "10472": 126,
        "10473": 208,
        "10474": 54,
        "10475": 163,
        "10476": 62,
        "10477": 20,
        "10478": 45,
        "10479": 83,
        "10480": 55,
        "10481": 2,
        "10482": 147,
        "10483": 211,
        "10484": 47,
        "10485": 178,
        "10486": 31,
        "10487": 127,
        "10488": 71,
        "10489": 138,
        "10490": 242,
        "10491": 24,
        "10492": 67,
        "10493": 147,
        "10494": 121,
        "10495": 9,
        "10496": 215,
        "10497": 77,
        "10498": 151,
        "10499": 195,
        "10500": 33,
        "10501": 215,
        "10502": 43,
        "10503": 15,
        "10504": 214,
        "10505": 222,
        "10506": 229,
        "10507": 56,
        "10508": 130,
        "10509": 206,
        "10510": 146,
        "10511": 113,
        "10512": 126,
        "10513": 87,
        "10514": 26,
        "10515": 225,
        "10516": 177,
        "10517": 190,
        "10518": 186,
        "10519": 145,
        "10520": 138,
        "10521": 186,
        "10522": 233,
        "10523": 162,
        "10524": 14,
        "10525": 85,
        "10526": 182,
        "10527": 207,
        "10528": 33,
        "10529": 197,
        "10530": 55,
        "10531": 230,
        "10532": 234,
        "10533": 39,
        "10534": 75,
        "10535": 204,
        "10536": 242,
        "10537": 204,
        "10538": 80,
        "10539": 18,
        "10540": 211,
        "10541": 76,
        "10542": 164,
        "10543": 223,
        "10544": 193,
        "10545": 159,
        "10546": 93,
        "10547": 48,
        "10548": 39,
        "10549": 77,
        "10550": 253,
        "10551": 253,
        "10552": 101,
        "10553": 181,
        "10554": 204,
        "10555": 33,
        "10556": 130,
        "10557": 118,
        "10558": 80,
        "10559": 125,
        "10560": 113,
        "10561": 7,
        "10562": 67,
        "10563": 0,
        "10564": 147,
        "10565": 215,
        "10566": 191,
        "10567": 185,
        "10568": 55,
        "10569": 156,
        "10570": 78,
        "10571": 136,
        "10572": 166,
        "10573": 95,
        "10574": 98,
        "10575": 222,
        "10576": 221,
        "10577": 163,
        "10578": 105,
        "10579": 126,
        "10580": 188,
        "10581": 253,
        "10582": 62,
        "10583": 131,
        "10584": 215,
        "10585": 131,
        "10586": 221,
        "10587": 241,
        "10588": 245,
        "10589": 185,
        "10590": 163,
        "10591": 129,
        "10592": 42,
        "10593": 108,
        "10594": 150,
        "10595": 144,
        "10596": 39,
        "10597": 198,
        "10598": 249,
        "10599": 121,
        "10600": 187,
        "10601": 99,
        "10602": 206,
        "10603": 34,
        "10604": 216,
        "10605": 188,
        "10606": 63,
        "10607": 213,
        "10608": 198,
        "10609": 198,
        "10610": 142,
        "10611": 217,
        "10612": 85,
        "10613": 152,
        "10614": 224,
        "10615": 173,
        "10616": 178,
        "10617": 167,
        "10618": 34,
        "10619": 181,
        "10620": 162,
        "10621": 8,
        "10622": 200,
        "10623": 223,
        "10624": 163,
        "10625": 55,
        "10626": 223,
        "10627": 238,
        "10628": 132,
        "10629": 212,
        "10630": 255,
        "10631": 147,
        "10632": 158,
        "10633": 240,
        "10634": 85,
        "10635": 169,
        "10636": 121,
        "10637": 49,
        "10638": 181,
        "10639": 2,
        "10640": 139,
        "10641": 36,
        "10642": 117,
        "10643": 133,
        "10644": 39,
        "10645": 228,
        "10646": 33,
        "10647": 131,
        "10648": 166,
        "10649": 225,
        "10650": 33,
        "10651": 75,
        "10652": 157,
        "10653": 226,
        "10654": 192,
        "10655": 130,
        "10656": 111,
        "10657": 66,
        "10658": 94,
        "10659": 226,
        "10660": 43,
        "10661": 101,
        "10662": 158,
        "10663": 32,
        "10664": 189,
        "10665": 69,
        "10666": 183,
        "10667": 37,
        "10668": 42,
        "10669": 77,
        "10670": 238,
        "10671": 27,
        "10672": 241,
        "10673": 103,
        "10674": 81,
        "10675": 91,
        "10676": 105,
        "10677": 250,
        "10678": 153,
        "10679": 56,
        "10680": 172,
        "10681": 14,
        "10682": 223,
        "10683": 69,
        "10684": 176,
        "10685": 98,
        "10686": 73,
        "10687": 31,
        "10688": 202,
        "10689": 78,
        "10690": 152,
        "10691": 10,
        "10692": 69,
        "10693": 127,
        "10694": 205,
        "10695": 74,
        "10696": 33,
        "10697": 243,
        "10698": 191,
        "10699": 148,
        "10700": 150,
        "10701": 175,
        "10702": 39,
        "10703": 8,
        "10704": 171,
        "10705": 192,
        "10706": 27,
        "10707": 57,
        "10708": 234,
        "10709": 81,
        "10710": 243,
        "10711": 117,
        "10712": 137,
        "10713": 69,
        "10714": 40,
        "10715": 255,
        "10716": 73,
        "10717": 44,
        "10718": 51,
        "10719": 235,
        "10720": 117,
        "10721": 39,
        "10722": 237,
        "10723": 12,
        "10724": 166,
        "10725": 242,
        "10726": 213,
        "10727": 37,
        "10728": 197,
        "10729": 224,
        "10730": 55,
        "10731": 65,
        "10732": 53,
        "10733": 45,
        "10734": 4,
        "10735": 46,
        "10736": 119,
        "10737": 65,
        "10738": 159,
        "10739": 82,
        "10740": 36,
        "10741": 0,
        "10742": 51,
        "10743": 60,
        "10744": 62,
        "10745": 129,
        "10746": 80,
        "10747": 245,
        "10748": 209,
        "10749": 131,
        "10750": 159,
        "10751": 158,
        "10752": 140,
        "10753": 112,
        "10754": 79,
        "10755": 55,
        "10756": 44,
        "10757": 126,
        "10758": 99,
        "10759": 244,
        "10760": 239,
        "10761": 32,
        "10762": 32,
        "10763": 180,
        "10764": 77,
        "10765": 164,
        "10766": 101,
        "10767": 156,
        "10768": 74,
        "10769": 53,
        "10770": 33,
        "10771": 12,
        "10772": 62,
        "10773": 38,
        "10774": 46,
        "10775": 194,
        "10776": 84,
        "10777": 252,
        "10778": 45,
        "10779": 53,
        "10780": 135,
        "10781": 150,
        "10782": 139,
        "10783": 230,
        "10784": 62,
        "10785": 70,
        "10786": 230,
        "10787": 36,
        "10788": 34,
        "10789": 164,
        "10790": 118,
        "10791": 16,
        "10792": 72,
        "10793": 219,
        "10794": 147,
        "10795": 63,
        "10796": 119,
        "10797": 126,
        "10798": 94,
        "10799": 32,
        "10800": 198,
        "10801": 251,
        "10802": 100,
        "10803": 230,
        "10804": 79,
        "10805": 101,
        "10806": 201,
        "10807": 159,
        "10808": 29,
        "10809": 146,
        "10810": 23,
        "10811": 180,
        "10812": 89,
        "10813": 43,
        "10814": 153,
        "10815": 218,
        "10816": 252,
        "10817": 157,
        "10818": 125,
        "10819": 223,
        "10820": 35,
        "10821": 188,
        "10822": 2,
        "10823": 110,
        "10824": 33,
        "10825": 88,
        "10826": 90,
        "10827": 137,
        "10828": 153,
        "10829": 58,
        "10830": 147,
        "10831": 81,
        "10832": 107,
        "10833": 92,
        "10834": 79,
        "10835": 140,
        "10836": 70,
        "10837": 184,
        "10838": 173,
        "10839": 176,
        "10840": 87,
        "10841": 86,
        "10842": 231,
        "10843": 213,
        "10844": 84,
        "10845": 44,
        "10846": 145,
        "10847": 113,
        "10848": 172,
        "10849": 180,
        "10850": 63,
        "10851": 81,
        "10852": 229,
        "10853": 177,
        "10854": 161,
        "10855": 188,
        "10856": 19,
        "10857": 104,
        "10858": 229,
        "10859": 190,
        "10860": 246,
        "10861": 98,
        "10862": 9,
        "10863": 146,
        "10864": 76,
        "10865": 20,
        "10866": 93,
        "10867": 101,
        "10868": 58,
        "10869": 15,
        "10870": 61,
        "10871": 249,
        "10872": 101,
        "10873": 58,
        "10874": 170,
        "10875": 104,
        "10876": 35,
        "10877": 18,
        "10878": 246,
        "10879": 239,
        "10880": 46,
        "10881": 126,
        "10882": 251,
        "10883": 115,
        "10884": 100,
        "10885": 58,
        "10886": 186,
        "10887": 167,
        "10888": 124,
        "10889": 28,
        "10890": 148,
        "10891": 205,
        "10892": 128,
        "10893": 116,
        "10894": 4,
        "10895": 105,
        "10896": 252,
        "10897": 137,
        "10898": 239,
        "10899": 68,
        "10900": 193,
        "10901": 101,
        "10902": 166,
        "10903": 61,
        "10904": 192,
        "10905": 103,
        "10906": 107,
        "10907": 192,
        "10908": 87,
        "10909": 131,
        "10910": 243,
        "10911": 73,
        "10912": 242,
        "10913": 85,
        "10914": 152,
        "10915": 24,
        "10916": 155,
        "10917": 251,
        "10918": 189,
        "10919": 214,
        "10920": 4,
        "10921": 13,
        "10922": 239,
        "10923": 35,
        "10924": 178,
        "10925": 164,
        "10926": 208,
        "10927": 122,
        "10928": 244,
        "10929": 238,
        "10930": 41,
        "10931": 31,
        "10932": 67,
        "10933": 12,
        "10934": 219,
        "10935": 61,
        "10936": 90,
        "10937": 158,
        "10938": 205,
        "10939": 24,
        "10940": 146,
        "10941": 8,
        "10942": 192,
        "10943": 160,
        "10944": 238,
        "10945": 60,
        "10946": 74,
        "10947": 80,
        "10948": 54,
        "10949": 64,
        "10950": 110,
        "10951": 100,
        "10952": 242,
        "10953": 100,
        "10954": 163,
        "10955": 160,
        "10956": 94,
        "10957": 25,
        "10958": 123,
        "10959": 117,
        "10960": 18,
        "10961": 198,
        "10962": 254,
        "10963": 231,
        "10964": 24,
        "10965": 29,
        "10966": 177,
        "10967": 115,
        "10968": 48,
        "10969": 157,
        "10970": 192,
        "10971": 36,
        "10972": 11,
        "10973": 79,
        "10974": 253,
        "10975": 93,
        "10976": 110,
        "10977": 173,
        "10978": 187,
        "10979": 127,
        "10980": 109,
        "10981": 96,
        "10982": 119,
        "10983": 243,
        "10984": 81,
        "10985": 247,
        "10986": 78,
        "10987": 33,
        "10988": 90,
        "10989": 190,
        "10990": 183,
        "10991": 67,
        "10992": 38,
        "10993": 71,
        "10994": 39,
        "10995": 237,
        "10996": 43,
        "10997": 152,
        "10998": 4,
        "10999": 157,
        "11000": 41,
        "11001": 210,
        "11002": 118,
        "11003": 174,
        "11004": 20,
        "11005": 163,
        "11006": 67,
        "11007": 210,
        "11008": 154,
        "11009": 172,
        "11010": 180,
        "11011": 70,
        "11012": 185,
        "11013": 89,
        "11014": 31,
        "11015": 90,
        "11016": 162,
        "11017": 45,
        "11018": 253,
        "11019": 120,
        "11020": 177,
        "11021": 147,
        "11022": 68,
        "11023": 132,
        "11024": 146,
        "11025": 228,
        "11026": 164,
        "11027": 51,
        "11028": 46,
        "11029": 154,
        "11030": 208,
        "11031": 221,
        "11032": 42,
        "11033": 61,
        "11034": 75,
        "11035": 61,
        "11036": 147,
        "11037": 244,
        "11038": 196,
        "11039": 242,
        "11040": 21,
        "11041": 213,
        "11042": 251,
        "11043": 39,
        "11044": 61,
        "11045": 0,
        "11046": 74,
        "11047": 239,
        "11048": 72,
        "11049": 227,
        "11050": 229,
        "11051": 67,
        "11052": 111,
        "11053": 238,
        "11054": 191,
        "11055": 73,
        "11056": 224,
        "11057": 144,
        "11058": 158,
        "11059": 142,
        "11060": 147,
        "11061": 250,
        "11062": 191,
        "11063": 43,
        "11064": 253,
        "11065": 90,
        "11066": 222,
        "11067": 86,
        "11068": 245,
        "11069": 112,
        "11070": 50,
        "11071": 97,
        "11072": 10,
        "11073": 71,
        "11074": 145,
        "11075": 136,
        "11076": 183,
        "11077": 194,
        "11078": 38,
        "11079": 227,
        "11080": 104,
        "11081": 228,
        "11082": 227,
        "11083": 105,
        "11084": 35,
        "11085": 183,
        "11086": 93,
        "11087": 96,
        "11088": 251,
        "11089": 183,
        "11090": 37,
        "11091": 126,
        "11092": 86,
        "11093": 38,
        "11094": 185,
        "11095": 124,
        "11096": 90,
        "11097": 32,
        "11098": 10,
        "11099": 40,
        "11100": 174,
        "11101": 54,
        "11102": 134,
        "11103": 76,
        "11104": 109,
        "11105": 137,
        "11106": 156,
        "11107": 65,
        "11108": 67,
        "11109": 211,
        "11110": 67,
        "11111": 60,
        "11112": 4,
        "11113": 148,
        "11114": 200,
        "11115": 67,
        "11116": 63,
        "11117": 212,
        "11118": 110,
        "11119": 219,
        "11120": 172,
        "11121": 184,
        "11122": 243,
        "11123": 147,
        "11124": 130,
        "11125": 208,
        "11126": 221,
        "11127": 2,
        "11128": 27,
        "11129": 198,
        "11130": 131,
        "11131": 214,
        "11132": 183,
        "11133": 214,
        "11134": 223,
        "11135": 196,
        "11136": 203,
        "11137": 139,
        "11138": 198,
        "11139": 98,
        "11140": 138,
        "11141": 35,
        "11142": 199,
        "11143": 35,
        "11144": 190,
        "11145": 135,
        "11146": 110,
        "11147": 48,
        "11148": 18,
        "11149": 15,
        "11150": 170,
        "11151": 240,
        "11152": 232,
        "11153": 244,
        "11154": 172,
        "11155": 103,
        "11156": 246,
        "11157": 120,
        "11158": 96,
        "11159": 127,
        "11160": 227,
        "11161": 231,
        "11162": 235,
        "11163": 200,
        "11164": 215,
        "11165": 40,
        "11166": 47,
        "11167": 20,
        "11168": 209,
        "11169": 149,
        "11170": 164,
        "11171": 153,
        "11172": 166,
        "11173": 63,
        "11174": 174,
        "11175": 91,
        "11176": 57,
        "11177": 139,
        "11178": 103,
        "11179": 17,
        "11180": 236,
        "11181": 94,
        "11182": 231,
        "11183": 167,
        "11184": 25,
        "11185": 21,
        "11186": 61,
        "11187": 74,
        "11188": 91,
        "11189": 115,
        "11190": 46,
        "11191": 240,
        "11192": 198,
        "11193": 30,
        "11194": 250,
        "11195": 58,
        "11196": 124,
        "11197": 19,
        "11198": 212,
        "11199": 232,
        "11200": 109,
        "11201": 197,
        "11202": 51,
        "11203": 203,
        "11204": 39,
        "11205": 68,
        "11206": 104,
        "11207": 192,
        "11208": 70,
        "11209": 180,
        "11210": 40,
        "11211": 249,
        "11212": 131,
        "11213": 128,
        "11214": 117,
        "11215": 125,
        "11216": 117,
        "11217": 223,
        "11218": 210,
        "11219": 192,
        "11220": 209,
        "11221": 4,
        "11222": 99,
        "11223": 96,
        "11224": 239,
        "11225": 10,
        "11226": 160,
        "11227": 78,
        "11228": 206,
        "11229": 192,
        "11230": 80,
        "11231": 23,
        "11232": 60,
        "11233": 132,
        "11234": 56,
        "11235": 192,
        "11236": 176,
        "11237": 146,
        "11238": 194,
        "11239": 211,
        "11240": 63,
        "11241": 47,
        "11242": 232,
        "11243": 9,
        "11244": 33,
        "11245": 160,
        "11246": 230,
        "11247": 42,
        "11248": 192,
        "11249": 167,
        "11250": 19,
        "11251": 167,
        "11252": 196,
        "11253": 18,
        "11254": 100,
        "11255": 150,
        "11256": 236,
        "11257": 254,
        "11258": 99,
        "11259": 81,
        "11260": 37,
        "11261": 63,
        "11262": 218,
        "11263": 216,
        "11264": 205,
        "11265": 210,
        "11266": 62,
        "11267": 58,
        "11268": 112,
        "11269": 194,
        "11270": 252,
        "11271": 148,
        "11272": 230,
        "11273": 91,
        "11274": 4,
        "11275": 134,
        "11276": 31,
        "11277": 48,
        "11278": 69,
        "11279": 172,
        "11280": 78,
        "11281": 131,
        "11282": 170,
        "11283": 137,
        "11284": 122,
        "11285": 100,
        "11286": 169,
        "11287": 85,
        "11288": 92,
        "11289": 61,
        "11290": 49,
        "11291": 56,
        "11292": 240,
        "11293": 174,
        "11294": 211,
        "11295": 13,
        "11296": 148,
        "11297": 101,
        "11298": 40,
        "11299": 155,
        "11300": 210,
        "11301": 191,
        "11302": 28,
        "11303": 180,
        "11304": 194,
        "11305": 248,
        "11306": 157,
        "11307": 9,
        "11308": 248,
        "11309": 37,
        "11310": 236,
        "11311": 86,
        "11312": 208,
        "11313": 232,
        "11314": 59,
        "11315": 172,
        "11316": 150,
        "11317": 187,
        "11318": 110,
        "11319": 173,
        "11320": 46,
        "11321": 42,
        "11322": 91,
        "11323": 253,
        "11324": 75,
        "11325": 99,
        "11326": 82,
        "11327": 198,
        "11328": 66,
        "11329": 151,
        "11330": 239,
        "11331": 150,
        "11332": 17,
        "11333": 102,
        "11334": 200,
        "11335": 153,
        "11336": 90,
        "11337": 8,
        "11338": 85,
        "11339": 184,
        "11340": 89,
        "11341": 172,
        "11342": 102,
        "11343": 184,
        "11344": 40,
        "11345": 16,
        "11346": 114,
        "11347": 225,
        "11348": 131,
        "11349": 209,
        "11350": 130,
        "11351": 169,
        "11352": 70,
        "11353": 112,
        "11354": 25,
        "11355": 109,
        "11356": 104,
        "11357": 15,
        "11358": 34,
        "11359": 85,
        "11360": 86,
        "11361": 206,
        "11362": 34,
        "11363": 153,
        "11364": 35,
        "11365": 134,
        "11366": 99,
        "11367": 140,
        "11368": 212,
        "11369": 36,
        "11370": 31,
        "11371": 123,
        "11372": 62,
        "11373": 49,
        "11374": 172,
        "11375": 240,
        "11376": 180,
        "11377": 56,
        "11378": 52,
        "11379": 24,
        "11380": 222,
        "11381": 79,
        "11382": 108,
        "11383": 148,
        "11384": 252,
        "11385": 134,
        "11386": 194,
        "11387": 66,
        "11388": 108,
        "11389": 224,
        "11390": 23,
        "11391": 114,
        "11392": 129,
        "11393": 198,
        "11394": 7,
        "11395": 241,
        "11396": 24,
        "11397": 85,
        "11398": 224,
        "11399": 46,
        "11400": 65,
        "11401": 83,
        "11402": 170,
        "11403": 27,
        "11404": 63,
        "11405": 116,
        "11406": 8,
        "11407": 33,
        "11408": 169,
        "11409": 54,
        "11410": 186,
        "11411": 244,
        "11412": 115,
        "11413": 84,
        "11414": 90,
        "11415": 38,
        "11416": 126,
        "11417": 27,
        "11418": 60,
        "11419": 82,
        "11420": 106,
        "11421": 197,
        "11422": 12,
        "11423": 94,
        "11424": 68,
        "11425": 250,
        "11426": 11,
        "11427": 52,
        "11428": 106,
        "11429": 206,
        "11430": 131,
        "11431": 241,
        "11432": 222,
        "11433": 122,
        "11434": 195,
        "11435": 117,
        "11436": 212,
        "11437": 57,
        "11438": 252,
        "11439": 229,
        "11440": 183,
        "11441": 59,
        "11442": 160,
        "11443": 56,
        "11444": 236,
        "11445": 252,
        "11446": 174,
        "11447": 50,
        "11448": 94,
        "11449": 240,
        "11450": 62,
        "11451": 183,
        "11452": 136,
        "11453": 11,
        "11454": 89,
        "11455": 44,
        "11456": 116,
        "11457": 31,
        "11458": 34,
        "11459": 3,
        "11460": 186,
        "11461": 63,
        "11462": 240,
        "11463": 136,
        "11464": 57,
        "11465": 10,
        "11466": 104,
        "11467": 112,
        "11468": 217,
        "11469": 20,
        "11470": 11,
        "11471": 190,
        "11472": 94,
        "11473": 13,
        "11474": 125,
        "11475": 114,
        "11476": 72,
        "11477": 61,
        "11478": 235,
        "11479": 26,
        "11480": 72,
        "11481": 122,
        "11482": 65,
        "11483": 164,
        "11484": 82,
        "11485": 100,
        "11486": 109,
        "11487": 213,
        "11488": 106,
        "11489": 165,
        "11490": 104,
        "11491": 210,
        "11492": 42,
        "11493": 159,
        "11494": 226,
        "11495": 9,
        "11496": 99,
        "11497": 152,
        "11498": 242,
        "11499": 72,
        "11500": 54,
        "11501": 131,
        "11502": 12,
        "11503": 156,
        "11504": 99,
        "11505": 31,
        "11506": 62,
        "11507": 118,
        "11508": 137,
        "11509": 211,
        "11510": 165,
        "11511": 176,
        "11512": 37,
        "11513": 171,
        "11514": 54,
        "11515": 148,
        "11516": 205,
        "11517": 61,
        "11518": 176,
        "11519": 184,
        "11520": 245,
        "11521": 149,
        "11522": 10,
        "11523": 51,
        "11524": 43,
        "11525": 106,
        "11526": 179,
        "11527": 143,
        "11528": 15,
        "11529": 58,
        "11530": 164,
        "11531": 154,
        "11532": 187,
        "11533": 198,
        "11534": 142,
        "11535": 45,
        "11536": 77,
        "11537": 192,
        "11538": 181,
        "11539": 205,
        "11540": 120,
        "11541": 65,
        "11542": 244,
        "11543": 176,
        "11544": 199,
        "11545": 176,
        "11546": 41,
        "11547": 135,
        "11548": 242,
        "11549": 66,
        "11550": 84,
        "11551": 149,
        "11552": 77,
        "11553": 55,
        "11554": 209,
        "11555": 104,
        "11556": 233,
        "11557": 101,
        "11558": 40,
        "11559": 112,
        "11560": 228,
        "11561": 217,
        "11562": 106,
        "11563": 42,
        "11564": 255,
        "11565": 244,
        "11566": 120,
        "11567": 12,
        "11568": 196,
        "11569": 244,
        "11570": 140,
        "11571": 59,
        "11572": 52,
        "11573": 173,
        "11574": 11,
        "11575": 104,
        "11576": 155,
        "11577": 93,
        "11578": 169,
        "11579": 45,
        "11580": 178,
        "11581": 186,
        "11582": 65,
        "11583": 245,
        "11584": 250,
        "11585": 223,
        "11586": 187,
        "11587": 191,
        "11588": 183,
        "11589": 152,
        "11590": 165,
        "11591": 86,
        "11592": 52,
        "11593": 4,
        "11594": 217,
        "11595": 93,
        "11596": 255,
        "11597": 193,
        "11598": 112,
        "11599": 96,
        "11600": 249,
        "11601": 246,
        "11602": 161,
        "11603": 170,
        "11604": 43,
        "11605": 52,
        "11606": 215,
        "11607": 85,
        "11608": 44,
        "11609": 119,
        "11610": 194,
        "11611": 246,
        "11612": 180,
        "11613": 19,
        "11614": 154,
        "11615": 119,
        "11616": 250,
        "11617": 220,
        "11618": 229,
        "11619": 161,
        "11620": 68,
        "11621": 14,
        "11622": 158,
        "11623": 160,
        "11624": 194,
        "11625": 99,
        "11626": 203,
        "11627": 219,
        "11628": 5,
        "11629": 39,
        "11630": 91,
        "11631": 183,
        "11632": 22,
        "11633": 83,
        "11634": 66,
        "11635": 8,
        "11636": 150,
        "11637": 231,
        "11638": 70,
        "11639": 84,
        "11640": 135,
        "11641": 103,
        "11642": 211,
        "11643": 122,
        "11644": 119,
        "11645": 142,
        "11646": 92,
        "11647": 68,
        "11648": 147,
        "11649": 133,
        "11650": 226,
        "11651": 45,
        "11652": 138,
        "11653": 101,
        "11654": 250,
        "11655": 251,
        "11656": 94,
        "11657": 84,
        "11658": 43,
        "11659": 17,
        "11660": 107,
        "11661": 137,
        "11662": 220,
        "11663": 51,
        "11664": 74,
        "11665": 235,
        "11666": 219,
        "11667": 91,
        "11668": 39,
        "11669": 43,
        "11670": 19,
        "11671": 252,
        "11672": 44,
        "11673": 107,
        "11674": 230,
        "11675": 247,
        "11676": 199,
        "11677": 27,
        "11678": 146,
        "11679": 50,
        "11680": 170,
        "11681": 27,
        "11682": 5,
        "11683": 104,
        "11684": 27,
        "11685": 202,
        "11686": 124,
        "11687": 29,
        "11688": 140,
        "11689": 201,
        "11690": 26,
        "11691": 102,
        "11692": 38,
        "11693": 45,
        "11694": 192,
        "11695": 75,
        "11696": 200,
        "11697": 92,
        "11698": 76,
        "11699": 143,
        "11700": 226,
        "11701": 191,
        "11702": 62,
        "11703": 96,
        "11704": 153,
        "11705": 118,
        "11706": 162,
        "11707": 145,
        "11708": 60,
        "11709": 9,
        "11710": 198,
        "11711": 227,
        "11712": 44,
        "11713": 49,
        "11714": 31,
        "11715": 68,
        "11716": 197,
        "11717": 233,
        "11718": 30,
        "11719": 45,
        "11720": 195,
        "11721": 33,
        "11722": 97,
        "11723": 241,
        "11724": 98,
        "11725": 186,
        "11726": 38,
        "11727": 23,
        "11728": 97,
        "11729": 141,
        "11730": 33,
        "11731": 65,
        "11732": 227,
        "11733": 175,
        "11734": 83,
        "11735": 184,
        "11736": 97,
        "11737": 188,
        "11738": 125,
        "11739": 165,
        "11740": 185,
        "11741": 249,
        "11742": 178,
        "11743": 141,
        "11744": 159,
        "11745": 188,
        "11746": 61,
        "11747": 56,
        "11748": 141,
        "11749": 135,
        "11750": 235,
        "11751": 186,
        "11752": 224,
        "11753": 94,
        "11754": 79,
        "11755": 5,
        "11756": 30,
        "11757": 49,
        "11758": 206,
        "11759": 100,
        "11760": 151,
        "11761": 74,
        "11762": 183,
        "11763": 86,
        "11764": 28,
        "11765": 72,
        "11766": 168,
        "11767": 81,
        "11768": 122,
        "11769": 90,
        "11770": 13,
        "11771": 144,
        "11772": 13,
        "11773": 160,
        "11774": 24,
        "11775": 86,
        "11776": 195,
        "11777": 27,
        "11778": 113,
        "11779": 139,
        "11780": 232,
        "11781": 3,
        "11782": 223,
        "11783": 242,
        "11784": 186,
        "11785": 183,
        "11786": 167,
        "11787": 27,
        "11788": 147,
        "11789": 87,
        "11790": 2,
        "11791": 221,
        "11792": 246,
        "11793": 192,
        "11794": 58,
        "11795": 10,
        "11796": 75,
        "11797": 247,
        "11798": 36,
        "11799": 160,
        "11800": 204,
        "11801": 165,
        "11802": 47,
        "11803": 125,
        "11804": 247,
        "11805": 137,
        "11806": 147,
        "11807": 100,
        "11808": 23,
        "11809": 151,
        "11810": 166,
        "11811": 24,
        "11812": 7,
        "11813": 186,
        "11814": 197,
        "11815": 51,
        "11816": 16,
        "11817": 160,
        "11818": 54,
        "11819": 74,
        "11820": 140,
        "11821": 63,
        "11822": 69,
        "11823": 109,
        "11824": 54,
        "11825": 5,
        "11826": 27,
        "11827": 95,
        "11828": 47,
        "11829": 84,
        "11830": 244,
        "11831": 69,
        "11832": 158,
        "11833": 192,
        "11834": 240,
        "11835": 186,
        "11836": 149,
        "11837": 63,
        "11838": 54,
        "11839": 129,
        "11840": 141,
        "11841": 138,
        "11842": 229,
        "11843": 5,
        "11844": 112,
        "11845": 58,
        "11846": 194,
        "11847": 138,
        "11848": 68,
        "11849": 88,
        "11850": 108,
        "11851": 25,
        "11852": 35,
        "11853": 212,
        "11854": 168,
        "11855": 83,
        "11856": 245,
        "11857": 82,
        "11858": 115,
        "11859": 41,
        "11860": 79,
        "11861": 98,
        "11862": 108,
        "11863": 87,
        "11864": 57,
        "11865": 31,
        "11866": 39,
        "11867": 127,
        "11868": 69,
        "11869": 160,
        "11870": 24,
        "11871": 174,
        "11872": 224,
        "11873": 219,
        "11874": 167,
        "11875": 210,
        "11876": 65,
        "11877": 227,
        "11878": 41,
        "11879": 10,
        "11880": 226,
        "11881": 211,
        "11882": 151,
        "11883": 1,
        "11884": 158,
        "11885": 187,
        "11886": 12,
        "11887": 12,
        "11888": 24,
        "11889": 74,
        "11890": 158,
        "11891": 204,
        "11892": 252,
        "11893": 173,
        "11894": 120,
        "11895": 233,
        "11896": 187,
        "11897": 44,
        "11898": 241,
        "11899": 102,
        "11900": 123,
        "11901": 135,
        "11902": 236,
        "11903": 104,
        "11904": 252,
        "11905": 182,
        "11906": 19,
        "11907": 108,
        "11908": 233,
        "11909": 219,
        "11910": 81,
        "11911": 79,
        "11912": 89,
        "11913": 44,
        "11914": 209,
        "11915": 182,
        "11916": 147,
        "11917": 112,
        "11918": 250,
        "11919": 206,
        "11920": 192,
        "11921": 73,
        "11922": 245,
        "11923": 40,
        "11924": 4,
        "11925": 251,
        "11926": 206,
        "11927": 23,
        "11928": 132,
        "11929": 235,
        "11930": 75,
        "11931": 230,
        "11932": 193,
        "11933": 180,
        "11934": 133,
        "11935": 227,
        "11936": 189,
        "11937": 103,
        "11938": 14,
        "11939": 71,
        "11940": 62,
        "11941": 111,
        "11942": 7,
        "11943": 139,
        "11944": 116,
        "11945": 158,
        "11946": 80,
        "11947": 38,
        "11948": 22,
        "11949": 192,
        "11950": 165,
        "11951": 32,
        "11952": 83,
        "11953": 103,
        "11954": 14,
        "11955": 16,
        "11956": 45,
        "11957": 60,
        "11958": 1,
        "11959": 110,
        "11960": 86,
        "11961": 126,
        "11962": 186,
        "11963": 222,
        "11964": 231,
        "11965": 173,
        "11966": 216,
        "11967": 82,
        "11968": 163,
        "11969": 209,
        "11970": 62,
        "11971": 7,
        "11972": 173,
        "11973": 42,
        "11974": 6,
        "11975": 236,
        "11976": 24,
        "11977": 191,
        "11978": 173,
        "11979": 114,
        "11980": 149,
        "11981": 131,
        "11982": 8,
        "11983": 110,
        "11984": 190,
        "11985": 39,
        "11986": 161,
        "11987": 92,
        "11988": 238,
        "11989": 88,
        "11990": 33,
        "11991": 70,
        "11992": 77,
        "11993": 65,
        "11994": 38,
        "11995": 125,
        "11996": 176,
        "11997": 139,
        "11998": 147,
        "11999": 118,
        "12000": 50,
        "12001": 231,
        "12002": 9,
        "12003": 11,
        "12004": 104,
        "12005": 61,
        "12006": 212,
        "12007": 118,
        "12008": 145,
        "12009": 124,
        "12010": 15,
        "12011": 74,
        "12012": 76,
        "12013": 227,
        "12014": 132,
        "12015": 216,
        "12016": 223,
        "12017": 31,
        "12018": 218,
        "12019": 133,
        "12020": 243,
        "12021": 134,
        "12022": 121,
        "12023": 133,
        "12024": 27,
        "12025": 22,
        "12026": 194,
        "12027": 184,
        "12028": 89,
        "12029": 16,
        "12030": 240,
        "12031": 126,
        "12032": 231,
        "12033": 1,
        "12034": 170,
        "12035": 150,
        "12036": 246,
        "12037": 22,
        "12038": 158,
        "12039": 221,
        "12040": 148,
        "12041": 252,
        "12042": 220,
        "12043": 243,
        "12044": 13,
        "12045": 118,
        "12046": 4,
        "12047": 95,
        "12048": 171,
        "12049": 124,
        "12050": 143,
        "12051": 67,
        "12052": 218,
        "12053": 67,
        "12054": 99,
        "12055": 214,
        "12056": 60,
        "12057": 148,
        "12058": 241,
        "12059": 192,
        "12060": 165,
        "12061": 225,
        "12062": 245,
        "12063": 193,
        "12064": 130,
        "12065": 125,
        "12066": 218,
        "12067": 89,
        "12068": 40,
        "12069": 26,
        "12070": 196,
        "12071": 239,
        "12072": 43,
        "12073": 237,
        "12074": 13,
        "12075": 220,
        "12076": 75,
        "12077": 182,
        "12078": 192,
        "12079": 205,
        "12080": 194,
        "12081": 209,
        "12082": 129,
        "12083": 138,
        "12084": 35,
        "12085": 31,
        "12086": 93,
        "12087": 30,
        "12088": 215,
        "12089": 209,
        "12090": 31,
        "12091": 140,
        "12092": 224,
        "12093": 140,
        "12094": 37,
        "12095": 70,
        "12096": 61,
        "12097": 67,
        "12098": 98,
        "12099": 138,
        "12100": 220,
        "12101": 96,
        "12102": 39,
        "12103": 250,
        "12104": 211,
        "12105": 60,
        "12106": 73,
        "12107": 243,
        "12108": 63,
        "12109": 127,
        "12110": 85,
        "12111": 20,
        "12112": 53,
        "12113": 173,
        "12114": 144,
        "12115": 34,
        "12116": 175,
        "12117": 53,
        "12118": 74,
        "12119": 17,
        "12120": 72,
        "12121": 226,
        "12122": 56,
        "12123": 222,
        "12124": 133,
        "12125": 38,
        "12126": 198,
        "12127": 190,
        "12128": 216,
        "12129": 138,
        "12130": 28,
        "12131": 104,
        "12132": 46,
        "12133": 217,
        "12134": 178,
        "12135": 135,
        "12136": 206,
        "12137": 64,
        "12138": 112,
        "12139": 174,
        "12140": 104,
        "12141": 54,
        "12142": 198,
        "12143": 67,
        "12144": 20,
        "12145": 35,
        "12146": 46,
        "12147": 16,
        "12148": 160,
        "12149": 36,
        "12150": 219,
        "12151": 101,
        "12152": 56,
        "12153": 236,
        "12154": 82,
        "12155": 233,
        "12156": 56,
        "12157": 60,
        "12158": 164,
        "12159": 201,
        "12160": 187,
        "12161": 186,
        "12162": 192,
        "12163": 137,
        "12164": 183,
        "12165": 255,
        "12166": 238,
        "12167": 159,
        "12168": 104,
        "12169": 106,
        "12170": 23,
        "12171": 207,
        "12172": 218,
        "12173": 136,
        "12174": 205,
        "12175": 63,
        "12176": 80,
        "12177": 129,
        "12178": 142,
        "12179": 228,
        "12180": 217,
        "12181": 17,
        "12182": 137,
        "12183": 203,
        "12184": 230,
        "12185": 9,
        "12186": 206,
        "12187": 152,
        "12188": 229,
        "12189": 166,
        "12190": 86,
        "12191": 59,
        "12192": 155,
        "12193": 188,
        "12194": 24,
        "12195": 37,
        "12196": 87,
        "12197": 23,
        "12198": 99,
        "12199": 75,
        "12200": 171,
        "12201": 85,
        "12202": 59,
        "12203": 128,
        "12204": 151,
        "12205": 184,
        "12206": 32,
        "12207": 106,
        "12208": 12,
        "12209": 59,
        "12210": 7,
        "12211": 150,
        "12212": 111,
        "12213": 128,
        "12214": 165,
        "12215": 32,
        "12216": 13,
        "12217": 105,
        "12218": 49,
        "12219": 240,
        "12220": 155,
        "12221": 89,
        "12222": 177,
        "12223": 112,
        "12224": 50,
        "12225": 32,
        "12226": 140,
        "12227": 192,
        "12228": 190,
        "12229": 67,
        "12230": 94,
        "12231": 52,
        "12232": 169,
        "12233": 217,
        "12234": 93,
        "12235": 91,
        "12236": 149,
        "12237": 40,
        "12238": 197,
        "12239": 74,
        "12240": 234,
        "12241": 35,
        "12242": 56,
        "12243": 84,
        "12244": 96,
        "12245": 111,
        "12246": 234,
        "12247": 20,
        "12248": 189,
        "12249": 200,
        "12250": 174,
        "12251": 213,
        "12252": 145,
        "12253": 231,
        "12254": 134,
        "12255": 107,
        "12256": 178,
        "12257": 68,
        "12258": 45,
        "12259": 67,
        "12260": 49,
        "12261": 188,
        "12262": 248,
        "12263": 9,
        "12264": 50,
        "12265": 22,
        "12266": 238,
        "12267": 74,
        "12268": 249,
        "12269": 207,
        "12270": 6,
        "12271": 114,
        "12272": 192,
        "12273": 141,
        "12274": 39,
        "12275": 63,
        "12276": 118,
        "12277": 132,
        "12278": 86,
        "12279": 97,
        "12280": 150,
        "12281": 166,
        "12282": 238,
        "12283": 188,
        "12284": 128,
        "12285": 188,
        "12286": 156,
        "12287": 75,
        "12288": 30,
        "12289": 182,
        "12290": 202,
        "12291": 187,
        "12292": 231,
        "12293": 250,
        "12294": 50,
        "12295": 15,
        "12296": 114,
        "12297": 45,
        "12298": 2,
        "12299": 228,
        "12300": 162,
        "12301": 217,
        "12302": 180,
        "12303": 69,
        "12304": 228,
        "12305": 150,
        "12306": 255,
        "12307": 99,
        "12308": 0,
        "12309": 31,
        "12310": 20,
        "12311": 43,
        "12312": 82,
        "12313": 238,
        "12314": 80,
        "12315": 180,
        "12316": 124,
        "12317": 218,
        "12318": 17,
        "12319": 39,
        "12320": 68,
        "12321": 161,
        "12322": 234,
        "12323": 109,
        "12324": 2,
        "12325": 70,
        "12326": 154,
        "12327": 92,
        "12328": 126,
        "12329": 120,
        "12330": 255,
        "12331": 96,
        "12332": 86,
        "12333": 130,
        "12334": 180,
        "12335": 158,
        "12336": 232,
        "12337": 227,
        "12338": 137,
        "12339": 205,
        "12340": 233,
        "12341": 215,
        "12342": 154,
        "12343": 167,
        "12344": 35,
        "12345": 117,
        "12346": 202,
        "12347": 114,
        "12348": 137,
        "12349": 16,
        "12350": 196,
        "12351": 46,
        "12352": 5,
        "12353": 117,
        "12354": 18,
        "12355": 43,
        "12356": 88,
        "12357": 203,
        "12358": 193,
        "12359": 160,
        "12360": 231,
        "12361": 153,
        "12362": 6,
        "12363": 234,
        "12364": 82,
        "12365": 233,
        "12366": 17,
        "12367": 130,
        "12368": 211,
        "12369": 147,
        "12370": 194,
        "12371": 137,
        "12372": 21,
        "12373": 57,
        "12374": 205,
        "12375": 208,
        "12376": 33,
        "12377": 49,
        "12378": 135,
        "12379": 163,
        "12380": 126,
        "12381": 102,
        "12382": 120,
        "12383": 135,
        "12384": 128,
        "12385": 162,
        "12386": 28,
        "12387": 115,
        "12388": 55,
        "12389": 63,
        "12390": 124,
        "12391": 206,
        "12392": 17,
        "12393": 116,
        "12394": 80,
        "12395": 90,
        "12396": 16,
        "12397": 50,
        "12398": 190,
        "12399": 200,
        "12400": 43,
        "12401": 214,
        "12402": 190,
        "12403": 152,
        "12404": 154,
        "12405": 144,
        "12406": 54,
        "12407": 187,
        "12408": 171,
        "12409": 156,
        "12410": 99,
        "12411": 253,
        "12412": 165,
        "12413": 141,
        "12414": 39,
        "12415": 95,
        "12416": 232,
        "12417": 59,
        "12418": 100,
        "12419": 86,
        "12420": 232,
        "12421": 150,
        "12422": 43,
        "12423": 248,
        "12424": 168,
        "12425": 98,
        "12426": 140,
        "12427": 85,
        "12428": 156,
        "12429": 116,
        "12430": 18,
        "12431": 18,
        "12432": 71,
        "12433": 118,
        "12434": 19,
        "12435": 29,
        "12436": 12,
        "12437": 219,
        "12438": 217,
        "12439": 97,
        "12440": 150,
        "12441": 205,
        "12442": 119,
        "12443": 207,
        "12444": 158,
        "12445": 237,
        "12446": 136,
        "12447": 40,
        "12448": 200,
        "12449": 142,
        "12450": 144,
        "12451": 41,
        "12452": 47,
        "12453": 56,
        "12454": 91,
        "12455": 24,
        "12456": 160,
        "12457": 159,
        "12458": 222,
        "12459": 162,
        "12460": 243,
        "12461": 193,
        "12462": 92,
        "12463": 136,
        "12464": 102,
        "12465": 45,
        "12466": 222,
        "12467": 13,
        "12468": 200,
        "12469": 128,
        "12470": 206,
        "12471": 18,
        "12472": 151,
        "12473": 23,
        "12474": 243,
        "12475": 45,
        "12476": 45,
        "12477": 67,
        "12478": 34,
        "12479": 59,
        "12480": 89,
        "12481": 149,
        "12482": 139,
        "12483": 87,
        "12484": 32,
        "12485": 111,
        "12486": 186,
        "12487": 211,
        "12488": 236,
        "12489": 126,
        "12490": 113,
        "12491": 85,
        "12492": 189,
        "12493": 207,
        "12494": 125,
        "12495": 29,
        "12496": 56,
        "12497": 227,
        "12498": 205,
        "12499": 225,
        "12500": 238,
        "12501": 59,
        "12502": 173,
        "12503": 10,
        "12504": 11,
        "12505": 73,
        "12506": 125,
        "12507": 23,
        "12508": 127,
        "12509": 28,
        "12510": 212,
        "12511": 77,
        "12512": 99,
        "12513": 131,
        "12514": 224,
        "12515": 27,
        "12516": 50,
        "12517": 188,
        "12518": 20,
        "12519": 104,
        "12520": 234,
        "12521": 174,
        "12522": 100,
        "12523": 33,
        "12524": 243,
        "12525": 117,
        "12526": 235,
        "12527": 173,
        "12528": 68,
        "12529": 101,
        "12530": 162,
        "12531": 5,
        "12532": 48,
        "12533": 19,
        "12534": 146,
        "12535": 211,
        "12536": 166,
        "12537": 15,
        "12538": 166,
        "12539": 192,
        "12540": 243,
        "12541": 126,
        "12542": 99,
        "12543": 171,
        "12544": 156,
        "12545": 181,
        "12546": 232,
        "12547": 186,
        "12548": 133,
        "12549": 137,
        "12550": 238,
        "12551": 32,
        "12552": 110,
        "12553": 121,
        "12554": 87,
        "12555": 209,
        "12556": 18,
        "12557": 165,
        "12558": 54,
        "12559": 200,
        "12560": 1,
        "12561": 198,
        "12562": 134,
        "12563": 232,
        "12564": 223,
        "12565": 227,
        "12566": 96,
        "12567": 186,
        "12568": 70,
        "12569": 8,
        "12570": 2,
        "12571": 155,
        "12572": 204,
        "12573": 188,
        "12574": 104,
        "12575": 2,
        "12576": 186,
        "12577": 1,
        "12578": 195,
        "12579": 185,
        "12580": 20,
        "12581": 63,
        "12582": 195,
        "12583": 199,
        "12584": 75,
        "12585": 96,
        "12586": 186,
        "12587": 80,
        "12588": 114,
        "12589": 16,
        "12590": 243,
        "12591": 127,
        "12592": 71,
        "12593": 240,
        "12594": 164,
        "12595": 56,
        "12596": 234,
        "12597": 62,
        "12598": 49,
        "12599": 87,
        "12600": 210,
        "12601": 25,
        "12602": 30,
        "12603": 25,
        "12604": 161,
        "12605": 42,
        "12606": 111,
        "12607": 238,
        "12608": 165,
        "12609": 84,
        "12610": 111,
        "12611": 65,
        "12612": 61,
        "12613": 150,
        "12614": 177,
        "12615": 211,
        "12616": 213,
        "12617": 161,
        "12618": 37,
        "12619": 136,
        "12620": 113,
        "12621": 73,
        "12622": 106,
        "12623": 226,
        "12624": 103,
        "12625": 118,
        "12626": 75,
        "12627": 59,
        "12628": 218,
        "12629": 88,
        "12630": 22,
        "12631": 242,
        "12632": 249,
        "12633": 161,
        "12634": 73,
        "12635": 179,
        "12636": 62,
        "12637": 5,
        "12638": 120,
        "12639": 216,
        "12640": 156,
        "12641": 238,
        "12642": 140,
        "12643": 149,
        "12644": 26,
        "12645": 196,
        "12646": 235,
        "12647": 23,
        "12648": 178,
        "12649": 54,
        "12650": 0,
        "12651": 221,
        "12652": 26,
        "12653": 244,
        "12654": 153,
        "12655": 132,
        "12656": 240,
        "12657": 113,
        "12658": 84,
        "12659": 212,
        "12660": 47,
        "12661": 173,
        "12662": 175,
        "12663": 210,
        "12664": 228,
        "12665": 70,
        "12666": 73,
        "12667": 160,
        "12668": 38,
        "12669": 192,
        "12670": 94,
        "12671": 101,
        "12672": 196,
        "12673": 169,
        "12674": 19,
        "12675": 220,
        "12676": 188,
        "12677": 136,
        "12678": 142,
        "12679": 8,
        "12680": 67,
        "12681": 225,
        "12682": 109,
        "12683": 2,
        "12684": 202,
        "12685": 66,
        "12686": 239,
        "12687": 74,
        "12688": 89,
        "12689": 55,
        "12690": 254,
        "12691": 93,
        "12692": 73,
        "12693": 231,
        "12694": 11,
        "12695": 87,
        "12696": 70,
        "12697": 145,
        "12698": 190,
        "12699": 239,
        "12700": 186,
        "12701": 197,
        "12702": 174,
        "12703": 198,
        "12704": 32,
        "12705": 200,
        "12706": 138,
        "12707": 90,
        "12708": 58,
        "12709": 10,
        "12710": 165,
        "12711": 206,
        "12712": 22,
        "12713": 252,
        "12714": 98,
        "12715": 9,
        "12716": 154,
        "12717": 95,
        "12718": 53,
        "12719": 38,
        "12720": 156,
        "12721": 30,
        "12722": 109,
        "12723": 215,
        "12724": 77,
        "12725": 0,
        "12726": 168,
        "12727": 20,
        "12728": 99,
        "12729": 86,
        "12730": 70,
        "12731": 45,
        "12732": 197,
        "12733": 251,
        "12734": 76,
        "12735": 161,
        "12736": 83,
        "12737": 74,
        "12738": 157,
        "12739": 202,
        "12740": 110,
        "12741": 161,
        "12742": 178,
        "12743": 87,
        "12744": 255,
        "12745": 23,
        "12746": 160,
        "12747": 62,
        "12748": 34,
        "12749": 72,
        "12750": 190,
        "12751": 84,
        "12752": 210,
        "12753": 141,
        "12754": 129,
        "12755": 85,
        "12756": 147,
        "12757": 2,
        "12758": 101,
        "12759": 9,
        "12760": 88,
        "12761": 16,
        "12762": 163,
        "12763": 243,
        "12764": 251,
        "12765": 25,
        "12766": 200,
        "12767": 119,
        "12768": 93,
        "12769": 159,
        "12770": 102,
        "12771": 216,
        "12772": 200,
        "12773": 50,
        "12774": 222,
        "12775": 158,
        "12776": 61,
        "12777": 150,
        "12778": 149,
        "12779": 201,
        "12780": 14,
        "12781": 199,
        "12782": 179,
        "12783": 13,
        "12784": 57,
        "12785": 52,
        "12786": 111,
        "12787": 44,
        "12788": 150,
        "12789": 61,
        "12790": 50,
        "12791": 77,
        "12792": 94,
        "12793": 182,
        "12794": 5,
        "12795": 106,
        "12796": 86,
        "12797": 193,
        "12798": 101,
        "12799": 255,
        "12800": 58,
        "12801": 162,
        "12802": 102,
        "12803": 130,
        "12804": 176,
        "12805": 130,
        "12806": 162,
        "12807": 242,
        "12808": 155,
        "12809": 218,
        "12810": 178,
        "12811": 51,
        "12812": 62,
        "12813": 244,
        "12814": 167,
        "12815": 0,
        "12816": 29,
        "12817": 176,
        "12818": 212,
        "12819": 128,
        "12820": 176,
        "12821": 241,
        "12822": 3,
        "12823": 247,
        "12824": 184,
        "12825": 109,
        "12826": 239,
        "12827": 176,
        "12828": 203,
        "12829": 156,
        "12830": 12,
        "12831": 251,
        "12832": 234,
        "12833": 61,
        "12834": 254,
        "12835": 221,
        "12836": 139,
        "12837": 188,
        "12838": 117,
        "12839": 238,
        "12840": 100,
        "12841": 199,
        "12842": 31,
        "12843": 181,
        "12844": 87,
        "12845": 121,
        "12846": 194,
        "12847": 159,
        "12848": 48,
        "12849": 27,
        "12850": 115,
        "12851": 177,
        "12852": 207,
        "12853": 228,
        "12854": 38,
        "12855": 55,
        "12856": 193,
        "12857": 239,
        "12858": 63,
        "12859": 16,
        "12860": 5,
        "12861": 101,
        "12862": 170,
        "12863": 40,
        "12864": 49,
        "12865": 107,
        "12866": 127,
        "12867": 181,
        "12868": 79,
        "12869": 0,
        "12870": 134,
        "12871": 38,
        "12872": 132,
        "12873": 47,
        "12874": 45,
        "12875": 196,
        "12876": 6,
        "12877": 144,
        "12878": 41,
        "12879": 6,
        "12880": 255,
        "12881": 36,
        "12882": 135,
        "12883": 244,
        "12884": 88,
        "12885": 183,
        "12886": 68,
        "12887": 93,
        "12888": 247,
        "12889": 165,
        "12890": 221,
        "12891": 179,
        "12892": 37,
        "12893": 161,
        "12894": 252,
        "12895": 153,
        "12896": 246,
        "12897": 94,
        "12898": 238,
        "12899": 32,
        "12900": 16,
        "12901": 43,
        "12902": 79,
        "12903": 10,
        "12904": 97,
        "12905": 60,
        "12906": 23,
        "12907": 189,
        "12908": 195,
        "12909": 246,
        "12910": 187,
        "12911": 6,
        "12912": 214,
        "12913": 69,
        "12914": 211,
        "12915": 227,
        "12916": 13,
        "12917": 56,
        "12918": 91,
        "12919": 156,
        "12920": 78,
        "12921": 53,
        "12922": 32,
        "12923": 241,
        "12924": 85,
        "12925": 54,
        "12926": 35,
        "12927": 132,
        "12928": 61,
        "12929": 130,
        "12930": 197,
        "12931": 159,
        "12932": 70,
        "12933": 55,
        "12934": 14,
        "12935": 129,
        "12936": 247,
        "12937": 72,
        "12938": 81,
        "12939": 154,
        "12940": 234,
        "12941": 92,
        "12942": 125,
        "12943": 144,
        "12944": 192,
        "12945": 110,
        "12946": 98,
        "12947": 11,
        "12948": 226,
        "12949": 93,
        "12950": 231,
        "12951": 161,
        "12952": 37,
        "12953": 65,
        "12954": 96,
        "12955": 8,
        "12956": 35,
        "12957": 186,
        "12958": 65,
        "12959": 139,
        "12960": 115,
        "12961": 184,
        "12962": 6,
        "12963": 195,
        "12964": 204,
        "12965": 165,
        "12966": 146,
        "12967": 52,
        "12968": 30,
        "12969": 208,
        "12970": 101,
        "12971": 230,
        "12972": 163,
        "12973": 230,
        "12974": 13,
        "12975": 16,
        "12976": 47,
        "12977": 92,
        "12978": 218,
        "12979": 172,
        "12980": 95,
        "12981": 147,
        "12982": 20,
        "12983": 200,
        "12984": 202,
        "12985": 87,
        "12986": 92,
        "12987": 212,
        "12988": 152,
        "12989": 197,
        "12990": 210,
        "12991": 46,
        "12992": 170,
        "12993": 69,
        "12994": 118,
        "12995": 189,
        "12996": 203,
        "12997": 118,
        "12998": 234,
        "12999": 255,
        "13000": 140,
        "13001": 168,
        "13002": 84,
        "13003": 161,
        "13004": 174,
        "13005": 224,
        "13006": 70,
        "13007": 113,
        "13008": 59,
        "13009": 170,
        "13010": 12,
        "13011": 238,
        "13012": 78,
        "13013": 18,
        "13014": 23,
        "13015": 105,
        "13016": 68,
        "13017": 114,
        "13018": 197,
        "13019": 210,
        "13020": 175,
        "13021": 100,
        "13022": 131,
        "13023": 93,
        "13024": 153,
        "13025": 253,
        "13026": 241,
        "13027": 85,
        "13028": 234,
        "13029": 225,
        "13030": 58,
        "13031": 158,
        "13032": 136,
        "13033": 248,
        "13034": 64,
        "13035": 129,
        "13036": 100,
        "13037": 149,
        "13038": 67,
        "13039": 126,
        "13040": 30,
        "13041": 104,
        "13042": 169,
        "13043": 173,
        "13044": 251,
        "13045": 62,
        "13046": 195,
        "13047": 162,
        "13048": 10,
        "13049": 83,
        "13050": 225,
        "13051": 3,
        "13052": 123,
        "13053": 66,
        "13054": 74,
        "13055": 9,
        "13056": 141,
        "13057": 237,
        "13058": 31,
        "13059": 42,
        "13060": 219,
        "13061": 237,
        "13062": 219,
        "13063": 82,
        "13064": 7,
        "13065": 211,
        "13066": 25,
        "13067": 100,
        "13068": 44,
        "13069": 35,
        "13070": 49,
        "13071": 24,
        "13072": 2,
        "13073": 114,
        "13074": 9,
        "13075": 18,
        "13076": 131,
        "13077": 164,
        "13078": 87,
        "13079": 101,
        "13080": 27,
        "13081": 59,
        "13082": 195,
        "13083": 49,
        "13084": 207,
        "13085": 99,
        "13086": 140,
        "13087": 1,
        "13088": 111,
        "13089": 229,
        "13090": 246,
        "13091": 247,
        "13092": 235,
        "13093": 13,
        "13094": 15,
        "13095": 204,
        "13096": 33,
        "13097": 110,
        "13098": 68,
        "13099": 109,
        "13100": 104,
        "13101": 61,
        "13102": 184,
        "13103": 82,
        "13104": 157,
        "13105": 15,
        "13106": 230,
        "13107": 255,
        "13108": 45,
        "13109": 93,
        "13110": 85,
        "13111": 11,
        "13112": 11,
        "13113": 26,
        "13114": 34,
        "13115": 15,
        "13116": 25,
        "13117": 19,
        "13118": 141,
        "13119": 26,
        "13120": 100,
        "13121": 254,
        "13122": 128,
        "13123": 198,
        "13124": 32,
        "13125": 119,
        "13126": 242,
        "13127": 105,
        "13128": 96,
        "13129": 67,
        "13130": 209,
        "13131": 89,
        "13132": 240,
        "13133": 108,
        "13134": 68,
        "13135": 71,
        "13136": 247,
        "13137": 199,
        "13138": 95,
        "13139": 47,
        "13140": 174,
        "13141": 138,
        "13142": 86,
        "13143": 255,
        "13144": 31,
        "13145": 220,
        "13146": 0,
        "13147": 217,
        "13148": 34,
        "13149": 116,
        "13150": 45,
        "13151": 226,
        "13152": 250,
        "13153": 141,
        "13154": 174,
        "13155": 20,
        "13156": 51,
        "13157": 105,
        "13158": 217,
        "13159": 23,
        "13160": 43,
        "13161": 31,
        "13162": 173,
        "13163": 241,
        "13164": 143,
        "13165": 226,
        "13166": 106,
        "13167": 179,
        "13168": 19,
        "13169": 90,
        "13170": 88,
        "13171": 54,
        "13172": 107,
        "13173": 104,
        "13174": 8,
        "13175": 236,
        "13176": 119,
        "13177": 23,
        "13178": 243,
        "13179": 1,
        "13180": 42,
        "13181": 131,
        "13182": 109,
        "13183": 148,
        "13184": 211,
        "13185": 143,
        "13186": 35,
        "13187": 234,
        "13188": 40,
        "13189": 247,
        "13190": 234,
        "13191": 176,
        "13192": 4,
        "13193": 65,
        "13194": 220,
        "13195": 198,
        "13196": 150,
        "13197": 31,
        "13198": 9,
        "13199": 82,
        "13200": 101,
        "13201": 135,
        "13202": 186,
        "13203": 220,
        "13204": 96,
        "13205": 19,
        "13206": 63,
        "13207": 17,
        "13208": 32,
        "13209": 32,
        "13210": 132,
        "13211": 79,
        "13212": 57,
        "13213": 109,
        "13214": 72,
        "13215": 165,
        "13216": 20,
        "13217": 160,
        "13218": 188,
        "13219": 65,
        "13220": 42,
        "13221": 99,
        "13222": 142,
        "13223": 238,
        "13224": 201,
        "13225": 94,
        "13226": 71,
        "13227": 16,
        "13228": 210,
        "13229": 7,
        "13230": 149,
        "13231": 92,
        "13232": 48,
        "13233": 0,
        "13234": 30,
        "13235": 114,
        "13236": 139,
        "13237": 102,
        "13238": 164,
        "13239": 42,
        "13240": 158,
        "13241": 199,
        "13242": 72,
        "13243": 237,
        "13244": 29,
        "13245": 231,
        "13246": 155,
        "13247": 8,
        "13248": 99,
        "13249": 210,
        "13250": 212,
        "13251": 54,
        "13252": 172,
        "13253": 173,
        "13254": 166,
        "13255": 161,
        "13256": 229,
        "13257": 137,
        "13258": 182,
        "13259": 224,
        "13260": 173,
        "13261": 84,
        "13262": 101,
        "13263": 93,
        "13264": 223,
        "13265": 52,
        "13266": 116,
        "13267": 132,
        "13268": 101,
        "13269": 110,
        "13270": 161,
        "13271": 144,
        "13272": 75,
        "13273": 91,
        "13274": 161,
        "13275": 17,
        "13276": 229,
        "13277": 82,
        "13278": 134,
        "13279": 171,
        "13280": 119,
        "13281": 113,
        "13282": 235,
        "13283": 38,
        "13284": 124,
        "13285": 46,
        "13286": 101,
        "13287": 74,
        "13288": 78,
        "13289": 108,
        "13290": 150,
        "13291": 17,
        "13292": 12,
        "13293": 104,
        "13294": 180,
        "13295": 46,
        "13296": 43,
        "13297": 122,
        "13298": 77,
        "13299": 66,
        "13300": 25,
        "13301": 248,
        "13302": 156,
        "13303": 246,
        "13304": 168,
        "13305": 221,
        "13306": 181,
        "13307": 174,
        "13308": 82,
        "13309": 121,
        "13310": 47,
        "13311": 51,
        "13312": 162,
        "13313": 83,
        "13314": 27,
        "13315": 82,
        "13316": 255,
        "13317": 101,
        "13318": 67,
        "13319": 160,
        "13320": 223,
        "13321": 195,
        "13322": 135,
        "13323": 113,
        "13324": 183,
        "13325": 121,
        "13326": 194,
        "13327": 217,
        "13328": 255,
        "13329": 121,
        "13330": 247,
        "13331": 245,
        "13332": 155,
        "13333": 129,
        "13334": 254,
        "13335": 221,
        "13336": 44,
        "13337": 161,
        "13338": 9,
        "13339": 194,
        "13340": 111,
        "13341": 108,
        "13342": 105,
        "13343": 8,
        "13344": 141,
        "13345": 94,
        "13346": 172,
        "13347": 116,
        "13348": 234,
        "13349": 113,
        "13350": 58,
        "13351": 240,
        "13352": 115,
        "13353": 63,
        "13354": 82,
        "13355": 197,
        "13356": 173,
        "13357": 172,
        "13358": 171,
        "13359": 89,
        "13360": 58,
        "13361": 105,
        "13362": 14,
        "13363": 101,
        "13364": 52,
        "13365": 224,
        "13366": 29,
        "13367": 9,
        "13368": 138,
        "13369": 90,
        "13370": 197,
        "13371": 142,
        "13372": 175,
        "13373": 218,
        "13374": 231,
        "13375": 85,
        "13376": 235,
        "13377": 132,
        "13378": 135,
        "13379": 126,
        "13380": 24,
        "13381": 150,
        "13382": 114,
        "13383": 118,
        "13384": 161,
        "13385": 57,
        "13386": 230,
        "13387": 179,
        "13388": 204,
        "13389": 217,
        "13390": 148,
        "13391": 192,
        "13392": 223,
        "13393": 120,
        "13394": 95,
        "13395": 236,
        "13396": 4,
        "13397": 69,
        "13398": 104,
        "13399": 148,
        "13400": 173,
        "13401": 110,
        "13402": 89,
        "13403": 32,
        "13404": 66,
        "13405": 188,
        "13406": 3,
        "13407": 168,
        "13408": 50,
        "13409": 48,
        "13410": 54,
        "13411": 235,
        "13412": 79,
        "13413": 252,
        "13414": 163,
        "13415": 115,
        "13416": 193,
        "13417": 189,
        "13418": 46,
        "13419": 80,
        "13420": 92,
        "13421": 203,
        "13422": 226,
        "13423": 83,
        "13424": 115,
        "13425": 127,
        "13426": 78,
        "13427": 173,
        "13428": 33,
        "13429": 174,
        "13430": 171,
        "13431": 179,
        "13432": 104,
        "13433": 127,
        "13434": 183,
        "13435": 50,
        "13436": 226,
        "13437": 16,
        "13438": 226,
        "13439": 105,
        "13440": 105,
        "13441": 247,
        "13442": 189,
        "13443": 234,
        "13444": 130,
        "13445": 125,
        "13446": 136,
        "13447": 183,
        "13448": 108,
        "13449": 99,
        "13450": 78,
        "13451": 14,
        "13452": 15,
        "13453": 166,
        "13454": 191,
        "13455": 151,
        "13456": 37,
        "13457": 130,
        "13458": 119,
        "13459": 152,
        "13460": 48,
        "13461": 47,
        "13462": 237,
        "13463": 46,
        "13464": 117,
        "13465": 249,
        "13466": 76,
        "13467": 75,
        "13468": 57,
        "13469": 122,
        "13470": 131,
        "13471": 75,
        "13472": 14,
        "13473": 134,
        "13474": 228,
        "13475": 157,
        "13476": 5,
        "13477": 123,
        "13478": 126,
        "13479": 183,
        "13480": 49,
        "13481": 111,
        "13482": 192,
        "13483": 69,
        "13484": 4,
        "13485": 196,
        "13486": 78,
        "13487": 54,
        "13488": 168,
        "13489": 111,
        "13490": 111,
        "13491": 246,
        "13492": 222,
        "13493": 44,
        "13494": 108,
        "13495": 241,
        "13496": 204,
        "13497": 48,
        "13498": 203,
        "13499": 109,
        "13500": 14,
        "13501": 28,
        "13502": 89,
        "13503": 222,
        "13504": 122,
        "13505": 183,
        "13506": 237,
        "13507": 115,
        "13508": 190,
        "13509": 125,
        "13510": 38,
        "13511": 191,
        "13512": 153,
        "13513": 6,
        "13514": 58,
        "13515": 205,
        "13516": 212,
        "13517": 161,
        "13518": 74,
        "13519": 73,
        "13520": 68,
        "13521": 157,
        "13522": 79,
        "13523": 125,
        "13524": 65,
        "13525": 5,
        "13526": 44,
        "13527": 247,
        "13528": 138,
        "13529": 126,
        "13530": 161,
        "13531": 24,
        "13532": 114,
        "13533": 201,
        "13534": 47,
        "13535": 192,
        "13536": 80,
        "13537": 245,
        "13538": 23,
        "13539": 94,
        "13540": 199,
        "13541": 175,
        "13542": 212,
        "13543": 149,
        "13544": 100,
        "13545": 48,
        "13546": 169,
        "13547": 131,
        "13548": 95,
        "13549": 244,
        "13550": 136,
        "13551": 217,
        "13552": 65,
        "13553": 148,
        "13554": 78,
        "13555": 240,
        "13556": 159,
        "13557": 13,
        "13558": 218,
        "13559": 181,
        "13560": 65,
        "13561": 225,
        "13562": 79,
        "13563": 92,
        "13564": 163,
        "13565": 186,
        "13566": 212,
        "13567": 173,
        "13568": 32,
        "13569": 171,
        "13570": 75,
        "13571": 204,
        "13572": 219,
        "13573": 124,
        "13574": 196,
        "13575": 179,
        "13576": 198,
        "13577": 27,
        "13578": 149,
        "13579": 98,
        "13580": 8,
        "13581": 175,
        "13582": 96,
        "13583": 188,
        "13584": 70,
        "13585": 208,
        "13586": 240,
        "13587": 143,
        "13588": 213,
        "13589": 28,
        "13590": 245,
        "13591": 115,
        "13592": 120,
        "13593": 158,
        "13594": 94,
        "13595": 112,
        "13596": 56,
        "13597": 117,
        "13598": 214,
        "13599": 73,
        "13600": 187,
        "13601": 142,
        "13602": 219,
        "13603": 27,
        "13604": 245,
        "13605": 238,
        "13606": 81,
        "13607": 156,
        "13608": 145,
        "13609": 164,
        "13610": 56,
        "13611": 106,
        "13612": 191,
        "13613": 58,
        "13614": 52,
        "13615": 35,
        "13616": 52,
        "13617": 19,
        "13618": 138,
        "13619": 180,
        "13620": 219,
        "13621": 55,
        "13622": 46,
        "13623": 133,
        "13624": 106,
        "13625": 250,
        "13626": 211,
        "13627": 15,
        "13628": 1,
        "13629": 120,
        "13630": 186,
        "13631": 161,
        "13632": 165,
        "13633": 58,
        "13634": 207,
        "13635": 253,
        "13636": 175,
        "13637": 241,
        "13638": 214,
        "13639": 241,
        "13640": 114,
        "13641": 150,
        "13642": 144,
        "13643": 65,
        "13644": 236,
        "13645": 108,
        "13646": 158,
        "13647": 56,
        "13648": 203,
        "13649": 39,
        "13650": 59,
        "13651": 175,
        "13652": 89,
        "13653": 93,
        "13654": 137,
        "13655": 249,
        "13656": 201,
        "13657": 28,
        "13658": 101,
        "13659": 53,
        "13660": 13,
        "13661": 33,
        "13662": 173,
        "13663": 72,
        "13664": 55,
        "13665": 16,
        "13666": 64,
        "13667": 158,
        "13668": 128,
        "13669": 17,
        "13670": 178,
        "13671": 164,
        "13672": 218,
        "13673": 16,
        "13674": 106,
        "13675": 33,
        "13676": 154,
        "13677": 149,
        "13678": 168,
        "13679": 170,
        "13680": 152,
        "13681": 76,
        "13682": 151,
        "13683": 254,
        "13684": 140,
        "13685": 159,
        "13686": 15,
        "13687": 173,
        "13688": 179,
        "13689": 70,
        "13690": 81,
        "13691": 3,
        "13692": 241,
        "13693": 84,
        "13694": 90,
        "13695": 87,
        "13696": 234,
        "13697": 206,
        "13698": 104,
        "13699": 143,
        "13700": 159,
        "13701": 222,
        "13702": 172,
        "13703": 54,
        "13704": 197,
        "13705": 166,
        "13706": 66,
        "13707": 244,
        "13708": 157,
        "13709": 160,
        "13710": 34,
        "13711": 226,
        "13712": 237,
        "13713": 221,
        "13714": 202,
        "13715": 226,
        "13716": 211,
        "13717": 186,
        "13718": 24,
        "13719": 193,
        "13720": 23,
        "13721": 155,
        "13722": 252,
        "13723": 83,
        "13724": 117,
        "13725": 147,
        "13726": 155,
        "13727": 163,
        "13728": 170,
        "13729": 10,
        "13730": 65,
        "13731": 88,
        "13732": 7,
        "13733": 87,
        "13734": 63,
        "13735": 111,
        "13736": 236,
        "13737": 2,
        "13738": 9,
        "13739": 178,
        "13740": 10,
        "13741": 52,
        "13742": 87,
        "13743": 5,
        "13744": 29,
        "13745": 251,
        "13746": 9,
        "13747": 229,
        "13748": 63,
        "13749": 207,
        "13750": 165,
        "13751": 34,
        "13752": 142,
        "13753": 102,
        "13754": 180,
        "13755": 1,
        "13756": 45,
        "13757": 228,
        "13758": 34,
        "13759": 102,
        "13760": 14,
        "13761": 171,
        "13762": 123,
        "13763": 127,
        "13764": 171,
        "13765": 26,
        "13766": 223,
        "13767": 45,
        "13768": 213,
        "13769": 175,
        "13770": 111,
        "13771": 220,
        "13772": 178,
        "13773": 127,
        "13774": 94,
        "13775": 159,
        "13776": 218,
        "13777": 27,
        "13778": 14,
        "13779": 132,
        "13780": 37,
        "13781": 36,
        "13782": 155,
        "13783": 128,
        "13784": 195,
        "13785": 167,
        "13786": 7,
        "13787": 132,
        "13788": 27,
        "13789": 214,
        "13790": 197,
        "13791": 225,
        "13792": 44,
        "13793": 179,
        "13794": 48,
        "13795": 143,
        "13796": 99,
        "13797": 248,
        "13798": 164,
        "13799": 184,
        "13800": 165,
        "13801": 99,
        "13802": 235,
        "13803": 39,
        "13804": 72,
        "13805": 227,
        "13806": 101,
        "13807": 155,
        "13808": 110,
        "13809": 95,
        "13810": 230,
        "13811": 216,
        "13812": 134,
        "13813": 151,
        "13814": 54,
        "13815": 207,
        "13816": 77,
        "13817": 131,
        "13818": 163,
        "13819": 197,
        "13820": 127,
        "13821": 45,
        "13822": 179,
        "13823": 58,
        "13824": 144,
        "13825": 178,
        "13826": 5,
        "13827": 242,
        "13828": 62,
        "13829": 244,
        "13830": 105,
        "13831": 161,
        "13832": 188,
        "13833": 73,
        "13834": 45,
        "13835": 46,
        "13836": 54,
        "13837": 35,
        "13838": 140,
        "13839": 207,
        "13840": 101,
        "13841": 79,
        "13842": 84,
        "13843": 147,
        "13844": 199,
        "13845": 63,
        "13846": 61,
        "13847": 66,
        "13848": 99,
        "13849": 72,
        "13850": 153,
        "13851": 36,
        "13852": 140,
        "13853": 252,
        "13854": 111,
        "13855": 154,
        "13856": 32,
        "13857": 237,
        "13858": 208,
        "13859": 122,
        "13860": 56,
        "13861": 205,
        "13862": 251,
        "13863": 66,
        "13864": 99,
        "13865": 235,
        "13866": 134,
        "13867": 54,
        "13868": 238,
        "13869": 18,
        "13870": 150,
        "13871": 26,
        "13872": 37,
        "13873": 251,
        "13874": 188,
        "13875": 94,
        "13876": 178,
        "13877": 45,
        "13878": 78,
        "13879": 115,
        "13880": 119,
        "13881": 2,
        "13882": 22,
        "13883": 158,
        "13884": 172,
        "13885": 183,
        "13886": 210,
        "13887": 246,
        "13888": 52,
        "13889": 243,
        "13890": 2,
        "13891": 167,
        "13892": 253,
        "13893": 192,
        "13894": 189,
        "13895": 182,
        "13896": 187,
        "13897": 242,
        "13898": 193,
        "13899": 166,
        "13900": 96,
        "13901": 170,
        "13902": 80,
        "13903": 243,
        "13904": 210,
        "13905": 162,
        "13906": 94,
        "13907": 16,
        "13908": 132,
        "13909": 225,
        "13910": 142,
        "13911": 176,
        "13912": 37,
        "13913": 138,
        "13914": 108,
        "13915": 181,
        "13916": 158,
        "13917": 36,
        "13918": 41,
        "13919": 159,
        "13920": 23,
        "13921": 3,
        "13922": 151,
        "13923": 232,
        "13924": 155,
        "13925": 48,
        "13926": 41,
        "13927": 119,
        "13928": 85,
        "13929": 199,
        "13930": 97,
        "13931": 139,
        "13932": 105,
        "13933": 70,
        "13934": 27,
        "13935": 87,
        "13936": 87,
        "13937": 157,
        "13938": 129,
        "13939": 95,
        "13940": 163,
        "13941": 179,
        "13942": 182,
        "13943": 209,
        "13944": 168,
        "13945": 134,
        "13946": 168,
        "13947": 237,
        "13948": 105,
        "13949": 21,
        "13950": 96,
        "13951": 172,
        "13952": 145,
        "13953": 122,
        "13954": 38,
        "13955": 197,
        "13956": 87,
        "13957": 135,
        "13958": 246,
        "13959": 116,
        "13960": 240,
        "13961": 161,
        "13962": 176,
        "13963": 216,
        "13964": 134,
        "13965": 245,
        "13966": 250,
        "13967": 251,
        "13968": 42,
        "13969": 146,
        "13970": 45,
        "13971": 31,
        "13972": 165,
        "13973": 233,
        "13974": 124,
        "13975": 11,
        "13976": 164,
        "13977": 82,
        "13978": 204,
        "13979": 45,
        "13980": 22,
        "13981": 197,
        "13982": 82,
        "13983": 190,
        "13984": 73,
        "13985": 249,
        "13986": 20,
        "13987": 169,
        "13988": 148,
        "13989": 165,
        "13990": 250,
        "13991": 210,
        "13992": 29,
        "13993": 229,
        "13994": 176,
        "13995": 197,
        "13996": 81,
        "13997": 191,
        "13998": 251,
        "13999": 25,
        "14000": 195,
        "14001": 119,
        "14002": 28,
        "14003": 60,
        "14004": 239,
        "14005": 111,
        "14006": 247,
        "14007": 116,
        "14008": 209,
        "14009": 49,
        "14010": 106,
        "14011": 36,
        "14012": 203,
        "14013": 4,
        "14014": 80,
        "14015": 7,
        "14016": 96,
        "14017": 154,
        "14018": 236,
        "14019": 251,
        "14020": 103,
        "14021": 154,
        "14022": 29,
        "14023": 230,
        "14024": 64,
        "14025": 247,
        "14026": 104,
        "14027": 107,
        "14028": 62,
        "14029": 31,
        "14030": 65,
        "14031": 43,
        "14032": 21,
        "14033": 157,
        "14034": 76,
        "14035": 69,
        "14036": 235,
        "14037": 48,
        "14038": 120,
        "14039": 169,
        "14040": 51,
        "14041": 125,
        "14042": 194,
        "14043": 224,
        "14044": 196,
        "14045": 10,
        "14046": 138,
        "14047": 197,
        "14048": 182,
        "14049": 56,
        "14050": 32,
        "14051": 127,
        "14052": 177,
        "14053": 20,
        "14054": 255,
        "14055": 73,
        "14056": 181,
        "14057": 152,
        "14058": 25,
        "14059": 135,
        "14060": 66,
        "14061": 44,
        "14062": 216,
        "14063": 135,
        "14064": 37,
        "14065": 126,
        "14066": 114,
        "14067": 62,
        "14068": 140,
        "14069": 76,
        "14070": 119,
        "14071": 75,
        "14072": 218,
        "14073": 6,
        "14074": 246,
        "14075": 158,
        "14076": 235,
        "14077": 246,
        "14078": 45,
        "14079": 139,
        "14080": 255,
        "14081": 79,
        "14082": 218,
        "14083": 35,
        "14084": 79,
        "14085": 185,
        "14086": 113,
        "14087": 228,
        "14088": 58,
        "14089": 248,
        "14090": 165,
        "14091": 34,
        "14092": 146,
        "14093": 231,
        "14094": 229,
        "14095": 162,
        "14096": 153,
        "14097": 46,
        "14098": 231,
        "14099": 142,
        "14100": 66,
        "14101": 174,
        "14102": 206,
        "14103": 169,
        "14104": 121,
        "14105": 81,
        "14106": 60,
        "14107": 51,
        "14108": 209,
        "14109": 61,
        "14110": 204,
        "14111": 14,
        "14112": 92,
        "14113": 91,
        "14114": 191,
        "14115": 14,
        "14116": 113,
        "14117": 42,
        "14118": 113,
        "14119": 195,
        "14120": 121,
        "14121": 123,
        "14122": 97,
        "14123": 79,
        "14124": 54,
        "14125": 126,
        "14126": 122,
        "14127": 69,
        "14128": 211,
        "14129": 76,
        "14130": 113,
        "14131": 46,
        "14132": 211,
        "14133": 111,
        "14134": 120,
        "14135": 234,
        "14136": 252,
        "14137": 44,
        "14138": 38,
        "14139": 26,
        "14140": 35,
        "14141": 119,
        "14142": 241,
        "14143": 195,
        "14144": 128,
        "14145": 108,
        "14146": 196,
        "14147": 181,
        "14148": 96,
        "14149": 11,
        "14150": 152,
        "14151": 240,
        "14152": 42,
        "14153": 37,
        "14154": 47,
        "14155": 211,
        "14156": 1,
        "14157": 103,
        "14158": 34,
        "14159": 87,
        "14160": 157,
        "14161": 213,
        "14162": 174,
        "14163": 51,
        "14164": 47,
        "14165": 153,
        "14166": 84,
        "14167": 133,
        "14168": 112,
        "14169": 107,
        "14170": 77,
        "14171": 218,
        "14172": 101,
        "14173": 35,
        "14174": 84,
        "14175": 82,
        "14176": 178,
        "14177": 211,
        "14178": 186,
        "14179": 120,
        "14180": 17,
        "14181": 39,
        "14182": 30,
        "14183": 181,
        "14184": 165,
        "14185": 236,
        "14186": 7,
        "14187": 65,
        "14188": 77,
        "14189": 80,
        "14190": 220,
        "14191": 12,
        "14192": 237,
        "14193": 6,
        "14194": 145,
        "14195": 248,
        "14196": 194,
        "14197": 105,
        "14198": 97,
        "14199": 154,
        "14200": 112,
        "14201": 92,
        "14202": 89,
        "14203": 156,
        "14204": 43,
        "14205": 215,
        "14206": 233,
        "14207": 78,
        "14208": 60,
        "14209": 92,
        "14210": 177,
        "14211": 196,
        "14212": 120,
        "14213": 102,
        "14214": 78,
        "14215": 82,
        "14216": 133,
        "14217": 103,
        "14218": 192,
        "14219": 70,
        "14220": 187,
        "14221": 110,
        "14222": 11,
        "14223": 189,
        "14224": 30,
        "14225": 255,
        "14226": 205,
        "14227": 90,
        "14228": 243,
        "14229": 159,
        "14230": 193,
        "14231": 16,
        "14232": 221,
        "14233": 228,
        "14234": 55,
        "14235": 184,
        "14236": 212,
        "14237": 24,
        "14238": 103,
        "14239": 112,
        "14240": 82,
        "14241": 243,
        "14242": 226,
        "14243": 213,
        "14244": 188,
        "14245": 243,
        "14246": 61,
        "14247": 61,
        "14248": 47,
        "14249": 81,
        "14250": 80,
        "14251": 112,
        "14252": 209,
        "14253": 118,
        "14254": 57,
        "14255": 11,
        "14256": 178,
        "14257": 86,
        "14258": 17,
        "14259": 217,
        "14260": 69,
        "14261": 21,
        "14262": 26,
        "14263": 64,
        "14264": 158,
        "14265": 138,
        "14266": 109,
        "14267": 147,
        "14268": 50,
        "14269": 178,
        "14270": 158,
        "14271": 118,
        "14272": 22,
        "14273": 38,
        "14274": 110,
        "14275": 24,
        "14276": 228,
        "14277": 141,
        "14278": 221,
        "14279": 80,
        "14280": 228,
        "14281": 226,
        "14282": 128,
        "14283": 52,
        "14284": 188,
        "14285": 34,
        "14286": 147,
        "14287": 96,
        "14288": 26,
        "14289": 76,
        "14290": 81,
        "14291": 173,
        "14292": 158,
        "14293": 110,
        "14294": 197,
        "14295": 114,
        "14296": 166,
        "14297": 185,
        "14298": 188,
        "14299": 168,
        "14300": 156,
        "14301": 192,
        "14302": 58,
        "14303": 67,
        "14304": 18,
        "14305": 108,
        "14306": 158,
        "14307": 165,
        "14308": 250,
        "14309": 239,
        "14310": 119,
        "14311": 60,
        "14312": 204,
        "14313": 152,
        "14314": 151,
        "14315": 12,
        "14316": 38,
        "14317": 233,
        "14318": 57,
        "14319": 161,
        "14320": 126,
        "14321": 152,
        "14322": 73,
        "14323": 180,
        "14324": 11,
        "14325": 8,
        "14326": 155,
        "14327": 247,
        "14328": 239,
        "14329": 154,
        "14330": 208,
        "14331": 96,
        "14332": 224,
        "14333": 55,
        "14334": 59,
        "14335": 66,
        "14336": 144,
        "14337": 116,
        "14338": 246,
        "14339": 73,
        "14340": 163,
        "14341": 98,
        "14342": 25,
        "14343": 29,
        "14344": 71,
        "14345": 178,
        "14346": 235,
        "14347": 4,
        "14348": 231,
        "14349": 72,
        "14350": 132,
        "14351": 178,
        "14352": 156,
        "14353": 195,
        "14354": 166,
        "14355": 243,
        "14356": 147,
        "14357": 230,
        "14358": 195,
        "14359": 109,
        "14360": 222,
        "14361": 106,
        "14362": 223,
        "14363": 11,
        "14364": 130,
        "14365": 55,
        "14366": 30,
        "14367": 9,
        "14368": 92,
        "14369": 95,
        "14370": 39,
        "14371": 40,
        "14372": 114,
        "14373": 154,
        "14374": 29,
        "14375": 90,
        "14376": 102,
        "14377": 190,
        "14378": 224,
        "14379": 54,
        "14380": 243,
        "14381": 122,
        "14382": 101,
        "14383": 154,
        "14384": 233,
        "14385": 69,
        "14386": 147,
        "14387": 40,
        "14388": 138,
        "14389": 19,
        "14390": 60,
        "14391": 133,
        "14392": 132,
        "14393": 221,
        "14394": 12,
        "14395": 78,
        "14396": 120,
        "14397": 146,
        "14398": 87,
        "14399": 56,
        "14400": 117,
        "14401": 130,
        "14402": 125,
        "14403": 205,
        "14404": 128,
        "14405": 41,
        "14406": 181,
        "14407": 48,
        "14408": 11,
        "14409": 20,
        "14410": 204,
        "14411": 163,
        "14412": 255,
        "14413": 232,
        "14414": 149,
        "14415": 65,
        "14416": 74,
        "14417": 68,
        "14418": 13,
        "14419": 154,
        "14420": 215,
        "14421": 187,
        "14422": 214,
        "14423": 233,
        "14424": 106,
        "14425": 121,
        "14426": 117,
        "14427": 126,
        "14428": 65,
        "14429": 6,
        "14430": 196,
        "14431": 251,
        "14432": 167,
        "14433": 117,
        "14434": 250,
        "14435": 146,
        "14436": 51,
        "14437": 224,
        "14438": 89,
        "14439": 70,
        "14440": 154,
        "14441": 162,
        "14442": 121,
        "14443": 183,
        "14444": 131,
        "14445": 142,
        "14446": 101,
        "14447": 90,
        "14448": 227,
        "14449": 230,
        "14450": 95,
        "14451": 29,
        "14452": 151,
        "14453": 96,
        "14454": 143,
        "14455": 212,
        "14456": 250,
        "14457": 41,
        "14458": 82,
        "14459": 154,
        "14460": 178,
        "14461": 15,
        "14462": 63,
        "14463": 91,
        "14464": 83,
        "14465": 152,
        "14466": 2,
        "14467": 29,
        "14468": 43,
        "14469": 125,
        "14470": 59,
        "14471": 141,
        "14472": 79,
        "14473": 44,
        "14474": 48,
        "14475": 68,
        "14476": 239,
        "14477": 139,
        "14478": 197,
        "14479": 254,
        "14480": 234,
        "14481": 104,
        "14482": 58,
        "14483": 111,
        "14484": 77,
        "14485": 61,
        "14486": 67,
        "14487": 74,
        "14488": 198,
        "14489": 8,
        "14490": 251,
        "14491": 253,
        "14492": 126,
        "14493": 248,
        "14494": 231,
        "14495": 96,
        "14496": 26,
        "14497": 146,
        "14498": 19,
        "14499": 142,
        "14500": 44,
        "14501": 13,
        "14502": 112,
        "14503": 193,
        "14504": 99,
        "14505": 141,
        "14506": 59,
        "14507": 255,
        "14508": 50,
        "14509": 101,
        "14510": 225,
        "14511": 101,
        "14512": 170,
        "14513": 213,
        "14514": 143,
        "14515": 46,
        "14516": 87,
        "14517": 127,
        "14518": 171,
        "14519": 55,
        "14520": 173,
        "14521": 60,
        "14522": 150,
        "14523": 241,
        "14524": 106,
        "14525": 196,
        "14526": 82,
        "14527": 69,
        "14528": 204,
        "14529": 166,
        "14530": 133,
        "14531": 142,
        "14532": 24,
        "14533": 241,
        "14534": 199,
        "14535": 146,
        "14536": 9,
        "14537": 161,
        "14538": 115,
        "14539": 243,
        "14540": 20,
        "14541": 139,
        "14542": 110,
        "14543": 175,
        "14544": 119,
        "14545": 104,
        "14546": 20,
        "14547": 106,
        "14548": 219,
        "14549": 215,
        "14550": 160,
        "14551": 72,
        "14552": 201,
        "14553": 174,
        "14554": 64,
        "14555": 221,
        "14556": 46,
        "14557": 10,
        "14558": 231,
        "14559": 213,
        "14560": 115,
        "14561": 106,
        "14562": 97,
        "14563": 234,
        "14564": 4,
        "14565": 29,
        "14566": 94,
        "14567": 128,
        "14568": 118,
        "14569": 120,
        "14570": 191,
        "14571": 91,
        "14572": 59,
        "14573": 117,
        "14574": 252,
        "14575": 111,
        "14576": 19,
        "14577": 188,
        "14578": 164,
        "14579": 11,
        "14580": 150,
        "14581": 17,
        "14582": 50,
        "14583": 113,
        "14584": 248,
        "14585": 99,
        "14586": 229,
        "14587": 161,
        "14588": 211,
        "14589": 40,
        "14590": 149,
        "14591": 67,
        "14592": 224,
        "14593": 138,
        "14594": 216,
        "14595": 60,
        "14596": 2,
        "14597": 142,
        "14598": 151,
        "14599": 87,
        "14600": 129,
        "14601": 194,
        "14602": 155,
        "14603": 210,
        "14604": 15,
        "14605": 240,
        "14606": 239,
        "14607": 139,
        "14608": 109,
        "14609": 246,
        "14610": 40,
        "14611": 58,
        "14612": 63,
        "14613": 86,
        "14614": 162,
        "14615": 238,
        "14616": 54,
        "14617": 150,
        "14618": 115,
        "14619": 238,
        "14620": 47,
        "14621": 92,
        "14622": 188,
        "14623": 71,
        "14624": 67,
        "14625": 218,
        "14626": 84,
        "14627": 168,
        "14628": 168,
        "14629": 51,
        "14630": 137,
        "14631": 63,
        "14632": 178,
        "14633": 44,
        "14634": 187,
        "14635": 6,
        "14636": 160,
        "14637": 203,
        "14638": 45,
        "14639": 197,
        "14640": 11,
        "14641": 101,
        "14642": 158,
        "14643": 17,
        "14644": 101,
        "14645": 243,
        "14646": 206,
        "14647": 75,
        "14648": 252,
        "14649": 185,
        "14650": 250,
        "14651": 109,
        "14652": 160,
        "14653": 46,
        "14654": 86,
        "14655": 186,
        "14656": 100,
        "14657": 212,
        "14658": 254,
        "14659": 184,
        "14660": 91,
        "14661": 195,
        "14662": 11,
        "14663": 147,
        "14664": 240,
        "14665": 45,
        "14666": 78,
        "14667": 11,
        "14668": 229,
        "14669": 190,
        "14670": 149,
        "14671": 163,
        "14672": 181,
        "14673": 153,
        "14674": 89,
        "14675": 55,
        "14676": 8,
        "14677": 186,
        "14678": 177,
        "14679": 254,
        "14680": 21,
        "14681": 132,
        "14682": 116,
        "14683": 48,
        "14684": 43,
        "14685": 117,
        "14686": 178,
        "14687": 91,
        "14688": 204,
        "14689": 15,
        "14690": 150,
        "14691": 102,
        "14692": 238,
        "14693": 136,
        "14694": 166,
        "14695": 136,
        "14696": 179,
        "14697": 193,
        "14698": 23,
        "14699": 66,
        "14700": 140,
        "14701": 63,
        "14702": 122,
        "14703": 14,
        "14704": 38,
        "14705": 14,
        "14706": 214,
        "14707": 7,
        "14708": 95,
        "14709": 22,
        "14710": 5,
        "14711": 79,
        "14712": 128,
        "14713": 65,
        "14714": 245,
        "14715": 190,
        "14716": 124,
        "14717": 87,
        "14718": 105,
        "14719": 176,
        "14720": 238,
        "14721": 91,
        "14722": 68,
        "14723": 212,
        "14724": 170,
        "14725": 220,
        "14726": 23,
        "14727": 39,
        "14728": 231,
        "14729": 179,
        "14730": 249,
        "14731": 7,
        "14732": 55,
        "14733": 54,
        "14734": 200,
        "14735": 67,
        "14736": 12,
        "14737": 152,
        "14738": 92,
        "14739": 168,
        "14740": 180,
        "14741": 163,
        "14742": 220,
        "14743": 72,
        "14744": 78,
        "14745": 84,
        "14746": 9,
        "14747": 106,
        "14748": 148,
        "14749": 43,
        "14750": 123,
        "14751": 135,
        "14752": 141,
        "14753": 79,
        "14754": 104,
        "14755": 126,
        "14756": 246,
        "14757": 50,
        "14758": 171,
        "14759": 225,
        "14760": 254,
        "14761": 6,
        "14762": 69,
        "14763": 91,
        "14764": 155,
        "14765": 128,
        "14766": 52,
        "14767": 244,
        "14768": 63,
        "14769": 206,
        "14770": 208,
        "14771": 190,
        "14772": 86,
        "14773": 116,
        "14774": 82,
        "14775": 108,
        "14776": 74,
        "14777": 136,
        "14778": 230,
        "14779": 216,
        "14780": 130,
        "14781": 116,
        "14782": 5,
        "14783": 221,
        "14784": 56,
        "14785": 58,
        "14786": 103,
        "14787": 161,
        "14788": 164,
        "14789": 19,
        "14790": 255,
        "14791": 22,
        "14792": 239,
        "14793": 68,
        "14794": 229,
        "14795": 122,
        "14796": 244,
        "14797": 48,
        "14798": 27,
        "14799": 212,
        "14800": 47,
        "14801": 200,
        "14802": 135,
        "14803": 140,
        "14804": 240,
        "14805": 44,
        "14806": 136,
        "14807": 49,
        "14808": 71,
        "14809": 255,
        "14810": 167,
        "14811": 228,
        "14812": 16,
        "14813": 39,
        "14814": 171,
        "14815": 207,
        "14816": 131,
        "14817": 149,
        "14818": 56,
        "14819": 153,
        "14820": 240,
        "14821": 80,
        "14822": 51,
        "14823": 85,
        "14824": 185,
        "14825": 34,
        "14826": 214,
        "14827": 208,
        "14828": 244,
        "14829": 44,
        "14830": 194,
        "14831": 244,
        "14832": 70,
        "14833": 70,
        "14834": 95,
        "14835": 20,
        "14836": 180,
        "14837": 69,
        "14838": 250,
        "14839": 90,
        "14840": 73,
        "14841": 52,
        "14842": 125,
        "14843": 199,
        "14844": 227,
        "14845": 179,
        "14846": 217,
        "14847": 184,
        "14848": 13,
        "14849": 105,
        "14850": 64,
        "14851": 34,
        "14852": 140,
        "14853": 35,
        "14854": 106,
        "14855": 149,
        "14856": 254,
        "14857": 187,
        "14858": 16,
        "14859": 70,
        "14860": 232,
        "14861": 42,
        "14862": 148,
        "14863": 212,
        "14864": 113,
        "14865": 130,
        "14866": 50,
        "14867": 204,
        "14868": 236,
        "14869": 46,
        "14870": 105,
        "14871": 20,
        "14872": 232,
        "14873": 151,
        "14874": 9,
        "14875": 115,
        "14876": 84,
        "14877": 215,
        "14878": 173,
        "14879": 147,
        "14880": 123,
        "14881": 169,
        "14882": 3,
        "14883": 152,
        "14884": 236,
        "14885": 135,
        "14886": 67,
        "14887": 74,
        "14888": 98,
        "14889": 49,
        "14890": 140,
        "14891": 138,
        "14892": 139,
        "14893": 156,
        "14894": 94,
        "14895": 149,
        "14896": 199,
        "14897": 118,
        "14898": 202,
        "14899": 88,
        "14900": 24,
        "14901": 167,
        "14902": 125,
        "14903": 127,
        "14904": 45,
        "14905": 241,
        "14906": 144,
        "14907": 17,
        "14908": 154,
        "14909": 182,
        "14910": 54,
        "14911": 169,
        "14912": 129,
        "14913": 18,
        "14914": 206,
        "14915": 23,
        "14916": 207,
        "14917": 141,
        "14918": 101,
        "14919": 74,
        "14920": 249,
        "14921": 16,
        "14922": 47,
        "14923": 72,
        "14924": 150,
        "14925": 244,
        "14926": 140,
        "14927": 35,
        "14928": 139,
        "14929": 222,
        "14930": 31,
        "14931": 80,
        "14932": 159,
        "14933": 117,
        "14934": 24,
        "14935": 10,
        "14936": 42,
        "14937": 210,
        "14938": 127,
        "14939": 7,
        "14940": 60,
        "14941": 65,
        "14942": 169,
        "14943": 64,
        "14944": 90,
        "14945": 242,
        "14946": 207,
        "14947": 57,
        "14948": 224,
        "14949": 127,
        "14950": 169,
        "14951": 10,
        "14952": 39,
        "14953": 181,
        "14954": 10,
        "14955": 70,
        "14956": 50,
        "14957": 242,
        "14958": 208,
        "14959": 2,
        "14960": 77,
        "14961": 251,
        "14962": 192,
        "14963": 22,
        "14964": 124,
        "14965": 189,
        "14966": 245,
        "14967": 114,
        "14968": 93,
        "14969": 86,
        "14970": 207,
        "14971": 17,
        "14972": 40,
        "14973": 1,
        "14974": 120,
        "14975": 190,
        "14976": 111,
        "14977": 128,
        "14978": 4,
        "14979": 64,
        "14980": 69,
        "14981": 131,
        "14982": 1,
        "14983": 7,
        "14984": 230,
        "14985": 151,
        "14986": 14,
        "14987": 53,
        "14988": 5,
        "14989": 43,
        "14990": 221,
        "14991": 132,
        "14992": 69,
        "14993": 53,
        "14994": 232,
        "14995": 100,
        "14996": 51,
        "14997": 214,
        "14998": 3,
        "14999": 147,
        "15000": 127,
        "15001": 219,
        "15002": 168,
        "15003": 84,
        "15004": 114,
        "15005": 152,
        "15006": 192,
        "15007": 155,
        "15008": 82,
        "15009": 48,
        "15010": 118,
        "15011": 252,
        "15012": 163,
        "15013": 126,
        "15014": 238,
        "15015": 174,
        "15016": 126,
        "15017": 186,
        "15018": 105,
        "15019": 103,
        "15020": 24,
        "15021": 58,
        "15022": 3,
        "15023": 166,
        "15024": 79,
        "15025": 112,
        "15026": 223,
        "15027": 88,
        "15028": 41,
        "15029": 15,
        "15030": 59,
        "15031": 111,
        "15032": 92,
        "15033": 238,
        "15034": 119,
        "15035": 94,
        "15036": 58,
        "15037": 176,
        "15038": 230,
        "15039": 11,
        "15040": 248,
        "15041": 201,
        "15042": 181,
        "15043": 200,
        "15044": 79,
        "15045": 39,
        "15046": 76,
        "15047": 81,
        "15048": 236,
        "15049": 71,
        "15050": 83,
        "15051": 102,
        "15052": 9,
        "15053": 137,
        "15054": 164,
        "15055": 205,
        "15056": 252,
        "15057": 182,
        "15058": 65,
        "15059": 96,
        "15060": 89,
        "15061": 163,
        "15062": 134,
        "15063": 73,
        "15064": 189,
        "15065": 162,
        "15066": 171,
        "15067": 96,
        "15068": 24,
        "15069": 148,
        "15070": 196,
        "15071": 253,
        "15072": 226,
        "15073": 246,
        "15074": 16,
        "15075": 140,
        "15076": 130,
        "15077": 14,
        "15078": 118,
        "15079": 168,
        "15080": 188,
        "15081": 104,
        "15082": 73,
        "15083": 139,
        "15084": 201,
        "15085": 18,
        "15086": 246,
        "15087": 100,
        "15088": 11,
        "15089": 248,
        "15090": 85,
        "15091": 220,
        "15092": 99,
        "15093": 30,
        "15094": 181,
        "15095": 218,
        "15096": 187,
        "15097": 244,
        "15098": 67,
        "15099": 175,
        "15100": 145,
        "15101": 15,
        "15102": 246,
        "15103": 4,
        "15104": 81,
        "15105": 113,
        "15106": 248,
        "15107": 235,
        "15108": 217,
        "15109": 47,
        "15110": 0,
        "15111": 69,
        "15112": 200,
        "15113": 218,
        "15114": 83,
        "15115": 68,
        "15116": 146,
        "15117": 36,
        "15118": 173,
        "15119": 69,
        "15120": 67,
        "15121": 215,
        "15122": 137,
        "15123": 255,
        "15124": 142,
        "15125": 203,
        "15126": 235,
        "15127": 158,
        "15128": 223,
        "15129": 69,
        "15130": 78,
        "15131": 80,
        "15132": 19,
        "15133": 192,
        "15134": 123,
        "15135": 107,
        "15136": 155,
        "15137": 39,
        "15138": 88,
        "15139": 31,
        "15140": 206,
        "15141": 220,
        "15142": 128,
        "15143": 166,
        "15144": 69,
        "15145": 109,
        "15146": 180,
        "15147": 180,
        "15148": 203,
        "15149": 70,
        "15150": 53,
        "15151": 201,
        "15152": 51,
        "15153": 91,
        "15154": 208,
        "15155": 178,
        "15156": 221,
        "15157": 171,
        "15158": 214,
        "15159": 230,
        "15160": 61,
        "15161": 132,
        "15162": 45,
        "15163": 43,
        "15164": 98,
        "15165": 3,
        "15166": 176,
        "15167": 38,
        "15168": 249,
        "15169": 33,
        "15170": 228,
        "15171": 68,
        "15172": 215,
        "15173": 1,
        "15174": 171,
        "15175": 225,
        "15176": 250,
        "15177": 227,
        "15178": 249,
        "15179": 16,
        "15180": 112,
        "15181": 89,
        "15182": 205,
        "15183": 113,
        "15184": 139,
        "15185": 140,
        "15186": 32,
        "15187": 199,
        "15188": 216,
        "15189": 230,
        "15190": 2,
        "15191": 203,
        "15192": 254,
        "15193": 203,
        "15194": 246,
        "15195": 183,
        "15196": 81,
        "15197": 242,
        "15198": 130,
        "15199": 143,
        "15200": 112,
        "15201": 144,
        "15202": 38,
        "15203": 7,
        "15204": 60,
        "15205": 100,
        "15206": 236,
        "15207": 99,
        "15208": 88,
        "15209": 41,
        "15210": 134,
        "15211": 96,
        "15212": 248,
        "15213": 17,
        "15214": 125,
        "15215": 175,
        "15216": 249,
        "15217": 104,
        "15218": 118,
        "15219": 204,
        "15220": 166,
        "15221": 84,
        "15222": 137,
        "15223": 152,
        "15224": 167,
        "15225": 110,
        "15226": 245,
        "15227": 7,
        "15228": 206,
        "15229": 79,
        "15230": 135,
        "15231": 43,
        "15232": 203,
        "15233": 101,
        "15234": 224,
        "15235": 227,
        "15236": 220,
        "15237": 164,
        "15238": 255,
        "15239": 6,
        "15240": 135,
        "15241": 225,
        "15242": 84,
        "15243": 36,
        "15244": 198,
        "15245": 199,
        "15246": 101,
        "15247": 206,
        "15248": 112,
        "15249": 197,
        "15250": 43,
        "15251": 18,
        "15252": 233,
        "15253": 52,
        "15254": 139,
        "15255": 164,
        "15256": 39,
        "15257": 143,
        "15258": 28,
        "15259": 149,
        "15260": 45,
        "15261": 203,
        "15262": 216,
        "15263": 222,
        "15264": 7,
        "15265": 180,
        "15266": 161,
        "15267": 169,
        "15268": 211,
        "15269": 60,
        "15270": 204,
        "15271": 8,
        "15272": 187,
        "15273": 80,
        "15274": 97,
        "15275": 136,
        "15276": 127,
        "15277": 105,
        "15278": 115,
        "15279": 169,
        "15280": 140,
        "15281": 1,
        "15282": 24,
        "15283": 21,
        "15284": 13,
        "15285": 16,
        "15286": 136,
        "15287": 125,
        "15288": 46,
        "15289": 0,
        "15290": 10,
        "15291": 60,
        "15292": 247,
        "15293": 149,
        "15294": 82,
        "15295": 164,
        "15296": 132,
        "15297": 207,
        "15298": 27,
        "15299": 26,
        "15300": 32,
        "15301": 74,
        "15302": 53,
        "15303": 23,
        "15304": 194,
        "15305": 175,
        "15306": 35,
        "15307": 186,
        "15308": 73,
        "15309": 52,
        "15310": 201,
        "15311": 214,
        "15312": 91,
        "15313": 29,
        "15314": 15,
        "15315": 147,
        "15316": 140,
        "15317": 180,
        "15318": 51,
        "15319": 167,
        "15320": 187,
        "15321": 28,
        "15322": 243,
        "15323": 12,
        "15324": 194,
        "15325": 153,
        "15326": 250,
        "15327": 160,
        "15328": 234,
        "15329": 232,
        "15330": 242,
        "15331": 178,
        "15332": 167,
        "15333": 47,
        "15334": 239,
        "15335": 178,
        "15336": 74,
        "15337": 81,
        "15338": 203,
        "15339": 199,
        "15340": 20,
        "15341": 128,
        "15342": 122,
        "15343": 107,
        "15344": 125,
        "15345": 137,
        "15346": 224,
        "15347": 100,
        "15348": 46,
        "15349": 88,
        "15350": 58,
        "15351": 3,
        "15352": 96,
        "15353": 0,
        "15354": 210,
        "15355": 159,
        "15356": 18,
        "15357": 187,
        "15358": 119,
        "15359": 1,
        "15360": 254,
        "15361": 188,
        "15362": 106,
        "15363": 195,
        "15364": 157,
        "15365": 251,
        "15366": 93,
        "15367": 170,
        "15368": 137,
        "15369": 217,
        "15370": 86,
        "15371": 181,
        "15372": 154,
        "15373": 107,
        "15374": 4,
        "15375": 233,
        "15376": 84,
        "15377": 156,
        "15378": 119,
        "15379": 224,
        "15380": 175,
        "15381": 156,
        "15382": 218,
        "15383": 154,
        "15384": 104,
        "15385": 224,
        "15386": 6,
        "15387": 247,
        "15388": 36,
        "15389": 2,
        "15390": 253,
        "15391": 129,
        "15392": 138,
        "15393": 188,
        "15394": 164,
        "15395": 183,
        "15396": 109,
        "15397": 126,
        "15398": 117,
        "15399": 44,
        "15400": 85,
        "15401": 114,
        "15402": 215,
        "15403": 48,
        "15404": 165,
        "15405": 191,
        "15406": 49,
        "15407": 221,
        "15408": 203,
        "15409": 11,
        "15410": 145,
        "15411": 135,
        "15412": 141,
        "15413": 201,
        "15414": 220,
        "15415": 106,
        "15416": 129,
        "15417": 226,
        "15418": 133,
        "15419": 230,
        "15420": 95,
        "15421": 63,
        "15422": 85,
        "15423": 178,
        "15424": 107,
        "15425": 107,
        "15426": 153,
        "15427": 164,
        "15428": 148,
        "15429": 16,
        "15430": 232,
        "15431": 241,
        "15432": 247,
        "15433": 160,
        "15434": 38,
        "15435": 59,
        "15436": 243,
        "15437": 0,
        "15438": 177,
        "15439": 66,
        "15440": 4,
        "15441": 45,
        "15442": 134,
        "15443": 29,
        "15444": 219,
        "15445": 70,
        "15446": 65,
        "15447": 134,
        "15448": 216,
        "15449": 37,
        "15450": 66,
        "15451": 22,
        "15452": 189,
        "15453": 90,
        "15454": 103,
        "15455": 24,
        "15456": 40,
        "15457": 45,
        "15458": 165,
        "15459": 198,
        "15460": 40,
        "15461": 162,
        "15462": 230,
        "15463": 111,
        "15464": 203,
        "15465": 39,
        "15466": 232,
        "15467": 237,
        "15468": 210,
        "15469": 172,
        "15470": 131,
        "15471": 191,
        "15472": 3,
        "15473": 101,
        "15474": 187,
        "15475": 232,
        "15476": 63,
        "15477": 226,
        "15478": 229,
        "15479": 116,
        "15480": 202,
        "15481": 160,
        "15482": 57,
        "15483": 174,
        "15484": 38,
        "15485": 198,
        "15486": 90,
        "15487": 174,
        "15488": 58,
        "15489": 38,
        "15490": 36,
        "15491": 212,
        "15492": 24,
        "15493": 150,
        "15494": 83,
        "15495": 101,
        "15496": 155,
        "15497": 162,
        "15498": 57,
        "15499": 27,
        "15500": 154,
        "15501": 103,
        "15502": 119,
        "15503": 237,
        "15504": 8,
        "15505": 212,
        "15506": 77,
        "15507": 248,
        "15508": 163,
        "15509": 135,
        "15510": 105,
        "15511": 133,
        "15512": 241,
        "15513": 135,
        "15514": 41,
        "15515": 230,
        "15516": 87,
        "15517": 64,
        "15518": 50,
        "15519": 211,
        "15520": 9,
        "15521": 138,
        "15522": 50,
        "15523": 81,
        "15524": 212,
        "15525": 67,
        "15526": 120,
        "15527": 24,
        "15528": 160,
        "15529": 57,
        "15530": 75,
        "15531": 72,
        "15532": 96,
        "15533": 213,
        "15534": 163,
        "15535": 217,
        "15536": 43,
        "15537": 80,
        "15538": 73,
        "15539": 227,
        "15540": 118,
        "15541": 85,
        "15542": 57,
        "15543": 94,
        "15544": 29,
        "15545": 202,
        "15546": 184,
        "15547": 1,
        "15548": 198,
        "15549": 80,
        "15550": 144,
        "15551": 51,
        "15552": 130,
        "15553": 128,
        "15554": 26,
        "15555": 42,
        "15556": 49,
        "15557": 101,
        "15558": 177,
        "15559": 47,
        "15560": 123,
        "15561": 32,
        "15562": 0,
        "15563": 101,
        "15564": 9,
        "15565": 95,
        "15566": 109,
        "15567": 236,
        "15568": 15,
        "15569": 180,
        "15570": 24,
        "15571": 45,
        "15572": 181,
        "15573": 61,
        "15574": 91,
        "15575": 70,
        "15576": 67,
        "15577": 75,
        "15578": 233,
        "15579": 178,
        "15580": 97,
        "15581": 234,
        "15582": 8,
        "15583": 31,
        "15584": 248,
        "15585": 174,
        "15586": 92,
        "15587": 87,
        "15588": 88,
        "15589": 17,
        "15590": 222,
        "15591": 170,
        "15592": 20,
        "15593": 183,
        "15594": 250,
        "15595": 199,
        "15596": 66,
        "15597": 151,
        "15598": 32,
        "15599": 242,
        "15600": 207,
        "15601": 198,
        "15602": 48,
        "15603": 17,
        "15604": 155,
        "15605": 25,
        "15606": 254,
        "15607": 200,
        "15608": 87,
        "15609": 198,
        "15610": 239,
        "15611": 160,
        "15612": 76,
        "15613": 26,
        "15614": 255,
        "15615": 32,
        "15616": 14,
        "15617": 59,
        "15618": 117,
        "15619": 202,
        "15620": 56,
        "15621": 78,
        "15622": 40,
        "15623": 246,
        "15624": 32,
        "15625": 64,
        "15626": 87,
        "15627": 152,
        "15628": 7,
        "15629": 157,
        "15630": 13,
        "15631": 141,
        "15632": 58,
        "15633": 53,
        "15634": 57,
        "15635": 117,
        "15636": 151,
        "15637": 186,
        "15638": 67,
        "15639": 254,
        "15640": 168,
        "15641": 7,
        "15642": 170,
        "15643": 116,
        "15644": 151,
        "15645": 222,
        "15646": 49,
        "15647": 159,
        "15648": 37,
        "15649": 109,
        "15650": 175,
        "15651": 188,
        "15652": 228,
        "15653": 7,
        "15654": 134,
        "15655": 208,
        "15656": 30,
        "15657": 7,
        "15658": 3,
        "15659": 128,
        "15660": 114,
        "15661": 121,
        "15662": 0,
        "15663": 47,
        "15664": 180,
        "15665": 76,
        "15666": 116,
        "15667": 140,
        "15668": 16,
        "15669": 114,
        "15670": 250,
        "15671": 41,
        "15672": 126,
        "15673": 159,
        "15674": 43,
        "15675": 64,
        "15676": 155,
        "15677": 100,
        "15678": 43,
        "15679": 218,
        "15680": 200,
        "15681": 135,
        "15682": 34,
        "15683": 246,
        "15684": 128,
        "15685": 176,
        "15686": 251,
        "15687": 158,
        "15688": 31,
        "15689": 106,
        "15690": 171,
        "15691": 103,
        "15692": 186,
        "15693": 111,
        "15694": 12,
        "15695": 35,
        "15696": 48,
        "15697": 249,
        "15698": 243,
        "15699": 181,
        "15700": 22,
        "15701": 128,
        "15702": 227,
        "15703": 228,
        "15704": 99,
        "15705": 107,
        "15706": 3,
        "15707": 13,
        "15708": 32,
        "15709": 213,
        "15710": 137,
        "15711": 81,
        "15712": 181,
        "15713": 206,
        "15714": 113,
        "15715": 19,
        "15716": 209,
        "15717": 122,
        "15718": 111,
        "15719": 82,
        "15720": 166,
        "15721": 128,
        "15722": 214,
        "15723": 109,
        "15724": 218,
        "15725": 69,
        "15726": 9,
        "15727": 129,
        "15728": 165,
        "15729": 97,
        "15730": 192,
        "15731": 24,
        "15732": 45,
        "15733": 5,
        "15734": 219,
        "15735": 131,
        "15736": 10,
        "15737": 129,
        "15738": 223,
        "15739": 173,
        "15740": 72,
        "15741": 154,
        "15742": 252,
        "15743": 124,
        "15744": 125,
        "15745": 199,
        "15746": 128,
        "15747": 113,
        "15748": 161,
        "15749": 60,
        "15750": 211,
        "15751": 158,
        "15752": 175,
        "15753": 158,
        "15754": 65,
        "15755": 52,
        "15756": 143,
        "15757": 36,
        "15758": 64,
        "15759": 189,
        "15760": 151,
        "15761": 251,
        "15762": 22,
        "15763": 156,
        "15764": 84,
        "15765": 155,
        "15766": 18,
        "15767": 208,
        "15768": 153,
        "15769": 136,
        "15770": 167,
        "15771": 63,
        "15772": 248,
        "15773": 162,
        "15774": 47,
        "15775": 101,
        "15776": 85,
        "15777": 21,
        "15778": 104,
        "15779": 106,
        "15780": 195,
        "15781": 159,
        "15782": 249,
        "15783": 106,
        "15784": 229,
        "15785": 100,
        "15786": 29,
        "15787": 177,
        "15788": 120,
        "15789": 201,
        "15790": 207,
        "15791": 200,
        "15792": 112,
        "15793": 18,
        "15794": 133,
        "15795": 252,
        "15796": 193,
        "15797": 235,
        "15798": 29,
        "15799": 145,
        "15800": 220,
        "15801": 152,
        "15802": 96,
        "15803": 54,
        "15804": 71,
        "15805": 62,
        "15806": 137,
        "15807": 117,
        "15808": 64,
        "15809": 8,
        "15810": 128,
        "15811": 249,
        "15812": 138,
        "15813": 6,
        "15814": 216,
        "15815": 194,
        "15816": 223,
        "15817": 68,
        "15818": 12,
        "15819": 223,
        "15820": 158,
        "15821": 29,
        "15822": 31,
        "15823": 155,
        "15824": 10,
        "15825": 52,
        "15826": 156,
        "15827": 248,
        "15828": 214,
        "15829": 35,
        "15830": 4,
        "15831": 106,
        "15832": 205,
        "15833": 67,
        "15834": 109,
        "15835": 163,
        "15836": 153,
        "15837": 158,
        "15838": 43,
        "15839": 240,
        "15840": 255,
        "15841": 112,
        "15842": 187,
        "15843": 179,
        "15844": 54,
        "15845": 87,
        "15846": 136,
        "15847": 136,
        "15848": 138,
        "15849": 45,
        "15850": 47,
        "15851": 99,
        "15852": 80,
        "15853": 97,
        "15854": 50,
        "15855": 100,
        "15856": 243,
        "15857": 221,
        "15858": 207,
        "15859": 129,
        "15860": 254,
        "15861": 73,
        "15862": 116,
        "15863": 1,
        "15864": 50,
        "15865": 220,
        "15866": 206,
        "15867": 99,
        "15868": 41,
        "15869": 247,
        "15870": 207,
        "15871": 233,
        "15872": 8,
        "15873": 22,
        "15874": 156,
        "15875": 214,
        "15876": 220,
        "15877": 162,
        "15878": 53,
        "15879": 205,
        "15880": 181,
        "15881": 242,
        "15882": 102,
        "15883": 139,
        "15884": 249,
        "15885": 145,
        "15886": 123,
        "15887": 48,
        "15888": 134,
        "15889": 130,
        "15890": 15,
        "15891": 92,
        "15892": 150,
        "15893": 252,
        "15894": 138,
        "15895": 201,
        "15896": 47,
        "15897": 84,
        "15898": 62,
        "15899": 161,
        "15900": 195,
        "15901": 165,
        "15902": 147,
        "15903": 97,
        "15904": 244,
        "15905": 0,
        "15906": 117,
        "15907": 251,
        "15908": 195,
        "15909": 9,
        "15910": 135,
        "15911": 172,
        "15912": 48,
        "15913": 150,
        "15914": 20,
        "15915": 72,
        "15916": 156,
        "15917": 175,
        "15918": 56,
        "15919": 192,
        "15920": 236,
        "15921": 100,
        "15922": 23,
        "15923": 112,
        "15924": 36,
        "15925": 214,
        "15926": 54,
        "15927": 60,
        "15928": 121,
        "15929": 162,
        "15930": 200,
        "15931": 55,
        "15932": 157,
        "15933": 125,
        "15934": 49,
        "15935": 232,
        "15936": 124,
        "15937": 218,
        "15938": 28,
        "15939": 148,
        "15940": 72,
        "15941": 62,
        "15942": 154,
        "15943": 60,
        "15944": 206,
        "15945": 232,
        "15946": 49,
        "15947": 115,
        "15948": 191,
        "15949": 135,
        "15950": 35,
        "15951": 136,
        "15952": 126,
        "15953": 201,
        "15954": 0,
        "15955": 60,
        "15956": 117,
        "15957": 82,
        "15958": 121,
        "15959": 235,
        "15960": 101,
        "15961": 48,
        "15962": 216,
        "15963": 247,
        "15964": 84,
        "15965": 78,
        "15966": 207,
        "15967": 164,
        "15968": 44,
        "15969": 131,
        "15970": 40,
        "15971": 180,
        "15972": 80,
        "15973": 6,
        "15974": 182,
        "15975": 240,
        "15976": 32,
        "15977": 120,
        "15978": 147,
        "15979": 1,
        "15980": 148,
        "15981": 234,
        "15982": 122,
        "15983": 218,
        "15984": 216,
        "15985": 15,
        "15986": 218,
        "15987": 196,
        "15988": 187,
        "15989": 126,
        "15990": 200,
        "15991": 119,
        "15992": 61,
        "15993": 136,
        "15994": 222,
        "15995": 75,
        "15996": 103,
        "15997": 156,
        "15998": 221,
        "15999": 169,
        "16000": 243,
        "16001": 35,
        "16002": 248,
        "16003": 207,
        "16004": 225,
        "16005": 83,
        "16006": 42,
        "16007": 67,
        "16008": 82,
        "16009": 224,
        "16010": 252,
        "16011": 66,
        "16012": 38,
        "16013": 234,
        "16014": 196,
        "16015": 178,
        "16016": 206,
        "16017": 95,
        "16018": 72,
        "16019": 5,
        "16020": 191,
        "16021": 34,
        "16022": 198,
        "16023": 179,
        "16024": 53,
        "16025": 129,
        "16026": 209,
        "16027": 64,
        "16028": 35,
        "16029": 4,
        "16030": 221,
        "16031": 34,
        "16032": 230,
        "16033": 52,
        "16034": 1,
        "16035": 165,
        "16036": 168,
        "16037": 254,
        "16038": 70,
        "16039": 38,
        "16040": 34,
        "16041": 77,
        "16042": 66,
        "16043": 186,
        "16044": 199,
        "16045": 20,
        "16046": 80,
        "16047": 250,
        "16048": 38,
        "16049": 186,
        "16050": 101,
        "16051": 38,
        "16052": 203,
        "16053": 122,
        "16054": 57,
        "16055": 253,
        "16056": 94,
        "16057": 199,
        "16058": 156,
        "16059": 41,
        "16060": 37,
        "16061": 82,
        "16062": 119,
        "16063": 184,
        "16064": 67,
        "16065": 219,
        "16066": 24,
        "16067": 203,
        "16068": 159,
        "16069": 110,
        "16070": 7,
        "16071": 189,
        "16072": 125,
        "16073": 117,
        "16074": 146,
        "16075": 129,
        "16076": 179,
        "16077": 162,
        "16078": 230,
        "16079": 182,
        "16080": 108,
        "16081": 84,
        "16082": 133,
        "16083": 121,
        "16084": 82,
        "16085": 75,
        "16086": 36,
        "16087": 50,
        "16088": 20,
        "16089": 67,
        "16090": 211,
        "16091": 242,
        "16092": 50,
        "16093": 174,
        "16094": 138,
        "16095": 221,
        "16096": 239,
        "16097": 99,
        "16098": 217,
        "16099": 166,
        "16100": 29,
        "16101": 74,
        "16102": 114,
        "16103": 27,
        "16104": 154,
        "16105": 250,
        "16106": 138,
        "16107": 196,
        "16108": 112,
        "16109": 126,
        "16110": 93,
        "16111": 159,
        "16112": 217,
        "16113": 69,
        "16114": 30,
        "16115": 100,
        "16116": 145,
        "16117": 102,
        "16118": 199,
        "16119": 180,
        "16120": 0,
        "16121": 113,
        "16122": 63,
        "16123": 162,
        "16124": 42,
        "16125": 17,
        "16126": 170,
        "16127": 33,
        "16128": 14,
        "16129": 14,
        "16130": 46,
        "16131": 128,
        "16132": 125,
        "16133": 93,
        "16134": 185,
        "16135": 195,
        "16136": 140,
        "16137": 148,
        "16138": 212,
        "16139": 61,
        "16140": 149,
        "16141": 128,
        "16142": 83,
        "16143": 95,
        "16144": 6,
        "16145": 93,
        "16146": 133,
        "16147": 234,
        "16148": 255,
        "16149": 51,
        "16150": 234,
        "16151": 122,
        "16152": 131,
        "16153": 189,
        "16154": 107,
        "16155": 52,
        "16156": 190,
        "16157": 37,
        "16158": 18,
        "16159": 61,
        "16160": 240,
        "16161": 35,
        "16162": 172,
        "16163": 99,
        "16164": 96,
        "16165": 49,
        "16166": 160,
        "16167": 25,
        "16168": 116,
        "16169": 61,
        "16170": 132,
        "16171": 162,
        "16172": 84,
        "16173": 153,
        "16174": 134,
        "16175": 209,
        "16176": 130,
        "16177": 31,
        "16178": 182,
        "16179": 99,
        "16180": 126,
        "16181": 160,
        "16182": 107,
        "16183": 92,
        "16184": 249,
        "16185": 251,
        "16186": 92,
        "16187": 36,
        "16188": 116,
        "16189": 118,
        "16190": 216,
        "16191": 60,
        "16192": 108,
        "16193": 209,
        "16194": 132,
        "16195": 12,
        "16196": 253,
        "16197": 202,
        "16198": 15,
        "16199": 242,
        "16200": 105,
        "16201": 162,
        "16202": 243,
        "16203": 24,
        "16204": 72,
        "16205": 75,
        "16206": 185,
        "16207": 254,
        "16208": 134,
        "16209": 14,
        "16210": 30,
        "16211": 200,
        "16212": 108,
        "16213": 112,
        "16214": 211,
        "16215": 186,
        "16216": 16,
        "16217": 35,
        "16218": 155,
        "16219": 204,
        "16220": 169,
        "16221": 136,
        "16222": 228,
        "16223": 203,
        "16224": 29,
        "16225": 147,
        "16226": 207,
        "16227": 129,
        "16228": 242,
        "16229": 78,
        "16230": 50,
        "16231": 29,
        "16232": 240,
        "16233": 112,
        "16234": 37,
        "16235": 98,
        "16236": 24,
        "16237": 148,
        "16238": 45,
        "16239": 12,
        "16240": 177,
        "16241": 77,
        "16242": 161,
        "16243": 94,
        "16244": 223,
        "16245": 42,
        "16246": 18,
        "16247": 235,
        "16248": 156,
        "16249": 51,
        "16250": 58,
        "16251": 99,
        "16252": 1,
        "16253": 127,
        "16254": 175,
        "16255": 10,
        "16256": 42,
        "16257": 45,
        "16258": 199,
        "16259": 252,
        "16260": 250,
        "16261": 25,
        "16262": 124,
        "16263": 241,
        "16264": 126,
        "16265": 44,
        "16266": 213,
        "16267": 134,
        "16268": 87,
        "16269": 101,
        "16270": 213,
        "16271": 113,
        "16272": 76,
        "16273": 41,
        "16274": 23,
        "16275": 76,
        "16276": 90,
        "16277": 112,
        "16278": 10,
        "16279": 212,
        "16280": 130,
        "16281": 23,
        "16282": 188,
        "16283": 176,
        "16284": 22,
        "16285": 255,
        "16286": 167,
        "16287": 209,
        "16288": 168,
        "16289": 149,
        "16290": 207,
        "16291": 137,
        "16292": 0,
        "16293": 109,
        "16294": 94,
        "16295": 196,
        "16296": 205,
        "16297": 116,
        "16298": 156,
        "16299": 128,
        "16300": 127,
        "16301": 10,
        "16302": 65,
        "16303": 247,
        "16304": 7,
        "16305": 27,
        "16306": 168,
        "16307": 168,
        "16308": 95,
        "16309": 117,
        "16310": 197,
        "16311": 48,
        "16312": 100,
        "16313": 73,
        "16314": 6,
        "16315": 39,
        "16316": 190,
        "16317": 149,
        "16318": 182,
        "16319": 15,
        "16320": 10,
        "16321": 178,
        "16322": 46,
        "16323": 170,
        "16324": 105,
        "16325": 243,
        "16326": 73,
        "16327": 123,
        "16328": 82,
        "16329": 9,
        "16330": 54,
        "16331": 201,
        "16332": 170,
        "16333": 190,
        "16334": 154,
        "16335": 251,
        "16336": 183,
        "16337": 40,
        "16338": 117,
        "16339": 218,
        "16340": 155,
        "16341": 99,
        "16342": 162,
        "16343": 194,
        "16344": 152,
        "16345": 20,
        "16346": 17,
        "16347": 74,
        "16348": 97,
        "16349": 139,
        "16350": 125,
        "16351": 39,
        "16352": 123,
        "16353": 235,
        "16354": 237,
        "16355": 139,
        "16356": 51,
        "16357": 218,
        "16358": 102,
        "16359": 205,
        "16360": 67,
        "16361": 105,
        "16362": 125,
        "16363": 44,
        "16364": 56,
        "16365": 15,
        "16366": 203,
        "16367": 54,
        "16368": 184,
        "16369": 248,
        "16370": 137,
        "16371": 124,
        "16372": 132,
        "16373": 3,
        "16374": 71,
        "16375": 72,
        "16376": 108,
        "16377": 215,
        "16378": 171,
        "16379": 84,
        "16380": 57,
        "16381": 92,
        "16382": 23,
        "16383": 107,
        "16384": 66,
        "16385": 179,
        "16386": 84,
        "16387": 222,
        "16388": 239,
        "16389": 31,
        "16390": 90,
        "16391": 15,
        "16392": 39,
        "16393": 115,
        "16394": 197,
        "16395": 255,
        "16396": 215,
        "16397": 250,
        "16398": 245,
        "16399": 254,
        "16400": 79,
        "16401": 5,
        "16402": 104,
        "16403": 246,
        "16404": 0,
        "16405": 220,
        "16406": 21,
        "16407": 174,
        "16408": 47,
        "16409": 185,
        "16410": 146,
        "16411": 228,
        "16412": 201,
        "16413": 201,
        "16414": 103,
        "16415": 220,
        "16416": 209,
        "16417": 162,
        "16418": 100,
        "16419": 167,
        "16420": 180,
        "16421": 211,
        "16422": 41,
        "16423": 47,
        "16424": 1,
        "16425": 8,
        "16426": 0,
        "16427": 0,
        "16428": 0,
        "16429": 0,
        "16430": 0,
        "16431": 0,
        "16432": 4,
        "16433": 0,
        "16434": 0,
        "16435": 0,
        "16436": 0,
        "16437": 0,
        "16438": 0,
        "16439": 0,
        "16440": 0,
        "16441": 0,
        "16442": 0,
        "16443": 0,
        "16444": 0,
        "16445": 0,
        "16446": 0,
        "16447": 0,
        "16448": 0,
        "16449": 0,
        "16450": 0,
        "16451": 0,
        "16452": 0,
        "16453": 0,
        "16454": 0,
        "16455": 0,
        "16456": 64,
        "16457": 0,
        "16458": 0,
        "16459": 0,
        "16460": 0,
        "16461": 0,
        "16462": 0,
        "16463": 0,
        "16464": 3,
        "16465": 0,
        "16466": 0,
        "16467": 0,
        "16468": 0,
        "16469": 0,
        "16470": 0,
        "16471": 0,
        "16472": 4,
        "16473": 0,
        "16474": 0,
        "16475": 0,
        "16476": 0,
        "16477": 0,
        "16478": 0,
        "16479": 0,
        "16480": 4,
        "16481": 0,
        "16482": 0,
        "16483": 0,
        "16484": 0,
        "16485": 0,
        "16486": 0,
        "16487": 0,
        "16488": 0,
        "16489": 0,
        "16490": 0,
        "16491": 0,
        "16492": 4,
        "16493": 0,
        "16494": 0,
        "16495": 0,
        "16496": 0,
        "16497": 0,
        "16498": 0,
        "16499": 0
      }
    }
  ],
  "numDeployments": 1,
  "solcInputHash": "66019d9972357b59451acf49fdf252f3",
  "bytecode": "0x610160604052620000176000620001f660201b60201c565b6009553480156200002757600080fd5b50604051620055e2380380620055e283398181016040528101906200004d919062000ead565b83836040518060400160405280601181526020017f4668656e6978205065726d697373696f6e0000000000000000000000000000008152506040518060400160405280600381526020017f312e30000000000000000000000000000000000000000000000000000000000081525083838160039081620000ce9190620011bd565b508060049081620000e09190620011bd565b505050620000f96005836200021260201b90919060201c565b6101208181525050620001176006826200021260201b90919060201c565b6101408181525050818051906020012060e08181525050808051906020012061010081815250504660a08181525050620001566200026a60201b60201c565b608081815250503073ffffffffffffffffffffffffffffffffffffffff1660c08173ffffffffffffffffffffffffffffffffffffffff168152505050505050620001a73383620002c760201b60201c565b620001b933826200035460201b60201c565b620001eb7f9f2df0fed2c77648de5860a4cc508cd0818c85b8b8a1ab4ceeef8d981c8956a6336200041060201b60201c565b5050505050620016df565b60006200020b8260026200051460201b60201c565b9050919050565b600060208351101562000238576200023083620005cb60201b60201c565b905062000264565b826200024a836200063860201b60201c565b60000190816200025b9190620011bd565b5060ff60001b90505b92915050565b60007f8b73c3c69bb8fe3d512ecc4cf759cc79239f7b179b0ffacaa9a75d522b39400f60e051610100514630604051602001620002ac95949392919062001315565b60405160208183030381529060405280519060200120905090565b600073ffffffffffffffffffffffffffffffffffffffff168273ffffffffffffffffffffffffffffffffffffffff16036200033c5760006040517fec442f0500000000000000000000000000000000000000000000000000000000815260040162000333919062001372565b60405180910390fd5b62000350600083836200064260201b60201c565b5050565b600062000367826200087260201b60201c565b9050620003b4600760008573ffffffffffffffffffffffffffffffffffffffff1673ffffffffffffffffffffffffffffffffffffffff168152602001908152602001600020548262000890565b600760008573ffffffffffffffffffffffffffffffffffffffff1673ffffffffffffffffffffffffffffffffffffffff16815260200190815260200160002081905550620004056009548262000890565b600981905550505050565b6000620004248383620008ac60201b60201c565b62000509576001600a600085815260200190815260200160002060000160008473ffffffffffffffffffffffffffffffffffffffff1673ffffffffffffffffffffffffffffffffffffffff16815260200190815260200160002060006101000a81548160ff021916908315150217905550620004a56200091760201b60201c565b73ffffffffffffffffffffffffffffffffffffffff168273ffffffffffffffffffffffffffffffffffffffff16847f2f8788117e7eff1d82e926ec794901d17c78024a50270940304540a733656f0d60405160405180910390a4600190506200050e565b600090505b92915050565b60006060608073ffffffffffffffffffffffffffffffffffffffff166319e1c5c462000546866200091f60201b60201c565b856040518363ffffffff1660e01b8152600401620005669291906200140a565b600060405180830381865afa15801562000584573d6000803e3d6000fd5b505050506040513d6000823e3d601f19601f82011682018060405250810190620005af91906200143e565b9050620005c2816200098060201b60201c565b91505092915050565b600080829050601f815111156200061b57826040517f305a27a9000000000000000000000000000000000000000000000000000000008152600401620006129190620014e1565b60405180910390fd5b80518162000629906200152c565b60001c1760001b915050919050565b6000819050919050565b600073ffffffffffffffffffffffffffffffffffffffff168373ffffffffffffffffffffffffffffffffffffffff1603620006985780600260008282546200068b9190620015cb565b925050819055506200076e565b60008060008573ffffffffffffffffffffffffffffffffffffffff1673ffffffffffffffffffffffffffffffffffffffff1681526020019081526020016000205490508181101562000727578381836040517fe450d38c0000000000000000000000000000000000000000000000000000000081526004016200071e9392919062001606565b60405180910390fd5b8181036000808673ffffffffffffffffffffffffffffffffffffffff1673ffffffffffffffffffffffffffffffffffffffff16815260200190815260200160002081905550505b600073ffffffffffffffffffffffffffffffffffffffff168273ffffffffffffffffffffffffffffffffffffffff1603620007b9578060026000828254039250508190555062000806565b806000808473ffffffffffffffffffffffffffffffffffffffff1673ffffffffffffffffffffffffffffffffffffffff168152602001908152602001600020600082825401925050819055505b8173ffffffffffffffffffffffffffffffffffffffff168373ffffffffffffffffffffffffffffffffffffffff167fddf252ad1be2c89b69c2b068fc378daa952ba7f163c4a11628f55a4df523b3ef8360405162000865919062001643565b60405180910390a3505050565b60006200088982600001516200098e60201b60201c565b9050919050565b6000620008a48383620009aa60201b60201c565b905092915050565b6000600a600084815260200190815260200160002060000160008373ffffffffffffffffffffffffffffffffffffffff1673ffffffffffffffffffffffffffffffffffffffff16815260200190815260200160002060009054906101000a900460ff16905092915050565b600033905090565b6060602067ffffffffffffffff8111156200093f576200093e62000bee565b5b6040519080825280601f01601f191660200182016040528015620009725781602001600182028036833780820191505090505b509050816020820152919050565b600060208201519050919050565b6000620009a382600262000a4c60201b60201c565b9050919050565b6000620009bd8362000af360201b60201c565b620009d757620009d46000620001f660201b60201c565b92505b620009e88262000af360201b60201c565b62000a0257620009ff6000620001f660201b60201c565b91505b60008390506000839050600062000a3e60028484608073ffffffffffffffffffffffffffffffffffffffff16622df61962000b0060201b60201c565b905080935050505092915050565b60006060608073ffffffffffffffffffffffffffffffffffffffff16635fa55ca784866040518363ffffffff1660e01b815260040162000a8e92919062001660565b600060405180830381865afa15801562000aac573d6000803e3d6000fd5b505050506040513d6000823e3d601f19601f8201168201806040525081019062000ad791906200143e565b905062000aea816200098060201b60201c565b91505092915050565b6000808214159050919050565b6000606083838862000b18896200091f60201b60201c565b62000b29896200091f60201b60201c565b6040518463ffffffff1660e01b815260040162000b499392919062001694565b600060405180830381865afa15801562000b67573d6000803e3d6000fd5b505050506040513d6000823e3d601f19601f8201168201806040525081019062000b9291906200143e565b905062000ba58162000bb160201b60201c565b91505095945050505050565b600060208201519050919050565b6000604051905090565b600080fd5b600080fd5b600080fd5b600080fd5b6000601f19601f8301169050919050565b7f4e487b7100000000000000000000000000000000000000000000000000000000600052604160045260246000fd5b62000c288262000bdd565b810181811067ffffffffffffffff8211171562000c4a5762000c4962000bee565b5b80604052505050565b600062000c5f62000bbf565b905062000c6d828262000c1d565b919050565b600067ffffffffffffffff82111562000c905762000c8f62000bee565b5b62000c9b8262000bdd565b9050602081019050919050565b60005b8381101562000cc857808201518184015260208101905062000cab565b60008484015250505050565b600062000ceb62000ce58462000c72565b62000c53565b90508281526020810184848401111562000d0a5762000d0962000bd8565b5b62000d1784828562000ca8565b509392505050565b600082601f83011262000d375762000d3662000bd3565b5b815162000d4984826020860162000cd4565b91505092915050565b6000819050919050565b62000d678162000d52565b811462000d7357600080fd5b50565b60008151905062000d878162000d5c565b92915050565b600080fd5b600080fd5b600067ffffffffffffffff82111562000db55762000db462000bee565b5b62000dc08262000bdd565b9050602081019050919050565b600062000de462000dde8462000d97565b62000c53565b90508281526020810184848401111562000e035762000e0262000bd8565b5b62000e1084828562000ca8565b509392505050565b600082601f83011262000e305762000e2f62000bd3565b5b815162000e4284826020860162000dcd565b91505092915050565b60006020828403121562000e645762000e6362000d8d565b5b62000e70602062000c53565b9050600082015167ffffffffffffffff81111562000e935762000e9262000d92565b5b62000ea18482850162000e18565b60008301525092915050565b6000806000806080858703121562000eca5762000ec962000bc9565b5b600085015167ffffffffffffffff81111562000eeb5762000eea62000bce565b5b62000ef98782880162000d1f565b945050602085015167ffffffffffffffff81111562000f1d5762000f1c62000bce565b5b62000f2b8782880162000d1f565b935050604062000f3e8782880162000d76565b925050606085015167ffffffffffffffff81111562000f625762000f6162000bce565b5b62000f708782880162000e4b565b91505092959194509250565b600081519050919050565b7f4e487b7100000000000000000000000000000000000000000000000000000000600052602260045260246000fd5b6000600282049050600182168062000fcf57607f821691505b60208210810362000fe55762000fe462000f87565b5b50919050565b60008190508160005260206000209050919050565b60006020601f8301049050919050565b600082821b905092915050565b6000600883026200104f7fffffffffffffffffffffffffffffffffffffffffffffffffffffffffffffffff8262001010565b6200105b868362001010565b95508019841693508086168417925050509392505050565b6000819050919050565b60006200109e62001098620010928462000d52565b62001073565b62000d52565b9050919050565b6000819050919050565b620010ba836200107d565b620010d2620010c982620010a5565b8484546200101d565b825550505050565b600090565b620010e9620010da565b620010f6818484620010af565b505050565b5b818110156200111e5762001112600082620010df565b600181019050620010fc565b5050565b601f8211156200116d57620011378162000feb565b620011428462001000565b8101602085101562001152578190505b6200116a620011618562001000565b830182620010fb565b50505b505050565b600082821c905092915050565b6000620011926000198460080262001172565b1980831691505092915050565b6000620011ad83836200117f565b9150826002028217905092915050565b620011c88262000f7c565b67ffffffffffffffff811115620011e457620011e362000bee565b5b620011f0825462000fb6565b620011fd82828562001122565b600060209050601f83116001811462001235576000841562001220578287015190505b6200122c85826200119f565b8655506200129c565b601f198416620012458662000feb565b60005b828110156200126f5784890151825560018201915060208501945060208101905062001248565b868310156200128f57848901516200128b601f8916826200117f565b8355505b6001600288020188555050505b505050505050565b6000819050919050565b620012b981620012a4565b82525050565b620012ca8162000d52565b82525050565b600073ffffffffffffffffffffffffffffffffffffffff82169050919050565b6000620012fd82620012d0565b9050919050565b6200130f81620012f0565b82525050565b600060a0820190506200132c6000830188620012ae565b6200133b6020830187620012ae565b6200134a6040830186620012ae565b620013596060830185620012bf565b62001368608083018462001304565b9695505050505050565b600060208201905062001389600083018462001304565b92915050565b600081519050919050565b600082825260208201905092915050565b6000620013b8826200138f565b620013c481856200139a565b9350620013d681856020860162000ca8565b620013e18162000bdd565b840191505092915050565b600060ff82169050919050565b6200140481620013ec565b82525050565b60006040820190508181036000830152620014268185620013ab565b9050620014376020830184620013f9565b9392505050565b60006020828403121562001457576200145662000bc9565b5b600082015167ffffffffffffffff81111562001478576200147762000bce565b5b620014868482850162000e18565b91505092915050565b600082825260208201905092915050565b6000620014ad8262000f7c565b620014b981856200148f565b9350620014cb81856020860162000ca8565b620014d68162000bdd565b840191505092915050565b60006020820190508181036000830152620014fd8184620014a0565b905092915050565b6000819050602082019050919050565b6000620015238251620012a4565b80915050919050565b600062001539826200138f565b82620015458462001505565b9050620015528162001515565b925060208210156200159557620015907fffffffffffffffffffffffffffffffffffffffffffffffffffffffffffffffff8360200360080262001010565b831692505b5050919050565b7f4e487b7100000000000000000000000000000000000000000000000000000000600052601160045260246000fd5b6000620015d88262000d52565b9150620015e58362000d52565b92508282019050808211156200160057620015ff6200159c565b5b92915050565b60006060820190506200161d600083018662001304565b6200162c6020830185620012bf565b6200163b6040830184620012bf565b949350505050565b60006020820190506200165a6000830184620012bf565b92915050565b6000604082019050620016776000830185620013f9565b81810360208301526200168b8184620013ab565b90509392505050565b6000606082019050620016ab6000830186620013f9565b8181036020830152620016bf8185620013ab565b90508181036040830152620016d58184620013ab565b9050949350505050565b60805160a05160c05160e051610100516101205161014051613ea86200173a60003960006119440152600061190901526000612a8501526000612a64015260006121a5015260006121fb015260006122240152613ea86000f3fe608060405234801561001057600080fd5b50600436106101da5760003560e01c80636e0505e111610104578063a217fddf116100a2578063d539139311610071578063d5391393146105e1578063d547741f146105ff578063d918156e1461061b578063dd62ed3e1461064b576101da565b8063a217fddf14610533578063a9059cbb14610551578063af575a0014610581578063c4224c19146105b1576101da565b80638624a349116100de5780638624a3491461049957806391d14854146104c957806395d89b41146104f95780639f284be714610517576101da565b80636e0505e11461042957806370a082311461044557806384b0196e14610475576101da565b8063248a9ca31161017c57806339c217f71161014b57806339c217f71461037d5780634e6db477146103ad5780635356c429146103c957806360277204146103f9576101da565b8063248a9ca3146102f75780632f2ff15d14610327578063313ce5671461034357806336568abe14610361576101da565b80631656cef3116101b85780631656cef31461025d57806318160ddd1461027957806323b872dd1461029757806323db9354146102c7576101da565b806301ffc9a7146101df57806306fdde031461020f578063095ea7b31461022d575b600080fd5b6101f960048036038101906101f49190612e22565b61067b565b6040516102069190612e6a565b60405180910390f35b6102176106f5565b6040516102249190612f15565b60405180910390f35b61024760048036038101906102429190612fcb565b610787565b6040516102549190612e6a565b60405180910390f35b610277600480360381019061027291906131a2565b6107aa565b005b6102816107b7565b60405161028e91906131fa565b60405180910390f35b6102b160048036038101906102ac9190613215565b6107c1565b6040516102be9190612e6a565b60405180910390f35b6102e160048036038101906102dc9190613268565b6107f0565b6040516102ee91906132e3565b60405180910390f35b610311600480360381019061030c9190613334565b610877565b60405161031e9190613370565b60405180910390f35b610341600480360381019061033c919061338b565b610897565b005b61034b6108b9565b60405161035891906133e7565b60405180910390f35b61037b6004803603810190610376919061338b565b6108c2565b005b61039760048036038101906103929190613426565b61093d565b6040516103a491906132e3565b60405180910390f35b6103c760048036038101906103c29190613482565b610962565b005b6103e360048036038101906103de91906134fd565b6109a0565b6040516103f091906135ae565b60405180910390f35b610413600480360381019061040e919061363c565b610a9e565b60405161042091906135ae565b60405180910390f35b610443600480360381019061043e91906136d4565b610bd4565b005b61045f600480360381019061045a9190613701565b610d0b565b60405161046c91906131fa565b60405180910390f35b61047d610d53565b6040516104909796959493929190613836565b60405180910390f35b6104b360048036038101906104ae91906138ba565b610dfd565b6040516104c091906132e3565b60405180910390f35b6104e360048036038101906104de919061338b565b610e3b565b6040516104f09190612e6a565b60405180910390f35b610501610ea6565b60405161050e9190612f15565b60405180910390f35b610531600480360381019061052c91906136d4565b610f38565b005b61053b611045565b6040516105489190613370565b60405180910390f35b61056b60048036038101906105669190612fcb565b61104c565b6040516105789190612e6a565b60405180910390f35b61059b60048036038101906105969190613955565b61106f565b6040516105a891906132e3565b60405180910390f35b6105cb60048036038101906105c691906139a8565b61109c565b6040516105d891906132e3565b60405180910390f35b6105e96110b1565b6040516105f69190613370565b60405180910390f35b6106196004803603810190610614919061338b565b6110d5565b005b61063560048036038101906106309190613426565b6110f7565b6040516106429190612e6a565b60405180910390f35b61066560048036038101906106609190613268565b61111f565b60405161067291906131fa565b60405180910390f35b60007f7965db0b000000000000000000000000000000000000000000000000000000007bffffffffffffffffffffffffffffffffffffffffffffffffffffffff1916827bffffffffffffffffffffffffffffffffffffffffffffffffffffffff191614806106ee57506106ed826111a6565b5b9050919050565b60606003805461070490613a17565b80601f016020809104026020016040519081016040528092919081815260200182805461073090613a17565b801561077d5780601f106107525761010080835404028352916020019161077d565b820191906000526020600020905b81548152906001019060200180831161076057829003601f168201915b5050505050905090565b600080610792611210565b905061079f818585611218565b600191505092915050565b6107b4338261122a565b50565b6000600254905090565b6000806107cc611210565b90506107d98582856112da565b6107e485858561136e565b60019150509392505050565b6000600860008473ffffffffffffffffffffffffffffffffffffffff1673ffffffffffffffffffffffffffffffffffffffff16815260200190815260200160002060008373ffffffffffffffffffffffffffffffffffffffff1673ffffffffffffffffffffffffffffffffffffffff16815260200190815260200160002054905092915050565b6000600a6000838152602001908152602001600020600101549050919050565b6108a082610877565b6108a981611462565b6108b38383611476565b50505050565b60006012905090565b6108ca611210565b73ffffffffffffffffffffffffffffffffffffffff168173ffffffffffffffffffffffffffffffffffffffff161461092e576040517f6697b23200000000000000000000000000000000000000000000000000000000815260040160405180910390fd5b6109388282611568565b505050565b600061095a836109558461095090613a48565b61165b565b61109c565b905092915050565b61098c7f9f2df0fed2c77648de5860a4cc508cd0818c85b8b8a1ab4ceeef8d981c8956a633610e3b565b1561099c5761099b828261122a565b5b5050565b6060816109ac90613a5b565b6000610a037f6bdaeb2d29561f159c7ef98b16b27015fb2aeb87209c7ee656226d912f59927d83600001516040516020016109e8929190613a6e565b60405160208183030381529060405280519060200120611671565b90506000610a1582846020015161168b565b90503373ffffffffffffffffffffffffffffffffffffffff168173ffffffffffffffffffffffffffffffffffffffff1614610a7c576040517f3093a27700000000000000000000000000000000000000000000000000000000815260040160405180910390fd5b610a93610a8933886107f0565b86600001356116b7565b935050505092915050565b606081836000610af97f6bdaeb2d29561f159c7ef98b16b27015fb2aeb87209c7ee656226d912f59927d8460000151604051602001610ade929190613a6e565b60405160208183030381529060405280519060200120611671565b90506000610b0b82856020015161168b565b90508273ffffffffffffffffffffffffffffffffffffffff168173ffffffffffffffffffffffffffffffffffffffff1614610b72576040517f51c65eae00000000000000000000000000000000000000000000000000000000815260040160405180910390fd5b610bc88660000151600760008a73ffffffffffffffffffffffffffffffffffffffff1673ffffffffffffffffffffffffffffffffffffffff168152602001908152602001600020546116ed90919063ffffffff16565b94505050505092915050565b6000610be58263ffffffff16611701565b90506000610c4e610c3e83600760003373ffffffffffffffffffffffffffffffffffffffff1673ffffffffffffffffffffffffffffffffffffffff1681526020019081526020016000205461171590919063ffffffff16565b610c486000611701565b84611729565b9050610c99600760003373ffffffffffffffffffffffffffffffffffffffff1673ffffffffffffffffffffffffffffffffffffffff16815260200190815260200160002054826117a7565b600760003373ffffffffffffffffffffffffffffffffffffffff1673ffffffffffffffffffffffffffffffffffffffff16815260200190815260200160002081905550610ce8600954826117a7565b600981905550610d0633610cfb836117bb565b63ffffffff1661187e565b505050565b60008060008373ffffffffffffffffffffffffffffffffffffffff1673ffffffffffffffffffffffffffffffffffffffff168152602001908152602001600020549050919050565b600060608060008060006060610d67611900565b610d6f61193b565b46306000801b600067ffffffffffffffff811115610d9057610d8f613010565b5b604051908082528060200260200182016040528015610dbe5781602001602082028036833780820191505090505b507f0f00000000000000000000000000000000000000000000000000000000000000959493929190965096509650965096509650965090919293949596565b600080610e1283610e0d90613a48565b61165b565b90506000610e21863384611976565b9050610e2e8686836119b3565b5080925050509392505050565b6000600a600084815260200190815260200160002060000160008373ffffffffffffffffffffffffffffffffffffffff1673ffffffffffffffffffffffffffffffffffffffff16815260200190815260200160002060009054906101000a900460ff16905092915050565b606060048054610eb590613a17565b80601f0160208091040260200160405190810160405280929190818152602001828054610ee190613a17565b8015610f2e5780601f10610f0357610100808354040283529160200191610f2e565b820191906000526020600020905b815481529060010190602001808311610f1157829003601f168201915b5050505050905090565b8063ffffffff16610f4833610d0b565b1015610f80576040517ffda7bbda00000000000000000000000000000000000000000000000000000000815260040160405180910390fd5b610f90338263ffffffff16611b40565b6000610fa18263ffffffff16611701565b9050610fec600760003373ffffffffffffffffffffffffffffffffffffffff1673ffffffffffffffffffffffffffffffffffffffff1681526020019081526020016000205482611bc2565b600760003373ffffffffffffffffffffffffffffffffffffffff1673ffffffffffffffffffffffffffffffffffffffff1681526020019081526020016000208190555061103b60095482611bc2565b6009819055505050565b6000801b81565b600080611057611210565b905061106481858561136e565b600191505092915050565b6000808290506000611082863384611976565b905061108f8686836119b3565b5080925050509392505050565b60006110a93384846119b3565b905092915050565b7f9f2df0fed2c77648de5860a4cc508cd0818c85b8b8a1ab4ceeef8d981c8956a681565b6110de82610877565b6110e781611462565b6110f18383611568565b50505050565b600061111533846111108561110b90613a48565b61165b565b611bd6565b6001905092915050565b6000600160008473ffffffffffffffffffffffffffffffffffffffff1673ffffffffffffffffffffffffffffffffffffffff16815260200190815260200160002060008373ffffffffffffffffffffffffffffffffffffffff1673ffffffffffffffffffffffffffffffffffffffff16815260200190815260200160002054905092915050565b60007f01ffc9a7000000000000000000000000000000000000000000000000000000007bffffffffffffffffffffffffffffffffffffffffffffffffffffffff1916827bffffffffffffffffffffffffffffffffffffffffffffffffffffffff1916149050919050565b600033905090565b6112258383836001611d40565b505050565b60006112358261165b565b9050611280600760008573ffffffffffffffffffffffffffffffffffffffff1673ffffffffffffffffffffffffffffffffffffffff1681526020019081526020016000205482611bc2565b600760008573ffffffffffffffffffffffffffffffffffffffff1673ffffffffffffffffffffffffffffffffffffffff168152602001908152602001600020819055506112cf60095482611bc2565b600981905550505050565b60006112e6848461111f565b90507fffffffffffffffffffffffffffffffffffffffffffffffffffffffffffffffff81146113685781811015611358578281836040517ffb8f41b200000000000000000000000000000000000000000000000000000000815260040161134f93929190613a97565b60405180910390fd5b61136784848484036000611d40565b5b50505050565b600073ffffffffffffffffffffffffffffffffffffffff168373ffffffffffffffffffffffffffffffffffffffff16036113e05760006040517f96c6fd1e0000000000000000000000000000000000000000000000000000000081526004016113d79190613ace565b60405180910390fd5b600073ffffffffffffffffffffffffffffffffffffffff168273ffffffffffffffffffffffffffffffffffffffff16036114525760006040517fec442f050000000000000000000000000000000000000000000000000000000081526004016114499190613ace565b60405180910390fd5b61145d838383611f17565b505050565b6114738161146e611210565b61213c565b50565b60006114828383610e3b565b61155d576001600a600085815260200190815260200160002060000160008473ffffffffffffffffffffffffffffffffffffffff1673ffffffffffffffffffffffffffffffffffffffff16815260200190815260200160002060006101000a81548160ff0219169083151502179055506114fa611210565b73ffffffffffffffffffffffffffffffffffffffff168273ffffffffffffffffffffffffffffffffffffffff16847f2f8788117e7eff1d82e926ec794901d17c78024a50270940304540a733656f0d60405160405180910390a460019050611562565b600090505b92915050565b60006115748383610e3b565b15611650576000600a600085815260200190815260200160002060000160008473ffffffffffffffffffffffffffffffffffffffff1673ffffffffffffffffffffffffffffffffffffffff16815260200190815260200160002060006101000a81548160ff0219169083151502179055506115ed611210565b73ffffffffffffffffffffffffffffffffffffffff168273ffffffffffffffffffffffffffffffffffffffff16847ff6391f5c32d9c69d2a47ea670b442974b53935d1edc7fd64eb21e047a839171b60405160405180910390a460019050611655565b600090505b92915050565b600061166a826000015161218d565b9050919050565b600061168461167e6121a1565b83612258565b9050919050565b60008060008061169b8686612299565b9250925092506116ab82826122f5565b82935050505092915050565b60606116c283612459565b6116d3576116d06000611701565b92505b60008390506116e460028285612466565b91505092915050565b60606116f983836116b7565b905092915050565b600061170e82600261251c565b9050919050565b600061172183836125be565b905092915050565b600061173484612637565b611745576117426000612644565b93505b61174e83612459565b61175f5761175c6000611701565b92505b61176882612459565b611779576117766000611701565b91505b60008490506000849050600084905060006117976002858585612658565b9050809450505050509392505050565b60006117b38383612710565b905092915050565b60006117c682612459565b6117d7576117d46000611701565b91505b600082905060006117e782612789565b90506000608073ffffffffffffffffffffffffffffffffffffffff166373cc01546002846040518363ffffffff1660e01b8152600401611828929190613ae9565b602060405180830381865afa158015611845573d6000803e3d6000fd5b505050506040513d601f19601f820116820180604052508101906118699190613b2e565b9050611874816127e6565b9350505050919050565b600073ffffffffffffffffffffffffffffffffffffffff168273ffffffffffffffffffffffffffffffffffffffff16036118f05760006040517fec442f050000000000000000000000000000000000000000000000000000000081526004016118e79190613ace565b60405180910390fd5b6118fc60008383611f17565b5050565b606061193660057f00000000000000000000000000000000000000000000000000000000000000006127f090919063ffffffff16565b905090565b606061197160067f00000000000000000000000000000000000000000000000000000000000000006127f090919063ffffffff16565b905090565b60008061198385856107f0565b9050600061199182856128a0565b90506119a786866119a285856117a7565b611bd6565b80925050509392505050565b600080611a1b611a0b600760008873ffffffffffffffffffffffffffffffffffffffff1673ffffffffffffffffffffffffffffffffffffffff168152602001908152602001600020548561291990919063ffffffff16565b84611a166000611701565b611729565b9050611a66600760008673ffffffffffffffffffffffffffffffffffffffff1673ffffffffffffffffffffffffffffffffffffffff1681526020019081526020016000205482611bc2565b600760008673ffffffffffffffffffffffffffffffffffffffff1673ffffffffffffffffffffffffffffffffffffffff16815260200190815260200160002081905550611af2600760008773ffffffffffffffffffffffffffffffffffffffff1673ffffffffffffffffffffffffffffffffffffffff16815260200190815260200160002054826117a7565b600760008773ffffffffffffffffffffffffffffffffffffffff1673ffffffffffffffffffffffffffffffffffffffff16815260200190815260200160002081905550809150509392505050565b600073ffffffffffffffffffffffffffffffffffffffff168273ffffffffffffffffffffffffffffffffffffffff1603611bb25760006040517f96c6fd1e000000000000000000000000000000000000000000000000000000008152600401611ba99190613ace565b60405180910390fd5b611bbe82600083611f17565b5050565b6000611bce838361292d565b905092915050565b600073ffffffffffffffffffffffffffffffffffffffff168373ffffffffffffffffffffffffffffffffffffffff1603611c485760006040517fe602df05000000000000000000000000000000000000000000000000000000008152600401611c3f9190613ace565b60405180910390fd5b600073ffffffffffffffffffffffffffffffffffffffff168273ffffffffffffffffffffffffffffffffffffffff1603611cba5760006040517f94280d62000000000000000000000000000000000000000000000000000000008152600401611cb19190613ace565b60405180910390fd5b80600860008573ffffffffffffffffffffffffffffffffffffffff1673ffffffffffffffffffffffffffffffffffffffff16815260200190815260200160002060008473ffffffffffffffffffffffffffffffffffffffff1673ffffffffffffffffffffffffffffffffffffffff16815260200190815260200160002081905550505050565b600073ffffffffffffffffffffffffffffffffffffffff168473ffffffffffffffffffffffffffffffffffffffff1603611db25760006040517fe602df05000000000000000000000000000000000000000000000000000000008152600401611da99190613ace565b60405180910390fd5b600073ffffffffffffffffffffffffffffffffffffffff168373ffffffffffffffffffffffffffffffffffffffff1603611e245760006040517f94280d62000000000000000000000000000000000000000000000000000000008152600401611e1b9190613ace565b60405180910390fd5b81600160008673ffffffffffffffffffffffffffffffffffffffff1673ffffffffffffffffffffffffffffffffffffffff16815260200190815260200160002060008573ffffffffffffffffffffffffffffffffffffffff1673ffffffffffffffffffffffffffffffffffffffff168152602001908152602001600020819055508015611f11578273ffffffffffffffffffffffffffffffffffffffff168473ffffffffffffffffffffffffffffffffffffffff167f8c5be1e5ebec7d5bd14f71427d1e84f3dd0314c0f7b2291e5b200ac8c7c3b92584604051611f0891906131fa565b60405180910390a35b50505050565b600073ffffffffffffffffffffffffffffffffffffffff168373ffffffffffffffffffffffffffffffffffffffff1603611f69578060026000828254611f5d9190613b8a565b9250508190555061203c565b60008060008573ffffffffffffffffffffffffffffffffffffffff1673ffffffffffffffffffffffffffffffffffffffff16815260200190815260200160002054905081811015611ff5578381836040517fe450d38c000000000000000000000000000000000000000000000000000000008152600401611fec93929190613a97565b60405180910390fd5b8181036000808673ffffffffffffffffffffffffffffffffffffffff1673ffffffffffffffffffffffffffffffffffffffff16815260200190815260200160002081905550505b600073ffffffffffffffffffffffffffffffffffffffff168273ffffffffffffffffffffffffffffffffffffffff160361208557806002600082825403925050819055506120d2565b806000808473ffffffffffffffffffffffffffffffffffffffff1673ffffffffffffffffffffffffffffffffffffffff168152602001908152602001600020600082825401925050819055505b8173ffffffffffffffffffffffffffffffffffffffff168373ffffffffffffffffffffffffffffffffffffffff167fddf252ad1be2c89b69c2b068fc378daa952ba7f163c4a11628f55a4df523b3ef8360405161212f91906131fa565b60405180910390a3505050565b6121468282610e3b565b6121895780826040517fe2517d3f000000000000000000000000000000000000000000000000000000008152600401612180929190613bbe565b60405180910390fd5b5050565b600061219a8260026129a5565b9050919050565b60007f000000000000000000000000000000000000000000000000000000000000000073ffffffffffffffffffffffffffffffffffffffff163073ffffffffffffffffffffffffffffffffffffffff1614801561221d57507f000000000000000000000000000000000000000000000000000000000000000046145b1561224a577f00000000000000000000000000000000000000000000000000000000000000009050612255565b612252612a3f565b90505b90565b60006040517f190100000000000000000000000000000000000000000000000000000000000081528360028201528260228201526042812091505092915050565b600080600060418451036122de5760008060006020870151925060408701519150606087015160001a90506122d088828585612ad5565b9550955095505050506122ee565b60006002855160001b9250925092505b9250925092565b6000600381111561230957612308613be7565b5b82600381111561231c5761231b613be7565b5b0315612455576001600381111561233657612335613be7565b5b82600381111561234957612348613be7565b5b03612380576040517ff645eedf00000000000000000000000000000000000000000000000000000000815260040160405180910390fd5b6002600381111561239457612393613be7565b5b8260038111156123a7576123a6613be7565b5b036123ec578060001c6040517ffce698f70000000000000000000000000000000000000000000000000000000081526004016123e391906131fa565b60405180910390fd5b6003808111156123ff576123fe613be7565b5b82600381111561241257612411613be7565b5b0361245457806040517fd78bce0c00000000000000000000000000000000000000000000000000000000815260040161244b9190613370565b60405180910390fd5b5b5050565b6000808214159050919050565b6060608073ffffffffffffffffffffffffffffffffffffffff1663a1848ff38561248f86612789565b856040516020016124a09190613c37565b6040516020818303038152906040526040518463ffffffff1660e01b81526004016124cd93929190613c52565b600060405180830381865afa1580156124ea573d6000803e3d6000fd5b505050506040513d6000823e3d601f19601f820116820180604052508101906125139190613d07565b90509392505050565b60006060608073ffffffffffffffffffffffffffffffffffffffff166319e1c5c461254686612789565b856040518363ffffffff1660e01b8152600401612564929190613d50565b600060405180830381865afa158015612581573d6000803e3d6000fd5b505050506040513d6000823e3d601f19601f820116820180604052508101906125aa9190613d07565b90506125b581612bc9565b91505092915050565b60006125c983612459565b6125da576125d76000611701565b92505b6125e382612459565b6125f4576125f16000611701565b91505b60008390506000839050600061262960028484608073ffffffffffffffffffffffffffffffffffffffff1663874b1c10612bd7565b905080935050505092915050565b6000808214159050919050565b600061265182600061251c565b9050919050565b60006060608073ffffffffffffffffffffffffffffffffffffffff1663c2d969528761268388612789565b61268c88612789565b61269588612789565b6040518563ffffffff1660e01b81526004016126b49493929190613d80565b600060405180830381865afa1580156126d1573d6000803e3d6000fd5b505050506040513d6000823e3d601f19601f820116820180604052508101906126fa9190613d07565b905061270581612bc9565b915050949350505050565b600061271b83612459565b61272c576127296000611701565b92505b61273582612459565b612746576127436000611701565b91505b60008390506000839050600061277b60028484608073ffffffffffffffffffffffffffffffffffffffff1663cc2cbeff612bd7565b905080935050505092915050565b6060602067ffffffffffffffff8111156127a6576127a5613010565b5b6040519080825280601f01601f1916602001820160405280156127d85781602001600182028036833780820191505090505b509050816020820152919050565b6000819050919050565b606060ff60001b831461280d5761280683612c6b565b905061289a565b81805461281990613a17565b80601f016020809104026020016040519081016040528092919081815260200182805461284590613a17565b80156128925780601f1061286757610100808354040283529160200191612892565b820191906000526020600020905b81548152906001019060200180831161287557829003601f168201915b505050505090505b92915050565b60006128ab83612459565b6128bc576128b96000611701565b92505b6128c582612459565b6128d6576128d36000611701565b91505b60008390506000839050600061290b60028484608073ffffffffffffffffffffffffffffffffffffffff16635211c679612bd7565b905080935050505092915050565b60006129258383612cdf565b905092915050565b600061293883612459565b612949576129466000611701565b92505b61295282612459565b612963576129606000611701565b91505b60008390506000839050600061299760028484608073ffffffffffffffffffffffffffffffffffffffff16622df619612bd7565b905080935050505092915050565b60006060608073ffffffffffffffffffffffffffffffffffffffff16635fa55ca784866040518363ffffffff1660e01b81526004016129e5929190613ae9565b600060405180830381865afa158015612a02573d6000803e3d6000fd5b505050506040513d6000823e3d601f19601f82011682018060405250810190612a2b9190613d07565b9050612a3681612bc9565b91505092915050565b60007f8b73c3c69bb8fe3d512ecc4cf759cc79239f7b179b0ffacaa9a75d522b39400f7f00000000000000000000000000000000000000000000000000000000000000007f00000000000000000000000000000000000000000000000000000000000000004630604051602001612aba959493929190613dda565b60405160208183030381529060405280519060200120905090565b60008060007f7fffffffffffffffffffffffffffffff5d576e7357a4501ddfe92f46681b20a08460001c1115612b15576000600385925092509250612bbf565b600060018888888860405160008152602001604052604051612b3a9493929190613e2d565b6020604051602081039080840390855afa158015612b5c573d6000803e3d6000fd5b505050602060405103519050600073ffffffffffffffffffffffffffffffffffffffff168173ffffffffffffffffffffffffffffffffffffffff1603612bb057600060016000801b93509350935050612bbf565b8060008060001b935093509350505b9450945094915050565b600060208201519050919050565b60006060838388612be789612789565b612bf089612789565b6040518463ffffffff1660e01b8152600401612c0e93929190613c52565b600060405180830381865afa158015612c2b573d6000803e3d6000fd5b505050506040513d6000823e3d601f19601f82011682018060405250810190612c549190613d07565b9050612c5f81612d58565b91505095945050505050565b60606000612c7883612d66565b90506000602067ffffffffffffffff811115612c9757612c96613010565b5b6040519080825280601f01601f191660200182016040528015612cc95781602001600182028036833780820191505090505b5090508181528360208201528092505050919050565b6000612cea83612459565b612cfb57612cf86000611701565b92505b612d0482612459565b612d1557612d126000611701565b91505b600083905060008390506000612d4a60028484608073ffffffffffffffffffffffffffffffffffffffff1663b9c7a54b612bd7565b905080935050505092915050565b600060208201519050919050565b60008060ff8360001c169050601f811115612dad576040517fb3512b0c00000000000000000000000000000000000000000000000000000000815260040160405180910390fd5b80915050919050565b6000604051905090565b600080fd5b600080fd5b60007fffffffff0000000000000000000000000000000000000000000000000000000082169050919050565b612dff81612dca565b8114612e0a57600080fd5b50565b600081359050612e1c81612df6565b92915050565b600060208284031215612e3857612e37612dc0565b5b6000612e4684828501612e0d565b91505092915050565b60008115159050919050565b612e6481612e4f565b82525050565b6000602082019050612e7f6000830184612e5b565b92915050565b600081519050919050565b600082825260208201905092915050565b60005b83811015612ebf578082015181840152602081019050612ea4565b60008484015250505050565b6000601f19601f8301169050919050565b6000612ee782612e85565b612ef18185612e90565b9350612f01818560208601612ea1565b612f0a81612ecb565b840191505092915050565b60006020820190508181036000830152612f2f8184612edc565b905092915050565b600073ffffffffffffffffffffffffffffffffffffffff82169050919050565b6000612f6282612f37565b9050919050565b612f7281612f57565b8114612f7d57600080fd5b50565b600081359050612f8f81612f69565b92915050565b6000819050919050565b612fa881612f95565b8114612fb357600080fd5b50565b600081359050612fc581612f9f565b92915050565b60008060408385031215612fe257612fe1612dc0565b5b6000612ff085828601612f80565b925050602061300185828601612fb6565b9150509250929050565b600080fd5b7f4e487b7100000000000000000000000000000000000000000000000000000000600052604160045260246000fd5b61304882612ecb565b810181811067ffffffffffffffff8211171561306757613066613010565b5b80604052505050565b600061307a612db6565b9050613086828261303f565b919050565b600080fd5b600080fd5b600080fd5b600067ffffffffffffffff8211156130b5576130b4613010565b5b6130be82612ecb565b9050602081019050919050565b82818337600083830152505050565b60006130ed6130e88461309a565b613070565b90508281526020810184848401111561310957613108613095565b5b6131148482856130cb565b509392505050565b600082601f83011261313157613130613090565b5b81356131418482602086016130da565b91505092915050565b6000602082840312156131605761315f61300b565b5b61316a6020613070565b9050600082013567ffffffffffffffff81111561318a5761318961308b565b5b6131968482850161311c565b60008301525092915050565b6000602082840312156131b8576131b7612dc0565b5b600082013567ffffffffffffffff8111156131d6576131d5612dc5565b5b6131e28482850161314a565b91505092915050565b6131f481612f95565b82525050565b600060208201905061320f60008301846131eb565b92915050565b60008060006060848603121561322e5761322d612dc0565b5b600061323c86828701612f80565b935050602061324d86828701612f80565b925050604061325e86828701612fb6565b9150509250925092565b6000806040838503121561327f5761327e612dc0565b5b600061328d85828601612f80565b925050602061329e85828601612f80565b9150509250929050565b6000819050919050565b60006132cd6132c86132c384612f95565b6132a8565b612f95565b9050919050565b6132dd816132b2565b82525050565b60006020820190506132f860008301846132d4565b92915050565b6000819050919050565b613311816132fe565b811461331c57600080fd5b50565b60008135905061332e81613308565b92915050565b60006020828403121561334a57613349612dc0565b5b60006133588482850161331f565b91505092915050565b61336a816132fe565b82525050565b60006020820190506133856000830184613361565b92915050565b600080604083850312156133a2576133a1612dc0565b5b60006133b08582860161331f565b92505060206133c185828601612f80565b9150509250929050565b600060ff82169050919050565b6133e1816133cb565b82525050565b60006020820190506133fc60008301846133d8565b92915050565b600080fd5b60006020828403121561341d5761341c613402565b5b81905092915050565b6000806040838503121561343d5761343c612dc0565b5b600061344b85828601612f80565b925050602083013567ffffffffffffffff81111561346c5761346b612dc5565b5b61347885828601613407565b9150509250929050565b6000806040838503121561349957613498612dc0565b5b60006134a785828601612f80565b925050602083013567ffffffffffffffff8111156134c8576134c7612dc5565b5b6134d48582860161314a565b9150509250929050565b6000604082840312156134f4576134f3613402565b5b81905092915050565b6000806040838503121561351457613513612dc0565b5b600061352285828601612f80565b925050602083013567ffffffffffffffff81111561354357613542612dc5565b5b61354f858286016134de565b9150509250929050565b600081519050919050565b600082825260208201905092915050565b600061358082613559565b61358a8185613564565b935061359a818560208601612ea1565b6135a381612ecb565b840191505092915050565b600060208201905081810360008301526135c88184613575565b905092915050565b6000604082840312156135e6576135e561300b565b5b6135f06040613070565b905060006136008482850161331f565b600083015250602082013567ffffffffffffffff8111156136245761362361308b565b5b6136308482850161311c565b60208301525092915050565b6000806040838503121561365357613652612dc0565b5b600061366185828601612f80565b925050602083013567ffffffffffffffff81111561368257613681612dc5565b5b61368e858286016135d0565b9150509250929050565b600063ffffffff82169050919050565b6136b181613698565b81146136bc57600080fd5b50565b6000813590506136ce816136a8565b92915050565b6000602082840312156136ea576136e9612dc0565b5b60006136f8848285016136bf565b91505092915050565b60006020828403121561371757613716612dc0565b5b600061372584828501612f80565b91505092915050565b60007fff0000000000000000000000000000000000000000000000000000000000000082169050919050565b6137638161372e565b82525050565b61377281612f57565b82525050565b600081519050919050565b600082825260208201905092915050565b6000819050602082019050919050565b6137ad81612f95565b82525050565b60006137bf83836137a4565b60208301905092915050565b6000602082019050919050565b60006137e382613778565b6137ed8185613783565b93506137f883613794565b8060005b8381101561382957815161381088826137b3565b975061381b836137cb565b9250506001810190506137fc565b5085935050505092915050565b600060e08201905061384b600083018a61375a565b818103602083015261385d8189612edc565b905081810360408301526138718188612edc565b905061388060608301876131eb565b61388d6080830186613769565b61389a60a0830185613361565b81810360c08301526138ac81846137d8565b905098975050505050505050565b6000806000606084860312156138d3576138d2612dc0565b5b60006138e186828701612f80565b93505060206138f286828701612f80565b925050604084013567ffffffffffffffff81111561391357613912612dc5565b5b61391f86828701613407565b9150509250925092565b61393281612f95565b811461393d57600080fd5b50565b60008135905061394f81613929565b92915050565b60008060006060848603121561396e5761396d612dc0565b5b600061397c86828701612f80565b935050602061398d86828701612f80565b925050604061399e86828701613940565b9150509250925092565b600080604083850312156139bf576139be612dc0565b5b60006139cd85828601612f80565b92505060206139de85828601613940565b9150509250929050565b7f4e487b7100000000000000000000000000000000000000000000000000000000600052602260045260246000fd5b60006002820490506001821680613a2f57607f821691505b602082108103613a4257613a416139e8565b5b50919050565b6000613a54368361314a565b9050919050565b6000613a6736836135d0565b9050919050565b6000604082019050613a836000830185613361565b613a906020830184613361565b9392505050565b6000606082019050613aac6000830186613769565b613ab960208301856131eb565b613ac660408301846131eb565b949350505050565b6000602082019050613ae36000830184613769565b92915050565b6000604082019050613afe60008301856133d8565b8181036020830152613b108184613575565b90509392505050565b600081519050613b2881612f9f565b92915050565b600060208284031215613b4457613b43612dc0565b5b6000613b5284828501613b19565b91505092915050565b7f4e487b7100000000000000000000000000000000000000000000000000000000600052601160045260246000fd5b6000613b9582612f95565b9150613ba083612f95565b9250828201905080821115613bb857613bb7613b5b565b5b92915050565b6000604082019050613bd36000830185613769565b613be06020830184613361565b9392505050565b7f4e487b7100000000000000000000000000000000000000000000000000000000600052602160045260246000fd5b6000819050919050565b613c31613c2c826132fe565b613c16565b82525050565b6000613c438284613c20565b60208201915081905092915050565b6000606082019050613c6760008301866133d8565b8181036020830152613c798185613575565b90508181036040830152613c8d8184613575565b9050949350505050565b6000613caa613ca58461309a565b613070565b905082815260208101848484011115613cc657613cc5613095565b5b613cd1848285612ea1565b509392505050565b600082601f830112613cee57613ced613090565b5b8151613cfe848260208601613c97565b91505092915050565b600060208284031215613d1d57613d1c612dc0565b5b600082015167ffffffffffffffff811115613d3b57613d3a612dc5565b5b613d4784828501613cd9565b91505092915050565b60006040820190508181036000830152613d6a8185613575565b9050613d7960208301846133d8565b9392505050565b6000608082019050613d9560008301876133d8565b8181036020830152613da78186613575565b90508181036040830152613dbb8185613575565b90508181036060830152613dcf8184613575565b905095945050505050565b600060a082019050613def6000830188613361565b613dfc6020830187613361565b613e096040830186613361565b613e1660608301856131eb565b613e236080830184613769565b9695505050505050565b6000608082019050613e426000830187613361565b613e4f60208301866133d8565b613e5c6040830185613361565b613e696060830184613361565b9594505050505056fea26469706673582212204191ca7fde56ed184a434d6a38197d5ffb5e7a470de07e023d16d13dd5cfb83b64736f6c63430008140033",
  "devdoc": {
    "errors": {
      "AccessControlBadConfirmation()": [
        {
          "details": "The caller of a function is not the expected one. NOTE: Don't confuse with {AccessControlUnauthorizedAccount}."
        }
      ],
      "AccessControlUnauthorizedAccount(address,bytes32)": [
        {
          "details": "The `account` is missing a role."
        }
      ],
      "ECDSAInvalidSignature()": [
        {
          "details": "The signature derives the `address(0)`."
        }
      ],
      "ECDSAInvalidSignatureLength(uint256)": [
        {
          "details": "The signature has an invalid length."
        }
      ],
      "ECDSAInvalidSignatureS(bytes32)": [
        {
          "details": "The signature has an S value that is in the upper half order."
        }
      ],
      "ERC20InsufficientAllowance(address,uint256,uint256)": [
        {
          "details": "Indicates a failure with the `spender`s `allowance`. Used in transfers.",
          "params": {
            "allowance": "Amount of tokens a `spender` is allowed to operate with.",
            "needed": "Minimum amount required to perform a transfer.",
            "spender": "Address that may be allowed to operate on tokens without being their owner."
          }
        }
      ],
      "ERC20InsufficientBalance(address,uint256,uint256)": [
        {
          "details": "Indicates an error related to the current `balance` of a `sender`. Used in transfers.",
          "params": {
            "balance": "Current balance for the interacting account.",
            "needed": "Minimum amount required to perform a transfer.",
            "sender": "Address whose tokens are being transferred."
          }
        }
      ],
      "ERC20InvalidApprover(address)": [
        {
          "details": "Indicates a failure with the `approver` of a token to be approved. Used in approvals.",
          "params": {
            "approver": "Address initiating an approval operation."
          }
        }
      ],
      "ERC20InvalidReceiver(address)": [
        {
          "details": "Indicates a failure with the token `receiver`. Used in transfers.",
          "params": {
            "receiver": "Address to which tokens are being transferred."
          }
        }
      ],
      "ERC20InvalidSender(address)": [
        {
          "details": "Indicates a failure with the token `sender`. Used in transfers.",
          "params": {
            "sender": "Address whose tokens are being transferred."
          }
        }
      ],
      "ERC20InvalidSpender(address)": [
        {
          "details": "Indicates a failure with the `spender` to be approved. Used in approvals.",
          "params": {
            "spender": "Address that may be allowed to operate on tokens without being their owner."
          }
        }
      ]
    },
    "events": {
      "Approval(address,address,uint256)": {
        "details": "Emitted when the allowance of a `spender` for an `owner` is set by a call to {approve}. `value` is the new allowance."
      },
      "ApprovalEncrypted(address,address)": {
        "details": "Emitted when the allowance of a `spender` for an `owner` is set by a call to {approveEncrypted}. `value` is the new allowance."
      },
      "EIP712DomainChanged()": {
        "details": "MAY be emitted to signal that the domain could have changed."
      },
      "RoleAdminChanged(bytes32,bytes32,bytes32)": {
        "details": "Emitted when `newAdminRole` is set as ``role``'s admin role, replacing `previousAdminRole` `DEFAULT_ADMIN_ROLE` is the starting admin for all roles, despite {RoleAdminChanged} not being emitted signaling this."
      },
      "RoleGranted(bytes32,address,address)": {
        "details": "Emitted when `account` is granted `role`. `sender` is the account that originated the contract call, an admin role bearer except when using {AccessControl-_setupRole}."
      },
      "RoleRevoked(bytes32,address,address)": {
        "details": "Emitted when `account` is revoked `role`. `sender` is the account that originated the contract call:   - if using `revokeRole`, it is the admin role bearer   - if using `renounceRole`, it is the role bearer (i.e. `account`)"
      },
      "Transfer(address,address,uint256)": {
        "details": "Emitted when `value` tokens are moved from one account (`from`) to another (`to`). Note that `value` may be zero."
      },
      "TransferEncrypted(address,address)": {
        "details": "Emitted when `value` tokens are moved from one account (`from`) to another (`to`). Note that `value` may be zero."
      }
    },
    "kind": "dev",
    "methods": {
      "allowance(address,address)": {
        "details": "See {IERC20-allowance}."
      },
      "allowanceEncrypted(address,(bytes32,bytes))": {
        "details": "Returns the remaining number of tokens that `spender` will be allowed to spend on behalf of `owner` through {transferFrom}. This is zero by default. This value changes when {approve} or {transferFrom} are called."
      },
      "approve(address,uint256)": {
        "details": "See {IERC20-approve}. NOTE: If `value` is the maximum `uint256`, the allowance is not updated on `transferFrom`. This is semantically equivalent to an infinite approval. Requirements: - `spender` cannot be the zero address."
      },
      "approveEncrypted(address,(bytes))": {
        "details": "Sets a `value` amount of tokens as the allowance of `spender` over the caller's tokens. Returns a boolean value indicating whether the operation succeeded. IMPORTANT: Beware that changing an allowance with this method brings the risk that someone may use both the old and the new allowance by unfortunate transaction ordering. One possible solution to mitigate this race condition is to first reduce the spender's allowance to 0 and set the desired value afterwards: https://github.com/ethereum/EIPs/issues/20#issuecomment-263524729 Emits an {ApprovalEncrypted} event."
      },
      "balanceOf(address)": {
        "details": "See {IERC20-balanceOf}."
      },
      "balanceOfEncrypted(address,(bytes32,bytes))": {
        "details": "Returns the value of tokens owned by `account`, sealed and encrypted for the caller."
      },
      "decimals()": {
        "details": "Returns the number of decimals used to get its user representation. For example, if `decimals` equals `2`, a balance of `505` tokens should be displayed to a user as `5.05` (`505 / 10 ** 2`). Tokens usually opt for a value of 18, imitating the relationship between Ether and Wei. This is the default value returned by this function, unless it's overridden. NOTE: This information is only used for _display_ purposes: it in no way affects any of the arithmetic of the contract, including {IERC20-balanceOf} and {IERC20-transfer}."
      },
      "eip712Domain()": {
        "details": "See {IERC-5267}."
      },
      "getRoleAdmin(bytes32)": {
        "details": "Returns the admin role that controls `role`. See {grantRole} and {revokeRole}. To change a role's admin, use {_setRoleAdmin}."
      },
      "grantRole(bytes32,address)": {
        "details": "Grants `role` to `account`. If `account` had not been already granted `role`, emits a {RoleGranted} event. Requirements: - the caller must have ``role``'s admin role. May emit a {RoleGranted} event."
      },
      "hasRole(bytes32,address)": {
        "details": "Returns `true` if `account` has been granted `role`."
      },
      "name()": {
        "details": "Returns the name of the token."
      },
      "renounceRole(bytes32,address)": {
        "details": "Revokes `role` from the calling account. Roles are often managed via {grantRole} and {revokeRole}: this function's purpose is to provide a mechanism for accounts to lose their privileges if they are compromised (such as when a trusted device is misplaced). If the calling account had been revoked `role`, emits a {RoleRevoked} event. Requirements: - the caller must be `callerConfirmation`. May emit a {RoleRevoked} event."
      },
      "revokeRole(bytes32,address)": {
        "details": "Revokes `role` from `account`. If `account` had been granted `role`, emits a {RoleRevoked} event. Requirements: - the caller must have ``role``'s admin role. May emit a {RoleRevoked} event."
      },
      "supportsInterface(bytes4)": {
        "details": "See {IERC165-supportsInterface}."
      },
      "symbol()": {
        "details": "Returns the symbol of the token, usually a shorter version of the name."
      },
      "totalSupply()": {
        "details": "See {IERC20-totalSupply}."
      },
      "transfer(address,uint256)": {
        "details": "See {IERC20-transfer}. Requirements: - `to` cannot be the zero address. - the caller must have a balance of at least `value`."
      },
      "transferFrom(address,address,uint256)": {
        "details": "See {IERC20-transferFrom}. Emits an {Approval} event indicating the updated allowance. This is not required by the EIP. See the note at the beginning of {ERC20}. NOTE: Does not update the allowance if the current allowance is the maximum `uint256`. Requirements: - `from` and `to` cannot be the zero address. - `from` must have a balance of at least `value`. - the caller must have allowance for ``from``'s tokens of at least `value`."
      },
      "transferFromEncrypted(address,address,(bytes))": {
        "details": "Moves a `value` amount of tokens from `from` to `to` using the allowance mechanism. `value` is then deducted from the caller's allowance. Returns a boolean value indicating whether the operation succeeded. Emits a {TransferEncrypted} event."
      }
    },
    "version": 1
  },
  "userdoc": {
    "errors": {
      "SignerNotMessageSender()": [
        {
          "notice": "Emitted when the signer is not the message sender"
        }
      ],
      "SignerNotOwner()": [
        {
          "notice": "Emitted when the signer is not the specified owner"
        }
      ]
    },
    "kind": "user",
    "methods": {},
    "version": 1
  },
  "storageLayout": {
    "storage": [
      {
        "astId": 9366,
        "contract": "contracts/ExampleToken.sol:ExampleToken",
        "label": "_balances",
        "offset": 0,
        "slot": "0",
        "type": "t_mapping(t_address,t_uint256)"
      },
      {
        "astId": 9372,
        "contract": "contracts/ExampleToken.sol:ExampleToken",
        "label": "_allowances",
        "offset": 0,
        "slot": "1",
        "type": "t_mapping(t_address,t_mapping(t_address,t_uint256))"
      },
      {
        "astId": 9374,
        "contract": "contracts/ExampleToken.sol:ExampleToken",
        "label": "_totalSupply",
        "offset": 0,
        "slot": "2",
        "type": "t_uint256"
      },
      {
        "astId": 9376,
        "contract": "contracts/ExampleToken.sol:ExampleToken",
        "label": "_name",
        "offset": 0,
        "slot": "3",
        "type": "t_string_storage"
      },
      {
        "astId": 9378,
        "contract": "contracts/ExampleToken.sol:ExampleToken",
        "label": "_symbol",
        "offset": 0,
        "slot": "4",
        "type": "t_string_storage"
      },
      {
        "astId": 10959,
        "contract": "contracts/ExampleToken.sol:ExampleToken",
        "label": "_nameFallback",
        "offset": 0,
        "slot": "5",
        "type": "t_string_storage"
      },
      {
        "astId": 10961,
        "contract": "contracts/ExampleToken.sol:ExampleToken",
        "label": "_versionFallback",
        "offset": 0,
        "slot": "6",
        "type": "t_string_storage"
      },
      {
        "astId": 13735,
        "contract": "contracts/ExampleToken.sol:ExampleToken",
        "label": "_encBalances",
        "offset": 0,
        "slot": "7",
        "type": "t_mapping(t_address,t_userDefinedValueType(euint32)12)"
      },
      {
        "astId": 13742,
        "contract": "contracts/ExampleToken.sol:ExampleToken",
        "label": "_allowed",
        "offset": 0,
        "slot": "8",
        "type": "t_mapping(t_address,t_mapping(t_address,t_userDefinedValueType(euint32)12))"
      },
      {
        "astId": 13749,
        "contract": "contracts/ExampleToken.sol:ExampleToken",
        "label": "totalEncryptedSupply",
        "offset": 0,
        "slot": "9",
        "type": "t_userDefinedValueType(euint32)12"
      },
      {
        "astId": 8829,
        "contract": "contracts/ExampleToken.sol:ExampleToken",
        "label": "_roles",
        "offset": 0,
        "slot": "10",
        "type": "t_mapping(t_bytes32,t_struct(RoleData)8824_storage)"
      }
    ],
    "types": {
      "t_address": {
        "encoding": "inplace",
        "label": "address",
        "numberOfBytes": "20"
      },
      "t_bool": {
        "encoding": "inplace",
        "label": "bool",
        "numberOfBytes": "1"
      },
      "t_bytes32": {
        "encoding": "inplace",
        "label": "bytes32",
        "numberOfBytes": "32"
      },
      "t_mapping(t_address,t_bool)": {
        "encoding": "mapping",
        "key": "t_address",
        "label": "mapping(address => bool)",
        "numberOfBytes": "32",
        "value": "t_bool"
      },
      "t_mapping(t_address,t_mapping(t_address,t_uint256))": {
        "encoding": "mapping",
        "key": "t_address",
        "label": "mapping(address => mapping(address => uint256))",
        "numberOfBytes": "32",
        "value": "t_mapping(t_address,t_uint256)"
      },
      "t_mapping(t_address,t_mapping(t_address,t_userDefinedValueType(euint32)12))": {
        "encoding": "mapping",
        "key": "t_address",
        "label": "mapping(address => mapping(address => euint32))",
        "numberOfBytes": "32",
        "value": "t_mapping(t_address,t_userDefinedValueType(euint32)12)"
      },
      "t_mapping(t_address,t_uint256)": {
        "encoding": "mapping",
        "key": "t_address",
        "label": "mapping(address => uint256)",
        "numberOfBytes": "32",
        "value": "t_uint256"
      },
      "t_mapping(t_address,t_userDefinedValueType(euint32)12)": {
        "encoding": "mapping",
        "key": "t_address",
        "label": "mapping(address => euint32)",
        "numberOfBytes": "32",
        "value": "t_userDefinedValueType(euint32)12"
      },
      "t_mapping(t_bytes32,t_struct(RoleData)8824_storage)": {
        "encoding": "mapping",
        "key": "t_bytes32",
        "label": "mapping(bytes32 => struct AccessControl.RoleData)",
        "numberOfBytes": "32",
        "value": "t_struct(RoleData)8824_storage"
      },
      "t_string_storage": {
        "encoding": "bytes",
        "label": "string",
        "numberOfBytes": "32"
      },
      "t_struct(RoleData)8824_storage": {
        "encoding": "inplace",
        "label": "struct AccessControl.RoleData",
        "members": [
          {
            "astId": 8821,
            "contract": "contracts/ExampleToken.sol:ExampleToken",
            "label": "hasRole",
            "offset": 0,
            "slot": "0",
            "type": "t_mapping(t_address,t_bool)"
          },
          {
            "astId": 8823,
            "contract": "contracts/ExampleToken.sol:ExampleToken",
            "label": "adminRole",
            "offset": 0,
            "slot": "1",
            "type": "t_bytes32"
          }
        ],
        "numberOfBytes": "64"
      },
      "t_uint256": {
        "encoding": "inplace",
        "label": "uint256",
        "numberOfBytes": "32"
      },
      "t_userDefinedValueType(euint32)12": {
        "encoding": "inplace",
        "label": "euint32",
        "numberOfBytes": "32"
      }
    }
  }
}