{
  "_format": "hh-sol-artifact-1",
  "contractName": "ExampleToken",
  "sourceName": "contracts/ExampleToken.sol",
  "abi": [
    {
      "inputs": [
        {
          "internalType": "string",
          "name": "name",
          "type": "string"
        },
        {
          "internalType": "string",
          "name": "symbol",
          "type": "string"
        }
      ],
      "stateMutability": "nonpayable",
      "type": "constructor"
    },
    {
      "inputs": [],
      "name": "ECDSAInvalidSignature",
      "type": "error"
    },
    {
      "inputs": [
        {
          "internalType": "uint256",
          "name": "length",
          "type": "uint256"
        }
      ],
      "name": "ECDSAInvalidSignatureLength",
      "type": "error"
    },
    {
      "inputs": [
        {
          "internalType": "bytes32",
          "name": "s",
          "type": "bytes32"
        }
      ],
      "name": "ECDSAInvalidSignatureS",
      "type": "error"
    },
    {
      "inputs": [
        {
          "internalType": "address",
          "name": "spender",
          "type": "address"
        },
        {
          "internalType": "uint256",
          "name": "allowance",
          "type": "uint256"
        },
        {
          "internalType": "uint256",
          "name": "needed",
          "type": "uint256"
        }
      ],
      "name": "ERC20InsufficientAllowance",
      "type": "error"
    },
    {
      "inputs": [
        {
          "internalType": "address",
          "name": "sender",
          "type": "address"
        },
        {
          "internalType": "uint256",
          "name": "balance",
          "type": "uint256"
        },
        {
          "internalType": "uint256",
          "name": "needed",
          "type": "uint256"
        }
      ],
      "name": "ERC20InsufficientBalance",
      "type": "error"
    },
    {
      "inputs": [
        {
          "internalType": "address",
          "name": "approver",
          "type": "address"
        }
      ],
      "name": "ERC20InvalidApprover",
      "type": "error"
    },
    {
      "inputs": [
        {
          "internalType": "address",
          "name": "receiver",
          "type": "address"
        }
      ],
      "name": "ERC20InvalidReceiver",
      "type": "error"
    },
    {
      "inputs": [
        {
          "internalType": "address",
          "name": "sender",
          "type": "address"
        }
      ],
      "name": "ERC20InvalidSender",
      "type": "error"
    },
    {
      "inputs": [
        {
          "internalType": "address",
          "name": "spender",
          "type": "address"
        }
      ],
      "name": "ERC20InvalidSpender",
      "type": "error"
    },
    {
      "inputs": [],
      "name": "ErrorInsufficientFunds",
      "type": "error"
    },
    {
      "inputs": [],
      "name": "InvalidShortString",
      "type": "error"
    },
    {
      "inputs": [],
      "name": "SignerNotMessageSender",
      "type": "error"
    },
    {
      "inputs": [],
      "name": "SignerNotOwner",
      "type": "error"
    },
    {
      "inputs": [
        {
          "internalType": "string",
          "name": "str",
          "type": "string"
        }
      ],
      "name": "StringTooLong",
      "type": "error"
    },
    {
      "anonymous": false,
      "inputs": [
        {
          "indexed": true,
          "internalType": "address",
          "name": "owner",
          "type": "address"
        },
        {
          "indexed": true,
          "internalType": "address",
          "name": "spender",
          "type": "address"
        },
        {
          "indexed": false,
          "internalType": "uint256",
          "name": "value",
          "type": "uint256"
        }
      ],
      "name": "Approval",
      "type": "event"
    },
    {
      "anonymous": false,
      "inputs": [
        {
          "indexed": true,
          "internalType": "address",
          "name": "owner",
          "type": "address"
        },
        {
          "indexed": true,
          "internalType": "address",
          "name": "spender",
          "type": "address"
        }
      ],
      "name": "ApprovalEncrypted",
      "type": "event"
    },
    {
      "anonymous": false,
      "inputs": [],
      "name": "EIP712DomainChanged",
      "type": "event"
    },
    {
      "anonymous": false,
      "inputs": [
        {
          "indexed": true,
          "internalType": "address",
          "name": "from",
          "type": "address"
        },
        {
          "indexed": true,
          "internalType": "address",
          "name": "to",
          "type": "address"
        },
        {
          "indexed": false,
          "internalType": "uint256",
          "name": "value",
          "type": "uint256"
        }
      ],
      "name": "Transfer",
      "type": "event"
    },
    {
      "anonymous": false,
      "inputs": [
        {
          "indexed": true,
          "internalType": "address",
          "name": "from",
          "type": "address"
        },
        {
          "indexed": true,
          "internalType": "address",
          "name": "to",
          "type": "address"
        }
      ],
      "name": "TransferEncrypted",
      "type": "event"
    },
    {
      "inputs": [
        {
          "internalType": "address",
          "name": "owner",
          "type": "address"
        },
        {
          "internalType": "address",
          "name": "spender",
          "type": "address"
        }
      ],
      "name": "_allowanceEncrypted",
      "outputs": [
        {
          "internalType": "euint32",
          "name": "",
          "type": "uint256"
        }
      ],
      "stateMutability": "view",
      "type": "function"
    },
    {
      "inputs": [
        {
          "internalType": "address",
          "name": "owner",
          "type": "address"
        },
        {
          "internalType": "address",
          "name": "spender",
          "type": "address"
        }
      ],
      "name": "allowance",
      "outputs": [
        {
          "internalType": "uint256",
          "name": "",
          "type": "uint256"
        }
      ],
      "stateMutability": "view",
      "type": "function"
    },
    {
      "inputs": [
        {
          "internalType": "address",
          "name": "spender",
          "type": "address"
        },
        {
          "components": [
            {
              "internalType": "bytes32",
              "name": "publicKey",
              "type": "bytes32"
            },
            {
              "internalType": "bytes",
              "name": "signature",
              "type": "bytes"
            }
          ],
          "internalType": "struct Permission",
          "name": "permission",
          "type": "tuple"
        }
      ],
      "name": "allowanceEncrypted",
      "outputs": [
        {
          "internalType": "string",
          "name": "",
          "type": "string"
        }
      ],
      "stateMutability": "view",
      "type": "function"
    },
    {
      "inputs": [
        {
          "internalType": "address",
          "name": "spender",
          "type": "address"
        },
        {
          "internalType": "uint256",
          "name": "value",
          "type": "uint256"
        }
      ],
      "name": "approve",
      "outputs": [
        {
          "internalType": "bool",
          "name": "",
          "type": "bool"
        }
      ],
      "stateMutability": "nonpayable",
      "type": "function"
    },
    {
      "inputs": [
        {
          "internalType": "address",
          "name": "spender",
          "type": "address"
        },
        {
          "components": [
            {
              "internalType": "bytes",
              "name": "data",
              "type": "bytes"
            }
          ],
          "internalType": "struct inEuint32",
          "name": "value",
          "type": "tuple"
        }
      ],
      "name": "approveEncrypted",
      "outputs": [
        {
          "internalType": "bool",
          "name": "",
          "type": "bool"
        }
      ],
      "stateMutability": "nonpayable",
      "type": "function"
    },
    {
      "inputs": [
        {
          "internalType": "address",
          "name": "account",
          "type": "address"
        }
      ],
      "name": "balanceOf",
      "outputs": [
        {
          "internalType": "uint256",
          "name": "",
          "type": "uint256"
        }
      ],
      "stateMutability": "view",
      "type": "function"
    },
    {
      "inputs": [
        {
          "internalType": "address",
          "name": "account",
          "type": "address"
        },
        {
          "components": [
            {
              "internalType": "bytes32",
              "name": "publicKey",
              "type": "bytes32"
            },
            {
              "internalType": "bytes",
              "name": "signature",
              "type": "bytes"
            }
          ],
          "internalType": "struct Permission",
          "name": "auth",
          "type": "tuple"
        }
      ],
      "name": "balanceOfEncrypted",
      "outputs": [
        {
          "internalType": "string",
          "name": "",
          "type": "string"
        }
      ],
      "stateMutability": "view",
      "type": "function"
    },
    {
      "inputs": [],
      "name": "contractOwner",
      "outputs": [
        {
          "internalType": "address",
          "name": "",
          "type": "address"
        }
      ],
      "stateMutability": "view",
      "type": "function"
    },
    {
      "inputs": [],
      "name": "decimals",
      "outputs": [
        {
          "internalType": "uint8",
          "name": "",
          "type": "uint8"
        }
      ],
      "stateMutability": "view",
      "type": "function"
    },
    {
      "inputs": [],
      "name": "diableAutoWrapping",
      "outputs": [],
      "stateMutability": "nonpayable",
      "type": "function"
    },
    {
      "inputs": [],
      "name": "eip712Domain",
      "outputs": [
        {
          "internalType": "bytes1",
          "name": "fields",
          "type": "bytes1"
        },
        {
          "internalType": "string",
          "name": "name",
          "type": "string"
        },
        {
          "internalType": "string",
          "name": "version",
          "type": "string"
        },
        {
          "internalType": "uint256",
          "name": "chainId",
          "type": "uint256"
        },
        {
          "internalType": "address",
          "name": "verifyingContract",
          "type": "address"
        },
        {
          "internalType": "bytes32",
          "name": "salt",
          "type": "bytes32"
        },
        {
          "internalType": "uint256[]",
          "name": "extensions",
          "type": "uint256[]"
        }
      ],
      "stateMutability": "view",
      "type": "function"
    },
    {
      "inputs": [],
      "name": "enableAutoWrapping",
      "outputs": [],
      "stateMutability": "nonpayable",
      "type": "function"
    },
    {
      "inputs": [
        {
          "internalType": "uint256",
          "name": "amount",
          "type": "uint256"
        }
      ],
      "name": "mint",
      "outputs": [],
      "stateMutability": "nonpayable",
      "type": "function"
    },
    {
      "inputs": [
        {
          "components": [
            {
              "internalType": "bytes",
              "name": "data",
              "type": "bytes"
            }
          ],
          "internalType": "struct inEuint32",
          "name": "encryptedAmount",
          "type": "tuple"
        }
      ],
      "name": "mintEncrypted",
      "outputs": [],
      "stateMutability": "nonpayable",
      "type": "function"
    },
    {
      "inputs": [],
      "name": "name",
      "outputs": [
        {
          "internalType": "string",
          "name": "",
          "type": "string"
        }
      ],
      "stateMutability": "view",
      "type": "function"
    },
    {
      "inputs": [],
      "name": "symbol",
      "outputs": [
        {
          "internalType": "string",
          "name": "",
          "type": "string"
        }
      ],
      "stateMutability": "view",
      "type": "function"
    },
    {
      "inputs": [],
      "name": "totalSupply",
      "outputs": [
        {
          "internalType": "uint256",
          "name": "",
          "type": "uint256"
        }
      ],
      "stateMutability": "view",
      "type": "function"
    },
    {
      "inputs": [
        {
          "internalType": "address",
          "name": "to",
          "type": "address"
        },
        {
          "internalType": "uint256",
          "name": "value",
          "type": "uint256"
        }
      ],
      "name": "transfer",
      "outputs": [
        {
          "internalType": "bool",
          "name": "",
          "type": "bool"
        }
      ],
      "stateMutability": "nonpayable",
      "type": "function"
    },
    {
      "inputs": [
        {
          "internalType": "address",
          "name": "to",
          "type": "address"
        },
        {
          "components": [
            {
              "internalType": "bytes",
              "name": "data",
              "type": "bytes"
            }
          ],
          "internalType": "struct inEuint32",
          "name": "encryptedAmount",
          "type": "tuple"
        }
      ],
      "name": "transferEncrypted",
      "outputs": [
        {
          "internalType": "euint32",
          "name": "",
          "type": "uint256"
        }
      ],
      "stateMutability": "nonpayable",
      "type": "function"
    },
    {
      "inputs": [
        {
          "internalType": "address",
          "name": "to",
          "type": "address"
        },
        {
          "internalType": "euint32",
          "name": "amount",
          "type": "uint256"
        }
      ],
      "name": "transferEncrypted",
      "outputs": [
        {
          "internalType": "euint32",
          "name": "",
          "type": "uint256"
        }
      ],
      "stateMutability": "nonpayable",
      "type": "function"
    },
    {
      "inputs": [
        {
          "internalType": "address",
          "name": "from",
          "type": "address"
        },
        {
          "internalType": "address",
          "name": "to",
          "type": "address"
        },
        {
          "internalType": "uint256",
          "name": "value",
          "type": "uint256"
        }
      ],
      "name": "transferFrom",
      "outputs": [
        {
          "internalType": "bool",
          "name": "",
          "type": "bool"
        }
      ],
      "stateMutability": "nonpayable",
      "type": "function"
    },
    {
      "inputs": [
        {
          "internalType": "address",
          "name": "from",
          "type": "address"
        },
        {
          "internalType": "address",
          "name": "to",
          "type": "address"
        },
        {
          "components": [
            {
              "internalType": "bytes",
              "name": "data",
              "type": "bytes"
            }
          ],
          "internalType": "struct inEuint32",
          "name": "value",
          "type": "tuple"
        }
      ],
      "name": "transferFromEncrypted",
      "outputs": [
        {
          "internalType": "euint32",
          "name": "",
          "type": "uint256"
        }
      ],
      "stateMutability": "nonpayable",
      "type": "function"
    },
    {
      "inputs": [
        {
          "internalType": "address",
          "name": "from",
          "type": "address"
        },
        {
          "internalType": "address",
          "name": "to",
          "type": "address"
        },
        {
          "internalType": "euint32",
          "name": "value",
          "type": "uint256"
        }
      ],
      "name": "transferFromEncrypted",
      "outputs": [
        {
          "internalType": "euint32",
          "name": "",
          "type": "uint256"
        }
      ],
      "stateMutability": "nonpayable",
      "type": "function"
    },
    {
      "inputs": [
        {
          "internalType": "uint32",
          "name": "amount",
          "type": "uint32"
        }
      ],
      "name": "unwrap",
      "outputs": [],
      "stateMutability": "nonpayable",
      "type": "function"
    },
    {
      "inputs": [
        {
          "internalType": "uint32",
          "name": "tokenAmount",
          "type": "uint32"
        }
      ],
      "name": "withdraw",
      "outputs": [],
      "stateMutability": "nonpayable",
      "type": "function"
    },
    {
      "inputs": [
        {
          "internalType": "uint32",
          "name": "amount",
          "type": "uint32"
        }
      ],
      "name": "wrap",
      "outputs": [],
      "stateMutability": "nonpayable",
      "type": "function"
    },
    {
      "stateMutability": "payable",
      "type": "receive"
    }
  ],
  "bytecode": "0x6101606040526200001760006200029060201b60201c565b60095564e8d4a51000600a556001600b60006101000a81548160ff0219169083151502179055503480156200004b57600080fd5b5060405162004c1f38038062004c1f833981810160405281019062000071919062000691565b6000825114620000825781620000b9565b6040518060400160405280600981526020017f46484520546f6b656e00000000000000000000000000000000000000000000008152505b6000825114620000ca578162000101565b6040518060400160405280600381526020017f46484500000000000000000000000000000000000000000000000000000000008152505b6040518060400160405280601181526020017f4668656e6978205065726d697373696f6e0000000000000000000000000000008152506040518060400160405280600381526020017f312e3000000000000000000000000000000000000000000000000000000000008152508383816003908162000180919062000961565b50806004908162000192919062000961565b505050620001ab600583620002ac60201b90919060201c565b6101208181525050620001c9600682620002ac60201b90919060201c565b6101408181525050818051906020012060e08181525050808051906020012061010081815250504660a08181525050620002086200030460201b60201c565b608081815250503073ffffffffffffffffffffffffffffffffffffffff1660c08173ffffffffffffffffffffffffffffffffffffffff16815250505050505033600b60016101000a81548173ffffffffffffffffffffffffffffffffffffffff021916908373ffffffffffffffffffffffffffffffffffffffff160217905550505062000dd7565b6000620002a58260026200036160201b60201c565b9050919050565b6000602083511015620002d257620002ca836200041860201b60201c565b9050620002fe565b82620002e4836200048560201b60201c565b6000019081620002f5919062000961565b5060ff60001b90505b92915050565b60007f8b73c3c69bb8fe3d512ecc4cf759cc79239f7b179b0ffacaa9a75d522b39400f60e0516101005146306040516020016200034695949392919062000ab9565b60405160208183030381529060405280519060200120905090565b60006060608073ffffffffffffffffffffffffffffffffffffffff166319e1c5c462000393866200048f60201b60201c565b856040518363ffffffff1660e01b8152600401620003b392919062000b91565b600060405180830381865afa158015620003d1573d6000803e3d6000fd5b505050506040513d6000823e3d601f19601f82011682018060405250810190620003fc919062000c79565b90506200040f81620004f060201b60201c565b91505092915050565b600080829050601f815111156200046857826040517f305a27a90000000000000000000000000000000000000000000000000000000081526004016200045f919062000d1c565b60405180910390fd5b805181620004769062000d67565b60001c1760001b915050919050565b6000819050919050565b6060602067ffffffffffffffff811115620004af57620004ae6200052d565b5b6040519080825280601f01601f191660200182016040528015620004e25781602001600182028036833780820191505090505b509050816020820152919050565b600060208201519050919050565b6000604051905090565b600080fd5b600080fd5b600080fd5b600080fd5b6000601f19601f8301169050919050565b7f4e487b7100000000000000000000000000000000000000000000000000000000600052604160045260246000fd5b62000567826200051c565b810181811067ffffffffffffffff821117156200058957620005886200052d565b5b80604052505050565b60006200059e620004fe565b9050620005ac82826200055c565b919050565b600067ffffffffffffffff821115620005cf57620005ce6200052d565b5b620005da826200051c565b9050602081019050919050565b60005b8381101562000607578082015181840152602081019050620005ea565b60008484015250505050565b60006200062a6200062484620005b1565b62000592565b90508281526020810184848401111562000649576200064862000517565b5b62000656848285620005e7565b509392505050565b600082601f83011262000676576200067562000512565b5b81516200068884826020860162000613565b91505092915050565b60008060408385031215620006ab57620006aa62000508565b5b600083015167ffffffffffffffff811115620006cc57620006cb6200050d565b5b620006da858286016200065e565b925050602083015167ffffffffffffffff811115620006fe57620006fd6200050d565b5b6200070c858286016200065e565b9150509250929050565b600081519050919050565b7f4e487b7100000000000000000000000000000000000000000000000000000000600052602260045260246000fd5b600060028204905060018216806200076957607f821691505b6020821081036200077f576200077e62000721565b5b50919050565b60008190508160005260206000209050919050565b60006020601f8301049050919050565b600082821b905092915050565b600060088302620007e97fffffffffffffffffffffffffffffffffffffffffffffffffffffffffffffffff82620007aa565b620007f58683620007aa565b95508019841693508086168417925050509392505050565b6000819050919050565b6000819050919050565b6000620008426200083c62000836846200080d565b62000817565b6200080d565b9050919050565b6000819050919050565b6200085e8362000821565b620008766200086d8262000849565b848454620007b7565b825550505050565b600090565b6200088d6200087e565b6200089a81848462000853565b505050565b5b81811015620008c257620008b660008262000883565b600181019050620008a0565b5050565b601f8211156200091157620008db8162000785565b620008e6846200079a565b81016020851015620008f6578190505b6200090e62000905856200079a565b8301826200089f565b50505b505050565b600082821c905092915050565b6000620009366000198460080262000916565b1980831691505092915050565b600062000951838362000923565b9150826002028217905092915050565b6200096c8262000716565b67ffffffffffffffff8111156200098857620009876200052d565b5b62000994825462000750565b620009a1828285620008c6565b600060209050601f831160018114620009d95760008415620009c4578287015190505b620009d0858262000943565b86555062000a40565b601f198416620009e98662000785565b60005b8281101562000a1357848901518255600182019150602085019450602081019050620009ec565b8683101562000a33578489015162000a2f601f89168262000923565b8355505b6001600288020188555050505b505050505050565b6000819050919050565b62000a5d8162000a48565b82525050565b62000a6e816200080d565b82525050565b600073ffffffffffffffffffffffffffffffffffffffff82169050919050565b600062000aa18262000a74565b9050919050565b62000ab38162000a94565b82525050565b600060a08201905062000ad0600083018862000a52565b62000adf602083018762000a52565b62000aee604083018662000a52565b62000afd606083018562000a63565b62000b0c608083018462000aa8565b9695505050505050565b600081519050919050565b600082825260208201905092915050565b600062000b3f8262000b16565b62000b4b818562000b21565b935062000b5d818560208601620005e7565b62000b68816200051c565b840191505092915050565b600060ff82169050919050565b62000b8b8162000b73565b82525050565b6000604082019050818103600083015262000bad818562000b32565b905062000bbe602083018462000b80565b9392505050565b600067ffffffffffffffff82111562000be35762000be26200052d565b5b62000bee826200051c565b9050602081019050919050565b600062000c1262000c0c8462000bc5565b62000592565b90508281526020810184848401111562000c315762000c3062000517565b5b62000c3e848285620005e7565b509392505050565b600082601f83011262000c5e5762000c5d62000512565b5b815162000c7084826020860162000bfb565b91505092915050565b60006020828403121562000c925762000c9162000508565b5b600082015167ffffffffffffffff81111562000cb35762000cb26200050d565b5b62000cc18482850162000c46565b91505092915050565b600082825260208201905092915050565b600062000ce88262000716565b62000cf4818562000cca565b935062000d06818560208601620005e7565b62000d11816200051c565b840191505092915050565b6000602082019050818103600083015262000d38818462000cdb565b905092915050565b6000819050602082019050919050565b600062000d5e825162000a48565b80915050919050565b600062000d748262000b16565b8262000d808462000d40565b905062000d8d8162000d50565b9250602082101562000dd05762000dcb7fffffffffffffffffffffffffffffffffffffffffffffffffffffffffffffffff83602003600802620007aa565b831692505b5050919050565b60805160a05160c05160e051610100516101205161014051613ded62000e326000396000611a7401526000611a390152600061294b0152600061292a015260006120f0015260006121460152600061216f0152613ded6000f3fe6080604052600436106101855760003560e01c80638624a349116100d1578063aa9224cd1161008a578063ce606ee011610064578063ce606ee01461068d578063d918156e146106b8578063dd62ed3e146106f5578063f4b8ef15146107325761023a565b8063aa9224cd146105ea578063af575a0014610613578063c4224c19146106505761023a565b80638624a349146104dc57806395d89b4114610519578063982ca5bf146105445780639f284be71461055b578063a0712d6814610584578063a9059cbb146105ad5761023a565b8063313ce5671161013e578063602772041161011857806360277204146104085780636e0505e11461044557806370a082311461046e57806384b0196e146104ab5761023a565b8063313ce5671461036357806339c217f71461038e5780635356c429146103cb5761023a565b806306fdde031461023f5780630801dc261461026a578063095ea7b31461028157806318160ddd146102be57806323b872dd146102e957806323db9354146103265761023a565b3661023a576000341161019661075b565b6040516020016101a69190612ce3565b604051602081830303815290604052906101f6576040517f08c379a00000000000000000000000000000000000000000000000000000000081526004016101ed9190612d6b565b60405180910390fd5b506000600a54346102079190612df5565b9050610219338263ffffffff166107ed565b600b60009054906101000a900460ff1615610238576102378161086f565b5b005b600080fd5b34801561024b57600080fd5b5061025461097c565b6040516102619190612d6b565b60405180910390f35b34801561027657600080fd5b5061027f610a0e565b005b34801561028d57600080fd5b506102a860048036038101906102a39190612ec4565b610a85565b6040516102b59190612f1f565b60405180910390f35b3480156102ca57600080fd5b506102d3610aa8565b6040516102e09190612f49565b60405180910390f35b3480156102f557600080fd5b50610310600480360381019061030b9190612f64565b610ab2565b60405161031d9190612f1f565b60405180910390f35b34801561033257600080fd5b5061034d60048036038101906103489190612fb7565b610ae1565b60405161035a9190613032565b60405180910390f35b34801561036f57600080fd5b50610378610b68565b6040516103859190613069565b60405180910390f35b34801561039a57600080fd5b506103b560048036038101906103b091906130a8565b610b71565b6040516103c29190613032565b60405180910390f35b3480156103d757600080fd5b506103f260048036038101906103ed9190613123565b610b96565b6040516103ff9190612d6b565b60405180910390f35b34801561041457600080fd5b5061042f600480360381019061042a9190613360565b610c94565b60405161043c9190612d6b565b60405180910390f35b34801561045157600080fd5b5061046c600480360381019061046791906133f8565b610dca565b005b34801561047a57600080fd5b5061049560048036038101906104909190613425565b610f01565b6040516104a29190612f49565b60405180910390f35b3480156104b757600080fd5b506104c0610f49565b6040516104d39796959493929190613569565b60405180910390f35b3480156104e857600080fd5b5061050360048036038101906104fe91906135ed565b610ff3565b6040516105109190613032565b60405180910390f35b34801561052557600080fd5b5061052e61075b565b60405161053b9190612d6b565b60405180910390f35b34801561055057600080fd5b50610559611031565b005b34801561056757600080fd5b50610582600480360381019061057d91906133f8565b61086f565b005b34801561059057600080fd5b506105ab60048036038101906105a6919061365c565b6110a8565b005b3480156105b957600080fd5b506105d460048036038101906105cf9190612ec4565b6110b5565b6040516105e19190612f1f565b60405180910390f35b3480156105f657600080fd5b50610611600480360381019061060c91906133f8565b6110d8565b005b34801561061f57600080fd5b5061063a600480360381019061063591906136b5565b61114b565b6040516106479190613032565b60405180910390f35b34801561065c57600080fd5b5061067760048036038101906106729190613708565b611178565b6040516106849190613032565b60405180910390f35b34801561069957600080fd5b506106a261118d565b6040516106af9190613748565b60405180910390f35b3480156106c457600080fd5b506106df60048036038101906106da91906130a8565b6111b3565b6040516106ec9190612f1f565b60405180910390f35b34801561070157600080fd5b5061071c60048036038101906107179190612fb7565b6111db565b6040516107299190612f49565b60405180910390f35b34801561073e57600080fd5b5061075960048036038101906107549190613763565b611262565b005b60606004805461076a906137db565b80601f0160208091040260200160405190810160405280929190818152602001828054610796906137db565b80156107e35780601f106107b8576101008083540402835291602001916107e3565b820191906000526020600020905b8154815290600101906020018083116107c657829003601f168201915b5050505050905090565b600073ffffffffffffffffffffffffffffffffffffffff168273ffffffffffffffffffffffffffffffffffffffff160361085f5760006040517fec442f050000000000000000000000000000000000000000000000000000000081526004016108569190613748565b60405180910390fd5b61086b600083836113b0565b5050565b8063ffffffff1661087f33610f01565b10156108b7576040517ffda7bbda00000000000000000000000000000000000000000000000000000000815260040160405180910390fd5b6108c7338263ffffffff166115d5565b60006108d88263ffffffff16611657565b9050610923600760003373ffffffffffffffffffffffffffffffffffffffff1673ffffffffffffffffffffffffffffffffffffffff168152602001908152602001600020548261166b565b600760003373ffffffffffffffffffffffffffffffffffffffff1673ffffffffffffffffffffffffffffffffffffffff168152602001908152602001600020819055506109726009548261166b565b6009819055505050565b60606003805461098b906137db565b80601f01602080910402602001604051908101604052809291908181526020018280546109b7906137db565b8015610a045780601f106109d957610100808354040283529160200191610a04565b820191906000526020600020905b8154815290600101906020018083116109e757829003601f168201915b5050505050905090565b600b60019054906101000a900473ffffffffffffffffffffffffffffffffffffffff1673ffffffffffffffffffffffffffffffffffffffff163373ffffffffffffffffffffffffffffffffffffffff1614610a6857600080fd5b6001600b60006101000a81548160ff021916908315150217905550565b600080610a9061167f565b9050610a9d818585611687565b600191505092915050565b6000600254905090565b600080610abd61167f565b9050610aca858285611699565b610ad585858561172d565b60019150509392505050565b6000600860008473ffffffffffffffffffffffffffffffffffffffff1673ffffffffffffffffffffffffffffffffffffffff16815260200190815260200160002060008373ffffffffffffffffffffffffffffffffffffffff1673ffffffffffffffffffffffffffffffffffffffff16815260200190815260200160002054905092915050565b60006012905090565b6000610b8e83610b8984610b8490613864565b611821565b611178565b905092915050565b606081610ba290613877565b6000610bf97f6bdaeb2d29561f159c7ef98b16b27015fb2aeb87209c7ee656226d912f59927d8360000151604051602001610bde92919061388a565b60405160208183030381529060405280519060200120611837565b90506000610c0b828460200151611851565b90503373ffffffffffffffffffffffffffffffffffffffff168173ffffffffffffffffffffffffffffffffffffffff1614610c72576040517f3093a27700000000000000000000000000000000000000000000000000000000815260040160405180910390fd5b610c89610c7f3388610ae1565b866000013561187d565b935050505092915050565b606081836000610cef7f6bdaeb2d29561f159c7ef98b16b27015fb2aeb87209c7ee656226d912f59927d8460000151604051602001610cd492919061388a565b60405160208183030381529060405280519060200120611837565b90506000610d01828560200151611851565b90508273ffffffffffffffffffffffffffffffffffffffff168173ffffffffffffffffffffffffffffffffffffffff1614610d68576040517f51c65eae00000000000000000000000000000000000000000000000000000000815260040160405180910390fd5b610dbe8660000151600760008a73ffffffffffffffffffffffffffffffffffffffff1673ffffffffffffffffffffffffffffffffffffffff168152602001908152602001600020546118b390919063ffffffff16565b94505050505092915050565b6000610ddb8263ffffffff16611657565b90506000610e44610e3483600760003373ffffffffffffffffffffffffffffffffffffffff1673ffffffffffffffffffffffffffffffffffffffff168152602001908152602001600020546118c790919063ffffffff16565b610e3e6000611657565b846118db565b9050610e8f600760003373ffffffffffffffffffffffffffffffffffffffff1673ffffffffffffffffffffffffffffffffffffffff1681526020019081526020016000205482611959565b600760003373ffffffffffffffffffffffffffffffffffffffff1673ffffffffffffffffffffffffffffffffffffffff16815260200190815260200160002081905550610ede60095482611959565b600981905550610efc33610ef18361196d565b63ffffffff166107ed565b505050565b60008060008373ffffffffffffffffffffffffffffffffffffffff1673ffffffffffffffffffffffffffffffffffffffff168152602001908152602001600020549050919050565b600060608060008060006060610f5d611a30565b610f65611a6b565b46306000801b600067ffffffffffffffff811115610f8657610f85613184565b5b604051908082528060200260200182016040528015610fb45781602001602082028036833780820191505090505b507f0f00000000000000000000000000000000000000000000000000000000000000959493929190965096509650965096509650965090919293949596565b6000806110088361100390613864565b611821565b90506000611017863384611aa6565b9050611024868683611ae3565b5080925050509392505050565b600b60019054906101000a900473ffffffffffffffffffffffffffffffffffffffff1673ffffffffffffffffffffffffffffffffffffffff163373ffffffffffffffffffffffffffffffffffffffff161461108b57600080fd5b6000600b60006101000a81548160ff021916908315150217905550565b6110b233826107ed565b50565b6000806110c061167f565b90506110cd81858561172d565b600191505092915050565b6110e8338263ffffffff166115d5565b6000600a548263ffffffff166110fe91906138b3565b90503373ffffffffffffffffffffffffffffffffffffffff166108fc829081150290604051600060405180830381858888f19350505050158015611146573d6000803e3d6000fd5b505050565b600080829050600061115e863384611aa6565b905061116b868683611ae3565b5080925050509392505050565b6000611185338484611ae3565b905092915050565b600b60019054906101000a900473ffffffffffffffffffffffffffffffffffffffff1681565b60006111d133846111cc856111c790613864565b611821565b611c70565b6001905092915050565b6000600160008473ffffffffffffffffffffffffffffffffffffffff1673ffffffffffffffffffffffffffffffffffffffff16815260200190815260200160002060008373ffffffffffffffffffffffffffffffffffffffff1673ffffffffffffffffffffffffffffffffffffffff16815260200190815260200160002054905092915050565b60006112768261127190613864565b611821565b90506112c0600760003373ffffffffffffffffffffffffffffffffffffffff1673ffffffffffffffffffffffffffffffffffffffff16815260200190815260200160002054611dda565b61130d5780600760003373ffffffffffffffffffffffffffffffffffffffff1673ffffffffffffffffffffffffffffffffffffffff1681526020019081526020016000208190555061139a565b611356600760003373ffffffffffffffffffffffffffffffffffffffff1673ffffffffffffffffffffffffffffffffffffffff168152602001908152602001600020548261166b565b600760003373ffffffffffffffffffffffffffffffffffffffff1673ffffffffffffffffffffffffffffffffffffffff168152602001908152602001600020819055505b6113a66009548261166b565b6009819055505050565b600073ffffffffffffffffffffffffffffffffffffffff168373ffffffffffffffffffffffffffffffffffffffff16036114025780600260008282546113f691906138f5565b925050819055506114d5565b60008060008573ffffffffffffffffffffffffffffffffffffffff1673ffffffffffffffffffffffffffffffffffffffff1681526020019081526020016000205490508181101561148e578381836040517fe450d38c00000000000000000000000000000000000000000000000000000000815260040161148593929190613929565b60405180910390fd5b8181036000808673ffffffffffffffffffffffffffffffffffffffff1673ffffffffffffffffffffffffffffffffffffffff16815260200190815260200160002081905550505b600073ffffffffffffffffffffffffffffffffffffffff168273ffffffffffffffffffffffffffffffffffffffff160361151e578060026000828254039250508190555061156b565b806000808473ffffffffffffffffffffffffffffffffffffffff1673ffffffffffffffffffffffffffffffffffffffff168152602001908152602001600020600082825401925050819055505b8173ffffffffffffffffffffffffffffffffffffffff168373ffffffffffffffffffffffffffffffffffffffff167fddf252ad1be2c89b69c2b068fc378daa952ba7f163c4a11628f55a4df523b3ef836040516115c89190612f49565b60405180910390a3505050565b600073ffffffffffffffffffffffffffffffffffffffff168273ffffffffffffffffffffffffffffffffffffffff16036116475760006040517f96c6fd1e00000000000000000000000000000000000000000000000000000000815260040161163e9190613748565b60405180910390fd5b611653826000836113b0565b5050565b6000611664826002611de7565b9050919050565b60006116778383611e89565b905092915050565b600033905090565b6116948383836001611f01565b505050565b60006116a584846111db565b90507fffffffffffffffffffffffffffffffffffffffffffffffffffffffffffffffff81146117275781811015611717578281836040517ffb8f41b200000000000000000000000000000000000000000000000000000000815260040161170e93929190613929565b60405180910390fd5b61172684848484036000611f01565b5b50505050565b600073ffffffffffffffffffffffffffffffffffffffff168373ffffffffffffffffffffffffffffffffffffffff160361179f5760006040517f96c6fd1e0000000000000000000000000000000000000000000000000000000081526004016117969190613748565b60405180910390fd5b600073ffffffffffffffffffffffffffffffffffffffff168273ffffffffffffffffffffffffffffffffffffffff16036118115760006040517fec442f050000000000000000000000000000000000000000000000000000000081526004016118089190613748565b60405180910390fd5b61181c8383836113b0565b505050565b600061183082600001516120d8565b9050919050565b600061184a6118446120ec565b836121a3565b9050919050565b60008060008061186186866121e4565b9250925092506118718282612240565b82935050505092915050565b606061188883611dda565b611899576118966000611657565b92505b60008390506118aa600282856123a4565b91505092915050565b60606118bf838361187d565b905092915050565b60006118d3838361245a565b905092915050565b60006118e6846124d3565b6118f7576118f460006124e0565b93505b61190083611dda565b6119115761190e6000611657565b92505b61191a82611dda565b61192b576119286000611657565b91505b600084905060008490506000849050600061194960028585856124f4565b9050809450505050509392505050565b600061196583836125ac565b905092915050565b600061197882611dda565b611989576119866000611657565b91505b6000829050600061199982612625565b90506000608073ffffffffffffffffffffffffffffffffffffffff166373cc01546002846040518363ffffffff1660e01b81526004016119da9291906139b5565b602060405180830381865afa1580156119f7573d6000803e3d6000fd5b505050506040513d601f19601f82011682018060405250810190611a1b91906139fa565b9050611a2681612682565b9350505050919050565b6060611a6660057f000000000000000000000000000000000000000000000000000000000000000061268c90919063ffffffff16565b905090565b6060611aa160067f000000000000000000000000000000000000000000000000000000000000000061268c90919063ffffffff16565b905090565b600080611ab38585610ae1565b90506000611ac1828561273c565b9050611ad78686611ad28585611959565b611c70565b80925050509392505050565b600080611b4b611b3b600760008873ffffffffffffffffffffffffffffffffffffffff1673ffffffffffffffffffffffffffffffffffffffff16815260200190815260200160002054856127b590919063ffffffff16565b84611b466000611657565b6118db565b9050611b96600760008673ffffffffffffffffffffffffffffffffffffffff1673ffffffffffffffffffffffffffffffffffffffff168152602001908152602001600020548261166b565b600760008673ffffffffffffffffffffffffffffffffffffffff1673ffffffffffffffffffffffffffffffffffffffff16815260200190815260200160002081905550611c22600760008773ffffffffffffffffffffffffffffffffffffffff1673ffffffffffffffffffffffffffffffffffffffff1681526020019081526020016000205482611959565b600760008773ffffffffffffffffffffffffffffffffffffffff1673ffffffffffffffffffffffffffffffffffffffff16815260200190815260200160002081905550809150509392505050565b600073ffffffffffffffffffffffffffffffffffffffff168373ffffffffffffffffffffffffffffffffffffffff1603611ce25760006040517fe602df05000000000000000000000000000000000000000000000000000000008152600401611cd99190613748565b60405180910390fd5b600073ffffffffffffffffffffffffffffffffffffffff168273ffffffffffffffffffffffffffffffffffffffff1603611d545760006040517f94280d62000000000000000000000000000000000000000000000000000000008152600401611d4b9190613748565b60405180910390fd5b80600860008573ffffffffffffffffffffffffffffffffffffffff1673ffffffffffffffffffffffffffffffffffffffff16815260200190815260200160002060008473ffffffffffffffffffffffffffffffffffffffff1673ffffffffffffffffffffffffffffffffffffffff16815260200190815260200160002081905550505050565b6000808214159050919050565b60006060608073ffffffffffffffffffffffffffffffffffffffff166319e1c5c4611e1186612625565b856040518363ffffffff1660e01b8152600401611e2f929190613a27565b600060405180830381865afa158015611e4c573d6000803e3d6000fd5b505050506040513d6000823e3d601f19601f82011682018060405250810190611e759190613ac7565b9050611e80816127c9565b91505092915050565b6000611e9483611dda565b611ea557611ea26000611657565b92505b611eae82611dda565b611ebf57611ebc6000611657565b91505b600083905060008390506000611ef360028484608073ffffffffffffffffffffffffffffffffffffffff16622df6196127d7565b905080935050505092915050565b600073ffffffffffffffffffffffffffffffffffffffff168473ffffffffffffffffffffffffffffffffffffffff1603611f735760006040517fe602df05000000000000000000000000000000000000000000000000000000008152600401611f6a9190613748565b60405180910390fd5b600073ffffffffffffffffffffffffffffffffffffffff168373ffffffffffffffffffffffffffffffffffffffff1603611fe55760006040517f94280d62000000000000000000000000000000000000000000000000000000008152600401611fdc9190613748565b60405180910390fd5b81600160008673ffffffffffffffffffffffffffffffffffffffff1673ffffffffffffffffffffffffffffffffffffffff16815260200190815260200160002060008573ffffffffffffffffffffffffffffffffffffffff1673ffffffffffffffffffffffffffffffffffffffff1681526020019081526020016000208190555080156120d2578273ffffffffffffffffffffffffffffffffffffffff168473ffffffffffffffffffffffffffffffffffffffff167f8c5be1e5ebec7d5bd14f71427d1e84f3dd0314c0f7b2291e5b200ac8c7c3b925846040516120c99190612f49565b60405180910390a35b50505050565b60006120e582600261286b565b9050919050565b60007f000000000000000000000000000000000000000000000000000000000000000073ffffffffffffffffffffffffffffffffffffffff163073ffffffffffffffffffffffffffffffffffffffff1614801561216857507f000000000000000000000000000000000000000000000000000000000000000046145b15612195577f000000000000000000000000000000000000000000000000000000000000000090506121a0565b61219d612905565b90505b90565b60006040517f190100000000000000000000000000000000000000000000000000000000000081528360028201528260228201526042812091505092915050565b600080600060418451036122295760008060006020870151925060408701519150606087015160001a905061221b8882858561299b565b955095509550505050612239565b60006002855160001b9250925092505b9250925092565b6000600381111561225457612253613b10565b5b82600381111561226757612266613b10565b5b03156123a0576001600381111561228157612280613b10565b5b82600381111561229457612293613b10565b5b036122cb576040517ff645eedf00000000000000000000000000000000000000000000000000000000815260040160405180910390fd5b600260038111156122df576122de613b10565b5b8260038111156122f2576122f1613b10565b5b03612337578060001c6040517ffce698f700000000000000000000000000000000000000000000000000000000815260040161232e9190612f49565b60405180910390fd5b60038081111561234a57612349613b10565b5b82600381111561235d5761235c613b10565b5b0361239f57806040517fd78bce0c0000000000000000000000000000000000000000000000000000000081526004016123969190613b3f565b60405180910390fd5b5b5050565b6060608073ffffffffffffffffffffffffffffffffffffffff1663a1848ff3856123cd86612625565b856040516020016123de9190613b7b565b6040516020818303038152906040526040518463ffffffff1660e01b815260040161240b93929190613b96565b600060405180830381865afa158015612428573d6000803e3d6000fd5b505050506040513d6000823e3d601f19601f820116820180604052508101906124519190613c7c565b90509392505050565b600061246583611dda565b612476576124736000611657565b92505b61247f82611dda565b6124905761248d6000611657565b91505b6000839050600083905060006124c560028484608073ffffffffffffffffffffffffffffffffffffffff1663b9c7a54b6127d7565b905080935050505092915050565b6000808214159050919050565b60006124ed82600d611de7565b9050919050565b60006060608073ffffffffffffffffffffffffffffffffffffffff1663c2d969528761251f88612625565b61252888612625565b61253188612625565b6040518563ffffffff1660e01b81526004016125509493929190613cc5565b600060405180830381865afa15801561256d573d6000803e3d6000fd5b505050506040513d6000823e3d601f19601f820116820180604052508101906125969190613ac7565b90506125a1816127c9565b915050949350505050565b60006125b783611dda565b6125c8576125c56000611657565b92505b6125d182611dda565b6125e2576125df6000611657565b91505b60008390506000839050600061261760028484608073ffffffffffffffffffffffffffffffffffffffff1663cc2cbeff6127d7565b905080935050505092915050565b6060602067ffffffffffffffff81111561264257612641613184565b5b6040519080825280601f01601f1916602001820160405280156126745781602001600182028036833780820191505090505b509050816020820152919050565b6000819050919050565b606060ff60001b83146126a9576126a283612a8f565b9050612736565b8180546126b5906137db565b80601f01602080910402602001604051908101604052809291908181526020018280546126e1906137db565b801561272e5780601f106127035761010080835404028352916020019161272e565b820191906000526020600020905b81548152906001019060200180831161271157829003601f168201915b505050505090505b92915050565b600061274783611dda565b612758576127556000611657565b92505b61276182611dda565b6127725761276f6000611657565b91505b6000839050600083905060006127a760028484608073ffffffffffffffffffffffffffffffffffffffff16635211c6796127d7565b905080935050505092915050565b60006127c18383612b03565b905092915050565b600060208201519050919050565b600060608383886127e789612625565b6127f089612625565b6040518463ffffffff1660e01b815260040161280e93929190613b96565b600060405180830381865afa15801561282b573d6000803e3d6000fd5b505050506040513d6000823e3d601f19601f820116820180604052508101906128549190613ac7565b905061285f81612b7c565b91505095945050505050565b60006060608073ffffffffffffffffffffffffffffffffffffffff16635fa55ca784866040518363ffffffff1660e01b81526004016128ab9291906139b5565b600060405180830381865afa1580156128c8573d6000803e3d6000fd5b505050506040513d6000823e3d601f19601f820116820180604052508101906128f19190613ac7565b90506128fc816127c9565b91505092915050565b60007f8b73c3c69bb8fe3d512ecc4cf759cc79239f7b179b0ffacaa9a75d522b39400f7f00000000000000000000000000000000000000000000000000000000000000007f00000000000000000000000000000000000000000000000000000000000000004630604051602001612980959493929190613d1f565b60405160208183030381529060405280519060200120905090565b60008060007f7fffffffffffffffffffffffffffffff5d576e7357a4501ddfe92f46681b20a08460001c11156129db576000600385925092509250612a85565b600060018888888860405160008152602001604052604051612a009493929190613d72565b6020604051602081039080840390855afa158015612a22573d6000803e3d6000fd5b505050602060405103519050600073ffffffffffffffffffffffffffffffffffffffff168173ffffffffffffffffffffffffffffffffffffffff1603612a7657600060016000801b93509350935050612a85565b8060008060001b935093509350505b9450945094915050565b60606000612a9c83612b8a565b90506000602067ffffffffffffffff811115612abb57612aba613184565b5b6040519080825280601f01601f191660200182016040528015612aed5781602001600182028036833780820191505090505b5090508181528360208201528092505050919050565b6000612b0e83611dda565b612b1f57612b1c6000611657565b92505b612b2882611dda565b612b3957612b366000611657565b91505b600083905060008390506000612b6e60028484608073ffffffffffffffffffffffffffffffffffffffff1663eb274b776127d7565b905080935050505092915050565b600060208201519050919050565b60008060ff8360001c169050601f811115612bd1576040517fb3512b0c00000000000000000000000000000000000000000000000000000000815260040160405180910390fd5b80915050919050565b600081905092915050565b7f53656e6420000000000000000000000000000000000000000000000000000000600082015250565b6000612c1b600583612bda565b9150612c2682612be5565b600582019050919050565b600081519050919050565b60005b83811015612c5a578082015181840152602081019050612c3f565b60008484015250505050565b6000612c7182612c31565b612c7b8185612bda565b9350612c8b818560208601612c3c565b80840191505092915050565b7f20746f2062757920746f6b656e73000000000000000000000000000000000000600082015250565b6000612ccd600e83612bda565b9150612cd882612c97565b600e82019050919050565b6000612cee82612c0e565b9150612cfa8284612c66565b9150612d0582612cc0565b915081905092915050565b600082825260208201905092915050565b6000601f19601f8301169050919050565b6000612d3d82612c31565b612d478185612d10565b9350612d57818560208601612c3c565b612d6081612d21565b840191505092915050565b60006020820190508181036000830152612d858184612d32565b905092915050565b6000819050919050565b7f4e487b7100000000000000000000000000000000000000000000000000000000600052601260045260246000fd5b7f4e487b7100000000000000000000000000000000000000000000000000000000600052601160045260246000fd5b6000612e0082612d8d565b9150612e0b83612d8d565b925082612e1b57612e1a612d97565b5b828204905092915050565b6000604051905090565b600080fd5b600080fd5b600073ffffffffffffffffffffffffffffffffffffffff82169050919050565b6000612e6582612e3a565b9050919050565b612e7581612e5a565b8114612e8057600080fd5b50565b600081359050612e9281612e6c565b92915050565b612ea181612d8d565b8114612eac57600080fd5b50565b600081359050612ebe81612e98565b92915050565b60008060408385031215612edb57612eda612e30565b5b6000612ee985828601612e83565b9250506020612efa85828601612eaf565b9150509250929050565b60008115159050919050565b612f1981612f04565b82525050565b6000602082019050612f346000830184612f10565b92915050565b612f4381612d8d565b82525050565b6000602082019050612f5e6000830184612f3a565b92915050565b600080600060608486031215612f7d57612f7c612e30565b5b6000612f8b86828701612e83565b9350506020612f9c86828701612e83565b9250506040612fad86828701612eaf565b9150509250925092565b60008060408385031215612fce57612fcd612e30565b5b6000612fdc85828601612e83565b9250506020612fed85828601612e83565b9150509250929050565b6000819050919050565b600061301c61301761301284612d8d565b612ff7565b612d8d565b9050919050565b61302c81613001565b82525050565b60006020820190506130476000830184613023565b92915050565b600060ff82169050919050565b6130638161304d565b82525050565b600060208201905061307e600083018461305a565b92915050565b600080fd5b60006020828403121561309f5761309e613084565b5b81905092915050565b600080604083850312156130bf576130be612e30565b5b60006130cd85828601612e83565b925050602083013567ffffffffffffffff8111156130ee576130ed612e35565b5b6130fa85828601613089565b9150509250929050565b60006040828403121561311a57613119613084565b5b81905092915050565b6000806040838503121561313a57613139612e30565b5b600061314885828601612e83565b925050602083013567ffffffffffffffff81111561316957613168612e35565b5b61317585828601613104565b9150509250929050565b600080fd5b7f4e487b7100000000000000000000000000000000000000000000000000000000600052604160045260246000fd5b6131bc82612d21565b810181811067ffffffffffffffff821117156131db576131da613184565b5b80604052505050565b60006131ee612e26565b90506131fa82826131b3565b919050565b600080fd5b6000819050919050565b61321781613204565b811461322257600080fd5b50565b6000813590506132348161320e565b92915050565b600080fd5b600080fd5b600067ffffffffffffffff82111561325f5761325e613184565b5b61326882612d21565b9050602081019050919050565b82818337600083830152505050565b600061329761329284613244565b6131e4565b9050828152602081018484840111156132b3576132b261323f565b5b6132be848285613275565b509392505050565b600082601f8301126132db576132da61323a565b5b81356132eb848260208601613284565b91505092915050565b60006040828403121561330a5761330961317f565b5b61331460406131e4565b9050600061332484828501613225565b600083015250602082013567ffffffffffffffff811115613348576133476131ff565b5b613354848285016132c6565b60208301525092915050565b6000806040838503121561337757613376612e30565b5b600061338585828601612e83565b925050602083013567ffffffffffffffff8111156133a6576133a5612e35565b5b6133b2858286016132f4565b9150509250929050565b600063ffffffff82169050919050565b6133d5816133bc565b81146133e057600080fd5b50565b6000813590506133f2816133cc565b92915050565b60006020828403121561340e5761340d612e30565b5b600061341c848285016133e3565b91505092915050565b60006020828403121561343b5761343a612e30565b5b600061344984828501612e83565b91505092915050565b60007fff0000000000000000000000000000000000000000000000000000000000000082169050919050565b61348781613452565b82525050565b61349681612e5a565b82525050565b6134a581613204565b82525050565b600081519050919050565b600082825260208201905092915050565b6000819050602082019050919050565b6134e081612d8d565b82525050565b60006134f283836134d7565b60208301905092915050565b6000602082019050919050565b6000613516826134ab565b61352081856134b6565b935061352b836134c7565b8060005b8381101561355c57815161354388826134e6565b975061354e836134fe565b92505060018101905061352f565b5085935050505092915050565b600060e08201905061357e600083018a61347e565b81810360208301526135908189612d32565b905081810360408301526135a48188612d32565b90506135b36060830187612f3a565b6135c0608083018661348d565b6135cd60a083018561349c565b81810360c08301526135df818461350b565b905098975050505050505050565b60008060006060848603121561360657613605612e30565b5b600061361486828701612e83565b935050602061362586828701612e83565b925050604084013567ffffffffffffffff81111561364657613645612e35565b5b61365286828701613089565b9150509250925092565b60006020828403121561367257613671612e30565b5b600061368084828501612eaf565b91505092915050565b61369281612d8d565b811461369d57600080fd5b50565b6000813590506136af81613689565b92915050565b6000806000606084860312156136ce576136cd612e30565b5b60006136dc86828701612e83565b93505060206136ed86828701612e83565b92505060406136fe868287016136a0565b9150509250925092565b6000806040838503121561371f5761371e612e30565b5b600061372d85828601612e83565b925050602061373e858286016136a0565b9150509250929050565b600060208201905061375d600083018461348d565b92915050565b60006020828403121561377957613778612e30565b5b600082013567ffffffffffffffff81111561379757613796612e35565b5b6137a384828501613089565b91505092915050565b7f4e487b7100000000000000000000000000000000000000000000000000000000600052602260045260246000fd5b600060028204905060018216806137f357607f821691505b602082108103613806576138056137ac565b5b50919050565b6000602082840312156138225761382161317f565b5b61382c60206131e4565b9050600082013567ffffffffffffffff81111561384c5761384b6131ff565b5b613858848285016132c6565b60008301525092915050565b6000613870368361380c565b9050919050565b600061388336836132f4565b9050919050565b600060408201905061389f600083018561349c565b6138ac602083018461349c565b9392505050565b60006138be82612d8d565b91506138c983612d8d565b92508282026138d781612d8d565b915082820484148315176138ee576138ed612dc6565b5b5092915050565b600061390082612d8d565b915061390b83612d8d565b925082820190508082111561392357613922612dc6565b5b92915050565b600060608201905061393e600083018661348d565b61394b6020830185612f3a565b6139586040830184612f3a565b949350505050565b600081519050919050565b600082825260208201905092915050565b600061398782613960565b613991818561396b565b93506139a1818560208601612c3c565b6139aa81612d21565b840191505092915050565b60006040820190506139ca600083018561305a565b81810360208301526139dc818461397c565b90509392505050565b6000815190506139f481612e98565b92915050565b600060208284031215613a1057613a0f612e30565b5b6000613a1e848285016139e5565b91505092915050565b60006040820190508181036000830152613a41818561397c565b9050613a50602083018461305a565b9392505050565b6000613a6a613a6584613244565b6131e4565b905082815260208101848484011115613a8657613a8561323f565b5b613a91848285612c3c565b509392505050565b600082601f830112613aae57613aad61323a565b5b8151613abe848260208601613a57565b91505092915050565b600060208284031215613add57613adc612e30565b5b600082015167ffffffffffffffff811115613afb57613afa612e35565b5b613b0784828501613a99565b91505092915050565b7f4e487b7100000000000000000000000000000000000000000000000000000000600052602160045260246000fd5b6000602082019050613b54600083018461349c565b92915050565b6000819050919050565b613b75613b7082613204565b613b5a565b82525050565b6000613b878284613b64565b60208201915081905092915050565b6000606082019050613bab600083018661305a565b8181036020830152613bbd818561397c565b90508181036040830152613bd1818461397c565b9050949350505050565b600067ffffffffffffffff821115613bf657613bf5613184565b5b613bff82612d21565b9050602081019050919050565b6000613c1f613c1a84613bdb565b6131e4565b905082815260208101848484011115613c3b57613c3a61323f565b5b613c46848285612c3c565b509392505050565b600082601f830112613c6357613c6261323a565b5b8151613c73848260208601613c0c565b91505092915050565b600060208284031215613c9257613c91612e30565b5b600082015167ffffffffffffffff811115613cb057613caf612e35565b5b613cbc84828501613c4e565b91505092915050565b6000608082019050613cda600083018761305a565b8181036020830152613cec818661397c565b90508181036040830152613d00818561397c565b90508181036060830152613d14818461397c565b905095945050505050565b600060a082019050613d34600083018861349c565b613d41602083018761349c565b613d4e604083018661349c565b613d5b6060830185612f3a565b613d68608083018461348d565b9695505050505050565b6000608082019050613d87600083018761349c565b613d94602083018661305a565b613da1604083018561349c565b613dae606083018461349c565b9594505050505056fea264697066735822122063c70ca335238abc08f2038fbfbc3ac6f3393b0d8536267af8f69aa20f11707e64736f6c63430008140033",
  "linkReferences": {},
  "deployedLinkReferences": {}
}